:100000000C944F070C94041F0C946C070C946C0711
:100010000C946C070C946C070C946C070C946C0794
:100020000C946C070C946C070C94B80E0C946C0731
:100030000C946C070C946C070C946C070C946C0774
:100040000C946C070C946C070C946C070C946C0764
:100050000C946C070C946C070C946C070C946C0754
:100060000C946C070C946C0752656164792E0D0A30
:10007000004D6F756E74206661696C65640D0A00D1
:100080004641543132204F4B0D0A004D6F756E744E
:100090002046415431322E2E2E0D0A004E6F206420
:1000A00069736B20696E2064726976650D0A00447D
:1000B00072697665204F4B0D0A004E6F206472699D
:1000C0007665210D0A00466C6F70707920696E6943
:1000D000742E2E2E0D0A00436F6D7072657373209F
:1000E0004F4B0D0A00466173746C6F6164204F4B77
:1000F0000D0A00494543206465766963652023380D
:100100000D0A0037344843353935204F4B0D0A006E
:100110005352414D204F4B0D0A000D0A3D3D3D20ED
:1001200036346B6F727070752076312E3020284E09
:10013000616E6F2B5352414D29203D3D3D0D0A000C
:100140000D0A0020455252005B4449534B5D207715
:10015000726974652072633D000D0A0020523D00F3
:1001600020533D0020543D005B4449534B5D2077B4
:1001700072697465204C42413D000D0A00204552D1
:1001800052005B4449534B5D207265616420726389
:100190003D000D0A0020523D0020533D0020543DFB
:1001A000005B4449534B5D2072656164204C4241C1
:1001B0003D003031323334353637383941424344EB
:1001C000454600204641494C210D0A00204F4B0D69
:1001D0000A002072656164203078005B5352414D03
:1001E0005D20746573743A2077726F74652030787F
:1001F000005B5352414D5D20696E69742053504934
:100200002E2E2E0D0A00202F4F453D4F4E0D0A0079
:100210005B53525D2064656661756C743D30780097
:100220005B53525D20696E69740D0A005B464C5049
:100230005D207772697465204F4B0D0A005B464C58
:10024000505D204D464D20777269746520464149C6
:100250004C0D0A005B464C505D204D464D20777298
:100260006974652E2E2E0D0A005B464C505D20777A
:10027000726974653A207365656B206661696C65A7
:10028000640D0A005B464C505D20777269746520EE
:100290004552523A2077726974652070726F7465A6
:1002A00063746564210D0A005B464C505D207772D3
:1002B000697465204552523A206261642073656317
:1002C000746F720D0A000D0A0020523D0020533D4C
:1002D000005B464C505D20777269746520543D0088
:1002E0005B464C505D20616C6C203136206174742B
:1002F000656D707473206661696C65640D0A005BDE
:10030000464C505D206465636F6465204641494CEE
:100310002C207265747279696E6720776974682021
:1003200063616C696272617465642074687265737C
:10033000686F6C64730D0A000D0A005B464C505DDB
:100340002072656164204F4B2C20666972737420A3
:1003500062797465733A20002E2E2E0D0A005B46DA
:100360004C505D206465636F646520523D005B46C0
:100370004C505D2063617074757265204641494C34
:100380000D0A0020636170747572652E2E2E0D0AA1
:10039000005B464C505D20617474656D7074200084
:1003A0005B464C505D20726561643A207365656BF5
:1003B000206661696C65640D0A000D0A005B464C9D
:1003C000505D2057503D005B464C505D207265618A
:1003D00064204552523A2062616420736563746FF1
:1003E000720D0A000D0A0020523D0020533D005BB3
:1003F000464C505D207265616420543D000D0A003A
:100400005B464C505D20736964653D000D0A002D0C
:100410003E54005B464C505D207365656B20540074
:100420005B464C505D207365656B3A206E6F74209F
:10043000696E697469616C697A65642C20726563A0
:10044000616C6962726174696E670D0A000D0A0061
:10045000203E3D20005B464C505D207365656B205F
:100460004552523A20747261636B2000202D3E2069
:100470006469736B204E4F542050524553454E547F
:100480000D0A00202D3E206469736B2050524553A5
:10049000454E540D0A00205750543D005B464C50C9
:1004A0005D206469736B20636865636B3A20445315
:1004B0004B4348473D005B464C505D204552523A05
:1004C0002054524B3030206E6F7420666F756E640E
:1004D00020616674657220383520737465707321ED
:1004E0000D0A002073746570730D0A005B464C5052
:1004F0005D2054524B303020666F756E642061660B
:1005000074657220005B464C505D20726563616CBF
:100510006962726174653A207365656B696E672004
:10052000747261636B20302E2E2E0D0A005B464CD8
:10053000505D206D6F746F72204F46460D0A005B50
:10054000464C505D206D6F746F72207370696E2D14
:1005500075702074696D656F757420286E6F202F1B
:100560005244415441290D0A000D0A005B464C508B
:100570005D205741524E494E473A207369676E617C
:100580006C20746F6F20666173742C206E6F6973BA
:10059000653F206176673D0020286578706563744B
:1005A0006564207E313030292E20436865636B20DE
:1005B00031325620737570706C792E0D0A005B46CF
:1005C0004C505D205741524E494E473A206D6F7452
:1005D0006F7220746F6F20736C6F77212061766764
:1005E0003D00207469636B730D0A006D732C2061EC
:1005F000766720696E74657276616C3D005B464C6F
:10060000505D206D6F746F72207265616479206136
:100610006674657220005B464C505D206D6F746F90
:1006200072204F4E2C2077616974696E6720666F67
:10063000722073706565642E2E2E0D0A000D0A005F
:100640005B464C505D20696E697420646F6E652C4A
:100650002053523D3078000D0A002044534B43484C
:10066000473D00205750543D005B464C505D20698B
:100670006E707574733A2054524B30303D005B46B7
:100680004C505D20696E6974204750494F2E2E2EC4
:100690000D0A005B4D464D5D20736563746F7220DB
:1006A0007363616E2074696D656F75740D0A000D5A
:1006B0000A0020617420543D005B4D464D5D20666C
:1006C0006F756E6420736563746F7220002E2E2E1A
:1006D0000D0A005B4D464D5D207363616E20666FB1
:1006E0007220736563746F7220005B4D464D5D2010
:1006F0007772697465204F4B0D0A000D0A00205275
:100700003D0020533D005B4D464D5D20777269747E
:100710006520543D00206E6F7420666F756E640D09
:100720000A005B4D464D5D206465636F646520463D
:1007300041494C3A20736563746F7220005B4D46EB
:100740004D5D206465636F6465204F4B2C2035310F
:10075000322062797465730D0A005B4D464D5D2051
:10076000534543544F52204D41544348210D0A00F4
:100770000D0A0020523D0020533D005B4D464D5D6B
:10078000204944414D3A20543D000D0A00206F6637
:10079000663D0020696E74657276616C732C20640E
:1007A000656C61793D002C20005B4D464D5D2064F9
:1007B00065636F646520736563746F7220000D0A52
:1007C000002073636F72653D00206F66663D005BBD
:1007D0004D464D5D2063616C3A2064656C61793DE6
:1007E000000D0A000D0A00293A0D0A00206F666606
:1007F0003D005B4D464D5D206465636F646564201C
:1008000028666972737420323034382062797465D6
:1008100073207E3320736563746F72732C2064655C
:100820006C61793D000D0A000D0A00207469636B4C
:1008300073293A0D0A005B4D464D5D2072617720A9
:1008400028000D0A000D0A5B4D464D5D2068697356
:10085000743A00206D61783D005B4D464D5D20721D
:10086000616E67653A206D696E3D005B4D464D5D7A
:1008700020636170747572652054494D454F55541D
:10088000210D0A006D730D0A0020696E7465727681
:10089000616C732C20005B4D464D5D20636170746C
:1008A0007572653A20005B4D464D5D206361707442
:1008B0007572652073746172740D0A000D0A002050
:1008C0006D6F643D002077726974653D005B464141
:1008D000545D20636C6F73653A20706F733D000D3B
:1008E0000A002073697A653D005B4641545D206FC4
:1008F00070656E65643A20636C75737465723D0053
:100900005B4641545D2066696C65206E6F7420669D
:100910006F756E640D0A00270D0A005B4641545D39
:10092000206F70656E5F726561642027005B4641D1
:10093000545D206D6F756E74204F4B0D0A000D0ACB
:10094000005B4641545D204641543120726561642C
:10095000204641494C20617420736563746F722096
:100960000020736563746F7273292E2E2E0D0A009A
:100970005B4641545D2072656164696E6720464143
:1009800054312028005B4641545D206E6F20626F19
:100990006F74207369672C2064656661756C7420C0
:1009A0006C6162656C0D0A000D0A00272073657288
:1009B00069616C3D3078005B4641545D206C61623A
:1009C000656C3D27005B4641545D204552523A20FC
:1009D0007370633D3D300D0A005B4641545D204518
:1009E00052523A206E666174213D320D0A005B4618
:1009F00041545D204552523A20627073213D353199
:100A0000320D0A000D0A00207369673D307800201E
:100A1000726F6F743D002068656164733D002073E0
:100A200070743D005B4641545D204250423A207351
:100A300070663D000D0A00206D656469613D307887
:100A40000020746F743D00206E6661743D00207359
:100A500070633D005B4641545D204250423A206243
:100A600070733D005B4641545D206D6F756E743A46
:100A700020626F6F7420736563746F72207265619A
:100A800064204641494C0D0A005B4641545D206D8F
:100A90006F756E743A2072656164696E6720626F6B
:100AA0006F7420736563746F722E2E2E0D0A005BB7
:100AB0004641545D20616C7265616479206D6F758B
:100AC0006E7465640D0A005B4945435D206C697373
:100AD00074656E20454F490D0A00270D0A005B49D9
:100AE00045435D2066696C656E616D653D27005B01
:100AF0004945435D206C697374656E207265637649
:100B0000206661696C0D0A005B4945435D204154D4
:100B10004E20647572696E67206C697374656E0D22
:100B20000A000D0A005B4945435D206C69737465DA
:100B30006E696E6720666F72206461746120534134
:100B40003D005B4945435D20666173746C6F616471
:100B5000206163746976650D0A005B4945435D2039
:100B600041544E2072656C65617365642C20646528
:100B70007465637420666173746C6F61640D0A0040
:100B8000203F3F0D0A000D0A0020434C4F534520E3
:100B900053413D000D0A00204F50454E2053413D2A
:100BA000005B4945435D202D3E2054414C4B45524E
:100BB0000D0A000D0A002054414C4B2023005B49D4
:100BC00045435D202D3E204C495354454E45520D22
:100BD0000A000D0A00204C495354454E20230020A2
:100BE000554E54414C4B0D0A0020554E4C49535420
:100BF000454E0D0A005B4945435D20636D643D3001
:100C000078005B4945435D2041544E20627974650C
:100C10002072656376206661696C0D0A005B494548
:100C2000435D2041544E0D0A005B4945435D2074ED
:100C3000616C6B3A206E6F20646174612C20726568
:100C40006C656173650D0A005B4945435D20746105
:100C50006C6B3A20454F492C20646F6E650D0A007D
:100C60005B4945435D2074616C6B3A2073656E642B
:100C7000206661696C65640D0A005B4945435D202F
:100C80007265696E697420646F6E652C207265618F
:100C900064790D0A005B4945435D206D6F756E7484
:100CA000206661696C65640D0A005B4945435D20FF
:100CB0004641543132204F4B0D0A005B4945435D9C
:100CC000206D6F756E742046415431322E2E2E0DDC
:100CD0000A005B4945435D206E6F206469736B2099
:100CE000696E2064726976650D0A005B4945435D53
:100CF000206472697665204F4B0D0A005B494543BD
:100D00005D206E6F206472697665210D0A005B4973
:100D100045435D2072657365742072656C6561730F
:100D200065642C207265696E697420666C6F7070E2
:100D3000790D0A005B4945435D202A2A2A20425545
:100D400053205245534554202A2A2A0D0A005B4954
:100D500045435D20706F6C6C3A2041544E206475A1
:100D600072696E6720776169740D0A000D0A0020B0
:100D70005253543D0020444154413D0020434C4BCC
:100D80003D005B4945435D206275733A2041544EF6
:100D90003D000D0A005B4945435D20696E69742082
:100DA000646576202300270D0A005B444F535D20C5
:100DB000636D643A2027000D0A005B444F535D20A9
:100DC000636C6F73652053413D005B444F535D205E
:100DD0006F70656E204F4B0D0A000D0A005B444F8B
:100DE000535D2053415645206372656174652066EA
:100DF00061696C65642072633D005B444F535D2004
:100E0000534156450D0A000D0A005B444F535D20C7
:100E10004C4F4144206661696C65642072633D00FB
:100E20005B444F535D204C4F41440D0A00270D0A8F
:100E300000272E27005B444F535D2070617273655D
:100E4000643A2027000D0A005B444F535D2064691B
:100E500072206C656E3D005B444F535D2064697287
:100E6000206C697374696E670D0A005B444F535DB3
:100E7000204452495645204E4F5420524541445932
:100E80000D0A00270D0A002066696C653D27005B8E
:100E9000444F535D206F70656E2053413D00112417
:100EA0001FBECFEFD8E0DEBFCDBF12E0A0E0B1E0C3
:100EB000EAEAF5E602C005900D92A033B107D9F732
:100EC00025E0A0E3B2E001C01D92AE39B207E1F720
:100ED0000E94DC080C94CC320C9400001092C500E7
:100EE0008FEC8093C400E0ECF0E08081826080832E
:100EF00088E08093C10086E08093C20008959091BD
:100F0000C00095FFFCCF8093C6000895CF93DF9378
:100F1000EC018991811103C0DF91CF9108950E9466
:100F20007F07F7CFCF93DF93EC01FE0184912196E9
:100F3000811103C0DF91CF9108950E947F07F5CF03
:100F4000CF93C82FE82FE295EF70F0E0EE54FE4FFC
:100F500084910E947F07CF70EC2FF0E0EE54FE4F9B
:100F60008491CF910C947F07CF93C82F892F0E9433
:100F7000A0078C2FCF910C94A007CF92DF92EF9215
:100F8000FF920F931F93CF93DF9300D000D000D038
:100F9000CDB7DEB79C01892B89F480E326960FB686
:100FA000F894DEBF0FBECDBFDF91CF911F910F919F
:100FB000FF90EF90DF90CF900C947F07CE010196C9
:100FC0007C01FC0110E000E08AE0C82ED12C0F5F0C
:100FD0001F4FC901B6010E94712F805D8193C90125
:100FE0009B010A97A0F70E0D1F1DF80182918F013A
:100FF0000E947F070E151F05C1F726960FB6F894BD
:10100000DEBF0FBECDBFDF91CF911F910F91FF903B
:10101000EF90DF90CF900895BF92CF92DF92EF9242
:10102000FF920F931F93CF93DF93182FD92FF62E94
:10103000072F64E270E00E94712F6B0162E170E0A3
:101040000E94712FE62EB72EC1E0C80F81EA91E011
:101050000E949207812F9D2F0E94BD078DE991E08C
:101060000E949207C60199270E94BD0789E991E075
:101070000E9492078E2D9B2D0E94BD0785E991E06D
:101080000E9492078C2F90E00E94BD0782E991E0B8
:101090000E9492072F2D302F4C2F6E2D8C2D0E94E9
:1010A000A30CEC0182E891E00E949207CE01D7FFE9
:1010B00004C0882799278C1B9D0B0E94BD07D7FF72
:1010C00004C08DE791E00E9492078AE791E00E94B8
:1010D0009207CE01DF91CF911F910F91FF90EF907A
:1010E000DF90CF90BF900895BF92CF92DF92EF92A2
:1010F000FF920F931F93CF93DF93182FD92FF62EC4
:10110000072F64E270E00E94712F6B0162E170E0D2
:101110000E94712FE62EB72EC1E0C80F88E691E03D
:101120000E949207812F9D2F0E94BD0784E691E0C7
:101130000E949207C60199270E94BD0780E691E0B0
:101140000E9492078E2D9B2D0E94BD078CE591E099
:101150000E9492078C2F90E00E94BD0789E591E0E4
:101160000E9492072F2D302F4C2F6E2D8C2D0E9418
:10117000620DEC0188E491E00E949207CE01D7FF56
:1011800004C0882799278C1B9D0B0E94BD07D7FFA1
:1011900004C083E491E00E94920780E491E00E9401
:1011A0009207CE01DF91CF911F910F91FF90EF90A9
:1011B000DF90CF90BF900895F894569A5E980E9461
:1011C0006E078AE191E00E9492070E94202F0E9400
:1011D000FA0980E191E00E9492070E946E0A83E082
:1011E00091E00E9492070E94920E83EF90E00E948D
:1011F000920788E00E9460200E9471230E941E2AAC
:101200000E94492B0E94B02B0E94232C85EE90E077
:101210000E9492070E94662E87ED90E00E9492073E
:1012200078940E94BF0A86EC90E00E9492070E9488
:10123000090B0E94B00B892B81F08AEB90E00E9491
:10124000920720E040E061E071E08AE40E943920EA
:1012500085E090E00E94262F22C08FEA90E00E9455
:1012600092070E94EA0B81110EC08CE990E00E9467
:10127000920720E040E061E071E08AE40E943920BA
:1012800086E090E0E7CF8BE890E00E9492070E9412
:10129000AC16892B89F480E890E00E9492070E94A6
:1012A000A20B88E690E00E94920790E080E00E9406
:1012B000262F0E94E120FDCF81E790E0D8CF8EBDA0
:1012C0000DB407FEFDCF8EB50895CF93C62F872F9F
:1012D0000E945F098C2FCF910C945F09CF92DF920F
:1012E000EF92FF920F931F93CF93DF936B01D82F51
:1012F000C92F7A0189012A9883E00E945F09B6010B
:101300008D2F9C2F0E946509E7010E0D1F1DC01730
:10131000D10751F42A9ADF91CF911F910F91FF903D
:10132000EF90DF90CF90089580E00E945F0989934D
:10133000EECFCF92DF92EF92FF920F931F93CF9356
:10134000DF936B01D82FC92F7A0189012A9882E097
:101350000E945F09B6018D2F9C2F0E946509E7014D
:101360000E0D1F1DC017D10751F42A9ADF91CF919E
:101370001F910F91FF90EF90DF90CF90089589918A
:101380000E945F09EFCF0F931F93CF93DF938B01E1
:10139000D82FC92F2A9883E00E945F09B8018D2FAA
:1013A0009C2F0E94650980E00E945F092A9ADF91C4
:1013B000CF911F910F910895FF920F931F93CF9399
:1013C000DF93F62E072F182FD92FC42F2A9882E0EB
:1013D0000E945F096F2D702F812F9D2F0E9465093C
:1013E0008C2F0E945F092A9ADF91CF911F910F9154
:1013F000FF900895CF9381EF91E00E94920784B10E
:101400008C6284B924982A9A80E58CBD8DB5816060
:101410008DBD2A9881E00E945F0980E40E945F09E7
:101420002A9A45EA60E070E0CB010E94DC0960E0A6
:1014300070E0CB010E94C309C82F8BED91E00E94A0
:10144000920785EA0E94A00782ED91E00E94920730
:101450008C2F0E94A0078CEC91E0C53A11F083EC30
:1014600091E0CF910C9492070F931F93CF93DF934A
:101470008B01D82FC92F2A9882E00E945F09B801FA
:101480008D2F9C2FDF91CF911F910F910C946509A7
:101490002A9A08950F931F93CF93DF938B01D82F30
:1014A000C92F2A9883E00E945F09B8018D2F9C2FD5
:1014B000DF91CF911F910F910C9465091EBC0DB463
:1014C00007FEFDCF8EB508952A9A809300018EBD48
:1014D0000DB407FEFDCF5E9A5E98089580E292E01B
:1014E0000E949207569A5E988FEF809300010E94A7
:1014F000640A3B9A439880E192E00E9492078091AF
:1015000000010E94A00786E092E00C94920721E07F
:1015100030E001C0220F8A95EAF720958091000102
:101520008223809300010C94640A21E030E001C022
:10153000220F8A95EAF780910001822B80930001A7
:101540000C94640A8823B9F085E00E94870A85E339
:101550008A95F1F7000086E00E94870A90E19A954B
:10156000F1F786E00E94950A8FED9EE20197F1F770
:1015700000C00000089585E00E94950AE8CFCF934F
:101580008EE796E00E94920787B1887F87B988B17D
:10159000876088B92098579A5F9A219A85EF0E94B0
:1015A000640AC6B189E696E00E9492078CE4C0FD09
:1015B00088E40E947F0783E696E00E9492078CE40D
:1015C000C1FD88E40E947F078AE596E00E949207A9
:1015D0008CE4C2FD88E40E947F0787E596E00E94C4
:1015E0009207109230021092310210923202109241
:1015F0003302109234021092350280E496E00E9489
:10160000920785EF0E94A0078DE396E0CF910C949E
:101610009207CF92DF92EF92FF920F931F93CF9397
:10162000DF9380913202811169C086E196E00E94C9
:10163000920782E00E94870A84E00E94870A299A22
:101640002091860030918700D0E0C0E090E0C12C6E
:10165000D12C760160E2EFE9FFE03197F1F700C0AD
:101660000000B59B54C04091860050918700FA015C
:10167000E21BF30B9F0166BBB897EE30F14008F018
:1016800048C0C20ED31EE11CF11C9F5F81E0903167
:1016900008F480E09A012196C83EE3E0DE0709F4F1
:1016A0003FC08823C1F284E0F694E794D794C794AE
:1016B0008A95D1F786018DEF95E00E949207CE01C1
:1016C0000E94BD078BEE95E00E949207C6010E9422
:1016D000BD0782EE95E00E9492070B3A110528F1B2
:1016E0008EEB95E00E949207C6010E94BD0788E933
:1016F00095E00E94920781E080933202DF91CF91C2
:101700001F910F91FF90EF90DF90CF90089580E0B0
:10171000C2CF80E09A01C12CD12C760190E0BBCFE2
:101720008111C1CF8FE395E0E4CF0233110518F7A3
:101730008CE695E00E949207C6010E94BD0789E6EB
:1017400095E0D7CF8DE295E00E94920782E00E945B
:10175000950A84E00E94950A109232022998089511
:101760001F93CF93DF9385E095E00E949207D0E02E
:10177000C0E0309921C01092300281E080933502A0
:101780001FE08FE99FE00197F1F700C000000E9481
:1017900026231150B1F78CEE94E00E949207CE01FF
:1017A0000E94BD0783EE94E00E94920790E080E0E3
:1017B000DF91CF911F91089580E00E94A20A2196A7
:1017C000C535D105B1F686EB94E00E9492078FEF04
:1017D0009FEFEECFCF93DF9386B1D82FD47082FBEB
:1017E000CC27C0F9C093330286B18695817091E011
:1017F0008927809334028CE994E00E9492078CE45C
:10180000D11188E40E947F0786E994E00E94920744
:101810008091340281110FC08EE40E947F0783E81B
:1018200094E0D11102C08CE694E00E9492078C2FC4
:10183000DF91CF91089589E5F0CFCF93C82F803500
:10184000C0F085E594E00E9492078C2F90E00E9402
:10185000BD0780E594E00E94920780E590E00E9439
:10186000BD078DE494E00E9492078EEF9FEFCF9129
:10187000089580913502882359F1809130028C17A8
:10188000A9F083E194E00E9492078091300290E0F9
:101890000E94BD078FE094E00E9492078C2F90E099
:1018A0000E94BD078CE094E00E9492078091300274
:1018B000C81317C0CFE08FE99FE00197F1F700C090
:1018C00000000E942623C150B1F790E080E0CFCF06
:1018D00080E294E00E9492070E94B00B009769F2A8
:1018E000C6CF8C1748F481E00E94A20A8091300292
:1018F0008F5F80933002DACF80E00E94A20A80914D
:1019000030028150F6CFCF93C82F80E094E00E9440
:1019100092078C2F90E00E94BD078DEF93E00E940C
:10192000920780E0CC2361F00E94870AC0933102C5
:101930008FE891E00197F1F700C00000CF91089582
:101940000E94950AF3CFAF92BF92CF92DF92FF929F
:101950000F931F93CF93DF93C82FB62EF42E8901D8
:101960008FEE93E00E9492078C2F90E00E94BD07BB
:101970008BEE93E00E9492078B2D90E00E94BD07B2
:1019800087EE93E00E949207CF2CD12CC6010E94D3
:10199000BD0784EE93E00E9492078FEF8F0D823196
:1019A00088F087EC93E00E949207C8EFDFEFCE014A
:1019B000DF91CF911F910F91FF90DF90CF90BF905B
:1019C000AF9008950E94090B96B19695917081E0B1
:1019D0009827909334028DEB93E00E9492078091B8
:1019E0003402811136C08EE40E947F078AEB93E0B7
:1019F0000E9492078C2F0E941D0CEC0180EA93E05C
:101A0000209709F059C08B2D0E94830CB12CA12C7A
:101A100081E993E00E949207C5010E94BD0783E817
:101A200093E00E9492070E94080F892BA1F08EE696
:101A300093E00E949207FFEFAF1ABF0A80E1A81659
:101A4000B10431F780EE92E00E949207CDEFDFEF14
:101A5000AECF89E5C9CF8EE593E00E949207C6011B
:101A60000E94BD0788E593E00E949207B8018F2D80
:101A70000E941C12EC01892B11F58BE393E00E946C
:101A80009207F80180810E94A00780E20E947F07F0
:101A9000F80181810E94A00780E20E947F07F8017F
:101AA00082810E94A00780E20E947F07F801838163
:101AB0000E94A00788E393E00E94920778CF8FEFFF
:101AC00092E0B7CFBF92CF92DF92EF92FF920F9347
:101AD0001F93CF93DF9300D000D000D0CDB7DEB7F7
:101AE000D82EE62EF42EB22EC32E81ED92E00E9467
:101AF00092078D2D90E00E94BD078DEC92E00E9430
:101B000092078E2D90E00E94BD0789EC92E00E9422
:101B100092078F2D90E00E94BD0786EC92E00E9414
:101B200092078FEF8F0D8231B8F088EA92E00E9421
:101B3000920708EF1FEFC80126960FB6F894DEBF94
:101B40000FBECDBFDF91CF911F910F91FF90EF900E
:101B5000DF90CF90BF9008950E94090B319907C084
:101B600084E892E00E9492070BEF1FEFE4CF8D2DE7
:101B70000E941D0C8C0189E692E00115110509F502
:101B80008E2D0E94830C1E821D82D982EA82FB82E6
:101B900082E08C8384E592E00E9492076B2D7C2D7D
:101BA000CE0101960E94BA138C018CE292E00115DD
:101BB000110539F08DE392E00E9492070CEF1FEFC0
:101BC000BACF0E949207B7CFB19BFECF82E086BB0F
:101BD00080918800909189008096909389008093ED
:101BE0008800089580E286BB81E593ECB59B29C00F
:101BF00080918600909187002091440230914502A7
:101C0000821B930B20918600309187003093450210
:101C10002093440220913A0230913B0282179307AD
:101C2000A0F020913802309139028217930778F0A2
:101C300020913602309137028217930720F482E018
:101C40000895019799F683E0089580E0089581E072
:101C500008955F9800C000C000005F9A08950F9338
:101C60001F93CF93DF93CFE0D0E001E010E00E941C
:101C7000E40DC8010C2E02C0880F991F0A94E2F7E8
:101C800089789474892B11F00E94290E219778F796
:101C900081E080933C02DF91CF911F910F910895D5
:101CA000EF92FF920F931F93CF93DF9307E010E023
:101CB000E82EF12CE701002E02C0D595C7950A94B5
:101CC000E2F7C1700E94E40D80913C028C2B11F46C
:101CD0000E94290E0E94E40DC1110E94290EC0939A
:101CE0003C020150110930F7DF91CF911F910F9104
:101CF000FF90EF900895FC01680F791FCA01E61765
:101D0000F70709F408952191922728E0AC01880F84
:101D1000991F57FF04C031E2832730E193272150F8
:101D2000A9F7EDCF10928000E1E8F0E091E0908318
:101D300080818F7B8083EFE6F0E080818F7D8083E0
:101D400024E630E030933B0220933A0224E830E06E
:101D5000309339022093380224EB30E0309337027D
:101D60002093360284E180933E0290933D020895D1
:101D70000F920FB60F921F9211242F933F938F93C0
:101D80009F93AF93BF93809186009091870020919D
:101D90004402309145029093450280934402821B95
:101DA000930B8EBD0DB407FEFDCF80914002909144
:101DB0004102A0914202B09143020196A11DB11DC2
:101DC0008093400290934102A0934202B093430259
:101DD0008091400290914102A0914202B091430251
:101DE0008035934CA105B10540F080916F008F7D47
:101DF00080936F0081E080933F02BF91AF919F91EC
:101E00008F913F912F911F900F900FBE0F901895BB
:101E10002F923F924F925F926F927F928F929F92FA
:101E2000AF92BF92CF92DF92EF92FF920F931F93E8
:101E3000CF93DF93CDB7DEB7A1970FB6F894DEBF8F
:101E40000FBECDBF86EA98E00E9492071092400232
:101E500010924102109242021092430210923F02ED
:101E600060E070E0CB010E94340AB59A8091860050
:101E700090918700909345028093440280916F0077
:101E8000806280936F00789410E000E080913F02C0
:101E9000811105C0043F91E0190709F042C080910B
:101EA0006F008F7D80936F000E94480A86E998E05A
:101EB0000E9492078091400290914102A0914202BB
:101EC000B09143020E94BD0789E898E00E94920702
:101ED000C8010E94BD0784E898E00E949207043F71
:101EE000114041F58BE698E00E94920787EF9FEF43
:101EF000A1960FB6F894DEBF0FBECDBFDF91CF9194
:101F00001F910F91FF90EF90DF90CF90BF90AF9017
:101F10009F908F907F906F905F904F903F902F9009
:101F200008958FE99FE00197F1F700C000000F5F6F
:101F30001F4FACCF8E010F5F1F4F84E1F80111924C
:101F40008A95E9F78091400290914102A091420266
:101F5000B0914302853F9140A105B10508F092C0C0
:101F60008091400290914102A0914202B0914302BF
:101F70007C0160E070E0CB010E944A0AD12CC12CA8
:101F8000B12CAA24AA94CE14DF0409F080C00E94C8
:101F9000480A89E598E00E9492078A2D90E00E9405
:101FA000BD0783E598E00E9492078B2D90E00E9488
:101FB000BD0785E498E00E949207E0E3EE2EF12C45
:101FC000F801C190D1908F01C114D10499F080E241
:101FD0000E947F07C7010E94BD078DE20E947F0714
:101FE000C7010F960E94BD078DE30E947F07C601BF
:101FF0000E94BD07F0E1EF0EF11C20EDE216F104A6
:10200000F9F682E498E00E94920760E070E0CB016C
:102010000E944A0A8091400290914102A09142029E
:10202000B091430200E018E081309840A105B1056D
:1020300040F40091400210914102209142023091FF
:10204000430286E398E00E949207C8010E94BD0700
:102050008BE298E00E949207F12CE12CE016F10649
:10206000B9F50E94480A85E298E00E949207D12CB7
:10207000C12C51E05F8B1E8A912C812CCC8EB12C0F
:10208000A12C3EC084EFE82EFF24F39472CF0E946F
:102090005E0AE82F8A1508F4A82EBE1608F4BE2E94
:1020A00080ED8E0F803A80F4E053FF0BA4E0F595AD
:1020B000E795AA95E1F7EE0FFF1FE00FF11F808172
:1020C00091810196918380832FEFC21AD20A5BCF50
:1020D0000E945E0A0E94A00780E20E947F074FEFE5
:1020E000E41AF40AC7018F719927892B09F0B6CF3A
:1020F00088E298E00E949207B1CFAA24A394B12C61
:10210000AD8E60E070E0CB010E944A0A68EEE62ED8
:1021100063E0F62E612C1B8E712C10E000E0198E0E
:10212000188E1D8A1A8E212C312C21010E945E0AE4
:1021300090E08C199D09409697FDBCC055E095959F
:1021400087955A95E1F7823008F4B8C08530E8F4F5
:10215000823009F4B7C0833009F0B7C061E0688FFE
:10216000082E04C0220C331C441C551C0A94D2F7C0
:10217000689420F82A8D820F8F3108F08EE1282F85
:10218000223008F0A6C081708A8F81E0E81AF10839
:1021900069F60E94480A888D998D890FED898E0F06
:1021A000823040F08016910628F4FD8DFF8B2C8D37
:1021B0002E8B4801AA94AB2809F09FCF4FEFC41A89
:1021C000D40A57E9C516D10409F058CF6E89609337
:1021D0003E027F8970933D028FEC97E00E94920748
:1021E000EE898E2F90E00E94BD0789EC97E00E9457
:1021F0009207FF898F2F90E00E94BD0781EC97E046
:102200000E949207C4010E94BD078EEB97E00E94D6
:1022100092078091400290914102A0914202B091B8
:10222000430240E1C42E47E2D42E81319742A105FA
:10223000B10548F48091400290914102A091420280
:10224000B09143026C0160E070E0CB010E944A0A49
:1022500082EF97E00E94920780913E0290E00E94F8
:10226000BD078CEE97E00E94920780913D0290E0BE
:102270000E94BD0787EE97E00E949207B12CA12C27
:10228000312C00E010E0412C512C320138E1832E3A
:10229000912CAC14BD0429F0E11498E0F90608F47F
:1022A00073C00E94480A81EE97E00E94920790E076
:1022B00080E01ECE82E071E07D8B52CF82E091E023
:1022C0009D8B4ECFE1E0ED8B4BCF84E0F1E0F98FB9
:1022D00047CF2250F501E20FF11DB201A10104C068
:1022E0007695679557954795EA95D2F74E8F5F8F0C
:1022F00068A379A34E8D41709B8D990F942B392F34
:10230000639457E05615E8F5913A81F158F4992312
:1023100011F19E34B1F09E34B1F09E3F49F0992303
:10232000E1F016C09B3F91F09E3FA9F7015F1F4F60
:1023300071EA771202C0025E1F4F612C712C9EEF72
:1023400012C0065F1F4FEEE47E1202C0015F1F4FF6
:10235000612C712C08C00D5F1F4F7110F9CF0B5FFE
:102360001F4F612C90E07B8E792E0ACFA8014C5E26
:102370005F4F61EA761203C0A801435D5F4F8A0197
:10238000E7CF972D732EEFCF0E945E0A90913E0209
:10239000891B990B409680329105FCF025E09595BC
:1023A00087952A95E1F78530A0F4082E04C0440CE7
:1023B000551C661C771C0A94D2F7689440F8180FD5
:1023C0001F3108F01EE1123020F0E11478E0F7062A
:1023D00030F08FEFA81AB80A5CCF82E0E6CF125037
:1023E000000F80913D02810F9927991FB301A2012F
:1023F00004C076956795579547958A95D2F7CA0197
:102400008170082B339457E05315E8F6802F0E9413
:10241000A00780E20E947F076FEFE61AF60AC70165
:10242000B4010E94712F892B21F484EE97E00E9461
:102430009207312C00E0C7CF2F923F924F925F92CC
:102440006F927F928F929F92AF92BF92CF92DF92C4
:10245000EF92FF920F931F93CF93DF93CDB7DEB729
:102460002F970FB6F894DEBF0FBECDBF8D876D835B
:102470007E8389EA97E00E9492073D85232F30E012
:102480003A872987C9010E94BD0786EA97E00E9422
:1024900092078091400290914102A0914202B09136
:1024A00043020E94BD0783E997E00E949207809152
:1024B0003E0290E00E94BD078DE897E00E949207DF
:1024C00080913D0290E00E94BD078AE897E00E945B
:1024D000920740913D024C8750913E025F8360E03D
:1024E00070E0CB010E944A0A412C512C3201312C60
:1024F000212CC12C10E0D12CF12CE12C1B8600E00A
:10250000812C912C54017F81672F70E078876F8335
:102510009C85892F90E09F878E87809140029091C3
:102520004102A0914202B0914302481659066A0640
:102530007B0688F00E94480A82E297E00E94920798
:1025400089859A850E94BD0785E197E00E949207E0
:1025500088EF9FEF85C00E945E0A90E02F8138854A
:10256000821B930B409697FD14C025E095958795A7
:102570002A95E1F7823068F0853060F0E114F104CB
:1025800019F010E0F12CE12C00E0812C912C540189
:10259000E3C082E0082E04C0880C991CAA1CBB1C56
:1025A0000A94D2F7689480F8080F802F0F3108F052
:1025B0000EE1E114F10409F0D7C0823108F4CCC077
:1025C00087E090E020E0382F330F4C85340FB501C1
:1025D000A40104C076956795579547953A95D2F72B
:1025E0004170552766277727082E04C0440F551FD2
:1025F000661F771F0A94D2F7242B019720F76B856B
:1026000061110AC02E3F09F0A7C0C12C10E0D12CE7
:10261000EE24E394F12C0AC02B3F09F09DC0312C2D
:10262000212C10E0D12C92E0E92EF12C00E094C096
:1026300032E0E316F10471F5C1010196ED81FE81EE
:10264000E20DF31DD082811542E0940708F48AC0A0
:102650008DE397E00E9492070E94480A90E080E094
:102660002F960FB6F894DEBF0FBECDBFDF91CF918E
:102670001F910F91FF90EF90DF90CF90BF90AF90A0
:102680009F908F907F906F905F904F903F902F9092
:1026900008952C2D10E0D12C023008F45DC00250BA
:1026A0008E859F85800F911DB501A40104C076958C
:1026B0006795579547958A95D2F7CA018170DD0CC9
:1026C000D82A1F5F183040F351E0E516F10409F0F5
:1026D000AFCFC394E1E0F0E0EC0FFD1FE20FF11D7E
:1026E000D08263E06C15A8F6E9807FE47E15F0F1F6
:1026F000FA8081E08F15D0F11B818FEF810F82313D
:10270000A8F58C81823091F58BE797E00E949207C3
:102710008E2D90E00E94BD0787E797E00E94920708
:102720008F2D90E00E94BD0783E797E00E949207FB
:10273000812F90E00E94BD0780E797E00E949207FA
:102740009D85911313C08AE597E00E94920710E0DF
:10275000F12CE12C21E02B875FEF451A550A650A21
:10276000750ADBCE1C0196CF2C2D96CF10E0F12CF4
:10277000E12CF2CF2F923F924F925F926F927F9215
:102780008F929F92AF92BF92CF92DF92EF92FF9281
:102790000F931F93CF93DF93CDB7DEB728970FB674
:1027A000F894DEBF0FBECDBF8C016F83788786E0C3
:1027B00097E00E949207F801808190E00E94BD0797
:1027C00082E097E00E949207F801818190E00E94E8
:1027D000BD078EEF96E00E949207F801828190E09B
:1027E0000E94BD078BEF96E00E949207F8012280BD
:1027F00083ED96E00E949207822C912CC4010E94E6
:10280000BD078DEC96E00E94920780918600909122
:1028100087009093450280934402F0E84F2EF8E33E
:102820005F2E66246394712C10E0C12CD12C7601AC
:10283000FC2FFB5FFE830E94F20D8130E1F18230BC
:1028400009F441C081114EC1E2E0CC0CDD1CEE1C4C
:10285000FF1CEA95D1F76894C0F8D701C601AA27F2
:10286000BB2789389444A105B10509F03FC11F5F1A
:10287000133008F43BC100E0B12C10E00E94F20DCF
:10288000813049F1823091F1811113C052E0CC0CBA
:10289000DD1CEE1CFF1C5A95D1F76894C0F81E5F32
:1028A0008FE08B1570F5FE0131965F010E3F09F444
:1028B00087C010E01BC173E0CC0CDD1CEE1CFF1CBC
:1028C0007A95D1F7C8CF64E0CC0CDD1CEE1CFF1C60
:1028D0006A95D1F7C0CF43E0CC0CDD1CEE1CFF1C89
:1028E0004A95D1F76894C0F81D5FDACF34E0CC0C7C
:1028F000DD1CEE1CFF1C3A95D1F76894C0F81C5FF4
:10290000CFCF1250000FD701C601012E04C0B695DB
:10291000A795979587950A94D2F78170082BB39461
:10292000B394123008F0BCCF9FE09B1508F0A6CFFF
:10293000BACF93E0CC0CDD1CEE1CFF1C9A95D1F7AE
:102940006894C0F81D5F31C084E0CC0CDD1CEE1C27
:10295000FF1C8A95D1F76894C0F81C5F26C01250FE
:10296000000FD701C601012E04C0B695A795979513
:1029700087950A94D2F78170082B3394339415C04D
:102980002FE02315B8F00E94F20D813091F28230D1
:10299000D9F281118ECF22E0CC0CDD1CEE1CFF1C85
:1029A0002A95D1F76894C0F81E5F123048F3FFE013
:1029B000F315A8F6F50101935F01FE81FA1519F0F0
:1029C00000E0312CE0CF8B81281273CF89EB96E0A9
:1029D0000E949207C4010E94BD0782EB96E00E940C
:1029E0009207898190E00E94BD078FEA96E00E94DD
:1029F00092078FEF9BE00197F1F700C0000087E09E
:102A00000E94870AF89410923C0280918400909171
:102A100085008096909389008093880082E086BB31
:102A20001CE080E00E94500E1150D9F70E942F0E3A
:102A30000E942F0E0E942F0E8BEF0E94500E81EAF3
:102A40008D834FEF5FEF61E070E0CE0105960E944D
:102A50007B0EAC0161E070E0CE0105960E947B0E1A
:102A6000AC0161E070E0CE0105960E947B0EAC01E6
:102A70008BEF898361E070E0CE0101960E947B0EAE
:102A8000182F092FEF80F8846701EEEFDE1A570147
:102A9000FFEFEF1AFF0AF50180810E94500E412FCF
:102AA000502F61E070E0C5010E947B0E182F092FA6
:102AB000EC14FD0461F7892F0E94500E812F0E94B3
:102AC000500E16E38EE40E94500E1150D9F7789400
:102AD00087E00E94950A8AEE96E00E94920790E0B5
:102AE00080E011C010E0C12CD12C760191E0491A90
:102AF00051086108710809F09ECE83E996E00E94B2
:102B0000920787EF9FEF28960FB6F894DEBF0FBEAF
:102B1000CDBFDF91CF911F910F91FF90EF90DF908C
:102B2000CF90BF90AF909F908F907F906F905F906D
:102B30004F903F902F9008950F931F93CF93DF9363
:102B400000D000D000D0CDB7DEB78C018091460414
:102B5000882391F1C80196958795800F911FB0E069
:102B6000A0E09C01AD0120533F4C4F4F5F4F2B83A2
:102B70003C834D835E8322E030E0AE014F5F5F4FC8
:102B80006B817C818D819E810E946E0989819A81F1
:102B900000FF10C024E0969587952A95E1F72696C8
:102BA0000FB6F894DEBF0FBECDBFDF91CF911F915E
:102BB0000F9108959F70F3CF90E080E0F0CFCF9316
:102BC000DF93C2E0D0E0CE010E949C15892B21F456
:102BD000CE01DF91CF9108952196C1328BE0D807C5
:102BE00091F78FEF9FEFF5CFEF92FF920F931F9327
:102BF000CF93DF9300D000D000D0CDB7DEB77C01FB
:102C00008B01809146048823C9F1C7019695879569
:102C10008E0D9F1DB0E0A0E09C01AD0120533F4C04
:102C20004F4F5F4F2B833C834D835E8322E030E028
:102C3000AE014F5F5F4F6B817C818D819E810E94D1
:102C40006E0989819A81E0FE26C08F70992724E061
:102C5000000F111F2A95E1F7082B192B1A830983FE
:102C600022E030E0AE014F5F5F4F6B817C818D8150
:102C70009E810E94990981E08093470426960FB6B1
:102C8000F894DEBF0FBECDBFDF91CF911F910F91A2
:102C9000FF90EF9008958827907F1F70DDCFCF932E
:102CA000DF9300D000D000D0CDB7DEB780914604CE
:102CB000882309F44EC080914704882309F449C051
:102CC00021E030E03E832D8380ED90E3A0E0B0E092
:102CD00089839A83AB83BC8320E032E046E452E0F0
:102CE00069817A818B819C810E946E0966E472E021
:102CF0008D819E810E947408892B59F08FEF9FEF80
:102D000026960FB6F894DEBF0FBECDBFDF91CF91F0
:102D1000089566E472E08D819E8109960E94740890
:102D2000009761F729813A814B815C813E5F4F4F6B
:102D30005F4F29833A834B835C834D815E814F5F74
:102D40005F4F5E834D834A30510531F61092470440
:102D5000D7CF90E080E0D4CFFF920F931F93CF9313
:102D6000DF9300D000D000D0CDB7DEB7809146040D
:102D70008823A1F08FEA9AE00E9492071E821D82AA
:102D80008D819E8126960FB6F894DEBF0FBECDBF13
:102D9000DF91CF911F910F91FF90089589E89AE0FC
:102DA0000E94920766E472E090E080E00E940C08C6
:102DB000892B39F084E69AE00E9492078FEF9FEF0B
:102DC00073C084E59AE00E9492078091510290912D
:102DD00052020E94BD078EE49AE00E949207809101
:102DE000530290E00E94BD0787E49AE00E94920798
:102DF0008091560290E00E94BD0781E49AE00E9413
:102E000092078091590290915A020E94BD0787E370
:102E10009AE00E94920780915B020E94A00784E3DF
:102E20009AE00E94920784E29AE00E9492078091C1
:102E30005C0290915D020E94BD078EE19AE00E94C3
:102E4000920780915E0290915F020E94BD0786E129
:102E50009AE00E94920780916002909161020E9424
:102E6000BD078FE09AE00E949207809157029091EF
:102E700058020E94BD0787E09AE00E949207809165
:102E80006C020E94A00784E09AE00E949207809161
:102E90005102909152028115924049F08EEE99E0D4
:102EA0000E94920788EF9FEF9E838D8369CF809168
:102EB0005602823049F089ED99E00E949207A8EF0E
:102EC000BFEFBE83AD835CCF80915302811103C0FD
:102ED00085EC99E0E5CF80916C02893209F066C0FB
:102EE00080916D0290916E02A0916F02B09170027C
:102EF0008093480490934904A0934A04B0934B04F0
:102F00008BE0E1E7F2E0ACE4B4E001900D928A9549
:102F1000E1F71092570487EB99E00E9492078CE446
:102F200094E00E9486078BEA99E00E9492078091C4
:102F30004A0490914B040E94B407809148049091F8
:102F400049040E94B40788EA99E00E94920780E74A
:102F500099E00E94920789E090E00E94BD0781E617
:102F600099E00E94920780ED90E3A0E0B0E08983B1
:102F70009A83AB83BC8301E010E0FF24FA94F00E47
:102F800066E472E0C8010E940C088D839E83AD81C7
:102F9000BE81AB2B09F181E499E00E9492078F2D4D
:102FA00090E00E94BD078EE399E006CF109248049E
:102FB0001092490410924A0410924B048BE0E1E114
:102FC000F1E0ACE4B4E001900D928A95E1F7109243
:102FD000570485E899E0B9CF20E032E046E452E0BA
:102FE00069817A818B819C810E9499090F5F1F4FB3
:102FF00089819A81AB81BC819E5FAF4FBF4F89832E
:103000009A83AB83BC830A30110509F0B6CF81E007
:1030100080934604109247048DE299E00E94920743
:10302000AFCE80914604882321F00E944F16109263
:1030300046040895809146040895AF92BF92CF92BE
:10304000DF92EF92FF920F931F93CF93DF93D82ECF
:10305000C92EB62EA72E7A01809146042EEF3FEF9F
:10306000882391F103E110E066E472E0C8010E9458
:103070000C08892B09F042C0C6E4D2E0888188237D
:10308000D1F1853E69F18B8583FD2AC048E050E08F
:103090006D2D7C2DCE010E94C12F892B09F543E0B7
:1030A00050E06B2D7A2DCE0108960E94C12F9C0115
:1030B000892BB1F4E114F10439F080E2FE01D7016B
:1030C00001900D928A95E1F7C901DF91CF911F918F
:1030D0000F91FF90EF90DF90CF90BF90AF90089549
:1030E000A09684E0C634D80749F60F5F1F4F01321F
:1030F000110509F0B9CF2DEF3FEFE6CF2FEF3FEFEE
:10310000E3CFEF92FF920F931F93CF93DF938C0146
:10311000F62EE72E80914604811116C08EEF9FEFA8
:10312000DF91CF911F910F91FF90EF900895253E71
:1031300059F023852F3041F020E2AF2DBE2D0190B4
:103140000D922A95E1F7ECCFF80180819181803EC4
:10315000910510F5EC01CF70DD2725E0CC0FDD1FC8
:103160002A95E1F734E0969587953A95E1F766E47C
:1031700072E043960E940C08009789F4FE01EA5B16
:10318000FD4FD8012D913C9111972F5F3F4F2D930B
:103190003C9320812111CBCF8DEF9FEFC1CF8FEFDB
:1031A0009FEFBECF8F929F92AF92BF92CF92DF924E
:1031B000EF92FF920F931F93CF93DF93CDB7DEB7BC
:1031C000A0970FB6F894DEBF0FBECDBF7C016B0198
:1031D0008A018BE199E00E9492075701470188E03C
:1031E000880E911CF50181915F01803229F00E94C7
:1031F0007F07A814B904B1F78EE20E947F07560139
:103200004601A3E08A0E911CD5018D915D018032AB
:1032100029F00E947F07A814B904B1F787E199E06B
:103220000E949207AE014F5F5F4FB601C7010E9437
:103230001D187C01892BC1F080E099E00E94920763
:10324000C701A0960FB6F894DEBF0FBECDBFDF91C9
:10325000CF911F910F91FF90EF90DF90CF90BF9093
:10326000AF909F908F900895F8013D9686E0DF0122
:103270001D928A95E9F781E0F80180838B8D9C8D02
:1032800092838183948383838D8D9E8DAF8DB8A12E
:1032900085839683A783B08711861286138614864A
:1032A000118A89EE98E00E9492078B8D9C8D0E9476
:1032B000BD0782EE98E00E9492078D8D9E8D0E9440
:1032C000BD078FED98E0BACF6F927F928F929F9259
:1032D000AF92BF92CF92DF92EF92FF920F931F9324
:1032E000CF93DF93EC013B016A018881882309F4C5
:1032F00088C08989811185C08091460481117BC075
:103300008EEF9FEF69C08D819E8149855A85950119
:103310002E193F09841B950B2817390708F4C9019A
:103320004601801A910A8815990508F44C01B701E5
:103330006A5B7D4FA401C301800F911F0E94CE2FB5
:10334000080D191D89859A85AB85BC85880D991D49
:10335000A11DB11D89879A87AB87BC87AC01BD01D0
:10336000517066277727452B462B472BA1F44D81BB
:103370005E816F81788584179507A607B70758F493
:103380008B819C810E949C159C01283F8FE038070F
:1033900010F53C832B830C151D05E8F489859A856F
:1033A000AB85BC854D815E816F81788584179507DB
:1033B000A607B70780F47C0121E0F2228B819C8173
:1033C00066E472E04F960E940C08892B09F49BCFAB
:1033D00001151105C1F0C801DF91CF911F910F9127
:1033E000FF90EF90DF90CF90BF90AF909F908F9025
:1033F0007F906F90089510E000E0A12C82E0B82E3D
:10340000CACF89EF7ECF8FEF7CCF3F924F925F92F2
:103410006F927F928F929F92AF92BF92CF92DF92E4
:10342000EF92FF920F931F93CF93DF938C012B01A9
:103430007A01FC018081882309F490C08189882366
:1034400009F48CC08091460481117CC08EEF9FEFFF
:1034500067C0F301C50111920197E9F740C0CC0D97
:10346000DD1DF80181859285A385B4858C0D9D1D98
:10347000A11DB11D81879287A387B487328A91707D
:10348000AA27BB27892B8A2B8B2BB1F4CE15DF05FE
:1034900098F40E94DF156C0197FD41C0BC01F80152
:1034A000838194810E94F4156FEF7FE0C6010E9432
:1034B000F415F801D482C382CE15DF0580F5F8013A
:1034C00081849284F1E09F228114910411F2F80129
:1034D0008381948166E472E04F960E940C08C701D4
:1034E0008C1B9D0B6501C818D9088C159D0508F427
:1034F0006C01A601B2016C0F7D1FC4018A5B9D4F58
:103500000E94CE2FF8018381948166E472E04F9689
:103510000E947408892B09F4A2CF209709F1CE01EB
:10352000DF91CF911F910F91FF90EF90DF90CF909F
:10353000BF90AF909F908F907F906F905F904F90D3
:103540003F900895D0E0C0E086E4682E82E0782EB7
:10355000A12C92E0B92E33243394AECF89EF77CFEC
:103560008FEF75CFCF93DF93EC018881882309F427
:103570004EC08DEC98E00E94920789859A850E9442
:10358000BD0785EC98E00E9492078989811124C0CB
:103590008EE40E947F078FEB98E00E9492078A8951
:1035A00081111CC08EE40E947F078CEB98E00E9482
:1035B00092078989882351F18A89882339F166E441
:1035C00072E08D859E850E940C08892B49F08FEF53
:1035D0009FEFDF91CF91089589E5DBCF89E5E3CFB8
:1035E000EF85F889EA5BFD4F89859A85AB85BC85B7
:1035F000848F958FA68FB78F66E472E08D859E8548
:103600000E947408892B19F70E944F16188290E0C7
:1036100080E0DFCFCF92DF92EF92FF920F931F9364
:10362000CF93DF93182F092FD62EC72E80914604F3
:10363000CEEFDFEF882361F083E1E82EF12C66E422
:1036400072E0C7010E940C08892B61F0CFEFDFEF19
:10365000CE01DF91CF911F910F91FF90EF90DF90FE
:10366000CF900895C6E4D2E08881882309F441C050
:10367000853E91F148E050E0612F702FCE010E940D
:10368000C12F892B49F543E050E06D2D7C2DCE01F3
:1036900008960E94C12F892BF9F40A8D1B8DC80151
:1036A0000297863F9F4068F085EE888366E472E06B
:1036B000C7010E947408EC01892B41F60E944F1645
:1036C000C7CFC8010E949C156C0170E060E0C80182
:1036D0000E94F4158601E3CFA09684E0C634D80793
:1036E00019F62FEFE21AF20A81E2E816F10409F066
:1036F000A6CFCDEFDFEFACCF5F926F927F928F922C
:103700009F92AF92BF92CF92DF92EF92FF920F9370
:103710001F93CF93DF93CDB7DEB7A0970FB6F89482
:10372000DEBF0FBECDBF882E792E662E572E8A01A2
:1037300080914604882309F49BC0AE014F5F5F4F20
:10374000882D0E941D18892B31F4662D752D882D2A
:10375000972D0E940A1B93E1A92EB12C66E472E01A
:10376000C5010E940C08892BC1F08FEF9FEFA09636
:103770000FB6F894DEBF0FBECDBFDF91CF911F9182
:103780000F91FF90EF90DF90CF90BF90AF909F9000
:103790008F907F906F905F90089586E4E82E82E08E
:1037A000F82E912CF7018081811108C00E94DF154D
:1037B0006C0197FF17C08AEF9FEFD9CF853EB1F319
:1037C0009394F0E2EF0EF11C40E19412EBCF8FEFF7
:1037D000A81AB80A91E2A916B10409F0BFCF8BEF7D
:1037E0009FEFC5CF6FEF7FE00E94F41580E2F701F5
:1037F000482F11924A95E9F798E0E82DF72DD70167
:1038000001900D929A95E1F7D701189693E0E62D75
:10381000F52D01900D929A95E1F7F7018387D38EEC
:10382000C28E148E158E168E178E66E472E0C50158
:103830000E947408009709F098CF21E0F8012083D6
:10384000D282C182D482C3821582168217821086E8
:103850001186128613861486218B128AB686A58657
:10386000F0E29F9E90011124F801308B27877FCFD3
:103870008EEF9FEF7CCF4F925F926F927F928F92ED
:103880009F92AF92BF92CF92DF92EF92FF920F93EF
:103890001F93CF93DF93CDB7DEB7A0970FB6F89401
:1038A000DEBF0FBECDBF782E692E562E472ED42EEA
:1038B000C52EB22EA32E80914604882309F480C021
:1038C000AE014F5F5F4F622F732F8D2D9C2D0E9495
:1038D0001D18892B09F477C083E1E82EF12C66E4EA
:1038E00072E0C7010E940C08892B09F06FC006E442
:1038F00012E0F8018081882309F45FC0853E09F455
:103900004DC048E050E0672D762DC8010E94C12FC0
:10391000892B09F043C04801F8E08F0E911C43E069
:1039200050E0652D742DC4010E94C12F892BB1F583
:1039300088E0ED2DFC2DD80101900D928A95E1F7DC
:1039400083E0EB2DFA2DD40101900D928A95E1F7D9
:1039500066E472E0C7010E94740821E030E0892B20
:1039600011F430E020E088279927821B930BA09662
:103970000FB6F894DEBF0FBECDBFDF91CF911F9180
:103980000F91FF90EF90DF90CF90BF90AF909F90FE
:103990008F907F906F905F904F900895005E1F4FC3
:1039A00084E00634180709F0A4CFEFEFEE1AFE0A00
:1039B000F1E2EF16F10409F092CF8DEF9FEFD7CF30
:1039C0008EEF9FEFD4CF8CEF9FEFD1CF8FEF9FEF94
:1039D000CECF0F931F93CF93DF9300D000D0CDB7FE
:1039E000DEB780914604882399F102E010E01A8244
:1039F0001982C8010E949C15892B31F429813A81D2
:103A00002F5F3F4F3A8329830F5F1F4F01323BE007
:103A1000130779F749815A81B0E0A0E09A01AD011E
:103A200089E0220F331F441F551F8A95D1F7298340
:103A30003A834B835C8369817A818B819C810F906F
:103A40000F900F900F90DF91CF911F910F910895DC
:103A500019821A821B821C82EECFAF92BF92CF9244
:103A6000DF92EF92FF920F931F93CF93DF9300D0DB
:103A700000D000D0CDB7DEB78D839E8380E092E08A
:103A8000E6E4F2E0DF019C011D9221503040E1F7B5
:103A90002BEE209346022CE32093470220E920934B
:103AA000480228E0EDE1F1E0A9E4B2E001900D92D6
:103AB0002A95E1F7909352028093510281E080931E
:103AC000530281E090E0909355028093540282E08B
:103AD0008093560280EE90E09093580280935702B4
:103AE00080E49BE090935A028093590280EF809388
:103AF0005B0289E090E090935D0280935C0282E13A
:103B000090E090935F0280935E0282E090E0909359
:103B100061028093600289E280936C028EEE9FEFD7
:103B2000A0ECB4E680936D0290936E02A0936F02B6
:103B3000B09370028D819E81892B09F4CCC08BE0FB
:103B4000ED81FE81A1E7B2E001900D928A95E1F747
:103B500088E0E2E3F1E0ACE7B2E001900D928A95F3
:103B6000E1F785E5809344048AEA8093450466E49E
:103B700072E090E080E00E947408892B09F0AFC0E9
:103B800001E010E080ED90E3A0E0B0E089839A834B
:103B9000AB83BC8386E4C82E82E0D82EA12C92E0B1
:103BA000B92E20EFE22EFF24FA94D601F5011D92E2
:103BB0003197E9F7013031F4E0924602F092470282
:103BC000F092480266E472E0C8010E947408892BF2
:103BD00009F085C066E472E0C80109960E94740885
:103BE000892B09F07CC020E032E046E452E0698194
:103BF0007A818B819C810E94990989819A81AB810C
:103C0000BC819E5FAF4FBF4F89839A83AB83BC83D8
:103C10000F5F1F4F0A30110541F6E6E4F2E080E045
:103C200092E0DF019C011D9221503040E1F78D812F
:103C30009E81892BB9F088E0ED81FE81A6E4B2E097
:103C400001900D928A95E1F7ED81FE818085918545
:103C5000A28580934E0290934F02A093500288E079
:103C60008093510266E472E083E190E00E94740860
:103C7000892BA9F5E6E4F2E080E092E0DF019C0107
:103C80001D9221503040E1F784E190E09A838983CE
:103C900066E472E089819A810E947408892BF9F4A4
:103CA000A981BA811196BA83A983919789F7109255
:103CB000460426960FB6F894DEBF0FBECDBFDF9147
:103CC000CF911F910F91FF90EF90DF90CF90BF9019
:103CD000AF900C94AC168BE0E6E2F1E033CF8FEFBF
:103CE0009FEF26960FB6F894DEBF0FBECDBFDF91D3
:103CF000CF911F910F91FF90EF90DF90CF90BF90E9
:103D0000AF9008958F929F92AF92BF92CF92DF9221
:103D1000EF92FF920F931F93CF93DF936C014B01B0
:103D20007A0148E050E060E270E0C4010E94D72FC1
:103D300043E050E060E270E0C7010E94D72F5601D7
:103D40009601E90188812F5F3F4F81110BC0F60179
:103D500001900020E9F731978F010C191D09D0E07F
:103D6000C0E007C08E3269F78E010C191D0920973B
:103D700071F30930110514F008E010E06401912C92
:103D8000812C8016910614F12097A9F12196DE016D
:103D90000D900020E9F711978701AC1BBD0BA430F3
:103DA000B10514F0A3E0B0E0EA0EFB1E0E151F05EE
:103DB000D1F4DF91CF911F910F91FF90EF90DF90A1
:103DC000CF90BF90AF909F908F900895F501819113
:103DD0005F0190E00E94B92FF60181936F01FFEF20
:103DE0008F1A9F0ACECF899190E00E94B92FF801D7
:103DF00081938F01DBCF83E0EBE3F1E0D70101900A
:103E00000D928A95E1F7D5CF8F93549A5C9881E013
:103E1000809359048F91189553985B9A54985C9AA3
:103E20000895FC011082549A5C988FE391E0019709
:103E3000F1F700C0000081E197E24B9B18C0549855
:103E40005C9A90E080E061E070E021E137E24B991C
:103E500018C04C9B09C02081AB01082E01C0440F43
:103E60000A94EAF7242B208321E137E21BC025E0E6
:103E70002A95F1F70000019701F754985C9A80E0C9
:103E8000089545E04A95F1F7000021503109F9F60F
:103E90000E940C1FF4CF45E04A95F1F70000215035
:103EA0003109B1F34B9BF7CF01968830910569F644
:103EB000549A5C988FE891E00197F1F700C00000F8
:103EC00081E00895FC01DB0110821C9254985C9AF9
:103ED00089EC90E04B9B16C025E02A95F1F7000095
:103EE000019709F581E08C93549A5C988FEE90E0ED
:103EF0000197F1F700C0000054985C9A81E197E2C5
:103F00004B9907C090E080E061E070E021E137E28A
:103F100014C025E02A95F1F70000019789F70E9467
:103F20000C1F80E008954A99D5CFF9CF45E04A9516
:103F3000F1F700002150310991F34B99F7CF4C9BD9
:103F400009C02081AB01082E01C0440F0A94EAF792
:103F5000242B208321E137E207C045E04A95F1F7A1
:103F6000000021503109D9F24B9BF7CF01968830E0
:103F7000910561F6549A5C9881E00895539A5B9894
:103F800054985C9AEFE3F1E03197F1F700C000003C
:103F900021E137E24C9B45C0662391F053985B9A30
:103FA00021E137E24C9949C021E137E24C9B4EC0F8
:103FB000539A5B98EFE3F1E03197F1F700C000000E
:103FC00030E020E090E0AC01022E02C0559547950C
:103FD0000A94E2F740FF43C054985C9AEFEEF0E099
:103FE0003197F1F700C0000053985B9AEFEEF0E0D4
:103FF0003197F1F700C00000539A5B982F5F3F4F55
:104000002830310501F754985C9A81E197E24C9988
:1040100029C08FE891E00197F1F700C0000081E02E
:104020000895F5E0FA95F1F700002150310911F4F7
:1040300080E008954A99AECFFBCF95E09A95F1F7CD
:1040400000002150310909F0ADCFF2CFE5E0EA954B
:10405000F1F700002150310909F0A8CFE9CF549AB7
:104060005C98BCCFF5E0FA95F1F70000019779F67E
:10407000DFCFEF920F931F93CF93DF9380933D0594
:1040800090E3E92E0EE315E00E948123EC018034D9
:10409000910514F0C0E4D0E0AE0155276EE375E061
:1040A0008AEF94E00E94CE2FC0933A0510923B0510
:1040B00010923C05DF91CF911F910F91EF900895E1
:1040C000CF93C82F85E99DE00E9492078C2F90E046
:1040D0000E94BD0782E99DE00E949207C0935A04A6
:1040E00010925C0410925B04109259048AB1837C94
:1040F0008AB98BB18C638BB9809169008C7F8260A7
:104100008093690081E08CBBE89AC9B182E89DE0A8
:104110000E9492078CE4C2FD88E40E947F078CE72E
:104120009DE00E9492078CE4C3FD88E40E947F0713
:1041300085E79DE00E9492078CE4C4FD88E40E941C
:104140007F078FE69DE00E9492078CE4C5FD88E41E
:104150000E947F078CE69DE00E949207EFE5F4E065
:104160008EEDDF011D928A95E9F720E040E06FE3D4
:1041700071E089E4CF910C943920CF93DF93EC0167
:10418000DB01E0913B0580913A05E81730F081E0D2
:104190008C9380E0DF91CF91089581E08E0F809322
:1041A0003B05F0E0E253FB4F84A5888381E020913A
:1041B0003B0590913A05291708F480E08C9381E043
:1041C000E9CFCF92DF92EF92FF920F931F93CF939D
:1041D000DF9300D00F92CDB7DEB7809158044D9990
:1041E00023C0811115C081E08093580484E39DE0D1
:1041F0000E94920710925C0410925B040E940C1FB4
:104200000E94A20B0E9411180E9471230E946A2A28
:104210000F900F900F90DF91CF911F910F91FF9012
:10422000EF90DF90CF900895882309F45BC010923F
:1042300058048EE09DE00E9492070E94090B0E94A4
:10424000B00B892B91F08CEF9CE00E94920720E04C
:1042500040E061E071E08AE40E94392085E090E06E
:104260000E94262F0E94A20BD3CF8BEE9CE00E94CF
:1042700092070E94EA0B81110EC082ED9CE00E9421
:10428000920720E040E061E071E08AE40E9439207A
:1042900086E090E0E5CF8BEB9CE00E9492070E94C5
:1042A000AC16892B79F48AEA9CE00E9492070E945E
:1042B000A20B8AE79CE00E94920790E080E00E94B7
:1042C000262FA6CF85E99CE00E94920720E040E0DF
:1042D00061E071E08AE40E94392086E090E00E946B
:1042E000262FE5CF4A9B41C080915B0490915C04EE
:1042F000029709F08DCFAE014F5F5F4FBE016E5F39
:104300007F4F80915D040E94EF26882359F10E941F
:10431000652AFC0169818A81309709F10680F7815D
:10432000E02D3097E1F0099581110AC080E69CE00C
:104330000E94920710925C0410925B040E940C1F72
:104340008981882309F464CF88E49CE00E94920765
:1043500010925C0410925B040E940C1F59CF0E94C3
:10436000BE1FE2CF89E29CE0F1CF0E94D82E8DE102
:104370009CE00E949207549A5C9882E0E82EF12C0F
:10438000CC24C394D12C4A990AC0CE0103960E9432
:10439000111F811142C082E09CE00E9492070E949E
:1043A000DA2E80915B0490915C040297D1F48AE547
:1043B0009BE00E9492070E94382A0E94652A8C0185
:1043C000009779F0DC011A968D919C91892B49F028
:1043D00082E49BE00E949207D8011A96ED91FC912D
:1043E000099580915B0490915C04019709F010CFCE
:1043F00085E29BE00E94920780915D0490E00E941C
:10440000BD0782E29BE00E94920711E04A99C6C074
:1044100088E09BE00E949207FBCE85EF9BE00E9424
:1044200092078B810E94A0078B818F3361F589EE03
:104430009BE00E94920780915B0490915C0401973D
:1044400009F0A1CF80915D048F30C1F46091CB045D
:10445000662359F0E62FF0E0E65AFB4F11AA8BE8ED
:1044600094E00E94D6281092CB0410925C04109223
:104470005B040E940C1F0E946A2A85CF8130A9F735
:104480000E94D526F2CF8F3561F48FED9BE00E941C
:10449000920780915B0490915C04029709F073CFBE
:1044A000E4CF182F1F71982F907E9032C9F485EDBC
:1044B0009BE00E949207812F90E00E94BD0782ED51
:1044C0009BE00E94920780915A0481135CCFD092A6
:1044D0005C04C0925B048EEB9BE00E94920753CF7A
:1044E0009034B9F486EB9BE00E949207812F90E014
:1044F0000E94BD0783EB9BE00E94920780915A04C3
:10450000811341CFF0925C04E0925B0481EA9BE06E
:10451000E4CF982F907F903651F5182F1F7087E9C0
:104520009BE00E949207812F90E00E94BD0784E9E2
:104530009BE00E94920710935D0480915B04909130
:104540005C048130910529F41092CB041092CC04C4
:104550001ACF029709F017CF54985C9A8FE391E035
:104560000197F1F700C00000539A5B980CCF903E82
:1045700091F4182F1F7089E89BE00E949207812F09
:1045800090E00E94BD0786E89BE00E949207812F81
:104590000E94D526F8CE80E89BE09FCFBE016F5FDA
:1045A0007F4FCE0102960E94621F811103C08FEEE1
:1045B0009AE030CF80915D0490915F04911136C0F4
:1045C0008F30A1F1E0918A04E93248F48A8191E0C8
:1045D0009E0F90938A04F0E0E65AFB4F8683898110
:1045E000882309F413CFE0918A04F0E0E65AFB4FE8
:1045F00016828EED9AE00E94920780E694E00E9477
:1046000086078AED9AE00E94920740918A0460E64C
:1046100074E080915D040E94A32310935F0489815C
:10462000882309F4F3CE87EC9AE0F4CEE091CB0432
:104630006A81E03440F491E09E0F9093CB04F0E067
:10464000E65AFB4F61AB0E94BD28E9CF8091590427
:10465000882341F0109259048EE49DE00E94920755
:104660000C94E12008950F931F93CF93DF93CDB760
:10467000DEB7CC52D4400FB6F894DEBF0FBECDBF2C
:104680008C019C01AE01435D5D4F60ED78E580E0FB
:1046900090E00E946E092CE232E0AE014F5F5F4F66
:1046A000B801CE01835D9D4F0E94BA2E8C01181671
:1046B000190654F49C01AE014F5F5F4F60ED7AE53F
:1046C00080E090E00E949909C801C45DDB4F0FB6FD
:1046D000F894DEBF0FBECDBFDF91CF911F910F9138
:1046E0000895EBE7F5E083E1DF011D928A95E9F794
:1046F0001092760520E040E06FE371E089E40C94CD
:104700003920EF920F931F931F922F931F924F9375
:104710007F936F931F928F938DE491E09F938F937C
:104720001F92EF921F930F930E94E92F2DB73EB770
:10473000225F3F4F0FB6F8943EBF0FBE2DBF1F91B3
:104740000F91EF9008957F928F929F92AF92BF92B8
:10475000CF92DF92EF92FF920F931F93CF93DF934D
:10476000CDB7DEB7C356D1090FB6F894DEBF0FBE82
:10477000CDBF182F7B01042F8FE89EE00E94920787
:10478000812F90E00E94BD0787E89EE00E9492077B
:1047900067014701800E911C8C149D04E1F583E8AC
:1047A0009EE00E949207FE01EF5AFF4F1192119274
:1047B00087E0DF011D928A95E9F76C961FAE1EAE69
:1047C0006C976E961FAE1EAE6E97123078F40E94F4
:1047D0001A18811126C08BE69EE00E94920720E005
:1047E00040E061E071E08AE40E943920CD59DF4F5A
:1047F0000FB6F894DEBF0FBECDBFDF91CF911F91F2
:104800000F91FF90EF90DF90CF90BF90AF909F906F
:104810008F907F900895D6018D916D010E947F0742
:10482000BBCF11111DC2013009F01AC2F7018081FE
:10483000843209F015C287E59EE00E949207098341
:1048400084E08A8322E030E0AE014F5F5F4F60ED8D
:1048500076E480E090E00E9499091B821C8282E14C
:104860008D8382E28E83E9E6F1E0DE01179689E727
:1048700091E021912D938E179F07D9F782E28F8BBC
:1048800080E2888FEAE7F1E088E1919121E0280F4A
:10489000482F50E09111B5C0E1E0F0E0EC0FFD1FB2
:1048A0004E0F5F1FDA011C9230E07901B2E0EB0E8F
:1048B000F11C8C5F8983C9018D5F9B4F9A83AF0187
:1048C00062ED76E480E090E00E949909A0961FAE28
:1048D0001EAEA09730E2C32E42E2B42E0FE010E0ED
:1048E000BE016F5C7F4FCE01825A9F4F0E9481189C
:1048F000AC01892B31F468EFE6166FE0F60608F498
:104900008BC00E94E91CA4966CAF7DAF8EAF9FAFA9
:10491000A497BB27A92F982F872F19821A828B83E0
:104920009C83A1E8B1E084E09D9161E0680F282FAD
:1049300030E091118BC188248394912C8C0E9D1EA4
:10494000280D391DD9011C92F401E60FF11D1082CA
:10495000E2E0E80F88248394912C8C0E9D1E8E0E2D
:10496000911CF40110828D5F082F10E0B0E0A0E0F0
:104970009701AD012053394B4F4F5F4FA4962CAF99
:104980003DAF4EAF5FAFA4979801AE014F5F5F4F51
:10499000A4966CAD7DAD8EAD9FADA4970E94990994
:1049A0000E0D1F1D10937A0500937905109278055E
:1049B0001092770511E01093760588E49EE00E943E
:1049C00092078091790590917A050E94BD0785E450
:1049D0009EE00E9492071092750510927405109245
:1049E0007305109272051092710510927005109364
:1049F0006F0510926E0520E040E06EE871E080E007
:104A0000F3CE88248394912C8C0E9D1E480D591D45
:104A1000DA019C93822F39CF6CAD63FD61CF619633
:104A20008CAD9DADAEADBFAD619781509F4FAF4F87
:104A3000BF4F892F9A2FAB2FBB279C0119821A8257
:104A4000009711F481E090E09C838B832A3031053C
:104A500008F03EC0CD82A5E0E1E0EA0F882483940F
:104A6000912C8C0E9D1E8A0E911CD401CC9291E04B
:104A70009E0FA1E0B0E0AC0FBD1FAE0FB11DFD0158
:104A8000C08281E0890FE1E0F0E0EC0FFD1FE90F4B
:104A9000F11DB08228E030E0722F732E21503109D1
:104AA000E1E3F0E0EC0FFD1FE20FF31FE081E032E5
:104AB000D1F0FE01F1969E5F970F282FAA24A394B0
:104AC000A20E30E09A11A5C0870F272F372D0EC0F8
:104AD0002436310510F4A4E0BFCF94E0283E3340E3
:104AE00080F6E4E0C4CF21153105B1F699AD7BAD78
:104AF000703209F09AC07AAD703209F099C09032E4
:104B000021F141E050E091E0980F7EE2E1E0F0E039
:104B1000EC0FFD1FE80FF11D7083DE01D996792F90
:104B2000740FDD90E92F9F5F88248394912C8C0E65
:104B30009D1E8E0E911CF401D0829713F2CF840F2C
:104B40008F5FFA0131962E0F3F1F91E0980FE1E041
:104B5000F0E0EC0FFD1FE80FF11DB08271E1780F5E
:104B6000721BE92F9F5FA1E0B0E0AC0FBD1FAE0F3D
:104B7000B11DFD01C0829713F4CF8E5FF801E21BD7
:104B8000F30BD82EDE0EE1E6F1E064FD11C04330F8
:104B9000510561F443E050E065E671E0CE01C9964D
:104BA0000E94C12FE5E6F1E0892B11F0EBE3F1E083
:104BB000319121E02D0D8D2D90E031113CC0E1E0CF
:104BC000F0E0EC0FFD1F8E0F9F1FDC011C9230E008
:104BD00049018E0C9F1CC4018F5F9B4F9A83898370
:104BE000B0E0A0E0A701BD014053594B6F4F7F4F8C
:104BF000A4964CAF5DAF6EAF7FAFA497AF01A49604
:104C00006CAD7DAD8EAD9FADA4970E9499097401E6
:104C100067CED19088248394912C8C0E9D1E280DF4
:104C2000391DD901DC922A2D49CF43E050E06BCFEA
:104C300042E050E068CF88248394912C8C0E9D1E16
:104C4000880D991DDC013C93D22EB2CFE1E0F0E05B
:104C5000EC0FFD1F2E0F3F1FF9019083862F64CEAE
:104C6000AE01465A5F4FBE016F5A7F4FC7010E9487
:104C7000821E85E39EE00E949207AE014F5A5F4F6D
:104C80007A016A0158E0C50ED11CD7018D917D01D2
:104C90000E947F07CE14DF04C1F781E39EE00E94EB
:104CA00092076B968FAD6B970E947F076C968FADC6
:104CB0006C970E947F076D968FAD6D970E947F075E
:104CC0008DE29EE00E949207111126C080E29EE0D4
:104CD0000E9492074BE755E0BE01665A7F4FCE0116
:104CE0008F5A9F4F0E94D2188C01892B09F440C023
:104CF0008AE09EE00E94920788279927801B910BEB
:104D00000E94BD0787E09EE00E94920720E040E0FD
:104D100061E971E08EE368CD8AEF9DE00E94920721
:104D20004BE755E0BE01665A7F4FCE018F5A9F4F29
:104D30000E947C1B8C01892BD9F08DED9DE00E9497
:104D4000920788279927801B910B0E94BD078AED47
:104D50009DE00E94920720E040E060EA71E088E474
:104D60000A3F1F4F09F440CD6AEA71E089E13CCD6A
:104D700010927505109274051092730510927205C9
:104D8000109271051092700581E080936F0510926A
:104D90006E0520E040E06EE871E080E00E9439207E
:104DA0008AEC9DE00E94920721CDCF93C82F8AEB19
:104DB0009DE00E9492078C2F90E00E94BD0787EB38
:104DC0009DE00E94920780917B05882321F08BE76C
:104DD00095E00E94B21A10927605CF910895BF9285
:104DE000CF92DF92EF92FF920F931F93CF93DF93B7
:104DF00000D000D000D0CDB7DEB7082F6B017A010C
:104E0000FA0110820E94942E182F882309F44CC1B5
:104E10000F3009F44BC1F701108280917005909119
:104E2000710520917205309173058217930740F543
:104E3000B0E0A0E09C01AD012053354A4F4F5F4FD9
:104E4000CA01B9010E94C309F601808380917005EF
:104E50009091710501969093710580937005209152
:104E60007205309173058217930708F446C080914C
:104E70006E05882309F441C081E0F70180833DC0BD
:104E8000B0906E05BB2029F081E0F701808310E02F
:104E900034C000916F05011181C01A82198222E08D
:104EA00030E0AE014F5F5F4F60ED7AE580E090E06B
:104EB0000E94990982E090E09093730580937205B7
:104EC000109271051092700501E000936E0560ED7F
:104ED0007AE580E090E00E94C309F601808381E0DA
:104EE00090E0909371058093700580917205909188
:104EF0007305029710F4F7010083812F26960FB6F1
:104F0000F894DEBF0FBECDBFDF91CF911F910F91FF
:104F1000FF90EF90DF90CF90BF900895B0E0A0E0B9
:104F20009C01AD012053394B4F4F5F4F2B833C8386
:104F30004D835E8321E030E0AE014F5F5F4F6B81B8
:104F40007C818D819E810E946E0980917705909170
:104F50007805019690937805809377058091740584
:104F600090917505B0E0A0E09C01AD012053374A57
:104F70004F4F5F4F2B833C834D835E8349816B8111
:104F80007C818D819E810E94DC09809174059091C5
:104F9000750501969093750580937405809174054D
:104FA000909175058115924088F48091760588234B
:104FB000C1F1809177059091780520917905309124
:104FC0007A058217930708F4A9CFB02E8091740553
:104FD000909175050097B1F10E94332318161906B8
:104FE0000CF052CF90937305809372051092710567
:104FF000109270051092750510927405B110109200
:105000006F0560ED7AE580E090E00E94C309F6014B
:10501000808381E090E09093710580937005102F5C
:105020006CCF80917B05882381F241E050E0BE0186
:105030006F5F7F4F8BE795E00E946419019709F439
:105040008DCFC3CF1A82198222E030E0AE014F5FCC
:105050005F4F60ED7AE580E090E00E94990982E080
:1050600090E09093730580937205109271051092F1
:10507000700510926F0581E080936E0560ED7AE512
:1050800080E090E00E94C309F601808381E090E017
:1050900090937105809370058091720590917305CE
:1050A000029708F02ACFE8CE0F3031F4B701C601DD
:1050B0000E94BD20182F21CF0111E6CE1091760558
:1050C000112381F18091770590917805B0E0A0E0FF
:1050D0009C01AD012053394B4F4F5F4F2B833C83D5
:1050E0004D835E8321E030E0A6016B817C818D8160
:1050F0009E810E946E0980917705909178050196B6
:1051000090937805809377052091790530917A0501
:105110008217930708F4F1CE81E0F70180831092A3
:105120007605EBCE10917B05112309F4ADCE41E05D
:1051300050E0BE016F5F7F4F8BE795E00E946419DE
:10514000019709F0A1CE8981F60180834091840501
:105150005091850560918605709187058091800545
:1051600090918105A0918205B09183054817590758
:105170006A077B0708F4C1CE7FCECF93DF930F92EF
:10518000CDB7DEB76983813069F480917B058823D0
:1051900049F041E050E0BE016F5F7F4F8BE795E043
:1051A0000E94051A0F90DF91CF910895AF92BF92A0
:1051B000CF92DF92EF92FF920F931F93CF93DF93E3
:1051C000CDB7DEB7C754D1090FB6F894DEBF0FBE16
:1051D000CDBF6C01162F662309F49AC08AEA9DE0C0
:1051E0000E94920776015601A10EB11CEA14FB043D
:1051F00009F04AC086EA9DE00E949207012F1A3208
:1052000008F009E2E02EF12CA701B601CE010196CB
:105210000E94CE2F81E090E08C0F9D1FE80EF91EBA
:10522000F70110826C01F60181916F0190E00E94FC
:10523000B92FF60131978083EC14FD04A1F7602F9C
:10524000CE0101960E94B42B811162C0602FCE0165
:1052500001960E94272C81115BC0602FCE01019620
:105260000E946B2E882309F168E070E0CE018B96D6
:105270000E94972E181619066CF420E040E0BE013B
:10528000655D7F4F80E042C0F70181917F010E9400
:105290007F07ACCF0E94942E20E040E066EB71E0E7
:1052A0008111F0CF6EE871E0EDCF8981823509F48C
:1052B00041C064F4893409F4B7C08E3409F47EC067
:1052C00020E040E065ED71E08EE120C08335C1F75C
:1052D0001330B0F38A818A3399F7AE01495C5F4F8E
:1052E000BE01655D7F4FCE0103960E94821EBE0106
:1052F000695C7F4FCE018B960E940A1B20E0892BB0
:1053000009F051C041E065EC71E081E00E94392074
:10531000C95BDF4F0FB6F894DEBF0FBECDBFDF9184
:10532000CF911F910F91FF90EF90DF90CF90BF90A2
:10533000AF900895133060F38A818A3349F76DE3A3
:1053400070E0CE0103960E94DE2F009709F4B8CFDB
:10535000FC0111928F01AE014C5B5F4FBE01695C95
:105360007F4FCE0103960E94821EAE01405C5F4FCC
:10537000BE01655D7F4FC8010E94821E9E012C5BAD
:105380003F4FAE01495C5F4FBE01605C7F4FCE0175
:105390008B960E943B1C009719F420E040E082CFDE
:1053A000039631F420E040E061E971E08EE3AECF96
:1053B00020E040E062EE71E08FE3A8CF133058F1B7
:1053C0008A818A3341F54BE050E060E270E0CE0123
:1053D0008B960E94D72F1EAABE016D5F7F4FFB01E7
:1053E00001900020E9F7AF0141505109461B570BCE
:1053F0004C30510514F04BE050E0CE018B960E94EA
:10540000CE2FCE018B960E942D1D892B39F46EE88C
:1054100071E080E006C090E080E0F5CF6AEA71E0DC
:1054200089E120E040E072CF0E9411180E94AC1682
:10543000892B69F361E071E08AE4F3CF1092900563
:1054400010928F0510928E0508959C01892B79F09A
:10545000E0919005E43058F481E08E0F8093900540
:10546000F0E0EE0FFF1FEF56FA4F318320830895CF
:105470001F93CF93DF9310E080919005181738F0B9
:1054800010928F0510928E0590E080E018C0C12F19
:10549000D0E0CC0FDD1FCF56DA4FE881F9810480D0
:1054A000F581E02D309779F00995882361F0E88146
:1054B000F981F0938F05E0938E0580819181DF91D2
:1054C000CF911F9108951F5FD7CF80918E05909146
:1054D0008F05089510928F0510928E050895CF9331
:1054E000DF93FC01DB0110821C9254985C9A89ECDA
:1054F00090E04B9B17C04C9B15C025E02A95F1F717
:105500000000019709F04AC081E08C93549A5C989E
:1055100085E48A95F1F7000054985C9A81E197E25E
:105520004B9930C090E080E029B139B123FB2227AC
:1055300020F9C22FB0E0DB2FBE01082E01C0660F9C
:105540000A94EAF72081262B34FB442740F950E0E7
:10555000BC016F5F7F4FDA0102C0AA0FBB1F6A95C3
:10556000E2F72A2B2083B5E4BA95F1F70000029602
:1055700088309105C9F6549A5C9820EA2A95F1F78B
:1055800081E009C04C9BCECFA5E0AA95F1F70000C1
:10559000019731F680E0DF91CF9108954A99A9CF24
:1055A000F9CF539A5B988FE391E00197F1F700C030
:1055B000000008954C9B15C080E012C085E08A95DC
:1055C000F1F700002F5F3F4F233781E03807A1F349
:1055D0004C9BF4CF285C310981E02937310560F715
:1055E000089530E020E0F4CF662331F0EFE1F3E0FE
:1055F0003197F1F700C0000021E137E24C9B33C046
:1056000030E020E090E0A9014F5F5F4FBC0102C095
:10561000759567954A95E2F7AB014170BC01022E82
:1056200002C0759567950A94E2F760FF25C053980C
:105630005B9A442321F154985C9A75E47A95F1F7CA
:1056400000002E5F3F4F28303105E9F653985B9AF2
:1056500054985C9A81E197E24C9914C0F0EAFA956B
:10566000F1F781E00895F5E0FA95F1F70000215097
:10567000310921F680E00895539A5B98DACF549A65
:105680005C98DBCFE5E0EA95F1F70000019721F7A0
:10569000F1CF8CE092E00C94252A8091990581113C
:1056A000109299050895089530E020E090E0AC0153
:1056B000022E02C0559547950A94E2F740FF1BC0A1
:1056C00054985C9A45E14A95F1F7000053985B9A2B
:1056D0004AE24A95F1F700C0539A5B982F5F3F4F1B
:1056E0002830310521F754985C9A8AE68A95F1F7BB
:1056F00000C081E00895549A5C98E4CFFC011082C8
:10570000DB011C9290E080E061E070E021E137E293
:1057100007C0B5E0BA95F1F7000021503109F1F06A
:105720004B9BF7CF4C9B09C02081AB01082E01C0D9
:10573000440F0A94EAF7242B208321E137E24B99A6
:1057400006C001968830910509F781E0089545E08B
:105750004A95F1F700002150310989F780E008955A
:1057600088E192E00C94252AFC01623050F080819F
:10577000853539F48181803321F481E08093990566
:10578000089580E0089580919B05811110929B05FA
:10579000089580E00895089521E137E24B993AC0D9
:1057A000549A5C986AE66A95F1F700C030E020E010
:1057B00090E0A9014F5F5F4FBC0102C075956795EE
:1057C0004A95E2F7AB014170BC01022E02C075950B
:1057D00067950A94E2F760FF29C053985B9A4423C7
:1057E00041F154985C9A7AE47A95F1F700C02E5F03
:1057F0003F4F28303105E9F654985C9A53985B9AEC
:1058000081E197E24B9B18C045E84A95F1F700000B
:1058100081E0089545E04A95F1F7000021503109F3
:1058200011F480E008954A99B9CFFBCF539A5B9861
:10583000D6CF549A5C98D7CF25E02A95F1F700008F
:10584000019701F7EECF84E292E00C94252AFC0147
:105850006330A0F080818D3489F481818D3271F4C0
:105860008281873559F480919A058F5F80939A05DC
:10587000833030F081E080939B05089580E00895A7
:1058800081E008952F923F924F925F926F927F92A4
:105890008F929F92AF92BF92CF92DF92EF92FF9240
:1058A0000F931F93CF93DF93CDB7DEB7CC50D24089
:1058B0000FB6F894DEBF0FBECDBF5C018B011A019D
:1058C000C9016115710509F45BC1FE01319620E043
:1058D00032E0DF01A9011D9241505040E1F7D501AE
:1058E000A60FB71FCB5FDD4FB983A883C550D24049
:1058F0001597C55FDD4FB983A883CB50D240CB5FEE
:10590000DD4F28813981C550D24024503109C95F0B
:10591000DD4F39832883C750D240A101480F591F5A
:10592000C75FDD4F59834883C950D2406430710549
:10593000ECF0D5012D913D914D915C9161EB79E7B2
:1059400087E39EE90E94612FCF5FDD4F68837983F3
:105950008A839B83C150D240892F9927AA27BB27CE
:10596000880F991FE80FF91F118210824501BFEFC0
:105970008B1A9B0A8101F5017401C95FDD4F2881F3
:105980003981C750D2402E153F0508F04AC0CB5F81
:10599000DD4FE880F980C550D240EE1AFF0A1E1490
:1059A0001F04E4F570E060E0BFE0EB16F10444F0A2
:1059B000C7010F976FEF70E00E94852F6F5F7F4FD9
:1059C0006F5F7F4F6E0D7F1D600F711FC75FDD4FD3
:1059D00028813981C950D2402617370708F4CEC034
:1059E00068013FEFC31AD30A8E2D40E1E416F1049B
:1059F0000CF08FE08295807FD8018C93C7010F97C0
:105A00004FEFBFE0EB16F1040CF056C1A701BF0148
:105A1000C6010E94CE2F86010E0D1F1D021913090B
:105A2000AFC0D7014D905D906D907C90A301920125
:105A300061EB79E787E39EE90E94612FCF5FDD4F3D
:105A4000688379838A839B83C150D240892F9927A9
:105A5000AA27BB27880F991F21E030E02C0F3D1F9C
:105A6000820F931FDC01CD90DC901197CA0CDB1CD8
:105A700097012A193B092D933C9397012C193D0955
:105A8000CF5FDD4F39832883C150D240EC14FD0431
:105A900081F0C701821B930B8A159B0550F0D6013C
:105AA0004D915D916D917C91441655066606770681
:105AB00021F0BFEFEB1AFB0A60CFC114D10409F447
:105AC00066CFC701049634E0C30ED11C4C01C55FFC
:105AD000DD4F48815981CB50D2408417950740F45F
