:100000000C9419070C94D81D0C9436070C943607E1
:100010000C9436070C9436070C9436070C9436076C
:100020000C9436070C9436070C94830E0C94360708
:100030000C9436070C9436070C9436070C9436074C
:100040000C9436070C9436070C9436070C9436073C
:100050000C9436070C9436070C9436070C9436072C
:100060000C9436070C94360752656164792E0D0A9C
:10007000004D6F756E74206661696C65640D0A00D1
:100080004641543132204F4B0D0A004D6F756E744E
:100090002046415431322E2E2E0D0A004E6F206420
:1000A00069736B20696E2064726976650D0A00447D
:1000B00072697665204F4B0D0A004E6F206472699D
:1000C0007665210D0A00466C6F70707920696E6943
:1000D000742E2E2E0D0A00436F6D7072657373209F
:1000E0004F4B0D0A00466173746C6F6164204F4B77
:1000F0000D0A00494543206465766963652023380D
:100100000D0A0037344843353935204F4B0D0A006E
:100110005352414D204F4B0D0A000D0A3D3D3D20ED
:1001200036346B6F727070752076312E3020284E09
:10013000616E6F2B5352414D29203D3D3D0D0A000C
:100140000D0A0020455252005B4449534B5D207715
:10015000726974652072633D000D0A0020523D00F3
:1001600020533D0020543D005B4449534B5D2077B4
:1001700072697465204C42413D000D0A00204552D1
:1001800052005B4449534B5D207265616420726389
:100190003D000D0A0020523D0020533D0020543DFB
:1001A000005B4449534B5D2072656164204C4241C1
:1001B0003D003031323334353637383941424344EB
:1001C000454600204641494C210D0A00204F4B0D69
:1001D0000A002072656164203078005B5352414D03
:1001E0005D20746573743A2077726F74652030787F
:1001F000005B5352414D5D20696E69742053504934
:100200002E2E2E0D0A00202F4F453D4F4E0D0A0079
:100210005B53525D2064656661756C743D30780097
:100220005B53525D20696E69740D0A005B464C5049
:100230005D207772697465204F4B0D0A005B464C58
:10024000505D204D464D20777269746520464149C6
:100250004C0D0A005B464C505D204D464D20777298
:100260006974652E2E2E0D0A005B464C505D20777A
:10027000726974653A207365656B206661696C65A7
:10028000640D0A005B464C505D20777269746520EE
:100290004552523A2077726974652070726F7465A6
:1002A00063746564210D0A005B464C505D207772D3
:1002B000697465204552523A206261642073656317
:1002C000746F720D0A000D0A0020523D0020533D4C
:1002D000005B464C505D20777269746520543D0088
:1002E0005B464C505D20616C6C203136206174742B
:1002F000656D707473206661696C65640D0A005BDE
:10030000464C505D206465636F6465204641494CEE
:100310002C207265747279696E6720776974682021
:1003200063616C696272617465642074687265737C
:10033000686F6C64730D0A000D0A005B464C505DDB
:100340002072656164204F4B2C20666972737420A3
:1003500062797465733A20002E2E2E0D0A005B46DA
:100360004C505D206465636F646520523D005B46C0
:100370004C505D2063617074757265204641494C34
:100380000D0A0020636170747572652E2E2E0D0AA1
:10039000005B464C505D20617474656D7074200084
:1003A0005B464C505D20726561643A207365656BF5
:1003B000206661696C65640D0A000D0A005B464C9D
:1003C000505D2057503D005B464C505D207265618A
:1003D00064204552523A2062616420736563746FF1
:1003E000720D0A000D0A0020523D0020533D005BB3
:1003F000464C505D207265616420543D000D0A003A
:100400005B464C505D20736964653D000D0A002D0C
:100410003E54005B464C505D207365656B20540074
:100420005B464C505D207365656B3A206E6F74209F
:10043000696E697469616C697A65642C20726563A0
:10044000616C6962726174696E670D0A000D0A0061
:10045000203E3D20005B464C505D207365656B205F
:100460004552523A20747261636B2000202D3E2069
:100470006469736B204E4F542050524553454E547F
:100480000D0A00202D3E206469736B2050524553A5
:10049000454E540D0A00205750543D005B464C50C9
:1004A0005D206469736B20636865636B3A20445315
:1004B0004B4348473D005B464C505D204552523A05
:1004C0002054524B3030206E6F7420666F756E640E
:1004D00020616674657220383520737465707321ED
:1004E0000D0A002073746570730D0A005B464C5052
:1004F0005D2054524B303020666F756E642061660B
:1005000074657220005B464C505D20726563616CBF
:100510006962726174653A207365656B696E672004
:10052000747261636B20302E2E2E0D0A005B464CD8
:10053000505D206D6F746F72204F46460D0A005B50
:10054000464C505D206D6F746F72207370696E2D14
:1005500075702074696D656F757420286E6F202F1B
:100560005244415441290D0A000D0A005B464C508B
:100570005D205741524E494E473A207369676E617C
:100580006C20746F6F20666173742C206E6F6973BA
:10059000653F206176673D0020286578706563744B
:1005A0006564207E313030292E20436865636B20DE
:1005B00031325620737570706C792E0D0A005B46CF
:1005C0004C505D205741524E494E473A206D6F7452
:1005D0006F7220746F6F20736C6F77212061766764
:1005E0003D00207469636B730D0A006D732C2061EC
:1005F000766720696E74657276616C3D005B464C6F
:10060000505D206D6F746F72207265616479206136
:100610006674657220005B464C505D206D6F746F90
:1006200072204F4E2C2077616974696E6720666F67
:10063000722073706565642E2E2E0D0A000D0A005F
:100640005B464C505D20696E697420646F6E652C4A
:100650002053523D3078000D0A002044534B43484C
:10066000473D00205750543D005B464C505D20698B
:100670006E707574733A2054524B30303D005B46B7
:100680004C505D20696E6974204750494F2E2E2EC4
:100690000D0A005B4D464D5D20736563746F7220DB
:1006A0007363616E2074696D656F75740D0A000D5A
:1006B0000A0020617420543D005B4D464D5D20666C
:1006C0006F756E6420736563746F7220002E2E2E1A
:1006D0000D0A005B4D464D5D207363616E20666FB1
:1006E0007220736563746F7220005B4D464D5D2010
:1006F0007772697465204F4B0D0A000D0A00205275
:100700003D0020533D005B4D464D5D20777269747E
:100710006520543D00206E6F7420666F756E640D09
:100720000A005B4D464D5D206465636F646520463D
:1007300041494C3A20736563746F7220005B4D46EB
:100740004D5D206465636F6465204F4B0D0A000D9D
:100750000A0020523D0020533D005B4D464D5D2078
:100760004944414D20543D000D0A00207468723DFB
:10077000005B4D464D5D206465636F646520523DAE
:10078000000D0A00207468723D005B4D464D5D20EF
:1007900063616C3A207065616B7320000D0A003A4A
:1007A000200020203C005B4D464D5D207468722087
:1007B000737765657020286D61782072756E203CB6
:1007C000746872293A0D0A000D0A005B4D464D5DB2
:1007D000207261773A000D0A000D0A5B4D464D5DAF
:1007E00020686973743A00206D61783D005B4D4666
:1007F0004D5D2072616E67653A206D696E3D005BEC
:100800004D464D5D20636170747572652054494D8D
:10081000454F5554210D0A006D730D0A0020696E75
:1008200074657276616C732C20005B4D464D5D20C3
:10083000636170747572653A20005B4D464D5D20B2
:10084000636170747572652073746172740D0A004F
:100850000D0A00206D6F643D002077726974653D5C
:10086000005B4641545D20636C6F73653A20706F86
:10087000733D000D0A002073697A653D005B4641B7
:10088000545D206F70656E65643A20636C75737497
:1008900065723D005B4641545D2066696C65206E63
:1008A0006F7420666F756E640D0A00270D0A005B79
:1008B0004641545D206F70656E5F726561642027EC
:1008C000005B4641545D206D6F756E74204F4B0D7B
:1008D0000A000D0A005B4641545D20464154312018
:1008E00072656164204641494C20617420736563E0
:1008F000746F72200020736563746F7273292E2EDB
:100900002E0D0A005B4641545D2072656164696E7C
:100910006720464154312028005B4641545D206EDB
:100920006F20626F6F74207369672C206465666145
:10093000756C74206C6162656C0D0A000D0A0027ED
:100940002073657269616C3D3078005B4641545D8F
:10095000206C6162656C3D27005B4641545D20451B
:1009600052523A207370633D3D300D0A005B4641A0
:10097000545D204552523A206E666174213D320D1D
:100980000A005B4641545D204552523A2062707322
:10099000213D3531320D0A000D0A00207369673D93
:1009A00030780020726F6F743D0020686561647359
:1009B0003D00207370743D005B4641545D20425001
:1009C000423A207370663D000D0A00206D6564692F
:1009D000613D30780020746F743D00206E66617454
:1009E0003D00207370633D005B4641545D204250E2
:1009F000423A206270733D005B4641545D206D6F4A
:100A0000756E743A20626F6F7420736563746F72D1
:100A10002072656164204641494C0D0A005B4641E5
:100A2000545D206D6F756E743A2072656164696EF5
:100A30006720626F6F7420736563746F722E2E2E41
:100A40000D0A005B4641545D20616C7265616479FA
:100A5000206D6F756E7465640D0A005B4945435DDA
:100A6000206C697374656E20454F490D0A00270D8F
:100A70000A005B4945435D2066696C656E616D6582
:100A80003D27005B4945435D206C697374656E20AA
:100A900072656376206661696C0D0A005B494543A7
:100AA0005D2041544E20647572696E67206C6973D5
:100AB00074656E0D0A000D0A005B4945435D206CAC
:100AC000697374656E696E6720666F722064617405
:100AD000612053413D005B4945435D20666173746D
:100AE0006C6F6164206163746976650D0A005B490F
:100AF00045435D2041544E2072656C6561736564A9
:100B00002C2064657465637420666173746C6F6116
:100B1000640D0A00203F3F0D0A000D0A0020434CDF
:100B20004F53452053413D000D0A00204F50454E84
:100B30002053413D005B4945435D202D3E205441FB
:100B40004C4B45520D0A000D0A002054414C4B20DD
:100B500023005B4945435D202D3E204C49535445BD
:100B60004E45520D0A000D0A00204C495354454E83
:100B700020230020554E54414C4B0D0A0020554E69
:100B80004C495354454E0D0A005B4945435D206373
:100B90006D643D3078005B4945435D2041544E20F3
:100BA000627974652072656376206661696C0D0AEE
:100BB000005B4945435D2041544E0D0A005B4945A9
:100BC000435D2074616C6B3A206E6F2064617461C8
:100BD0002C2072656C656173650D0A005B494543A5
:100BE0005D2074616C6B3A20454F492C20646F6E18
:100BF000650D0A005B4945435D2074616C6B3A20CA
:100C000073656E64206661696C65640D0A005B49FA
:100C100045435D207265696E697420646F6E652C52
:100C20002072656164790D0A005B4945435D206D62
:100C30006F756E74206661696C65640D0A005B49AE
:100C400045435D204641543132204F4B0D0A005B35
:100C50004945435D206D6F756E74204641543132B5
:100C60002E2E2E0D0A005B4945435D206E6F2064D9
:100C700069736B20696E2064726976650D0A005B8A
:100C80004945435D206472697665204F4B0D0A002B
:100C90005B4945435D206E6F206472697665210D66
:100CA0000A005B4945435D20726573657420726577
:100CB0006C65617365642C207265696E6974206669
:100CC0006C6F7070790D0A005B4945435D202A2ADC
:100CD0002A20425553205245534554202A2A2A0D92
:100CE0000A005B4945435D20706F6C6C3A204154AB
:100CF0004E20647572696E6720776169740D0A0011
:100D00000D0A00205253543D0020444154413D00FF
:100D100020434C4B3D005B4945435D206275733A6F
:100D20002041544E3D000D0A005B4945435D20695A
:100D30006E697420646576202300270D0A005B44E9
:100D40004F535D20636D643A2027000D0A005B4419
:100D50004F535D20636C6F73652053413D005B44CE
:100D60004F535D206F70656E204F4B0D0A000D0ACA
:100D7000005B444F535D20534156452063726561CB
:100D80007465206661696C65642072633D005B4434
:100D90004F535D20534156450D0A000D0A005B4438
:100DA0004F535D204C4F4144206661696C6564205F
:100DB00072633D005B444F535D204C4F41440D0A2C
:100DC00000270D0A00272E27005B444F535D20703B
:100DD00061727365643A2027000D0A005B444F532B
:100DE0005D20646972206C656E3D005B444F535D0D
:100DF00020646972206C697374696E670D0A005B08
:100E0000444F535D204452495645204E4F54205282
:100E1000454144590D0A00270D0A002066696C659A
:100E20003D27005B444F535D206F70656E2053413A
:100E30003D0011241FBECFEFD8E0DEBFCDBF12E0D2
:100E4000A0E0B1E0E2E5F3E602C005900D92A03328
:100E5000B107D9F725E0A0E3B2E001C01D92AE3999
:100E6000B207E1F70E94A6080C94A0310C94000090
:100E70001092C5008FEC8093C400E0ECF0E080811C
:100E80008260808388E08093C10086E08093C20006
:100E900008959091C00095FFFCCF8093C6000895FF
:100EA000CF93DF93EC018991811103C0DF91CF9142
:100EB00008950E944907F7CFCF93DF93EC01FE011D
:100EC00084912196811103C0DF91CF9108950E94F2
:100ED0004907F5CFCF93C82FE82FE295EF70F0E0E8
:100EE000EE54FE4F84910E944907CF70EC2FF0E042
:100EF000EE54FE4F8491CF910C944907CF93C82FA5
:100F0000892F0E946A078C2FCF910C946A07CF9289
:100F1000DF92EF92FF920F931F93CF93DF9300D056
:100F200000D000D0CDB7DEB79C01892B89F480E3D7
:100F300026960FB6F894DEBF0FBECDBFDF91CF91DE
:100F40001F910F91FF90EF90DF90CF900C94490785
:100F5000CE0101967C01FC0110E000E08AE0C82E81
:100F6000D12C0F5F1F4FC901B6010E94452E805D35
:100F70008193C9019B010A97A0F70E0D1F1DF8016F
:100F800082918F010E9449070E151F05C1F7269611
:100F90000FB6F894DEBF0FBECDBFDF91CF911F918A
:100FA0000F91FF90EF90DF90CF900895BF92CF9276
:100FB000DF92EF92FF920F931F93CF93DF93182F3F
:100FC000D92FF62E072F64E270E00E94452E6B01A8
:100FD00062E170E00E94452EE62EB72EC1E0C80FF8
:100FE00081EA91E00E945C07812F9D2F0E94870774
:100FF0008DE991E00E945C07C60199270E9487074E
:1010000089E991E00E945C078E2D9B2D0E94870745
:1010100085E991E00E945C078C2F90E00E94870791
:1010200082E991E00E945C072F2D302F4C2F6E2D0E
:101030008C2D0E946D0CEC0182E891E00E945C070F
:10104000CE01D7FF04C0882799278C1B9D0B0E94D7
:101050008707D7FF04C08DE791E00E945C078AE70D
:1010600091E00E945C07CE01DF91CF911F910F911B
:10107000FF90EF90DF90CF90BF900895BF92CF92F6
:10108000DF92EF92FF920F931F93CF93DF93182F6E
:10109000D92FF62E072F64E270E00E94452E6B01D7
:1010A00062E170E00E94452EE62EB72EC1E0C80F27
:1010B00088E691E00E945C07812F9D2F0E948707A0
:1010C00084E691E00E945C07C60199270E94870789
:1010D00080E691E00E945C078E2D9B2D0E94870781
:1010E0008CE591E00E945C078C2F90E00E948707BE
:1010F00089E591E00E945C072F2D302F4C2F6E2D3B
:101100008C2D0E942C0DEC0188E491E00E945C077C
:10111000CE01D7FF04C0882799278C1B9D0B0E9406
:101120008707D7FF04C083E491E00E945C0780E456
:1011300091E00E945C07CE01DF91CF911F910F914A
:10114000FF90EF90DF90CF90BF900895F894569A5B
:101150005E980E9438078AE191E00E945C070E9435
:10116000F42D0E94C40980E191E00E945C070E9476
:10117000380A83E091E00E945C070E945C0E83EFD6
:1011800090E00E945C0788E00E94341F0E94452284
:101190000E94F2280E941D2A0E94842A0E94F72A97
:1011A00085EE90E00E945C070E943A2D87ED90E06A
:1011B0000E945C0778940E94890A86EC90E00E9465
:1011C0005C070E94D30A0E947A0B892B81F08AEB7C
:1011D00090E00E945C0720E040E061E071E08AE47A
:1011E0000E940D1F85E090E00E94FA2D22C08FEA38
:1011F00090E00E945C070E94B40B81110EC08CE944
:1012000090E00E945C0720E040E061E071E08AE449
:101210000E940D1F86E090E0E7CF8BE890E00E94EF
:101220005C070E948015892B89F480E890E00E9479
:101230005C070E946C0B88E690E00E945C0790E0DF
:1012400080E00E94FA2D0E94B51FFDCF81E790E05B
:10125000D8CF8EBD0DB407FEFDCF8EB50895CF93C8
:10126000C62F872F0E9429098C2FCF910C94290912
:10127000CF92DF92EF92FF920F931F93CF93DF9362
:101280006B01D82FC92F7A0189012A9883E00E9427
:101290002909B6018D2F9C2F0E942F09E7010E0D01
:1012A0001F1DC017D10751F42A9ADF91CF911F91CA
:1012B0000F91FF90EF90DF90CF90089580E00E9413
:1012C00029098993EECFCF92DF92EF92FF920F938D
:1012D0001F93CF93DF936B01D82FC92F7A01890118
:1012E0002A9882E00E942909B6018D2F9C2F0E9426
:1012F0002F09E7010E0D1F1DC017D10751F42A9ABF
:10130000DF91CF911F910F91FF90EF90DF90CF90E1
:10131000089589910E942909EFCF0F931F93CF93CE
:10132000DF938B01D82FC92F2A9883E00E942909C7
:10133000B8018D2F9C2F0E942F0980E00E9429095F
:101340002A9ADF91CF911F910F910895FF920F93E9
:101350001F93CF93DF93F62E072F182FD92FC42F6B
:101360002A9882E00E9429096F2D702F812F9D2FCE
:101370000E942F098C2F0E9429092A9ADF91CF9170
:101380001F910F91FF900895CF9381EF91E00E94FC
:101390005C0784B18C6284B924982A9A80E58CBD5C
:1013A0008DB581608DBD2A9881E00E94290980E475
:1013B0000E9429092A9A45EA60E070E0CB010E9468
:1013C000A60960E070E0CB010E948D09C82F8BED6B
:1013D00091E00E945C0785EA0E946A0782ED91E035
:1013E0000E945C078C2F0E946A078CEC91E0C53A42
:1013F00011F083EC91E0CF910C945C070F931F9355
:10140000CF93DF938B01D82FC92F2A9882E00E94B7
:101410002909B8018D2F9C2FDF91CF911F910F913A
:101420000C942F092A9A08950F931F93CF93DF935B
:101430008B01D82FC92F2A9883E00E942909B8016F
:101440008D2F9C2FDF91CF911F910F910C942F091D
:101450001EBC0DB407FEFDCF8EB508952A9A809369
:1014600000018EBD0DB407FEFDCF5E9A5E98089513
:1014700080E292E00E945C07569A5E988FEF80931C
:1014800000010E942E0A3B9A439880E192E00E945C
:101490005C07809100010E946A0786E092E00C944C
:1014A0005C0721E030E001C0220F8A95EAF7209521
:1014B000809100018223809300010C942E0A21E088
:1014C00030E001C0220F8A95EAF780910001822B5B
:1014D000809300010C942E0A8823B9F085E00E94C5
:1014E000510A85E38A95F1F7000086E00E94510ACF
:1014F00090E19A95F1F786E00E945F0A8FED9EE2F7
:101500000197F1F700C00000089585E00E945F0A8E
:10151000E8CFCF938EE796E00E945C0787B1887F83
:1015200087B988B1876088B92098579A5F9A219ABD
:1015300085EF0E942E0AC6B189E696E00E945C07FC
:101540008CE4C0FD88E40E94490783E696E00E948F
:101550005C078CE4C1FD88E40E9449078AE596E0B7
:101560000E945C078CE4C2FD88E40E94490787E57D
:1015700096E00E945C0710923002109231021092A5
:10158000320210923302109234021092350280E43B
:1015900096E00E945C0785EF0E946A078DE396E063
:1015A000CF910C945C07CF92DF92EF92FF920F9352
:1015B0001F93CF93DF9380913202811169C086E13E
:1015C00096E00E945C0782E00E94510A84E00E943B
:1015D000510A299A2091860030918700D0E0C0E01E
:1015E00090E0C12CD12C760160E2EFE9FFE0319769
:1015F000F1F700C00000B59B54C0409186005091A7
:101600008700FA01E21BF30B9F0166BBB897EE302F
:10161000F14008F048C0C20ED31EE11CF11C9F5FD0
:1016200081E0903108F480E09A012196C83EE3E021
:10163000DE0709F43FC08823C1F284E0F694E79402
:10164000D794C7948A95D1F786018DEF95E00E94D3
:101650005C07CE010E9487078BEE95E00E945C0735
:10166000C6010E94870782EE95E00E945C070B3A54
:10167000110528F18EEB95E00E945C07C6010E94DF
:10168000870788E995E00E945C0781E08093320239
:10169000DF91CF911F910F91FF90EF90DF90CF904E
:1016A000089580E0C2CF80E09A01C12CD12C760150
:1016B00090E0BBCF8111C1CF8FE395E0E4CF02333F
:1016C000110518F78CE695E00E945C07C6010E94A0
:1016D000870789E695E0D7CF8DE295E00E945C0709
:1016E00082E00E945F0A84E00E945F0A1092320248
:1016F000299808951F93CF93DF9385E095E00E948A
:101700005C07D0E0C0E0309921C01092300281E047
:10171000809335021FE08FE99FE00197F1F700C049
:1017200000000E94FA211150B1F78CEE94E00E9463
:101730005C07CE010E94870783EE94E00E945C075D
:1017400090E080E0DF91CF911F91089580E00E94AA
:101750006C0A2196C535D105B1F686EB94E00E945E
:101760005C078FEF9FEFEECFCF93DF9386B1D82F3B
:10177000D47082FBCC27C0F9C093330286B1869522
:10178000817091E08927809334028CE994E00E9473
:101790005C078CE4D11188E40E94490786E994E053
:1017A0000E945C078091340281110FC08EE40E9478
:1017B000490783E894E0D11102C08CE694E00E94CE
:1017C0005C078C2FDF91CF91089589E5F0CFCF93FF
:1017D000C82F8035C0F085E594E00E945C078C2F0F
:1017E00090E00E94870780E594E00E945C0780E516
:1017F00090E00E9487078DE494E00E945C078EEFE2
:101800009FEFCF91089580913502882359F18091FF
:1018100030028C17A9F083E194E00E945C0780916C
:10182000300290E00E9487078FE094E00E945C07FE
:101830008C2F90E00E9487078CE094E00E945C0768
:1018400080913002C81317C0CFE08FE99FE0019765
:10185000F1F700C000000E94FA21C150B1F790E0FA
:1018600080E0CFCF80E294E00E945C070E947A0B78
:10187000009769F2C6CF8C1748F481E00E946C0A89
:10188000809130028F5F80933002DACF80E00E9437
:101890006C0A809130028150F6CFCF93C82F80E040
:1018A00094E00E945C078C2F90E00E9487078DEFE8
:1018B00093E00E945C0780E0CC2361F00E94510A13
:1018C000C09331028FE891E00197F1F700C000006A
:1018D000CF9108950E945F0AF3CFAF92BF92CF924B
:1018E000DF92FF920F931F93CF93DF93C82FB62EF3
:1018F000F42E89018FEE93E00E945C078C2F90E01C
:101900000E9487078BEE93E00E945C078B2D90E08E
:101910000E94870787EE93E00E945C07CF2CD12CB2
:10192000C6010E94870784EE93E00E945C078FEF58
:101930008F0D823188F087EC93E00E945C07C8EF3E
:10194000DFEFCE01DF91CF911F910F91FF90DF90DC
:10195000CF90BF90AF9008950E94D30A96B196950C
:10196000917081E09827909334028DEB93E00E9470
:101970005C0780913402811136C08EE40E944907D1
:101980008AEB93E00E945C078C2F0E94E70BEC012E
:1019900080EA93E0209709F059C08B2D0E944D0CEE
:1019A000B12CA12C81E993E00E945C07C5010E9443
:1019B000870783E893E00E945C070E94D30E892B7F
:1019C000A1F08EE693E00E945C07FFEFAF1ABF0A1A
:1019D00080E1A816B10431F780EE92E00E945C0726
:1019E000CDEFDFEFAECF89E5C9CF8EE593E00E9462
:1019F0005C07C6010E94870788E593E00E945C07A8
:101A0000B8018F2D0E940211EC01892B11F58BE397
:101A100093E00E945C07F80180810E946A0780E2DF
:101A20000E944907F80181810E946A0780E20E94B2
:101A30004907F80182810E946A0780E20E944907F3
:101A4000F80183810E946A0788E393E00E945C07A3
:101A500078CF8FEF92E0B7CFBF92CF92DF92EF9225
:101A6000FF920F931F93CF93DF9300D000D000D04D
:101A7000CDB7DEB7D82EE62EF42EB22EC32E81EDD2
:101A800092E00E945C078D2D90E00E9487078DEC0C
:101A900092E00E945C078E2D90E00E94870789ECFF
:101AA00092E00E945C078F2D90E00E94870786ECF1
:101AB00092E00E945C078FEF8F0D8231B8F088EAC8
:101AC00092E00E945C0708EF1FEFC80126960FB650
:101AD000F894DEBF0FBECDBFDF91CF911F910F9164
:101AE000FF90EF90DF90CF90BF9008950E94D30AAF
:101AF000319907C084E892E00E945C070BEF1FEF6A
:101B0000E4CF8D2D0E94E70B8C0189E692E0011550
:101B1000110509F58E2D0E944D0C1E821D82D98261
:101B2000EA82FB8282E08C8384E592E00E945C077B
:101B30006B2D7C2DCE0101960E948E128C018CE2C1
:101B400092E00115110539F08DE392E00E945C07E7
:101B50000CEF1FEFBACF0E945C07B7CFB19BFECF4F
:101B600082E086BB80918800909189008096909356
:101B7000890080938800089580E286BB81E593EC1C
:101B8000B59B29C0809186009091870020914402E6
:101B900030914502821B930B209186003091870083
:101BA000309345022093440220913A0230913B0247
:101BB00082179307A0F020913802309139028217E2
:101BC000930778F0209136023091370282179307FD
:101BD00020F482E00895019799F683E0089580E06B
:101BE000089581E008955F9800C000C000005F9AEA
:101BF00008950F931F93CF93DF93CFE0D0E001E0E0
:101C000010E00E94AE0DC8010C2E02C0880F991F73
:101C10000A94E2F789789474892B11F00E94F30DED
:101C2000219778F781E080933C02DF91CF911F915B
:101C30000F910895EF92FF920F931F93CF93DF932D
:101C400007E010E0E82EF12CE701002E02C0D59548
:101C5000C7950A94E2F7C1700E94AE0D80913C02D4
:101C60008C2B11F40E94F30D0E94AE0DC1110E9445
:101C7000F30DC0933C020150110930F7DF91CF9171
:101C80001F910F91FF90EF900895FC01680F791F4D
:101C9000CA01E617F70709F408952191922728E071
:101CA000AC01880F991F57FF04C031E2832730E150
:101CB00093272150A9F7EDCF10928000E1E8F0E0E2
:101CC00081E0808380818F7B8083EFE6F0E08081FC
:101CD0008F7D80838EE690E090933B0280933A0262
:101CE0008EE890E090933902809338028EEB90E07A
:101CF000909337028093360288E780933E0280E912
:101D000080933D0208950F920FB60F921F921124F7
:101D10002F933F938F939F93AF93BF9380918600B0
:101D200090918700209144023091450290934502A2
:101D300080934402821B930B8EBD0DB407FEFDCF32
:101D40008091400290914102A0914202B0914302E1
:101D50000196A11DB11D8093400290934102A09372
:101D60004202B09343028091400290914102A091BF
:101D70004202B09143028035934CA105B10540F079
:101D800080916F008F7D80936F0081E080933F0290
:101D9000BF91AF919F918F913F912F911F900F9085
:101DA0000FBE0F9018958F929F92AF92BF92CF92D5
:101DB000DF92EF92FF920F931F93CF93DF93CDB7F4
:101DC000DEB7C454D1090FB6F894DEBF0FBECDBF45
:101DD0008AE398E00E945C07109240021092410250
:101DE000109242021092430210923F0260E070E0B3
:101DF000CB010E94FE09B59A8091860090918700E0
:101E0000909345028093440280916F00806280939A
:101E10006F00789410E000E080913F02811104C0CF
:101E2000043F91E01907E9F580916F008F7D809361
:101E30006F000E94120A8AE298E00E945C0780917B
:101E4000400290914102A0914202B09143020E944F
:101E500087078DE198E00E945C07C8010E94870710
:101E600088E198E00E945C07043F114019F58FEF6C
:101E700097E00E945C0787EF9FEFCC5BDF4F0FB6C8
:101E8000F894DEBF0FBECDBFDF91CF911F910F91B0
:101E9000FF90EF90DF90CF90BF90AF909F908F908A
:101EA00008958FE99FE00197F1F700C000000F5FF0
:101EB0001F4FB2CF8E010F5C1F4F84E1F8011192CA
:101EC0008A95E9F78091400290914102A0914202E7
:101ED000B091430274EFE72EFF24F394853F9140C5
:101EE000A105B10548F48091400290914102A09172
:101EF0004202B09143027C0160E070E0CB010E949D
:101F0000140AD12CC12CB12CAA24AA94CE14DF041B
:101F100009F01DC10E94120A8DEE97E00E945C0735
:101F20008A2D90E00E94870787EE97E00E945C0769
:101F30008B2D90E00E94870789ED97E00E945C0757
:101F40006801780100E310E0D701AD90BD907D01FC
:101F5000A114B10499F080E20E944907C8010E94CF
:101F600087078DE20E944907C8010F960E948707E4
:101F70008DE30E944907C5010E948707005F1F4F3C
:101F8000003D110509F786ED97E00E945C0760E0CF
:101F900070E0CB010E94140A8091400290914102AE
:101FA000A0914202B091430210E481349105A10551
:101FB000B10548F48091400290914102A091420203
:101FC000B0914302182F8BEC97E00E945C0700E071
:101FD0000113E2C00E94120A88EC97E00E945C079D
:101FE00090E0E12C70E060E050E040E080E0F6013D
:101FF000219131916F014217530708F4D6C062173F
:10200000730710F4B901982F8F5F8A3081F79E15FE
:1020100018F48E2DE92E982FE29430EFE322F8E3A6
:10202000EF0E192F1295107F185CF12CA12EB12CF8
:102030006701CA0CDB1CD594C794C5018E199F0992
:1020400097FD019695958795180F193008F018504F
:102050008AE897E00E945C07C7010E9487078FE229
:102060000E944907C5010E94870784E897E00E9403
:102070005C07C6010E9487078FE20E944907812FF3
:1020800090E00E94870781E897E00E945C07C09279
:102090003E0210933D0288E17E0129E1E20EF11C2F
:1020A000D701E82F1D92EA95E9F78E010F5F1F4FC8
:1020B000D8011D928A95E9F760E070E0CB010E949B
:1020C000140A812C912C540180914002909141027C
:1020D000A0914202B091430288169906AA06BB0657
:1020E00008F468C00E94120A86EA97E00E945C0722
:1020F00068010CE610E0F701819191917F01D60112
:102100002D913D916D01FD0132975F01281739072F
:1021100010F49183808382EA97E00E945C07C801F3
:102120000E9487078FE997E00E945C07D5018D9197
:102130009C910E9487078CE997E00E945C070C5FE6
:102140001F4F0C391105B9F690E080E096CE0E9441
:10215000280AE82F8A1508F4A82EBE1608F4BE2E09
:1021600080ED8E0F803AA0F4E053FF0B54E0F5951C
:10217000E7955A95E1F7EE0FFF1F41E050E04C0F55
:102180005D1FE40FF51F80A991A9019691AB80AB6B
:102190005FEFC51AD50ABACE80E20E9449070E94B5
:1021A000280A0E946A070F5F13CFBA01A9019E2D6A
:1021B000E82E2ACF0E94280A6701F8019CE6D60182
:1021C0002D913D916D01AD0142505109891778F46F
:1021D0002F5F3F4FDA012D933C939C5F32969C39E1
:1021E00071F7BFEF8B1A9B0AAB0ABB0A6DCF6081F8
:1021F00071816217730710F431832083DA011D9215
:102200001C92EBCF2F923F924F925F926F927F92F0
:102210008F929F92AF92BF92CF92DF92EF92FF92F6
:102220000F931F93CF93DF93CDB7DEB72B970FB6E6
:10223000F894DEBF0FBECDBF282E69877A8781E76D
:1022400097E00E945C07A22CB12CC5010E94870771
:102250008BE697E00E945C0780913E0290E00E942E
:1022600087078FE20E94490780913D0290E00E941B
:10227000870788E697E00E945C0760E070E0CB018A
:102280000E94140A1D821E821F821886912C812CA6
:10229000312C10E0D12C00E0F12CE12C1B86C12C5C
:1022A000412C512C32018091400290914102A09129
:1022B0004202B09143022D813E814F8158852817FB
:1022C00039074A075B0780F00E94120A82E297E012
:1022D0000E945C07C5010E94870785E197E00E9484
:1022E0005C0788EF9FEFEDC00E94280A90913E02A4
:1022F0008917D0F020913D02821708F44CC030E0DD
:10230000215E3F4F8217130609F00CF446C000E02F
:10231000E114F10421F010E000E0F12CE12CC12CDB
:10232000412C512C32012AC022E0D301C201022EDD
:1023300004C0880F991FAA1FBB1F0A94D2F72C0153
:102340003D01689440F8C20E2EE12C1510F43EE1D8
:10235000C32EE114F10409F0DFC0AA27BB27816076
:1023600089389444A105B105D1F40F5F033030F0F2
:1023700010E0D12CEE24E394F12CC12C2D813E8170
:102380004F8158852F5F3F4F4F4F5F4F2D833E83C7
:102390004F83588788CF23E0C8CF24E0C6CF0330CF
:1023A00068F700E0EBCFCA94CA94D301C2010C2CA9
:1023B00004C0B695A795979587950A94D2F7817032
:1023C000DD0CD82A1F5F183008F49AC041E0E416EB
:1023D000F104C1F45B8551110AC08EEFD81609F4DF
:1023E00089C03E2E10E000E0F12CE12CC7CF9BEF1E
:1023F000D912F7CF912C812C10E0D12C83E0E82E5C
:10240000F12C7EC0A2E0EA16F10409F043C03324A7
:1024100033943E0E21E030E02C0F3D1F2E0F311D76
:10242000F901D08233E0331508F070C0098100351E
:10243000C8F6FA8041E04F15A8F21B818FEF810F9B
:10244000823180F68C81823069F68AE597E00E94BD
:102450005C07802F90E00E94870786E597E00E9446
:102460005C078F2D90E00E94870782E597E00E942D
:102470005C07812F90E00E9487078FE497E00E941D
:102480005C072112AFCF10E000E0F12CE12C51E00D
:102490005B8774CF83E0E816F104C9F5C4010196A7
:1024A000A985BA85A80DB91DDC928115A2E09A070D
:1024B00088F18DE397E00E945C070E94120A90E089
:1024C00080E02B960FB6F894DEBF0FBECDBFDF9134
:1024D000CF911F910F91FF90EF90DF90CF90BF9021
:1024E000AF909F908F907F906F905F904F903F90B4
:1024F0002F900895E0E010E0D12C92E0E92EF12C2D
:10250000B1E0BC1508F44FCF3E2E38CFE32D10E0DC
:10251000D12CF6CF4C01FBCFE32DF2CF2F923F927F
:102520004F925F926F927F928F929F92AF92BF92E3
:10253000CF92DF92EF92FF920F931F93CF93DF938F
:10254000CDB7DEB728970FB6F894DEBF0FBECDBF6C
:102550008C016F83788786E097E00E945C07F80122
:10256000808190E00E94870782E097E00E945C07EC
:10257000F801818190E00E9487078EEF96E00E942B
:102580005C07F801828190E00E9487078BEF96E05C
:102590000E945C07F801228083ED96E00E945C07B0
:1025A000822C912CC4010E9487078DEC96E00E943A
:1025B0005C078091860090918700909345028093FC
:1025C0004402F0E84F2EF8E35F2E66246394712CEA
:1025D00010E0C12CD12C7601FC2FFB5FFE830E9402
:1025E000BC0D8130E1F1823009F441C081114EC14E
:1025F000E2E0CC0CDD1CEE1CFF1CEA95D1F76894E0
:10260000C0F8D701C601AA27BB2789389444A10581
:10261000B10509F03FC11F5F133008F43BC100E072
:10262000B12C10E00E94BC0D813049F1823091F153
:10263000811113C052E0CC0CDD1CEE1CFF1C5A951E
:10264000D1F76894C0F81E5F8FE08B1570F5FE011E
:1026500031965F010E3F09F487C010E01BC173E0A3
:10266000CC0CDD1CEE1CFF1C7A95D1F7C8CF64E0C2
:10267000CC0CDD1CEE1CFF1C6A95D1F7C0CF43E0EB
:10268000CC0CDD1CEE1CFF1C4A95D1F76894C0F8F9
:102690001D5FDACF34E0CC0CDD1CEE1CFF1C3A953C
:1026A000D1F76894C0F81C5FCFCF1250000FD7014C
:1026B000C601012E04C0B695A795979587950A94F3
:1026C000D2F78170082BB394B394123008F0BCCFCA
:1026D0009FE09B1508F0A6CFBACF93E0CC0CDD1C91
:1026E000EE1CFF1C9A95D1F76894C0F81D5F31C0AD
:1026F00084E0CC0CDD1CEE1CFF1C8A95D1F768949D
:10270000C0F81C5F26C01250000FD701C601012E71
:1027100004C0B695A795979587950A94D2F78170CE
:10272000082B3394339415C02FE02315B8F00E9482
:10273000BC0D813091F28230D9F281118ECF22E02E
:10274000CC0CDD1CEE1CFF1C2A95D1F76894C0F858
:102750001E5F123048F3FFE0F315A8F6F501019370
:102760005F01FE81FA1519F000E0312CE0CF8B817A
:10277000281273CF89EB96E00E945C07C4010E9487
:10278000870782EB96E00E945C07898190E00E94B7
:1027900087078FEA96E00E945C078FEF9BE0019726
:1027A000F1F700C0000087E00E94510AF8941092EF
:1027B0003C028091840090918500809690938900DE
:1027C0008093880082E086BB1CE080E00E941A0EA5
:1027D0001150D9F70E94F90D0E94F90D0E94F90DD0
:1027E0008BEF0E941A0E81EA8D834FEF5FEF61E05D
:1027F00070E0CE0105960E94450EAC0161E070E0EC
:10280000CE0105960E94450EAC0161E070E0CE015C
:1028100005960E94450EAC018BEF898361E070E064
:10282000CE0101960E94450E182F092FEF80F884E3
:102830006701EEEFDE1A5701FFEFEF1AFF0AF5010D
:1028400080810E941A0E412F502F61E070E0C50177
:102850000E94450E182F092FEC14FD0461F7892FF3
:102860000E941A0E812F0E941A0E16E38EE40E9417
:102870001A0E1150D9F7789487E00E945F0A8AEE09
:1028800096E00E945C0790E080E011C010E0C12C4F
:10289000D12C760191E0491A51086108710809F0BC
:1028A0009ECE83E996E00E945C0787EF9FEF289613
:1028B0000FB6F894DEBF0FBECDBFDF91CF911F9151
:1028C0000F91FF90EF90DF90CF90BF90AF909F90CF
:1028D0008F907F906F905F904F903F902F900895D2
:1028E0000F931F93CF93DF9300D000D000D0CDB7CC
:1028F000DEB78C0180914604882391F1C80196953A
:102900008795800F911FB0E0A0E09C01AD0120539E
:102910003F4C4F4F5F4F2B833C834D835E8322E0C0
:1029200030E0AE014F5F5F4F6B817C818D819E8176
:102930000E94380989819A8100FF10C024E0969591
:1029400087952A95E1F726960FB6F894DEBF0FBE5D
:10295000CDBFDF91CF911F910F9108959F70F3CF5D
:1029600090E080E0F0CFCF93DF93C2E0D0E0CE01E3
:102970000E947014892B21F4CE01DF91CF9108952C
:102980002196C1328BE0D80791F78FEF9FEFF5CFFB
:10299000EF92FF920F931F93CF93DF9300D000D05D
:1029A00000D0CDB7DEB77C018B018091460488232F
:1029B000C9F1C701969587958E0D9F1DB0E0A0E0E7
:1029C0009C01AD0120533F4C4F4F5F4F2B833C8305
:1029D0004D835E8322E030E0AE014F5F5F4F6B813D
:1029E0007C818D819E810E94380989819A81E0FED7
:1029F00026C08F70992724E0000F111F2A95E1F758
:102A0000082B192B1A83098322E030E0AE014F5FB7
:102A10005F4F6B817C818D819E810E94630981E083
:102A20008093470426960FB6F894DEBF0FBECDBF45
:102A3000DF91CF911F910F91FF90EF90089588271C
:102A4000907F1F70DDCFCF93DF9300D000D000D0F8
:102A5000CDB7DEB780914604882309F44EC080913B
:102A60004704882309F449C021E030E03E832D83E8
:102A700080ED90E3A0E0B0E089839A83AB83BC83D0
:102A800020E032E046E452E069817A818B819C81CA
:102A90000E94380966E472E08D819E810E943E08A2
:102AA000892B59F08FEF9FEF26960FB6F894DEBF73
:102AB0000FBECDBFDF91CF91089566E472E08D81A6
:102AC0009E8109960E943E08009761F729813A810C
:102AD0004B815C813E5F4F4F5F4F29833A834B832D
:102AE0005C834D815E814F5F5F4F5E834D834A30D3
:102AF000510531F610924704D7CF90E080E0D4CF53
:102B0000FF920F931F93CF93DF9300D000D000D09C
:102B1000CDB7DEB7809146048823A1F083E49AE024
:102B20000E945C071E821D828D819E8126960FB6B3
:102B3000F894DEBF0FBECDBFDF91CF911F910F91F3
:102B4000FF9008958DE19AE00E945C0766E472E0D0
:102B500090E080E00E94D607892B39F088EF99E059
:102B60000E945C078FEF9FEF73C088EE99E00E9490
:102B70005C0780915102909152020E94870782EE79
:102B800099E00E945C078091530290E00E948707C1
:102B90008BED99E00E945C078091560290E00E94C4
:102BA000870785ED99E00E945C078091590290911A
:102BB0005A020E9487078BEC99E00E945C07809183
:102BC0005B020E946A0788EC99E00E945C0788EB30
:102BD00099E00E945C0780915C0290915D020E94E6
:102BE000870782EB99E00E945C0780915E029091DA
:102BF0005F020E9487078AEA99E00E945C07809141
:102C00006002909161020E94870783EA99E00E9426
:102C10005C0780915702909158020E9487078BE9C8
:102C200099E00E945C0780916C020E946A0788E923
:102C300099E00E945C0780915102909152028115A7
:102C4000924049F082E899E00E945C0788EF9FEF8C
:102C50009E838D8369CF80915602823049F08DE644
:102C600099E00E945C07A8EFBFEFBE83AD835CCF05
:102C700080915302811103C089E599E0E5CF8091ED
:102C80006C02893209F066C080916D0290916E02EB
:102C9000A0916F02B0917002809348049093490410
:102CA000A0934A04B0934B048BE0E1E7F2E0ACE47C
:102CB000B4E001900D928A95E1F7109257048BE4ED
:102CC00099E00E945C078CE494E00E9450078FE337
:102CD00099E00E945C0780914A0490914B040E9405
:102CE0007E0780914804909149040E947E078CE3FE
:102CF00099E00E945C0784E099E00E945C0789E00B
:102D000090E00E94870785EF98E00E945C0780EDC5
:102D100090E3A0E0B0E089839A83AB83BC8301E0B9
:102D200010E0FF24FA94F00E66E472E0C8010E94FD
:102D3000D6078D839E83AD81BE81AB2B09F185EDD6
:102D400098E00E945C078F2D90E00E94870782ED3B
:102D500098E006CF109248041092490410924A0459
:102D600010924B048BE0E1E1F1E0ACE4B4E00190BF
:102D70000D928A95E1F71092570489E199E0B9CF55
:102D800020E032E046E452E069817A818B819C81C7
:102D90000E9463090F5F1F4F89819A81AB81BC81BB
:102DA0009E5FAF4FBF4F89839A83AB83BC830A304A
:102DB000110509F0B6CF81E08093460410924704D4
:102DC00081EC98E00E945C07AFCE80914604882396
:102DD00021F00E9423151092460408958091460424
:102DE0000895AF92BF92CF92DF92EF92FF920F932E
:102DF0001F93CF93DF93D82EC92EB62EA72E7A011C
:102E0000809146042EEF3FEF882391F103E110E01B
:102E100066E472E0C8010E94D607892B09F042C01F
:102E2000C6E4D2E088818823D1F1853E69F18B85A3
:102E300083FD2AC048E050E06D2D7C2DCE010E941C
:102E4000952E892B09F543E050E06B2D7A2DCE01AC
:102E500008960E94952E9C01892BB1F4E114F1048F
:102E600039F080E2FE01D70101900D928A95E1F7D9
:102E7000C901DF91CF911F910F91FF90EF90DF90EB
:102E8000CF90BF90AF900895A09684E0C634D80745
:102E900049F60F5F1F4F0132110509F0B9CF2DEF31
:102EA0003FEFE6CF2FEF3FEFE3CFEF92FF920F938D
:102EB0001F93CF93DF938C01F62EE72E809146046B
:102EC000811116C08EEF9FEFDF91CF911F910F916F
:102ED000FF90EF900895253E59F023852F3041F063
:102EE00020E2AF2DBE2D01900D922A95E1F7ECCF97
:102EF000F80180819181803E910510F5EC01CF7041
:102F0000DD2725E0CC0FDD1F2A95E1F734E096950B
:102F100087953A95E1F766E472E043960E94D607FA
:102F2000009789F4FE01EA5BFD4FD8012D913C9199
:102F300011972F5F3F4F2D933C9320812111CBCFD1
:102F40008DEF9FEFC1CF8FEF9FEFBECF8F929F92FC
:102F5000AF92BF92CF92DF92EF92FF920F931F93A7
:102F6000CF93DF93CDB7DEB7A0970FB6F894DEBF4F
:102F70000FBECDBF7C016B018A018FEA98E00E94F1
:102F80005C075701470188E0880E911CF50181918B
:102F90005F01803229F00E944907A814B904B1F7F3
:102FA0008EE20E94490756014601A3E08A0E911C59
:102FB000D5018D915D01803229F00E944907A81446
:102FC000B904B1F78BEA98E00E945C07AE014F5F4D
:102FD0005F4FB601C7010E94F1167C01892BC1F039
:102FE00084E998E00E945C07C701A0960FB6F894A8
:102FF000DEBF0FBECDBFDF91CF911F910F91FF902C
:10300000EF90DF90CF90BF90AF909F908F900895FA
:10301000F8013D9686E0DF011D928A95E9F781E08F
:10302000F80180838B8D9C8D92838183948383832D
:103030008D8D9E8DAF8DB8A185839683A783B08734
:103040001186128613861486118A8DE798E00E94F5
:103050005C078B8D9C8D0E94870786E798E00E9415
:103060005C078D8D9E8D0E94870783E798E0BACF1D
:103070006F927F928F929F92AF92BF92CF92DF9288
:10308000EF92FF920F931F93CF93DF93EC013B01DD
:103090006A018881882309F488C08989811185C0E3
:1030A0008091460481117BC08EEF9FEF69C08D81B6
:1030B0009E8149855A8595012E193F09841B950BE0
:1030C0002817390708F4C9014601801A910A8815A2
:1030D000990508F44C01B7016A5B7D4FA401C30157
:1030E000800F911F0E94A22E080D191D89859A85B7
:1030F000AB85BC85880D991DA11DB11D89879A8757
:10310000AB87BC87AC01BD01517066277727452B83
:10311000462B472BA1F44D815E816F817885841702
:103120009507A607B70758F48B819C810E947014FD
:103130009C01283F8FE0380710F53C832B830C154A
:103140001D05E8F489859A85AB85BC854D815E8136
:103150006F81788584179507A607B70780F47C01EF
:1031600021E0F2228B819C8166E472E04F960E94FE
:10317000D607892B09F49BCF01151105C1F0C801B1
:10318000DF91CF911F910F91FF90EF90DF90CF9043
:10319000BF90AF909F908F907F906F90089510E0B8
:1031A00000E0A12C82E0B82ECACF89EF7ECF8FEF4E
:1031B0007CCF3F924F925F926F927F928F929F92BD
:1031C000AF92BF92CF92DF92EF92FF920F931F9335
:1031D000CF93DF938C012B017A01FC01808188233E
:1031E00009F490C08189882309F48CC08091460439
:1031F00081117CC08EEF9FEF67C0F301C501119272
:103200000197E9F740C0CC0DDD1DF801818592855D
:10321000A385B4858C0D9D1DA11DB11D818792874D
:10322000A387B487328A9170AA27BB27892B8A2B60
:103230008B2BB1F4CE15DF0598F40E94B3146C010A
:1032400097FD41C0BC01F801838194810E94C8149C
:103250006FEF7FE0C6010E94C814F801D482C382D8
:10326000CE15DF0580F5F80181849284F1E09F227C
:103270008114910411F2F8018381948166E472E073
:103280004F960E94D607C7018C1B9D0B6501C8187D
:10329000D9088C159D0508F46C01A601B2016C0FCC
:1032A0007D1FC4018A5B9D4F0E94A22EF80183817D
:1032B000948166E472E04F960E943E08892B09F4DF
:1032C000A2CF209709F1CE01DF91CF911F910F91ED
:1032D000FF90EF90DF90CF90BF90AF909F908F9036
:1032E0007F906F905F904F903F900895D0E0C0E046
:1032F00086E4682E82E0782EA12C92E0B92E332449
:103300003394AECF89EF77CF8FEF75CFCF93DF9325
:10331000EC018881882309F44EC081E698E00E9480
:103320005C0789859A850E94870789E598E00E9455
:103330005C078989811124C08EE40E94490783E5D6
:1033400098E00E945C078A8981111CC08EE40E946B
:10335000490780E598E00E945C078989882351F13C
:103360008A89882339F166E472E08D859E850E9402
:10337000D607892B49F08FEF9FEFDF91CF9108950A
:1033800089E5DBCF89E5E3CFEF85F889EA5BFD4F7F
:1033900089859A85AB85BC85848F958FA68FB78FDD
:1033A00066E472E08D859E850E943E08892B19F7A0
:1033B0000E942315188290E080E0DFCFCF92DF9249
:1033C000EF92FF920F931F93CF93DF93182F092F44
:1033D000D62EC72E80914604CEEFDFEF882361F012
:1033E00083E1E82EF12C66E472E0C7010E94D60763
:1033F000892B61F0CFEFDFEFCE01DF91CF911F91ED
:103400000F91FF90EF90DF90CF900895C6E4D2E047
:103410008881882309F441C0853E91F148E050E05D
:10342000612F702FCE010E94952E892B49F543E024
:1034300050E06D2D7C2DCE0108960E94952E892B93
:10344000F9F40A8D1B8DC8010297863F9F4068F0F2
:1034500085EE888366E472E0C7010E943E08EC01B5
:10346000892B41F60E942315C7CFC8010E94701412
:103470006C0170E060E0C8010E94C8148601E3CFCF
:10348000A09684E0C634D80719F62FEFE21AF20AA4
:1034900081E2E816F10409F0A6CFCDEFDFEFACCF63
:1034A0005F926F927F928F929F92AF92BF92CF92D4
:1034B000DF92EF92FF920F931F93CF93DF93CDB7DD
:1034C000DEB7A0970FB6F894DEBF0FBECDBF882E33
:1034D000792E662E572E8A0180914604882309F49E
:1034E0009BC0AE014F5F5F4F882D0E94F116892B64
:1034F00031F4662D752D882D972D0E94DE1993E1EC
:10350000A92EB12C66E472E0C5010E94D607892B72
:10351000C1F08FEF9FEFA0960FB6F894DEBF0FBEFD
:10352000CDBFDF91CF911F910F91FF90EF90DF9072
:10353000CF90BF90AF909F908F907F906F905F9053
:10354000089586E4E82E82E0F82E912CF701808120
:10355000811108C00E94B3146C0197FF17C08AEF55
:103560009FEFD9CF853EB1F39394F0E2EF0EF11CBB
:1035700040E19412EBCF8FEFA81AB80A91E2A91696
:10358000B10409F0BFCF8BEF9FEFC5CF6FEF7FE0A6
:103590000E94C81480E2F701482F11924A95E9F77A
:1035A00098E0E82DF72DD70101900D929A95E1F75B
:1035B000D701189693E0E62DF52D01900D929A957E
:1035C000E1F7F7018387D38EC28E148E158E168E87
:1035D000178E66E472E0C5010E943E08009709F06C
:1035E00098CF21E0F8012083D282C182D482C382A5
:1035F000158216821782108611861286138614860B
:10360000218B128AB686A586F0E29F9E9001112436
:10361000F801308B27877FCF8EEF9FEF7CCF4F92C3
:103620005F926F927F928F929F92AF92BF92CF9252
:10363000DF92EF92FF920F931F93CF93DF93CDB75B
:10364000DEB7A0970FB6F894DEBF0FBECDBF782EC1
:10365000692E562E472ED42EC52EB22EA32E809123
:103660004604882309F480C0AE014F5F5F4F622F8C
:10367000732F8D2D9C2D0E94F116892B09F477C094
:1036800083E1E82EF12C66E472E0C7010E94D607C0
:10369000892B09F06FC006E412E0F80180818823CD
:1036A00009F45FC0853E09F44DC048E050E0672D45
:1036B000762DC8010E94952E892B09F043C0480140
:1036C000F8E08F0E911C43E050E0652D742DC4018D
:1036D0000E94952E892BB1F588E0ED2DFC2DD801A7
:1036E00001900D928A95E1F783E0EB2DFA2DD4013C
:1036F00001900D928A95E1F766E472E0C7010E949D
:103700003E0821E030E0892B11F430E020E08827EA
:103710009927821B930BA0960FB6F894DEBF0FBEBD
:10372000CDBFDF91CF911F910F91FF90EF90DF9070
:10373000CF90BF90AF909F908F907F906F905F9051
:103740004F900895005E1F4F84E00634180709F07B
:10375000A4CFEFEFEE1AFE0AF1E2EF16F10409F042
:1037600092CF8DEF9FEFD7CF8EEF9FEFD4CF8CEF1F
:103770009FEFD1CF8FEF9FEFCECF0F931F93CF93BC
:10378000DF9300D000D0CDB7DEB780914604882308
:1037900099F102E010E01A821982C8010E947014A7
:1037A000892B31F429813A812F5F3F4F3A83298356
:1037B0000F5F1F4F01323BE0130779F749815A81B0
:1037C000B0E0A0E09A01AD0189E0220F331F441F51
:1037D000551F8A95D1F729833A834B835C8369818E
:1037E0007A818B819C810F900F900F900F90DF91C9
:1037F000CF911F910F91089519821A821B821C820A
:10380000EECFAF92BF92CF92DF92EF92FF920F93E3
:103810001F93CF93DF9300D000D000D0CDB7DEB799
:103820008D839E8380E092E0E6E4F2E0DF019C017C
:103830001D9221503040E1F72BEE209346022CE3FD
:103840002093470220E92093480228E0EDE1F1E0CF
:10385000A9E4B2E001900D922A95E1F7909352020B
:103860008093510281E08093530281E090E0909335
:1038700055028093540282E08093560280EE90E0DD
:10388000909358028093570280E49BE090935A02F1
:103890008093590280EF80935B0289E090E09093DF
:1038A0005D0280935C0282E190E090935F028093DE
:1038B0005E0282E090E0909361028093600289E270
:1038C00080936C028EEE9FEFA0ECB4E680936D02C5
:1038D00090936E02A0936F02B09370028D819E81CF
:1038E000892B09F4CCC08BE0ED81FE81A1E7B2E029
:1038F00001900D928A95E1F788E0E2E3F1E0ACE710
:10390000B2E001900D928A95E1F785E58093440439
:103910008AEA8093450466E472E090E080E00E94C9
:103920003E08892B09F0AFC001E010E080ED90E384
:10393000A0E0B0E089839A83AB83BC8386E4C82E81
:1039400082E0D82EA12C92E0B92E20EFE22EFF24A7
:10395000FA94D601F5011D923197E9F7013031F45F
:10396000E0924602F0924702F092480266E472E06A
:10397000C8010E943E08892B09F085C066E472E008
:10398000C80109960E943E08892B09F07CC020E0FE
:1039900032E046E452E069817A818B819C810E9409
:1039A000630989819A81AB81BC819E5FAF4FBF4F14
:1039B00089839A83AB83BC830F5F1F4F0A30110545
:1039C00041F6E6E4F2E080E092E0DF019C011D9226
:1039D00021503040E1F78D819E81892BB9F088E03C
:1039E000ED81FE81A6E4B2E001900D928A95E1F7A7
:1039F000ED81FE8180859185A28580934E02909312
:103A00004F02A093500288E08093510266E472E076
:103A100083E190E00E943E08892BA9F5E6E4F2E0FC
:103A200080E092E0DF019C011D9221503040E1F7DF
:103A300084E190E09A83898366E472E089819A81C7
:103A40000E943E08892BF9F4A981BA811196BA83A4
:103A5000A983919789F71092460426960FB6F89499
:103A6000DEBF0FBECDBFDF91CF911F910F91FF90B1
:103A7000EF90DF90CF90BF90AF900C9480158BE0CB
:103A8000E6E2F1E033CF8FEF9FEF26960FB6F89482
:103A9000DEBF0FBECDBFDF91CF911F910F91FF9081
:103AA000EF90DF90CF90BF90AF9008958F929F924C
:103AB000AF92BF92CF92DF92EF92FF920F931F933C
:103AC000CF93DF936C014B017A0148E050E060E254
:103AD00070E0C4010E94AB2E43E050E060E270E071
:103AE000C7010E94AB2E56019601E90188812F5F24
:103AF0003F4F81110BC0F60101900020E9F731978B
:103B00008F010C191D09D0E0C0E007C08E3269F7A3
:103B10008E010C191D09209771F30930110514F05D
:103B200008E010E06401912C812C8016910614F1BC
:103B30002097A9F12196DE010D900020E9F7119759
:103B40008701AC1BBD0BA430B10514F0A3E0B0E0BD
:103B5000EA0EFB1E0E151F05D1F4DF91CF911F91C8
:103B60000F91FF90EF90DF90CF90BF90AF909F901C
:103B70008F900895F50181915F0190E00E948D2E54
:103B8000F60181936F01FFEF8F1A9F0ACECF8991C3
:103B900090E00E948D2EF80181938F01DBCF83E0AE
:103BA000EBE3F1E0D70101900D928A95E1F7D5CFD3
:103BB0008F93549A5C9881E0809359048F91189563
:103BC00053985B9A54985C9A0895FC011082549A19
:103BD0005C988FE391E00197F1F700C0000081E16C
:103BE00097E24B9B18C054985C9A90E080E061E0AB
:103BF00070E021E137E24B9918C04C9B09C020814D
:103C0000AB01082E01C0440F0A94EAF7242B20834D
:103C100021E137E21BC025E02A95F1F7000001976A
:103C200001F754985C9A80E0089545E04A95F1F7D1
:103C3000000021503109F9F60E94E01DF4CF45E063
:103C40004A95F1F7000021503109B1F34B9BF7CFB2
:103C500001968830910569F6549A5C988FE891E056
:103C60000197F1F700C0000081E00895FC01DB013D
:103C700010821C9254985C9A89EC90E04B9B16C081
:103C800025E02A95F1F70000019709F581E08C9372
:103C9000549A5C988FEE90E00197F1F700C0000015
:103CA00054985C9A81E197E24B9907C090E080E0DC
:103CB00061E070E021E137E214C025E02A95F1F7D8
:103CC0000000019789F70E94E01D80E008954A995D
:103CD000D5CFF9CF45E04A95F1F7000021503109E1
:103CE00091F34B99F7CF4C9B09C02081AB01082E73
:103CF00001C0440F0A94EAF7242B208321E137E224
:103D000007C045E04A95F1F7000021503109D9F28A
:103D10004B9BF7CF01968830910561F6549A5C98D9
:103D200081E00895539A5B9854985C9AEFE3F1E030
:103D30003197F1F700C0000021E137E24C9B45C00C
:103D4000662391F053985B9A21E137E24C9949C080
:103D500021E137E24C9B4EC0539A5B98EFE3F1E0D0
:103D60003197F1F700C0000030E020E090E0AC01B6
:103D7000022E02C0559547950A94E2F740FF43C0D2
:103D800054985C9AEFEEF0E03197F1F700C0000034
:103D900053985B9AEFEEF0E03197F1F700C0000026
:103DA000539A5B982F5F3F4F2830310501F75498A5
:103DB0005C9A81E197E24C9929C08FE891E00197E4
:103DC000F1F700C0000081E00895F5E0FA95F1F701
:103DD00000002150310911F480E008954A99AECFD6
:103DE000FBCF95E09A95F1F700002150310909F0D9
:103DF000ADCFF2CFE5E0EA95F1F7000021503109AF
:103E000009F0A8CFE9CF549A5C98BCCFF5E0FA95B9
:103E1000F1F70000019779F6DFCFEF920F931F9330
:103E2000CF93DF9380933D0590E3E92E0EE315E0F9
:103E30000E945522EC018034910514F0C0E4D0E0DA
:103E4000AE0155276EE375E08AEF94E00E94A22E42
:103E5000C0933A0510923B0510923C05DF91CF913B
:103E60001F910F91EF900895CF93C82F89E29DE0A5
:103E70000E945C078C2F90E00E94870786E29DE0FD
:103E80000E945C07C0935A0410925C0410925B0479
:103E9000109259048AB1837C8AB98BB18C638BB937
:103EA000809169008C7F82608093690081E08CBB87
:103EB000E89AC9B186E19DE00E945C078CE4C2FDEE
:103EC00088E40E94490780E19DE00E945C078CE441
:103ED000C3FD88E40E94490789E09DE00E945C07D9
:103EE0008CE4C4FD88E40E94490783E09DE00E94C1
:103EF0005C078CE4C5FD88E40E94490780E09DE0F2
:103F00000E945C07EFE5F4E08EEDDF011D928A95DB
:103F1000E9F720E040E06FE371E089E4CF910C9491
:103F20000D1FCF93DF93EC01DB01E0913B05809106
:103F30003A05E81730F081E08C9380E0DF91CF9173
:103F4000089581E08E0F80933B05F0E0E253FB4F34
:103F500084A5888381E020913B0590913A0529173B
:103F600008F480E08C9381E0E9CFCF92DF92EF926A
:103F7000FF920F931F93CF93DF9300D00F92CDB793
:103F8000DEB7809158044D9923C0811115C081E09E
:103F90008093580488EC9CE00E945C0710925C04BB
:103FA00010925B040E94E01D0E946C0B0E94E516BB
:103FB0000E9445220E943E290F900F900F90DF91A2
:103FC000CF911F910F91FF90EF90DF90CF900895C8
:103FD000882309F45BC01092580482EA9CE00E9496
:103FE0005C070E94D30A0E947A0B892B91F080E92A
:103FF0009CE00E945C0720E040E061E071E08AE420
:104000000E940D1F85E090E00E94FA2D0E946C0B2B
:10401000D3CF8FE79CE00E945C070E94B40B811114
:104020000EC086E69CE00E945C0720E040E061E074
:1040300071E08AE40E940D1F86E090E0E5CF8FE4F6
:104040009CE00E945C070E948015892B79F48EE326
:104050009CE00E945C070E946C0B8EE09CE00E943A
:104060005C0790E080E00E94FA2DA6CF89E29CE0F8
:104070000E945C0720E040E061E071E08AE40E9479
:104080000D1F86E090E00E94FA2DE5CF4A9B41C0CB
:1040900080915B0490915C04029709F08DCFAE0192
:1040A0004F5F5F4FBE016E5F7F4F80915D040E9446
:1040B000C325882359F10E943929FC0169818A812D
:1040C000309709F10680F781E02D3097E1F00995EE
:1040D00081110AC084EF9BE00E945C0710925C048F
:1040E00010925B040E94E01D8981882309F464CF4B
:1040F0008CED9BE00E945C0710925C0410925B04C4
:104100000E94E01D59CF0E94921EE2CF8DEB9BE0F2
:10411000F1CF0E94AC2D81EB9BE00E945C07549A8A
:104120005C9882E0E82EF12CCC24C394D12C4A99DF
:104130000AC0CE0103960E94E51D811142C086E9A6
:104140009BE00E945C070E94AE2D80915B049091E1
:104150005C040297D1F48EEE9AE00E945C070E9404
:104160000C290E9439298C01009779F0DC011A96FC
:104170008D919C91892B49F086ED9AE00E945C0715
:10418000D8011A96ED91FC91099580915B0490916C
:104190005C04019709F010CF89EB9AE00E945C075C
:1041A00080915D0490E00E94870786EB9AE00E9470
:1041B0005C0711E04A99C6C08CE99AE00E945C074E
:1041C000FBCE89E89BE00E945C078B810E946A0716
:1041D0008B818F3361F58DE79BE00E945C078091B6
:1041E0005B0490915C04019709F0A1CF80915D047C
:1041F0008F30C1F46091CB04662359F0E62FF0E0D4
:10420000E65AFB4F11AA8BE894E00E94AA2710926D
:10421000CB0410925C0410925B040E94E01D0E948B
:104220003E2985CF8130A9F70E94A925F2CF8F358D
:1042300061F483E79BE00E945C0780915B049091AE
:104240005C04029709F073CFE4CF182F1F71982FE9
:10425000907E9032C9F489E69BE00E945C07812F32
:1042600090E00E94870786E69BE00E945C078091B1
:104270005A0481135CCFD0925C04C0925B0482E547
:104280009BE00E945C0753CF9034B9F48AE49BE032
:104290000E945C07812F90E00E94870787E49BE0E3
:1042A0000E945C0780915A04811341CFF0925C0414
:1042B000E0925B0485E39BE0E4CF982F907F9036FB
:1042C00051F5182F1F708BE29BE00E945C07812F35
:1042D00090E00E94870788E29BE00E945C071093B1
:1042E0005D0480915B0490915C048130910529F418
:1042F0001092CB041092CC041ACF029709F017CF7A
:1043000054985C9A8FE391E00197F1F700C00000A8
:10431000539A5B980CCF903E91F4182F1F708DE14B
:104320009BE00E945C07812F90E00E9487078AE152
:104330009BE00E945C07812F0E94A925F8CE84E1B2
:104340009BE09FCFBE016F5F7F4FCE0102960E9420
:10435000361E811103C083E89AE030CF80915D045E
:1043600090915F04911136C08F30A1F1E0918A04E1
:10437000E93248F48A8191E09E0F90938A04F0E03C
:10438000E65AFB4F86838981882309F413CFE09195
:104390008A04F0E0E65AFB4F168282E79AE00E9418
:1043A0005C0780E694E00E9450078EE69AE00E9447
:1043B0005C0740918A0460E674E080915D040E948D
:1043C000772210935F048981882309F4F3CE8BE56B
:1043D0009AE0F4CEE091CB046A81E03440F491E0BD
:1043E0009E0F9093CB04F0E0E65AFB4F61AB0E9426
:1043F0009127E9CF80915904882341F01092590404
:1044000082EE9CE00E945C070C94B51F08950F9308
:104410001F93CF93DF93CDB7DEB7CC52D4400FB606
:10442000F894DEBF0FBECDBF8C019C01AE01435D91
:104430005D4F60ED78E580E090E00E9438092CE265
:1044400032E0AE014F5F5F4FB801CE01835D9D4FFB
:104450000E948E2D8C011816190654F49C01AE0191
:104460004F5F5F4F60ED7AE580E090E00E94630966
:10447000C801C45DDB4F0FB6F894DEBF0FBECDBFE1
:10448000DF91CF911F910F910895EBE7F5E083E164
:10449000DF011D928A95E9F71092760520E040E051
:1044A0006FE371E089E40C940D1FEF920F931F935B
:1044B0001F922F931F924F937F936F931F928F930F
:1044C0008DE491E09F938F931F92EF921F930F9330
:1044D0000E94BD2E2DB73EB7225F3F4F0FB6F89416
:1044E0003EBF0FBE2DBF1F910F91EF9008957F9299
:1044F0008F929F92AF92BF92CF92DF92EF92FF92F4
:104500000F931F93CF93DF93CDB7DEB7C356D10977
:104510000FB6F894DEBF0FBECDBF182F7B01042F5E
:1045200083E29EE00E945C07812F90E00E94870753
:104530008BE19EE00E945C0767014701800E911CA1
:104540008C149D04E1F587E19EE00E945C07FE016A
:10455000EF5AFF4F1192119287E0DF011D928A9569
:10456000E9F76C961FAE1EAE6C976E961FAE1EAE30
:104570006E97123078F40E94EE16811126C08FEFEC
:104580009DE00E945C0720E040E061E071E08AE489
:104590000E940D1FCD59DF4F0FB6F894DEBF0FBE3E
:1045A000CDBFDF91CF911F910F91FF90EF90DF90E2
:1045B000CF90BF90AF909F908F907F900895D6013D
:1045C0008D916D010E944907BBCF11111DC20130B1
:1045D00009F01AC2F7018081843209F015C28BEE0E
:1045E0009DE00E945C07098384E08A8322E030E03A
:1045F000AE014F5F5F4F60ED76E480E090E00E9497
:1046000063091B821C8282E18D8382E28E83E9E64C
:10461000F1E0DE01179689E791E021912D938E1745
:104620009F07D9F782E28F8B80E2888FEAE7F1E07B
:1046300088E1919121E0280F482F50E09111B5C0F9
:10464000E1E0F0E0EC0FFD1F4E0F5F1FDA011C925E
:1046500030E07901B2E0EB0EF11C8C5F8983C90177
:104660008D5F9B4F9A83AF0162ED76E480E090E02E
:104670000E946309A0961FAE1EAEA09730E2C32E23
:1046800042E2B42E0FE010E0BE016F5C7F4FCE011E
:10469000825A9F4F0E945517AC01892B31F468EF65
:1046A000E6166FE0F60608F48BC00E94BD1BA496C8
:1046B0006CAF7DAF8EAF9FAFA497BB27A92F982F6C
:1046C000872F19821A828B839C83A1E8B1E084E052
:1046D0009D9161E0680F282F30E091118BC18824F3
:1046E0008394912C8C0E9D1E280D391DD9011C928E
:1046F000F401E60FF11D1082E2E0E80F88248394B4
:10470000912C8C0E9D1E8E0E911CF40110828D5FDB
:10471000082F10E0B0E0A0E09701AD012053394B25
:104720004F4F5F4FA4962CAF3DAF4EAF5FAFA497F6
:104730009801AE014F5F5F4FA4966CAD7DAD8EAD1D
:104740009FADA4970E9463090E0D1F1D10937A055B
:1047500000937905109278051092770511E0109377
:1047600076058CED9DE00E945C0780917905909123
:104770007A050E94870789ED9DE00E945C071092F0
:1047800075051092740510927305109272051092BF
:1047900071051092700510936F0510926E0520E060
:1047A00040E06EE871E080E0F3CE88248394912CA1
:1047B0008C0E9D1E480D591DDA019C93822F39CF16
:1047C0006CAD63FD61CF61968CAD9DADAEADBFADFF
:1047D000619781509F4FAF4FBF4F892F9A2FAB2FBB
:1047E000BB279C0119821A82009711F481E090E0A6
:1047F0009C838B832A30310508F03EC0CD82A5E032
:10480000E1E0EA0F88248394912C8C0E9D1E8A0E81
:10481000911CD401CC9291E09E0FA1E0B0E0AC0FCE
:10482000BD1FAE0FB11DFD01C08281E0890FE1E027
:10483000F0E0EC0FFD1FE90FF11DB08228E030E041
:10484000722F732E21503109E1E3F0E0EC0FFD1FD0
:10485000E20FF31FE081E032D1F0FE01F1969E5F9E
:10486000970F282FAA24A394A20E30E09A11A5C076
:10487000870F272F372D0EC02436310510F4A4E002
:10488000BFCF94E0283E334080F6E4E0C4CF21154A
:104890003105B1F699AD7BAD703209F09AC07AADB1
:1048A000703209F099C0903221F141E050E091E07E
:1048B000980F7EE2E1E0F0E0EC0FFD1FE80FF11D44
:1048C0007083DE01D996792F740FDD90E92F9F5FF9
:1048D00088248394912C8C0E9D1E8E0E911CF401C5
:1048E000D0829713F2CF840F8F5FFA0131962E0F8B
:1048F0003F1F91E0980FE1E0F0E0EC0FFD1FE80FA3
:10490000F11DB08271E1780F721BE92F9F5FA1E06A
:10491000B0E0AC0FBD1FAE0FB11DFD01C0829713FB
:10492000F4CF8E5FF801E21BF30BD82EDE0EE1E62A
:10493000F1E064FD11C04330510561F443E050E003
:1049400065E671E0CE01C9960E94952EE5E6F1E09C
:10495000892B11F0EBE3F1E0319121E02D0D8D2D4C
:1049600090E031113CC0E1E0F0E0EC0FFD1F8E0F54
:104970009F1FDC011C9230E049018E0C9F1CC4017A
:104980008F5F9B4F9A838983B0E0A0E0A701BD01B0
:104990004053594B6F4F7F4FA4964CAF5DAF6EAFF6
:1049A0007FAFA497AF01A4966CAD7DAD8EAD9FADEA
:1049B000A4970E946309740167CED19088248394E0
:1049C000912C8C0E9D1E280D391DD901DC922A2DAB
:1049D00049CF43E050E06BCF42E050E068CF8824FD
:1049E0008394912C8C0E9D1E880D991DDC013C93A7
:1049F000D22EB2CFE1E0F0E0EC0FFD1F2E0F3F1FF3
:104A0000F9019083862F64CEAE01465A5F4FBE01F6
:104A10006F5A7F4FC7010E94561D89EC9DE00E948E
:104A20005C07AE014F5A5F4F7A016A0158E0C50E2C
:104A3000D11CD7018D917D010E944907CE14DF045E
:104A4000C1F785EC9DE00E945C076B968FAD6B977C
:104A50000E9449076C968FAD6C970E9449076D962E
:104A60008FAD6D970E94490781EC9DE00E945C0725
:104A7000111126C084EB9DE00E945C074BE755E0D6
:104A8000BE01665A7F4FCE018F5A9F4F0E94A617D4
:104A90008C01892B09F440C08EE99DE00E945C07DF
:104AA00088279927801B910B0E9487078BE99DE03F
:104AB0000E945C0720E040E061E971E08EE368CD90
:104AC0008EE89DE00E945C074BE755E0BE01665A08
:104AD0007F4FCE018F5A9F4F0E94501A8C01892B15
:104AE000D9F081E79DE00E945C0788279927801B09
:104AF000910B0E9487078EE69DE00E945C0720E0F4
:104B000040E060EA71E088E40A3F1F4F09F440CDBD
:104B10006AEA71E089E13CCD109275051092740546
:104B20001092730510927205109271051092700523
:104B300081E080936F0510926E0520E040E06EE802
:104B400071E080E00E940D1F8EE59DE00E945C07F1
:104B500021CDCF93C82F8EE49DE00E945C078C2F5F
:104B600090E00E9487078BE49DE00E945C078091A3
:104B70007B05882321F08BE795E00E94861910922F
:104B80007605CF910895BF92CF92DF92EF92FF9278
:104B90000F931F93CF93DF9300D000D000D0CDB7F9
:104BA000DEB7082F6B017A01FA0110820E94682D8E
:104BB000182F882309F44CC10F3009F44BC1F701B9
:104BC000108280917005909171052091720530914D
:104BD00073058217930740F5B0E0A0E09C01AD019A
:104BE0002053354A4F4F5F4FCA01B9010E948D09CA
:104BF000F6018083809170059091710501969093E4
:104C000071058093700520917205309173058217AC
:104C1000930708F446C080916E05882309F441C0CB
:104C200081E0F70180833DC0B0906E05BB2029F084
:104C300081E0F701808310E034C000916F0501111D
:104C400081C01A82198222E030E0AE014F5F5F4FCF
:104C500060ED7AE580E090E00E94630982E090E0F8
:104C600090937305809372051092710510927005F0
:104C700001E000936E0560ED7AE580E090E00E942F
:104C80008D09F601808381E090E090937105809317
:104C900070058091720590917305029710F4F701E9
:104CA0000083812F26960FB6F894DEBF0FBECDBFCE
:104CB000DF91CF911F910F91FF90EF90DF90CF90F8
:104CC000BF900895B0E0A0E09C01AD012053394BA6
:104CD0004F4F5F4F2B833C834D835E8321E030E059
:104CE000AE014F5F5F4F6B817C818D819E810E9401
:104CF0003809809177059091780501969093780511
:104D0000809377058091740590917505B0E0A0E0DF
:104D10009C01AD012053374A4F4F5F4F2B833C839B
:104D20004D835E8349816B817C818D819E810E9450
:104D3000A60980917405909175050196909375056B
:104D4000809374058091740590917505811592404A
:104D500088F4809176058823C1F180917705909140
:104D600078052091790530917A058217930708F428
:104D7000A9CFB02E80917405909175050097B1F17F
:104D80000E940722181619060CF052CF9093730553
:104D9000809372051092710510927005109275053E
:104DA00010927405B11010926F0560ED7AE580E005
:104DB00090E00E948D09F601808381E090E090935D
:104DC000710580937005102F6CCF80917B0588232F
:104DD00081F241E050E0BE016F5F7F4F8BE795E0CD
:104DE0000E943818019709F48DCFC3CF1A82198217
:104DF00022E030E0AE014F5F5F4F60ED7AE580E08A
:104E000090E00E94630982E090E0909373058093A4
:104E10007205109271051092700510926F0581E075
:104E200080936E0560ED7AE580E090E00E948D0948
:104E3000F601808381E090E0909371058093700586
:104E40008091720590917305029708F02ACFE8CE01
:104E50000F3031F4B701C6010E94911F182F21CFE6
:104E60000111E6CE10917605112381F1809177052D
:104E700090917805B0E0A0E09C01AD012053394B42
:104E80004F4F5F4F2B833C834D835E8321E030E0A7
:104E9000A6016B817C818D819E810E943809809161
:104EA0007705909178050196909378058093770522
:104EB0002091790530917A058217930708F4F1CE95
:104EC00081E0F701808310927605EBCE10917B058F
:104ED000112309F4ADCE41E050E0BE016F5F7F4F7A
:104EE0008BE795E00E943818019709F0A1CE8981DF
:104EF000F601808340918405509185056091860577
:104F0000709187058091800590918105A09182051F
:104F1000B0918305481759076A077B0708F4C1CE8B
:104F20007FCECF93DF930F92CDB7DEB76983813009
:104F300069F480917B05882349F041E050E0BE018F
:104F40006F5F7F4F8BE795E00E94D9180F90DF913C
:104F5000CF910895AF92BF92CF92DF92EF92FF92DE
:104F60000F931F93CF93DF93CDB7DEB7C754D1090B
:104F70000FB6F894DEBF0FBECDBF6C01162F6623AF
:104F800009F49AC08EE39DE00E945C077601560109
:104F9000A10EB11CEA14FB0409F04AC08AE39DE0AB
:104FA0000E945C07012F1A3208F009E2E02EF12C72
:104FB000A701B601CE0101960E94A22E81E090E0E9
:104FC0008C0F9D1FE80EF91EF70110826C01F6018F
:104FD00081916F0190E00E948D2EF60131978083C0
:104FE000EC14FD04A1F7602FCE0101960E94882ADF
:104FF000811162C0602FCE0101960E94FB2A8111AF
:105000005BC0602FCE0101960E943F2D882309F1DD
:1050100068E070E0CE018B960E946B2D1816190681
:105020006CF420E040E0BE01655D7F4F80E042C04F
:10503000F70181917F010E944907ACCF0E94682D42
:1050400020E040E066EB71E08111F0CF6EE871E0A6
:10505000EDCF8981823509F441C064F4893409F4C3
:10506000B7C08E3409F47EC020E040E065ED71E009
:105070008EE120C08335C1F71330B0F38A818A33C3
:1050800099F7AE01495C5F4FBE01655D7F4FCE0170
:1050900003960E94561DBE01695C7F4FCE018B9620
:1050A0000E94DE1920E0892B09F051C041E065EC37
:1050B00071E081E00E940D1FC95BDF4F0FB6F894CD
:1050C000DEBF0FBECDBFDF91CF911F910F91FF903B
:1050D000EF90DF90CF90BF90AF900895133060F3C2
:1050E0008A818A3349F76DE370E0CE0103960E940E
:1050F000B22E009709F4B8CFFC0111928F01AE01D6
:105100004C5B5F4FBE01695C7F4FCE0103960E94EE
:10511000561DAE01405C5F4FBE01655D7F4FC8010B
:105120000E94561D9E012C5B3F4FAE01495C5F4FB4
:10513000BE01605C7F4FCE018B960E940F1B0097D3
:1051400019F420E040E082CF039631F420E040E003
:1051500061E971E08EE3AECF20E040E062EE71E005
:105160008FE3A8CF133058F18A818A3341F54BE0A1
:1051700050E060E270E0CE018B960E94AB2E1EAA3A
:10518000BE016D5F7F4FFB0101900020E9F7AF0189
:1051900041505109461B570B4C30510514F04BE060
:1051A00050E0CE018B960E94A22ECE018B960E94DB
:1051B000011C892B39F46EE871E080E006C090E0B4
:1051C00080E0F5CF6AEA71E089E120E040E072CF4B
:1051D0000E94E5160E948015892B69F361E071E059
:1051E0008AE4F3CF1092900510928F0510928E05ED
:1051F00008959C01892B79F0E0919005E43058F4F2
:1052000081E08E0F80939005F0E0EE0FFF1FEF56C8
:10521000FA4F3183208308951F93CF93DF9310E0DB
:1052200080919005181738F010928F0510928E0516
:1052300090E080E018C0C12FD0E0CC0FDD1FCF562A
:10524000DA4FE881F9810480F581E02D309779F01B
:105250000995882361F0E881F981F0938F05E09347
:105260008E0580819181DF91CF911F9108951F5FFD
:10527000D7CF80918E0590918F05089510928F055C
:1052800010928E050895CF93DF93FC01DB0110820D
:105290001C9254985C9A89EC90E04B9B17C04C9BF5
:1052A00015C025E02A95F1F70000019709F04AC0E2
:1052B00081E08C93549A5C9885E48A95F1F700001C
:1052C00054985C9A81E197E24B9930C090E080E07D
:1052D00029B139B123FB222720F9C22FB0E0DB2FFF
:1052E000BE01082E01C0660F0A94EAF72081262B22
:1052F00034FB442740F950E0BC016F5F7F4FDA0177
:1053000002C0AA0FBB1F6A95E2F72A2B2083B5E4DF
:10531000BA95F1F70000029688309105C9F6549AC3
:105320005C9820EA2A95F1F781E009C04C9BCECF2A
:10533000A5E0AA95F1F70000019731F680E0DF9132
:10534000CF9108954A99A9CFF9CF539A5B988FE3EB
:1053500091E00197F1F700C0000008954C9B15C043
:1053600080E012C085E08A95F1F700002F5F3F4F83
:10537000233781E03807A1F34C9BF4CF285C310937
:1053800081E02937310560F7089530E020E0F4CF5F
:10539000662331F0EFE1F3E03197F1F700C0000050
:1053A00021E137E24C9B33C030E020E090E0A901DE
:1053B0004F5F5F4FBC0102C0759567954A95E2F754
:1053C000AB014170BC01022E02C0759567950A942D
:1053D000E2F760FF25C053985B9A442321F154986B
:1053E0005C9A75E47A95F1F700002E5F3F4F283004
:1053F0003105E9F653985B9A54985C9A81E197E2FB
:105400004C9914C0F0EAFA95F1F781E00895F5E0BF
:10541000FA95F1F700002150310921F680E0089556
:10542000539A5B98DACF549A5C98DBCFE5E0EA9523
:10543000F1F70000019721F7F1CF8CE092E00C9496
:10544000F928809199058111109299050895089580
:1054500030E020E090E0AC01022E02C05595479567
:105460000A94E2F740FF1BC054985C9A45E14A95C4
:10547000F1F7000053985B9A4AE24A95F1F700C0B1
:10548000539A5B982F5F3F4F2830310521F754988E
:105490005C9A8AE68A95F1F700C081E00895549AF3
:1054A0005C98E4CFFC011082DB011C9290E080E06C
:1054B00061E070E021E137E207C0B5E0BA95F1F7AD
:1054C000000021503109F1F04B9BF7CF4C9B09C0F4
:1054D0002081AB01082E01C0440F0A94EAF7242B67
:1054E000208321E137E24B9906C00196883091056F
:1054F00009F781E0089545E04A95F1F70000215051
:10550000310989F780E0089588E192E00C94F92848
:10551000FC01623050F08081853539F4818180331F
:1055200021F481E080939905089580E008958091A9
:105530009B05811110929B05089580E008950895C0
:1055400021E137E24B993AC0549A5C986AE66A9531
:10555000F1F700C030E020E090E0A9014F5F5F4F1D
:10556000BC0102C0759567954A95E2F7AB014170A1
:10557000BC01022E02C0759567950A94E2F760FFA0
:1055800029C053985B9A442341F154985C9A7AE479
:105590007A95F1F700C02E5F3F4F28303105E9F6CC
:1055A00054985C9A53985B9A81E197E24B9B18C0A0
:1055B00045E84A95F1F7000081E0089545E04A95F5
:1055C000F1F700002150310911F480E008954A9963
:1055D000B9CFFBCF539A5B98D6CF549A5C98D7CF6C
:1055E00025E02A95F1F70000019701F7EECF84E25C
:1055F00092E00C94F928FC016330A0F080818D3496
:1056000089F481818D3271F48281873559F48091DA
:105610009A058F5F80939A05833030F081E0809304
:105620009B05089580E0089581E008952F923F92B0
:105630004F925F926F927F928F929F92AF92BF92A2
:10564000CF92DF92EF92FF920F931F93CF93DF934E
:10565000CDB7DEB7CC50D2400FB6F894DEBF0FBE48
:10566000CDBF5C018B011A01C9016115710509F4F7
:105670005BC1FE01319620E032E0DF01A9011D92FD
:1056800041505040E1F7D501A60FB71FCB5FDD4F6A
:10569000B983A883C550D2401597C55FDD4FB98344
:1056A000A883CB50D240CB5FDD4F28813981C550D4
:1056B000D24024503109C95FDD4F39832883C75058
:1056C000D240A101480F591FC75FDD4F598348835E
:1056D000C950D24064307105ECF0D5012D913D9157
:1056E0004D915C9161EB79E787E39EE90E94352E4D
:1056F000CF5FDD4F688379838A839B83C150D2401B
:10570000892F9927AA27BB27880F991FE80FF91F10
:10571000118210824501BFEF8B1A9B0A8101F501AE
:105720007401C95FDD4F28813981C750D2402E15E1
:105730003F0508F04AC0CB5FDD4FE880F980C550D7
:10574000D240EE1AFF0A1E141F04E4F570E060E078
:10575000BFE0EB16F10444F0C7010F976FEF70E064
:105760000E94592E6F5F7F4F6F5F7F4F6E0D7F1DC1
:10577000600F711FC75FDD4F28813981C950D2404A
:105780002617370708F4CEC068013FEFC31AD30AC3
:105790008E2D40E1E416F1040CF08FE08295807FBD
:1057A000D8018C93C7010F974FEFBFE0EB16F104C0
:1057B0000CF056C1A701BF01C6010E94A22E8601AE
:1057C0000E0D1F1D02191309AFC0D7014D905D903A
:1057D0006D907C90A301920161EB79E787E39EE9EC
:1057E0000E94352ECF5FDD4F688379838A839B8348
:1057F000C150D240892F9927AA27BB27880F991F0C
:1058000021E030E02C0F3D1F820F931FDC01CD9073
:10581000DC901197CA0CDB1C97012A193B092D93C8
:105820003C9397012C193D09CF5FDD4F39832883C5
:10583000C150D240EC14FD0481F0C701821B930BD0
:105840008A159B0550F0D6014D915D916D917C912B
:10585000441655066606770621F0BFEFEB1AFB0AE1
:1058600060CFC114D10409F466CFC701049634E0B7
:10587000C30ED11C4C01C55FDD4F48815981CB500F
:10588000D2408417950740F40196D6012D916D0101
:10589000D4013C91321771F36401CE18DF08EE1A7F
:1058A000FF0A3701B0E1EB16F1041CF05FE0652E52
:1058B000712CC60124E1C216D10414F083E190E0FA
:1058C0002C0134E0431A510830E020E04FE0E416A8
:1058D000F1044CF0C7010F976FEF70E00E94592E52
:1058E0009B012F5F3F4F70E060E053E1C516D1048C
:1058F00044F0C60143976FEF70E00E94592E6F5F2E
:105900007F4F2E0D3F1D2D5F3F4F260F371F200F5E
:10591000311FC75FDD4F88819981C950D2408217FE
:105920009307E8F40FEF1FEFC801C45FDD4F0FB618
:10593000F894DEBF0FBECDBFDF91CF911F910F91C5
:10594000FF90EF90DF90CF90BF90AF909F908F909F
:105950007F906F905F904F903F902F90089544E01C
:10596000660C771C4A95E1F76428D8016D928D0189
:10597000C7010F97BFE0EB16F1040CF059C0A70167
:10598000BF01C8010E94A22E0E0D1F1DF801CF5F9E
:10599000DD4F28813981C150D240219331938F014D
:1059A00033E1C316D1046CF043E1C41AD108C80135
:1059B00001962FEFC216D1040CF044C0D801CC924E
:1059C0008C01C95FDD4FE881F981C750D240E815ED
:1059D000F90508F43FC0D4012D913D914D915C91A2
:1059E00061EB79E787E39EE90E94352ECF5FDD4FBB
:1059F000688379838A839B83C150D240892F9927FA
:105A0000AA27BB27880F991FE1E0F0E0EC0FFD1FEC
:105A10008E0F9F1F94012A193B09DC012D933C93A3
:105A2000F4017ECE4FEFD8014C938F5F910989012D
:105A300098012F5F3F4F8F3F9105A4F7D8018C93BA
:105A400089019DCFEFEFD801EC93FFEFCF1AD1087A
:105A50008C01ADCFF4016FCE4C938F5F910969013A
:105A600096012F5F3F4FD6018F3F9105ACF78C9386
:105A70006901A0CE10929D0510929C050895FC012D
:105A8000643090F080818F7D883571F481818F7DC5
:105A90008A3551F482818A3339F483819FE9980FE2
:105AA0009A3120F4833781F080E00895813341F00A
:105AB000833551F08033C1F710929D0581E0089540
:105AC00081E080939D05089581E080939C05089571
:105AD00080919D050895CF93DF93EC01CB01209138
