:100000000C9494060C94B1060C94B1060C94B106B1
:100010000C94B1060C94B1060C94B1060C94B10684
:100020000C94B1060C94B1060C941F0D0C94B106FF
:100030000C94B1060C94B1060C94B1060C94B10664
:100040000C94B1060C94B1060C94B1060C94B10654
:100050000C94B1060C94B1060C94B1060C94B10644
:100060000C94B1060C94B10652656164792E0D0AA8
:10007000004D6F756E74206661696C65640D0A00D1
:100080004641543132204F4B0D0A004D6F756E744E
:100090002046415431322E2E2E0D0A004E6F206420
:1000A00069736B20696E2064726976650D0A00447D
:1000B00072697665204F4B0D0A004E6F206472699D
:1000C0007665210D0A00466C6F70707920696E6943
:1000D000742E2E2E0D0A00436F6D7072657373209F
:1000E0004F4B0D0A00466173746C6F6164204F4B77
:1000F0000D0A00494543206465766963652023380D
:100100000D0A0037344843353935204F4B0D0A006E
:100110005352414D204F4B0D0A000D0A3D3D3D20ED
:1001200036346B6F727070752076312E3020284E09
:10013000616E6F2B5352414D29203D3D3D0D0A000C
:100140000D0A0020455252005B4449534B5D207715
:10015000726974652072633D000D0A0020523D00F3
:1001600020533D0020543D005B4449534B5D2077B4
:1001700072697465204C42413D000D0A00204552D1
:1001800052005B4449534B5D207265616420726389
:100190003D000D0A0020523D0020533D0020543DFB
:1001A000005B4449534B5D2072656164204C4241C1
:1001B0003D003031323334353637383941424344EB
:1001C000454600204641494C210D0A00204F4B0D69
:1001D0000A002072656164203078005B5352414D03
:1001E0005D20746573743A2077726F74652030787F
:1001F000005B5352414D5D20696E69742053504934
:100200002E2E2E0D0A000D0A005B53525D206465F0
:100210006661756C743D3078005B53525D20696E89
:1002200069740D0A005B464C505D207772697465F5
:10023000204F4B0D0A005B464C505D204D464D2033
:100240007772697465204641494C0D0A005B464C43
:10025000505D204D464D2077726974652E2E2E0D0F
:100260000A005B464C505D2077726974653A2073D2
:1002700065656B206661696C65640D0A005B464CC0
:10028000505D207772697465204552523A2077722A
:100290006974652070726F746563746564210D0AFA
:1002A000005B464C505D2077726974652045525260
:1002B0003A2062616420736563746F720D0A000DE9
:1002C0000A0020523D0020533D005B464C505D200B
:1002D000777269746520543D000D0A005B464C50EE
:1002E0005D2072656164204F4B2C206669727374C7
:1002F0002062797465733A20005B464C505D204D56
:10030000464D206465636F6465204641494C0D0A83
:10031000002E2E2E0D0A005B464C505D204D464DA2
:10032000206465636F646520523D005B464C505D00
:10033000204D464D2063617074757265204F4B0DE2
:100340000A000D0A005B464C505D204D464D20636F
:10035000617074757265204641494C2072633D009E
:100360005B464C505D204D464D2063617074757244
:10037000652E2E2E0D0A005B464C505D2072656185
:10038000643A207365656B206661696C65640D0A6B
:10039000000D0A005B464C505D2057503D005B4607
:1003A0004C505D2072656164204552523A20626172
:1003B0006420736563746F720D0A000D0A00205289
:1003C0003D0020533D005B464C505D2072656164EA
:1003D00020543D000D0A005B464C505D207369645B
:1003E000653D000D0A002D3E54005B464C505D20DB
:1003F0007365656B2054005B464C505D20736565EA
:100400006B3A206E6F7420696E697469616C697AE9
:1004100065642C20726563616C6962726174696ED7
:10042000670D0A000D0A00203E3D20005B464C503F
:100430005D207365656B204552523A20747261638A
:100440006B2000202D3E206469736B204E4F54209A
:1004500050524553454E540D0A00202D3E206469EC
:10046000736B2050524553454E540D0A002057508F
:10047000543D005B464C505D206469736B2063689B
:1004800065636B3A2044534B4348473D005B464C01
:10049000505D204552523A2054524B3030206E6FFE
:1004A0007420666F756E64206166746572203835DD
:1004B000207374657073210D0A0020737465707366
:1004C0000D0A005B464C505D2054524B3030206684
:1004D0006F756E6420616674657220005B464C50D7
:1004E0005D20726563616C6962726174653A207344
:1004F00065656B696E6720747261636B20302E2EA8
:100500002E0D0A005B464C505D206D6F746F72209B
:100510004F46460D0A005B464C505D206D6F746F70
:1005200072204F4E20646F6E650D0A005B464C5082
:100530005D206D6F746F72204F4E2C207370696E4A
:100540002D75702E2E2E0D0A000D0A005B464C50A4
:100550005D20696E697420646F6E652C2053523D76
:100560003078000D0A002044534B4348473D00209B
:100570005750543D005B464C505D20696E70757459
:10058000733A2054524B30303D005B464C505D2056
:10059000696E6974204750494F2E2E2E0D0A005B5C
:1005A0004D464D5D20736563746F72207363616E99
:1005B0002074696D656F75740D0A000D0A00206165
:1005C0007420543D005B4D464D5D20666F756E6432
:1005D00020736563746F7220002E2E2E0D0A005B4F
:1005E0004D464D5D207363616E20666F72207365AA
:1005F00063746F7220005B4D464D5D2077726974A5
:1006000065204F4B0D0A000D0A0020523D0020537B
:100610003D005B4D464D5D20777269746520543D09
:1006200000206E6F7420666F756E640D0A005B4D5E
:10063000464D5D206465636F6465204641494C3AD0
:1006400020736563746F7220000D0A00204D4154C1
:100650004348210D0A00204E3D0020523D0020530A
:100660003D005B4D464D5D204944414D3A20543D8F
:10067000005B4D464D5D206465636F6465204F4BA4
:100680002C203531322062797465730D0A00207098
:1006900061636B730D0A002C207363616E20005B35
:1006A0004D464D5D206465636F64652073656374BA
:1006B0006F7220005B4D464D5D20636170747572F2
:1006C000652054494D454F5554210D0A006D730D59
:1006D0000A00207061636B732C20005B4D464D5DFA
:1006E00020636170747572653A20005B4D464D5D04
:1006F00020636170747572652073746172740D0A81
:10070000000D0A00206D6F643D00207772697465EA
:100710003D005B4641545D20636C6F73653A207009
:100720006F733D000D0A002073697A653D005B46DA
:1007300041545D206F70656E65643A20636C75731B
:100740007465723D005B4641545D2066696C6520AE
:100750006E6F7420666F756E640D0A00270D0A00B7
:100760005B4641545D206F70656E5F726561642009
:1007700027005B4641545D206D6F756E74204F4BB2
:100780000D0A000D0A005B4641545D20464154317C
:100790002072656164204641494C20617420736574
:1007A00063746F72200020736563746F7273292EF7
:1007B0002E2E0D0A005B4641545D2072656164690E
:1007C0006E6720464154312028005B4641545D202D
:1007D0006E6F20626F6F74207369672C206465668A
:1007E00061756C74206C6162656C0D0A000D0A0005
:1007F000272073657269616C3D3078005B46415417
:100800005D206C6162656C3D27005B4641545D2054
:100810004552523A207370633D3D300D0A005B46ED
:1008200041545D204552523A206E666174213D323A
:100830000D0A005B4641545D204552523A206270D9
:1008400073213D3531320D0A000D0A0020736967AE
:100850003D30780020726F6F743D002068656164E0
:10086000733D00207370743D005B4641545D20422F
:1008700050423A207370663D000D0A00206D656499
:1008800069613D30780020746F743D00206E6661B0
:10089000743D00207370633D005B4641545D20420F
:1008A00050423A206270733D005B4641545D206DBA
:1008B0006F756E743A20626F6F7420736563746F26
:1008C000722072656164204641494C0D0A005B4606
:1008D00041545D206D6F756E743A20726561646974
:1008E0006E6720626F6F7420736563746F722E2E53
:1008F0002E0D0A005B4641545D20616C7265616497
:1009000079206D6F756E7465640D0A005B4945430F
:100910005D206C697374656E20454F490D0A002790
:100920000D0A005B4945435D2066696C656E616D2B
:10093000653D27005B4945435D206C697374656EB6
:100940002072656376206661696C0D0A005B49451B
:10095000435D2041544E20647572696E67206C6956
:100960007374656E0D0A000D0A005B4945435D20F6
:100970006C697374656E696E6720666F722064615E
:1009800074612053413D005B4945435D20666173BE
:10099000746C6F6164206163746976650D0A005B35
:1009A0004945435D2041544E2072656C6561736515
:1009B000642C2064657465637420666173746C6F65
:1009C00061640D0A00203F3F0D0A000D0A0020431C
:1009D0004C4F53452053413D000D0A00204F5045D8
:1009E0004E2053413D005B4945435D202D3E205440
:1009F000414C4B45520D0A000D0A002054414C4B0E
:100A00002023005B4945435D202D3E204C49535433
:100A1000454E45520D0A000D0A00204C49535445DD
:100A20004E20230020554E54414C4B0D0A002055BA
:100A30004E4C495354454E0D0A005B4945435D20D9
:100A4000636D643D3078005B4945435D2041544E01
:100A500020627974652072656376206661696C0D29
:100A60000A005B4945435D2041544E0D0A005B4935
:100A700045435D2074616C6B3A206E6F2064617435
:100A8000612C2072656C656173650D0A005B4945D8
:100A9000435D2074616C6B3A20454F492C20646F94
:100AA0006E650D0A005B4945435D2074616C6B3ACD
:100AB0002073656E64206661696C65640D0A005B75
:100AC0004945435D207265696E697420646F6E6587
:100AD0002C2072656164790D0A005B4945435D20F5
:100AE0006D6F756E74206661696C65640D0A005BDC
:100AF0004945435D204641543132204F4B0D0A0099
:100B00005B4945435D206D6F756E742046415431DD
:100B1000322E2E2E0D0A005B4945435D2072656919
:100B20006E697420646F6E6520286E6F206469732F
:100B30006B290D0A005B4945435D206E6F20646997
:100B4000736B20696E2064726976650D0A005B49DB
:100B500045435D206472697665204F4B0D0A005B4A
:100B60004945435D207265696E697420646F6E65E6
:100B700020286E6F206472697665290D0A005B4932
:100B800045435D206E6F206472697665210D0A0011
:100B90005B4945435D2072657365742072656C65C1
:100BA000617365642C207265696E697420666C6F70
:100BB0007070790D0A005B4945435D207761697467
:100BC000696E6720666F7220726573657420726546
:100BD0006C656173652E2E2E0D0A005B4945435DE1
:100BE000202A2A2A20425553205245534554202A70
:100BF0002A2A0D0A000D0A00205253543D002044B9
:100C00004154413D0020434C4B3D005B4945435D11
:100C1000206275733A2041544E3D000D0A005B4935
:100C200045435D20696E6974206465762023002742
:100C30000D0A005B444F535D20636D643A2027002A
:100C40000D0A005B444F535D20636C6F7365205346
:100C5000413D005B444F535D206F70656E204F4BEC
:100C60000D0A000D0A005B444F535D205341564569
:100C700020637265617465206661696C65642072C9
:100C8000633D005B444F535D20534156450D0A00C0
:100C90000D0A005B444F535D204C4F414420666178
:100CA000696C65642072633D005B444F535D204C6A
:100CB0004F41440D0A00270D0A00272E27005B44F0
:100CC0004F535D207061727365643A2027000D0AEE
:100CD000005B444F535D20646972206C656E3D007B
:100CE0005B444F535D20646972206C697374696E54
:100CF000670D0A005B444F535D204452495645201E
:100D00004E4F542052454144590D0A00270D0A0008
:100D10002066696C653D27005B444F535D206F7012
:100D2000656E2053413D000011241FBECFEFD8E077
:100D3000DEBFCDBF12E0A0E0B1E0EEE5FCE502C011
:100D400005900D92A033B107D9F725E0A0E3B2E0FA
:100D500001C01D92A639B207E1F70E9421080C9448
:100D6000262E0C9400001092C5008FEC8093C400D6
:100D7000E0ECF0E080818260808388E08093C100B5
:100D800086E08093C20008959091C00095FFFCCF4B
:100D90008093C6000895CF93DF93EC018991811170
:100DA00003C0DF91CF9108950E94C406F7CFCF937F
:100DB000DF93EC01FE0184912196811103C0DF9144
:100DC000CF9108950E94C406F5CFCF93C82FE82F86
:100DD000E295EF70F0E0EE54FE4F84910E94C4065D
:100DE000CF70EC2FF0E0EE54FE4F8491CF910C9435
:100DF000C406CF93C82F892F0E94E5068C2FCF9170
:100E00000C94E506CF92DF92EF92FF920F931F931F
:100E1000CF93DF9300D000D000D0CDB7DEB79C01D8
:100E2000892B89F480E326960FB6F894DEBF0FBEB7
:100E3000CDBFDF91CF911F910F91FF90EF90DF9089
:100E4000CF900C94C406CE0101967C01FC0110E009
:100E500000E08AE0C82ED12C0F5F1F4FC901B601F8
:100E60000E94CB2A805D8193C9019B010A97A0F75C
:100E70000E0D1F1DF80182918F010E94C4060E15F0
:100E80001F05C1F726960FB6F894DEBF0FBECDBF83
:100E9000DF91CF911F910F91FF90EF90DF90CF9056
:100EA0000895BF92CF92DF92EF92FF920F931F931C
:100EB000CF93DF93182FD92FF62E072F64E270E01F
:100EC0000E94CB2A6B0162E170E00E94CB2AE62EE1
:100ED000B72EC1E0C80F81EA91E00E94D706812FAA
:100EE0009D2F0E9402078DE991E00E94D706C6015E
:100EF00099270E94020789E991E00E94D7068E2D6A
:100F00009B2D0E94020785E991E00E94D7068C2F55
:100F100090E00E94020782E991E00E94D7062F2DFF
:100F2000302F4C2F6E2D8C2D0E945F0BEC0182E830
:100F300091E00E94D706CE01D7FF04C088279927E9
:100F40008C1B9D0B0E940207D7FF04C08DE791E028
:100F50000E94D7068AE791E00E94D706CE01DF9172
:100F6000CF911F910F91FF90EF90DF90CF90BF90A6
:100F70000895BF92CF92DF92EF92FF920F931F934B
:100F8000CF93DF93182FD92FF62E072F64E270E04E
:100F90000E94CB2A6B0162E170E00E94CB2AE62E10
:100FA000B72EC1E0C80F88E691E00E94D706812FD6
:100FB0009D2F0E94020784E691E00E94D706C60199
:100FC00099270E94020780E691E00E94D7068E2DA5
:100FD0009B2D0E9402078CE591E00E94D7068C2F82
:100FE00090E00E94020789E591E00E94D7062F2D2C
:100FF000302F4C2F6E2D8C2D0E94170CEC0188E4A5
:1010000091E00E94D706CE01D7FF04C08827992718
:101010008C1B9D0B0E940207D7FF04C083E491E064
:101020000E94D70680E491E00E94D706CE01DF91AE
:10103000CF911F910F91FF90EF90DF90CF90BF90D5
:101040000895F8940E94B3068AE191E00E94D706C1
:101050000E947A2A0E943D0980E191E00E94D70611
:101060000E94B10983E091E00E94D7060E94100D12
:1010700083EF90E00E94D70688E00E94CA1B0E947E
:10108000CB1E0E9478250E94A3260E940A270E9458
:101090007D2785EE90E00E94D7060E94C02987ED4B
:1010A00090E00E94D70678940E94000A86EC90E0B7
:1010B0000E94D7060E944A0A0E94780A892B81F072
:1010C0008AEB90E00E94D70620E040E061E071E00A
:1010D0008AE40E94A31B85E090E00E94802A22C03F
:1010E0008FEA90E00E94D7060E94AB0A81110EC0E1
:1010F0008CE990E00E94D70620E040E061E071E0DA
:101100008AE40E94A31B86E090E0E7CF8BE890E0A2
:101110000E94D7060E941E12892B89F480E890E075
:101120000E94D7060E946A0A88E690E00E94D706CD
:1011300090E080E00E94802A0E94401CFDCF81E761
:1011400090E0D8CF8EBD0DB407FEFDCF8EB50895CB
:10115000CF93C62F872F0E94A2088C2FCF910C947B
:10116000A208CF92DF92EF92FF920F931F93CF933B
:10117000DF936B01D82FC92F7A0189012A9883E068
:101180000E94A208B6018D2F9C2F0E94A808E7019B
:101190000E0D1F1DC017D10751F42A9ADF91CF9170
:1011A0001F910F91FF90EF90DF90CF90089580E016
:1011B0000E94A2088993EECFCF92DF92EF92FF9226
:1011C0000F931F93CF93DF936B01D82FC92F7A0111
:1011D00089012A9882E00E94A208B6018D2F9C2FD7
:1011E0000E94A808E7010E0D1F1DC017D10751F47A
:1011F0002A9ADF91CF911F910F91FF90EF90DF908E
:10120000CF90089589910E94A208EFCF0F931F936A
:10121000CF93DF938B01D82FC92F2A9883E00E94A8
:10122000A208B8018D2F9C2F0E94A80880E00E9480
:10123000A2082A9ADF91CF911F910F910895FF92F2
:101240000F931F93CF93DF93F62E072F182FD92FCD
:10125000C42F2A9882E00E94A2086F2D702F812F40
:101260009D2F0E94A8088C2F0E94A2082A9ADF9125
:10127000CF911F910F91FF900895CF9381EF91E04F
:101280000E94D70684B18C6284B924982A9A80E59A
:101290008CBD8DB581608DBD2A9881E00E94A20829
:1012A00080E40E94A2082A9A45EA60E070E0CB013F
:1012B0000E941F0960E070E0CB010E940609C82F60
:1012C0008BED91E00E94D70685EA0E94E50682ED4B
:1012D00091E00E94D7068C2F0E94E5068CEC91E0ED
:1012E000C53A11F083EC91E0CF910C94D7060F939F
:1012F0001F93CF93DF938B01D82FC92F2A9882E0B9
:101300000E94A208B8018D2F9C2FDF91CF911F91D1
:101310000F910C94A8082A9A08950F931F93CF93C6
:10132000DF938B01D82FC92F2A9883E00E94A2084F
:10133000B8018D2F9C2FDF91CF911F910F910C94AD
:10134000A8081EBC0DB407FEFDCF8EB508952A9ADD
:10135000809300018EBD0DB407FEFDCF5E9A5E98AE
:10136000089589E192E00E94D706569A5E988FEF21
:10137000809300010E94A70989E092E00E94D706AD
:10138000809100010E94E50686E092E00C94D70669
:1013900021E030E001C0220F8A95EAF72095809184
:1013A00000018223809300010C94A70921E030E022
:1013B00001C0220F8A95EAF780910001822B809369
:1013C00000010C94A7098823B9F085E00E94C809A0
:1013D00085E38A95F1F7000086E00E94C80990E154
:1013E0009A95F1F786E00E94D6098FED9EE201976B
:1013F000F1F700C00000089585E00E94D609E8CF0B
:10140000CF938AE895E00E94D70687B1887F87B995
:1014100088B1876088B92098579A5F9A219A85EF9A
:101420000E94A709C6B185E795E00E94D7068CE423
:10143000C0FD88E40E94C4068FE695E00E94D706AE
:101440008CE4C1FD88E40E94C40686E695E00E9413
:10145000D7068CE4C2FD88E40E94C40683E695E0CA
:101460000E94D7061092300210923102109232027E
:101470001092330210923402109235028CE495E0FF
:101480000E94D70685EF0E94E50689E495E0CF919A
:101490000C94D7068091320281111BC08CE295E03A
:1014A0000E94D70682E00E94C80984E00E94C80911
:1014B0002FEF89E698E1215080409040E1F700C08D
:1014C000000081E080933202299A86E195E00C9435
:1014D000D706089584E095E00E94D70682E00E9436
:1014E000D60984E00E94D609109232022998089504
:1014F000CF93DF938CED94E00E94D706D0E0C0E05C
:1015000030991BC01092300281E0809335028FE544
:101510009AEE0197F1F700C0000083EC94E00E947E
:10152000D706CE010E9402078AEB94E00E94D706FC
:1015300090E080E0DF91CF91089580E00E94E30980
:101540002196C535D105E1F68DE894E00E94D706D5
:101550008FEF9FEFEFCFCF93DF9386B1D82FD4706B
:1015600082FBCC27C0F9C093330286B18695817087
:1015700091E089278093340283E794E00E94D706A4
:101580008CE4D11188E40E94C4068DE694E00E94A8
:10159000D7068091340281110FC08EE40E94C406E8
:1015A0008AE594E0D11102C083E494E00E94D7065A
:1015B0008C2FDF91CF91089589E5F0CFCF93C82F7D
:1015C0008035C0F08CE294E00E94D7068C2F90E02A
:1015D0000E94020787E294E00E94D70680E590E02F
:1015E0000E94020784E294E00E94D7068EEF9FEFEC
:1015F000CF91089580913502882331F18091300296
:101600008C17A9F08AEE93E00E94D70680913002F1
:1016100090E00E94020786EE93E00E94D7068C2F8E
:1016200090E00E94020783EE93E00E94D70680912B
:101630003002C81312C08FE59AEE0197F1F700C08F
:10164000000090E080E0D4CF87EF93E00E94D706BF
:101650000E94780A009791F2CBCF8C1748F481E072
:101660000E94E309809130028F5F80933002DFCFC8
:1016700080E00E94E309809130028150F6CFCF9341
:10168000C82F87ED93E00E94D7068C2F90E00E9430
:10169000020784ED93E00E94D70680E0CC2361F03E
:1016A0000E94C809C09331028FE891E00197F1F7D9
:1016B00000C00000CF9108950E94D609F3CFCF92C9
:1016C000DF92EF92FF920F931F93CF93DF93C82F78
:1016D000E62EF42E890186EC93E00E94D7068C2F2B
:1016E00090E00E94020782EC93E00E94D7068E2DC4
:1016F00090E00E9402078EEB93E00E94D706CF2C69
:10170000D12CC6010E9402078BEB93E00E94D70602
:101710008FEF8F0D823180F08EE993E00E94D70623
:10172000C8EFDFEFCE01DF91CF911F910F91FF90B6
:10173000EF90DF90CF9008950E944A0A96B1969557
:10174000917081E098279093340284E993E00E949D
:10175000D7068091340281112DC08EE40E94C40608
:1017600081E993E00E94D7068C2F0E94DE0AEC01EB
:1017700087E793E0209709F057C08E2D0E943F0B1A
:1017800080E693E00E94D7060E949C0DEC01892B15
:1017900099F085E493E00E94D706882799278C1B4F
:1017A0009D0B0E94020782E493E00E94D706CDEFD2
:1017B000DFEFB8CF89E5D2CF8BE293E00E94D70666
:1017C00087E193E00E94D706C6010E94020781E1EB
:1017D00093E00E94D706B8018F2D0E94050EEC0100
:1017E000892B19F089EF92E0E0CF8CED92E00E9416
:1017F000D706F80180810E94E50680E20E94C406B7
:10180000F80181810E94E50680E20E94C406F80189
:1018100082810E94E50680E20E94C406F80183816D
:101820000E94E50689ED92E00E94D7067BCFBF9229
:10183000CF92DF92EF92FF920F931F93CF93DF939C
:1018400000D000D000D0CDB7DEB7D82EE62EF42ED3
:10185000B22EC32E8AEC92E00E94D7068D2D90E026
:101860000E94020786EC92E00E94D7068E2D90E03F
:101870000E94020782EC92E00E94D7068F2D90E032
:101880000E9402078FEB92E00E94D7068FEF8F0D28
:101890008231B8F081EA92E00E94D70608EF1FEF8C
:1018A000C80126960FB6F894DEBF0FBECDBFDF91FC
:1018B000CF911F910F91FF90EF90DF90CF90BF904D
:1018C00008950E944A0A319907C08DE792E00E946C
:1018D000D7060BEF1FEFE4CF8D2D0E94DE0A8C019F
:1018E00082E692E00115110509F58E2D0E943F0B4D
:1018F0001E821D82D982EA82FB8282E08C838DE483
:1019000092E00E94D7066B2D7C2DCE0101960E949D
:101910007D0F8C0185E292E00115110539F086E317
:1019200092E00E94D7060CEF1FEFBACF0E94D706B5
:10193000B7CFB19BFECF82E086BB809188009091AB
:1019400089008096909389008093880008955F981D
:1019500000C000C000005F9A08950F931F93CF93BB
:10196000DF93CFE0D0E001E010E00E94990CC801C5
:101970000C2E02C0880F991F0A94E2F7897894749C
:10198000892B11F00E94A70C219778F781E08093B2
:101990003602DF91CF911F910F910895EF92FF9240
:1019A0000F931F93CF93DF9307E010E0E82EF12C05
:1019B000E701002E02C0D595C7950A94E2F7C170E1
:1019C0000E94990C809136028C2B11F40E94A70C76
:1019D0000E94990CC1110E94A70CC09336020150BD
:1019E000110930F7DF91CF911F910F91FF90EF9088
:1019F0000895FC01680F791FCA01E617F70709F47B
:101A000008952191922728E0AC01880F991F57FF74
:101A100004C031E2832730E193272150A9F7EDCFAD
:101A200010928000E1E8F0E081E0808380818F7B8C
:101A30008083EFE6F0E080818F7D808308950F92B0
:101A40000FB60F921F9211242F933F938F939F9362
:101A5000AF93BF93809186009091870020913E02C2
:101A600030913F02821B930B2091860030918700BA
:101A700030933F0220933E028035910508F456C012
:101A80008037910508F454C0803A910508F452C09B
:101A900083E02091390294E0299F90011124822B48
:101AA00080933902809138028F5F80933802809151
:101AB00038028430D8F0809139028EBD0DB407FE13
:101AC000FDCF80913A0290913B02A0913C02B091EF
:101AD0003D020196A11DB11D80933A0290933B02F5
:101AE000A0933C02B0933D021092380280913A02DA
:101AF00090913B02A0913C02B0913D02803C90430A
:101B0000A105B10540F080916F008F7D80936F003B
:101B100081E080933702BF91AF919F918F913F9168
:101B20002F911F900F900FBE0F90189580E0B1CFAE
:101B300081E0AFCF82E0ADCFCF93DF938BEE96E025
:101B40000E94D70610923A0210923B0210923C0279
:101B500010923D0210923902109238021092370210
:101B600060E070E0CB010E947709B59A8091860011
:101B70009091870090933F0280933E0280916F0086
:101B8000806280936F007894D0E0C0E0809137024B
:101B9000811104C0C43F91E0D90761F580916F00C5
:101BA0008F7D80936F000E948B098BED96E00E94E1
:101BB000D70680913A0290913B02A0913C02B091ED
:101BC0003D020E94020782ED96E00E94D706CE01F8
:101BD0000E9402078DEC96E00E94D706C43FD140D8
:101BE00089F484EB96E00E94D70687EF9FEFDF91A0
:101BF000CF9108958FE99FE00197F1F700C00000B1
:101C00002196C4CF90E080E0F2CF2F923F924F9286
:101C10005F926F927F928F929F92AF92BF92CF927C
:101C2000DF92EF92FF920F931F93CF93DF93CDB785
:101C3000DEB760970FB6F894DEBF0FBECDBF8E87BC
:101C40006C877D878FE996E00E94D7062E85822ECD
:101C5000912CC4010E94020787E996E00E94D706F2
:101C600080913A0290913B02A0913C02B0913D02DA
:101C70000E9402078EE896E00E94D70680913A0201
:101C800090913B02A0913C02B0913D0260E070E077
:101C9000CB010E948D09412C512C32011986D12C87
:101CA000C12C1B861A861886312C212C00E010E0EE
:101CB0001F82F12CE12C80913A0290913B02A0917D
:101CC0003C02B0913D02481659066A067B0680F038
:101CD0000E948B098EE296E00E94D706C4010E9402
:101CE000020781E296E00E94D70688EF9FEF79C055
:101CF0000E94A10936E0A32EB12C282F30E0388BAA
:101D00002F878F8598890A2C02C0959587950A940C
:101D1000E2F783708130F9F0823031F18111E5C052
:101D2000EE0CFF1CEE0CFF1C6894E0F882E03F8193
:101D3000380F3F832F81223000F532E0A31AB1081B
:101D40008EEFA8168FEFB806E1F69FEF491A590AF1
:101D5000690A790AB0CF93E0EE0CFF1C9A95E1F77F
:101D60006894E0F883E0E3CF84E0EE0CFF1C8A95F2
:101D7000E1F76894E0F884E0DACF8F8182508F83B6
:101D8000C7010F8002C0969587950A94E2F781708B
:101D9000110F182B2A853B852F5F3F4F3B872A87E2
:101DA000C90187709927892B29F601110BC0113AB7
:101DB00009F07DC0239401E032E0321508F000E024
:101DC00010E0B8CF88858823A1F1C11492E0D9062C
:101DD00008F181E796E00E94D7060E948B0990E007
:101DE00080E060960FB6F894DEBF0FBECDBFDF91E6
:101DF000CF911F910F91FF90EF90DF90CF90BF9008
:101E0000AF909F908F907F906F905F904F903F909A
:101E10002F900895C6010196EC85FD85EC0DFD1D02
:101E200010832FEFC21621E0D20699F26C010885CB
:101E3000C7CF332009F442C0C6010196E1E0F0E0CB
:101E4000EC0FFD1FEC0DFD1D10836C01032D04979D
:101E500008F4B6CF82E696E00E94D706898190E02A
:101E60000E9402078EE596E00E94D7068A8190E0E4
:101E70000E9402078AE596E00E94D7061B81812F07
:101E800090E00E94020786E596E00E94D7068C81CA
:101E900090E00E9402073E8513130BC08CE496E08D
:101EA0000E94D7063986D12CC12C312C00E0212C80
:101EB00087CF89E496E00E94D706F5CF1E3F51F008
:101EC0001B3F69F48985882361F0D12CC12C888758
:101ED000082F76CFD12CC12C3886302E71CF388682
:101EE000E5CF99859887392EE1CF1886312C212CA2
:101EF00000E01F82F12CE12C20CF7F928F929F92E5
:101F0000AF92BF92CF92DF92EF92FF920F931F9307
:101F1000CF93DF9300D000D00F92CDB7DEB78C0106
:101F2000862E772E82E196E00E94D706F801808106
:101F300090E00E9402078EE096E00E94D706F8012A
:101F4000818190E00E9402078AE096E00E94D70615
:101F5000F801828190E00E94020787E096E00E94EB
:101F6000D706F801A2808FED95E00E94D7060A2DD2
:101F700010E0C8010E94020789ED95E00E94D70693
:101F8000809186009091870090933F0280933E025B
:101F9000B0E8CB2EB8E3DB2EEE24E394F12C60E026
:101FA00070E030E0B12C40E020E050E090E080E0D4
:101FB000E0E29E2E96BAE1E5F3ECB6B3AB2FA07249
:101FC000B5FF41C0E0918600F0918700A0913E02EC
:101FD000B0913F02EA1BFB0BA0918600B0918700F5
:101FE000B0933F02A0933E02E035F10598F5880FCB
:101FF000991F880F991F8160E2E05E0FAB2D523070
:1020000008F03FC0E1E0CE1AD108E108F108C9F4B8
:102010008FE995E00E94D70687EF9FEF0F900F9012
:102020000F900F900F90DF91CF911F910F91FF9024
:10203000EF90DF90CF90BF90AF909F908F907F9068
:102040000895BA2EB7CF319709F0B7CF50E070E0BE
:1020500030E0D8CFE037F10560F0E03AF10508F064
:10206000D8C0F4E0880F991FFA95E1F78160E4E0A9
:10207000C4CFE3E0880F991FEA95E1F78160E3E0C0
:10208000BCCF5250FC01052E02C0F695E7950A948C
:10209000E2F7E170220F2E2B4F5F483008F4AFCFEC
:1020A00031110BC0213A09F0A9C0AF5F31E0A33074
:1020B00008F430E040E020E0A2CF772309F49BC091
:1020C00031E0360FE1E0F0E0EC0FFD1FE60FF11D0F
:1020D0002083343008F494C02B81A21294C085EC84
:1020E00095E00E94D706C8010E9402078EEB95E09A
:1020F0000E94D706898190E00E9402078BEB95E051
:102100000E94D7068FEF9BE00197F1F700C0000017
:1021100087E00E94C809F8941092360280918400EA
:10212000909185008096909389008093880082E04A
:1021300086BB1CE080E00E94CE0C1150D9F70E94B3
:10214000AD0C0E94AD0C0E94AD0C8BEF0E94CE0C2A
:1021500081EA8D834FEF5FEF61E070E0CE0105967D
:102160000E94F90CAC0161E070E0CE0105960E947E
:10217000F90CAC0161E070E0CE0105960E94F90C0B
:10218000AC018BEF898361E070E0CE0101960E9483
:10219000F90C182F092FE82CF72C6701FEEFDF1A36
:1021A00057018FEFE81AF80AF50180810E94CE0CE2
:1021B000412F502F61E070E0C5010E94F90C182FEB
:1021C000092FCE14DF0461F7892F0E94CE0C812FD6
:1021D0000E94CE0C16E38EE40E94CE0C1150D9F76B
:1021E000789487E00E94D60986EF95E00E94D70692
:1021F00090E080E013CF2E3F49F030E0A0E05ACFCE
:10220000632F372F57CF632F70E0F7CF732F60E026
:1022100051CF70E030E0A0E050E0F4CE0F931F9378
:10222000CF93DF9300D000D000D0CDB7DEB78C01C4
:1022300080914004882391F1C80196958795800F7D
:10224000911FB0E0A0E09C01AD0120533F4C4F4FE7
:102250005F4F2B833C834D835E8322E030E0AE01F1
:102260004F5F5F4F6B817C818D819E810E94B108A1
:1022700089819A8100FF10C024E0969587952A9560
:10228000E1F726960FB6F894DEBF0FBECDBFDF9103
:10229000CF911F910F9108959F70F3CF90E080E050
:1022A000F0CFCF93DF93C2E0D0E0CE010E940E11B9
:1022B000892B21F4CE01DF91CF9108952196C1326F
:1022C0008BE0D80791F78FEF9FEFF5CFEF92FF925A
:1022D0000F931F93CF93DF9300D000D000D0CDB7E2
:1022E000DEB77C018B01809140048823C9F1C701CE
:1022F000969587958E0D9F1DB0E0A0E09C01AD01E5
:1023000020533F4C4F4F5F4F2B833C834D835E8365
:1023100022E030E0AE014F5F5F4F6B817C818D81A9
:102320009E810E94B10889819A81E0FE26C08F704B
:10233000992724E0000F111F2A95E1F7082B192B8C
:102340001A83098322E030E0AE014F5F5F4F6B815B
:102350007C818D819E810E94DC0881E08093410414
:1023600026960FB6F894DEBF0FBECDBFDF91CF919A
:102370001F910F91FF90EF9008958827907F1F7015
:10238000DDCFCF93DF9300D000D000D0CDB7DEB744
:1023900080914004882309F44EC080914104882331
:1023A00009F449C021E030E03E832D8380ED90E3C5
:1023B000A0E0B0E089839A83AB83BC8320E032E065
:1023C00040E452E069817A818B819C810E94B1084E
:1023D00060E472E08D819E810E94B907892B59F0DB
:1023E0008FEF9FEF26960FB6F894DEBF0FBECDBFDE
:1023F000DF91CF91089560E472E08D819E8109960E
:102400000E94B907009761F729813A814B815C816D
:102410003E5F4F4F5F4F29833A834B835C834D81EF
:102420005E814F5F5F4F5E834D834A30510531F6C9
:1024300010924104D7CF90E080E0D4CFFF920F9369
:102440001F93CF93DF9300D000D000D0CDB7DEB77D
:10245000809140048823A1F084EF98E00E94D70681
:102460001E821D828D819E8126960FB6F894DEBF56
:102470000FBECDBFDF91CF911F910F91FF900895B7
:102480008EEC98E00E94D70660E472E090E080E075
:102490000E945107892B39F089EA98E00E94D706FB
:1024A0008FEF9FEF73C089E998E00E94D706809173
:1024B0004B0290914C020E94020783E998E00E942F
:1024C000D70680914D0290E00E9402078CE898E0C8
:1024D0000E94D7068091500290E00E94020786E891
:1024E00098E00E94D70680915302909154020E9476
:1024F00002078CE798E00E94D706809155020E945F
:10250000E50689E798E00E94D70689E698E00E94F0
:10251000D70680915602909157020E94020783E6E7
:1025200098E00E94D70680915802909159020E942B
:1025300002078BE598E00E94D70680915A0290919D
:102540005B020E94020784E598E00E94D706809112
:102550005102909152020E9402078CE498E00E947E
:10256000D706809166020E94E50689E498E00E9401
:10257000D70680914B0290914C028115924049F010
:1025800083E398E00E94D70688EF9FEF9E838D83B8
:1025900069CF80915002823049F08EE198E00E942C
:1025A000D706A8EFBFEFBE83AD835CCF80914D020D
:1025B000811103C08AE098E0E5CF809166028932FC
:1025C00009F066C08091670290916802A09169024B
:1025D000B0916A028093420490934304A093440410
:1025E000B09345048BE0EBE6F2E0A6E4B4E00190A2
:1025F0000D928A95E1F7109251048CEF97E00E94BA
:10260000D70686E494E00E94CB0680EF97E00E9414
:10261000D70680914404909145040E94F906809168
:102620004204909143040E94F9068DEE97E00E94C7
:10263000D70685EB97E00E94D70689E090E00E94DC
:10264000020786EA97E00E94D70680ED90E3A0E0BB
:10265000B0E089839A83AB83BC8301E010E0FF2460
:10266000FA94F00E60E472E0C8010E9451078D8375
:102670009E83AD81BE81AB2B09F186E897E00E9475
:10268000D7068F2D90E00E94020783E897E006CFDF
:102690001092420410924304109244041092450494
:1026A0008BE0E1E1F1E0A6E4B4E001900D928A95BF
:1026B000E1F7109251048AEC97E0B9CF20E032E0C4
:1026C00040E452E069817A818B819C810E94DC0820
:1026D0000F5F1F4F89819A81AB81BC819E5FAF4F95
:1026E000BF4F89839A83AB83BC830A30110509F0FD
:1026F000B6CF81E0809340041092410482E797E0D6
:102700000E94D706AFCE80914004882321F00E941A
:10271000C111109240040895809140040895AF9231
:10272000BF92CF92DF92EF92FF920F931F93CF93BE
:10273000DF93D82EC92EB62EA72E7A0180914004A1
:102740002EEF3FEF882391F103E110E060E472E0A7
:10275000C8010E945107892B09F042C0C0E4D2E0B1
:1027600088818823D1F1853E69F18B8583FD2AC05C
:1027700048E050E06D2D7C2DCE010E941B2B892B53
:1027800009F543E050E06B2D7A2DCE0108960E94AA
:102790001B2B9C01892BB1F4E114F10439F080E288
:1027A000FE01D70101900D928A95E1F7C901DF91F1
:1027B000CF911F910F91FF90EF90DF90CF90BF903E
:1027C000AF900895A09684E0C034D80749F60F5F13
:1027D0001F4F0132110509F0B9CF2DEF3FEFE6CFC2
:1027E0002FEF3FEFE3CFEF92FF920F931F93CF9323
:1027F000DF938C01F62EE72E80914004811116C0E4
:102800008EEF9FEFDF91CF911F910F91FF90EF908F
:102810000895253E59F023852F3041F020E2AF2D59
:10282000BE2D01900D922A95E1F7ECCFF801808141
:102830009181803E910510F5EC01CF70DD2725E0F8
:10284000CC0FDD1F2A95E1F734E0969587953A95F0
:10285000E1F760E472E043960E945107009789F423
:10286000FE01E05CFD4FD8012D913C9111972F5F47
:102870003F4F2D933C9320812111CBCF8DEF9FEFC4
:10288000C1CF8FEF9FEFBECF8F929F92AF92BF923B
:10289000CF92DF92EF92FF920F931F93CF93DF932C
:1028A000CDB7DEB7A0970FB6F894DEBF0FBECDBF91
:1028B0007C016B018A0180E697E00E94D7065701F0
:1028C000470188E0880E911CF50181915F018032FB
:1028D00029F00E94C406A814B904B1F78EE20E9440
:1028E000C40656014601A3E08A0E911CD5018D91C4
:1028F0005D01803229F00E94C406A814B904B1F722
:102900008CE597E00E94D706AE014F5F5F4FB6019E
:10291000C7010E948F137C01892BC1F085E497E0E9
:102920000E94D706C701A0960FB6F894DEBF0FBE6F
:10293000CDBFDF91CF911F910F91FF90EF90DF906E
:10294000CF90BF90AF909F908F900895F8013D96E3
:1029500086E0DF011D928A95E9F781E0F801808326
:102960008B8D9C8D92838183948383838D8D9E8DAB
:10297000AF8DB8A185839683A783B0871186128611
:1029800013861486118A8EE297E00E94D7068B8DFB
:102990009C8D0E94020787E297E00E94D7068D8DEA
:1029A0009E8D0E94020784E297E0BACF6F927F92D9
:1029B0008F929F92AF92BF92CF92DF92EF92FF924F
:1029C0000F931F93CF93DF93EC013B016A01888142
:1029D000882309F488C08989811185C080914004C9
:1029E00081117BC08EEF9FEF69C08D819E814985EB
:1029F0005A8595012E193F09841B950B2817390715
:102A000008F4C9014601801A910A8815990508F44D
:102A10004C01B701605C7D4FA401C301800F911F81
:102A20000E94282B080D191D89859A85AB85BC85C8
:102A3000880D991DA11DB11D89879A87AB87BC8719
:102A4000AC01BD01517066277727452B462B472BDC
:102A5000A1F44D815E816F81788584179507A60763
:102A6000B70758F48B819C810E940E119C01283F6E
:102A70008FE0380710F53C832B830C151D05E8F417
:102A800089859A85AB85BC854D815E816F8178850E
:102A900084179507A607B70780F47C0121E0F2228E
:102AA0008B819C8160E472E04F960E945107892BD4
:102AB00009F49BCF01151105C1F0C801DF91CF9139
:102AC0001F910F91FF90EF90DF90CF90BF90AF904C
:102AD0009F908F907F906F90089510E000E0A12C60
:102AE00082E0B82ECACF89EF7ECF8FEF7CCF3F92A6
:102AF0004F925F926F927F928F929F92AF92BF920E
:102B0000CF92DF92EF92FF920F931F93CF93DF93B9
:102B10008C012B017A01FC018081882309F490C08B
:102B20008189882309F48CC08091400481117CC084
:102B30008EEF9FEF67C0F301C50111920197E9F78E
:102B400040C0CC0DDD1DF80181859285A385B4853B
:102B50008C0D9D1DA11DB11D81879287A387B48710
:102B6000328A9170AA27BB27892B8A2B8B2BB1F431
:102B7000CE15DF0598F40E9451116C0197FD41C0FC
:102B8000BC01F801838194810E9466116FEF7FE0A0
:102B9000C6010E946611F801D482C382CE15DF05FA
:102BA00080F5F80181849284F1E09F2281149104E0
:102BB00011F2F8018381948160E472E04F960E94E3
:102BC0005107C7018C1B9D0B6501C818D9088C15CE
:102BD0009D0508F46C01A601B2016C0F7D1FC401B4
:102BE000805C9D4F0E94282BF8018381948160E4D2
:102BF00072E04F960E94B907892B09F4A2CF209763
:102C000009F1CE01DF91CF911F910F91FF90EF90CD
:102C1000DF90CF90BF90AF909F908F907F906F90FC
:102C20005F904F903F900895D0E0C0E080E4682E20
:102C300082E0782EA12C92E0B92E33243394AECFCB
:102C400089EF77CF8FEF75CFCF93DF93EC0188813A
:102C5000882309F44EC082E197E00E94D706898557
:102C60009A850E9402078AE097E00E94D706898928
:102C7000811124C08EE40E94C40684E097E00E9483
:102C8000D7068A8981111CC08EE40E94C40681E0A7
:102C900097E00E94D7068989882351F18A89882381
:102CA00039F160E472E08D859E850E945107892B81
:102CB00049F08FEF9FEFDF91CF91089589E5DBCF4A
:102CC00089E5E3CFEF85F889E05CFD4F89859A853A
:102CD000AB85BC85848F958FA68FB78F60E472E03B
:102CE0008D859E850E94B907892B19F70E94C11115
:102CF000188290E080E0DFCFCF92DF92EF92FF92D8
:102D00000F931F93CF93DF93182F092FD62EC72E23
:102D100080914004CEEFDFEF882361F083E1E82E5D
:102D2000F12C60E472E0C7010E945107892B61F029
:102D3000CFEFDFEFCE01DF91CF911F910F91FF9089
:102D4000EF90DF90CF900895C0E4D2E0888188238F
:102D500009F441C0853E91F148E050E0612F702FA9
:102D6000CE010E941B2B892B49F543E050E06D2DCD
:102D70007C2DCE0108960E941B2B892BF9F40A8D1D
:102D80001B8DC8010297863F9F4068F085EE8883BF
:102D900060E472E0C7010E94B907EC01892B41F69B
:102DA0000E94C111C7CFC8010E940E116C0170E0D2
:102DB00060E0C8010E9466118601E3CFA09684E01E
:102DC000C034D80719F62FEFE21AF20A81E2E816AA
:102DD000F10409F0A6CFCDEFDFEFACCF5F926F9299
:102DE0007F928F929F92AF92BF92CF92DF92EF929B
:102DF000FF920F931F93CF93DF93CDB7DEB7A097CA
:102E00000FB6F894DEBF0FBECDBF882E792E662E8A
:102E1000572E8A0180914004882309F49BC0AE019B
:102E20004F5F5F4F882D0E948F13892B31F4662DE1
:102E3000752D882D972D0E947C1693E1A92EB12C1B
:102E400060E472E0C5010E945107892BC1F08FEF49
:102E50009FEFA0960FB6F894DEBF0FBECDBFDF91F7
:102E6000CF911F910F91FF90EF90DF90CF90BF9087
:102E7000AF909F908F907F906F905F90089580E4C7
:102E8000E82E82E0F82E912CF7018081811108C094
:102E90000E9451116C0197FF17C08AEF9FEFD9CFA5
:102EA000853EB1F39394F0E2EF0EF11C40E19412F1
:102EB000EBCF8FEFA81AB80A91E2A916B10409F076
:102EC000BFCF8BEF9FEFC5CF6FEF7FE00E94661102
:102ED00080E2F701482F11924A95E9F798E0E82D32
:102EE000F72DD70101900D929A95E1F7D701189629
:102EF00093E0E62DF52D01900D929A95E1F7F701FB
:102F00008387D38EC28E148E158E168E178E60E434
:102F100072E0C5010E94B907009709F098CF21E03F
:102F2000F8012083D282C182D482C38215821682A4
:102F3000178210861186128613861486218B128AB8
:102F4000B686A586F0E29F9E90011124F801308B91
:102F500027877FCF8EEF9FEF7CCF4F925F926F924C
:102F60007F928F929F92AF92BF92CF92DF92EF9219
:102F7000FF920F931F93CF93DF93CDB7DEB7A09748
:102F80000FB6F894DEBF0FBECDBF782E692E562E39
:102F9000472ED42EC52EB22EA32E80914004882316
:102FA00009F480C0AE014F5F5F4F622F732F8D2DEC
:102FB0009C2D0E948F13892B09F477C083E1E82EA2
:102FC000F12C60E472E0C7010E945107892B09F0DF
:102FD0006FC000E412E0F8018081882309F45FC02B
:102FE000853E09F44DC048E050E0672D762DC801BC
:102FF0000E941B2B892B09F043C04801F8E08F0E7B
:10300000911C43E050E0652D742DC4010E941B2BE0
:10301000892BB1F588E0ED2DFC2DD80101900D92A2
:103020008A95E1F783E0EB2DFA2DD40101900D9202
:103030008A95E1F760E472E0C7010E94B90721E0D8
:1030400030E0892B11F430E020E088279927821B9B
:10305000930BA0960FB6F894DEBF0FBECDBFDF91E5
:10306000CF911F910F91FF90EF90DF90CF90BF9085
:10307000AF909F908F907F906F905F904F9008954A
:10308000005E1F4F84E00034180709F0A4CFEFEF73
:10309000EE1AFE0AF1E2EF16F10409F092CF8DEF7D
:1030A0009FEFD7CF8EEF9FEFD4CF8CEF9FEFD1CF95
:1030B0008FEF9FEFCECF0F931F93CF93DF9300D06F
:1030C00000D0CDB7DEB780914004882399F102E0AB
:1030D00010E01A821982C8010E940E11892B31F466
:1030E00029813A812F5F3F4F3A8329830F5F1F4F1A
:1030F00001323BE0130779F749815A81B0E0A0E043
:103100009A01AD0189E0220F331F441F551F8A9594
:10311000D1F729833A834B835C8369817A818B81E0
:103120009C810F900F900F900F90DF91CF911F9186
:103130000F91089519821A821B821C82EECFAF92E2
:10314000BF92CF92DF92EF92FF920F931F93CF9394
:10315000DF9300D000D000D0CDB7DEB78D839E8343
:1031600080E092E0E0E4F2E0DF019C011D9221505A
:103170003040E1F72BEE209340022CE320934102F4
:1031800020E92093420228E0EDE1F1E0A3E4B2E07F
:1031900001900D922A95E1F790934C0280934B0297
:1031A00081E080934D0281E090E090934F02809304
:1031B0004E0282E08093500280EE90E090935202A3
:1031C0008093510280E49BE09093540280935302D9
:1031D00080EF8093550289E090E0909357028093AE
:1031E000560282E190E0909359028093580282E067
:1031F00090E090935B0280935A0289E2809366028A
:103200008EEE9FEFA0ECB4E6809367029093680285
:10321000A0936902B0936A028D819E81892B09F483
:10322000CCC08BE0ED81FE81ABE6B2E001900D9267
:103230008A95E1F788E0E2E3F1E0A6E7B2E00190E9
:103240000D928A95E1F785E580933E048AEA8093A2
:103250003F0460E472E090E080E00E94B907892BAF
:1032600009F0AFC001E010E080ED90E3A0E0B0E035
:1032700089839A83AB83BC8380E4C82E82E0D82EF6
:10328000A12C92E0B92E20EFE22EFF24FA94D60171
:10329000F5011D923197E9F7013031F4E0924002D7
:1032A000F0924102F092420260E472E0C8010E9492
:1032B000B907892B09F085C060E472E0C80109965E
:1032C0000E94B907892B09F07CC020E032E040E47D
:1032D00052E069817A818B819C810E94DC0889811E
:1032E0009A81AB81BC819E5FAF4FBF4F89839A8328
:1032F000AB83BC830F5F1F4F0A30110541F6E0E43A
:10330000F2E080E092E0DF019C011D92215030400C
:10331000E1F78D819E81892BB9F088E0ED81FE81F6
:10332000A0E4B2E001900D928A95E1F7ED81FE8173
:1033300080859185A2858093480290934902A0934D
:103340004A0288E080934B0260E472E083E190E0FF
:103350000E94B907892BA9F5E0E4F2E080E092E051
:10336000DF019C011D9221503040E1F784E190E0A3
:103370009A83898360E472E089819A810E94B90707
:10338000892BF9F4A981BA811196BA83A9839197FF
:1033900089F71092400426960FB6F894DEBF0FBE50
:1033A000CDBFDF91CF911F910F91FF90EF90DF90F4
:1033B000CF90BF90AF900C941E128BE0E6E2F1E04C
:1033C00033CF8FEF9FEF26960FB6F894DEBF0FBE78
:1033D000CDBFDF91CF911F910F91FF90EF90DF90C4
:1033E000CF90BF90AF9008958F929F92AF92BF926F
:1033F000CF92DF92EF92FF920F931F93CF93DF93C1
:103400006C014B017A0148E050E060E270E0C401D9
:103410000E94312B43E050E060E270E0C7010E945F
:10342000312B56019601E90188812F5F3F4F8111B1
:103430000BC0F60101900020E9F731978F010C19BC
:103440001D09D0E0C0E007C08E3269F78E010C196B
:103450001D09209771F30930110514F008E010E000
:103460006401912C812C8016910614F12097A9F10A
:103470002196DE010D900020E9F711978701AC1B22
:10348000BD0BA430B10514F0A3E0B0E0EA0EFB1EC2
:103490000E151F05D1F4DF91CF911F910F91FF9071
:1034A000EF90DF90CF90BF90AF909F908F90089556
:1034B000F50181915F0190E00E94132BF601819349
:1034C0006F01FFEF8F1A9F0ACECF899190E00E9483
:1034D000132BF80181938F01DBCF83E0EBE3F1E065
:1034E000D70101900D928A95E1F7D5CF53985B9A59
:1034F00054985C9A0895FC011082549A5C988FE36A
:1035000091E00197F1F700C0000081E197E24B9B49
:1035100018C054985C9A90E080E061E070E021E18E
:1035200037E24B9918C04C9B09C02081AB01082E93
:1035300001C0440F0A94EAF7242B208321E137E2EB
:103540001BC025E02A95F1F70000019701F7549878
:103550005C9A80E0089545E04A95F1F7000021501B
:103560003109F9F60E94761AF4CF45E04A95F1F751
:10357000000021503109B1F34B9BF7CF0196883001
:10358000910569F6549A5C988FE891E00197F1F7FC
:1035900000C0000081E00895FC01DB0110821C9254
:1035A00054985C9A89EC90E04B9B16C025E02A95D4
:1035B000F1F70000019709F581E08C93549A5C982B
:1035C0008FEE90E00197F1F700C0000054985C9AEC
:1035D00081E197E24B9907C090E080E061E070E004
:1035E00021E137E214C025E02A95F1F700000197A8
:1035F00089F70E94761A80E008954A99D5CFF9CFCD
:1036000045E04A95F1F700002150310991F34B99BB
:10361000F7CF4C9B09C02081AB01082E01C0440F9D
:103620000A94EAF7242B208321E137E207C045E022
:103630004A95F1F7000021503109D9F24B9BF7CFA1
:1036400001968830910561F6549A5C9881E008955E
:10365000539A5B9854985C9AEFE3F1E03197F1F755
:1036600000C0000021E137E24C9B45C0662391F089
:1036700053985B9A21E137E24C9949C021E137E246
:103680004C9B4EC0539A5B98EFE3F1E03197F1F712
:1036900000C0000030E020E090E0AC01022E02C04B
:1036A000559547950A94E2F740FF43C054985C9AB9
:1036B000EFEEF0E03197F1F700C0000053985B9A0D
:1036C000EFEEF0E03197F1F700C00000539A5B98FD
:1036D0002F5F3F4F2830310501F754985C9A81E104
:1036E00097E24C9929C08FE891E00197F1F700C06B
:1036F000000081E00895F5E0FA95F1F7000021500F
:10370000310911F480E008954A99AECFFBCF95E0DE
:103710009A95F1F700002150310909F0ADCFF2CFB1
:10372000E5E0EA95F1F700002150310909F0A8CF52
:10373000E9CF549A5C98BCCFF5E0FA95F1F7000018
:10374000019779F6DFCFEF920F931F93CF93DF931B
:103750008093350590E3E92E06E315E00E94DB1E19
:10376000EC018034910514F0C0E4D0E0AE0155279F
:1037700066E375E082EF94E00E94282BC093320547
:103780001092330510923405DF91CF911F910F9164
:10379000EF900895CF93C82F8EE19CE00E94D7064A
:1037A0008C2F90E00E9402078BE19CE00E94D706DC
:1037B000C093520410925404109253048AB1837C33
:1037C0008AB98BB18C638BB9C9B18BE09CE00E9444
:1037D000D7068CE4C2FD88E40E94C40685E09CE024
:1037E0000E94D7068CE4C3FD88E40E94C4068EEFD5
:1037F0009BE00E94D7068CE4C4FD88E40E94C406C6
:1038000088EF9BE00E94D7068CE4C5FD88E40E9407
:10381000C40685EF9BE00E94D706E7E5F4E08EED55
:10382000DF011D928A95E9F720E040E06FE371E047
:1038300089E4CF910C94A31BCF93DF93EC01DB01C0
:10384000E091330580913205E81730F081E08C93E8
:1038500080E0DF91CF91089581E08E0F8093330552
:10386000F0E0EA53FB4F84A5888381E02091330583
:1038700090913205291708F480E08C9381E0E9CF1C
:10388000CF92DF92EF92FF920F931F93CF93DF932C
:1038900000D00F92CDB7DEB74D998FC08BED9BE076
:1038A0000E94D70610925404109253040E94761A74
:1038B0000E946A0A0E9483130E94CB1E0E94C425A4
:1038C00086EB9BE00E94D7064D9BFECF2FEF89E64B
:1038D00098E1215080409040E1F700C0000080E96D
:1038E0009BE00E94D7060E944A0A0E94780A892B10
:1038F000B1F08EE79BE00E94D70620E040E061E057
:1039000071E08AE40E94A31B85E090E00E94802A77
:103910000E946A0A8FE59BE00E94D70632C08EE4BF
:103920009BE00E94D7060E94AB0A811114C085E378
:103930009BE00E94D70620E040E061E071E08AE46D
:103940000E94A31B86E090E00E94802A0E946A0ADF
:1039500087E19BE0E1CF80E09BE00E94D7060E94D8
:103960001E12892BD1F48FEE9AE00E94D7060E9496
:103970006A0A8FEB9AE00E94D70690E080E00E94EE
:10398000802A0F900F900F90DF91CF911F910F9190
:10399000FF90EF90DF90CF9008958AED9AE00E941B
:1039A000D70620E040E061E071E08AE40E94A31BBA
:1039B00086E090E00E94802ADACF4A9B40C0809146
:1039C0005304909154040297E1F6AE014F5F5F4FAC
:1039D000BE016E5F7F4F809155040E94492288236B
:1039E00059F10E94BF25FC0169818A81309709F154
:1039F0000680F781E02D3097E1F0099581110AC02A
:103A000085EA9AE00E94D70610925404109253045B
:103A10000E94761A8981882309F4B3CF8DE89AE051
:103A20000E94D70610925404109253040E94761AF2
:103A3000A8CF0E94281BE2CF8EE69AE0F1CF0E9429
:103A4000322A82E69AE00E94D706549A5C9882E075
:103A5000E82EF12CCC24C394D12C4A990AC0CE0173
:103A600003960E947B1A81113FC087E49AE00E946E
:103A7000D7060E94342A80915304909154040297EF
:103A8000C9F48FE999E00E94D7060E9492250E940E
:103A9000BF258C01009771F0FC0182859385892BED
:103AA00049F087E899E00E94D706D8011A96ED916F
:103AB000FC9109958091530490915404019709F069
:103AC00060CF8AE699E00E94D7068091550490E085
:103AD0000E94020787E699E00E94D70611E04A9902
:103AE000C4C08DE499E018CF8AE39AE00E94D7061B
:103AF0008B810E94E5068B818F3361F58EE29AE01F
:103B00000E94D7068091530490915404019709F0C4
:103B1000A4CF809155048F30C1F46091C304662313
:103B200059F0E62FF0E0EE5AFB4F11AA83E894E03B
:103B30000E9430241092C304109254041092530433
:103B40000E94761A0E94C42588CF8130A9F70E946E
:103B50002F22F2CF8F3561F484E29AE00E94D706DB
:103B60008091530490915404029709F076CFE4CFEA
:103B7000182F1F71982F907E9032C9F48AE19AE035
:103B80000E94D706812F90E00E94020787E19AE009
:103B90000E94D7068091520481135FCFD0925404C3
:103BA000C092530483E09AE00E94D70656CF903427
:103BB000B9F48BEF99E00E94D706812F90E00E9424
:103BC000020788EF99E00E94D70680915204811382
:103BD00044CFF0925404E092530486EE99E0E4CF8F
:103BE000982F907F903651F5182F1F708CED99E02B
:103BF0000E94D706812F90E00E94020789ED99E08C
:103C00000E94D70610935504809153049091540458
:103C10008130910529F41092C3041092C4041DCF81
:103C2000029709F01ACF54985C9AAFE3B1E011976C
:103C3000F1F700C00000539A5B980FCF903E91F4CB
:103C4000182F1F708EEC99E00E94D706812F90E00C
:103C50000E9402078BEC99E00E94D706812F0E94F8
:103C60002F22FBCE85EC99E09FCFBE016F5F7F4F87
:103C7000CE0102960E94CC1A811103C084E399E020
:103C80004BCE8091550490915704911136C08F30DE
:103C9000A1F1E0918204E93248F48A8191E09E0F1B
:103CA00090938204F0E0EE5AFB4F8683898188234B
:103CB00009F415CFE0918204F0E0EE5AFB4F168232
:103CC00083E299E00E94D70688E594E00E94CB0643
:103CD0008FE199E00E94D7064091820468E574E084
:103CE000809155040E94FD1E1093570489818823FA
:103CF00009F4F5CE8CE099E00FCEE091C3046A811F
:103D0000E03440F491E09E0F9093C304F0E0EE5A4B
:103D1000FB4F61AB0E941724E9CF0F931F93CF9302
:103D2000DF93CDB7DEB7CC52D4400FB6F894DEBFE8
:103D30000FBECDBF8C019C01AE01435D5D4F60EDB8
:103D400078E580E090E00E94B1082CE232E0AE011C
:103D50004F5F5F4FB801CE01835D9D4F0E94142AD3
:103D60008C011816190654F49C01AE014F5F5F4F89
:103D700060ED7AE580E090E00E94DC08C801C45D57
:103D8000DB4F0FB6F894DEBF0FBECDBFDF91CF91F2
:103D90001F910F910895E3E7F5E083E1DF011D92A4
:103DA0008A95E9F710926E0520E040E06FE371E03C
:103DB00089E40C94A31BEF920F931F931F922F93F0
:103DC0001F924F937F936F931F928F938DE491E097
:103DD0009F938F931F92EF921F930F930E94432BF9
:103DE0002DB73EB7225F3F4F0FB6F8943EBF0FBED0
:103DF0002DBF1F910F91EF9008957F928F929F9208
:103E0000AF92BF92CF92DF92EF92FF920F931F93E8
:103E1000CF93DF93CDB7DEB7C356D1090FB6F89471
:103E2000DEBF0FBECDBF182F7B01042F88E19DE0C0
:103E30000E94D706812F90E00E94020780E19DE05A
:103E40000E94D70667014701800E911C8C149D04C7
:103E5000E1F58CE09DE00E94D706FE01EF5AFF4F8E
:103E60001192119287E0DF011D928A95E9F76C9615
:103E70001FAE1EAE6C976E961FAE1EAE6E971230C2
:103E800078F40E948C13811126C084EF9CE00E947C
:103E9000D70620E040E061E071E08AE40E94A31BC5
:103EA000CD59DF4F0FB6F894DEBF0FBECDBFDF9107
:103EB000CF911F910F91FF90EF90DF90CF90BF9027
:103EC000AF909F908F907F900895D6018D916D0156
:103ED0000E94C406BBCF11111DC2013009F01AC2E5
:103EE000F7018081843209F015C280EE9CE00E94C7
:103EF000D706098384E08A8322E030E0AE014F5F79
:103F00005F4F60ED76E480E090E00E94DC081B8269
:103F10001C8282E18D8382E28E83E9E6F1E0DE019C
:103F2000179689E791E021912D938E179F07D9F776
:103F300082E28F8B80E2888FEAE7F1E088E191915D
:103F400021E0280F482F50E09111B5C0E1E0F0E0EA
:103F5000EC0FFD1F4E0F5F1FDA011C9230E079015C
:103F6000B2E0EB0EF11C8C5F8983C9018D5F9B4F22
:103F70009A83AF0162ED76E480E090E00E94DC0875
:103F8000A0961FAE1EAEA09730E2C32E42E2B42E22
:103F90000FE010E0BE016F5C7F4FCE01825A9F4F51
:103FA0000E94F313AC01892B31F468EFE6166FE041
:103FB000F60608F48BC00E945B18A4966CAF7DAF28
:103FC0008EAF9FAFA497BB27A92F982F872F198259
:103FD0001A828B839C83A1E8B1E084E09D9161E02B
:103FE000680F282F30E091118BC188248394912C85
:103FF0008C0E9D1E280D391DD9011C92F401E60F6F
:10400000F11D1082E2E0E80F88248394912C8C0E3D
:104010009D1E8E0E911CF40110828D5F082F10E002
:10402000B0E0A0E09701AD012053394B4F4F5F4FF7
:10403000A4962CAF3DAF4EAF5FAFA4979801AE01F1
:104040004F5F5F4FA4966CAD7DAD8EAD9FADA497D5
:104050000E94DC080E0D1F1D109372050093710560
:104060001092700510926F0511E010936E0581EDAE
:104070009CE00E94D70680917105909172050E9484
:1040800002078EEC9CE00E94D70610926D051092FC
:104090006C0510926B0510926A05109269051092DA
:1040A0006805109367051092660520E040E06EE811
:1040B00071E080E0F3CE88248394912C8C0E9D1EB9
:1040C000480D591DDA019C93822F39CF6CAD63FDE9
:1040D00061CF61968CAD9DADAEADBFAD61978150A6
:1040E0009F4FAF4FBF4F892F9A2FAB2FBB279C01FC
:1040F00019821A82009711F481E090E09C838B83EF
:104100002A30310508F03EC0CD82A5E0E1E0EA0F9B
:1041100088248394912C8C0E9D1E8A0E911CD401B0
:10412000CC9291E09E0FA1E0B0E0AC0FBD1FAE0FAE
:10413000B11DFD01C08281E0890FE1E0F0E0EC0FEC
:10414000FD1FE90FF11DB08228E030E0722F732EC1
:1041500021503109E1E3F0E0EC0FFD1FE20FF31F06
:10416000E081E032D1F0FE01F1969E5F970F282F9B
:10417000AA24A394A20E30E09A11A5C0870F272F7E
:10418000372D0EC02436310510F4A4E0BFCF94E0E3
:10419000283E334080F6E4E0C4CF21153105B1F666
:1041A00099AD7BAD703209F09AC07AAD703209F0EA
:1041B00099C0903221F141E050E091E0980F7EE209
:1041C000E1E0F0E0EC0FFD1FE80FF11D7083DE0170
:1041D000D996792F740FDD90E92F9F5F88248394FF
:1041E000912C8C0E9D1E8E0E911CF401D082971383
:1041F000F2CF840F8F5FFA0131962E0F3F1F91E0AF
:10420000980FE1E0F0E0EC0FFD1FE80FF11DB08228
:1042100071E1780F721BE92F9F5FA1E0B0E0AC0F56
:10422000BD1FAE0FB11DFD01C0829713F4CF8E5F8D
:10423000F801E21BF30BD82EDE0EE1E6F1E064FD9F
:1042400011C04330510561F443E050E065E671E090
:10425000CE01C9960E941B2BE5E6F1E0892B11F0F7
:10426000EBE3F1E0319121E02D0D8D2D90E0311146
:104270003CC0E1E0F0E0EC0FFD1F8E0F9F1FDC0162
:104280001C9230E049018E0C9F1CC4018F5F9B4F34
:104290009A838983B0E0A0E0A701BD014053594B48
:1042A0006F4F7F4FA4964CAF5DAF6EAF7FAFA497BB
:1042B000AF01A4966CAD7DAD8EAD9FADA4970E946D
:1042C000DC08740167CED19088248394912C8C0EE5
:1042D0009D1E280D391DD901DC922A2D49CF43E0BE
:1042E00050E06BCF42E050E068CF88248394912C5B
:1042F0008C0E9D1E880D991DDC013C93D22EB2CFF1
:10430000E1E0F0E0EC0FFD1F2E0F3F1FF90190835D
:10431000862F64CEAE01465A5F4FBE016F5A7F4F63
:10432000C7010E94F4198EEB9CE00E94D706AE01F3
:104330004F5A5F4F7A016A0158E0C50ED11CD70170
:104340008D917D010E94C406CE14DF04C1F78AEB73
:104350009CE00E94D7066B968FAD6B970E94C406B7
:104360006C968FAD6C970E94C4066D968FAD6D975D
:104370000E94C40686EB9CE00E94D706111126C05D
:1043800089EA9CE00E94D70643E755E0BE01665AE1
:104390007F4FCE018F5A9F4F0E9444148C01892B6E
:1043A00009F440C083E99CE00E94D706882799273A
:1043B000801B910B0E94020780E99CE00E94D706B7
:1043C00020E040E061E971E08EE368CD83E89CE0A5
:1043D0000E94D70643E755E0BE01665A7F4FCE01E3
:1043E0008F5A9F4F0E94EE168C01892BD9F086E6DA
:1043F0009CE00E94D70688279927801B910B0E947A
:10440000020783E69CE00E94D70620E040E060EAD5
:1044100071E088E40A3F1F4F09F440CD6AEA71E079
:1044200089E13CCD10926D0510926C0510926B05E0
:1044300010926A05109269051092680581E08093D8
:1044400067051092660520E040E06EE871E080E0CC
:104450000E94A31B83E59CE00E94D70621CDCF9349
:10446000C82F83E49CE00E94D7068C2F90E00E9426
:10447000020780E49CE00E94D706809173058823A0
:1044800021F083E795E00E94241610926E05CF91EB
:104490000895BF92CF92DF92EF92FF920F931F93F6
:1044A000CF93DF9300D000D000D0CDB7DEB7082F78
:1044B0006B017A01FA0110820E94EE29182F8823DD
:1044C00009F44CC10F3009F44BC1F70110828091FF
:1044D00068059091690520916A0530916B058217F6
:1044E000930740F5B0E0A0E09C01AD012053354AB0
:1044F0004F4F5F4FCA01B9010E940609F601808340
:104500008091680590916905019690936905809363
:10451000680520916A0530916B058217930708F4AE
:1045200046C080916605882309F441C081E0F70107
:1045300080833DC0B0906605BB2029F081E0F70183
:10454000808310E034C000916705011181C01A8298
:10455000198222E030E0AE014F5F5F4F60ED7AE5F7
:1045600080E090E00E94DC0882E090E090936B0590
:1045700080936A05109269051092680501E0009326
:10458000660560ED7AE580E090E00E940609F6019C
:10459000808381E090E09093690580936805809125
:1045A0006A0590916B05029710F4F7010083812F43
:1045B00026960FB6F894DEBF0FBECDBFDF91CF9128
:1045C0001F910F91FF90EF90DF90CF90BF900895D3
:1045D000B0E0A0E09C01AD012053394B4F4F5F4F3D
:1045E0002B833C834D835E8321E030E0AE014F5F3F
:1045F0005F4F6B817C818D819E810E94B10880918B
:104600006F059091700501969093700580936F05EA
:1046100080916C0590916D05B0E0A0E09C01AD012A
:104620002053374A4F4F5F4F2B833C834D835E832C
:1046300049816B817C818D819E810E941F098091BF
:104640006C0590916D05019690936D0580936C05B6
:1046500080916C0590916D058115924088F4809150
:104660006E058823C1F180916F05909170052091AE
:104670007105309172058217930708F4A9CFB02E07
:1046800080916C0590916D050097B1F10E948D1E8F
:10469000181619060CF052CF90936B0580936A059B
:1046A000109269051092680510926D0510926C05C4
:1046B000B1101092670560ED7AE580E090E00E940D
:1046C0000609F601808381E090E09093690580936C
:1046D0006805102F6CCF80917305882381F241E02B
:1046E00050E0BE016F5F7F4F83E795E00E94D614D4
:1046F000019709F48DCFC3CF1A82198222E030E0EE
:10470000AE014F5F5F4F60ED7AE580E090E00E9480
:10471000DC0882E090E090936B0580936A0510922C
:104720006905109268051092670581E0809366051F
:1047300060ED7AE580E090E00E940609F601808352
:1047400081E090E0909369058093680580916A0507
:1047500090916B05029708F02ACFE8CE0F3031F424
:10476000B701C6010E941C1C182F21CF0111E6CEF3
:1047700010916E05112381F180916F059091700564
:10478000B0E0A0E09C01AD012053394B4F4F5F4F8B
:104790002B833C834D835E8321E030E0A6016B8157
:1047A0007C818D819E810E94B10880916F059091DE
:1047B000700501969093700580936F0520917105A7
:1047C000309172058217930708F4F1CE81E0F7016A
:1047D000808310926E05EBCE10917305112309F4BE
:1047E000ADCE41E050E0BE016F5F7F4F83E795E0C3
:1047F0000E94D614019709F0A1CE8981F601808329
:1048000040917C0550917D0560917E0570917F05FA
:104810008091780590917905A0917A05B0917B05FA
:10482000481759076A077B0708F4C1CE7FCECF939C
:10483000DF930F92CDB7DEB76983813069F4809141
:104840007305882349F041E050E0BE016F5F7F4F60
:1048500083E795E00E9477150F90DF91CF9108953F
:10486000AF92BF92CF92DF92EF92FF920F931F937E
:10487000CF93DF93CDB7DEB7C754D1090FB6F89405
:10488000DEBF0FBECDBF6C01162F662309F49AC0A0
:1048900083E39CE00E94D70676015601A10EB11C6D
:1048A000EA14FB0409F04AC08FE29CE00E94D7069C
:1048B000012F1A3208F009E2E02EF12CA701B6010F
:1048C000CE0101960E94282B81E090E08C0F9D1F65
:1048D000E80EF91EF70110826C01F60181916F015B
:1048E00090E00E94132BF60131978083EC14FD04B5
:1048F000A1F7602FCE0101960E940E27811162C0A0
:10490000602FCE0101960E94812781115BC0602F2C
:10491000CE0101960E94C529882309F168E070E064
:10492000CE018B960E94F129181619066CF420E02E
:1049300040E0BE01655D7F4F80E042C0F70181919C
:104940007F010E94C406ACCF0E94EE2920E040E027
:1049500066EB71E08111F0CF6EE871E0EDCF8981F7
:10496000823509F441C064F4893409F4B7C08E3447
:1049700009F47EC020E040E065ED71E08EE120C0EA
:104980008335C1F71330B0F38A818A3399F7AE01CA
:10499000495C5F4FBE01655D7F4FCE0103960E946B
:1049A000F419BE01695C7F4FCE018B960E947C1684
:1049B00020E0892B09F051C041E065EC71E081E015
:1049C0000E94A31BC95BDF4F0FB6F894DEBF0FBE7A
:1049D000CDBFDF91CF911F910F91FF90EF90DF90AE
:1049E000CF90BF90AF900895133060F38A818A33DF
:1049F00049F76DE370E0CE0103960E94382B0097D3
:104A000009F4B8CFFC0111928F01AE014C5B5F4FEE
:104A1000BE01695C7F4FCE0103960E94F419AE017E
:104A2000405C5F4FBE01655D7F4FC8010E94F41975
:104A30009E012C5B3F4FAE01495C5F4FBE01605C45
:104A40007F4FCE018B960E94AD17009719F420E09E
:104A500040E082CF039631F420E040E061E971E06C
:104A60008EE3AECF20E040E062EE71E08FE3A8CFAE
:104A7000133058F18A818A3341F54BE050E060E20F
:104A800070E0CE018B960E94312B1EAABE016D5F95
:104A90007F4FFB0101900020E9F7AF014150510920
:104AA000461B570B4C30510514F04BE050E0CE0143
:104AB0008B960E94282BCE018B960E949F18892BE3
:104AC00039F46EE871E080E006C090E080E0F5CF58
:104AD0006AEA71E089E120E040E072CF0E9483132E
:104AE0000E941E12892B69F361E071E08AE4F3CF22
:104AF00010928805109287051092860508959C01F2
:104B0000892B79F0E0918805E43058F481E08E0F2C
:104B100080938805F0E0EE0FFF1FE757FA4F3183CF
:104B2000208308951F93CF93DF9310E08091880531
:104B3000181738F0109287051092860590E080E0F3
:104B400018C0C12FD0E0CC0FDD1FC757DA4FE88166
:104B5000F9810480F581E02D309779F0099588235B
:104B600061F0E881F981F0938705E0938605808103
:104B70009181DF91CF911F9108951F5FD7CF8091D1
:104B800086059091870508951092870510928605F5
:104B90000895CF93DF93FC01DB0110821C9254989F
:104BA0005C9A89EC90E04B9B17C04C9B15C025E0AC
:104BB0002A95F1F70000019709F04AC081E08C9333
:104BC000549A5C9885E48A95F1F7000054985C9AB1
:104BD00081E197E24B9930C090E080E029B139B192
:104BE00023FB222720F9C22FB0E0DB2FBE01082EC5
:104BF00001C0660F0A94EAF72081262B34FB442774
:104C000040F950E0BC016F5F7F4FDA0102C0AA0F8C
:104C1000BB1F6A95E2F72A2B2083B5E4BA95F1F71A
:104C20000000029688309105C9F6549A5C9820EAF3
:104C30002A95F1F781E009C04C9BCECFA5E0AA955B
:104C4000F1F70000019731F680E0DF91CF910895F0
:104C50004A99A9CFF9CF539A5B988FE391E00197D6
:104C6000F1F700C0000008954C9B15C080E012C011
:104C700085E08A95F1F700002F5F3F4F233781E0F1
:104C80003807A1F34C9BF4CF285C310981E0293728
:104C9000310560F7089530E020E0F4CF662331F06D
:104CA000EFE1F3E03197F1F700C0000021E137E2D6
:104CB0004C9B33C030E020E090E0A9014F5F5F4F94
:104CC000BC0102C0759567954A95E2F7AB0141704A
:104CD000BC01022E02C0759567950A94E2F760FF49
:104CE00025C053985B9A442321F154985C9A75E44B
:104CF0007A95F1F700002E5F3F4F28303105E9F635
:104D000053985B9A54985C9A81E197E24C9914C04D
:104D1000F0EAFA95F1F781E00895F5E0FA95F1F7F8
:104D200000002150310921F680E00895539A5B98E4
:104D3000DACF549A5C98DBCFE5E0EA95F1F7000012
:104D4000019721F7F1CF8CE092E00C947F258091C0
:104D500091058111109291050895089530E020E0A9
:104D600090E0AC01022E02C0559547950A94E2F7F7
:104D700040FF1BC054985C9A45E14A95F1F700004A
:104D800053985B9A4AE24A95F1F700C0539A5B98B0
:104D90002F5F3F4F2830310521F754985C9A8AE6FF
:104DA0008A95F1F700C081E00895549A5C98E4CFA9
:104DB000FC011082DB011C9290E080E061E070E079
:104DC00021E137E207C0B5E0BA95F1F700002150C4
:104DD0003109F1F04B9BF7CF4C9B09C02081AB010F
:104DE000082E01C0440F0A94EAF7242B208321E106
:104DF00037E24B9906C001968830910509F781E0AA
:104E0000089545E04A95F1F700002150310989F7EE
:104E100080E0089588E192E00C947F25FC016230E7
:104E200050F08081853539F48181803321F481E02F
:104E300080939105089580E00895809193058111F4
:104E400010929305089580E00895089521E137E2D6
:104E50004B993AC0549A5C986AE66A95F1F700C09B
:104E600030E020E090E0A9014F5F5F4FBC0102C03D
:104E7000759567954A95E2F7AB014170BC01022E2A
:104E800002C0759567950A94E2F760FF29C05398B0
:104E90005B9A442341F154985C9A7AE47A95F1F74D
:104EA00000C02E5F3F4F28303105E9F654985C9AD8
:104EB00053985B9A81E197E24B9B18C045E84A956D
:104EC000F1F7000081E0089545E04A95F1F7000010
:104ED0002150310911F480E008954A99B9CFFBCFF0
:104EE000539A5B98D6CF549A5C98D7CF25E02A95F1
:104EF000F1F70000019701F7EECF84E292E00C9405
:104F00007F25FC016330A0F080818D3489F481819C
:104F10008D3271F48281873559F4809192058F5FCB
:104F200080939205833030F081E08093930508955B
:104F300080E0089581E008952F923F924F925F9212
:104F40006F927F928F929F92AF92BF92CF92DF9299
:104F5000EF92FF920F931F93CF93DF93CDB7DEB7FE
:104F6000CC50D2400FB6F894DEBF0FBECDBF5C016F
:104F70008B011A01C9016115710509F45BC1FE01BC
:104F8000319620E032E0DF01A9011D9241505040EE
:104F9000E1F7D501A60FB71FCB5FDD4FB983A8831B
:104FA000C550D2401597C55FDD4FB983A883CB505C
:104FB000D240CB5FDD4F28813981C550D24024508B
:104FC0003109C95FDD4F39832883C750D240A10121
:104FD000480F591FC75FDD4F59834883C950D240DE
:104FE00064307105ECF0D5012D913D914D915C91AE
:104FF00061EB79E787E39EE90E94BB2ACF5FDD4F33
:10500000688379838A839B83C150D240892F9927F3
:10501000AA27BB27880F991FE80FF91F118210825A
:105020004501BFEF8B1A9B0A8101F5017401C95F2D
:10503000DD4F28813981C750D2402E153F0508F039
:105040004AC0CB5FDD4FE880F980C550D240EE1AF0
:10505000FF0A1E141F04E4F570E060E0BFE0EB16E9
:10506000F10444F0C7010F976FEF70E00E94DF2A50
:105070006F5F7F4F6F5F7F4F6E0D7F1D600F711FE2
:10508000C75FDD4F28813981C950D24026173707C5
:1050900008F4CEC068013FEFC31AD30A8E2D40E159
:1050A000E416F1040CF08FE08295807FD8018C9398
:1050B000C7010F974FEFBFE0EB16F1040CF056C19C
:1050C000A701BF01C6010E94282B86010E0D1F1DDE
:1050D00002191309AFC0D7014D905D906D907C907F
:1050E000A301920161EB79E787E39EE90E94BB2A65
:1050F000CF5FDD4F688379838A839B83C150D24021
:10510000892F9927AA27BB27880F991F21E030E014
:105110002C0F3D1F820F931FDC01CD90DC90119767
:10512000CA0CDB1C97012A193B092D933C9397016C
:105130002C193D09CF5FDD4F39832883C150D24000
:10514000EC14FD0481F0C701821B930B8A159B05AB
:1051500050F0D6014D915D916D917C9144165506AC
:105160006606770621F0BFEFEB1AFB0A60CFC11489
:10517000D10409F466CFC701049634E0C30ED11CF4
:105180004C01C55FDD4F48815981CB50D240841717
:10519000950740F40196D6012D916D01D4013C9103
:1051A000321771F36401CE18DF08EE1AFF0A3701D7
:1051B000B0E1EB16F1041CF05FE0652E712CC60126
:1051C00024E1C216D10414F083E190E02C0134E014
:1051D000431A510830E020E04FE0E416F1044CF0AF
:1051E000C7010F976FEF70E00E94DF2A9B012F5FCE
:1051F0003F4F70E060E053E1C516D10444F0C601B2
:1052000043976FEF70E00E94DF2A6F5F7F4F2E0D94
:105210003F1D2D5F3F4F260F371F200F311FC75FE8
:10522000DD4F88819981C950D24082179307E8F4F5
:105230000FEF1FEFC801C45FDD4F0FB6F894DEBF5C
:105240000FBECDBFDF91CF911F910F91FF90EF90D7
:10525000DF90CF90BF90AF909F908F907F906F9096
:105260005F904F903F902F90089544E0660C771C1C
:105270004A95E1F76428D8016D928D01C7010F9717
:10528000BFE0EB16F1040CF059C0A701BF01C80143
:105290000E94282B0E0D1F1DF801CF5FDD4F2881C6
:1052A0003981C150D240219331938F0133E1C3162C
:1052B000D1046CF043E1C41AD108C80101962FEF64
:1052C000C216D1040CF044C0D801CC928C01C95F45
:1052D000DD4FE881F981C750D240E815F90508F49F
:1052E0003FC0D4012D913D914D915C9161EB79E7E7
:1052F00087E39EE90E94BB2ACF5FDD4F68837983F5
:105300008A839B83C150D240892F9927AA27BB2724
:10531000880F991FE1E0F0E0EC0FFD1F8E0F9F1F3B
:1053200094012A193B09DC012D933C93F4017ECEB4
:105330004FEFD8014C938F5F9109890198012F5F3E
:105340003F4F8F3F9105A4F7D8018C9389019DCFE2
:10535000EFEFD801EC93FFEFCF1AD1088C01ADCF5E
:10536000F4016FCE4C938F5F9109690196012F5F15
:105370003F4FD6018F3F9105ACF78C936901A0CECA
:1053800010929505109294050895FC01643090F0F8
:1053900080818F7D883571F481818F7D8A3551F4CC
:1053A00082818A3339F483819FE9980F9A3120F4FE
:1053B000833781F080E00895813341F0833551F0E7
:1053C0008033C1F71092950581E0089581E08093C4
:1053D0009505089581E08093940508958091950541
:1053E0000895CF93DF93EC01CB0120919405222304
:1053F000C1F020919505E7E0F2E0222311F0E2E010
:10540000F2E0059774F084E0DE0101900D928A9538
:10541000E1F71C821092940584E090E0DF91CF9137
:1054200008958FEF9FEFFACF0F931F93CF93DF93E2
:105430008B01EA01243031053CF48FEF9FEFDF91BF
:10544000CF911F910F910895245031094C5F5F4F08
:105450000E949C2797FDF1CF998388830A831B8341
:105460000496EDCF299A089529980895CF93DF9354
:10547000D82FC0E00E94322A2FEF87EE93E0215010
:1054800080409040E1F700C000000E94342A2FEFD6
:1054900087EE93E0215080409040E1F700C000008B
:1054A000CF5FDC13E7CFDF91CF910895459A089540
:1054B00045980895CF93DF93D82FC0E00E94562AD5
:1054C0002FEF87EE93E0215080409040E1F700C03D
:1054D00000000E94582A2FEF87EE93E02150804071
:1054E0009040E1F700C00000CF5FDC13E7CFDF9111
:1054F000CF910895219A3D9A0E94342A0C94582AFB
:10550000FC01079738F4E85DF14D0C94F32A82E032
:105510000E94362A2FEF85EA9EE02150804090407D
:10552000E1F700C00000089581E0F2CF83E0F0CF02
:1055300082E00E945A2AEECF83E0FBCF81E0F9CFD0
:105540000E94322A0E94562A2FEF87EE93E02150C4
:1055500080409040E1F700C000000E94342A0E9481
:10556000582A2FEF87EE93E0215080409040E1F7DA
:1055700000C00000CFCFDB018F939F930E94F92AD8
:10558000BF91AF91A29F800D911DA39F900DB29FDF
:10559000900D11240895AA1BBB1B51E107C0AA1F3F
:1055A000BB1FA617B70710F0A61BB70B881F991FC4
:1055B0005A95A9F780959095BC01CD01089597FB68
:1055C000072E16F4009407D077FD09D00E94CB2A4D
:1055D00007FC05D03EF4909581959F4F08957095F6
:1055E00061957F4F0895EE0FFF1F0590F491E02D18
:1055F00009940E94042BA59F900DB49F900DA49F29
:10560000800D911D11240895A29FB001B39FC00188
:10561000A39F700D811D1124911DB29F700D811DDE
:105620001124911D08959111089581568A5108F40D
:10563000805285580895FB01DC0104C08D910190D2
:10564000801921F441505040C8F7881B990B0895E8
:10565000FB01DC0102C001900D9241505040D8F78F
:105660000895DC0101C06D9341505040E0F708956A
:10567000FC018191861721F08823D9F79927089595
:105680003197CF010895AEE0B0E0E9E4FBE20C947D
:10569000FD2D0D891E898F89988D26E02C831A8314
:1056A000098397FF02C080E090E801979E838D8375
:1056B000AE01455E5F4F698D7A8DCE0101960E94E5
:1056C000732B4D815E8157FD0AC02F8138854217AB
:1056D00053070CF49A01020F131FF80110822E9643
:1056E000E4E00C94192EAFE0B0E0E9E7FBE20C94A3
:1056F000EF2D7C013B018A01DC0117961C921E9262
:10570000169713968C9181FFC3C19AE0292EFE0152
:1057100031964F01D70113969C91F30193FD85912A
:1057200093FF81913F01882309F448C1853239F400
:1057300093FD859193FF81913F01853229F4B70153
:1057400090E00E94612DE6CFB12C412C512CBFE19D
:10575000B51538F08B3209F188F4803201F18332CB
:1057600021F157FC3AC020ED280F2A3040F556FEB3
:105770001FC0B29C200D1124B22E06C08D3291F0B4
:10578000803379F7689450F8F30193FD859193FF86
:1057900081913F018111DBCF20C0689451F868945A
:1057A00052F8F2CF689453F8EFCF689454F8ECCFE6
:1057B000429C200D1124422E689455F8E5CF8E327C
:1057C00029F456FCFBC0689456F8DECF8C3619F4E9
:1057D000689457F8D9CF8836B9F2982F9F7D9554A1
:1057E0009330C0F08336A1F18337C1F1833509F0DE
:1057F0005BC0D801CD90DD908D016B2D70E056FC23
:1058000002C06FEF7FEFC6010E944B2D5C016894D0
:1058100057F80AC00C5F1F4FEFE3E983AA24A39453
:10582000B12C6401E89457F853FC04C04A141B04DB
:1058300009F018F5342CA114B10431F5332009F422
:1058400069CFB70180E290E00E94612D3A94F6CFD3
:10585000D8018C9189830E5F1F4FE0CFF801C19072
:10586000D1908F016B2D70E056FC02C06FEF7FEF7F
:10587000C6010E94562D5C01D5CFB70180E290E0B1
:105880000E94612D4A94D2CFF60157FC859157FEB4
:1058900081916F01B70190E00E94612D31103A941F
:1058A000B1E0AB1AB108C7CF843619F0893609F0D8
:1058B00074C0F80157FE6AC0619171918191919114
:1058C0008F01E52DEF76DE2E97FF09C0909580952C
:1058D000709561957F4F8F4F9F4F6894D7F82AE05E
:1058E00030E0A4010E94912DC82EC818AC2C5D2C6C
:1058F000D6FE0CC0E89450F8CB1440F4D4FE05C09A
:10590000D2FC03C05D2D5E7E552EAB2C54FE98C09C
:10591000FE01EC0DF11D8081803309F08AC0652DF8
:10592000697E562E752D7870372E53FC98C050FE28
:1059300092C0BC2CA41418F44C0CB42CBA1854FE0D
:1059400094C0B70180E390E00E94612D52FE09C02F
:1059500088E790E051FE02C088E590E0B7010E9420
:10596000612DCB1408F48DC0CA94D12C8FEFC81AC6
:10597000D80AC80CD91CD6018E916D01B70190E0F0
:105980000E94612D8C149D04B1F758CF61917191E3
:10599000072E000C880B990B93CFD52CE894D4F8E4
:1059A0002AE030E0853739F1F52DF97FDF2E803799
:1059B000A9F058F48835A9F08F36D9F0F70186811F
:1059C00097812F96E2E10C940B2E8837B9F7D4FE1D
:1059D00002C06894D2F820E130E00DC06894D4F899
:1059E000F6CF54FE03C02F2F2660D22E20E132E0E6
:1059F00002C028E030E0F801D7FE15C04191519176
:105A0000619171914C875D876E877F878F01A401BB
:105A10006C857D858E859F850E94912DC82EC81826
:105A2000E894D7F863CF81919191AC0170E060E088
:105A3000E9CF52FC02C0A39475CFA394A39472CF74
:105A4000852D867809F46ECFF6CFB70180E290E01D
:105A50000E94612DA394A414C0F3312C70CF342C78
:105A60003A18A41408F46BCFF8CF852D867809F482
:105A700078CF8BE251FE80E257FC8DE2B70190E0D7
:105A80006ECFB70180E390E00E94612DBA9469CF98
:105A90008FEF9FEF96CFFC01059061507040011091
:105AA000D8F7809590958E0F9F1F0895FC01615047
:105AB000704001900110D8F7809590958E0F9F1F30
:105AC00008950F931F93CF93DF93182F092FEB01A6
:105AD0008B8181FD09C01FEF0FEF812F902FDF9188
