:100000000C941F070C94841D0C943C070C943C0723
:100010000C943C070C943C070C943C070C943C0754
:100020000C943C070C943C070C945E0E0C943C071B
:100030000C943C070C943C070C943C070C943C0734
:100040000C943C070C943C070C943C070C943C0724
:100050000C943C070C943C070C943C070C943C0714
:100060000C943C070C943C0752656164792E0D0A90
:10007000004D6F756E74206661696C65640D0A00D1
:100080004641543132204F4B0D0A004D6F756E744E
:100090002046415431322E2E2E0D0A004E6F206420
:1000A00069736B20696E2064726976650D0A00447D
:1000B00072697665204F4B0D0A004E6F206472699D
:1000C0007665210D0A00466C6F70707920696E6943
:1000D000742E2E2E0D0A00436F6D7072657373209F
:1000E0004F4B0D0A00466173746C6F6164204F4B77
:1000F0000D0A00494543206465766963652023380D
:100100000D0A0037344843353935204F4B0D0A006E
:100110005352414D204F4B0D0A000D0A3D3D3D20ED
:1001200036346B6F727070752076312E3020284E09
:10013000616E6F2B5352414D29203D3D3D0D0A000C
:100140000D0A0020455252005B4449534B5D207715
:10015000726974652072633D000D0A0020523D00F3
:1001600020533D0020543D005B4449534B5D2077B4
:1001700072697465204C42413D000D0A00204552D1
:1001800052005B4449534B5D207265616420726389
:100190003D000D0A0020523D0020533D0020543DFB
:1001A000005B4449534B5D2072656164204C4241C1
:1001B0003D003031323334353637383941424344EB
:1001C000454600204641494C210D0A00204F4B0D69
:1001D0000A002072656164203078005B5352414D03
:1001E0005D20746573743A2077726F74652030787F
:1001F000005B5352414D5D20696E69742053504934
:100200002E2E2E0D0A00202F4F453D4F4E0D0A0079
:100210005B53525D2064656661756C743D30780097
:100220005B53525D20696E69740D0A005B464C5049
:100230005D207772697465204F4B0D0A005B464C58
:10024000505D204D464D20777269746520464149C6
:100250004C0D0A005B464C505D204D464D20777298
:100260006974652E2E2E0D0A005B464C505D20777A
:10027000726974653A207365656B206661696C65A7
:10028000640D0A005B464C505D20777269746520EE
:100290004552523A2077726974652070726F7465A6
:1002A00063746564210D0A005B464C505D207772D3
:1002B000697465204552523A206261642073656317
:1002C000746F720D0A000D0A0020523D0020533D4C
:1002D000005B464C505D20777269746520543D0088
:1002E0000D0A005B464C505D2072656164204F4BE7
:1002F0002C2066697273742062797465733A2000E9
:100300005B464C505D204D464D206465636F6465CF
:10031000204641494C0D0A002E2E2E0D0A005B4648
:100320004C505D204D464D206465636F64652052DE
:100330003D005B464C505D204D464D20636170741E
:10034000757265204F4B0D0A000D0A005B464C503C
:100350005D204D464D206361707475726520464185
:10036000494C2072633D005B464C505D204D464D2C
:1003700020636170747572652E2E2E0D0A005B4627
:100380004C505D20726561643A207365656B206630
:1003900061696C65640D0A000D0A005B464C505D96
:1003A0002057503D005B464C505D207265616420D3
:1003B0004552523A2062616420736563746F720D16
:1003C0000A000D0A0020523D0020533D005B464CC0
:1003D000505D207265616420543D000D0A005B464B
:1003E0004C505D20736964653D000D0A002D3E543C
:1003F000005B464C505D207365656B2054005B4686
:100400004C505D207365656B3A206E6F7420696E89
:10041000697469616C697A65642C20726563616CCA
:100420006962726174696E670D0A000D0A00203EF0
:100430003D20005B464C505D207365656B20455246
:10044000523A20747261636B2000202D3E20646953
:10045000736B204E4F542050524553454E540D0A55
:1004600000202D3E206469736B2050524553454E49
:10047000540D0A00205750543D005B464C505D20FF
:100480006469736B20636865636B3A2044534B4324
:1004900048473D005B464C505D204552523A20543F
:1004A000524B3030206E6F7420666F756E64206121
:1004B00066746572203835207374657073210D0A77
:1004C000002073746570730D0A005B464C505D200C
:1004D00054524B303020666F756E642061667465CF
:1004E0007220005B464C505D20726563616C6962EE
:1004F000726174653A207365656B696E672074720A
:1005000061636B20302E2E2E0D0A005B464C505D31
:10051000206D6F746F72204F46460D0A005B464C8B
:10052000505D206D6F746F72207370696E2D7570E1
:100530002074696D656F757420286E6F202F52448A
:10054000415441290D0A000D0A005B464C505D20C4
:100550005741524E494E473A207369676E616C208D
:10056000746F6F20666173742C206E6F6973653FC2
:10057000206176673D002028657870656374656446
:10058000207E313030292E20436865636B20313264
:100590005620737570706C792E0D0A005B464C50B6
:1005A0005D205741524E494E473A206D6F746F722D
:1005B00020746F6F20736C6F7721206176673D0028
:1005C000207469636B730D0A006D732C206176676C
:1005D00020696E74657276616C3D005B464C505DBF
:1005E000206D6F746F72207265616479206166742A
:1005F000657220005B464C505D206D6F746F7220F9
:100600004F4E2C2077616974696E6720666F722087
:1006100073706565642E2E2E0D0A000D0A005B4670
:100620004C505D20696E697420646F6E652C205398
:10063000523D3078000D0A002044534B4348473D5B
:1006400000205750543D005B464C505D20696E7051
:100650007574733A2054524B30303D005B464C5019
:100660005D20696E6974204750494F2E2E2E0D0A69
:10067000005B4D464D5D20736563746F722073633C
:10068000616E2074696D656F75740D0A000D0A0046
:1006900020617420543D005B4D464D5D20666F75B2
:1006A0006E6420736563746F7220002E2E2E0D0A07
:1006B000005B4D464D5D207363616E20666F722056
:1006C000736563746F7220005B4D464D5D207772D9
:1006D000697465204F4B0D0A000D0A0020523D0041
:1006E00020533D005B4D464D5D2077726974652057
:1006F000543D00206E6F7420666F756E640D0A00A5
:100700005B4D464D5D206465636F646520464149DD
:100710004C3A20736563746F7220005B4D464D5DEB
:10072000206465636F6465204F4B2C203531322087
:1007300062797465730D0A000D0A00204D4154431F
:1007400048210D0A00204E3D0020523D0020533D1F
:10075000005B4D464D5D204944414D3A20543D00DB
:100760000D0A005B4D464D5D206D61726B3D30782A
:10077000000D0A002040005B4D464D5D2053594E50
:10078000432120636F756E743D000D0A003A20000E
:100790000D0A5B4D464D5D20707265616D626C6542
:1007A000204000207061636B730D0A002C2073637E
:1007B000616E20005B4D464D5D206465636F64652E
:1007C00020736563746F7220000D0A000D0A002902
:1007D0003A0D0A005B4D464D5D20726177207469C9
:1007E000636B732028666972737420000D0A002001
:1007F000696E763D002034543D002033543D005B4B
:100800004D464D5D20686973742032543D005B4D48
:10081000464D5D20636170747572652054494D4585
:100820004F5554210D0A006D730D0A00207061634D
:100830006B732C20005B4D464D5D206361707475B9
:1008400072653A20005B4D464D5D206361707475A2
:1008500072652073746172740D0A000D0A00206DB8
:100860006F643D002077726974653D005B464154BA
:100870005D20636C6F73653A20706F733D000D0AE5
:10088000002073697A653D005B4641545D206F70BE
:10089000656E65643A20636C75737465723D005BC8
:1008A0004641545D2066696C65206E6F7420666FEA
:1008B000756E640D0A00270D0A005B4641545D20E9
:1008C0006F70656E5F726561642027005B464154FE
:1008D0005D206D6F756E74204F4B0D0A000D0A0080
:1008E0005B4641545D20464154312072656164206D
:1008F0004641494C20617420736563746F72200017
:1009000020736563746F7273292E2E2E0D0A005B9F
:100910004641545D2072656164696E6720464154AA
:10092000312028005B4641545D206E6F20626F6F5E
:1009300074207369672C2064656661756C74206C23
:100940006162656C0D0A000D0A00272073657269EB
:10095000616C3D3078005B4641545D206C6162659E
:100960006C3D27005B4641545D204552523A20734E
:1009700070633D3D300D0A005B4641545D20455299
:10098000523A206E666174213D320D0A005B464189
:10099000545D204552523A20627073213D35313208
:1009A0000D0A000D0A00207369673D30780020723F
:1009B0006F6F743D002068656164733D0020737043
:1009C000743D005B4641545D204250423A207370B2
:1009D000663D000D0A00206D656469613D30780058
:1009E00020746F743D00206E6661743D002073704A
:1009F000633D005B4641545D204250423A206270A4
:100A0000733D005B4641545D206D6F756E743A20F6
:100A1000626F6F7420736563746F722072656164B6
:100A2000204641494C0D0A005B4641545D206D6FE4
:100A3000756E743A2072656164696E6720626F6FCB
:100A40007420736563746F722E2E2E0D0A005B4640
:100A500041545D20616C7265616479206D6F756EC3
:100A60007465640D0A005B4945435D206C697374CD
:100A7000656E20454F490D0A00270D0A005B494568
:100A8000435D2066696C656E616D653D27005B495D
:100A900045435D206C697374656E207265637620D2
:100AA0006661696C0D0A005B4945435D2041544E07
:100AB00020647572696E67206C697374656E0D0AC7
:100AC000000D0A005B4945435D206C697374656ED7
:100AD000696E6720666F7220646174612053413DC6
:100AE000005B4945435D20666173746C6F616420EF
:100AF0006163746976650D0A005B4945435D204179
:100B0000544E2072656C65617365642C2064657455
:100B100065637420666173746C6F61640D0A0020F4
:100B20003F3F0D0A000D0A0020434C4F5345205310
:100B3000413D000D0A00204F50454E2053413D00DD
:100B40005B4945435D202D3E2054414C4B45520DA1
:100B50000A000D0A002054414C4B2023005B4945FC
:100B6000435D202D3E204C495354454E45520D0ABD
:100B7000000D0A00204C495354454E2023002055B7
:100B80004E54414C4B0D0A0020554E4C4953544590
:100B90004E0D0A005B4945435D20636D643D30782E
:100BA000005B4945435D2041544E206279746520C5
:100BB00072656376206661696C0D0A005B49454386
:100BC0005D2041544E0D0A005B4945435D20746130
:100BD0006C6B3A206E6F20646174612C2072656CBE
:100BE000656173650D0A005B4945435D2074616C66
:100BF0006B3A20454F492C20646F6E650D0A005BEF
:100C00004945435D2074616C6B3A2073656E6420C6
:100C10006661696C65640D0A005B4945435D20723D
:100C200065696E697420646F6E652C2072656164FD
:100C3000790D0A005B4945435D206D6F756E742028
:100C40006661696C65640D0A005B4945435D204639
:100C500041543132204F4B0D0A005B4945435D2022
:100C60006D6F756E742046415431322E2E2E0D0A52
:100C7000005B4945435D206E6F206469736B20699A
:100C80006E2064726976650D0A005B4945435D20FC
:100C90006472697665204F4B0D0A005B4945435DE0
:100CA000206E6F206472697665210D0A005B4945EC
:100CB000435D2072657365742072656C6561736550
:100CC000642C207265696E697420666C6F7070792F
:100CD0000D0A005B4945435D202A2A2A20425553CC
:100CE000205245534554202A2A2A0D0A005B4945C3
:100CF000435D20706F6C6C3A2041544E20647572D5
:100D0000696E6720776169740D0A000D0A00205230
:100D100053543D0020444154413D0020434C4B3D41
:100D2000005B4945435D206275733A2041544E3D56
:100D3000000D0A005B4945435D20696E69742064BB
:100D40006576202300270D0A005B444F535D206326
:100D50006D643A2027000D0A005B444F535D206309
:100D60006C6F73652053413D005B444F535D206FB2
:100D700070656E204F4B0D0A000D0A005B444F5307
:100D80005D2053415645206372656174652066613C
:100D9000696C65642072633D005B444F535D205372
:100DA0004156450D0A000D0A005B444F535D204C2F
:100DB0004F4144206661696C65642072633D005B4D
:100DC000444F535D204C4F41440D0A00270D0A004B
:100DD000272E27005B444F535D207061727365645A
:100DE0003A2027000D0A005B444F535D206469726E
:100DF000206C656E3D005B444F535D20646972203A
:100E00006C697374696E670D0A005B444F535D2013
:100E10004452495645204E4F542052454144590DA5
:100E20000A00270D0A002066696C653D27005B44B7
:100E30004F535D206F70656E2053413D00001124BB
:100E40001FBECFEFD8E0DEBFCDBF12E0A0E0B1E023
:100E5000EAEAF2E602C005900D92A033B107D9F795
:100E600027E0A0E3B2E001C01D92AA32B207E1F789
:100E70000E94AC080C944C310C9400001092C500F8
:100E80008FEC8093C400E0ECF0E08081826080838E
:100E900088E08093C10086E08093C200089590911D
:100EA000C00095FFFCCF8093C6000895CF93DF93D9
:100EB000EC018991811103C0DF91CF9108950E94C7
:100EC0004F07F7CFCF93DF93EC01FE01849121967A
:100ED000811103C0DF91CF9108950E944F07F5CF94
:100EE000CF93C82FE82FE295EF70F0E0EE54FE4F5D
:100EF00084910E944F07CF70EC2FF0E0EE54FE4F2C
:100F00008491CF910C944F07CF93C82F892F0E94C3
:100F100070078C2FCF910C947007CF92DF92EF92D5
:100F2000FF920F931F93CF93DF9300D000D000D098
:100F3000CDB7DEB79C01892B89F480E326960FB6E6
:100F4000F894DEBF0FBECDBFDF91CF911F910F91FF
:100F5000FF90EF90DF90CF900C944F07CE01019659
:100F60007C01FC0110E000E08AE0C82ED12C0F5F6C
:100F70001F4FC901B6010E94F12D805D8193C90107
:100F80009B010A97A0F70E0D1F1DF80182918F019A
:100F90000E944F070E151F05C1F726960FB6F8944D
:100FA000DEBF0FBECDBFDF91CF911F910F91FF909C
:100FB000EF90DF90CF900895BF92CF92DF92EF92A3
:100FC000FF920F931F93CF93DF93182FD92FF62EF5
:100FD000072F64E270E00E94F12D6B0162E170E086
:100FE0000E94F12DE62EB72EC1E0C80F81EA91E0F4
:100FF0000E946207812F9D2F0E948D078DE991E04D
:101000000E946207C60199270E948D0789E991E035
:101010000E9462078E2D9B2D0E948D0785E991E02D
:101020000E9462078C2F90E00E948D0782E991E078
:101030000E9462072F2D302F4C2F6E2D8C2D0E9479
:10104000730CEC0182E891E00E946207CE01D7FFA9
:1010500004C0882799278C1B9D0B0E948D07D7FF02
:1010600004C08DE791E00E9462078AE791E00E9448
:101070006207CE01DF91CF911F910F91FF90EF900A
:10108000DF90CF90BF900895BF92CF92DF92EF9202
:10109000FF920F931F93CF93DF93182FD92FF62E24
:1010A000072F64E270E00E94F12D6B0162E170E0B5
:1010B0000E94F12DE62EB72EC1E0C80F88E691E020
:1010C0000E946207812F9D2F0E948D0784E691E088
:1010D0000E946207C60199270E948D0780E691E071
:1010E0000E9462078E2D9B2D0E948D078CE591E05A
:1010F0000E9462078C2F90E00E948D0789E591E0A5
:101100000E9462072F2D302F4C2F6E2D8C2D0E94A8
:101110002B0DEC0188E491E00E946207CE01D7FF1D
:1011200004C0882799278C1B9D0B0E948D07D7FF31
:1011300004C083E491E00E94620780E491E00E9491
:101140006207CE01DF91CF911F910F91FF90EF9039
:10115000DF90CF90BF900895F894569A5E980E94C1
:101160003E078AE191E00E9462070E94A02D0E9442
:10117000CA0980E191E00E9462070E943E0A83E072
:1011800091E00E9462070E944F0E83EF90E00E9460
:10119000620788E00E94E01E0E94F1210E949E28C2
:1011A0000E94C9290E94302A0E94A32A85EE90E05D
:1011B0000E9462070E94E62C87ED90E00E94620781
:1011C00078940E948F0A86EC90E00E9462070E9449
:1011D000D90A0E94800B892B81F08AEB90E00E9453
:1011E000620720E040E061E071E08AE40E94B91EFD
:1011F00085E090E00E94A62D22C08FEA90E00E9438
:1012000062070E94BA0B81110EC08CE990E00E9427
:10121000620720E040E061E071E08AE40E94B91ECC
:1012200086E090E0E7CF8BE890E00E9462070E94A2
:101230002C15892B89F480E890E00E9462070E94B7
:10124000720B88E690E00E94620790E080E00E94C6
:10125000A62D0E94611FFDCF81E790E0D8CF8EBD03
:101260000DB407FEFDCF8EB50895CF93C62F872FFF
:101270000E942F098C2FCF910C942F09CF92DF92CF
:10128000EF92FF920F931F93CF93DF936B01D82FB1
:10129000C92F7A0189012A9883E00E942F09B6019B
:1012A0008D2F9C2F0E943509E7010E0D1F1DC017C1
:1012B000D10751F42A9ADF91CF911F910F91FF909E
:1012C000EF90DF90CF90089580E00E942F098993DE
:1012D000EECFCF92DF92EF92FF920F931F93CF93B7
:1012E000DF936B01D82FC92F7A0189012A9882E0F8
:1012F0000E942F09B6018D2F9C2F0E943509E7010E
:101300000E0D1F1DC017D10751F42A9ADF91CF91FE
:101310001F910F91FF90EF90DF90CF9008958991EA
:101320000E942F09EFCF0F931F93CF93DF938B0171
:10133000D82FC92F2A9883E00E942F09B8018D2F3A
:101340009C2F0E94350980E00E942F092A9ADF9184
:10135000CF911F910F910895FF920F931F93CF93F9
:10136000DF93F62E072F182FD92FC42F2A9882E04B
:101370000E942F096F2D702F812F9D2F0E943509FC
:101380008C2F0E942F092A9ADF91CF911F910F91E4
:10139000FF900895CF9381EF91E00E94620784B19E
:1013A0008C6284B924982A9A80E58CBD8DB58160C1
:1013B0008DBD2A9881E00E942F0980E40E942F09A8
:1013C0002A9A45EA60E070E0CB010E94AC0960E037
:1013D00070E0CB010E949309C82F8BED91E00E9431
:1013E000620785EA0E94700782ED91E00E94620721
:1013F0008C2F0E9470078CEC91E0C53A11F083ECC1
:1014000091E0CF910C9462070F931F93CF93DF93DA
:101410008B01D82FC92F2A9882E00E942F09B8018A
:101420008D2F9C2FDF91CF911F910F910C94350937
:101430002A9A08950F931F93CF93DF938B01D82F90
:10144000C92F2A9883E00E942F09B8018D2F9C2F65
:10145000DF91CF911F910F910C9435091EBC0DB4F3
:1014600007FEFDCF8EB508952A9A809300018EBDA8
:101470000DB407FEFDCF5E9A5E98089580E292E07B
:101480000E946207569A5E988FEF809300010E9437
:10149000340A3B9A439880E192E00E94620780916F
:1014A00000010E94700786E092E00C94620721E040
:1014B00030E001C0220F8A95EAF720958091000163
:1014C0008223809300010C94340A21E030E001C0B3
:1014D000220F8A95EAF780910001822B8093000108
:1014E0000C94340A8823B9F085E00E94570A85E3FA
:1014F0008A95F1F7000086E00E94570A90E19A95DC
:10150000F1F786E00E94650A8FED9EE20197F1F700
:1015100000C00000089585E00E94650AE8CFCF93DF
:101520008CE596E00E94620787B1887F87B988B111
:10153000876088B92098579A5F9A219A85EF0E9410
:10154000340AC6B187E496E00E9462078CE4C0FDCD
:1015500088E40E944F0781E496E00E9462078CE4D1
:10156000C1FD88E40E944F0788E396E00E9462076D
:101570008CE4C2FD88E40E944F0785E396E00E9458
:1015800062071092300210923102109232021092D1
:10159000330210923402109235028EE196E00E94DE
:1015A000620785EF0E9470078BE196E0CF910C9463
:1015B0006207CF92DF92EF92FF920F931F93CF9328
:1015C000DF9380913202811169C084EF95E00E941F
:1015D000620782E00E94570A84E00E94570A299A13
:1015E0002091860030918700D0E0C0E090E0C12CCF
:1015F000D12C760160E2EFE9FFE03197F1F700C00E
:101600000000B59B54C04091860050918700FA01BC
:10161000E21BF30B9F0166BBB897E13AF10508F0B6
:1016200048C0C20ED31EE11CF11C9F5F81E09031C7
:1016300008F480E09A012196C83EF3E0DF0709F440
:101640003FC08823C1F284E0F694E794D794C7940E
:101650008A95D1F786018BED95E00E946207CE0155
:101660000E948D0789EC95E00E946207C6010E94E6
:101670008D0780EC95E00E9462070B3A110528F176
:101680008CE995E00E946207C6010E948D0786E7FB
:1016900095E00E94620781E080933202DF91CF9152
:1016A0001F910F91FF90EF90DF90CF90089580E011
:1016B000C2CF80E09A01C12CD12C760190E0BBCF43
:1016C0008111C1CF8DE195E0E4CF0233110518F708
:1016D0008AE495E00E946207C6010E948D0787E4B4
:1016E00095E0D7CF8BE095E00E94620782E00E94F0
:1016F000650A84E00E94650A1092320229980895D2
:101700001F93CF93DF9383EE94E00E946207D0E0B3
:10171000C0E0309921C01092300281E08093350200
:101720001FE08FE99FE00197F1F700C000000E94E1
:10173000A6211150B1F78AEC94E00E946207CE0115
:101740000E948D0781EC94E00E94620790E080E0A7
:10175000DF91CF911F91089580E00E94720A219637
:10176000C535D105B1F684E994E00E9462078FEF98
:101770009FEFEECFCF93DF9386B1D82FD47082FB4B
:10178000CC27C0F9C093330286B18695817091E071
:101790008927809334028AE794E00E9462078CE4F0
:1017A000D11188E40E944F0784E794E00E94620709
:1017B0008091340281110FC08EE40E944F0781E6B0
:1017C00094E0D11102C08AE494E00E9462078C2F59
:1017D000DF91CF91089589E5F0CFCF93C82F803561
:1017E000C0F083E394E00E9462078C2F90E00E9497
:1017F0008D078EE294E00E94620780E590E00E94EF
:101800008D078BE294E00E9462078EEF9FEFCF91ED
:10181000089580913502882359F1809130028C1708
:10182000A9F081EF93E00E9462078091300290E07E
:101830000E948D078DEE93E00E9462078C2F90E04E
:101840000E948D078AEE93E00E9462078091300229
:10185000C81317C0CFE08FE99FE00197F1F700C0F0
:1018600000000E94A621C150B1F790E080E0CFCFE8
:101870008EEF93E00E9462070E94800B009769F24E
:10188000C6CF8C1748F481E00E94720A8091300222
:101890008F5F80933002DACF80E00E94720A8091DD
:1018A00030028150F6CFCF93C82F8EED93E00E9487
:1018B00062078C2F90E00E948D078BED93E00E94D1
:1018C000620780E0CC2361F00E94570AC093310286
:1018D0008FE891E00197F1F700C00000CF910895E3
:1018E0000E94650AF3CFCF92DF92EF92FF920F939F
:1018F0001F93CF93DF93C82FE62EF42E89018DEC32
:1019000093E00E9462078C2F90E00E948D0789EC83
:1019100093E00E9462078E2D90E00E948D0785EC77
:1019200093E00E946207CF2CD12CC6010E948D0744
:1019300082EC93E00E9462078FEF8F0D823180F07E
:1019400085EA93E00E946207C8EFDFEFCE01DF91E6
:10195000CF911F910F91FF90EF90DF90CF9008955E
:101960000E94D90A96B19695917081E0982790933C
:1019700034028BE993E00E94620780913402811166
:101980002DC08EE40E944F0788E993E00E94620711
:101990008C2F0E94ED0BEC018EE793E0209709F06D
:1019A00057C08E2D0E94530C87E693E00E94620779
:1019B0000E94FC0EEC01892B99F08CE493E00E94CC
:1019C0006207882799278C1B9D0B0E948D0789E44D
:1019D00093E00E946207CDEFDFEFB8CF89E5D2CF69
:1019E00082E393E00E9462078EE193E00E94620727
:1019F000C6010E948D0788E193E00E946207B8014A
:101A00008F2D0E942D10EC01892B19F080E093E0BE
:101A1000E0CF83EE92E00E946207F80180810E948D
:101A2000700780E20E944F07F80181810E947007D1
:101A300080E20E944F07F80182810E94700780E2D5
:101A40000E944F07F80183810E94700780EE92E0A8
:101A50000E9462077BCFBF92CF92DF92EF92FF92FC
:101A60000F931F93CF93DF9300D000D000D0CDB75A
:101A7000DEB7D82EE62EF42EB22EC32E81ED92E0E4
:101A80000E9462078D2D90E00E948D078DEC92E000
:101A90000E9462078E2D90E00E948D0789EC92E0F3
:101AA0000E9462078F2D90E00E948D0786EC92E0E5
:101AB0000E9462078FEF8F0D8231B8F088EA92E0C2
:101AC0000E94620708EF1FEFC80126960FB6F89430
:101AD000DEBF0FBECDBFDF91CF911F910F91FF9061
:101AE000EF90DF90CF90BF9008950E94D90A31996E
:101AF00007C084E892E00E9462070BEF1FEFE4CF7B
:101B00008D2D0E94ED0B8C0189E692E001151105E7
:101B100009F58E2D0E94530C1E821D82D982EA8205
:101B2000FB8282E08C8384E592E00E9462076B2D49
:101B30007C2DCE0101960E943A128C018CE292E03B
:101B40000115110539F08DE392E00E9462070CEF58
:101B50001FEFBACF0E946207B7CFB19BFECF82E0E2
:101B600086BB80918800909189008096909389002F
:101B700080938800089580E286BB81E593ECB59B55
:101B80001DC080918600909187002091D0033091F4
:101B9000D103821B930B20918600309187003093F4
:101BA000D1032093D0038035910560F080379105F3
:101BB00058F0803A910520F482E008950197F9F6F3
:101BC00083E0089580E0089581E008955F9800C063
:101BD00000C000005F9A08950F931F93CF93DF9387
:101BE000CFE0D0E001E010E00E94AD0DC8010C2E66
:101BF00002C0880F991F0A94E2F789789474892BA0
:101C000011F00E94E60D219778F781E08093C803D8
:101C1000DF91CF911F910F910895EF92FF920F9353
:101C20001F93CF93DF9307E010E0E82EF12CE7013C
:101C3000002E02C0D595C7950A94E2F7C1700E94A4
:101C4000AD0D8091C8038C2B11F40E94E60D0E940B
:101C5000AD0DC1110E94E60DC093C80301501109DA
:101C600030F7DF91CF911F910F91FF90EF90089582
:101C7000FC01680F791FCA01E617F70709F40895F8
:101C80002191922728E0AC01880F991F57FF04C0CB
:101C900031E2832730E193272150A9F7EDCF10924D
:101CA0008000E1E8F0E081E0808380818F7B8083A9
:101CB000EFE6F0E080818F7D808308950F920FB66C
:101CC0000F921F9211242F933F934F935F938F9303
:101CD0009F93AF93BF93EF93FF9380918600909172
:101CE00087002091D0033091D103821B930B209168
:101CF0008600309187003093D1032093D003209148
:101D0000360230913702283C310590F4209136029A
:101D100030913702A9014F5F5F4F509337024093D4
:101D20003602220F331FF901E85CFD4F9183808357
:101D30008035910508F45AC08037910508F458C0E1
:101D4000803A910508F456C083E02091CB0394E0DB
:101D5000299F90011124822B8093CB038091CA0389
:101D60008F5F8093CA038091CA038430D8F080913A
:101D7000CB038EBD0DB407FEFDCF8091CC039091B7
:101D8000CD03A091CE03B091CF030196A11DB11D4B
:101D90008093CC039093CD03A093CE03B093CF0355
:101DA0001092CA038091CC039091CD03A091CE03F1
:101DB000B091CF03803C9043A105B10540F08091E4
:101DC0006F008F7D80936F0081E08093C903FF9146
:101DD000EF91BF91AF919F918F915F914F913F9103
:101DE0002F911F900F900FBE0F90189580E0ADCFF0
:101DF00081E0ABCF82E0A9CFCF92DF92EF92FF924A
:101E00000F931F93CF93DF93CDB7DEB728970FB60D
:101E1000F894DEBF0FBECDBF85E498E00E94620754
:101E20001092CC031092CD031092CE031092CF03E8
:101E30001092CB031092CA031092C903109237027A
:101E40001092360260E070E0CB010E94040AB59A5D
:101E500080918600909187009093D1038093D00366
:101E600080916F00806280936F00789410E000E0B2
:101E70008091C903811104C0043F91E01907C1F5A5
:101E800080916F008F7D80936F000E94180A85E318
:101E900098E00E9462078091CC039091CD03A091BD
:101EA000CE03B091CF030E948D078CE298E00E9490
:101EB0006207C8010E948D0787E298E00E946207CE
:101EC000043F1140F1F48EE098E00E94620787EF32
:101ED0009FEF28960FB6F894DEBF0FBECDBFDF91FF
:101EE000CF911F910F91FF90EF90DF90CF900895C9
:101EF0008FE99FE00197F1F700C000000F5F1F4FCF
:101F0000B7CFCE0101966C0188E0F60111928A9557
:101F1000E9F760E070E0CB010E941A0A8091CC03DF
:101F20009091CD03A091CE03B091CF0304EF11E0C7
:101F3000853F9140A105B10540F40091CC0310917B
:101F4000CD032091CE033091CF03F12CE12CE0168C
:101F5000F10609F047C00E94180A8FEF97E00E942F
:101F6000620789819A810E948D078AEF97E00E941B
:101F700062078B819C810E948D0785EF97E00E940C
:101F800062078D819E810E948D078FEE97E00E94EF
:101F900062078F8198850E948D078CEE97E00E94E2
:101FA000620784ED97E00E9462078091360290916B
:101FB00037020E948D078FEC97E00E94620710E0C5
:101FC00000E09CE0E92EF12C8091360290913702DE
:101FD0000817190748F189EC97E00E94620790E022
:101FE00080E077CF0E942E0A26E030E090E0FC01EE
:101FF000022E02C0F595E7950A94E2F7E370FF27F9
:10200000EE0FFF1FEC0DFD1D408151814F5F5F4FB3
:1020100051834083225031092E3F4FEF340739F767
:102020008FEFE81AF80A93CFF801EE0FFF1FE85C74
:10203000FD4F808191810E94840780E20E944F07BA
:10204000C801B7010E94F12D0B9721F48CEC97E0A9
:102050000E9462070F5F1F4FB7CF2F923F924F92A0
:102060005F926F927F928F929F92AF92BF92CF9228
:10207000DF92EF92FF920F931F93CF93DF93CDB731
:10208000DEB768970FB6F894DEBF0FBECDBF8E8B5C
:10209000698B7A8B84EB97E00E9462073E89232F3D
:1020A00030E03C8B2B8BC9010E948D078CEA97E0B6
:1020B0000E9462078091CC039091CD03A091CE0342
:1020C000B091CF030E948D0783EA97E00E946207D8
:1020D00060E070E0CB010E941A0A1D861E861F86F2
:1020E000188A1C8644244A9419861D821E821F82E7
:1020F0001886312C212C512C712C10E0F12CE12C64
:102100001D8A612C00E0812C912C54018091CC031C
:102110009091CD03A091CE03B091CF032D853E8544
:102120004F855889281739074A075B0788F00E94AE
:10213000180A80E097E00E9462078B899C890E94C0
:102140008D0783EF96E00E94620788EF9FEF65C1DD
:102150000E942E0A46E050E05B874A87A82FB0E035
:10216000B88FAF8B8F89988D0A8402C0959587951B
:102170000A94E2F78370813009F44AC0823009F48E
:1021800052C081116EC162E0880C991CAA1CBB1C54
:102190006A95D1F7689480F80E5F0F3108F00EE170
:1021A0002D813E814F8158852F5F3F4F4F4F5F4FAD
:1021B0002D833E834F835887640135E5831693064C
:1021C000E9F549854F5F49874430C8F15FEF451213
:1021D00036C08C858330A8F580E997E00E946207BD
:1021E0008D819E810E948D078DE897E00E94620795
:1021F0003EE1432EC6010E94840780E20E944F0701
:102200008FEF840D91E0491609F464C0482E19C07F
:1022100053E0880C991CAA1CBB1C5A95D1F76894F2
:1022200080F80D5FBACF44E0880C991CAA1CBB1C37
:102230004A95D1F7689480F80C5FAFCF19861414D3
:10224000CCF2E114F10409F081C0D501C401AA2740
:10225000BB2789389444A105B10539F563948D8174
:102260009E81AF81B8858035934CA105B105A0F45E
:1022700087E797E00E946207862D90E00E948D0715
:1022800084E797E00E9462078D819E810E948D07FE
:1022900081E797E00E94620732E0361530F4712C36
:1022A00010E0EE24E394F12C00E08A859B850297F0
:1022B0009B878A87029609F055CF2D853E854F85ED
:1022C00058892F5F3F4F4F4F5F4F2D873E874F8776
:1022D000588B1CCF8AE897E00E946207AC85AF5FFD
:1022E000AC87412CAECF0250D501C401002E04C0F2
:1022F000B695A795979587950A94D2F78170110F97
:10230000182B739473944FE0471500F551E0E516D0
:10231000F104F9F483E697E00E946207812F0E949E
:10232000700780E697E00E9462071E3F09F48EC0A6
:102330001B3F09F056C08D89882309F452C0312C07
:10234000212C712C10E093E0E92EF12C023058F68C
:10235000ACCF92E0E916F10409F048C0DD24D39433
:10236000D50CE1E0F0E0EC0FFD1FE50DF11D108351
:10237000A3E05D2CAD1508F071C081E597E00E94E7
:102380006207898190E00E948D078DE497E00E94AA
:1023900062078A8190E00E948D0789E497E00E949D
:1023A00062071B81812F90E00E948D0785E497E0F2
:1023B0000E9462078C8190E00E948D07BE891B13EA
:1023C0000CC08BE397E00E946207712C10E0F12CA7
:1023D000E12C21E02D8B612CB9CF88E397E00E949E
:1023E0006207712C10E0F12CE12CF5CF33E0E316FD
:1023F000F104A1F5C1010196E989FA89E20DF31D05
:102400001083811542E0940740F18BE197E00E9430
:1024100062070E94180A90E080E068960FB6F89470
:10242000DEBF0FBECDBFDF91CF911F910F91FF9007
:10243000EF90DF90CF90BF90AF909F908F907F9064
:102440006F905F904F903F902F900895512C712C7A
:1024500010E082E0E82EF12C79CF1C01712C10E005
:1024600075CF712CF12CE12C612C00E0812C912C8A
:1024700054011BCF2F923F924F925F926F927F92A7
:102480008F929F92AF92BF92CF92DF92EF92FF9284
:102490000F931F93CF93DF93CDB7DEB728970FB677
:1024A000F894DEBF0FBECDBF8C016F83788784EEBA
:1024B00096E00E946207F801808190E00E948D07FB
:1024C00080EE96E00E946207F801818190E00E9410
:1024D0008D078CED96E00E946207F801828190E002
:1024E0000E948D0789ED96E00E946207F801228024
:1024F00081EB96E00E946207822C912CC4010E941D
:102500008D078BEA96E00E94620780918600909189
:1025100087009093D1038093D003F0E84F2EF8E327
:102520005F2E66246394712C10E0C12CD12C7601AF
:10253000FC2FFB5FFE830E94BB0D8130E1F18230F6
:1025400009F441C081114EC1E2E0CC0CDD1CEE1C4F
:10255000FF1CEA95D1F76894C0F8D701C601AA27F5
:10256000BB2789389444A105B10509F03FC11F5F1D
:10257000133008F43BC100E0B12C10E00E94BB0D09
:10258000813049F1823091F1811113C052E0CC0CBD
:10259000DD1CEE1CFF1C5A95D1F76894C0F81E5F35
:1025A0008FE08B1570F5FE0131965F010E3F09F447
:1025B00087C010E01BC173E0CC0CDD1CEE1CFF1CBF
:1025C0007A95D1F7C8CF64E0CC0CDD1CEE1CFF1C63
:1025D0006A95D1F7C0CF43E0CC0CDD1CEE1CFF1C8C
:1025E0004A95D1F76894C0F81D5FDACF34E0CC0C7F
:1025F000DD1CEE1CFF1C3A95D1F76894C0F81C5FF7
:10260000CFCF1250000FD701C601012E04C0B695DE
:10261000A795979587950A94D2F78170082BB39464
:10262000B394123008F0BCCF9FE09B1508F0A6CF02
:10263000BACF93E0CC0CDD1CEE1CFF1C9A95D1F7B1
:102640006894C0F81D5F31C084E0CC0CDD1CEE1C2A
:10265000FF1C8A95D1F76894C0F81C5F26C0125001
:10266000000FD701C601012E04C0B695A795979516
:1026700087950A94D2F78170082B3394339415C050
:102680002FE02315B8F00E94BB0D813091F282300B
:10269000D9F281118ECF22E0CC0CDD1CEE1CFF1C88
:1026A0002A95D1F76894C0F81E5F123048F3FFE016
:1026B000F315A8F6F50101935F01FE81FA1519F0F3
:1026C00000E0312CE0CF8B81281273CF87E996E0B0
:1026D0000E946207C4010E948D0780E996E00E9473
:1026E0006207898190E00E948D078DE896E00E9444
:1026F00062078FEF9BE00197F1F700C0000087E0D1
:102700000E94570AF8941092C80380918400909117
:1027100085008096909389008093880082E086BB34
:102720001CE080E00E940D0E1150D9F70E94EC0DC4
:102730000E94EC0D0E94EC0D8BEF0E940D0E81EAC1
:102740008D834FEF5FEF61E070E0CE0105960E9450
:10275000380EAC0161E070E0CE0105960E94380EA3
:10276000AC0161E070E0CE0105960E94380EAC012C
:102770008BEF898361E070E0CE0101960E94380EF4
:10278000182F092FEF80F8846701EEEFDE1A57014A
:10279000FFEFEF1AFF0AF50180810E940D0E412F15
:1027A000502F61E070E0C5010E94380E182F092FEC
:1027B000EC14FD0461F7892F0E940D0E812F0E94F9
:1027C0000D0E16E38EE40E940D0E1150D9F7789489
:1027D00087E00E94650A88EC96E00E94620790E01C
:1027E00080E011C010E0C12CD12C760191E0491A93
:1027F00051086108710809F09ECE81E796E00E94B9
:10280000620787EF9FEF28960FB6F894DEBF0FBEE2
:10281000CDBFDF91CF911F910F91FF90EF90DF908F
:10282000CF90BF90AF909F908F907F906F905F9070
:102830004F903F902F9008950F931F93CF93DF9366
:1028400000D000D000D0CDB7DEB78C018091D2058A
:10285000882391F1C80196958795800F911FB0E06C
:10286000A0E09C01AD0120533F4C4F4F5F4F2B83A5
:102870003C834D835E8322E030E0AE014F5F5F4FCB
:102880006B817C818D819E810E943E0989819A8124
:1028900000FF10C024E0969587952A95E1F72696CB
:1028A0000FB6F894DEBF0FBECDBFDF91CF911F9161
:1028B0000F9108959F70F3CF90E080E0F0CFCF9319
:1028C000DF93C2E0D0E0CE010E941C14892B21F4DA
:1028D000CE01DF91CF9108952196C1328BE0D807C8
:1028E00091F78FEF9FEFF5CFEF92FF920F931F932A
:1028F000CF93DF9300D000D000D0CDB7DEB77C01FE
:102900008B018091D2058823C9F1C70196958795DF
:102910008E0D9F1DB0E0A0E09C01AD0120533F4C07
:102920004F4F5F4F2B833C834D835E8322E030E02B
:10293000AE014F5F5F4F6B817C818D819E810E94D4
:102940003E0989819A81E0FE26C08F70992724E094
:10295000000F111F2A95E1F7082B192B1A83098301
:1029600022E030E0AE014F5F5F4F6B817C818D8153
:102970009E810E94690981E08093D30526960FB657
:10298000F894DEBF0FBECDBFDF91CF911F910F91A5
:10299000FF90EF9008958827907F1F70DDCFCF9331
:1029A000DF9300D000D000D0CDB7DEB78091D20544
:1029B000882309F44EC08091D305882309F449C0C7
:1029C00021E030E03E832D8380ED90E3A0E0B0E095
:1029D00089839A83AB83BC8320E032E042ED53E0ED
:1029E00069817A818B819C810E943E0962ED73E04E
:1029F0008D819E810E944408892B59F08FEF9FEFB3
:102A000026960FB6F894DEBF0FBECDBFDF91CF91F3
:102A1000089562ED73E08D819E8109960E944408BD
:102A2000009761F729813A814B815C813E5F4F4F6E
:102A30005F4F29833A834B835C834D815E814F5F77
:102A40005F4F5E834D834A30510531F61092D305B6
:102A5000D7CF90E080E0D4CFFF920F931F93CF9316
:102A6000DF9300D000D000D0CDB7DEB78091D20583
:102A70008823A1F08EE49AE00E9462071E821D82E4
:102A80008D819E8126960FB6F894DEBF0FBECDBF16
:102A9000DF91CF911F910F91FF90089588E29AE006
:102AA0000E94620762ED73E090E080E00E94DC0724
:102AB000892B39F083E09AE00E9462078FEF9FEF45
:102AC00073C083EF99E00E9462078091DD039091CB
:102AD000DE030E948D078DEE99E00E9462078091CF
:102AE000DF0390E00E948D0786EE99E00E94620766
:102AF0008091E20390E00E948D0780EE99E00E94B1
:102B000062078091E5039091E6030E948D0786EDB0
:102B100099E00E9462078091E7030E94700783EDAD
:102B200099E00E94620783EC99E00E94620780911D
:102B3000E8039091E9030E948D078DEB99E00E94D4
:102B400062078091EA039091EB030E948D0785EB69
:102B500099E00E9462078091EC039091ED030E943E
:102B60008D078EEA99E00E9462078091E3039091BD
:102B7000E4030E948D0786EA99E00E946207809133
:102B8000F8030E94700783EA99E00E94620780912F
:102B9000DD039091DE038115924049F08DE899E0C4
:102BA0000E94620788EF9FEF9E838D8369CF80919B
:102BB000E203823049F088E799E00E946207A8EFBB
:102BC000BFEFBE83AD835CCF8091DF03811103C073
:102BD00084E699E0E5CF8091F803893209F066C078
:102BE0008091F9039091FA03A091FB03B091FC034B
:102BF0008093D4059093D505A093D605B093D705BF
:102C00008BE0EDEFF3E0A8EDB5E001900D928A9531
:102C1000E1F71092E30586E599E00E94620788EDEE
:102C200095E00E9456078AE499E00E94620780912D
:102C3000D6059091D7050E9484078091D405909184
:102C4000D5050E94840787E499E00E9462078FE01F
:102C500099E00E94620789E090E00E948D0780E081
:102C600099E00E94620780ED90E3A0E0B0E08983E4
:102C70009A83AB83BC8301E010E0FF24FA94F00E4A
:102C800062ED73E0C8010E94DC078D839E83AD81F5
:102C9000BE81AB2B09F180EE98E00E9462078F2D78
:102CA00090E00E948D078DED98E006CF1092D4053C
:102CB0001092D5051092D6051092D7058BE0E1E170
:102CC000F1E0A8EDB5E001900D928A95E1F7109240
:102CD000E30584E299E0B9CF20E032E042ED53E031
:102CE00069817A818B819C810E9469090F5F1F4FE6
:102CF00089819A81AB81BC819E5FAF4FBF4F898331
:102D00009A83AB83BC830A30110509F0B6CF81E00A
:102D10008093D2051092D3058CEC98E00E94620754
:102D2000AFCE8091D205882321F00E94CF1410925B
:102D3000D20508958091D2050895AF92BF92CF92A7
:102D4000DF92EF92FF920F931F93CF93DF93D82ED2
:102D5000C92EB62EA72E7A018091D2052EEF3FEF15
:102D6000882391F103E110E062ED73E0C8010E9455
:102D7000DC07892B09F042C0C2EDD3E088818823AB
:102D8000D1F1853E69F18B8583FD2AC048E050E092
:102D90006D2D7C2DCE010E94412E892B09F543E03B
:102DA00050E06B2D7A2DCE0108960E94412E9C0199
:102DB000892BB1F4E114F10439F080E2FE01D7016E
:102DC00001900D928A95E1F7C901DF91CF911F9192
:102DD0000F91FF90EF90DF90CF90BF90AF9008954C
:102DE000A09685E0C23DD80749F60F5F1F4F01321C
:102DF000110509F0B9CF2DEF3FEFE6CF2FEF3FEFF1
:102E0000E3CFEF92FF920F931F93CF93DF938C0149
:102E1000F62EE72E8091D205811116C08EEF9FEF1E
:102E2000DF91CF911F910F91FF90EF900895253E74
:102E300059F023852F3041F020E2AF2DBE2D0190B7
:102E40000D922A95E1F7ECCFF80180819181803EC7
:102E5000910510F5EC01CF70DD2725E0CC0FDD1FCB
:102E60002A95E1F734E0969587953A95E1F762ED7A
:102E700073E043960E94DC07009789F4FE01EE524E
:102E8000FC4FD8012D913C9111972F5F3F4F2D930F
:102E90003C9320812111CBCF8DEF9FEFC1CF8FEFDE
:102EA0009FEFBECF8F929F92AF92BF92CF92DF9251
:102EB000EF92FF920F931F93CF93DF93CDB7DEB7BF
:102EC000A0970FB6F894DEBF0FBECDBF7C016B019B
:102ED0008A018AEB98E00E9462075701470188E067
:102EE000880E911CF50181915F01803229F00E94CA
:102EF0004F07A814B904B1F78EE20E944F0756019C
:102F00004601A3E08A0E911CD5018D915D018032AE
:102F100029F00E944F07A814B904B1F786EB98E096
:102F20000E946207AE014F5F5F4FB601C7010E946A
:102F30009D167C01892BC1F08FE998E00E94620701
:102F4000C701A0960FB6F894DEBF0FBECDBFDF91CC
:102F5000CF911F910F91FF90EF90DF90CF90BF9096
:102F6000AF909F908F900895F8013D9686E0DF0125
:102F70001D928A95E9F781E0F80180838B8D9C8D05
:102F800092838183948383838D8D9E8DAF8DB8A131
:102F900085839683A783B08711861286138614864D
:102FA000118A88E898E00E9462078B8D9C8D0E94B0
:102FB0008D0781E898E00E9462078D8D9E8D0E94AA
:102FC0008D078EE798E0BACF6F927F928F929F9293
:102FD000AF92BF92CF92DF92EF92FF920F931F9327
:102FE000CF93DF93EC013B016A018881882309F4C8
:102FF00088C08989811185C08091D20581117BC0EB
:103000008EEF9FEF69C08D819E8149855A8595011C
:103010002E193F09841B950B2817390708F4C9019D
:103020004601801A910A8815990508F44C01B701E8
:103030006E527C4FA401C301800F911F0E944E2E3F
:10304000080D191D89859A85AB85BC85880D991D4C
:10305000A11DB11D89879A87AB87BC87AC01BD01D3
:10306000517066277727452B462B472BA1F44D81BE
:103070005E816F81788584179507A607B70758F496
:103080008B819C810E941C149C01283F8FE0380793
:1030900010F53C832B830C151D05E8F489859A8572
:1030A000AB85BC854D815E816F81788584179507DE
:1030B000A607B70780F47C0121E0F2228B819C8176
:1030C00062ED73E04F960E94DC07892B09F49BCFD9
:1030D00001151105C1F0C801DF91CF911F910F912A
:1030E000FF90EF90DF90CF90BF90AF909F908F9028
:1030F0007F906F90089510E000E0A12C82E0B82E40
:10310000CACF89EF7ECF8FEF7CCF3F924F925F92F5
:103110006F927F928F929F92AF92BF92CF92DF92E7
:10312000EF92FF920F931F93CF93DF938C012B01AC
:103130007A01FC018081882309F490C08189882369
:1031400009F48CC08091D20581117CC08EEF9FEF75
:1031500067C0F301C50111920197E9F740C0CC0D9A
:10316000DD1DF80181859285A385B4858C0D9D1D9B
:10317000A11DB11D81879287A387B487328A917080
:10318000AA27BB27892B8A2B8B2BB1F4CE15DF0501
:1031900098F40E945F146C0197FD41C0BC01F801D6
:1031A000838194810E9474146FEF7FE0C6010E94B6
:1031B0007414F801D482C382CE15DF0580F5F801BE
:1031C00081849284F1E09F228114910411F2F8012C
:1031D0008381948162ED73E04F960E94DC07C70102
:1031E0008C1B9D0B6501C818D9088C159D0508F42A
:1031F0006C01A601B2016C0F7D1FC4018E529C4F61
:103200000E944E2EF8018381948162ED73E04F9607
:103210000E944408892B09F4A2CF209709F1CE011E
:10322000DF91CF911F910F91FF90EF90DF90CF90A2
:10323000BF90AF909F908F907F906F905F904F90D6
:103240003F900895D0E0C0E082ED682E83E0782EB4
:10325000A12C92E0B92E33243394AECF89EF77CFEF
:103260008FEF75CFCF93DF93EC018881882309F42A
:103270004EC08CE698E00E94620789859A850E947C
:103280008D0784E698E00E9462078989811124C035
:103290008EE40E944F078EE598E00E9462078A89BB
:1032A00081111CC08EE40E944F078BE598E00E94BC
:1032B00062078989882351F18A89882339F162ED6F
:1032C00073E08D859E850E94DC07892B49F08FEF86
:1032D0009FEFDF91CF91089589E5DBCF89E5E3CFBB
:1032E000EF85F889EE52FC4F89859A85AB85BC85C0
:1032F000848F958FA68FB78F62ED73E08D859E8545
:103300000E944408892B19F70E94CF14188290E07C
:1033100080E0DFCFCF92DF92EF92FF920F931F9367
:10332000CF93DF93182F092FD62EC72E8091D20569
:10333000CEEFDFEF882361F083E1E82EF12C62ED20
:1033400073E0C7010E94DC07892B61F0CFEFDFEF4C
:10335000CE01DF91CF911F910F91FF90EF90DF9001
:10336000CF900895C2EDD3E08881882309F441C04D
:10337000853E91F148E050E0612F702FCE010E9410
:10338000412E892B49F543E050E06D2D7C2DCE0177
:1033900008960E94412E892BF9F40A8D1B8DC801D5
:1033A0000297863F9F4068F085EE888362ED73E068
:1033B000C7010E944408EC01892B41F60E94CF14FA
:1033C000C7CFC8010E941C146C0170E060E0C80106
:1033D0000E9474148601E3CFA09685E0C23DD80711
:1033E00019F62FEFE21AF20A81E2E816F10409F069
:1033F000A6CFCDEFDFEFACCF5F926F927F928F922F
:103400009F92AF92BF92CF92DF92EF92FF920F9373
:103410001F93CF93DF93CDB7DEB7A0970FB6F89485
:10342000DEBF0FBECDBF882E792E662E572E8A01A5
:103430008091D205882309F49BC0AE014F5F5F4F96
:10344000882D0E949D16892B31F4662D752D882DAF
:10345000972D0E948A1993E1A92EB12C62ED73E099
:10346000C5010E94DC07892BC1F08FEF9FEFA0966A
:103470000FB6F894DEBF0FBECDBFDF91CF911F9185
:103480000F91FF90EF90DF90CF90BF90AF909F9003
:103490008F907F906F905F90089582EDE82E83E08B
:1034A000F82E912CF7018081811108C00E945F14D1
:1034B0006C0197FF17C08AEF9FEFD9CF853EB1F31C
:1034C0009394F0E2EF0EF11C40E19412EBCF8FEFFA
:1034D000A81AB80A91E2A916B10409F0BFCF8BEF80
:1034E0009FEFC5CF6FEF7FE00E94741480E2F70179
:1034F000482F11924A95E9F798E0E82DF72DD7016A
:1035000001900D929A95E1F7D701189693E0E62D78
:10351000F52D01900D929A95E1F7F7018387D38EEF
:10352000C28E148E158E168E178E62ED73E0C50155
:103530000E944408009709F098CF21E0F801208309
:10354000D282C182D482C3821582168217821086EB
:103550001186128613861486218B128AB686A5865A
:10356000F0E29F9E90011124F801308B27877FCFD6
:103570008EEF9FEF7CCF4F925F926F927F928F92F0
:103580009F92AF92BF92CF92DF92EF92FF920F93F2
:103590001F93CF93DF93CDB7DEB7A0970FB6F89404
:1035A000DEBF0FBECDBF782E692E562E472ED42EED
:1035B000C52EB22EA32E8091D205882309F480C097
:1035C000AE014F5F5F4F622F732F8D2D9C2D0E9498
:1035D0009D16892B09F477C083E1E82EF12C62ED6A
:1035E00073E0C7010E94DC07892B09F06FC002ED70
:1035F00013E0F8018081882309F45FC0853E09F457
:103600004DC048E050E0672D762DC8010E94412E44
:10361000892B09F043C04801F8E08F0E911C43E06C
:1036200050E0652D742DC4010E94412E892BB1F507
:1036300088E0ED2DFC2DD80101900D928A95E1F7DF
:1036400083E0EB2DFA2DD40101900D928A95E1F7DC
:1036500062ED73E0C7010E94440821E030E0892B4D
:1036600011F430E020E088279927821B930BA09665
:103670000FB6F894DEBF0FBECDBFDF91CF911F9183
:103680000F91FF90EF90DF90CF90BF90AF909F9001
:103690008F907F906F905F904F900895005E1F4FC6
:1036A00085E0023D180709F0A4CFEFEFEE1AFE0AFD
:1036B000F1E2EF16F10409F092CF8DEF9FEFD7CF33
:1036C0008EEF9FEFD4CF8CEF9FEFD1CF8FEF9FEF97
:1036D000CECF0F931F93CF93DF9300D000D0CDB701
:1036E000DEB78091D205882399F102E010E01A82BA
:1036F0001982C8010E941C14892B31F429813A8156
:103700002F5F3F4F3A8329830F5F1F4F01323BE00A
:10371000130779F749815A81B0E0A0E09A01AD0121
:1037200089E0220F331F441F551F8A95D1F7298343
:103730003A834B835C8369817A818B819C810F9072
:103740000F900F900F90DF91CF911F910F910895DF
:1037500019821A821B821C82EECFAF92BF92CF9247
:10376000DF92EF92FF920F931F93CF93DF9300D0DE
:1037700000D000D0CDB7DEB78D839E8380E092E08D
:10378000E2EDF3E0DF019C011D9221503040E1F7B2
:103790002BEE2093D2032CE32093D30320E9209334
:1037A000D40328E0EDE1F1E0A5EDB3E001900D9246
:1037B0002A95E1F79093DE038093DD0381E0809307
:1037C000DF0381E090E09093E1038093E00382E0E7
:1037D0008093E20380EE90E09093E4038093E30310
:1037E00080E49BE09093E6038093E50380EF809371
:1037F000E70389E090E09093E9038093E80382E196
:1038000090E09093EB038093EA0382E090E0909342
:10381000ED038093EC0389E28093F8038EEE9FEF33
:10382000A0ECB4E68093F9039093FA03A093FB0312
:10383000B093FC038D819E81892B09F4CCC08BE071
:10384000ED81FE81ADEFB3E001900D928A95E1F735
:1038500088E0E2E3F1E0A8E0B4E001900D928A95FF
:10386000E1F785E58093D0058AEA8093D10562ED82
:1038700073E090E080E00E944408892B09F0AFC01B
:1038800001E010E080ED90E3A0E0B0E089839A834E
:10389000AB83BC8382EDC82E83E0D82EA12C92E0AE
:1038A000B92E20EFE22EFF24FA94D601F5011D92E5
:1038B0003197E9F7013031F4E092D203F092D3036B
:1038C000F092D40362ED73E0C8010E944408892B92
:1038D00009F085C062ED73E0C80109960E944408B2
:1038E000892B09F07CC020E032E042ED53E0698191
:1038F0007A818B819C810E94690989819A81AB813F
:10390000BC819E5FAF4FBF4F89839A83AB83BC83DB
:103910000F5F1F4F0A30110541F6E2EDF3E080E042
:1039200092E0DF019C011D9221503040E1F78D8132
:103930009E81892BB9F088E0ED81FE81A2EDB3E094
:1039400001900D928A95E1F7ED81FE818085918548
:10395000A2858093DA039093DB03A093DC0388E0D5
:103960008093DD0362ED73E083E190E00E94440800
:10397000892BA9F5E2EDF3E080E092E0DF019C0104
:103980001D9221503040E1F784E190E09A838983D1
:1039900062ED73E089819A810E944408892BF9F4D1
:1039A000A981BA811196BA83A983919789F7109258
:1039B000D20526960FB6F894DEBF0FBECDBFDF91BD
:1039C000CF911F910F91FF90EF90DF90CF90BF901C
:1039D000AF900C942C158BE0E6E2F1E033CF8FEF43
:1039E0009FEF26960FB6F894DEBF0FBECDBFDF91D6
:1039F000CF911F910F91FF90EF90DF90CF90BF90EC
:103A0000AF9008958F929F92AF92BF92CF92DF9224
:103A1000EF92FF920F931F93CF93DF936C014B01B3
:103A20007A0148E050E060E270E0C4010E94572E45
:103A300043E050E060E270E0C7010E94572E56015B
:103A40009601E90188812F5F3F4F81110BC0F6017C
:103A500001900020E9F731978F010C191D09D0E082
:103A6000C0E007C08E3269F78E010C191D0920973E
:103A700071F30930110514F008E010E06401912C95
:103A8000812C8016910614F12097A9F12196DE0170
:103A90000D900020E9F711978701AC1BBD0BA430F6
:103AA000B10514F0A3E0B0E0EA0EFB1E0E151F05F1
:103AB000D1F4DF91CF911F910F91FF90EF90DF90A4
:103AC000CF90BF90AF909F908F900895F501819116
:103AD0005F0190E00E94392EF60181936F01FFEFA4
:103AE0008F1A9F0ACECF899190E00E94392EF8015B
:103AF00081938F01DBCF83E0EBE3F1E0D70101900D
:103B00000D928A95E1F7D5CF8F93549A5C9881E016
:103B10008093E5058F91189553985B9A54985C9A19
:103B20000895FC011082549A5C988FE391E001970C
:103B3000F1F700C0000081E197E24B9B18C0549858
:103B40005C9A90E080E061E070E021E137E24B991F
:103B500018C04C9B09C02081AB01082E01C0440F46
:103B60000A94EAF7242B208321E137E21BC025E0E9
:103B70002A95F1F70000019701F754985C9A80E0CC
:103B8000089545E04A95F1F7000021503109F9F612
:103B90000E948C1DF4CF45E04A95F1F700002150BA
:103BA0003109B1F34B9BF7CF01968830910569F647
:103BB000549A5C988FE891E00197F1F700C00000FB
:103BC00081E00895FC01DB0110821C9254985C9AFC
:103BD00089EC90E04B9B16C025E02A95F1F7000098
:103BE000019709F581E08C93549A5C988FEE90E0F0
:103BF0000197F1F700C0000054985C9A81E197E2C8
:103C00004B9907C090E080E061E070E021E137E28D
:103C100014C025E02A95F1F70000019789F70E946A
:103C20008C1D80E008954A99D5CFF9CF45E04A959B
:103C3000F1F700002150310991F34B99F7CF4C9BDC
:103C400009C02081AB01082E01C0440F0A94EAF795
:103C5000242B208321E137E207C045E04A95F1F7A4
:103C6000000021503109D9F24B9BF7CF01968830E3
:103C7000910561F6549A5C9881E00895539A5B9897
:103C800054985C9AEFE3F1E03197F1F700C000003F
:103C900021E137E24C9B45C0662391F053985B9A33
:103CA00021E137E24C9949C021E137E24C9B4EC0FB
:103CB000539A5B98EFE3F1E03197F1F700C0000011
:103CC00030E020E090E0AC01022E02C0559547950F
:103CD0000A94E2F740FF43C054985C9AEFEEF0E09C
:103CE0003197F1F700C0000053985B9AEFEEF0E0D7
:103CF0003197F1F700C00000539A5B982F5F3F4F58
:103D00002830310501F754985C9A81E197E24C998B
:103D100029C08FE891E00197F1F700C0000081E031
:103D20000895F5E0FA95F1F700002150310911F4FA
:103D300080E008954A99AECFFBCF95E09A95F1F7D0
:103D400000002150310909F0ADCFF2CFE5E0EA954E
:103D5000F1F700002150310909F0A8CFE9CF549ABA
:103D60005C98BCCFF5E0FA95F1F70000019779F681
:103D7000DFCFEF920F931F93CF93DF938093C9060A
:103D800090E3E92E0AEC16E00E940122EC01803457
:103D9000910514F0C0E4D0E0AE0155276AEC76E05E
:103DA00086E896E00E944E2EC093C6061092C70683
:103DB0001092C806DF91CF911F910F91EF90089557
:103DC000CF93C82F84E39DE00E9462078C2F90E080
:103DD0000E948D0781E39DE00E946207C093E60583
:103DE0001092E8051092E7051092E5058AB1837CF0
:103DF0008AB98BB18C638BB9809169008C7F8260AA
:103E00008093690081E08CBBE89AC9B181E29DE0B2
:103E10000E9462078CE4C2FD88E40E944F078BE198
:103E20009DE00E9462078CE4C3FD88E40E944F0776
:103E300084E19DE00E9462078CE4C4FD88E40E9456
:103E40004F078EE09DE00E9462078CE4C5FD88E488
:103E50000E944F078BE09DE00E946207EBEEF5E0C9
:103E60008EEDDF011D928A95E9F720E040E06FE3D7
:103E700071E089E4CF910C94B91ECF93DF93EC01EC
:103E8000DB01E091C7068091C606E81730F081E0BB
:103E90008C9380E0DF91CF91089581E08E0F809325
:103EA000C706F0E0E65AF94F84A5888381E02091A7
:103EB000C7069091C606291708F480E08C9381E02C
:103EC000E9CFCF92DF92EF92FF920F931F93CF93A0
:103ED000DF9300D00F92CDB7DEB78091E4054D9906
:103EE00023C0811115C081E08093E40583ED9CE03F
:103EF0000E9462071092E8051092E7050E948C1D4F
:103F00000E94720B0E9491160E94F1210E94EA28E1
:103F10000F900F900F90DF91CF911F910F91FF9015
:103F2000EF90DF90CF900895882309F45BC0109242
:103F3000E4058DEA9CE00E9462070E94D90A0E9473
:103F4000800B892B91F08BE99CE00E94620720E0B6
:103F500040E061E071E08AE40E94B91E85E090E0F3
:103F60000E94A62D0E94720BD3CF8AE89CE00E948B
:103F700062070E94BA0B81110EC081E79CE00E948B
:103F8000620720E040E061E071E08AE40E94B91E2F
:103F900086E090E0E5CF8AE59CE00E9462070E94FF
:103FA0002C15892B79F489E49CE00E9462070E9419
:103FB000720B89E19CE00E94620790E080E00E9421
:103FC000A62DA6CF84E39CE00E94620720E040E09B
:103FD00061E071E08AE40E94B91E86E090E00E94F0
:103FE000A62DE5CF4A9B41C08091E7059091E80559
:103FF000029709F08DCFAE014F5F5F4FBE016E5F3C
:104000007F4F8091E9050E946F25882359F10E9416
:10401000E528FC0169818A81309709F10680F781E2
:10402000E02D3097E1F0099581110AC08FEF9BE0F8
:104030000E9462071092E8051092E7050E948C1D0D
:104040008981882309F464CF87EE9BE00E94620790
:104050001092E8051092E7050E948C1D59CF0E942E
:104060003E1EE2CF88EC9BE0F1CF0E94582D8CEBF6
:104070009BE00E946207549A5C9882E0E82EF12C43
:10408000CC24C394D12C4A990AC0CE0103960E9435
:10409000911D811142C081EA9BE00E9462070E944B
:1040A0005A2D8091E7059091E8050297D1F489EFA8
:1040B0009AE00E9462070E94B8280E94E5288C01BD
:1040C000009779F0DC011A968D919C91892B49F02B
:1040D00081EE9AE00E946207D8011A96ED91FC9158
:1040E00009958091E7059091E805019709F010CFB7
:1040F00084EC9AE00E9462078091E90590E00E94BA
:104100008D0781EC9AE00E94620711E04A99C6C0CF
:1041100087EA9AE00E946207FBCE84E99BE00E9456
:1041200062078B810E9470078B818F3361F588E86D
:104130009BE00E9462078091E7059091E805019756
:1041400009F0A1CF8091E9058F30C1F46091570645
:10415000662359F0E62FF0E0EA51FA4F11AA87E101
:1041600096E00E945627109257061092E80510928A
:10417000E7050E948C1D0E94EA2885CF8130A9F7AF
:104180000E945525F2CF8F3561F48EE79BE00E94A7
:1041900062078091E7059091E805029709F073CFD7
:1041A000E4CF182F1F71982F907E9032C9F484E7C6
:1041B0009BE00E946207812F90E00E948D0781E7BB
:1041C0009BE00E9462078091E60581135CCFD0924C
:1041D000E805C092E7058DE59BE00E94620753CF9A
:1041E0009034B9F485E59BE00E946207812F90E04E
:1041F0000E948D0782E59BE00E9462078091E605A0
:10420000811341CFF092E805E092E70580E49BE05E
:10421000E4CF982F907F903651F5182F1F7086E3CA
:104220009BE00E946207812F90E00E948D0783E34C
:104230009BE00E9462071093E9058091E705909149
:10424000E8058130910529F410925706109258061E
:104250001ACF029709F017CF54985C9A8FE391E038
:104260000197F1F700C00000539A5B980CCF903E85
:1042700091F4182F1F7088E29BE00E946207812F43
:1042800090E00E948D0785E29BE00E946207812FEB
:104290000E945525F8CE8FE19BE09FCFBE016F5F56
:1042A0007F4FCE0102960E94E21D811103C08EE86D
:1042B0009AE030CF8091E9059091EB05911136C0DD
:1042C0008F30A1F1E0911606E93248F48A8191E03D
:1042D0009E0F90931606F0E0EA51FA4F868389818B
:1042E000882309F413CFE0911606F0E0EA51FA4F63
:1042F00016828DE79AE00E9462078CEE95E00E949C
:10430000560789E79AE00E946207409116066CEE14
:1043100075E08091E9050E9423221093EB058981C5
:10432000882309F4F3CE86E69AE0F4CEE0915706AE
:104330006A81E03440F491E09E0F90935706F0E0DC
:10434000EA51FA4F61AB0E943D27E9CF8091E50524
:10435000882341F01092E5058DEE9CE00E946207F3
:104360000C94611F08950F931F93CF93DF93CDB7E4
:10437000DEB7CC52D4400FB6F894DEBF0FBECDBF2F
:104380008C019C01AE01435D5D4F60ED78E580E0FE
:1043900090E00E943E092CE232E0AE014F5F5F4F99
:1043A000B801CE01835D9D4F0E943A2D8C011816F5
:1043B000190654F49C01AE014F5F5F4F60ED7AE542
:1043C00080E090E00E946909C801C45DDB4F0FB630
:1043D000F894DEBF0FBECDBFDF91CF911F910F913B
:1043E0000895E7E0F7E083E1DF011D928A95E9F7A0
:1043F0001092020720E040E06FE371E089E40C9442
:10440000B91EEF920F931F931F922F931F924F93FA
:104410007F936F931F928F938DE491E09F938F937F
:104420001F92EF921F930F930E94692E2DB73EB7F4
:10443000225F3F4F0FB6F8943EBF0FBE2DBF1F91B6
:104440000F91EF9008957F928F929F92AF92BF92BB
:10445000CF92DF92EF92FF920F931F93CF93DF9350
:10446000CDB7DEB7C356D1090FB6F894DEBF0FBE85
:10447000CDBF182F7B01042F8EE29EE00E946207C1
:10448000812F90E00E948D0786E29EE00E946207E5
:1044900067014701800E911C8C149D04E1F582E2B6
:1044A0009EE00E946207FE01EF5AFF4F11921192A7
:1044B00087E0DF011D928A95E9F76C961FAE1EAE6C
:1044C0006C976E961FAE1EAE6E97123078F40E94F7
:1044D0009A16811126C08AE09EE00E94620720E0C1
:1044E00040E061E071E08AE40E94B91ECD59DF4FDF
:1044F0000FB6F894DEBF0FBECDBFDF91CF911F91F5
:104500000F91FF90EF90DF90CF90BF90AF909F9072
:104510008F907F900895D6018D916D010E944F0775
:10452000BBCF11111DC2013009F01AC2F701808101
:10453000843209F015C286EF9DE00E94620709836C
:1045400084E08A8322E030E0AE014F5F5F4F60ED90
:1045500076E480E090E00E9469091B821C8282E17F
:104560008D8382E28E83E9E6F1E0DE01179689E72A
:1045700091E021912D938E179F07D9F782E28F8BBF
:1045800080E2888FEAE7F1E088E1919121E0280F4D
:10459000482F50E09111B5C0E1E0F0E0EC0FFD1FB5
:1045A0004E0F5F1FDA011C9230E07901B2E0EB0E92
:1045B000F11C8C5F8983C9018D5F9B4F9A83AF018A
:1045C00062ED76E480E090E00E946909A0961FAE5B
:1045D0001EAEA09730E2C32E42E2B42E0FE010E0F0
:1045E000BE016F5C7F4FCE01825A9F4F0E94011720
:1045F000AC01892B31F468EFE6166FE0F60608F49B
:104600008BC00E94691BA4966CAF7DAF8EAF9FAF2D
:10461000A497BB27A92F982F872F19821A828B83E3
:104620009C83A1E8B1E084E09D9161E0680F282FB0
:1046300030E091118BC188248394912C8C0E9D1EA7
:10464000280D391DD9011C92F401E60FF11D1082CD
:10465000E2E0E80F88248394912C8C0E9D1E8E0E30
:10466000911CF40110828D5F082F10E0B0E0A0E0F3
:104670009701AD012053394B4F4F5F4FA4962CAF9C
:104680003DAF4EAF5FAFA4979801AE014F5F5F4F54
:10469000A4966CAD7DAD8EAD9FADA4970E946909C7
:1046A0000E0D1F1D109306070093050710920407B7
:1046B0001092030711E01093020787EE9DE00E941D
:1046C000620780910507909106070E948D0784EE8E
:1046D0009DE00E946207109201071092000710925D
:1046E000FF061092FE061092FD061092FC06109333
:1046F000FB061092FA0620E040E06EE871E080E0F0
:10470000F3CE88248394912C8C0E9D1E480D591D48
:10471000DA019C93822F39CF6CAD63FD61CF619636
:104720008CAD9DADAEADBFAD619781509F4FAF4F8A
:10473000BF4F892F9A2FAB2FBB279C0119821A825A
:10474000009711F481E090E09C838B832A3031053F
:1047500008F03EC0CD82A5E0E1E0EA0F8824839412
:10476000912C8C0E9D1E8A0E911CD401CC9291E04E
:104770009E0FA1E0B0E0AC0FBD1FAE0FB11DFD015B
:10478000C08281E0890FE1E0F0E0EC0FFD1FE90F4E
:10479000F11DB08228E030E0722F732E21503109D4
:1047A000E1E3F0E0EC0FFD1FE20FF31FE081E032E8
:1047B000D1F0FE01F1969E5F970F282FAA24A394B3
:1047C000A20E30E09A11A5C0870F272F372D0EC0FB
:1047D0002436310510F4A4E0BFCF94E0283E3340E6
:1047E00080F6E4E0C4CF21153105B1F699AD7BAD7B
:1047F000703209F09AC07AAD703209F099C09032E7
:1048000021F141E050E091E0980F7EE2E1E0F0E03C
:10481000EC0FFD1FE80FF11D7083DE01D996792F93
:10482000740FDD90E92F9F5F88248394912C8C0E68
:104830009D1E8E0E911CF401D0829713F2CF840F2F
:104840008F5FFA0131962E0F3F1F91E0980FE1E044
:10485000F0E0EC0FFD1FE80FF11DB08271E1780F61
:10486000721BE92F9F5FA1E0B0E0AC0FBD1FAE0F40
:10487000B11DFD01C0829713F4CF8E5FF801E21BDA
:10488000F30BD82EDE0EE1E6F1E064FD11C04330FB
:10489000510561F443E050E065E671E0CE01C99650
:1048A0000E94412EE5E6F1E0892B11F0EBE3F1E007
:1048B000319121E02D0D8D2D90E031113CC0E1E0D2
:1048C000F0E0EC0FFD1F8E0F9F1FDC011C9230E00B
:1048D00049018E0C9F1CC4018F5F9B4F9A83898373
:1048E000B0E0A0E0A701BD014053594B6F4F7F4F8F
:1048F000A4964CAF5DAF6EAF7FAFA497AF01A49607
:104900006CAD7DAD8EAD9FADA4970E946909740119
:1049100067CED19088248394912C8C0E9D1E280DF7
:10492000391DD901DC922A2D49CF43E050E06BCFED
:1049300042E050E068CF88248394912C8C0E9D1E19
:10494000880D991DDC013C93D22EB2CFE1E0F0E05E
:10495000EC0FFD1F2E0F3F1FF9019083862F64CEB1
:10496000AE01465A5F4FBE016F5A7F4FC7010E948A
:10497000021D84ED9DE00E946207AE014F5A5F4F19
:104980007A016A0158E0C50ED11CD7018D917D01D5
:104990000E944F07CE14DF04C1F780ED9DE00E9416
:1049A00062076B968FAD6B970E944F076C968FAD29
:1049B0006C970E944F076D968FAD6D970E944F07C1
:1049C0008CEC9DE00E946207111126C08FEB9DE0E8
:1049D0000E94620747E057E0BE01665A7F4FCE0152
:1049E0008F5A9F4F0E9452178C01892B09F440C0A7
:1049F00089EA9DE00E94620788279927801B910B16
:104A00000E948D0786EA9DE00E94620720E040E058
:104A100061E971E08EE368CD89E99DE00E9462075B
:104A200047E057E0BE01665A7F4FCE018F5A9F4F35
:104A30000E94FC198C01892BD9F08CE79DE00E9423
:104A4000620788279927801B910B0E948D0789E7B1
:104A50009DE00E94620720E040E060EA71E088E4A7
:104A60000A3F1F4F09F440CD6AEA71E089E13CCD6D
:104A700010920107109200071092FF061092FE0696
:104A80001092FD061092FC0681E08093FB061092C6
:104A9000FA0620E040E06EE871E080E00E94B91E76
:104AA00089E69DE00E94620721CDCF93C82F89E55A
:104AB0009DE00E9462078C2F90E00E948D0786E5A2
:104AC0009DE00E94620780910707882321F087E01C
:104AD00097E00E94321910920207CF910895BF9279
:104AE000CF92DF92EF92FF920F931F93CF93DF93BA
:104AF00000D000D000D0CDB7DEB7082F6B017A010F
:104B0000FA0110820E94142D182F882309F44CC139
:104B10000F3009F44BC1F70110828091FC0690918F
:104B2000FD062091FE063091FF068217930740F59F
:104B3000B0E0A0E09C01AD012053354A4F4F5F4FDC
:104B4000CA01B9010E949309F60180838091FC0695
:104B50009091FD0601969093FD068093FC062091AE
:104B6000FE063091FF068217930708F446C0809135
:104B7000FA06882309F441C081E0F70180833DC033
:104B8000B090FA06BB2029F081E0F701808310E0A5
:104B900034C00091FB06011181C01A82198222E003
:104BA00030E0AE014F5F5F4F60ED7AE580E090E06E
:104BB0000E94690982E090E09093FF068093FE06D0
:104BC0001092FD061092FC0601E00093FA0660EDDB
:104BD0007AE580E090E00E949309F601808381E00D
:104BE00090E09093FD068093FC068091FE069091E4
:104BF000FF06029710F4F7010083812F26960FB667
:104C0000F894DEBF0FBECDBFDF91CF911F910F9102
:104C1000FF90EF90DF90CF90BF900895B0E0A0E0BC
:104C20009C01AD012053394B4F4F5F4F2B833C8389
:104C30004D835E8321E030E0AE014F5F5F4F6B81BB
:104C40007C818D819E810E943E0980910307909115
:104C5000040701969093040780930307809100074F
:104C600090910107B0E0A0E09C01AD012053374ACC
:104C70004F4F5F4F2B833C834D835E8349816B8114
:104C80007C818D819E810E94AC098091000790916A
:104C90000107019690930107809300078091000718
:104CA000909101078115924088F480910207882332
:104CB000C1F180910307909104072091050730917D
:104CC00006078217930708F4A9CFB02E809100073A
:104CD000909101070097B1F10E94B32118161906AF
:104CE0000CF052CF9093FF068093FE061092FD06C3
:104CF0001092FC061092010710920007B11010925A
:104D0000FB0660ED7AE580E090E00E949309F601F1
:104D1000808381E090E09093FD068093FC06102F45
:104D20006CCF80910707882381F241E050E0BE01FB
:104D30006F5F7F4F87E097E00E94E417019709F4C7
:104D40008DCFC3CF1A82198222E030E0AE014F5FCF
:104D50005F4F60ED7AE580E090E00E94690982E0B3
:104D600090E09093FF068093FE061092FD0610924D
:104D7000FC061092FB0681E08093FA0660ED7AE56E
:104D800080E090E00E949309F601808381E090E04A
:104D90009093FD068093FC068091FE069091FF069D
:104DA000029708F02ACFE8CE0F3031F4B701C601E0
:104DB0000E943D1F182F21CF0111E6CE109102074E
:104DC000112381F18091030790910407B0E0A0E0E6
:104DD0009C01AD012053394B4F4F5F4F2B833C83D8
:104DE0004D835E8321E030E0A6016B817C818D8163
:104DF0009E810E943E0980910307909104070196CD
:104E000090930407809303072091050730910607CC
:104E10008217930708F4F1CE81E0F70180831092A6
:104E20000207EBCE10910707112309F4ADCE41E044
:104E300050E0BE016F5F7F4F87E097E00E94E4176C
:104E4000019709F0A1CE8981F60180834091100776
:104E500050911107609112077091130780910C0710
:104E600090910D07A0910E07B0910F0748175907B1
:104E70006A077B0708F4C1CE7FCECF93DF930F92F2
:104E8000CDB7DEB76983813069F480910707882345
:104E900049F041E050E0BE016F5F7F4F87E097E04F
:104EA0000E9485180F90DF91CF910895AF92BF9225
:104EB000CF92DF92EF92FF920F931F93CF93DF93E6
:104EC000CDB7DEB7C754D1090FB6F894DEBF0FBE19
:104ED000CDBF6C01162F662309F49AC089E49DE0CA
:104EE0000E94620776015601A10EB11CEA14FB0470
:104EF00009F04AC085E49DE00E946207012F1A3242
:104F000008F009E2E02EF12CA701B601CE010196CE
:104F10000E944E2E81E090E08C0F9D1FE80EF91E3E
:104F2000F70110826C01F60181916F0190E00E94FF
:104F3000392EF60131978083EC14FD04A1F7602F20
:104F4000CE0101960E94342A811162C0602FCE01E9
:104F500001960E94A72A81115BC0602FCE010196A5
:104F60000E94EB2C882309F168E070E0CE018B965B
:104F70000E94172D181619066CF420E040E0BE01BF
:104F8000655D7F4F80E042C0F70181917F010E9403
:104F90004F07ACCF0E94142D20E040E066EB71E09B
:104FA0008111F0CF6EE871E0EDCF8981823509F48F
:104FB00041C064F4893409F4B7C08E3409F47EC06A
:104FC00020E040E065ED71E08EE120C08335C1F75F
:104FD0001330B0F38A818A3399F7AE01495C5F4F91
:104FE000BE01655D7F4FCE0103960E94021DBE018A
:104FF000695C7F4FCE018B960E948A1920E0892B35
:1050000009F051C041E065EC71E081E00E94B91EF9
:10501000C95BDF4F0FB6F894DEBF0FBECDBFDF9187
:10502000CF911F910F91FF90EF90DF90CF90BF90A5
:10503000AF900895133060F38A818A3349F76DE3A6
:1050400070E0CE0103960E945E2E009709F4B8CF5F
:10505000FC0111928F01AE014C5B5F4FBE01695C98
:105060007F4FCE0103960E94021DAE01405C5F4F50
:10507000BE01655D7F4FC8010E94021D9E012C5B31
:105080003F4FAE01495C5F4FBE01605C7F4FCE0178
:105090008B960E94BB1A009719F420E040E082CF63
:1050A000039631F420E040E061E971E08EE3AECF99
:1050B00020E040E062EE71E08FE3A8CF133058F1BA
:1050C0008A818A3341F54BE050E060E270E0CE0126
:1050D0008B960E94572E1EAABE016D5F7F4FFB016B
:1050E00001900020E9F7AF0141505109461B570BD1
:1050F0004C30510514F04BE050E0CE018B960E94ED
:105100004E2ECE018B960E94AD1B892B39F46EE892
:1051100071E080E006C090E080E0F5CF6AEA71E0DF
:1051200089E120E040E072CF0E9491160E942C1588
:10513000892B69F361E071E08AE4F3CF10921C07D8
:1051400010921B0710921A0708959C01892B79F081
:10515000E0911C07E43058F481E08E0F80931C0727
:10516000F0E0EE0FFF1FE35EF84F318320830895D8
:105170001F93CF93DF9310E080911C07181738F02E
:1051800010921B0710921A0790E080E018C0C12F00
:10519000D0E0CC0FDD1FC35ED84FE881F9810480D9
:1051A000F581E02D309779F00995882361F0E88149
:1051B000F981F0931B07E0931A0780819181DF91B9
:1051C000CF911F9108951F5FD7CF80911A079091BB
:1051D0001B07089510921B0710921A070895CF938A
:1051E000DF93FC01DB0110821C9254985C9A89ECDD
:1051F00090E04B9B17C04C9B15C025E02A95F1F71A
:105200000000019709F04AC081E08C93549A5C98A1
:1052100085E48A95F1F7000054985C9A81E197E261
:105220004B9930C090E080E029B139B123FB2227AF
:1052300020F9C22FB0E0DB2FBE01082E01C0660F9F
:105240000A94EAF72081262B34FB442740F950E0EA
:10525000BC016F5F7F4FDA0102C0AA0FBB1F6A95C6
:10526000E2F72A2B2083B5E4BA95F1F70000029605
:1052700088309105C9F6549A5C9820EA2A95F1F78E
:1052800081E009C04C9BCECFA5E0AA95F1F70000C4
:10529000019731F680E0DF91CF9108954A99A9CF27
:1052A000F9CF539A5B988FE391E00197F1F700C033
:1052B000000008954C9B15C080E012C085E08A95DF
:1052C000F1F700002F5F3F4F233781E03807A1F34C
:1052D0004C9BF4CF285C310981E02937310560F718
:1052E000089530E020E0F4CF662331F0EFE1F3E001
:1052F0003197F1F700C0000021E137E24C9B33C049
:1053000030E020E090E0A9014F5F5F4FBC0102C098
:10531000759567954A95E2F7AB014170BC01022E85
:1053200002C0759567950A94E2F760FF25C053980F
:105330005B9A442321F154985C9A75E47A95F1F7CD
:1053400000002E5F3F4F28303105E9F653985B9AF5
:1053500054985C9A81E197E24C9914C0F0EAFA956E
:10536000F1F781E00895F5E0FA95F1F7000021509A
:10537000310921F680E00895539A5B98DACF549A68
:105380005C98DBCFE5E0EA95F1F70000019721F7A3
:10539000F1CF8CE092E00C94A52880912507811133
:1053A000109225070895089530E020E090E0AC01C8
:1053B000022E02C0559547950A94E2F740FF1BC0A4
:1053C00054985C9A45E14A95F1F7000053985B9A2E
:1053D0004AE24A95F1F700C0539A5B982F5F3F4F1E
:1053E0002830310521F754985C9A8AE68A95F1F7BE
:1053F00000C081E00895549A5C98E4CFFC011082CB
:10540000DB011C9290E080E061E070E021E137E296
:1054100007C0B5E0BA95F1F7000021503109F1F06D
:105420004B9BF7CF4C9B09C02081AB01082E01C0DC
:10543000440F0A94EAF7242B208321E137E24B99A9
:1054400006C001968830910509F781E0089545E08E
:105450004A95F1F700002150310989F780E008955D
:1054600088E192E00C94A528FC01623050F0808124
:10547000853539F48181803321F481E080932507DB
:10548000089580E0089580912707811110922707E1
:10549000089580E00895089521E137E24B993AC0DC
:1054A000549A5C986AE66A95F1F700C030E020E013
:1054B00090E0A9014F5F5F4FBC0102C075956795F1
:1054C0004A95E2F7AB014170BC01022E02C075950E
:1054D00067950A94E2F760FF29C053985B9A4423CA
:1054E00041F154985C9A7AE47A95F1F700C02E5F06
:1054F0003F4F28303105E9F654985C9A53985B9AEF
:1055000081E197E24B9B18C045E84A95F1F700000E
:1055100081E0089545E04A95F1F7000021503109F6
:1055200011F480E008954A99B9CFFBCF539A5B9864
:10553000D6CF549A5C98D7CF25E02A95F1F7000092
:10554000019701F7EECF84E292E00C94A528FC01CC
:105550006330A0F080818D3489F481818D3271F4C3
:105560008281873559F4809126078F5F80932607C3
:10557000833030F081E080932707089580E008951C
:1055800081E008952F923F924F925F926F927F92A7
:105590008F929F92AF92BF92CF92DF92EF92FF9243
:1055A0000F931F93CF93DF93CDB7DEB7CC50D2408C
:1055B0000FB6F894DEBF0FBECDBF5C018B011A01A0
:1055C000C9016115710509F45BC1FE01319620E046
:1055D00032E0DF01A9011D9241505040E1F7D501B1
:1055E000A60FB71FCB5FDD4FB983A883C550D2404C
:1055F0001597C55FDD4FB983A883CB50D240CB5FF1
:10560000DD4F28813981C550D24024503109C95F0E
:10561000DD4F39832883C750D240A101480F591F5D
:10562000C75FDD4F59834883C950D240643071054C
:10563000ECF0D5012D913D914D915C9161EB79E7B5
:1056400087E39EE90E94E12DCF5FDD4F6883798378
:105650008A839B83C150D240892F9927AA27BB27D1
:10566000880F991FE80FF91F118210824501BFEFC3
:105670008B1A9B0A8101F5017401C95FDD4F2881F6
:105680003981C750D2402E153F0508F04AC0CB5F84
:10569000DD4FE880F980C550D240EE1AFF0A1E1493
:1056A0001F04E4F570E060E0BFE0EB16F10444F0A5
:1056B000C7010F976FEF70E00E94052E6F5F7F4F5D
:1056C0006F5F7F4F6E0D7F1D600F711FC75FDD4FD6
:1056D00028813981C950D2402617370708F4CEC037
:1056E00068013FEFC31AD30A8E2D40E1E416F1049E
:1056F0000CF08FE08295807FD8018C93C7010F97C3
:105700004FEFBFE0EB16F1040CF056C1A701BF014B
:10571000C6010E944E2E86010E0D1F1D021913098F
:10572000AFC0D7014D905D906D907C90A301920128
:1057300061EB79E787E39EE90E94E12DCF5FDD4FC2
:10574000688379838A839B83C150D240892F9927AC
:10575000AA27BB27880F991F21E030E02C0F3D1F9F
:10576000820F931FDC01CD90DC901197CA0CDB1CDB
:1057700097012A193B092D933C9397012C193D0958
:10578000CF5FDD4F39832883C150D240EC14FD0434
:1057900081F0C701821B930B8A159B0550F0D6013F
:1057A0004D915D916D917C91441655066606770684
:1057B00021F0BFEFEB1AFB0A60CFC114D10409F44A
:1057C00066CFC701049634E0C30ED11C4C01C55FFF
:1057D000DD4F48815981CB50D2408417950740F462
:1057E0000196D6012D916D01D4013C91321771F3D0
:1057F0006401CE18DF08EE1AFF0A3701B0E1EB169C
:10580000F1041CF05FE0652E712CC60124E1C21684
:10581000D10414F083E190E02C0134E0431A5108E4
:1058200030E020E04FE0E416F1044CF0C7010F97A0
:105830006FEF70E00E94052E9B012F5F3F4F70E0DD
:1058400060E053E1C516D10444F0C60143976FEF01
:1058500070E00E94052E6F5F7F4F2E0D3F1D2D5F64
:105860003F4F260F371F200F311FC75FDD4F888145
:105870009981C950D24082179307E8F40FEF1FEFC8
:10588000C801C45FDD4F0FB6F894DEBF0FBECDBFB9
:10589000DF91CF911F910F91FF90EF90DF90CF900C
:1058A000BF90AF909F908F907F906F905F904F9040
:1058B0003F902F90089544E0660C771C4A95E1F7DD
:1058C0006428D8016D928D01C7010F97BFE0EB16D8
:1058D000F1040CF059C0A701BF01C8010E944E2E6F
:1058E0000E0D1F1DF801CF5FDD4F28813981C1509A
:1058F000D240219331938F0133E1C316D1046CF070
:1059000043E1C41AD108C80101962FEFC216D10491
:105910000CF044C0D801CC928C01C95FDD4FE88106
:10592000F981C750D240E815F90508F43FC0D40109
:105930002D913D914D915C9161EB79E787E39EE973
:105940000E94E12DCF5FDD4F688379838A839B833B
:10595000C150D240892F9927AA27BB27880F991FAA
:10596000E1E0F0E0EC0FFD1F8E0F9F1F94012A195C
:105970003B09DC012D933C93F4017ECE4FEFD8011F
:105980004C938F5F9109890198012F5F3F4F8F3FA3
:105990009105A4F7D8018C9389019DCFEFEFD80131
:1059A000EC93FFEFCF1AD1088C01ADCFF4016FCE8D
:1059B0004C938F5F9109690196012F5F3F4FD6018C
:1059C0008F3F9105ACF78C936901A0CE1092290707
:1059D000109228070895FC01643090F080818F7D3B
:1059E000883571F481818F7D8A3551F482818A33C3
:1059F00039F483819FE9980F9A3120F4833781F03D
:105A000080E00895813341F0833551F08033C1F750
:105A10001092290781E0089581E080932907089575
:105A200081E0809328070895809129070895CF93F6
:105A3000DF93EC01CB01209128072223C1F02091B4
:105A40002907E7E0F2E0222311F0E2E0F2E0059717
:105A500074F084E0DE0101900D928A95E1F71C82DA
:105A60001092280784E090E0DF91CF9108958FEFA6
:105A70009FEFFACF0F931F93CF93DF938B01EA0130
:105A8000243031053CF48FEF9FEFDF91CF911F91D0
:105A90000F910895245031094C5F5F4F0E94C22A34
:105AA00097FDF1CF998388830A831B830496EDCFFA
:105AB000299A089529980895CF93DF93D82FC0E0AD
:105AC0000E94582D2FEF87EE93E0215080409040A8
:105AD000E1F700C000000E945A2D2FEF87EE93E0FF
