:100000000C94E8060C94EB1B0C9405070C94050764
:100010000C9405070C9405070C9405070C94050730
:100020000C9405070C9405070C94030E0C9405071B
:100030000C9405070C9405070C9405070C94050710
:100040000C9405070C9405070C9405070C94050700
:100050000C9405070C9405070C9405070C940507F0
:100060000C9405070C94050752656164792E0D0AFE
:10007000004D6F756E74206661696C65640D0A00D1
:100080004641543132204F4B0D0A004D6F756E744E
:100090002046415431322E2E2E0D0A004E6F206420
:1000A00069736B20696E2064726976650D0A00447D
:1000B00072697665204F4B0D0A004E6F206472699D
:1000C0007665210D0A00466C6F70707920696E6943
:1000D000742E2E2E0D0A00436F6D7072657373209F
:1000E0004F4B0D0A00466173746C6F6164204F4B77
:1000F0000D0A00494543206465766963652023380D
:100100000D0A0037344843353935204F4B0D0A006E
:100110005352414D204F4B0D0A000D0A3D3D3D20ED
:1001200036346B6F727070752076312E3020284E09
:10013000616E6F2B5352414D29203D3D3D0D0A000C
:100140000D0A0020455252005B4449534B5D207715
:10015000726974652072633D000D0A0020523D00F3
:1001600020533D0020543D005B4449534B5D2077B4
:1001700072697465204C42413D000D0A00204552D1
:1001800052005B4449534B5D207265616420726389
:100190003D000D0A0020523D0020533D0020543DFB
:1001A000005B4449534B5D2072656164204C4241C1
:1001B0003D003031323334353637383941424344EB
:1001C000454600204641494C210D0A00204F4B0D69
:1001D0000A002072656164203078005B5352414D03
:1001E0005D20746573743A2077726F74652030787F
:1001F000005B5352414D5D20696E69742053504934
:100200002E2E2E0D0A000D0A005B53525D206465F0
:100210006661756C743D3078005B53525D20696E89
:1002200069740D0A005B464C505D207772697465F5
:10023000204F4B0D0A005B464C505D204D464D2033
:100240007772697465204641494C0D0A005B464C43
:10025000505D204D464D2077726974652E2E2E0D0F
:100260000A005B464C505D2077726974653A2073D2
:1002700065656B206661696C65640D0A005B464CC0
:10028000505D207772697465204552523A2077722A
:100290006974652070726F746563746564210D0AFA
:1002A000005B464C505D2077726974652045525260
:1002B0003A2062616420736563746F720D0A000DE9
:1002C0000A0020523D0020533D005B464C505D200B
:1002D000777269746520543D000D0A005B464C50EE
:1002E0005D2072656164204F4B2C206669727374C7
:1002F0002062797465733A20005B464C505D204D56
:10030000464D206465636F6465204641494C0D0A83
:10031000002E2E2E0D0A005B464C505D204D464DA2
:10032000206465636F646520523D005B464C505D00
:10033000204D464D2063617074757265204F4B0DE2
:100340000A000D0A005B464C505D204D464D20636F
:10035000617074757265204641494C2072633D009E
:100360005B464C505D204D464D2063617074757244
:10037000652E2E2E0D0A005B464C505D2072656185
:10038000643A207365656B206661696C65640D0A6B
:10039000000D0A005B464C505D2057503D005B4607
:1003A0004C505D2072656164204552523A20626172
:1003B0006420736563746F720D0A000D0A00205289
:1003C0003D0020533D005B464C505D2072656164EA
:1003D00020543D000D0A005B464C505D207369645B
:1003E000653D000D0A002D3E54005B464C505D20DB
:1003F0007365656B2054005B464C505D20736565EA
:100400006B3A206E6F7420696E697469616C697AE9
:1004100065642C20726563616C6962726174696ED7
:10042000670D0A000D0A00203E3D20005B464C503F
:100430005D207365656B204552523A20747261638A
:100440006B2000202D3E206469736B204E4F54209A
:1004500050524553454E540D0A00202D3E206469EC
:10046000736B2050524553454E540D0A002057508F
:10047000543D005B464C505D206469736B2063689B
:1004800065636B3A2044534B4348473D005B464C01
:10049000505D204552523A2054524B3030206E6FFE
:1004A0007420666F756E64206166746572203835DD
:1004B000207374657073210D0A0020737465707366
:1004C0000D0A005B464C505D2054524B3030206684
:1004D0006F756E6420616674657220005B464C50D7
:1004E0005D20726563616C6962726174653A207344
:1004F00065656B696E6720747261636B20302E2EA8
:100500002E0D0A005B464C505D206D6F746F72209B
:100510004F46460D0A005B464C505D206D6F746F70
:1005200072207370696E2D75702074696D656F75BA
:100530007420286E6F202F5244415441290D0A0027
:100540000D0A005B464C505D205741524E494E47C4
:100550003A207369676E616C20746F6F20666173F7
:10056000742C206E6F6973653F206176673D0020B3
:10057000286578706563746564207E313030292E7B
:1005800020436865636B2031325620737570706C40
:10059000792E0D0A005B464C505D205741524E4962
:1005A0004E473A206D6F746F7220746F6F20736CBA
:1005B0006F7721206176673D00207469636B730D4E
:1005C0000A006D732C2061766720696E74657276FF
:1005D000616C3D005B464C505D206D6F746F722006
:1005E000726561647920616674657220005B464CB7
:1005F000505D206D6F746F72204F4E2C20776169B3
:1006000074696E6720666F722073706565642E2E44
:100610002E0D0A000D0A005B464C505D20696E6984
:100620007420646F6E652C2053523D3078000D0AA3
:10063000002044534B4348473D00205750543D0051
:100640005B464C505D20696E707574733A2054524D
:100650004B30303D005B464C505D20696E69742024
:100660004750494F2E2E2E0D0A005B4D464D5D2002
:10067000736563746F72207363616E2074696D6556
:100680006F75740D0A000D0A0020617420543D003E
:100690005B4D464D5D20666F756E642073656374B7
:1006A0006F7220002E2E2E0D0A005B4D464D5D20F0
:1006B0007363616E20666F7220736563746F72205E
:1006C000005B4D464D5D207772697465204F4B0D80
:1006D0000A000D0A0020523D0020533D005B4D46AC
:1006E0004D5D20777269746520543D00206E6F74F3
:1006F00020666F756E640D0A005B4D464D5D20648B
:1007000065636F6465204641494C3A2073656374A4
:100710006F7220000D0A00204D41544348210D0AFC
:1007200000204E3D0020523D0020533D005B4D46D1
:100730004D5D204944414D3A20543D005B4D464DAE
:100740005D206465636F6465204F4B2C203531322A
:100750002062797465730D0A00207061636B730DFC
:100760000A002C207363616E20005B4D464D5D20B6
:100770006465636F646520736563746F7220000D38
:100780000A0020696E763D002034543D0020335429
:100790003D005B4D464D5D20686973742032543DC9
:1007A000005B4D464D5D2063617074757265205429
:1007B000494D454F5554210D0A006D730D0A002017
:1007C0007061636B732C20005B4D464D5D2063614F
:1007D00070747572653A20005B4D464D5D20636113
:1007E00070747572652073746172740D0A000D0A5D
:1007F00000206D6F643D002077726974653D005B79
:100800004641545D20636C6F73653A20706F733D91
:10081000000D0A002073697A653D005B4641545D16
:10082000206F70656E65643A20636C7573746572D1
:100830003D005B4641545D2066696C65206E6F74B7
:1008400020666F756E640D0A00270D0A005B464135
:10085000545D206F70656E5F726561642027005B78
:100860004641545D206D6F756E74204F4B0D0A002C
:100870000D0A005B4641545D2046415431207265AB
:100880006164204641494C20617420736563746F34
:1008900072200020736563746F7273292E2E2E0DE3
:1008A0000A005B4641545D2072656164696E672091
:1008B000464154312028005B4641545D206E6F2034
:1008C000626F6F74207369672C2064656661756C54
:1008D00074206C6162656C0D0A000D0A002720739C
:1008E000657269616C3D3078005B4641545D206CF7
:1008F0006162656C3D27005B4641545D2045525264
:100900003A207370633D3D300D0A005B4641545DF3
:10091000204552523A206E666174213D320D0A0024
:100920005B4641545D204552523A20627073213D2E
:100930003531320D0A000D0A00207369673D3078A9
:100940000020726F6F743D002068656164733D0024
:10095000207370743D005B4641545D204250423A22
:10096000207370663D000D0A00206D656469613D6D
:1009700030780020746F743D00206E6661743D0015
:10098000207370633D005B4641545D204250423A03
:10099000206270733D005B4641545D206D6F756E43
:1009A000743A20626F6F7420736563746F72207283
:1009B000656164204641494C0D0A005B4641545D27
:1009C000206D6F756E743A2072656164696E672080
:1009D000626F6F7420736563746F722E2E2E0D0A12
:1009E000005B4641545D20616C7265616479206DE5
:1009F0006F756E7465640D0A005B4945435D206C3C
:100A0000697374656E20454F490D0A00270D0A0071
:100A10005B4945435D2066696C656E616D653D2788
:100A2000005B4945435D206C697374656E20726597
:100A30006376206661696C0D0A005B4945435D2061
:100A400041544E20647572696E67206C69737465D9
:100A50006E0D0A000D0A005B4945435D206C697309
:100A600074656E696E6720666F72206461746120C0
:100A700053413D005B4945435D20666173746C6F73
:100A80006164206163746976650D0A005B494543C2
:100A90005D2041544E2072656C65617365642C2045
:100AA00064657465637420666173746C6F61640D52
:100AB0000A00203F3F0D0A000D0A0020434C4F530F
:100AC000452053413D000D0A00204F50454E205314
:100AD000413D005B4945435D202D3E2054414C4B38
:100AE00045520D0A000D0A002054414C4B202300B2
:100AF0005B4945435D202D3E204C495354454E45AE
:100B0000520D0A000D0A00204C495354454E202333
:100B10000020554E54414C4B0D0A0020554E4C4977
:100B20005354454E0D0A005B4945435D20636D6497
:100B30003D3078005B4945435D2041544E20627949
:100B400074652072656376206661696C0D0A005BCE
:100B50004945435D2041544E0D0A005B4945435DC4
:100B60002074616C6B3A206E6F20646174612C207C
:100B700072656C656173650D0A005B4945435D20D4
:100B800074616C6B3A20454F492C20646F6E650D83
:100B90000A005B4945435D2074616C6B3A207365C4
:100BA0006E64206661696C65640D0A005B494543AB
:100BB0005D207265696E697420646F6E652C2072A9
:100BC000656164790D0A005B4945435D206D6F7571
:100BD0006E74206661696C65640D0A005B4945436B
:100BE0005D204641543132204F4B0D0A005B494590
:100BF000435D206D6F756E742046415431322E2E48
:100C00002E0D0A005B4945435D206E6F20646973B9
:100C10006B20696E2064726976650D0A005B494538
:100C2000435D206472697665204F4B0D0A005B4975
:100C300045435D206E6F206472697665210D0A0060
:100C40005B4945435D2072657365742072656C6510
:100C5000617365642C207265696E697420666C6FBF
:100C60007070790D0A005B4945435D202A2A2A20CD
:100C7000425553205245534554202A2A2A0D0A0032
:100C80005B4945435D20706F6C6C3A2041544E20A7
:100C9000647572696E6720776169740D0A000D0AC8
:100CA00000205253543D0020444154413D00204314
:100CB0004C4B3D005B4945435D206275733A2041D2
:100CC000544E3D000D0A005B4945435D20696E6945
:100CD0007420646576202300270D0A005B444F537F
:100CE0005D20636D643A2027000D0A005B444F537A
:100CF0005D20636C6F73652053413D005B444F532F
:100D00005D206F70656E204F4B0D0A000D0A005B71
:100D1000444F535D205341564520637265617465AD
:100D2000206661696C65642072633D005B444F53CB
:100D30005D20534156450D0A000D0A005B444F5398
:100D40005D204C4F4144206661696C65642072638C
:100D50003D005B444F535D204C4F41440D0A00273A
:100D60000D0A00272E27005B444F535D20706172EF
:100D70007365643A2027000D0A005B444F535D20E1
:100D8000646972206C656E3D005B444F535D206466
:100D90006972206C697374696E670D0A005B444F59
:100DA000535D204452495645204E4F5420524541F0
:100DB00044590D0A00270D0A002066696C653D271D
:100DC000005B444F535D206F70656E2053413D00C2
:100DD00011241FBECFEFD8E0DEBFCDBF12E0A0E0F0
:100DE000B1E0E8E7FFE502C005900D92A033B1073E
:100DF000D9F725E0A0E3B2E001C01D92A839B207FF
:100E0000E1F70E9475080C94B32F0C940000109227
:100E1000C5008FEC8093C400E0ECF0E0808182603C
:100E2000808388E08093C10086E08093C2000895AB
:100E30009091C00095FFFCCF8093C6000895CF939A
:100E4000DF93EC018991811103C0DF91CF91089567
:100E50000E941807F7CFCF93DF93EC01FE01849136
:100E60002196811103C0DF91CF9108950E94180748
:100E7000F5CFCF93C82FE82FE295EF70F0E0EE5456
:100E8000FE4F84910E941807CF70EC2FF0E0EE54D3
:100E9000FE4F8491CF910C941807CF93C82F892FC0
:100EA0000E9439078C2FCF910C943907CF92DF9293
:100EB000EF92FF920F931F93CF93DF9300D000D058
:100EC00000D0CDB7DEB79C01892B89F480E326964C
:100ED0000FB6F894DEBF0FBECDBFDF91CF911F914B
:100EE0000F91FF90EF90DF90CF900C941807CE01F8
:100EF00001967C01FC0110E000E08AE0C82ED12CB4
:100F00000F5F1F4FC901B6010E94582C805D81936D
:100F1000C9019B010A97A0F70E0D1F1DF8018291D0
:100F20008F010E9418070E151F05C1F726960FB6F0
:100F3000F894DEBF0FBECDBFDF91CF911F910F910F
:100F4000FF90EF90DF90CF900895BF92CF92DF9205
:100F5000EF92FF920F931F93CF93DF93182FD92F08
:100F6000F62E072F64E270E00E94582C6B0162E1BC
:100F700070E00E94582CE62EB72EC1E0C80F81EA1F
:100F800091E00E942B07812F9D2F0E9456078DE92B
:100F900091E00E942B07C60199270E94560789E914
:100FA00091E00E942B078E2D9B2D0E94560785E90C
:100FB00091E00E942B078C2F90E00E94560782E957
:100FC00091E00E942B072F2D302F4C2F6E2D8C2D52
:100FD0000E94400CEC0182E891E00E942B07CE01B8
:100FE000D7FF04C0882799278C1B9D0B0E945607AA
:100FF000D7FF04C08DE791E00E942B078AE791E0BC
:101000000E942B07CE01DF91CF911F910F91FF908E
:10101000EF90DF90CF90BF900895BF92CF92DF9274
:10102000EF92FF920F931F93CF93DF93182FD92F37
:10103000F62E072F64E270E00E94582C6B0162E1EB
:1010400070E00E94582CE62EB72EC1E0C80F88E64B
:1010500091E00E942B07812F9D2F0E94560784E666
:1010600091E00E942B07C60199270E94560780E64F
:1010700091E00E942B078E2D9B2D0E9456078CE538
:1010800091E00E942B078C2F90E00E94560789E583
:1010900091E00E942B072F2D302F4C2F6E2D8C2D81
:1010A0000E94F80CEC0188E491E00E942B07CE012D
:1010B000D7FF04C0882799278C1B9D0B0E945607D9
:1010C000D7FF04C083E491E00E942B0780E491E005
:1010D0000E942B07CE01DF91CF911F910F91FF90BE
:1010E000EF90DF90CF90BF900895F8940E9407078B
:1010F0008AE191E00E942B070E94072C0E9491092F
:1011000080E191E00E942B070E94050A83E091E0B4
:101110000E942B070E94F10D83EF90E00E942B07A5
:1011200088E00E94471D0E9458200E9405270E94C7
:1011300030280E9497280E940A2985EE90E00E949C
:101140002B070E944D2B87ED90E00E942B0778948F
:101150000E94540A86EC90E00E942B070E949E0A8F
:101160000E944D0B892B81F08AEB90E00E942B07A7
:1011700020E040E061E071E08AE40E94201D85E00B
:1011800090E00E940D2C22C08FEA90E00E942B0775
:101190000E94870B81110EC08CE990E00E942B0702
:1011A00020E040E061E071E08AE40E94201D86E0DA
:1011B00090E0E7CF8BE890E00E942B070E9493130A
:1011C000892B89F480E890E00E942B070E943F0B56
:1011D00088E690E00E942B0790E080E00E940D2CB2
:1011E0000E94C81DFDCF81E790E0D8CF8EBD0DB421
:1011F00007FEFDCF8EB50895CF93C62F872F0E948F
:10120000F6088C2FCF910C94F608CF92DF92EF92D4
:10121000FF920F931F93CF93DF936B01D82FC92FAA
:101220007A0189012A9883E00E94F608B6018D2F81
:101230009C2F0E94FC08E7010E0D1F1DC017D1074F
:1012400051F42A9ADF91CF911F910F91FF90EF9067
:10125000DF90CF90089580E00E94F6088993EECF4A
:10126000CF92DF92EF92FF920F931F93CF93DF9372
:101270006B01D82FC92F7A0189012A9882E00E9438
:10128000F608B6018D2F9C2F0E94FC08E7010E0D79
:101290001F1DC017D10751F42A9ADF91CF911F91DA
:1012A0000F91FF90EF90DF90CF90089589910E9469
:1012B000F608EFCF0F931F93CF93DF938B01D82FB7
:1012C000C92F2A9883E00E94F608B8018D2F9C2F21
:1012D0000E94FC0880E00E94F6082A9ADF91CF91D4
:1012E0001F910F910895FF920F931F93CF93DF9358
:1012F000F62E072F182FD92FC42F2A9882E00E948C
:10130000F6086F2D702F812F9D2F0E94FC088C2FC7
:101310000E94F6082A9ADF91CF911F910F91FF90BA
:101320000895CF9381EF91E00E942B0784B18C62E6
:1013300084B924982A9A80E58CBD8DB581608DBDD5
:101340002A9881E00E94F60880E40E94F6082A9A12
:1013500045EA60E070E0CB010E94730960E070E054
:10136000CB010E945A09C82F8BED91E00E942B07F8
:1013700085EA0E94390782ED91E00E942B078C2FAD
:101380000E9439078CEC91E0C53A11F083EC91E0B2
:10139000CF910C942B070F931F93CF93DF938B0167
:1013A000D82FC92F2A9882E00E94F608B8018D2F05
:1013B0009C2FDF91CF911F910F910C94FC082A9ADA
:1013C00008950F931F93CF93DF938B01D82FC92FCD
:1013D0002A9883E00E94F608B8018D2F9C2FDF9198
:1013E000CF911F910F910C94FC081EBC0DB407FE09
:1013F000FDCF8EB508952A9A809300018EBD0DB45D
:1014000007FEFDCF5E9A5E98089589E192E00E9402
:101410002B07569A5E988FEF809300010E94FB097C
:1014200089E092E00E942B07809100010E94390719
:1014300086E092E00C942B0721E030E001C0220FFF
:101440008A95EAF72095809100018223809300011C
:101450000C94FB0921E030E001C0220F8A95EAF7E5
:1014600080910001822B809300010C94FB0988235A
:10147000B9F085E00E941C0A85E38A95F1F7000027
:1014800086E00E941C0A90E19A95F1F786E00E949E
:101490002A0A8FED9EE20197F1F700C0000008953F
:1014A00085E00E942A0AE8CFCF9385E596E00E9466
:1014B0002B0787B1887F87B988B1876088B9209862
:1014C000579A5F9A219A85EF0E94FB09C6B180E482
:1014D00096E00E942B078CE4C0FD88E40E94180768
:1014E0008AE396E00E942B078CE4C1FD88E40E9409
:1014F000180781E396E00E942B078CE4C2FD88E484
:101500000E9418078EE296E00E942B07109230028C
:101510001092310210923202109233021092340271
:101520001092350287E196E00E942B0785EF0E941A
:10153000390784E196E0CF910C942B07AF92BF92CC
:10154000CF92DF92EF92FF920F931F93CF93DF938F
:101550008091320281116CC08DEE95E00E942B07C4
:1015600082E00E941C0A84E00E941C0A299AA09032
:101570008600B0908700D0E0C0E010E0C12CD12CF4
:10158000760100E28FE99FE00197F1F700C00000CB
:101590000E940D20B59B57C0209186003091870096
:1015A000C9018A199B0906BBAC01485251094D3B40
:1015B000510508F04AC0C80ED91EE11CF11C1F5F7E
:1015C00081E0103108F480E059012196C83E93E093
:1015D000D90709F441C08823A9F284E0F694E7947E
:1015E000D794C7948A95D1F784ED95E00E942B0794
:1015F000CE010E94560782EC95E00E942B07C6019F
:101600000E94560789EB95E00E942B078BEAC816CB
:10161000D10438F185E995E00E942B07C6010E94AC
:1016200056078FE695E00E942B0781E080933202F7
:10163000DF91CF911F910F91FF90EF90DF90CF90AE
:10164000BF90AF90089580E0C0CF80E05901C12CD9
:10165000D12C760110E0B9CF8111BFCF86E195E0A2
:10166000E2CF92E3C916D10400F783E495E00E942B
:101670002B07C6010E94560780E495E0D4CF84E092
:1016800095E00E942B0782E00E942A0A84E00E94D3
:101690002A0A10923202299808951F93CF93DF935C
:1016A0008CED94E00E942B07D0E0C0E0309921C07F
:1016B0001092300281E0809335021FE08FE99FE0B5
:1016C0000197F1F700C000000E940D201150B1F702
:1016D00083EC94E00E942B07CE010E9456078AEB10
:1016E00094E00E942B0790E080E0DF91CF911F9162
:1016F000089580E00E94370A2196C535D105B1F6DC
:101700008DE894E00E942B078FEF9FEFEECFCF93F1
:10171000DF9386B1D82FD47082FBCC27C0F9C09359
:10172000330286B18695817091E0892780933402D7
:1017300083E794E00E942B078CE4D11188E40E9497
:1017400018078DE694E00E942B07809134028111E6
:101750000FC08EE40E9418078AE594E0D11102C000
:1017600083E494E00E942B078C2FDF91CF910895A2
:1017700089E5F0CFCF93C82F8035C0F08CE294E09C
:101780000E942B078C2F90E00E94560787E294E07E
:101790000E942B0780E590E00E94560784E294E0C7
:1017A0000E942B078EEF9FEFCF9108958091350215
:1017B000882359F1809130028C17A9F08AEE93E0CA
:1017C0000E942B078091300290E00E94560786EE1F
:1017D00093E00E942B078C2F90E00E94560783EE27
:1017E00093E00E942B0780913002C81317C0CFE00E
:1017F0008FE99FE00197F1F700C000000E940D20E3
:10180000C150B1F790E080E0CFCF87EF93E00E9426
:101810002B070E944D0B009769F2C6CF8C1748F436
:1018200081E00E94370A809130028F5F80933002FE
:10183000DACF80E00E94370A809130028150F6CFE3
:10184000CF93C82F87ED93E00E942B078C2F90E059
:101850000E94560784ED93E00E942B0780E0CC2382
:1018600061F00E941C0AC09331028FE891E0019759
:10187000F1F700C00000CF9108950E942A0AF3CF2B
:10188000CF92DF92EF92FF920F931F93CF93DF934C
:10189000C82FE62EF42E890186EC93E00E942B07D8
:1018A0008C2F90E00E94560782EC93E00E942B0759
:1018B0008E2D90E00E9456078EEB93E00E942B073E
:1018C000CF2CD12CC6010E9456078BEB93E00E94CF
:1018D0002B078FEF8F0D823180F08EE993E00E940D
:1018E0002B07C8EFDFEFCE01DF91CF911F910F9152
:1018F000FF90EF90DF90CF9008950E949E0A96B1DE
:101900009695917081E098279093340284E993E052
:101910000E942B078091340281112DC08EE40E9419
:10192000180781E993E00E942B078C2F0E94BA0BC5
:10193000EC0187E793E0209709F057C08E2D0E94B5
:10194000200C80E693E00E942B070E94800EEC01A1
:10195000892B99F085E493E00E942B07882799272B
:101960008C1B9D0B0E94560782E493E00E942B077C
:10197000CDEFDFEFB8CF89E5D2CF8BE293E00E94C5
:101980002B0787E193E00E942B07C6010E945607B0
:1019900081E193E00E942B07B8018F2D0E94750F03
:1019A000EC01892B19F089EF92E0E0CF8CED92E009
:1019B0000E942B07F80180810E94390780E20E9473
:1019C0001807F80181810E94390780E20E941807F8
:1019D000F80182810E94390780E20E941807F8010D
:1019E00083810E94390789ED92E00E942B077BCF0B
:1019F000BF92CF92DF92EF92FF920F931F93CF93FC
:101A0000DF9300D000D000D0CDB7DEB7D82EE62EC1
:101A1000F42EB22EC32E8AEC92E00E942B078D2D5D
:101A200090E00E94560786EC92E00E942B078E2DD4
:101A300090E00E94560782EC92E00E942B078F2DC7
:101A400090E00E9456078FEB92E00E942B078FEFE9
:101A50008F0D8231B8F081EA92E00E942B0708EFE7
:101A60001FEFC80126960FB6F894DEBF0FBECDBF9C
:101A7000DF91CF911F910F91FF90EF90DF90CF906A
:101A8000BF9008950E949E0A319907C08DE792E0A9
:101A90000E942B070BEF1FEFE4CF8D2D0E94BA0B96
:101AA0008C0182E692E00115110509F58E2D0E9448
:101AB000200C1E821D82D982EA82FB8282E08C8306
:101AC0008DE492E00E942B076B2D7C2DCE010196B8
:101AD0000E94EC108C0185E292E00115110539F0AD
:101AE00086E392E00E942B070CEF1FEFBACF0E9413
:101AF0002B07B7CFB19BFECF82E086BB80918800D9
:101B00009091890080969093890080938800089531
:101B10005F9800C000C000005F9A08950F931F9364
:101B2000CF93DF93CFE0D0E001E010E00E947A0D88
:101B3000C8010C2E02C0880F991F0A94E2F7897819
:101B40009474892B11F00E94880D219778F781E019
:101B500080933602DF91CF911F910F910895EF92FC
:101B6000FF920F931F93CF93DF9307E010E0E82ECF
:101B7000F12CE701002E02C0D595C7950A94E2F733
:101B8000C1700E947A0D809136028C2B11F40E9454
:101B9000880D0E947A0DC1110E94880DC0933602F3
:101BA0000150110930F7DF91CF911F910F91FF90F4
:101BB000EF900895FC01680F791FCA01E617F70737
:101BC00009F408952191922728E0AC01880F991F0C
:101BD00057FF04C031E2832730E193272150A9F752
:101BE000EDCF10928000E1E8F0E081E08083808119
:101BF0008F7B8083808180688083EFE6F0E0808146
:101C00008F7D808308950F920FB60F921F9211243B
:101C10002F933F938F939F93AF93BF9380918600B1
:101C20009091870020913E0230913F02821B930BDE
:101C3000209186003091870030933F0220933E022E
:101C40008C36910508F456C08C38910508F454C0C0
:101C50008C3B910508F452C083E02091390294E056
:101C6000299F90011124822B8093390280913802A0
:101C70008F5F80933802809138028430D8F0809151
:101C800039028EBD0DB407FEFDCF80913A029091CE
:101C90003B02A0913C02B0913D020196A11DB11DF5
:101CA00080933A0290933B02A0933C02B0933D0292
:101CB0001092380280913A0290913B02A0913C022E
:101CC000B0913D02803C9043A105B10540F0809168
:101CD0006F008F7D80936F0081E080933702BF910A
:101CE000AF919F918F913F912F911F900F900FBEB9
:101CF0000F90189580E0B1CF81E0AFCF82E0ADCFFB
:101D0000CF92DF92EF92FF920F931F93CF93DF93C7
:101D1000CDB7DEB728970FB6F894DEBF0FBECDBFA4
:101D200088ED97E00E942B0710923A0210923B0236
:101D300010923C0210923D02109239021092380229
:101D40001092370260E070E0CB010E94CB09B59A97
:101D5000809186009091870090933F0280933E028D
:101D600080916F00806280936F00789410E000E0B3
:101D700080913702811104C0043F91E01907C1F539
:101D800080916F008F7D80936F000E94DF0988EC47
:101D900097E00E942B0780913A0290913B02A0911C
:101DA0003C02B0913D020E9456078FEB97E00E94E3
:101DB0002B07C8010E9456078AEB97E00E942B0769
:101DC000043F1140F1F481EA97E00E942B0787EF6E
:101DD0009FEF28960FB6F894DEBF0FBECDBFDF9100
:101DE000CF911F910F91FF90EF90DF90CF900895CA
:101DF0008FE99FE00197F1F700C000000F5F1F4FD0
:101E0000B7CFCE0101966C0188E0F60111928A9558
:101E1000E9F760E070E0CB010E94E10980913A02AD
:101E200090913B02A0913C02B0913D0204EF11E081
:101E3000853F9140A105B10540F400913A0210910F
:101E40003B0220913C0230913D02F12CE12CE01646
:101E5000F10649F50E94DF0982E997E00E942B070D
:101E600089819A810E9456078DE897E00E942B078E
:101E70008B819C810E94560788E897E00E942B077F
:101E80008D819E810E94560782E897E00E942B0771
:101E90008F8198850E9456078FE797E00E942B0755
:101EA00090E080E096CF0E94F50926E030E090E0D7
:101EB000FC01022E02C0F595E7950A94E2F7E37063
:101EC000FF27EE0FFF1FEC0DFD1D408151814F5F7D
:101ED0005F4F51834083225031092E3F4FEF34072B
:101EE00039F78FEFE81AF80AB2CF2F923F924F924C
:101EF0005F926F927F928F929F92AF92BF92CF929A
:101F0000DF92EF92FF920F931F93CF93DF93CDB7A2
:101F1000DEB760970FB6F894DEBF0FBECDBF8E87D9
:101F20006C877D878AE697E00E942B072E85822E9C
:101F3000912CC4010E94560782E697E00E942B076D
:101F400080913A0290913B02A0913C02B0913D02F7
:101F50000E94560789E597E00E942B0780913A027C
:101F600090913B02A0913C02B0913D0260E070E094
:101F7000CB010E94E109412C512C32011986D12C50
:101F8000C12C1B861A861886312C212C00E010E00B
:101F90001F82F12CE12C80913A0290913B02A0919A
:101FA0003C02B0913D02481659066A067B0680F055
:101FB0000E94DF0989EF96E00E942B07C4010E946E
:101FC00056078CEE96E00E942B0788EF9FEF78C0B3
:101FD0000E94F50936E0A32EB12C282F30E0388B73
:101FE0002F878F8598890A2C02C0959587950A942A
:101FF000E2F783708130F9F0823031F18111E4C071
:10200000EE0CFF1CEE0CFF1C6894E0F882E03F81B0
:10201000380F3F832F81223000F532E0A31AB10838
:102020008EEFA8168FEFB806E1F69FEF491A590A0E
:10203000690A790AB0CF93E0EE0CFF1C9A95E1F79C
:102040006894E0F883E0E3CF84E0EE0CFF1C8A950F
:10205000E1F76894E0F884E0DACF8F8182508F83D3
:102060008F5F970102C0369527958A95E2F7C901DF
:102070008170110F182B8A859B8501969B878A8713
:1020800087709927892B31F601110BC0113A09F09D
:102090007DC0239401E092E0921508F000E010E08A
:1020A000B9CF28852223A1F1C11432E0D30608F16B
:1020B0008CE397E00E942B070E94DF0990E080E00C
:1020C00060960FB6F894DEBF0FBECDBFDF91CF9103
:1020D0001F910F91FF90EF90DF90CF90BF90AF9046
:1020E0009F908F907F906F905F904F903F902F9038
:1020F0000895C6010196EC85FD85EC0DFD1D10834C
:102100002FEFC21621E0D20699F26C010885C7CFE5
:10211000332009F442C0C6010196E1E0F0E0EC0F83
:10212000FD1FEC0DFD1D10836C01032D049708F4B9
:10213000B6CF8DE297E00E942B07898190E00E9444
:10214000560789E297E00E942B078A8190E00E945F
:10215000560785E297E00E942B071B81812F90E0B4
:102160000E94560781E297E00E942B078C8190E045
:102170000E9456073E8513130BC087E197E00E942B
:102180002B073986D12CC12C312C00E0212C87CF94
:1021900084E197E00E942B07F5CF1E3F51F01B3FD3
:1021A00069F48985882361F0D12CC12C8887082F98
:1021B00076CFD12CC12C3886302E71CF3886E5CF22
:1021C00099859887392EE1CF1886312C212C00E093
:1021D0001F82F12CE12C21CF4F925F927F928F9240
:1021E0009F92AF92BF92CF92DF92EF92FF920F93A6
:1021F0001F93CF93DF9300D000D00F92CDB7DEB7FF
:102200008C01862E772E8DED96E00E942B07F8012B
:10221000808190E00E94560789ED96E00E942B078E
:10222000F801818190E00E94560785ED96E00E94BA
:102230002B07F801828190E00E94560782ED96E01C
:102240000E942B07F801A2808AEA96E00E942B07E1
:102250000A2D10E0C8010E94560784EA96E00E9409
:102260002B07809186009091870090933F02809386
:102270003E02B0E8CB2EB8E3DB2EEE24E394F12C43
:1022800060E070E030E0B12C40E020E050E090E011
:1022900080E0E0E29E2E96BAE1E5F3ECB6B3AB2F18
:1022A000A072B5FF43C0E0918600F0918700A09135
:1022B0003E02B0913F02EA1BFB0BA0918600B09159
:1022C0008700B0933F02A0933E02EC36F105A8F5DB
:1022D000880F991F880F991F8160E2E05E0FAB2D78
:1022E000523008F041C0E1E0CE1AD108E108F1080F
:1022F000D9F48AE696E00E942B0787EF9FEF0F90B4
:102300000F900F900F900F90DF91CF911F910F9131
:10231000FF90EF90DF90CF90BF90AF909F908F9005
:102320007F905F904F900895BA2EB5CF319709F006
:10233000B5CF50E070E030E0D6CFEC38F10560F07A
:10234000EC3BF10508F0DAC0F4E0880F991FFA952C
:10235000E1F78160E4E0C2CFE3E0880F991FEA95DE
:10236000E1F78160E3E0BACF5250E1E0E50F2C01E4
:1023700002C056944794EA95E2F7F201E170220F09
:102380002E2B4F5F483008F4ABCF31110BC0213AF0
:1023900009F0A9C0AF5F31E0A33008F430E040E0BD
:1023A00020E09ECF772309F49BC031E0360FE1E0B7
:1023B000F0E0EC0FFD1FE60FF11D2083343008F430
:1023C00094C02B81A21294C080E996E00E942B0752
:1023D000C8010E94560789E896E00E942B07898170
:1023E00090E00E94560786E896E00E942B078FEF48
:1023F0009BE00197F1F700C0000087E00E941C0AF3
:10240000F894109236028091840090918500809615
:10241000909389008093880082E086BB1CE080E076
:102420000E94AF0D1150D9F70E948E0D0E948E0DA3
:102430000E948E0D8BEF0E94AF0D81EA8D834FEFCE
:102440005FEF61E070E0CE0105960E94DA0DAC010D
:1024500061E070E0CE0105960E94DA0DAC0161E00A
:1024600070E0CE0105960E94DA0DAC018BEF8983F6
:1024700061E070E0CE0101960E94DA0D182F092F5D
:10248000E82CF72C6701FEEFDF1A57018FEFE81AEF
:10249000F80AF50180810E94AF0D412F502F61E0B5
:1024A00070E0C5010E94DA0D182F092FCE14DF0449
:1024B00061F7892F0E94AF0D812F0E94AF0D16E3A7
:1024C0008EE40E94AF0D1150D9F7789487E00E94F6
:1024D0002A0A81EC96E00E942B0790E080E00FCF63
:1024E0002E3F49F030E0A0E05ACF632F372F57CF6F
:1024F000632F70E0F7CF732F60E051CF70E030E0D2
:10250000A0E050E0F0CE0F931F93CF93DF9300D065
:1025100000D000D0CDB7DEB78C0180914004882375
:1025200091F1C80196958795800F911FB0E0A0E0CA
:102530009C01AD0120533F4C4F4F5F4F2B833C8399
:102540004D835E8322E030E0AE014F5F5F4F6B81D1
:102550007C818D819E810E94050989819A8100FF7D
:1025600010C024E0969587952A95E1F726960FB638
:10257000F894DEBF0FBECDBFDF91CF911F910F91B9
:1025800008959F70F3CF90E080E0F0CFCF93DF937A
:10259000C2E0D0E0CE010E948312892B21F4CE014B
:1025A000DF91CF9108952196C1328BE0D80791F742
:1025B0008FEF9FEFF5CFEF92FF920F931F93CF9383
:1025C000DF9300D000D000D0CDB7DEB77C018B0107
:1025D000809140048823C9F1C701969587958E0D97
:1025E0009F1DB0E0A0E09C01AD0120533F4C4F4F38
:1025F0005F4F2B833C834D835E8322E030E0AE014E
:102600004F5F5F4F6B817C818D819E810E940509A8
:1026100089819A81E0FE26C08F70992724E0000FFF
:10262000111F2A95E1F7082B192B1A83098322E041
:1026300030E0AE014F5F5F4F6B817C818D819E8169
:102640000E94300981E08093410426960FB6F894E9
:10265000DEBF0FBECDBFDF91CF911F910F91FF90D5
:10266000EF9008958827907F1F70DDCFCF93DF9381
:1026700000D000D000D0CDB7DEB7809140048823D1
:1026800009F44EC080914104882309F449C021E037
:1026900030E03E832D8380ED90E3A0E0B0E08983BD
:1026A0009A83AB83BC8320E032E040E452E069814E
:1026B0007A818B819C810E94050960E472E08D81A2
:1026C0009E810E940D08892B59F08FEF9FEF26966F
:1026D0000FB6F894DEBF0FBECDBFDF91CF91089546
:1026E00060E472E08D819E8109960E940D0800973A
:1026F00061F729813A814B815C813E5F4F4F5F4F8B
:1027000029833A834B835C834D815E814F5F5F4FAA
:102710005E834D834A30510531F610924104D7CF84
:1027200090E080E0D4CFFF920F931F93CF93DF937D
:1027300000D000D000D0CDB7DEB780914004882310
:10274000A1F081EE99E00E942B071E821D828D81EF
:102750009E8126960FB6F894DEBF0FBECDBFDF91E7
:10276000CF911F910F91FF9008958BEB99E00E94FC
:102770002B0760E472E090E080E00E94A507892BBF
:1027800039F086E999E00E942B078FEF9FEF73C025
:1027900086E899E00E942B0780914B0290914C02B1
:1027A0000E94560780E899E00E942B0780914D0215
:1027B00090E00E94560789E799E00E942B078091DC
:1027C000500290E00E94560783E799E00E942B0791
:1027D00080915302909154020E94560789E699E035
:1027E0000E942B07809155020E94390786E699E0E6
:1027F0000E942B0786E599E00E942B0780915602E4
:10280000909157020E94560780E599E00E942B079D
:1028100080915802909159020E94560788E499E0ED
:102820000E942B0780915A0290915B020E945607EA
:1028300081E499E00E942B0780915102909152020D
:102840000E94560789E399E00E942B078091660257
:102850000E94390786E399E00E942B0780914B0282
:1028600090914C028115924049F080E299E00E94DB
:102870002B0788EF9FEF9E838D8369CF8091500255
:10288000823049F08BE099E00E942B07A8EFBFEF60
:10289000BE83AD835CCF80914D02811103C087EF71
:1028A00098E0E5CF80916602893209F066C0809198
:1028B000670290916802A0916902B0916A028093C8
:1028C000420490934304A0934404B09345048BE0E6
:1028D000EBE6F2E0A6E4B4E001900D928A95E1F710
:1028E0001092510489EE98E00E942B0786E494E050
:1028F0000E941F078DED98E00E942B0780914404F1
:10290000909145040E944D078091420490914304A8
:102910000E944D078AED98E00E942B0782EA98E01A
:102920000E942B0789E090E00E94560783E998E017
:102930000E942B0780ED90E3A0E0B0E089839A83AA
:10294000AB83BC8301E010E0FF24FA94F00E60E456
:1029500072E0C8010E94A5078D839E83AD81BE8170
:10296000AB2B09F183E798E00E942B078F2D90E0B5
:102970000E94560780E798E006CF1092420410921A
:10298000430410924404109245048BE0E1E1F1E02D
:10299000A6E4B4E001900D928A95E1F710925104FB
:1029A00087EB98E0B9CF20E032E040E452E0698163
:1029B0007A818B819C810E9430090F5F1F4F898132
:1029C0009A81AB81BC819E5FAF4FBF4F89839A8351
:1029D000AB83BC830A30110509F0B6CF81E0809348
:1029E0004004109241048FE598E00E942B07AFCE7F
:1029F00080914004882321F00E94361310924004F5
:102A00000895809140040895AF92BF92CF92DF92D3
:102A1000EF92FF920F931F93CF93DF93D82EC92E7F
:102A2000B62EA72E7A01809140042EEF3FEF882327
:102A300091F103E110E060E472E0C8010E94A50793
:102A4000892B09F042C0C0E4D2E088818823D1F10B
:102A5000853E69F18B8583FD2AC048E050E06D2DED
:102A60007C2DCE010E94A82C892B09F543E050E073
:102A70006B2D7A2DCE0108960E94A82C9C01892BE3
:102A8000B1F4E114F10439F080E2FE01D7010190C4
:102A90000D928A95E1F7C901DF91CF911F910F91B6
:102AA000FF90EF90DF90CF90BF90AF900895A096E9
:102AB00084E0C034D80749F60F5F1F4F013211057B
:102AC00009F0B9CF2DEF3FEFE6CF2FEF3FEFE3CF88
:102AD000EF92FF920F931F93CF93DF938C01F62E0B
:102AE000E72E80914004811116C08EEF9FEFDF9199
:102AF000CF911F910F91FF90EF900895253E59F0CF
:102B000023852F3041F020E2AF2DBE2D01900D9294
:102B10002A95E1F7ECCFF80180819181803E910503
:102B200010F5EC01CF70DD2725E0CC0FDD1F2A95D5
:102B3000E1F734E0969587953A95E1F760E472E025
:102B400043960E94A507009789F4FE01E05CFD4FC3
:102B5000D8012D913C9111972F5F3F4F2D933C93BE
:102B600020812111CBCF8DEF9FEFC1CF8FEF9FEF52
:102B7000BECF8F929F92AF92BF92CF92DF92EF9291
:102B8000FF920F931F93CF93DF93CDB7DEB7A0973C
:102B90000FB6F894DEBF0FBECDBF7C016B018A017A
:102BA0008DE498E00E942B075701470188E0880ECA
:102BB000911CF50181915F01803229F00E94180774
:102BC000A814B904B1F78EE20E9418075601460115
:102BD000A3E08A0E911CD5018D915D01803229F010
:102BE0000E941807A814B904B1F789E498E00E947C
:102BF0002B07AE014F5F5F4FB601C7010E9404155E
:102C00007C01892BC1F082E398E00E942B07C70169
:102C1000A0960FB6F894DEBF0FBECDBFDF91CF9167
:102C20001F910F91FF90EF90DF90CF90BF90AF90EA
:102C30009F908F900895F8013D9686E0DF011D92E8
:102C40008A95E9F781E0F80180838B8D9C8D9283D2
:102C50008183948383838D8D9E8DAF8DB8A1858371
:102C60009683A783B0871186128613861486118AED
:102C70008BE198E00E942B078B8D9C8D0E9456075C
:102C800084E198E00E942B078D8D9E8D0E9456074F
:102C900081E198E0BACF6F927F928F929F92AF922C
:102CA000BF92CF92DF92EF92FF920F931F93CF9339
:102CB000DF93EC013B016A018881882309F488C015
:102CC0008989811185C08091400481117BC08EEF7C
:102CD0009FEF69C08D819E8149855A8595012E1986
:102CE0003F09841B950B2817390708F4C9014601D1
:102CF000801A910A8815990508F44C01B701605CA7
:102D00007D4FA401C301800F911F0E94B52C080DB7
:102D1000191D89859A85AB85BC85880D991DA11DD6
:102D2000B11D89879A87AB87BC87AC01BD01517003
:102D300066277727452B462B472BA1F44D815E81D3
:102D40006F81788584179507A607B70758F48B819C
:102D50009C810E9483129C01283F8FE0380710F568
:102D60003C832B830C151D05E8F489859A85AB857A
:102D7000BC854D815E816F81788584179507A60794
:102D8000B70780F47C0121E0F2228B819C8160E412
:102D900072E04F960E94A507892B09F49BCF01157D
:102DA0001105C1F0C801DF91CF911F910F91FF90E4
:102DB000EF90DF90CF90BF90AF909F908F907F90DB
:102DC0006F90089510E000E0A12C82E0B82ECACFE9
:102DD00089EF7ECF8FEF7CCF3F924F925F926F92C1
:102DE0007F928F929F92AF92BF92CF92DF92EF929B
:102DF000FF920F931F93CF93DF938C012B017A01E6
:102E0000FC018081882309F490C08189882309F41A
:102E10008CC08091400481117CC08EEF9FEF67C011
:102E2000F301C50111920197E9F740C0CC0DDD1DFA
:102E3000F80181859285A385B4858C0D9D1DA11D0A
:102E4000B11D81879287A387B487328A9170AA27A0
:102E5000BB27892B8A2B8B2BB1F4CE15DF0598F479
:102E60000E94C6126C0197FD41C0BC01F80183812C
:102E700094810E94DB126FEF7FE0C6010E94DB129B
:102E8000F801D482C382CE15DF0580F5F801818474
:102E90009284F1E09F228114910411F2F801838160
:102EA000948160E472E04F960E94A507C7018C1BD5
:102EB0009D0B6501C818D9088C159D0508F46C0197
:102EC000A601B2016C0F7D1FC401805C9D4F0E9462
:102ED000B52CF8018381948160E472E04F960E94E2
:102EE0000D08892B09F4A2CF209709F1CE01DF91BB
:102EF000CF911F910F91FF90EF90DF90CF90BF90F7
:102F0000AF909F908F907F906F905F904F903F9089
:102F10000895D0E0C0E080E4682E82E0782EA12CF5
:102F200092E0B92E33243394AECF89EF77CF8FEF71
:102F300075CFCF93DF93EC018881882309F44EC0CD
:102F40008FEF97E00E942B0789859A850E9456078C
:102F500087EF97E00E942B078989811124C08EE4B6
:102F60000E94180781EF97E00E942B078A89811140
:102F70001CC08EE40E9418078EEE97E00E942B077B
:102F80008989882351F18A89882339F160E472E0C4
:102F90008D859E850E94A507892B49F08FEF9FEFB5
:102FA000DF91CF91089589E5DBCF89E5E3CFEF8508
:102FB000F889E05CFD4F89859A85AB85BC85848F57
:102FC000958FA68FB78F60E472E08D859E850E94F5
:102FD0000D08892B19F70E943613188290E080E0C3
:102FE000DFCFCF92DF92EF92FF920F931F93CF9399
:102FF000DF93182F092FD62EC72E80914004CEEFD5
:10300000DFEF882361F083E1E82EF12C60E472E0C9
:10301000C7010E94A507892B61F0CFEFDFEFCE013A
:10302000DF91CF911F910F91FF90EF90DF90CF90A4
:103030000895C0E4D2E08881882309F441C0853E28
:1030400091F148E050E0612F702FCE010E94A82C32
:10305000892B49F543E050E06D2D7C2DCE0108967B
:103060000E94A82C892BF9F40A8D1B8DC8010297A8
:10307000863F9F4068F085EE888360E472E0C70178
:103080000E940D08EC01892B41F60E943613C7CF30
:10309000C8010E9483126C0170E060E0C8010E94C8
:1030A000DB128601E3CFA09684E0C034D80719F67E
:1030B0002FEFE21AF20A81E2E816F10409F0A6CF36
:1030C000CDEFDFEFACCF5F926F927F928F929F92A6
:1030D000AF92BF92CF92DF92EF92FF920F931F9326
:1030E000CF93DF93CDB7DEB7A0970FB6F894DEBFCE
:1030F0000FBECDBF882E792E662E572E8A01809165
:103100004004882309F49BC0AE014F5F5F4F882DB8
:103110000E940415892B31F4662D752D882D972D6D
:103120000E94F11793E1A92EB12C60E472E0C50171
:103130000E94A507892BC1F08FEF9FEFA0960FB6D5
:10314000F894DEBF0FBECDBFDF91CF911F910F91DD
:10315000FF90EF90DF90CF90BF90AF909F908F90B7
:103160007F906F905F90089580E4E82E82E0F82EC3
:10317000912CF7018081811108C00E94C6126C0158
:1031800097FF17C08AEF9FEFD9CF853EB1F3939495
:10319000F0E2EF0EF11C40E19412EBCF8FEFA81A92
:1031A000B80A91E2A916B10409F0BFCF8BEF9FEFE7
:1031B000C5CF6FEF7FE00E94DB1280E2F701482F5E
:1031C00011924A95E9F798E0E82DF72DD701019083
:1031D0000D929A95E1F7D701189693E0E62DF52D1B
:1031E00001900D929A95E1F7F7018387D38EC28EF5
:1031F000148E158E168E178E60E472E0C5010E9443
:103200000D08009709F098CF21E0F8012083D282C1
:10321000C182D482C38215821682178210861186DB
:10322000128613861486218B128AB686A586F0E252
:103230009F9E90011124F801308B27877FCF8EEF5E
:103240009FEF7CCF4F925F926F927F928F929F926F
:10325000AF92BF92CF92DF92EF92FF920F931F93A4
:10326000CF93DF93CDB7DEB7A0970FB6F894DEBF4C
:103270000FBECDBF782E692E562E472ED42EC52ECA
:10328000B22EA32E80914004882309F480C0AE01A1
:103290004F5F5F4F622F732F8D2D9C2D0E94041561
:1032A000892B09F477C083E1E82EF12C60E472E009
:1032B000C7010E94A507892B09F06FC000E412E046
:1032C000F8018081882309F45FC0853E09F44DC070
:1032D00048E050E0672D762DC8010E94A82C892B6C
:1032E00009F043C04801F8E08F0E911C43E050E024
:1032F000652D742DC4010E94A82C892BB1F588E09E
:10330000ED2DFC2DD80101900D928A95E1F783E017
:10331000EB2DFA2DD40101900D928A95E1F760E42E
:1033200072E0C7010E940D0821E030E0892B11F402
:1033300030E020E088279927821B930BA0960FB6D8
:10334000F894DEBF0FBECDBFDF91CF911F910F91DB
:10335000FF90EF90DF90CF90BF90AF909F908F90B5
:103360007F906F905F904F900895005E1F4F84E0B4
:103370000034180709F0A4CFEFEFEE1AFE0AF1E2CD
:10338000EF16F10409F092CF8DEF9FEFD7CF8EEFBC
:103390009FEFD4CF8CEF9FEFD1CF8FEF9FEFCECFAA
:1033A0000F931F93CF93DF9300D000D0CDB7DEB73C
:1033B00080914004882399F102E010E01A8219827A
:1033C000C8010E948312892B31F429813A812F5F31
:1033D0003F4F3A8329830F5F1F4F01323BE01307B2
:1033E00079F749815A81B0E0A0E09A01AD0189E006
:1033F000220F331F441F551F8A95D1F729833A8323
:103400004B835C8369817A818B819C810F900F90C3
:103410000F900F90DF91CF911F910F910895198216
:103420001A821B821C82EECFAF92BF92CF92DF92A4
:10343000EF92FF920F931F93CF93DF9300D000D0B2
:1034400000D0CDB7DEB78D839E8380E092E0E0E4CC
:10345000F2E0DF019C011D9221503040E1F72BEE9C
:10346000209340022CE32093410220E92093420262
:1034700028E0EDE1F1E0A3E4B2E001900D922A959D
:10348000E1F790934C0280934B0281E080934D02D0
:1034900081E090E090934F0280934E0282E080930F
:1034A000500280EE90E0909352028093510280E4AB
:1034B0009BE0909354028093530280EF80935502D7
:1034C00089E090E0909357028093560282E190E069
:1034D000909359028093580282E090E090935B02AF
:1034E00080935A0289E2809366028EEE9FEFA0ECF1
:1034F000B4E68093670290936802A0936902B09348
:103500006A028D819E81892B09F4CCC08BE0ED810C
:10351000FE81ABE6B2E001900D928A95E1F788E07A
:10352000E2E3F1E0A6E7B2E001900D928A95E1F7BF
:1035300085E580933E048AEA80933F0460E472E06C
:1035400090E080E00E940D08892B09F0AFC001E0F7
:1035500010E080ED90E3A0E0B0E089839A83AB8334
:10356000BC8380E4C82E82E0D82EA12C92E0B92E34
:1035700020EFE22EFF24FA94D601F5011D92319737
:10358000E9F7013031F4E0924002F0924102F0920A
:10359000420260E472E0C8010E940D08892B09F024
:1035A00085C060E472E0C80109960E940D08892B6D
:1035B00009F07CC020E032E040E452E069817A8189
:1035C0008B819C810E94300989819A81AB81BC8169
:1035D0009E5FAF4FBF4F89839A83AB83BC830F5FDE
:1035E0001F4F0A30110541F6E0E4F2E080E092E07E
:1035F000DF019C011D9221503040E1F78D819E81B9
:10360000892BB9F088E0ED81FE81A0E4B2E0019061
:103610000D928A95E1F7ED81FE8180859185A285E5
:103620008093480290934902A0934A0288E08093D5
:103630004B0260E472E083E190E00E940D08892B68
:10364000A9F5E0E4F2E080E092E0DF019C011D9248
:1036500021503040E1F784E190E09A83898360E46F
:1036600072E089819A810E940D08892BF9F4A98161
:10367000BA811196BA83A983919789F71092400471
:1036800026960FB6F894DEBF0FBECDBFDF91CF9167
:103690001F910F91FF90EF90DF90CF90BF90AF9070
:1036A0000C9493138BE0E6E2F1E033CF8FEF9FEFC2
:1036B00026960FB6F894DEBF0FBECDBFDF91CF9137
:1036C0001F910F91FF90EF90DF90CF90BF90AF9040
:1036D00008958F929F92AF92BF92CF92DF92EF9216
:1036E000FF920F931F93CF93DF936C014B017A01ED
:1036F00048E050E060E270E0C4010E94BE2C43E06C
:1037000050E060E270E0C7010E94BE2C56019601B5
:10371000E90188812F5F3F4F81110BC0F6010190B5
:103720000020E9F731978F010C191D09D0E0C0E0A6
:1037300007C08E3269F78E010C191D09209771F3AD
:103740000930110514F008E010E06401912C812C7F
:103750008016910614F12097A9F12196DE010D90B3
:103760000020E9F711978701AC1BBD0BA430B10510
:1037700014F0A3E0B0E0EA0EFB1E0E151F05D1F415
:10378000DF91CF911F910F91FF90EF90DF90CF903D
:10379000BF90AF909F908F900895F50181915F0148
:1037A00090E00E94A02CF60181936F01FFEF8F1A29
:1037B0009F0ACECF899190E00E94A02CF8018193BE
:1037C0008F01DBCF83E0EBE3F1E0D70101900D92B5
:1037D0008A95E1F7D5CF8F93549A5C9881E08093D6
:1037E00053048F91189553985B9A54985C9A089556
:1037F000FC011082549A5C988FE391E00197F1F7F5
:1038000000C0000081E197E24B9B18C054985C9A7D
:1038100090E080E061E070E021E137E24B9918C070
:103820004C9B09C02081AB01082E01C0440F0A94B3
:10383000EAF7242B208321E137E21BC025E02A95FB
:10384000F1F70000019701F754985C9A80E0089521
:1038500045E04A95F1F7000021503109F9F60E9440
:10386000F31BF4CF45E04A95F1F7000021503109F0
:10387000B1F34B9BF7CF01968830910569F6549AC6
:103880005C988FE891E00197F1F700C0000081E0BB
:103890000895FC01DB0110821C9254985C9A89EC1B
:1038A00090E04B9B16C025E02A95F1F700000197A8
:1038B00009F581E08C93549A5C988FEE90E0019723
:1038C000F1F700C0000054985C9A81E197E24B99AF
:1038D00007C090E080E061E070E021E137E214C0D1
:1038E00025E02A95F1F70000019789F70E94F31B64
:1038F00080E008954A99D5CFF9CF45E04A95F1F790
:1039000000002150310991F34B99F7CF4C9B09C02E
:103910002081AB01082E01C0440F0A94EAF7242B42
:10392000208321E137E207C045E04A95F1F7000026
:1039300021503109D9F24B9BF7CF01968830910580
:1039400061F6549A5C9881E00895539A5B98549874
:103950005C9AEFE3F1E03197F1F700C0000021E15C
:1039600037E24C9B45C0662391F053985B9A21E166
:1039700037E24C9949C021E137E24C9B4EC0539A43
:103980005B98EFE3F1E03197F1F700C0000030E021
:1039900020E090E0AC01022E02C0559547950A94B4
:1039A000E2F740FF43C054985C9AEFEEF0E03197A5
:1039B000F1F700C0000053985B9AEFEEF0E031970A
:1039C000F1F700C00000539A5B982F5F3F4F2830FB
:1039D000310501F754985C9A81E197E24C9929C02E
:1039E0008FE891E00197F1F700C0000081E00895B1
:1039F000F5E0FA95F1F700002150310911F480E06B
:103A000008954A99AECFFBCF95E09A95F1F7000063
:103A10002150310909F0ADCFF2CFE5E0EA95F1F799
:103A200000002150310909F0A8CFE9CF549A5C98E1
:103A3000BCCFF5E0FA95F1F70000019779F6DFCFFA
:103A4000EF920F931F93CF93DF938093370590E30B
:103A5000E92E08E315E00E946820EC01803491050E
:103A600014F0C0E4D0E0AE01552768E375E084EFC0
:103A700094E00E94B52CC093340510923505109245
:103A80003605DF91CF911F910F91EF900895CF935D
:103A9000C82F87EC9CE00E942B078C2F90E00E949F
:103AA000560784EC9CE00E942B07C09354041092AC
:103AB000560410925504109253048AB1837C8AB93B
:103AC0008BB18C638BB9809169008C7F826080930D
:103AD000690081E08CBBE89AC9B184EB9CE00E944C
:103AE0002B078CE4C2FD88E40E9418078EEA9CE054
:103AF0000E942B078CE4C3FD88E40E94180787EA24
:103B00009CE00E942B078CE4C4FD88E40E94180707
:103B100081EA9CE00E942B078CE4C5FD88E40E94AA
:103B200018078EE99CE00E942B07E9E5F4E08EED92
:103B3000DF011D928A95E9F720E040E06FE371E034
:103B400089E4CF910C94201DCF93DF93EC01DB012E
:103B5000E091350580913405E81730F081E08C93D1
:103B600080E0DF91CF91089581E08E0F809335053D
:103B7000F0E0E853FB4F84A5888381E02091350570
:103B800090913405291708F480E08C9381E0E9CF07
:103B9000CF92DF92EF92FF920F931F93CF93DF9319
:103BA00000D00F92CDB7DEB7809152044D9923C05B
:103BB000811115C081E08093520486E69CE00E944A
:103BC0002B0710925604109255040E94F31B0E947A
:103BD0003F0B0E94F8140E9458200E9451270F901A
:103BE0000F900F90DF91CF911F910F91FF90EF9069
:103BF000DF90CF900895882309F45BC0109252049F
:103C000080E49CE00E942B070E949E0A0E944D0BBC
:103C1000892B91F08EE29CE00E942B0720E040E08F
:103C200061E071E08AE40E94201D85E090E00E943E
:103C30000D2C0E943F0BD3CF8DE19CE00E942B07FF
:103C40000E94870B81110EC084E09CE00E942B072C
:103C500020E040E061E071E08AE40E94201D86E0FF
:103C600090E0E5CF8DEE9BE00E942B070E9493131E
:103C7000892B79F48CED9BE00E942B070E943F0B6F
:103C80008CEA9BE00E942B0790E080E00E940D2CC4
:103C9000A6CF87EC9BE00E942B0720E040E061E08C
:103CA00071E08AE40E94201D86E090E00E940D2CC5
:103CB000E5CF4A9B41C080915504909156040297EC
:103CC00009F08DCFAE014F5F5F4FBE016E5F7F4F3A
:103CD000809157040E94D623882359F10E944C27D3
:103CE000FC0169818A81309709F10680F781E02D16
:103CF0003097E1F0099581110AC082E99BE00E94AA
:103D00002B0710925604109255040E94F31B8981D0
:103D1000882309F464CF8AE79BE00E942B07109266
:103D20005604109255040E94F31B59CF0E94A51C03
:103D3000E2CF8BE59BE0F1CF0E94BF2B8FE49BE0AD
:103D40000E942B07549A5C9882E0E82EF12CCC2438
:103D5000C394D12C4A990AC0CE0103960E94F81B45
:103D6000811142C084E39BE00E942B070E94C12B7B
:103D700080915504909156040297D1F48CE89AE012
:103D80000E942B070E941F270E944C278C0100973E
:103D900079F0DC011A968D919C91892B49F084E78A
:103DA0009AE00E942B07D8011A96ED91FC91099593
:103DB0008091550490915604019709F010CF87E542
:103DC0009AE00E942B078091570490E00E945607CA
:103DD00084E59AE00E942B0711E04A99C6C08AE365
:103DE0009AE00E942B07FBCE87E29BE00E942B0704
:103DF0008B810E9439078B818F3361F58BE19BE0CA
:103E00000E942B078091550490915604019709F068
:103E1000A1CF809157048F30C1F46091C50466230F
:103E200059F0E62FF0E0EC5AFB4F11AA85E894E038
:103E30000E94BD251092C50410925604109255049C
:103E40000E94F31B0E94512785CF8130A9F70E9461
:103E5000BC23F2CF8F3561F481E19BE00E942B07F8
:103E60008091550490915604029709F073CFE4CFE6
:103E7000182F1F71982F907E9032C9F487E09BE035
:103E80000E942B07812F90E00E94560784E09BE060
:103E90000E942B078091540481135CCFD09256046A
:103EA000C092550480EF9AE00E942B0753CF9034C4
:103EB000B9F488EE9AE00E942B07812F90E00E94CF
:103EC000560785EE9AE00E942B07809154048113D7
:103ED00041CFF0925604E092550483ED9AE0E4CF8E
:103EE000982F907F903651F5182F1F7089EC9AE02B
:103EF0000E942B07812F90E00E94560786EC9AE0E3
:103F00000E942B07109357048091550490915604FA
:103F10008130910529F41092C5041092C6041ACF7D
:103F2000029709F017CF54985C9A8FE391E00197BC
:103F3000F1F700C00000539A5B980CCF903E91F4CB
:103F4000182F1F708BEB9AE00E942B07812F90E0B7
:103F50000E94560788EB9AE00E942B07812F0E944F
:103F6000BC23F8CE82EB9AE09FCFBE016F5F7F4FFC
:103F7000CE0102960E94491C811103C081E29AE0A1
:103F800030CF8091570490915904911136C08F30F1
:103F9000A1F1E0918404E93248F48A8191E09E0F16
:103FA00090938404F0E0EC5AFB4F86838981882348
:103FB00009F413CFE0918404F0E0EC5AFB4F168231
:103FC00080E19AE00E942B078AE594E00E941F0797
:103FD0008CE09AE00E942B07409184046AE574E02B
:103FE000809157040E948A20109359048981882364
:103FF00009F4F3CE89EF99E0F4CEE091C5046A812B
:10400000E03440F491E09E0F9093C504F0E0EC5A48
:10401000FB4F61AB0E94A425E9CF80915304882314
:1040200041F01092530480E89CE00E942B070C940E
:10403000C81D08950F931F93CF93DF93CDB7DEB7BD
:10404000CC52D4400FB6F894DEBF0FBECDBF8C016A
:104050009C01AE01435D5D4F60ED78E580E090E04E
:104060000E9405092CE232E0AE014F5F5F4FB801BC
:10407000CE01835D9D4F0E94A12B8C01181619065D
:1040800054F49C01AE014F5F5F4F60ED7AE580E034
:1040900090E00E943009C801C45DDB4F0FB6F89470
:1040A000DEBF0FBECDBFDF91CF911F910F9108955D
:1040B000E5E7F5E083E1DF011D928A95E9F71092CB
:1040C000700520E040E06FE371E089E40C94201D6E
:1040D000EF920F931F931F922F931F924F937F93F3
:1040E0006F931F928F938DE491E09F938F931F9214
:1040F000EF921F930F930E94D02C2DB73EB7225FF3
:104100003F4F0FB6F8943EBF0FBE2DBF1F910F91CA
:10411000EF9008957F928F929F92AF92BF92CF922D
:10412000DF92EF92FF920F931F93CF93DF93CDB760
:10413000DEB7C356D1090FB6F894DEBF0FBECDBFB0
:10414000182F7B01042F81EC9DE00E942B07812F0B
:1041500090E00E94560789EB9DE00E942B076701C3
:104160004701800E911C8C149D04E1F585EB9DE0C8
:104170000E942B07FE01EF5AFF4F1192119287E028
:10418000DF011D928A95E9F76C961FAE1EAE6C9703
:104190006E961FAE1EAE6E97123078F40E94011517
:1041A000811126C08DE99DE00E942B0720E040E0B0
:1041B00061E071E08AE40E94201DCD59DF4F0FB607
:1041C000F894DEBF0FBECDBFDF91CF911F910F914D
:1041D000FF90EF90DF90CF90BF90AF909F908F9027
:1041E0007F900895D6018D916D010E941807BBCF75
:1041F00011111DC2013009F01AC2F7018081843209
:1042000009F015C289E89DE00E942B07098384E02C
:104210008A8322E030E0AE014F5F5F4F60ED76E4CD
:1042200080E090E00E9430091B821C8282E18D8335
:1042300082E28E83E9E6F1E0DE01179689E791E0FC
:1042400021912D938E179F07D9F782E28F8B80E201
:10425000888FEAE7F1E088E1919121E0280F482F6B
:1042600050E09111B5C0E1E0F0E0EC0FFD1F4E0F02
:104270005F1FDA011C9230E07901B2E0EB0EF11C15
:104280008C5F8983C9018D5F9B4F9A83AF0162ED7B
:1042900076E480E090E00E943009A0961FAE1EAE4A
:1042A000A09730E2C32E42E2B42E0FE010E0BE0130
:1042B0006F5C7F4FCE01825A9F4F0E946815AC0100
:1042C000892B31F468EFE6166FE0F60608F48BC030
:1042D0000E94D019A4966CAF7DAF8EAF9FAFA4970C
:1042E000BB27A92F982F872F19821A828B839C8333
:1042F000A1E8B1E084E09D9161E0680F282F30E0F3
:1043000091118BC188248394912C8C0E9D1E280DB5
:10431000391DD9011C92F401E60FF11D1082E2E073
:10432000E80F88248394912C8C0E9D1E8E0E911C78
:10433000F40110828D5F082F10E0B0E0A0E097013B
:10434000AD012053394B4F4F5F4FA4962CAF3DAF7B
:104350004EAF5FAFA4979801AE014F5F5F4FA49639
:104360006CAD7DAD8EAD9FADA4970E9430090E0D52
:104370001F1D10937405009373051092720510921F
:10438000710511E0109370058AE79DE00E942B07EC
:1043900080917305909174050E94560787E79DE010
:1043A0000E942B0710926F0510926E0510926D05FA
:1043B00010926C0510926B0510926A0510936905B6
:1043C0001092680520E040E06EE871E080E0F3CEF6
:1043D00088248394912C8C0E9D1E480D591DDA0162
:1043E0009C93822F39CF6CAD63FD61CF61968CAD0C
:1043F0009DADAEADBFAD619781509F4FAF4FBF4FE9
:10440000892F9A2FAB2FBB279C0119821A82009704
:1044100011F481E090E09C838B832A30310508F011
:104420003EC0CD82A5E0E1E0EA0F88248394912C80
:104430008C0E9D1E8A0E911CD401CC9291E09E0F91
:10444000A1E0B0E0AC0FBD1FAE0FB11DFD01C082F9
:1044500081E0890FE1E0F0E0EC0FFD1FE90FF11DB5
:10446000B08228E030E0722F732E21503109E1E351
:10447000F0E0EC0FFD1FE20FF31FE081E032D1F01E
:10448000FE01F1969E5F970F282FAA24A394A20EF7
:1044900030E09A11A5C0870F272F372D0EC0243684
:1044A000310510F4A4E0BFCF94E0283E334080F6FD
:1044B000E4E0C4CF21153105B1F699AD7BAD703282
:1044C00009F09AC07AAD703209F099C0903221F1AA
:1044D00041E050E091E0980F7EE2E1E0F0E0EC0F87
:1044E000FD1FE80FF11D7083DE01D996792F740F3F
:1044F000DD90E92F9F5F88248394912C8C0E9D1E64
:104500008E0E911CF401D0829713F2CF840F8F5F2F
:10451000FA0131962E0F3F1F91E0980FE1E0F0E095
:10452000EC0FFD1FE80FF11DB08271E1780F721BD7
:10453000E92F9F5FA1E0B0E0AC0FBD1FAE0FB11D32
:10454000FD01C0829713F4CF8E5FF801E21BF30BDD
:10455000D82EDE0EE1E6F1E064FD11C043305105D6
:1045600061F443E050E065E671E0CE01C9960E9437
:10457000A82CE5E6F1E0892B11F0EBE3F1E03191B5
:1045800021E02D0D8D2D90E031113CC0E1E0F0E0F7
:10459000EC0FFD1F8E0F9F1FDC011C9230E04901C4
:1045A0008E0C9F1CC4018F5F9B4F9A838983B0E060
:1045B000A0E0A701BD014053594B6F4F7F4FA49618
:1045C0004CAF5DAF6EAF7FAFA497AF01A4966CAD5B
:1045D0007DAD8EAD9FADA4970E943009740167CE6A
:1045E000D19088248394912C8C0E9D1E280D391D0A
:1045F000D901DC922A2D49CF43E050E06BCF42E055
:1046000050E068CF88248394912C8C0E9D1E880DD9
:10461000991DDC013C93D22EB2CFE1E0F0E0EC0F2B
:10462000FD1F2E0F3F1FF9019083862F64CEAE0130
:10463000465A5F4FBE016F5A7F4FC7010E94691BE8
:1046400087E69DE00E942B07AE014F5A5F4F7A012B
:104650006A0158E0C50ED11CD7018D917D010E94E1
:104660001807CE14DF04C1F783E69DE00E942B07F4
:104670006B968FAD6B970E9418076C968FAD6C97F9
:104680000E9418076D968FAD6D970E9418078FE5F1
:104690009DE00E942B07111126C082E59DE00E943B
:1046A0002B0745E755E0BE01665A7F4FCE018F5A72
:1046B0009F4F0E94B9158C01892B09F440C08CE3EF
:1046C0009DE00E942B0788279927801B910B0E9451
:1046D000560789E39DE00E942B0720E040E061E956
:1046E00071E08EE368CD8CE29DE00E942B0745E7E8
:1046F00055E0BE01665A7F4FCE018F5A9F4F0E94F0
:1047000063188C01892BD9F08FE09DE00E942B0764
:1047100088279927801B910B0E9456078CE09DE00B
:104720000E942B0720E040E060EA71E088E40A3F45
:104730001F4F09F440CD6AEA71E089E13CCD109247
:104740006F0510926E0510926D0510926C05109217
:104750006B0510926A0581E08093690510926805E7
:1047600020E040E06EE871E080E00E94201D8CEFC8
:104770009CE00E942B0721CDCF93C82F8CEE9CE0AC
:104780000E942B078C2F90E00E94560789EE9CE038
:104790000E942B0780917505882321F085E795E01D
:1047A0000E94991710927005CF910895BF92CF92F1
:1047B000DF92EF92FF920F931F93CF93DF9300D07E
:1047C00000D000D0CDB7DEB7082F6B017A01FA0117
:1047D00010820E947B2B182F882309F44CC10F30C4
:1047E00009F44BC1F701108280916A0590916B0525
:1047F00020916C0530916D058217930740F5B0E06C
:10480000A0E09C01AD012053354A4F4F5F4FCA01D4
:10481000B9010E945A09F601808380916A0590913E
:104820006B05019690936B0580936A0520916C054A
:1048300030916D058217930708F446C08091680592
:10484000882309F441C081E0F70180833DC0B09026
:104850006805BB2029F081E0F701808310E034C0B7
:1048600000916905011181C01A82198222E030E0AD
:10487000AE014F5F5F4F60ED7AE580E090E00E940F
:10488000300982E090E090936D0580936C05109262
:104890006B0510926A0501E00093680560ED7AE50A
:1048A00080E090E00E945A09F601808381E090E068
:1048B00090936B0580936A0580916C0590916D05CE
:1048C000029710F4F7010083812F26960FB6F89413
:1048D000DEBF0FBECDBFDF91CF911F910F91FF9033
:1048E000EF90DF90CF90BF900895B0E0A0E09C01E2
:1048F000AD012053394B4F4F5F4F2B833C834D838A
:104900005E8321E030E0AE014F5F5F4F6B817C81C1
:104910008D819E810E94050980917105909172059B
:104920000196909372058093710580916E05909128
:104930006F05B0E0A0E09C01AD012053374A4F4F16
:104940005F4F2B833C834D835E8349816B817C81E8
:104950008D819E810E94730980916E0590916F05F3
:10496000019690936F0580936E0580916E059091EE
:104970006F058115924088F4809170058823C1F1FC
:1049800080917105909172052091730530917405A5
:104990008217930708F4A9CFB02E80916E059091ED
:1049A0006F050097B1F10E941A20181619060CF035
:1049B00052CF90936D0580936C0510926B05109209
:1049C0006A0510926F0510926E05B110109269057C
:1049D00060ED7AE580E090E00E945A09F60180835C
:1049E00081E090E090936B0580936A05102F6CCF67
:1049F00080917505882381F241E050E0BE016F5F30
:104A00007F4F85E795E00E944B16019709F48DCF03
:104A1000C3CF1A82198222E030E0AE014F5F5F4FB0
:104A200060ED7AE580E090E00E94300982E090E05D
:104A300090936D0580936C0510926B0510926A053A
:104A40001092690581E08093680560ED7AE580E069
:104A500090E00E945A09F601808381E090E09093F3
:104A60006B0580936A0580916C0590916D050297A6
:104A700008F02ACFE8CE0F3031F4B701C6010E940A
:104A8000A41D182F21CF0111E6CE1091700511231E
:104A900081F18091710590917205B0E0A0E09C01D8
:104AA000AD012053394B4F4F5F4F2B833C834D83D8
:104AB0005E8321E030E0A6016B817C818D819E8147
:104AC0000E9405098091710590917205019690935D
:104AD00072058093710520917305309174058217DA
:104AE000930708F4F1CE81E0F701808310927005FE
:104AF000EBCE10917505112309F4ADCE41E050E0E5
:104B0000BE016F5F7F4F85E795E00E944B160197CE
:104B100009F0A1CE8981F601808340917E055091F4
:104B20007F05609180057091810580917A05909153
:104B30007B05A0917C05B0917D05481759076A0750
:104B40007B0708F4C1CE7FCECF93DF930F92CDB712
:104B5000DEB76983813069F480917505882349F057
:104B600041E050E0BE016F5F7F4F85E795E00E9416
:104B7000EC160F90DF91CF910895AF92BF92CF9234
:104B8000DF92EF92FF920F931F93CF93DF93CDB7F6
:104B9000DEB7C754D1090FB6F894DEBF0FBECDBF44
:104BA0006C01162F662309F49AC08CED9CE00E94DC
:104BB0002B0776015601A10EB11CEA14FB0409F083
:104BC0004AC088ED9CE00E942B07012F1A3208F0A2
:104BD00009E2E02EF12CA701B601CE0101960E9458
:104BE000B52C81E090E08C0F9D1FE80EF91EF701B7
:104BF00010826C01F60181916F0190E00E94A02C5F
:104C0000F60131978083EC14FD04A1F7602FCE01EB
:104C100001960E949B28811162C0602FCE010196EF
:104C20000E940E2981115BC0602FCE0101960E9467
:104C3000522B882309F168E070E0CE018B960E9428
:104C40007E2B181619066CF420E040E0BE01655D6D
:104C50007F4F80E042C0F70181917F010E941807D9
:104C6000ACCF0E947B2B20E040E066EB71E081112D
:104C7000F0CF6EE871E0EDCF8981823509F441C053
:104C800064F4893409F4B7C08E3409F47EC020E09E
:104C900040E065ED71E08EE120C08335C1F713304F
:104CA000B0F38A818A3399F7AE01495C5F4FBE0148
:104CB000655D7F4FCE0103960E94691BBE01695C52
:104CC0007F4FCE018B960E94F11720E0892B09F0CF
:104CD00051C041E065EC71E081E00E94201DC95B9C
:104CE000DF4F0FB6F894DEBF0FBECDBFDF91CF917F
:104CF0001F910F91FF90EF90DF90CF90BF90AF90FA
:104D00000895133060F38A818A3349F76DE370E0C8
:104D1000CE0103960E94C52C009709F4B8CFFC0180
:104D200011928F01AE014C5B5F4FBE01695C7F4FFA
:104D3000CE0103960E94691BAE01405C5F4FBE012D
:104D4000655D7F4FC8010E94691B9E012C5B3F4F30
:104D5000AE01495C5F4FBE01605C7F4FCE018B9618
:104D60000E942219009719F420E040E082CF0396B8
:104D700031F420E040E061E971E08EE3AECF20E065
:104D800040E062EE71E08FE3A8CF133058F18A81E2
:104D90008A3341F54BE050E060E270E0CE018B9643
:104DA0000E94BE2C1EAABE016D5F7F4FFB010190C9
:104DB0000020E9F7AF0141505109461B570B4C3019
:104DC000510514F04BE050E0CE018B960E94B52CBB
:104DD000CE018B960E94141A892B39F46EE871E08B
:104DE00080E006C090E080E0F5CF6AEA71E089E1FA
:104DF00020E040E072CF0E94F8140E949313892BA8
:104E000069F361E071E08AE4F3CF10928A051092B1
:104E100089051092880508959C01892B79F0E0910D
:104E20008A05E43058F481E08E0F80938A05F0E023
:104E3000EE0FFF1FE557FA4F3183208308951F932C
:104E4000CF93DF9310E080918A05181738F0109205
:104E500089051092880590E080E018C0C12FD0E04D
:104E6000CC0FDD1FC557DA4FE881F9810480F58149
:104E7000E02D309779F00995882361F0E881F98178
:104E8000F0938905E093880580819181DF91CF912E
:104E90001F9108951F5FD7CF809188059091890554
:104EA000089510928905109288050895CF93DF9395
:104EB000FC01DB0110821C9254985C9A89EC90E012
:104EC0004B9B17C04C9B15C025E02A95F1F70000BD
:104ED000019709F04AC081E08C93549A5C9885E46C
:104EE0008A95F1F7000054985C9A81E197E24B991A
:104EF00030C090E080E029B139B123FB222720F9AE
:104F0000C22FB0E0DB2FBE01082E01C0660F0A944D
:104F1000EAF72081262B34FB442740F950E0BC01FE
:104F20006F5F7F4FDA0102C0AA0FBB1F6A95E2F7DD
:104F30002A2B2083B5E4BA95F1F700000296883059
:104F40009105C9F6549A5C9820EA2A95F1F781E018
:104F500009C04C9BCECFA5E0AA95F1F700000197C0
:104F600031F680E0DF91CF9108954A99A9CFF9CF2A
:104F7000539A5B988FE391E00197F1F700C000002E
:104F800008954C9B15C080E012C085E08A95F1F72A
:104F900000002F5F3F4F233781E03807A1F34C9B80
:104FA000F4CF285C310981E02937310560F7089595
:104FB00030E020E0F4CF662331F0EFE1F3E0319709
:104FC000F1F700C0000021E137E24C9B33C030E034
:104FD00020E090E0A9014F5F5F4FBC0102C07595D2
:104FE00067954A95E2F7AB014170BC01022E02C001
:104FF000759567950A94E2F760FF25C053985B9A10
:10500000442321F154985C9A75E47A95F1F70000F5
:105010002E5F3F4F28303105E9F653985B9A54983C
:105020005C9A81E197E24C9914C0F0EAFA95F1F7A5
:1050300081E00895F5E0FA95F1F70000215031097B
:1050400021F680E00895539A5B98DACF549A5C98E1
:10505000DBCFE5E0EA95F1F70000019721F7F1CF0A
:105060008CE092E00C940C278091930581111092B2
:1050700093050895089530E020E090E0AC01022E01
:1050800002C0559547950A94E2F740FF1BC054981B
:105090005C9A45E14A95F1F7000053985B9A4AE221
:1050A0004A95F1F700C0539A5B982F5F3F4F283025
:1050B000310521F754985C9A8AE68A95F1F700C089
:1050C00081E00895549A5C98E4CFFC011082DB01E2
:1050D0001C9290E080E061E070E021E137E207C0DF
:1050E000B5E0BA95F1F7000021503109F1F04B9B82
:1050F000F7CF4C9B09C02081AB01082E01C0440FA3
:105100000A94EAF7242B208321E137E24B9906C069
:1051100001968830910509F781E0089545E04A95A8
:10512000F1F700002150310989F780E0089588E106
:1051300092E00C940C27FC01623050F080818535A0
:1051400039F48181803321F481E0809393050895BF
:1051500080E008958091950581111092950508953C
:1051600080E00895089521E137E24B993AC0549ABE
:105170005C986AE66A95F1F700C030E020E090E0C4
:10518000A9014F5F5F4FBC0102C0759567954A95B5
:10519000E2F7AB014170BC01022E02C07595679524
:1051A0000A94E2F760FF29C053985B9A442341F1C7
:1051B00054985C9A7AE47A95F1F700C02E5F3F4FDD
:1051C00028303105E9F654985C9A53985B9A81E14E
:1051D00097E24B9B18C045E84A95F1F7000081E043
:1051E000089545E04A95F1F700002150310911F486
:1051F00080E008954A99B9CFFBCF539A5B98D6CFF8
:10520000549A5C98D7CF25E02A95F1F700000197D2
:1052100001F7EECF84E292E00C940C27FC0163309E
:10522000A0F080818D3489F481818D3271F4828186
:10523000873559F4809194058F5F8093940583306E
:1052400030F081E080939505089580E0089581E035
:1052500008952F923F924F925F926F927F928F921A
:105260009F92AF92BF92CF92DF92EF92FF920F93F5
:105270001F93CF93DF93CDB7DEB7CC50D2400FB69C
:10528000F894DEBF0FBECDBF5C018B011A01C901CE
:105290006115710509F45BC1FE01319620E032E031
:1052A000DF01A9011D9241505040E1F7D501A60F41
:1052B000B71FCB5FDD4FB983A883C550D240159788
:1052C000C55FDD4FB983A883CB50D240CB5FDD4FA4
:1052D00028813981C550D24024503109C95FDD4F42
:1052E00039832883C750D240A101480F591FC75F97
:1052F000DD4F59834883C950D24064307105ECF0CA
:10530000D5012D913D914D915C9161EB79E787E35A
:105310009EE90E94482CCF5FDD4F688379838A83A2
:105320009B83C150D240892F9927AA27BB27880F7A
:10533000991FE80FF91F118210824501BFEF8B1AE8
:105340009B0A8101F5017401C95FDD4F2881398114
:10535000C750D2402E153F0508F04AC0CB5FDD4F45
:10536000E880F980C550D240EE1AFF0A1E141F04CF
:10537000E4F570E060E0BFE0EB16F10444F0C70133
:105380000F976FEF70E00E946C2C6F5F7F4F6F5F25
:105390007F4F6E0D7F1D600F711FC75FDD4F28812E
:1053A0003981C950D2402617370708F4CEC06801AA
:1053B0003FEFC31AD30A8E2D40E1E416F1040CF03E
:1053C0008FE08295807FD8018C93C7010F974FEFB4
:1053D000BFE0EB16F1040CF056C1A701BF01C601F6
:1053E0000E94B52C86010E0D1F1D02191309AFC0B6
:1053F000D7014D905D906D907C90A301920161EB7F
:1054000079E787E39EE90E94482CCF5FDD4F6883F0
:1054100079838A839B83C150D240892F9927AA27F9
:10542000BB27880F991F21E030E02C0F3D1F820F12
:10543000931FDC01CD90DC901197CA0CDB1C970107
:105440002A193B092D933C9397012C193D09CF5FF5
:10545000DD4F39832883C150D240EC14FD0481F024
:10546000C701821B930B8A159B0550F0D6014D9105
:105470005D916D917C91441655066606770621F084
:10548000BFEFEB1AFB0A60CFC114D10409F466CF59
:10549000C701049634E0C30ED11C4C01C55FDD4F3B
:1054A00048815981CB50D2408417950740F401962A
:1054B000D6012D916D01D4013C91321771F3640135
:1054C000CE18DF08EE1AFF0A3701B0E1EB16F1043F
:1054D0001CF05FE0652E712CC60124E1C216D104D8
:1054E00014F083E190E02C0134E0431A510830E0DD
:1054F00020E04FE0E416F1044CF0C7010F976FEF86
:1055000070E00E946C2C9B012F5F3F4F70E060E0C9
:1055100053E1C516D10444F0C60143976FEF70E024
:105520000E946C2C6F5F7F4F2E0D3F1D2D5F3F4FF4
:10553000260F371F200F311FC75FDD4F88819981EC
:10554000C950D24082179307E8F40FEF1FEFC8014C
:10555000C45FDD4F0FB6F894DEBF0FBECDBFDF9145
:10556000CF911F910F91FF90EF90DF90CF90BF9060
:10557000AF909F908F907F906F905F904F903F90F3
:105580002F90089544E0660C771C4A95E1F7642853
:10559000D8016D928D01C7010F97BFE0EB16F104A2
:1055A0000CF059C0A701BF01C8010E94B52C0E0D17
:1055B0001F1DF801CF5FDD4F28813981C150D240D6
:1055C000219331938F0133E1C316D1046CF043E191
:1055D000C41AD108C80101962FEFC216D1040CF0ED
:1055E00044C0D801CC928C01C95FDD4FE881F981BC
:1055F000C750D240E815F90508F43FC0D4012D91F9
:105600003D914D915C9161EB79E787E39EE90E94C2
:10561000482CCF5FDD4F688379838A839B83C15099
:10562000D240892F9927AA27BB27880F991FE1E02D
:10563000F0E0EC0FFD1F8E0F9F1F94012A193B090C
:10564000DC012D933C93F4017ECE4FEFD8014C93B7
:105650008F5F9109890198012F5F3F4F8F3F91051F
:10566000A4F7D8018C9389019DCFEFEFD801EC937B
:10567000FFEFCF1AD1088C01ADCFF4016FCE4C9360
:105680008F5F9109690196012F5F3F4FD6018F3FD0
:105690009105ACF78C936901A0CE109297051092FA
:1056A00096050895FC01643090F080818F7D8835E7
:1056B00071F481818F7D8A3551F482818A3339F486
:1056C00083819FE9980F9A3120F4833781F080E03D
:1056D0000895813341F0833551F08033C1F7109242
:1056E000970581E0089581E080939705089581E012
:1056F000809396050895809197050895CF93DF9341
:10570000EC01CB01209196052223C1F02091970551
:10571000E7E0F2E0222311F0E2E0F2E0059774F016
:1057200084E0DE0101900D928A95E1F71C821092CF
:10573000960584E090E0DF91CF9108958FEF9FEF81
:10574000FACF0F931F93CF93DF938B01EA0124309D
:1057500031053CF48FEF9FEFDF91CF911F910F91B7
:105760000895245031094C5F5F4F0E94292997FD0D
:10577000F1CF998388830A831B830496EDCF299AFE
:10578000089529980895CF93DF93D82FC0E00E9401
:10579000BF2B2FEF87EE93E0215080409040E1F740
:1057A00000C000000E94C12B2FEF87EE93E0215034
:1057B00080409040E1F700C00000CF5FDC13E7CFEE
:1057C000DF91CF910895459A089545980895CF9314
:1057D000DF93D82FC0E00E94E32B2FEF87EE93E0FA
:1057E000215080409040E1F700C000000E94E52B6E
:1057F0002FEF87EE93E0215080409040E1F700C00A
:105800000000CF5FDC13E7CFDF91CF910895219A9D
:105810003D9A0E94C12B0C94E52BFC01079738F4AC
:10582000EB54F04D0C94802C82E00E94C32B2FEFA0
:1058300085EA9EE0215080409040E1F700C00000E2
:10584000089581E0F2CF83E0F0CF82E00E94E72B61
:10585000EECF83E0FBCF81E0F9CF0E94BF2B0E9407
:10586000E32B2FEF87EE93E0215080409040E1F74B
:1058700000C000000E94C12B0E94E52B2FEF87EE95
:1058800093E0215080409040E1F700C00000CFCF6E
:10589000DB018F939F930E94862CBF91AF91A29FB3
:1058A000800D911DA39F900DB29F900D112408951E
:1058B000AA1BBB1B51E107C0AA1FBB1FA617B70736
:1058C00010F0A61BB70B881F991F5A95A9F7809552
:1058D0009095BC01CD01089597FB072E16F4009416
:1058E00007D077FD09D00E94582C07FC05D03EF464
:1058F000909581959F4F0895709561957F4F08957C
:10590000EE0FFF1F0590F491E02D09940E94912C59
:10591000A59F900DB49F900DA49F800D911D112403
:105920000895A29FB001B39FC001A39F700D811D78
:105930001124911DB29F700D811D1124911D089598
:105940009111089581568A5108F48052855808951E
:10595000FB01DC0104C08D910190801921F44150BC
:105960005040C8F7881B990B0895FB01DC0102C069
:1059700001900D9241505040D8F70895DC0101C0CC
:105980006D9341505040E0F70895FC0181918617D6
:1059900021F08823D9F7992708953197CF010895E9
:1059A000AEE0B0E0E6EDFCE20C948A2F0D891E8992
:1059B0008F89988D26E02C831A83098397FF02C074
:1059C00080E090E801979E838D83AE01455E5F4F36
:1059D000698D7A8DCE0101960E94002D4D815E81E8
:1059E00057FD0AC02F813885421753070CF49A01DE
:1059F000020F131FF80110822E96E4E00C94A62FDC
:105A0000AFE0B0E0E6E0FDE20C947C2F7C013B01CE
:105A10008A01DC0117961C921E92169713968C91A0
:105A200081FFC3C19AE0292EFE0131964F01D701B3
:105A300013969C91F30193FD859193FF81913F0112
:105A4000882309F448C1853239F493FD859193FF89
:105A500081913F01853229F4B70190E00E94EE2E3A
:105A6000E6CFB12C412C512CBFE1B51538F08B326B
:105A700009F188F4803201F1833221F157FC3AC0F8
:105A800020ED280F2A3040F556FE1FC0B29C200D95
:105A90001124B22E06C08D3291F0803379F76894CC
:105AA00050F8F30193FD859193FF81913F0181119E
:105AB000DBCF20C0689451F8689452F8F2CF689414
:105AC00053F8EFCF689454F8ECCF429C200D11248A
:105AD000422E689455F8E5CF8E3229F456FCFBC06F
