:100000000C9460070C940B1F0C947D070C947D07D7
:100010000C947D070C947D070C947D070C947D0750
:100020000C947D070C947D070C94C90E0C947D07ED
:100030000C947D070C947D070C947D070C947D0730
:100040000C947D070C947D070C947D070C947D0720
:100050000C947D070C947D070C947D070C947D0710
:100060000C947D070C947D0752656164792E0D0A0E
:10007000004D6F756E74206661696C65640D0A00D1
:100080004641543132204F4B0D0A004D6F756E744E
:100090002046415431322E2E2E0D0A004E6F206420
:1000A00069736B20696E2064726976650D0A00447D
:1000B00072697665204F4B0D0A004E6F206472699D
:1000C0007665210D0A00466C6F70707920696E6943
:1000D000742E2E2E0D0A00436F6D7072657373209F
:1000E0004F4B0D0A00466173746C6F6164204F4B77
:1000F0000D0A00494543206465766963652023380D
:100100000D0A0037344843353935204F4B0D0A006E
:100110005352414D204F4B0D0A000D0A3D3D3D20ED
:1001200036346B6F727070752076312E3020284E09
:10013000616E6F2B5352414D29203D3D3D0D0A000C
:100140000D0A0020455252005B4449534B5D207715
:10015000726974652072633D000D0A0020523D00F3
:1001600020533D0020543D005B4449534B5D2077B4
:1001700072697465204C42413D000D0A00204552D1
:1001800052005B4449534B5D207265616420726389
:100190003D000D0A0020523D0020533D0020543DFB
:1001A000005B4449534B5D2072656164204C4241C1
:1001B0003D003031323334353637383941424344EB
:1001C000454600204641494C210D0A00204F4B0D69
:1001D0000A002072656164203078005B5352414D03
:1001E0005D20746573743A2077726F74652030787F
:1001F000005B5352414D5D20696E69742053504934
:100200002E2E2E0D0A00202F4F453D4F4E0D0A0079
:100210005B53525D2064656661756C743D30780097
:100220005B53525D20696E69740D0A005B464C5049
:100230005D207772697465204F4B0D0A005B464C58
:10024000505D204D464D20777269746520464149C6
:100250004C0D0A005B464C505D204D464D20777298
:100260006974652E2E2E0D0A005B464C505D20777A
:10027000726974653A207365656B206661696C65A7
:10028000640D0A005B464C505D20777269746520EE
:100290004552523A2077726974652070726F7465A6
:1002A00063746564210D0A005B464C505D207772D3
:1002B000697465204552523A206261642073656317
:1002C000746F720D0A000D0A0020523D0020533D4C
:1002D000005B464C505D20777269746520543D0088
:1002E0005B464C505D20616C6C203136206174742B
:1002F000656D707473206661696C65640D0A005BDE
:10030000464C505D206465636F6465204641494CEE
:100310002C207265747279696E6720776974682021
:1003200063616C696272617465642074687265737C
:10033000686F6C64730D0A000D0A005B464C505DDB
:100340002072656164204F4B2C20666972737420A3
:1003500062797465733A20002E2E2E0D0A005B46DA
:100360004C505D206465636F646520523D005B46C0
:100370004C505D2063617074757265204641494C34
:100380000D0A0020636170747572652E2E2E0D0AA1
:10039000005B464C505D20617474656D7074200084
:1003A0005B464C505D20726561643A207365656BF5
:1003B000206661696C65640D0A000D0A005B464C9D
:1003C000505D2057503D005B464C505D207265618A
:1003D00064204552523A2062616420736563746FF1
:1003E000720D0A000D0A0020523D0020533D005BB3
:1003F000464C505D207265616420543D000D0A003A
:100400005B464C505D20736964653D000D0A002D0C
:100410003E54005B464C505D207365656B20540074
:100420005B464C505D207365656B3A206E6F74209F
:10043000696E697469616C697A65642C20726563A0
:10044000616C6962726174696E670D0A000D0A0061
:10045000203E3D20005B464C505D207365656B205F
:100460004552523A20747261636B2000202D3E2069
:100470006469736B204E4F542050524553454E547F
:100480000D0A00202D3E206469736B2050524553A5
:10049000454E540D0A00205750543D005B464C50C9
:1004A0005D206469736B20636865636B3A20445315
:1004B0004B4348473D005B464C505D204552523A05
:1004C0002054524B3030206E6F7420666F756E640E
:1004D00020616674657220383520737465707321ED
:1004E0000D0A002073746570730D0A005B464C5052
:1004F0005D2054524B303020666F756E642061660B
:1005000074657220005B464C505D20726563616CBF
:100510006962726174653A207365656B696E672004
:10052000747261636B20302E2E2E0D0A005B464CD8
:10053000505D206D6F746F72204F46460D0A005B50
:10054000464C505D206D6F746F72207370696E2D14
:1005500075702074696D656F757420286E6F202F1B
:100560005244415441290D0A000D0A005B464C508B
:100570005D205741524E494E473A207369676E617C
:100580006C20746F6F20666173742C206E6F6973BA
:10059000653F206176673D0020286578706563744B
:1005A0006564207E313030292E20436865636B20DE
:1005B00031325620737570706C792E0D0A005B46CF
:1005C0004C505D205741524E494E473A206D6F7452
:1005D0006F7220746F6F20736C6F77212061766764
:1005E0003D00207469636B730D0A006D732C2061EC
:1005F000766720696E74657276616C3D005B464C6F
:10060000505D206D6F746F72207265616479206136
:100610006674657220005B464C505D206D6F746F90
:1006200072204F4E2C2077616974696E6720666F67
:10063000722073706565642E2E2E0D0A000D0A005F
:100640005B464C505D20696E697420646F6E652C4A
:100650002053523D3078000D0A002044534B43484C
:10066000473D00205750543D005B464C505D20698B
:100670006E707574733A2054524B30303D005B46B7
:100680004C505D20696E6974204750494F2E2E2EC4
:100690000D0A005B4D464D5D20736563746F7220DB
:1006A0007363616E2074696D656F75740D0A000D5A
:1006B0000A0020617420543D005B4D464D5D20666C
:1006C0006F756E6420736563746F7220002E2E2E1A
:1006D0000D0A005B4D464D5D207363616E20666FB1
:1006E0007220736563746F7220005B4D464D5D2010
:1006F0007772697465204F4B0D0A000D0A00205275
:100700003D0020533D005B4D464D5D20777269747E
:100710006520543D00206E6F7420666F756E640D09
:100720000A005B4D464D5D206465636F646520463D
:1007300041494C3A20736563746F7220005B4D46EB
:100740004D5D206465636F6465204F4B2C2035310F
:10075000322062797465730D0A005B4D464D5D2051
:10076000534543544F52204D41544348210D0A00F4
:100770000D0A0020523D0020533D005B4D464D5D6B
:10078000204944414D3A20543D000D0A00206F6637
:10079000663D0020696E74657276616C732C20640E
:1007A000656C61793D002C20005B4D464D5D2064F9
:1007B00065636F646520736563746F7220000D0A52
:1007C000002073636F72653D00206F66663D005BBD
:1007D0004D464D5D2063616C3A2064656C61793DE6
:1007E000000D0A002034455F73636F72653D005B46
:1007F0004D464D5D2020206F66663D000D0A002CA1
:1008000020616E616C79746963616C2064656C61F0
:10081000793D0020616E6420005B4D464D5D206394
:10082000616C3A207065616B7320617420000D0A61
:10083000000D0A00293A0D0A00206F66663D005B34
:100840004D464D5D206465636F6465642028646572
:100850006C61793D000D0A005B4D464D5D20726173
:10086000773A000D0A000D0A5B4D464D5D20686920
:1008700073743A00206D61783D005B4D464D5D20FC
:1008800072616E67653A206D696E3D005B4D464D45
:100890005D20636170747572652054494D454F55F4
:1008A00054210D0A006D730D0A0020696E74657283
:1008B00076616C732C20005B4D464D5D206361704A
:1008C000747572653A20005B4D464D5D2063617022
:1008D000747572652073746172740D0A000D0A00DC
:1008E000206D6F643D002077726974653D005B4642
:1008F00041545D20636C6F73653A20706F733D00E7
:100900000D0A002073697A653D005B4641545D2005
:100910006F70656E65643A20636C75737465723DC3
:10092000005B4641545D2066696C65206E6F7420E3
:10093000666F756E640D0A00270D0A005B46415410
:100940005D206F70656E5F726561642027005B4695
:1009500041545D206D6F756E74204F4B0D0A000D74
:100960000A005B4641545D20464154312072656166
:1009700064204641494C20617420736563746F7232
:10098000200020736563746F7273292E2E2E0D0A5A
:10099000005B4641545D2072656164696E67204664
:1009A0004154312028005B4641545D206E6F206227
:1009B0006F6F74207369672C2064656661756C7451
:1009C000206C6162656C0D0A000D0A0027207365BA
:1009D0007269616C3D3078005B4641545D206C610A
:1009E00062656C3D27005B4641545D204552523A9A
:1009F000207370633D3D300D0A005B4641545D201D
:100A00004552523A206E666174213D320D0A005BF8
:100A10004641545D204552523A20627073213D3563
:100A200031320D0A000D0A00207369673D307800ED
:100A300020726F6F743D002068656164733D002013
:100A40007370743D005B4641545D204250423A2031
:100A50007370663D000D0A00206D656469613D306C
:100A6000780020746F743D00206E6661743D002034
:100A70007370633D005B4641545D204250423A2012
:100A80006270733D005B4641545D206D6F756E74FE
:100A90003A20626F6F7420736563746F72207265A1
:100AA0006164204641494C0D0A005B4641545D207B
:100AB0006D6F756E743A2072656164696E6720624D
:100AC0006F6F7420736563746F722E2E2E0D0A0083
:100AD0005B4641545D20616C7265616479206D6F85
:100AE000756E7465640D0A005B4945435D206C6951
:100AF0007374656E20454F490D0A00270D0A005B8F
:100B00004945435D2066696C656E616D653D2700F2
:100B10005B4945435D206C697374656E2072656343
:100B200076206661696C0D0A005B4945435D204192
:100B3000544E20647572696E67206C697374656EBB
:100B40000D0A000D0A005B4945435D206C69737412
:100B5000656E696E6720666F7220646174612053F0
:100B6000413D005B4945435D20666173746C6F6174
:100B700064206163746976650D0A005B4945435DD5
:100B80002041544E2072656C65617365642C20644D
:100B9000657465637420666173746C6F61640D0ABB
:100BA00000203F3F0D0A000D0A0020434C4F5345E3
:100BB0002053413D000D0A00204F50454E20534127
:100BC0003D005B4945435D202D3E2054414C4B4543
:100BD000520D0A000D0A002054414C4B2023005BAB
:100BE0004945435D202D3E204C495354454E4552C6
:100BF0000D0A000D0A00204C495354454E20230095
:100C000020554E54414C4B0D0A0020554E4C495333
:100C100054454E0D0A005B4945435D20636D643DBC
:100C20003078005B4945435D2041544E2062797421
:100C3000652072656376206661696C0D0A005B4908
:100C400045435D2041544E0D0A005B4945435D20FC
:100C500074616C6B3A206E6F20646174612C207239
:100C6000656C656173650D0A005B4945435D2074E1
:100C7000616C6B3A20454F492C20646F6E650D0AFC
:100C8000005B4945435D2074616C6B3A2073656E6F
:100C900064206661696C65640D0A005B4945435DCB
:100CA000207265696E697420646F6E652C207265B0
:100CB0006164790D0A005B4945435D206D6F756E77
:100CC00074206661696C65640D0A005B4945435D8B
:100CD000204641543132204F4B0D0A005B494543B9
:100CE0005D206D6F756E742046415431322E2E2E6C
:100CF0000D0A005B4945435D206E6F206469736B8C
:100D000020696E2064726976650D0A005B4945436F
:100D10005D206472697665204F4B0D0A005B494582
:100D2000435D206E6F206472697665210D0A005B59
:100D30004945435D2072657365742072656C656119
:100D40007365642C207265696E697420666C6F70BF
:100D500070790D0A005B4945435D202A2A2A20420A
:100D60005553205245534554202A2A2A0D0A005B28
:100D70004945435D20706F6C6C3A2041544E2064AD
:100D80007572696E6720776169740D0A000D0A003B
:100D9000205253543D0020444154413D0020434CD7
:100DA0004B3D005B4945435D206275733A204154D9
:100DB0004E3D000D0A005B4945435D20696E697434
:100DC00020646576202300270D0A005B444F535DA5
:100DD00020636D643A2027000D0A005B444F535D89
:100DE00020636C6F73652053413D005B444F535D3E
:100DF000206F70656E204F4B0D0A000D0A005B449A
:100E00004F535D20534156452063726561746520E0
:100E10006661696C65642072633D005B444F535D9D
:100E200020534156450D0A000D0A005B444F535DA7
:100E3000204C4F4144206661696C65642072633DBB
:100E4000005B444F535D204C4F41440D0A00270D79
:100E50000A00272E27005B444F535D207061727398
:100E600065643A2027000D0A005B444F535D2064FF
:100E70006972206C656E3D005B444F535D20646970
:100E800072206C697374696E670D0A005B444F537E
:100E90005D204452495645204E4F5420524541440E
:100EA000590D0A00270D0A002066696C653D270070
:100EB0005B444F535D206F70656E2053413D0000D1
:100EC00011241FBECFEFD8E0DEBFCDBF12E0A0E0FF
:100ED000B1E0E8EBF5E602C005900D92A033B10752
:100EE000D9F725E0A0E3B2E001C01D92AE39B20708
:100EF000E1F70E94ED080C94D3320C94000010929C
:100F0000C5008FEC8093C400E0ECF0E0808182604B
:100F1000808388E08093C10086E08093C2000895BA
:100F20009091C00095FFFCCF8093C6000895CF93A9
:100F3000DF93EC018991811103C0DF91CF91089576
:100F40000E949007F7CFCF93DF93EC01FE018491CD
:100F50002196811103C0DF91CF9108950E949007DF
:100F6000F5CFCF93C82FE82FE295EF70F0E0EE5465
:100F7000FE4F84910E949007CF70EC2FF0E0EE546A
:100F8000FE4F8491CF910C949007CF93C82F892F57
:100F90000E94B1078C2FCF910C94B107CF92DF92B2
:100FA000EF92FF920F931F93CF93DF9300D000D067
:100FB00000D0CDB7DEB79C01892B89F480E326965B
:100FC0000FB6F894DEBF0FBECDBFDF91CF911F915A
:100FD0000F91FF90EF90DF90CF900C949007CE018F
:100FE00001967C01FC0110E000E08AE0C82ED12CC3
:100FF0000F5F1F4FC901B6010E94782F805D81935A
:10100000C9019B010A97A0F70E0D1F1DF8018291DF
:101010008F010E9490070E151F05C1F726960FB687
:10102000F894DEBF0FBECDBFDF91CF911F910F911E
:10103000FF90EF90DF90CF900895BF92CF92DF9214
:10104000EF92FF920F931F93CF93DF93182FD92F17
:10105000F62E072F64E270E00E94782F6B0162E1A8
:1010600070E00E94782FE62EB72EC1E0C80F81EA0B
:1010700091E00E94A307812F9D2F0E94CE078DE94A
:1010800091E00E94A307C60199270E94CE0789E933
:1010900091E00E94A3078E2D9B2D0E94CE0785E92B
:1010A00091E00E94A3078C2F90E00E94CE0782E976
:1010B00091E00E94A3072F2D302F4C2F6E2D8C2DE9
:1010C0000E94B40CEC0182E891E00E94A307CE01DB
:1010D000D7FF04C0882799278C1B9D0B0E94CE0741
:1010E000D7FF04C08DE791E00E94A3078AE791E053
:1010F0000E94A307CE01DF91CF911F910F91FF9026
:10110000EF90DF90CF90BF900895BF92CF92DF9283
:10111000EF92FF920F931F93CF93DF93182FD92F46
:10112000F62E072F64E270E00E94782F6B0162E1D7
:1011300070E00E94782FE62EB72EC1E0C80F88E637
:1011400091E00E94A307812F9D2F0E94CE0784E685
:1011500091E00E94A307C60199270E94CE0780E66E
:1011600091E00E94A3078E2D9B2D0E94CE078CE557
:1011700091E00E94A3078C2F90E00E94CE0789E5A2
:1011800091E00E94A3072F2D302F4C2F6E2D8C2D18
:101190000E94730DEC0188E491E00E94A307CE0148
:1011A000D7FF04C0882799278C1B9D0B0E94CE0770
:1011B000D7FF04C083E491E00E94A30780E491E09C
:1011C0000E94A307CE01DF91CF911F910F91FF9055
:1011D000EF90DF90CF90BF900895F894569A5E9864
:1011E0000E947F078AE191E00E94A3070E94272FB7
:1011F0000E940B0A80E191E00E94A3070E947F0AEF
:1012000083E091E00E94A3070E94A30E83EF90E089
:101210000E94A30788E00E9467200E9478230E9412
:10122000252A0E94502B0E94B72B0E942A2C85EE63
:1012300090E00E94A3070E946D2E87ED90E00E942F
:10124000A30778940E94D00A86EC90E00E94A3073E
:101250000E941A0B0E94C10B892B81F08AEB90E04F
:101260000E94A30720E040E061E071E08AE40E9470
:10127000402085E090E00E942D2F22C08FEA90E070
:101280000E94A3070E94FB0B81110EC08CE990E025
:101290000E94A30720E040E061E071E08AE40E9440
:1012A000402086E090E0E7CF8BE890E00E94A30723
:1012B0000E94B316892B89F480E890E00E94A3076E
:1012C0000E94B30B88E690E00E94A30790E080E0C4
:1012D0000E942D2F0E94E820FDCF81E790E0D8CF1B
:1012E0008EBD0DB407FEFDCF8EB50895CF93C62FEA
:1012F000872F0E9470098C2FCF910C947009CF9288
:10130000DF92EF92FF920F931F93CF93DF936B01C6
:10131000D82FC92F7A0189012A9883E00E94700989
:10132000B6018D2F9C2F0E947609E7010E0D1F1D1F
:10133000C017D10751F42A9ADF91CF911F910F91D5
:10134000FF90EF90DF90CF90089580E00E947009A9
:101350008993EECFCF92DF92EF92FF920F931F937C
:10136000CF93DF936B01D82FC92F7A0189012A9877
:1013700082E00E947009B6018D2F9C2F0E94760991
:10138000E7010E0D1F1DC017D10751F42A9ADF91F6
:10139000CF911F910F91FF90EF90DF90CF90089524
:1013A00089910E947009EFCF0F931F93CF93DF9322
:1013B0008B01D82FC92F2A9883E00E947009B801A9
:1013C0008D2F9C2F0E94760980E00E9470092A9A36
:1013D000DF91CF911F910F910895FF920F931F936B
:1013E000CF93DF93F62E072F182FD92FC42F2A98CB
:1013F00082E00E9470096F2D702F812F9D2F0E9417
:1014000076098C2F0E9470092A9ADF91CF911F9143
:101410000F91FF900895CF9381EF91E00E94A30771
:1014200084B18C6284B924982A9A80E58CBD8DB5EC
:1014300081608DBD2A9881E00E94700980E40E943D
:1014400070092A9A45EA60E070E0CB010E94ED093C
:1014500060E070E0CB010E94D409C82F8BED91E0D1
:101460000E94A30785EA0E94B10782ED91E00E94E5
:10147000A3078C2F0E94B1078CEC91E0C53A11F0C4
:1014800083EC91E0CF910C94A3070F931F93CF931C
:10149000DF938B01D82FC92F2A9882E00E94700910
:1014A000B8018D2F9C2FDF91CF911F910F910C943C
:1014B00076092A9A08950F931F93CF93DF938B0198
:1014C000D82FC92F2A9883E00E947009B8018D2F68
:1014D0009C2FDF91CF911F910F910C9476091EBC28
:1014E0000DB407FEFDCF8EB508952A9A80930001B2
:1014F0008EBD0DB407FEFDCF5E9A5E98089580E222
:1015000092E00E94A307569A5E988FEF80930001A5
:101510000E94750A3B9A439880E192E00E94A307DB
:10152000809100010E94B10786E092E00C94A3072D
:1015300021E030E001C0220F8A95EAF720958091E2
:1015400000018223809300010C94750A21E030E0B1
:1015500001C0220F8A95EAF780910001822B8093C7
:1015600000010C94750A8823B9F085E00E94980A5E
:1015700085E38A95F1F7000086E00E94980A90E1E1
:101580009A95F1F786E00E94A60A8FED9EE20197F8
:10159000F1F700C00000089585E00E94A60AE8CF98
:1015A000CF938EE796E00E94A30787B1887F87B923
:1015B00088B1876088B92098579A5F9A219A85EFF9
:1015C0000E94750AC6B189E696E00E94A3078CE4E2
:1015D000C0FD88E40E94900783E696E00E94A3077E
:1015E0008CE4C1FD88E40E9490078AE596E00E94A1
:1015F000A3078CE4C2FD88E40E94900787E596E08B
:101600000E94A3071092300210923102109232020F
:1016100010923302109234021092350280E496E068
:101620000E94A30785EF0E94B1078DE396E0CF915A
:101630000C94A307CF92DF92EF92FF920F931F9328
:10164000CF93DF9380913202811169C086E196E0E9
:101650000E94A30782E00E94980A84E00E94980AF0
:10166000299A2091860030918700D0E0C0E090E078
:10167000C12CD12C760160E2EFE9FFE03197F1F760
:1016800000C00000B59B54C0409186005091870077
:10169000FA01E21BF30B9F0166BBB897EE30F140F5
:1016A00008F048C0C20ED31EE11CF11C9F5F81E010
:1016B000903108F480E09A012196C83EE3E0DE070D
:1016C00009F43FC08823C1F284E0F694E794D794EC
:1016D000C7948A95D1F786018DEF95E00E94A30704
:1016E000CE010E94CE078BEE95E00E94A307C601B3
:1016F0000E94CE0782EE95E00E94A3070B3A1105E7
:1017000028F18EEB95E00E94A307C6010E94CE0748
:1017100088E995E00E94A30781E080933202DF917F
:10172000CF911F910F91FF90EF90DF90CF90089590
:1017300080E0C2CF80E09A01C12CD12C760190E0EC
:10174000BBCF8111C1CF8FE395E0E4CF0233110508
:1017500018F78CE695E00E94A307C6010E94CE0709
:1017600089E695E0D7CF8DE295E00E94A30782E05D
:101770000E94A60A84E00E94A60A109232022998CA
:1017800008951F93CF93DF9385E095E00E94A30710
:10179000D0E0C0E0309921C01092300281E0809307
:1017A00035021FE08FE99FE00197F1F700C00000CC
:1017B0000E942D231150B1F78CEE94E00E94A307F4
:1017C000CE010E94CE0783EE94E00E94A30790E032
:1017D00080E0DF91CF911F91089580E00E94B30ACD
:1017E0002196C535D105B1F686EB94E00E94A3079A
:1017F0008FEF9FEFEECFCF93DF9386B1D82FD470CA
:1018000082FBCC27C0F9C093330286B186958170E4
:1018100091E08927809334028CE994E00E94A30729
:101820008CE4D11188E40E94900786E994E00E943C
:10183000A3078091340281110FC08EE40E949007AB
:1018400083E894E0D11102C08CE694E00E94A307E3
:101850008C2FDF91CF91089589E5F0CFCF93C82FDA
:101860008035C0F085E594E00E94A3078C2F90E0BE
:101870000E94CE0780E594E00E94A30780E590E0F7
:101880000E94CE078DE494E00E94A3078EEF9FEFA5
:10189000CF91089580913502882359F180913002CB
:1018A0008C17A9F083E194E00E94A3078091300295
:1018B00090E00E94CE078FE094E00E94A3078C2F57
:1018C00090E00E94CE078CE094E00E94A3078091F4
:1018D0003002C81317C0CFE08FE99FE00197F1F7FE
:1018E00000C000000E942D23C150B1F790E080E0BD
:1018F000CFCF80E294E00E94A3070E94C10B009723
:1019000069F2C6CF8C1748F481E00E94B30A809137
:1019100030028F5F80933002DACF80E00E94B30AFA
:10192000809130028150F6CFCF93C82F80E094E0B1
:101930000E94A3078C2F90E00E94CE078DEF93E0CA
:101940000E94A30780E0CC2361F00E94980AC09314
:1019500031028FE891E00197F1F700C00000CF91CC
:1019600008950E94A60AF3CFAF92BF92CF92DF9262
:10197000FF920F931F93CF93DF93C82FB62EF42EB1
:1019800089018FEE93E00E94A3078C2F90E00E94C4
:10199000CE078BEE93E00E94A3078B2D90E00E9470
:1019A000CE0787EE93E00E94A307CF2CD12CC6016F
:1019B0000E94CE0784EE93E00E94A3078FEF8F0D65
:1019C000823188F087EC93E00E94A307C8EFDFEF35
:1019D000CE01DF91CF911F910F91FF90DF90CF90BB
:1019E000BF90AF9008950E941A0B96B19695917092
:1019F00081E09827909334028DEB93E00E94A30737
:101A000080913402811136C08EE40E9490078AEBE7
:101A100093E00E94A3078C2F0E942E0CEC0180EA19
:101A200093E0209709F059C08B2D0E94940CB12CA3
:101A3000A12C81E993E00E94A307C5010E94CE0773
:101A400083E893E00E94A3070E94190F892BA1F05D
:101A50008EE693E00E94A307FFEFAF1ABF0A80E172
:101A6000A816B10431F780EE92E00E94A307CDEFF3
:101A7000DFEFAECF89E5C9CF8EE593E00E94A307E3
:101A8000C6010E94CE0788E593E00E94A307B80133
:101A90008F2D0E942312EC01892B11F58BE393E02B
:101AA0000E94A307F80180810E94B10780E20E9492
:101AB0009007F80181810E94B10780E20E9490079F
:101AC000F80182810E94B10780E20E949007F8012C
:101AD00083810E94B10788E393E00E94A30778CF37
:101AE0008FEF92E0B7CFBF92CF92DF92EF92FF924B
:101AF0000F931F93CF93DF9300D000D000D0CDB7CA
:101B0000DEB7D82EE62EF42EB22EC32E81ED92E053
:101B10000E94A3078D2D90E00E94CE078DEC92E0ED
:101B20000E94A3078E2D90E00E94CE0789EC92E0E0
:101B30000E94A3078F2D90E00E94CE0786EC92E0D2
:101B40000E94A3078FEF8F0D8231B8F088EA92E0F0
:101B50000E94A30708EF1FEFC80126960FB6F8945E
:101B6000DEBF0FBECDBFDF91CF911F910F91FF90D0
:101B7000EF90DF90CF90BF9008950E941A0B31999B
:101B800007C084E892E00E94A3070BEF1FEFE4CFA9
:101B90008D2D0E942E0C8C0189E692E00115110515
:101BA00009F58E2D0E94940C1E821D82D982EA8234
:101BB000FB8282E08C8384E592E00E94A3076B2D78
:101BC0007C2DCE0101960E94C1138C018CE292E023
:101BD0000115110539F08DE392E00E94A3070CEF87
:101BE0001FEFBACF0E94A307B7CFB19BFECF82E011
:101BF00086BB80918800909189008096909389009F
:101C000080938800089580E286BB81E593ECB59BC4
:101C100029C08091860090918700209144023091E4
:101C20004502821B930B20918600309187003093F0
:101C300045022093440220913A0230913B028217E0
:101C40009307A0F020913802309139028217930750
:101C500078F020913602309137028217930720F4F2
:101C600082E00895019799F683E0089580E0089551
:101C700081E008955F9800C000C000005F9A089559
:101C80000F931F93CF93DF93CFE0D0E001E010E0FC
:101C90000E94F50DC8010C2E02C0880F991F0A94EE
:101CA000E2F789789474892B11F00E943A0E2197FB
:101CB00078F781E080933C02DF91CF911F910F91E3
:101CC0000895EF92FF920F931F93CF93DF9307E056
:101CD00010E0E82EF12CE701002E02C0D595C79543
:101CE0000A94E2F7C1700E94F50D80913C028C2BA2
:101CF00011F40E943A0E0E94F50DC1110E943A0E95
:101D0000C0933C020150110930F7DF91CF911F9130
:101D10000F91FF90EF900895FC01680F791FCA01A1
:101D2000E617F70709F408952191922728E0AC01FE
:101D3000880F991F57FF04C031E2832730E19327B2
:101D40002150A9F7EDCF10928000E1E8F0E091E09A
:101D5000908380818F7B8083EFE6F0E080818F7DB0
:101D600080832EE630E030933B0220933A022EE847
:101D700030E030933902209338022EEB30E030937C
:101D80003702209336028EE180933E0290933D020B
:101D900008950F920FB60F921F9211242F933F9325
:101DA0008F939F93AF93BF9380918600909187000C
:101DB0002091440230914502909345028093440261
:101DC000821B930B8EBD0DB407FEFDCF80914002A8
:101DD00090914102A0914202B09143020196A11D4F
:101DE000B11D8093400290934102A0934202B093B0
:101DF00043028091400290914102A0914202B09131
:101E000043028035934CA105B10540F080916F00ED
:101E10008F7D80936F0081E080933F02BF91AF91EF
:101E20009F918F913F912F911F900F900FBE0F9018
:101E300018952F923F924F925F926F927F928F925E
:101E40009F92AF92BF92CF92DF92EF92FF920F9349
:101E50001F93CF93DF93CDB7DEB76D970FB6F8948E
:101E6000DEBF0FBECDBF87EC98E00E94A3071092A3
:101E700040021092410210924202109243021092CC
:101E80003F0260E070E0CB010E94450AB59A809164
:101E90008600909187009093450280934402809140
:101EA0006F00806280936F00789410E000E0809172
:101EB0003F02811105C0043F91E0190709F042C0BB
:101EC00080916F008F7D80936F000E94590A87EB8D
:101ED00098E00E94A3078091400290914102A09156
:101EE0004202B09143020E94CE078AEA98E00E9423
:101EF000A307C8010E94CE0785EA98E00E94A307C5
:101F0000043F114041F58CE898E00E94A30787EF59
:101F10009FEF6D960FB6F894DEBF0FBECDBFDF9179
:101F2000CF911F910F91FF90EF90DF90CF90BF90D6
:101F3000AF909F908F907F906F905F904F903F9069
:101F40002F9008958FE99FE00197F1F700C00000FE
:101F50000F5F1F4FACCF8E010F5F1F4F84E1F80161
:101F600011928A95E9F78091400290914102A091E7
:101F70004202B0914302853F9140A105B10508F0AE
:101F8000A0C18091400290914102A0914202B09183
:101F900043027C0160E070E0CB010E945B0AD12C1F
:101FA000C12CB12CAA24AA94CE14DF0409F08EC14E
:101FB0000E94590A8AE798E00E94A3078A2D90E0C0
:101FC0000E94CE0784E798E00E94A3078B2D90E043
:101FD0000E94CE0786E698E00E94A3075801780188
:101FE00000E310E0F701C190D1907F01C114D1044A
:101FF00099F080E20E949007C8010E94CE078DE20E
:102000000E949007C8010F960E94CE078DE30E94A0
:102010009007C6010E94CE07005F1F4F003D1105CB
:1020200009F783E698E00E94A30760E070E0CB0127
:102030000E945B0A8091400290914102A09142026D
:10204000B091430210E481349105A105B10548F433
:102050008091400290914102A0914202B0914302CE
:10206000182F88E598E00E94A30700E001134FC1F4
:102070000E94590A85E598E00E94A307E12CC12C33
:1020800070E060E050E040E080E0F50121913191A6
:102090005F014217530708F443C16217730710F436
:1020A000B901E82E8F5F8A3081F7EC1418F48C2D7B
:1020B000CE2CE82EC294F0EFCF22F8E3CF0EE294BC
:1020C000A0EFEA22EF0ED12CF12C86010E0D1F1D80
:1020D000005A11090F3F2FEF12070CF426C117FF0A
:1020E00002C00F5F1F4F15950795088F89E198E093
:1020F0000E94A307C6010E94CE0783E198E00E94D8
:10210000A307C7010E94CE078FEF97E00E94A307A5
:10211000C8010E94CE078CEF97E00E94A307B12C64
:10212000A12C31E03E8B912C812CA98E60E070E0D7
:10213000CB010E945B0A68EEE62E63E0F62E712C5E
:10214000612C4FEF4D8BD12CC12C1F8A212C312CAF
:1021500021010E946F0A90E0801B910B4096803213
:1021600091050CF4E9C055E0959587955A95E1F7EE
:10217000853090F4082E04C0220C331C441C551CDE
:102180000A94D2F7689420F85F89850F282F2230AF
:1021900008F0D4C081708F8BE1E0EE1AF108C9F627
:1021A0000E94590A8FEE97E00E94A307C5010E9482
:1021B000CE0784EE97E00E94A307C6010E94CE07D7
:1021C00081EE97E00E94A3078C149D0418F4F98D0A
:1021D000FE8B4601AA94AB2809F0AAC0388D309333
:1021E0003E024E8940933D028FEC97E00E94A30788
:1021F000C8010E94CE0789EC97E00E94A3075E8980
:10220000852F90E00E94CE0781EC97E00E94A30703
:10221000C4010E94CE078EEB97E00E94A307809135
:10222000400290914102A0914202B091430248E8DD
:10223000C42E43E1D42E89389341A105B10548F459
:102240008091400290914102A0914202B0914302DC
:102250006C0160E070E0CB010E945B0A8FE398E0C4
:102260000E94A30780913E0290E00E94CE0789E37E
:1022700098E00E94A30780913D0290E00E94CE0763
:1022800084E398E00E94A307B12CA12C312C00E03C
:1022900010E0412C512C320138E1832E912CAC14EA
:1022A000BD0431F07FEFE716F10409F008F472C0C5
:1022B0000E94590A8EE298E00E94A30790E080E015
:1022C00028CE94EFE92EFF24F39464CE0E946F0A87
:1022D000E82F8A1508F4A82EBE1608F4BE2E80ED4D
:1022E0008E0F803A80F4E053FF0BB4E0F595E7954C
:1022F000BA95E1F7EE0FFF1FE00FF11F808191818A
:102300000196918380832FEFC21AD20A4DCE80E2CC
:102310000E9490070E946F0A0E94B1070F5FA6CE2D
:10232000BA01A901EC2CC82EBDCE10E000E0DDCE34
:10233000AA24A394B12CF9CE82E01CCF2250F5013F
:10234000E20FF11DB201A10104C076956795579582
:102350004795EA95D2F74A8F5B8F6C8F7D8F4A8DB8
:102360004170660C4629739457E0571578F44E3443
:1023700031F46D896E3431F07AE0C70ED11C712CC6
:10238000612C06C099E1C90ED11CF9CF642E4D898C
:102390004D8BFDCE0E946F0A90913E02891B990BD6
:1023A00040968032910504F125E0959587952A9510
:1023B000E1F78530A8F4082E04C0440C551C661CB7
:1023C000771C0A94D2F7689440F8180F1F3108F070
:1023D0001EE1123028F05FEFE516F10439F030F01D
:1023E0006FEFA61AB60A5BCF82E0E5CF1250000F5E
:1023F00080913D02810F9927991FA301920104C08A
:1024000056954795379527958A95D2F7C9018170DA
:10241000082B339437E03315E0F6802F0E94B10784
:1024200080E20E9490074FEFE41AF40AC701B4015A
:102430000E94782F892B21F481E398E00E94A30762
:10244000312C00E0C6CF2F923F924F925F926F9255
:102450007F928F929F92AF92BF92CF92DF92EF9234
:10246000FF920F931F93CF93DF93CDB7DEB72F97D4
:102470000FB6F894DEBF0FBECDBF8D876D837E8310
:1024800089EA97E00E94A3073D85232F30E03A8731
:102490002987C9010E94CE0786EA97E00E94A30718
:1024A0008091400290914102A0914202B09143027A
:1024B0000E94CE0783E997E00E94A30780913E0225
:1024C00090E00E94CE078DE897E00E94A3078091DC
:1024D0003D0290E00E94CE078AE897E00E94A307A1
:1024E00040913D024C8750913E025F8360E070E076
:1024F000CB010E945B0A412C512C3201312C212C42
:10250000C12C10E0D12CF12CE12C1B8600E0812C99
:10251000912C54017F81672F70E078876F839C85B1
:10252000892F90E09F878E87809140029091410291
:10253000A0914202B0914302481659066A067B06F2
:1025400088F00E94590A82E297E00E94A3078985D9
:102550009A850E94CE0785E197E00E94A30788EF45
:102560009FEF85C00E946F0A90E02F813885821B03
:10257000930B409697FD14C025E0959587952A9575
:10258000E1F7823068F0853060F0E114F10419F071
:1025900010E0F12CE12C00E0812C912C5401E3C0DF
:1025A00082E0082E04C0880C991CAA1CBB1C0A944B
:1025B000D2F7689480F8080F802F0F3108F00EE1F1
:1025C000E114F10409F0D7C0823108F4CCC087E0EF
:1025D00090E020E0382F330F4C85340FB501A40173
:1025E00004C076956795579547953A95D2F741700F
:1025F000552766277727082E04C0440F551F661FEE
:10260000771F0A94D2F7242B019720F76B8561116D
:102610000AC02E3F09F0A7C0C12C10E0D12CEE2437
:10262000E394F12C0AC02B3F09F09DC0312C212CE2
:1026300010E0D12C92E0E92EF12C00E094C032E0C1
:10264000E316F10471F5C1010196ED81FE81E20D01
:10265000F31DD082811542E0940708F48AC08DE30F
:1026600097E00E94A3070E94590A90E080E02F960D
:102670000FB6F894DEBF0FBECDBFDF91CF911F9193
:102680000F91FF90EF90DF90CF90BF90AF909F9011
:102690008F907F906F905F904F903F902F90089514
:1026A0002C2D10E0D12C023008F45DC002508E8534
:1026B0009F85800F911DB501A40104C07695679593
:1026C000579547958A95D2F7CA018170DD0CD82AB3
:1026D0001F5F183040F351E0E516F10409F0AFCF69
:1026E000C394E1E0F0E0EC0FFD1FE20FF11DD0829A
:1026F00063E06C15A8F6E9807FE47E15F0F1FA80BE
:1027000081E08F15D0F11B818FEF810F8231A8F509
:102710008C81823091F58BE797E00E94A3078E2D84
:1027200090E00E94CE0787E797E00E94A3078F2DD5
:1027300090E00E94CE0783E797E00E94A307812FD5
:1027400090E00E94CE0780E797E00E94A3079D8556
:10275000911313C08AE597E00E94A30710E0F12CC3
:10276000E12C21E02B875FEF451A550A650A750AAF
:10277000DBCE1C0196CF2C2D96CF10E0F12CE12C56
:10278000F2CF2F923F924F925F926F927F928F92F1
:102790009F92AF92BF92CF92DF92EF92FF920F93F0
:1027A0001F93CF93DF93CDB7DEB728970FB6F8947A
:1027B000DEBF0FBECDBF8C016F83788786E097E0C8
:1027C0000E94A307F801808190E00E94CE0782E07A
:1027D00097E00E94A307F801818190E00E94CE0754
:1027E0008EEF96E00E94A307F801828190E00E949C
:1027F000CE078BEF96E00E94A307F801228083EDBD
:1028000096E00E94A307822C912CC4010E94CE075F
:102810008DEC96E00E94A30780918600909187003E
:102820009093450280934402F0E84F2EF8E35F2E28
:1028300066246394712C10E0C12CD12C7601FC2FFE
:10284000FB5FFE830E94030E8130E1F1823009F4C8
:1028500041C081114EC1E2E0CC0CDD1CEE1CFF1C1E
:10286000EA95D1F76894C0F8D701C601AA27BB271B
:1028700089389444A105B10509F03FC11F5F1330A9
:1028800008F43BC100E0B12C10E00E94030E81303F
:1028900049F1823091F1811113C052E0CC0CDD1C62
:1028A000EE1CFF1C5A95D1F76894C0F81E5F8FE0AC
:1028B0008B1570F5FE0131965F010E3F09F487C05C
:1028C00010E01BC173E0CC0CDD1CEE1CFF1C7A95E4
:1028D000D1F7C8CF64E0CC0CDD1CEE1CFF1C6A9560
:1028E000D1F7C0CF43E0CC0CDD1CEE1CFF1C4A9599
:1028F000D1F76894C0F81D5FDACF34E0CC0CDD1C52
:10290000EE1CFF1C3A95D1F76894C0F81C5FCFCF3E
:102910001250000FD701C601012E04C0B695A7952D
:10292000979587950A94D2F78170082BB394B39446
:10293000123008F0BCCF9FE09B1508F0A6CFBACFAD
:1029400093E0CC0CDD1CEE1CFF1C9A95D1F768942B
:10295000C0F81D5F31C084E0CC0CDD1CEE1CFF1CF8
:102960008A95D1F76894C0F81C5F26C01250000FFA
:10297000D701C601012E04C0B695A79597958795F6
:102980000A94D2F78170082B3394339415C02FE04A
:102990002315B8F00E94030E813091F28230D9F2F3
:1029A00081118ECF22E0CC0CDD1CEE1CFF1C2A9581
:1029B000D1F76894C0F81E5F123048F3FFE0F315BA
:1029C000A8F6F50101935F01FE81FA1519F000E008
:1029D000312CE0CF8B81281273CF89EB96E00E94D7
:1029E000A307C4010E94CE0782EB96E00E94A307D2
:1029F000898190E00E94CE078FEA96E00E94A307AB
:102A00008FEF9BE00197F1F700C0000087E00E9484
:102A1000980AF89410923C0280918400909185006D
:102A20008096909389008093880082E086BB1CE0AA
:102A300080E00E94610E1150D9F70E94400E0E9462
:102A4000400E0E94400E8BEF0E94610E81EA8D8342
:102A50004FEF5FEF61E070E0CE0105960E948C0EB3
:102A6000AC0161E070E0CE0105960E948C0EAC01D5
:102A700061E070E0CE0105960E948C0EAC018BEFF8
:102A8000898361E070E0CE0101960E948C0E182FC0
:102A9000092FEF80F8846701EEEFDE1A5701FFEF90
:102AA000EF1AFF0AF50180810E94610E412F502F1D
:102AB00061E070E0C5010E948C0E182F092FEC1404
:102AC000FD0461F7892F0E94610E812F0E94610E23
:102AD00016E38EE40E94610E1150D9F7789487E0D6
:102AE0000E94A60A8AEE96E00E94A30790E080E08A
:102AF00011C010E0C12CD12C760191E0491A510887
:102B00006108710809F09ECE83E996E00E94A30750
:102B100087EF9FEF28960FB6F894DEBF0FBECDBFAC
:102B2000DF91CF911F910F91FF90EF90DF90CF90A9
:102B3000BF90AF909F908F907F906F905F904F90DD
:102B40003F902F9008950F931F93CF93DF9300D062
:102B500000D000D0CDB7DEB78C0180914604882329
:102B600091F1C80196958795800F911FB0E0A0E084
:102B70009C01AD0120533F4C4F4F5F4F2B833C8353
:102B80004D835E8322E030E0AE014F5F5F4F6B818B
:102B90007C818D819E810E947F0989819A8100FFBD
:102BA00010C024E0969587952A95E1F726960FB6F2
:102BB000F894DEBF0FBECDBFDF91CF911F910F9173
:102BC00008959F70F3CF90E080E0F0CFCF93DF9334
:102BD000C2E0D0E0CE010E94A315892B21F4CE01E2
:102BE000DF91CF9108952196C1328BE0D80791F7FC
:102BF0008FEF9FEFF5CFEF92FF920F931F93CF933D
:102C0000DF9300D000D000D0CDB7DEB77C018B01C0
:102C1000809146048823C9F1C701969587958E0D4A
:102C20009F1DB0E0A0E09C01AD0120533F4C4F4FF1
:102C30005F4F2B833C834D835E8322E030E0AE0107
:102C40004F5F5F4F6B817C818D819E810E947F09E8
:102C500089819A81E0FE26C08F70992724E0000FB9
:102C6000111F2A95E1F7082B192B1A83098322E0FB
:102C700030E0AE014F5F5F4F6B817C818D819E8123
:102C80000E94AA0981E08093470426960FB6F89423
:102C9000DEBF0FBECDBFDF91CF911F910F91FF908F
:102CA000EF9008958827907F1F70DDCFCF93DF933B
:102CB00000D000D000D0CDB7DEB780914604882385
:102CC00009F44EC080914704882309F449C021E0EB
:102CD00030E03E832D8380ED90E3A0E0B0E0898377
:102CE0009A83AB83BC8320E032E046E452E0698102
:102CF0007A818B819C810E947F0966E472E08D81DC
:102D00009E810E948508892B59F08FEF9FEF2696B0
:102D10000FB6F894DEBF0FBECDBFDF91CF910895FF
:102D200066E472E08D819E8109960E948508009775
:102D300061F729813A814B815C813E5F4F4F5F4F44
:102D400029833A834B835C834D815E814F5F5F4F64
:102D50005E834D834A30510531F610924704D7CF38
:102D600090E080E0D4CFFF920F931F93CF93DF9337
:102D700000D000D000D0CDB7DEB7809146048823C4
:102D8000A1F080ED9AE00E94A3071E821D828D8132
:102D90009E8126960FB6F894DEBF0FBECDBFDF91A1
:102DA000CF911F910F91FF9008958AEA9AE00E94B7
:102DB000A30766E472E090E080E00E941D08892B82
:102DC00039F085E89AE00E94A3078FEF9FEF73C068
:102DD00085E79AE00E94A3078091510290915202E8
:102DE0000E94CE078FE69AE00E94A30780915302CB
:102DF00090E00E94CE0788E69AE00E94A3078091A7
:102E0000560290E00E94CE0782E69AE00E94A30755
:102E10008091590290915A020E94CE0788E59AE06B
:102E20000E94A30780915B020E94B10785E59AE0AA
:102E30000E94A30785E49AE00E94A30780915C02A8
:102E400090915D020E94CE078FE39AE00E94A30753
:102E500080915E0290915F020E94CE0787E39AE024
:102E60000E94A30780916002909161020E94CE07A8
:102E700080E39AE00E94A307809157029091580244
:102E80000E94CE0788E29AE00E94A30780916C021C
:102E90000E94B10785E29AE00E94A3078091510247
:102EA000909152028115924049F08FE09AE00E9481
:102EB000A30788EF9FEF9E838D8369CF8091560291
:102EC000823049F08AEF99E00E94A307A8EFBFEF94
:102ED000BE83AD835CCF80915302811103C086EE27
:102EE00099E0E5CF80916C02893209F066C080914B
:102EF0006D0290916E02A0916F02B091700280936A
:102F0000480490934904A0934A04B0934B048BE087
:102F1000E1E7F2E0ACE4B4E001900D928A95E1F7CC
:102F20001092570488ED99E00E94A3078CE494E086
:102F30000E9497078CEC99E00E94A30780914A04B5
:102F400090914B040E94C5078091480490914904D8
:102F50000E94C50789EC99E00E94A30781E999E0E6
:102F60000E94A30789E090E00E94CE0782E899E0E2
:102F70000E94A30780ED90E3A0E0B0E089839A83EC
:102F8000AB83BC8301E010E0FF24FA94F00E66E40A
:102F900072E0C8010E941D088D839E83AD81BE81B1
:102FA000AB2B09F182E699E00E94A3078F2D90E0F8
:102FB0000E94CE078FE599E006CF10924804109248
:102FC000490410924A0410924B048BE0E1E1F1E0D5
:102FD000ACE4B4E001900D928A95E1F710925704A9
:102FE00086EA99E0B9CF20E032E046E452E0698118
:102FF0007A818B819C810E94AA090F5F1F4F898172
:103000009A81AB81BC819E5FAF4FBF4F89839A830A
:10301000AB83BC830A30110509F0B6CF81E0809301
:103020004604109247048EE499E00E94A307AFCEB5
:1030300080914604882321F00E945616109246047F
:103040000895809146040895AF92BF92CF92DF9287
:10305000EF92FF920F931F93CF93DF93D82EC92E39
:10306000B62EA72E7A01809146042EEF3FEF8823DB
:1030700091F103E110E066E472E0C8010E941D08CE
:10308000892B09F042C0C6E4D2E088818823D1F1BF
:10309000853E69F18B8583FD2AC048E050E06D2DA7
:1030A0007C2DCE010E94C82F892B09F543E050E00A
:1030B0006B2D7A2DCE0108960E94C82F9C01892B7A
:1030C000B1F4E114F10439F080E2FE01D70101907E
:1030D0000D928A95E1F7C901DF91CF911F910F9170
:1030E000FF90EF90DF90CF90BF90AF900895A096A3
:1030F00084E0C634D80749F60F5F1F4F013211052F
:1031000009F0B9CF2DEF3FEFE6CF2FEF3FEFE3CF41
:10311000EF92FF920F931F93CF93DF938C01F62EC4
:10312000E72E80914604811116C08EEF9FEFDF914C
:10313000CF911F910F91FF90EF900895253E59F088
:1031400023852F3041F020E2AF2DBE2D01900D924E
:103150002A95E1F7ECCFF80180819181803E9105BD
:1031600010F5EC01CF70DD2725E0CC0FDD1F2A958F
:10317000E1F734E0969587953A95E1F766E472E0D9
:1031800043960E941D08009789F4FE01EA5BFD4FFB
:10319000D8012D913C9111972F5F3F4F2D933C9378
:1031A00020812111CBCF8DEF9FEFC1CF8FEF9FEF0C
:1031B000BECF8F929F92AF92BF92CF92DF92EF924B
:1031C000FF920F931F93CF93DF93CDB7DEB7A097F6
:1031D0000FB6F894DEBF0FBECDBF7C016B018A0134
:1031E0008CE399E00E94A3075701470188E0880E0D
:1031F000911CF50181915F01803229F00E949007B6
:10320000A814B904B1F78EE20E9490075601460156
:10321000A3E08A0E911CD5018D915D01803229F0C9
:103220000E949007A814B904B1F788E399E00E94BE
:10323000A307AE014F5F5F4FB601C7010E9424187C
:103240007C01892BC1F081E299E00E94A307C701AC
:10325000A0960FB6F894DEBF0FBECDBFDF91CF9121
:103260001F910F91FF90EF90DF90CF90BF90AF90A4
:103270009F908F900895F8013D9686E0DF011D92A2
:103280008A95E9F781E0F80180838B8D9C8D92838C
:103290008183948383838D8D9E8DAF8DB8A185832B
:1032A0009683A783B0871186128613861486118AA7
:1032B0008AE099E00E94A3078B8D9C8D0E94CE0727
:1032C00083E099E00E94A3078D8D9E8D0E94CE071A
:1032D00080E099E0BACF6F927F928F929F92AF92E7
:1032E000BF92CF92DF92EF92FF920F931F93CF93F3
:1032F000DF93EC013B016A018881882309F488C0CF
:103300008989811185C08091460481117BC08EEF2F
:103310009FEF69C08D819E8149855A8595012E193F
:103320003F09841B950B2817390708F4C90146018A
:10333000801A910A8815990508F44C01B7016A5B57
:103340007D4FA401C301800F911F0E94D52F080D4E
:10335000191D89859A85AB85BC85880D991DA11D90
:10336000B11D89879A87AB87BC87AC01BD015170BD
:1033700066277727452B462B472BA1F44D815E818D
:103380006F81788584179507A607B70758F48B8156
:103390009C810E94A3159C01283F8FE0380710F5FF
:1033A0003C832B830C151D05E8F489859A85AB8534
:1033B000BC854D815E816F81788584179507A6074E
:1033C000B70780F47C0121E0F2228B819C8166E4C6
:1033D00072E04F960E941D08892B09F49BCF0115BE
:1033E0001105C1F0C801DF91CF911F910F91FF909E
:1033F000EF90DF90CF90BF90AF909F908F907F9095
:103400006F90089510E000E0A12C82E0B82ECACFA2
:1034100089EF7ECF8FEF7CCF3F924F925F926F927A
:103420007F928F929F92AF92BF92CF92DF92EF9254
:10343000FF920F931F93CF93DF938C012B017A019F
:10344000FC018081882309F490C08189882309F4D4
:103450008CC08091460481117CC08EEF9FEF67C0C5
:10346000F301C50111920197E9F740C0CC0DDD1DB4
:10347000F80181859285A385B4858C0D9D1DA11DC4
:10348000B11D81879287A387B487328A9170AA275A
:10349000BB27892B8A2B8B2BB1F4CE15DF0598F433
:1034A0000E94E6156C0197FD41C0BC01F8018381C3
:1034B00094810E94FB156FEF7FE0C6010E94FB150F
:1034C000F801D482C382CE15DF0580F5F80181842E
:1034D0009284F1E09F228114910411F2F80183811A
:1034E000948166E472E04F960E941D08C7018C1B10
:1034F0009D0B6501C818D9088C159D0508F46C0151
:10350000A601B2016C0F7D1FC4018A5B9D4F0E9412
:10351000D52FF8018381948166E472E04F960E9472
:103520008508892B09F4A2CF209709F1CE01DF91FC
:10353000CF911F910F91FF90EF90DF90CF90BF90B0
:10354000AF909F908F907F906F905F904F903F9043
:103550000895D0E0C0E086E4682E82E0782EA12CA9
:1035600092E0B92E33243394AECF89EF77CF8FEF2B
:1035700075CFCF93DF93EC018881882309F44EC087
:103580008EEE98E00E94A30789859A850E94CE0757
:1035900086EE98E00E94A3078989811124C08EE4F9
:1035A0000E94900780EE98E00E94A3078A8981110B
:1035B0001CC08EE40E9490078DED98E00E94A30746
:1035C0008989882351F18A89882339F166E472E078
:1035D0008D859E850E941D08892B49F08FEF9FEFF6
:1035E000DF91CF91089589E5DBCF89E5E3CFEF85C2
:1035F000F889EA5BFD4F89859A85AB85BC85848F08
:10360000958FA68FB78F66E472E08D859E850E94A8
:103610008508892B19F70E945616188290E080E0E1
:10362000DFCFCF92DF92EF92FF920F931F93CF9352
:10363000DF93182F092FD62EC72E80914604CEEF88
:10364000DFEF882361F083E1E82EF12C66E472E07D
:10365000C7010E941D08892B61F0CFEFDFEFCE017B
:10366000DF91CF911F910F91FF90EF90DF90CF905E
:103670000895C6E4D2E08881882309F441C0853EDC
:1036800091F148E050E0612F702FCE010E94C82FC9
:10369000892B49F543E050E06D2D7C2DCE01089635
:1036A0000E94C82F892BF9F40A8D1B8DC80102973F
:1036B000863F9F4068F085EE888366E472E0C7012C
:1036C0000E948508EC01892B41F60E945616C7CF4F
:1036D000C8010E94A3156C0170E060E0C8010E945F
:1036E000FB158601E3CFA09684E0C634D80719F60F
:1036F0002FEFE21AF20A81E2E816F10409F0A6CFF0
:10370000CDEFDFEFACCF5F926F927F928F929F925F
:10371000AF92BF92CF92DF92EF92FF920F931F93DF
:10372000CF93DF93CDB7DEB7A0970FB6F894DEBF87
:103730000FBECDBF882E792E662E572E8A0180911E
:103740004604882309F49BC0AE014F5F5F4F882D6C
:103750000E942418892B31F4662D752D882D972D04
:103760000E94111B93E1A92EB12C66E472E0C50101
:103770000E941D08892BC1F08FEF9FEFA0960FB616
:10378000F894DEBF0FBECDBFDF91CF911F910F9197
:10379000FF90EF90DF90CF90BF90AF909F908F9071
:1037A0007F906F905F90089586E4E82E82E0F82E77
:1037B000912CF7018081811108C00E94E6156C01EF
:1037C00097FF17C08AEF9FEFD9CF853EB1F393944F
:1037D000F0E2EF0EF11C40E19412EBCF8FEFA81A4C
:1037E000B80A91E2A916B10409F0BFCF8BEF9FEFA1
:1037F000C5CF6FEF7FE00E94FB1580E2F701482FF5
:1038000011924A95E9F798E0E82DF72DD70101903C
:103810000D929A95E1F7D701189693E0E62DF52DD4
:1038200001900D929A95E1F7F7018387D38EC28EAE
:10383000148E158E168E178E66E472E0C5010E94F6
:103840008508009709F098CF21E0F8012083D28203
:10385000C182D482C3821582168217821086118695
:10386000128613861486218B128AB686A586F0E20C
:103870009F9E90011124F801308B27877FCF8EEF18
:103880009FEF7CCF4F925F926F927F928F929F9229
:10389000AF92BF92CF92DF92EF92FF920F931F935E
:1038A000CF93DF93CDB7DEB7A0970FB6F894DEBF06
:1038B0000FBECDBF782E692E562E472ED42EC52E84
:1038C000B22EA32E80914604882309F480C0AE0155
:1038D0004F5F5F4F622F732F8D2D9C2D0E942418F8
:1038E000892B09F477C083E1E82EF12C66E472E0BD
:1038F000C7010E941D08892B09F06FC006E412E081
:10390000F8018081882309F45FC0853E09F44DC029
:1039100048E050E0672D762DC8010E94C82F892B02
:1039200009F043C04801F8E08F0E911C43E050E0DD
:10393000652D742DC4010E94C82F892BB1F588E034
:10394000ED2DFC2DD80101900D928A95E1F783E0D1
:10395000EB2DFA2DD40101900D928A95E1F766E4E2
:1039600072E0C7010E94850821E030E0892B11F444
:1039700030E020E088279927821B930BA0960FB692
:10398000F894DEBF0FBECDBFDF91CF911F910F9195
:10399000FF90EF90DF90CF90BF90AF909F908F906F
:1039A0007F906F905F904F900895005E1F4F84E06E
:1039B0000634180709F0A4CFEFEFEE1AFE0AF1E281
:1039C000EF16F10409F092CF8DEF9FEFD7CF8EEF76
:1039D0009FEFD4CF8CEF9FEFD1CF8FEF9FEFCECF64
:1039E0000F931F93CF93DF9300D000D0CDB7DEB7F6
:1039F00080914604882399F102E010E01A8219822E
:103A0000C8010E94A315892B31F429813A812F5FC7
:103A10003F4F3A8329830F5F1F4F01323BE013076B
:103A200079F749815A81B0E0A0E09A01AD0189E0BF
:103A3000220F331F441F551F8A95D1F729833A83DC
:103A40004B835C8369817A818B819C810F900F907D
:103A50000F900F90DF91CF911F910F9108951982D0
:103A60001A821B821C82EECFAF92BF92CF92DF925E
:103A7000EF92FF920F931F93CF93DF9300D000D06C
:103A800000D0CDB7DEB78D839E8380E092E0E6E480
:103A9000F2E0DF019C011D9221503040E1F72BEE56
:103AA000209346022CE32093470220E9209348020A
:103AB00028E0EDE1F1E0A9E4B2E001900D922A9551
:103AC000E1F7909352028093510281E08093530278
:103AD00081E090E0909355028093540282E08093BD
:103AE000560280EE90E0909358028093570280E453
:103AF0009BE090935A028093590280EF80935B027F
:103B000089E090E090935D0280935C0282E190E016
:103B100090935F0280935E0282E090E09093610256
:103B20008093600289E280936C028EEE9FEFA0EC9E
:103B3000B4E680936D0290936E02A0936F02B093EF
:103B400070028D819E81892B09F4CCC08BE0ED81C0
:103B5000FE81A1E7B2E001900D928A95E1F788E03D
:103B6000E2E3F1E0ACE7B2E001900D928A95E1F773
:103B700085E5809344048AEA8093450466E472E014
:103B800090E080E00E948508892B09F0AFC001E039
:103B900010E080ED90E3A0E0B0E089839A83AB83EE
:103BA000BC8386E4C82E82E0D82EA12C92E0B92EE8
:103BB00020EFE22EFF24FA94D601F5011D923197F1
:103BC000E9F7013031F4E0924602F0924702F092B8
:103BD000480266E472E0C8010E948508892B09F05A
:103BE00085C066E472E0C80109960E948508892BA9
:103BF00009F07CC020E032E046E452E069817A813D
:103C00008B819C810E94AA0989819A81AB81BC81A8
:103C10009E5FAF4FBF4F89839A83AB83BC830F5F97
:103C20001F4F0A30110541F6E6E4F2E080E092E031
:103C3000DF019C011D9221503040E1F78D819E8172
:103C4000892BB9F088E0ED81FE81A6E4B2E0019015
:103C50000D928A95E1F7ED81FE8180859185A2859F
:103C600080934E0290934F02A093500288E080937D
:103C7000510266E472E083E190E00E948508892B9E
:103C8000A9F5E6E4F2E080E092E0DF019C011D92FC
:103C900021503040E1F784E190E09A83898366E423
:103CA00072E089819A810E948508892BF9F4A981A3
:103CB000BA811196BA83A983919789F71092460425
:103CC00026960FB6F894DEBF0FBECDBFDF91CF9121
:103CD0001F910F91FF90EF90DF90CF90BF90AF902A
:103CE0000C94B3168BE0E6E2F1E033CF8FEF9FEF59
:103CF00026960FB6F894DEBF0FBECDBFDF91CF91F1
:103D00001F910F91FF90EF90DF90CF90BF90AF90F9
:103D100008958F929F92AF92BF92CF92DF92EF92CF
:103D2000FF920F931F93CF93DF936C014B017A01A6
:103D300048E050E060E270E0C4010E94DE2F43E002
:103D400050E060E270E0C7010E94DE2F560196014C
:103D5000E90188812F5F3F4F81110BC0F60101906F
:103D60000020E9F731978F010C191D09D0E0C0E060
:103D700007C08E3269F78E010C191D09209771F367
:103D80000930110514F008E010E06401912C812C39
:103D90008016910614F12097A9F12196DE010D906D
:103DA0000020E9F711978701AC1BBD0BA430B105CA
:103DB00014F0A3E0B0E0EA0EFB1E0E151F05D1F4CF
:103DC000DF91CF911F910F91FF90EF90DF90CF90F7
:103DD000BF90AF909F908F900895F50181915F0102
:103DE00090E00E94C02FF60181936F01FFEF8F1AC0
:103DF0009F0ACECF899190E00E94C02FF801819355
:103E00008F01DBCF83E0EBE3F1E0D70101900D926E
:103E10008A95E1F7D5CF8F93549A5C9881E080938F
:103E200059048F91189553985B9A54985C9A089509
:103E3000FC011082549A5C988FE391E00197F1F7AE
:103E400000C0000081E197E24B9B18C054985C9A37
:103E500090E080E061E070E021E137E24B9918C02A
:103E60004C9B09C02081AB01082E01C0440F0A946D
:103E7000EAF7242B208321E137E21BC025E02A95B5
:103E8000F1F70000019701F754985C9A80E00895DB
:103E900045E04A95F1F7000021503109F9F60E94FA
:103EA000131FF4CF45E04A95F1F700002150310986
:103EB000B1F34B9BF7CF01968830910569F6549A80
:103EC0005C988FE891E00197F1F700C0000081E075
:103ED0000895FC01DB0110821C9254985C9A89ECD5
:103EE00090E04B9B16C025E02A95F1F70000019762
:103EF00009F581E08C93549A5C988FEE90E00197DD
:103F0000F1F700C0000054985C9A81E197E24B9968
:103F100007C090E080E061E070E021E137E214C08A
:103F200025E02A95F1F70000019789F70E94131FF9
:103F300080E008954A99D5CFF9CF45E04A95F1F749
:103F400000002150310991F34B99F7CF4C9B09C0E8
:103F50002081AB01082E01C0440F0A94EAF7242BFC
:103F6000208321E137E207C045E04A95F1F70000E0
:103F700021503109D9F24B9BF7CF0196883091053A
:103F800061F6549A5C9881E00895539A5B9854982E
:103F90005C9AEFE3F1E03197F1F700C0000021E116
:103FA00037E24C9B45C0662391F053985B9A21E120
:103FB00037E24C9949C021E137E24C9B4EC0539AFD
:103FC0005B98EFE3F1E03197F1F700C0000030E0DB
:103FD00020E090E0AC01022E02C0559547950A946E
:103FE000E2F740FF43C054985C9AEFEEF0E031975F
:103FF000F1F700C0000053985B9AEFEEF0E03197C4
:10400000F1F700C00000539A5B982F5F3F4F2830B4
:10401000310501F754985C9A81E197E24C9929C0E7
:104020008FE891E00197F1F700C0000081E008956A
:10403000F5E0FA95F1F700002150310911F480E024
:1040400008954A99AECFFBCF95E09A95F1F700001D
:104050002150310909F0ADCFF2CFE5E0EA95F1F753
:1040600000002150310909F0A8CFE9CF549A5C989B
:10407000BCCFF5E0FA95F1F70000019779F6DFCFB4
:10408000EF920F931F93CF93DF9380933D0590E3BF
:10409000E92E0EE315E00E948823EC01803491059F
:1040A00014F0C0E4D0E0AE0155276EE375E08AEF6E
:1040B00094E00E94D52FC0933A0510923B051092D0
:1040C0003C05DF91CF911F910F91EF900895CF9311
:1040D000C82F86EB9DE00E94A3078C2F90E00E94E2
:1040E000CE0783EB9DE00E94A307C0935A04109271
:1040F0005C0410925B04109259048AB1837C8AB9E3
:104100008BB18C638BB9809169008C7F82608093C6
:10411000690081E08CBBE89AC9B183EA9DE00E9406
:10412000A3078CE4C2FD88E40E9490078DE99DE01E
:104130000E94A3078CE4C3FD88E40E94900786E9EF
:104140009DE00E94A3078CE4C4FD88E40E949007D0
:1041500080E99DE00E94A3078CE4C5FD88E40E94ED
:1041600090078DE89DE00E94A307EFE5F4E08EED57
:10417000DF011D928A95E9F720E040E06FE371E0EE
:1041800089E4CF910C944020CF93DF93EC01DB01C5
:10419000E0913B0580913A05E81730F081E08C937F
:1041A00080E0DF91CF91089581E08E0F80933B05F1
:1041B000F0E0E253FB4F84A5888381E020913B052A
:1041C00090913A05291708F480E08C9381E0E9CFBB
:1041D000CF92DF92EF92FF920F931F93CF93DF93D3
:1041E00000D00F92CDB7DEB7809158044D9923C00F
:1041F000811115C081E08093580485E59DE00E94FF
:10420000A30710925C0410925B040E94131F0E948B
:10421000B30B0E9418180E9478230E94712A0F90F5
:104220000F900F90DF91CF911F910F91FF90EF9022
:10423000DF90CF900895882309F45BC01092580452
:104240008FE29DE00E94A3070E941A0B0E94C10BFF
:10425000892B91F08DE19DE00E94A30720E040E0D2
:1042600061E071E08AE40E94402085E090E00E94D5
:104270002D2F0E94B30BD3CF8CE09DE00E94A307AB
:104280000E94FB0B81110EC083EF9CE00E94A307EC
:1042900020E040E061E071E08AE40E94402086E096
:1042A00090E0E5CF8CED9CE00E94A3070E94B3163E
:1042B000892B79F48BEC9CE00E94A3070E94B30B3E
:1042C0008BE99CE00E94A30790E080E00E942D2FE4
:1042D000A6CF86EB9CE00E94A30720E040E061E0CF
:1042E00071E08AE40E94402086E090E00E942D2F39
:1042F000E5CF4A9B41C080915B0490915C0402979A
:1043000009F08DCFAE014F5F5F4FBE016E5F7F4FF3
:1043100080915D040E94F626882359F10E946C2A40
:10432000FC0169818A81309709F10680F781E02DCF
:104330003097E1F0099581110AC081E89CE00E9464
:10434000A30710925C0410925B040E94131F8981E2
:10435000882309F464CF89E69CE00E94A3071092A9
:104360005C0410925B040E94131F59CF0E94C51F6A
:10437000E2CF8AE49CE0F1CF0E94DF2E8EE39CE046
:104380000E94A307549A5C9882E0E82EF12CCC247A
:10439000C394D12C4A990AC0CE0103960E94181FDB
:1043A000811142C083E29CE00E94A3070E94E12E9B
:1043B00080915B0490915C040297D1F48BE79BE0C1
:1043C0000E94A3070E943F2A0E946C2A8C0100973A
:1043D00079F0DC011A968D919C91892B49F083E646
:1043E0009BE00E94A307D8011A96ED91FC910995D4
:1043F00080915B0490915C04019709F010CF86E4F2
:104400009BE00E94A30780915D0490E00E94CE078C
:1044100083E49BE00E94A30711E04A99C6C089E2A9
:104420009BE00E94A307FBCE86E19CE00E94A307CD
:104430008B810E94B1078B818F3361F58AE09CE00C
:104440000E94A30780915B0490915C04019709F09E
:10445000A1CF80915D048F30C1F46091CB046623BD
:1044600059F0E62FF0E0E65AFB4F11AA8BE894E0F2
:104470000E94DD281092CB0410925C0410925B0421
:104480000E94131F0E94712A85CF8130A9F70E94D4
:10449000DC26F2CF8F3561F480E09CE00E94A30718
:1044A00080915B0490915C04029709F073CFE4CF94
:1044B000182F1F71982F907E9032C9F486EF9BE0E1
:1044C0000E94A307812F90E00E94CE0783EF9BE01C
:1044D0000E94A30780915A0481135CCFD0925C04A0
:1044E000C0925B048FED9BE00E94A30753CF9034F2
:1044F000B9F487ED9BE00E94A307812F90E00E9412
:10450000CE0784ED9BE00E94A30780915A0481139B
:1045100041CFF0925C04E0925B0482EC9BE0E4CF3C
:10452000982F907F903651F5182F1F7088EB9BE0E5
:104530000E94A307812F90E00E94CE0785EB9BE0AD
:104540000E94A30710935D0480915B0490915C042A
:104550008130910529F41092CB041092CC041ACF2B
:10456000029709F017CF54985C9A8FE391E0019776
:10457000F1F700C00000539A5B980CCF903E91F485
:10458000182F1F708AEA9BE00E94A307812F90E0FA
:104590000E94CE0787EA9BE00E94A307812F0E941A
:1045A000DC26F8CE81EA9BE09FCFBE016F5F7F4F94
:1045B000CE0102960E94691F811103C080E19BE039
:1045C00030CF80915D0490915F04911136C08F309F
:1045D000A1F1E0918A04E93248F48A8191E09E0FCA
:1045E00090938A04F0E0E65AFB4F86838981882302
:1045F00009F413CFE0918A04F0E0E65AFB4F1682EB
:104600008FEF9AE00E94A30780E694E00E9497074C
:104610008BEF9AE00E94A30740918A0460E674E061
:1046200080915D040E94AA2310935F0489818823EE
:1046300009F4F3CE88EE9AE0F4CEE091CB046A81DF
:10464000E03440F491E09E0F9093CB04F0E0E65A02
:10465000FB4F61AB0E94C428E9CF809159048823A5
:1046600041F0109259048FE69DE00E94A3070C943C
:10467000E82008950F931F93CF93DF93CDB7DEB754
:10468000CC52D4400FB6F894DEBF0FBECDBF8C0124
:104690009C01AE01435D5D4F60ED78E580E090E008
:1046A0000E947F092CE232E0AE014F5F5F4FB801FC
:1046B000CE01835D9D4F0E94C12E8C0118161906F4
:1046C00054F49C01AE014F5F5F4F60ED7AE580E0EE
:1046D00090E00E94AA09C801C45DDB4F0FB6F894B0
:1046E000DEBF0FBECDBFDF91CF911F910F91089517
:1046F000EBE7F5E083E1DF011D928A95E9F710927F
:10470000760520E040E06FE371E089E40C944020FE
:10471000EF920F931F931F922F931F924F937F93AC
:104720006F931F928F938DE491E09F938F931F92CD
:10473000EF921F930F930E94F02F2DB73EB7225F89
:104740003F4F0FB6F8943EBF0FBE2DBF1F910F9184
:10475000EF9008957F928F929F92AF92BF92CF92E7
:10476000DF92EF92FF920F931F93CF93DF93CDB71A
:10477000DEB7C356D1090FB6F894DEBF0FBECDBF6A
:10478000182F7B01042F80EB9EE00E94A307812F4E
:1047900090E00E94CE0788EA9EE00E94A30767018E
:1047A0004701800E911C8C149D04E1F584EA9EE083
:1047B0000E94A307FE01EF5AFF4F1192119287E06A
:1047C000DF011D928A95E9F76C961FAE1EAE6C97BD
:1047D0006E961FAE1EAE6E97123078F40E942118AE
:1047E000811126C08CE89EE00E94A30720E040E0F3
:1047F00061E071E08AE40E944020CD59DF4F0FB69E
:10480000F894DEBF0FBECDBFDF91CF911F910F9106
:10481000FF90EF90DF90CF90BF90AF909F908F90E0
:104820007F900895D6018D916D010E949007BBCFB6
:1048300011111DC2013009F01AC2F70180818432C2
:1048400009F015C288E79EE00E94A307098384E06F
:104850008A8322E030E0AE014F5F5F4F60ED76E487
:1048600080E090E00E94AA091B821C8282E18D8375
:1048700082E28E83E9E6F1E0DE01179689E791E0B6
:1048800021912D938E179F07D9F782E28F8B80E2BB
:10489000888FEAE7F1E088E1919121E0280F482F25
:1048A00050E09111B5C0E1E0F0E0EC0FFD1F4E0FBC
:1048B0005F1FDA011C9230E07901B2E0EB0EF11CCF
:1048C0008C5F8983C9018D5F9B4F9A83AF0162ED35
:1048D00076E480E090E00E94AA09A0961FAE1EAE8A
:1048E000A09730E2C32E42E2B42E0FE010E0BE01EA
:1048F0006F5C7F4FCE01825A9F4F0E948818AC0197
:10490000892B31F468EFE6166FE0F60608F48BC0E9
:104910000E94F01CA4966CAF7DAF8EAF9FAFA497A2
:10492000BB27A92F982F872F19821A828B839C83EC
:10493000A1E8B1E084E09D9161E0680F282F30E0AC
:1049400091118BC188248394912C8C0E9D1E280D6F
:10495000391DD9011C92F401E60FF11D1082E2E02D
:10496000E80F88248394912C8C0E9D1E8E0E911C32
:10497000F40110828D5F082F10E0B0E0A0E09701F5
:10498000AD012053394B4F4F5F4FA4962CAF3DAF35
:104990004EAF5FAFA4979801AE014F5F5F4FA496F3
:1049A0006CAD7DAD8EAD9FADA4970E94AA090E0D92
:1049B0001F1D10937A0500937905109278051092C7
:1049C000770511E01093760589E69EE00E94A30723
:1049D0008091790590917A050E94CE0786E69EE047
:1049E0000E94A3071092750510927405109273052A
:1049F00010927205109271051092700510936F0558
:104A000010926E0520E040E06EE871E080E0F3CEA9
:104A100088248394912C8C0E9D1E480D591DDA011B
:104A20009C93822F39CF6CAD63FD61CF61968CADC5
:104A30009DADAEADBFAD619781509F4FAF4FBF4FA2
:104A4000892F9A2FAB2FBB279C0119821A820097BE
:104A500011F481E090E09C838B832A30310508F0CB
:104A60003EC0CD82A5E0E1E0EA0F88248394912C3A
:104A70008C0E9D1E8A0E911CD401CC9291E09E0F4B
:104A8000A1E0B0E0AC0FBD1FAE0FB11DFD01C082B3
:104A900081E0890FE1E0F0E0EC0FFD1FE90FF11D6F
:104AA000B08228E030E0722F732E21503109E1E30B
:104AB000F0E0EC0FFD1FE20FF31FE081E032D1F0D8
:104AC000FE01F1969E5F970F282FAA24A394A20EB1
:104AD00030E09A11A5C0870F272F372D0EC024363E
:104AE000310510F4A4E0BFCF94E0283E334080F6B7
:104AF000E4E0C4CF21153105B1F699AD7BAD70323C
:104B000009F09AC07AAD703209F099C0903221F163
:104B100041E050E091E0980F7EE2E1E0F0E0EC0F40
:104B2000FD1FE80FF11D7083DE01D996792F740FF8
:104B3000DD90E92F9F5F88248394912C8C0E9D1E1D
:104B40008E0E911CF401D0829713F2CF840F8F5FE9
:104B5000FA0131962E0F3F1F91E0980FE1E0F0E04F
:104B6000EC0FFD1FE80FF11DB08271E1780F721B91
:104B7000E92F9F5FA1E0B0E0AC0FBD1FAE0FB11DEC
:104B8000FD01C0829713F4CF8E5FF801E21BF30B97
:104B9000D82EDE0EE1E6F1E064FD11C04330510590
:104BA00061F443E050E065E671E0CE01C9960E94F1
:104BB000C82FE5E6F1E0892B11F0EBE3F1E031914C
:104BC00021E02D0D8D2D90E031113CC0E1E0F0E0B1
:104BD000EC0FFD1F8E0F9F1FDC011C9230E049017E
:104BE0008E0C9F1CC4018F5F9B4F9A838983B0E01A
:104BF000A0E0A701BD014053594B6F4F7F4FA496D2
:104C00004CAF5DAF6EAF7FAFA497AF01A4966CAD14
:104C10007DAD8EAD9FADA4970E94AA09740167CEA9
:104C2000D19088248394912C8C0E9D1E280D391DC3
:104C3000D901DC922A2D49CF43E050E06BCF42E00E
:104C400050E068CF88248394912C8C0E9D1E880D93
:104C5000991DDC013C93D22EB2CFE1E0F0E0EC0FE5
:104C6000FD1F2E0F3F1FF9019083862F64CEAE01EA
:104C7000465A5F4FBE016F5A7F4FC7010E94891E7F
:104C800086E59EE00E94A307AE014F5A5F4F7A016E
:104C90006A0158E0C50ED11CD7018D917D010E949B
:104CA0009007CE14DF04C1F782E59EE00E94A307BF
:104CB0006B968FAD6B970E9490076C968FAD6C973B
:104CC0000E9490076D968FAD6D970E9490078EE4BD
:104CD0009EE00E94A307111126C081E49EE00E947D
:104CE000A3074BE755E0BE01665A7F4FCE018F5AAE
:104CF0009F4F0E94D9188C01892B09F440C08BE288
:104D00009EE00E94A30788279927801B910B0E9491
:104D1000CE0788E29EE00E94A30720E040E061E920
:104D200071E08EE368CD8BE19EE00E94A3074BE724
:104D300055E0BE01665A7F4FCE018F5A9F4F0E94A9
:104D4000831B8C01892BD9F08EEF9DE00E94A30775
:104D500088279927801B910B0E94CE078BEF9DE03F
:104D60000E94A30720E040E060EA71E088E40A3F87
:104D70001F4F09F440CD6AEA71E089E13CCD109201
:104D800075051092740510927305109272051092B9
:104D900071051092700581E080936F0510926E0589
:104DA00020E040E06EE871E080E00E9440208BEE61
:104DB0009DE00E94A30721CDCF93C82F8BED9DE0EE
:104DC0000E94A3078C2F90E00E94CE0788ED9DE003
:104DD0000E94A30780917B05882321F08BE795E053
:104DE0000E94B91A10927605CF910895BF92CF9282
:104DF000DF92EF92FF920F931F93CF93DF9300D038
:104E000000D000D0CDB7DEB7082F6B017A01FA01D0
:104E100010820E949B2E182F882309F44CC10F305A
:104E200009F44BC1F70110828091700590917105D2
:104E300020917205309173058217930740F5B0E019
:104E4000A0E09C01AD012053354A4F4F5F4FCA018E
:104E5000B9010E94D409F601808380917005909178
:104E600071050196909371058093700520917205EC
:104E7000309173058217930708F446C080916E0540
:104E8000882309F441C081E0F70180833DC0B090E0
:104E90006E05BB2029F081E0F701808310E034C06B
:104EA00000916F05011181C01A82198222E030E061
:104EB000AE014F5F5F4F60ED7AE580E090E00E94C9
:104EC000AA0982E090E09093730580937205109296
:104ED00071051092700501E000936E0560ED7AE5B2
:104EE00080E090E00E94D409F601808381E090E0A8
:104EF0009093710580937005809172059091730570
:104F0000029710F4F7010083812F26960FB6F894CC
:104F1000DEBF0FBECDBFDF91CF911F910F91FF90EC
:104F2000EF90DF90CF90BF900895B0E0A0E09C019B
:104F3000AD012053394B4F4F5F4F2B833C834D8343
:104F40005E8321E030E0AE014F5F5F4F6B817C817B
:104F50008D819E810E947F098091770590917805CF
:104F600001969093780580937705809174059091D0
:104F70007505B0E0A0E09C01AD012053374A4F4FCA
:104F80005F4F2B833C834D835E8349816B817C81A2
:104F90008D819E810E94ED09809174059091750527
:104FA0000196909375058093740580917405909196
:104FB00075058115924088F4809176058823C1F1AA
:104FC00080917705909178052091790530917A0547
:104FD0008217930708F4A9CFB02E809174059091A1
:104FE00075050097B1F10E943A23181619060CF0C6
:104FF00052CF9093730580937205109271051092B1
:1050000070051092750510927405B11010926F051D
:1050100060ED7AE580E090E00E94D409F60180839B
:1050200081E090E09093710580937005102F6CCF14
:1050300080917B05882381F241E050E0BE016F5FE3
:105040007F4F8BE795E00E946B19019709F48DCF94
:10505000C3CF1A82198222E030E0AE014F5F5F4F6A
:1050600060ED7AE580E090E00E94AA0982E090E09D
:1050700090937305809372051092710510927005DC
:1050800010926F0581E080936E0560ED7AE580E017
:1050900090E00E94D409F601808381E090E0909333
:1050A0007105809370058091720590917305029748
:1050B00008F02ACFE8CE0F3031F4B701C6010E94C4
:1050C000C420182F21CF0111E6CE109176051123AF
:1050D00081F18091770590917805B0E0A0E09C0186
:1050E000AD012053394B4F4F5F4F2B833C834D8392
:1050F0005E8321E030E0A6016B817C818D819E8101
:105100000E947F0980917705909178050196909390
:105110007805809377052091790530917A0582177B
:10512000930708F4F1CE81E0F701808310927605B1
:10513000EBCE10917B05112309F4ADCE41E050E098
:10514000BE016F5F7F4F8BE795E00E946B1901975F
:1051500009F0A1CE8981F6018083409184055091A8
:1051600085056091860570918705809180059091F5
:105170008105A0918205B0918305481759076A07F8
:105180007B0708F4C1CE7FCECF93DF930F92CDB7CC
:10519000DEB76983813069F480917B05882349F00B
:1051A00041E050E0BE016F5F7F4F8BE795E00E94CA
:1051B0000C1A0F90DF91CF910895AF92BF92CF92CA
:1051C000DF92EF92FF920F931F93CF93DF93CDB7B0
:1051D000DEB7C754D1090FB6F894DEBF0FBECDBFFE
:1051E0006C01162F662309F49AC08BEC9DE00E9497
:1051F000A30776015601A10EB11CEA14FB0409F0C5
:105200004AC087EC9DE00E94A307012F1A3208F0E4
:1052100009E2E02EF12CA701B601CE0101960E9411
:10522000D52F81E090E08C0F9D1FE80EF91EF7014D
:1052300010826C01F60181916F0190E00E94C02FF5
:10524000F60131978083EC14FD04A1F7602FCE01A5
:1052500001960E94BB2B811162C0602FCE01019686
:105260000E942E2C81115BC0602FCE0101960E94FE
:10527000722E882309F168E070E0CE018B960E94BF
:105280009E2E181619066CF420E040E0BE01655D04
:105290007F4F80E042C0F70181917F010E9490071B
:1052A000ACCF0E949B2E20E040E066EB71E08111C4
:1052B000F0CF6EE871E0EDCF8981823509F441C00D
:1052C00064F4893409F4B7C08E3409F47EC020E058
:1052D00040E065ED71E08EE120C08335C1F7133009
:1052E000B0F38A818A3399F7AE01495C5F4FBE0102
:1052F000655D7F4FCE0103960E94891EBE01695CE9
:105300007F4FCE018B960E94111B20E0892B09F064
:1053100051C041E065EC71E081E00E944020C95B32
:10532000DF4F0FB6F894DEBF0FBECDBFDF91CF9138
:105330001F910F91FF90EF90DF90CF90BF90AF90B3
:105340000895133060F38A818A3349F76DE370E082
:10535000CE0103960E94E52F009709F4B8CFFC0117
:1053600011928F01AE014C5B5F4FBE01695C7F4FB4
:10537000CE0103960E94891EAE01405C5F4FBE01C4
:10538000655D7F4FC8010E94891E9E012C5B3F4FC7
:10539000AE01495C5F4FBE01605C7F4FCE018B96D2
:1053A0000E94421C009719F420E040E082CF03964F
:1053B00031F420E040E061E971E08EE3AECF20E01F
:1053C00040E062EE71E08FE3A8CF133058F18A819C
:1053D0008A3341F54BE050E060E270E0CE018B96FD
:1053E0000E94DE2F1EAABE016D5F7F4FFB01019060
:1053F0000020E9F7AF0141505109461B570B4C30D3
:10540000510514F04BE050E0CE018B960E94D52F51
:10541000CE018B960E94341D892B39F46EE871E021
:1054200080E006C090E080E0F5CF6AEA71E089E1B3
:1054300020E040E072CF0E9418180E94B316892B1A
:1054400069F361E071E08AE4F3CF10929005109265
:105450008F0510928E0508959C01892B79F0E091BB
:105460009005E43058F481E08E0F80939005F0E0D1
:10547000EE0FFF1FEF56FA4F3183208308951F93DD
:10548000CF93DF9310E080919005181738F01092B9
:105490008F0510928E0590E080E018C0C12FD0E0FB
:1054A000CC0FDD1FCF56DA4FE881F9810480F581FA
:1054B000E02D309779F00995882361F0E881F98132
:1054C000F0938F05E0938E0580819181DF91CF91DC
:1054D0001F9108951F5FD7CF80918E0590918F0502
:1054E000089510928F0510928E050895CF93DF9343
:1054F000FC01DB0110821C9254985C9A89EC90E0CC
:105500004B9B17C04C9B15C025E02A95F1F7000076
:10551000019709F04AC081E08C93549A5C9885E425
:105520008A95F1F7000054985C9A81E197E24B99D3
:1055300030C090E080E029B139B123FB222720F967
:10554000C22FB0E0DB2FBE01082E01C0660F0A9407
:10555000EAF72081262B34FB442740F950E0BC01B8
:105560006F5F7F4FDA0102C0AA0FBB1F6A95E2F797
:105570002A2B2083B5E4BA95F1F700000296883013
:105580009105C9F6549A5C9820EA2A95F1F781E0D2
:1055900009C04C9BCECFA5E0AA95F1F7000001977A
:1055A00031F680E0DF91CF9108954A99A9CFF9CFE4
:1055B000539A5B988FE391E00197F1F700C00000E8
:1055C00008954C9B15C080E012C085E08A95F1F7E4
:1055D00000002F5F3F4F233781E03807A1F34C9B3A
:1055E000F4CF285C310981E02937310560F708954F
:1055F00030E020E0F4CF662331F0EFE1F3E03197C3
:10560000F1F700C0000021E137E24C9B33C030E0ED
:1056100020E090E0A9014F5F5F4FBC0102C075958B
:1056200067954A95E2F7AB014170BC01022E02C0BA
:10563000759567950A94E2F760FF25C053985B9AC9
:10564000442321F154985C9A75E47A95F1F70000AF
:105650002E5F3F4F28303105E9F653985B9A5498F6
:105660005C9A81E197E24C9914C0F0EAFA95F1F75F
:1056700081E00895F5E0FA95F1F700002150310935
:1056800021F680E00895539A5B98DACF549A5C989B
:10569000DBCFE5E0EA95F1F70000019721F7F1CFC4
:1056A0008CE092E00C942C2A809199058111109243
:1056B00099050895089530E020E090E0AC01022EB5
:1056C00002C0559547950A94E2F740FF1BC05498D5
:1056D0005C9A45E14A95F1F7000053985B9A4AE2DB
:1056E0004A95F1F700C0539A5B982F5F3F4F2830DF
:1056F000310521F754985C9A8AE68A95F1F700C043
:1057000081E00895549A5C98E4CFFC011082DB019B
:105710001C9290E080E061E070E021E137E207C098
:10572000B5E0BA95F1F7000021503109F1F04B9B3B
:10573000F7CF4C9B09C02081AB01082E01C0440F5C
:105740000A94EAF7242B208321E137E24B9906C023
:1057500001968830910509F781E0089545E04A9562
:10576000F1F700002150310989F780E0089588E1C0
:1057700092E00C942C2AFC01623050F08081853537
:1057800039F48181803321F481E080939905089573
:1057900080E0089580919B05811110929B050895EA
:1057A00080E00895089521E137E24B993AC0549A78
:1057B0005C986AE66A95F1F700C030E020E090E07E
:1057C000A9014F5F5F4FBC0102C0759567954A956F
:1057D000E2F7AB014170BC01022E02C075956795DE
:1057E0000A94E2F760FF29C053985B9A442341F181
:1057F00054985C9A7AE47A95F1F700C02E5F3F4F97
:1058000028303105E9F654985C9A53985B9A81E107
:1058100097E24B9B18C045E84A95F1F7000081E0FC
:10582000089545E04A95F1F700002150310911F43F
:1058300080E008954A99B9CFFBCF539A5B98D6CFB1
:10584000549A5C98D7CF25E02A95F1F7000001978C
:1058500001F7EECF84E292E00C942C2AFC01633035
:10586000A0F080818D3489F481818D3271F4828140
:10587000873559F480919A058F5F80939A0583301C
:1058800030F081E080939B05089580E0089581E0E9
:1058900008952F923F924F925F926F927F928F92D4
:1058A0009F92AF92BF92CF92DF92EF92FF920F93AF
:1058B0001F93CF93DF93CDB7DEB7CC50D2400FB656
:1058C000F894DEBF0FBECDBF5C018B011A01C90188
:1058D0006115710509F45BC1FE01319620E032E0EB
:1058E000DF01A9011D9241505040E1F7D501A60FFB
:1058F000B71FCB5FDD4FB983A883C550D240159742
:10590000C55FDD4FB983A883CB50D240CB5FDD4F5D
:1059100028813981C550D24024503109C95FDD4FFB
:1059200039832883C750D240A101480F591FC75F50
:10593000DD4F59834883C950D24064307105ECF083
:10594000D5012D913D914D915C9161EB79E787E314
:105950009EE90E94682FCF5FDD4F688379838A8339
:105960009B83C150D240892F9927AA27BB27880F34
:10597000991FE80FF91F118210824501BFEF8B1AA2
:105980009B0A8101F5017401C95FDD4F28813981CE
:10599000C750D2402E153F0508F04AC0CB5FDD4FFF
:1059A000E880F980C550D240EE1AFF0A1E141F0489
:1059B000E4F570E060E0BFE0EB16F10444F0C701ED
:1059C0000F976FEF70E00E948C2F6F5F7F4F6F5FBC
:1059D0007F4F6E0D7F1D600F711FC75FDD4F2881E8
:1059E0003981C950D2402617370708F4CEC0680164
:1059F0003FEFC31AD30A8E2D40E1E416F1040CF0F8
:105A00008FE08295807FD8018C93C7010F974FEF6D
:105A1000BFE0EB16F1040CF056C1A701BF01C601AF
:105A20000E94D52F86010E0D1F1D02191309AFC04C
:105A3000D7014D905D906D907C90A301920161EB38
:105A400079E787E39EE90E94682FCF5FDD4F688387
:105A500079838A839B83C150D240892F9927AA27B3
:105A6000BB27880F991F21E030E02C0F3D1F820FCC
:105A7000931FDC01CD90DC901197CA0CDB1C9701C1
:105A80002A193B092D933C9397012C193D09CF5FAF
:105A9000DD4F39832883C150D240EC14FD0481F0DE
:105AA000C701821B930B8A159B0550F0D6014D91BF
:105AB0005D916D917C91441655066606770621F03E
:105AC000BFEFEB1AFB0A60CFC114D10409F466CF13
:105AD000C701049634E0C30ED11C4C01C55FDD4FF5
