:100000000C9452070C94EE1E0C946F070C946F071F
:100010000C946F070C946F070C946F070C946F0788
:100020000C946F070C946F070C94B90E0C946F0727
:100030000C946F070C946F070C946F070C946F0768
:100040000C946F070C946F070C946F070C946F0758
:100050000C946F070C946F070C946F070C946F0748
:100060000C946F070C946F0752656164792E0D0A2A
:10007000004D6F756E74206661696C65640D0A00D1
:100080004641543132204F4B0D0A004D6F756E744E
:100090002046415431322E2E2E0D0A004E6F206420
:1000A00069736B20696E2064726976650D0A00447D
:1000B00072697665204F4B0D0A004E6F206472699D
:1000C0007665210D0A00466C6F70707920696E6943
:1000D000742E2E2E0D0A00436F6D7072657373209F
:1000E0004F4B0D0A00466173746C6F6164204F4B77
:1000F0000D0A00494543206465766963652023380D
:100100000D0A0037344843353935204F4B0D0A006E
:100110005352414D204F4B0D0A000D0A3D3D3D20ED
:1001200036346B6F727070752076312E3020284E09
:10013000616E6F2B5352414D29203D3D3D0D0A000C
:100140000D0A0020455252005B4449534B5D207715
:10015000726974652072633D000D0A0020523D00F3
:1001600020533D0020543D005B4449534B5D2077B4
:1001700072697465204C42413D000D0A00204552D1
:1001800052005B4449534B5D207265616420726389
:100190003D000D0A0020523D0020533D0020543DFB
:1001A000005B4449534B5D2072656164204C4241C1
:1001B0003D003031323334353637383941424344EB
:1001C000454600204641494C210D0A00204F4B0D69
:1001D0000A002072656164203078005B5352414D03
:1001E0005D20746573743A2077726F74652030787F
:1001F000005B5352414D5D20696E69742053504934
:100200002E2E2E0D0A00202F4F453D4F4E0D0A0079
:100210005B53525D2064656661756C743D30780097
:100220005B53525D20696E69740D0A005B464C5049
:100230005D207772697465204F4B0D0A005B464C58
:10024000505D204D464D20777269746520464149C6
:100250004C0D0A005B464C505D204D464D20777298
:100260006974652E2E2E0D0A005B464C505D20777A
:10027000726974653A207365656B206661696C65A7
:10028000640D0A005B464C505D20777269746520EE
:100290004552523A2077726974652070726F7465A6
:1002A00063746564210D0A005B464C505D207772D3
:1002B000697465204552523A206261642073656317
:1002C000746F720D0A000D0A0020523D0020533D4C
:1002D000005B464C505D20777269746520543D0088
:1002E0005B464C505D20616C6C203136206174742B
:1002F000656D707473206661696C65640D0A005BDE
:10030000464C505D206465636F6465204641494CEE
:100310002C207265747279696E6720776974682021
:1003200063616C696272617465642074687265737C
:10033000686F6C64730D0A000D0A005B464C505DDB
:100340002072656164204F4B2C20666972737420A3
:1003500062797465733A20002E2E2E0D0A005B46DA
:100360004C505D206465636F646520523D005B46C0
:100370004C505D2063617074757265204641494C34
:100380000D0A0020636170747572652E2E2E0D0AA1
:10039000005B464C505D20617474656D7074200084
:1003A0005B464C505D20726561643A207365656BF5
:1003B000206661696C65640D0A000D0A005B464C9D
:1003C000505D2057503D005B464C505D207265618A
:1003D00064204552523A2062616420736563746FF1
:1003E000720D0A000D0A0020523D0020533D005BB3
:1003F000464C505D207265616420543D000D0A003A
:100400005B464C505D20736964653D000D0A002D0C
:100410003E54005B464C505D207365656B20540074
:100420005B464C505D207365656B3A206E6F74209F
:10043000696E697469616C697A65642C20726563A0
:10044000616C6962726174696E670D0A000D0A0061
:10045000203E3D20005B464C505D207365656B205F
:100460004552523A20747261636B2000202D3E2069
:100470006469736B204E4F542050524553454E547F
:100480000D0A00202D3E206469736B2050524553A5
:10049000454E540D0A00205750543D005B464C50C9
:1004A0005D206469736B20636865636B3A20445315
:1004B0004B4348473D005B464C505D204552523A05
:1004C0002054524B3030206E6F7420666F756E640E
:1004D00020616674657220383520737465707321ED
:1004E0000D0A002073746570730D0A005B464C5052
:1004F0005D2054524B303020666F756E642061660B
:1005000074657220005B464C505D20726563616CBF
:100510006962726174653A207365656B696E672004
:10052000747261636B20302E2E2E0D0A005B464CD8
:10053000505D206D6F746F72204F46460D0A005B50
:10054000464C505D206D6F746F72207370696E2D14
:1005500075702074696D656F757420286E6F202F1B
:100560005244415441290D0A000D0A005B464C508B
:100570005D205741524E494E473A207369676E617C
:100580006C20746F6F20666173742C206E6F6973BA
:10059000653F206176673D0020286578706563744B
:1005A0006564207E313030292E20436865636B20DE
:1005B00031325620737570706C792E0D0A005B46CF
:1005C0004C505D205741524E494E473A206D6F7452
:1005D0006F7220746F6F20736C6F77212061766764
:1005E0003D00207469636B730D0A006D732C2061EC
:1005F000766720696E74657276616C3D005B464C6F
:10060000505D206D6F746F72207265616479206136
:100610006674657220005B464C505D206D6F746F90
:1006200072204F4E2C2077616974696E6720666F67
:10063000722073706565642E2E2E0D0A000D0A005F
:100640005B464C505D20696E697420646F6E652C4A
:100650002053523D3078000D0A002044534B43484C
:10066000473D00205750543D005B464C505D20698B
:100670006E707574733A2054524B30303D005B46B7
:100680004C505D20696E6974204750494F2E2E2EC4
:100690000D0A005B4D464D5D20736563746F7220DB
:1006A0007363616E2074696D656F75740D0A000D5A
:1006B0000A0020617420543D005B4D464D5D20666C
:1006C0006F756E6420736563746F7220002E2E2E1A
:1006D0000D0A005B4D464D5D207363616E20666FB1
:1006E0007220736563746F7220005B4D464D5D2010
:1006F0007772697465204F4B0D0A000D0A00205275
:100700003D0020533D005B4D464D5D20777269747E
:100710006520543D00206E6F7420666F756E640D09
:100720000A005B4D464D5D206465636F646520463D
:1007300041494C3A20736563746F7220005B4D46EB
:100740004D5D206465636F6465204F4B0D0A000D9D
:100750000A0020523D0020533D005B4D464D5D2078
:100760004944414D20543D000D0A002064656C61F0
:10077000793D005B4D464D5D206465636F64652087
:10078000736563746F7220000D0A002073636F72CB
:10079000653D00206F66663D005B4D464D5D206304
:1007A000616C3A2064656C61793D000D0A0020346B
:1007B000455F73636F72653D005B4D464D5D202064
:1007C000206F66663D000D0A002C20616E616C7919
:1007D000746963616C2064656C61793D0020616EB1
:1007E0006420005B4D464D5D2063616C3A2070656E
:1007F000616B7320617420000D0A0020206E6F2051
:1008000073796E6320666F756E64210D0A000D0AA0
:10081000003A2000202053594E43204000293A0D31
:100820000A005B4D464D5D2073796E6320736361F2
:100830006E202864656C61793D000D0A005B4D46B1
:100840004D5D207261773A000D0A000D0A5B4D463E
:100850004D5D20686973743A00206D61783D005BDE
:100860004D464D5D2072616E67653A206D696E3D43
:10087000005B4D464D5D2063617074757265205458
:10088000494D454F5554210D0A006D730D0A002046
:10089000696E74657276616C732C20005B4D464DF9
:1008A0005D20636170747572653A20005B4D464D42
:1008B0005D20636170747572652073746172740D6C
:1008C0000A000D0A00206D6F643D00207772697484
:1008D000653D005B4641545D20636C6F73653A2053
:1008E000706F733D000D0A002073697A653D005BEF
:1008F0004641545D206F70656E65643A20636C7587
:10090000737465723D005B4641545D2066696C6599
:10091000206E6F7420666F756E640D0A00270D0AD5
:10092000005B4641545D206F70656E5F7265616467
:100930002027005B4641545D206D6F756E74204F1B
:100940004B0D0A000D0A005B4641545D20464154A0
:10095000312072656164204641494C2061742073E6
:100960006563746F72200020736563746F727329FE
:100970002E2E2E0D0A005B4641545D207265616487
:10098000696E6720464154312028005B4641545D22
:10099000206E6F20626F6F74207369672C2064650E
:1009A0006661756C74206C6162656C0D0A000D0ADD
:1009B00000272073657269616C3D3078005B4641A9
:1009C000545D206C6162656C3D27005B4641545D5F
:1009D000204552523A207370633D3D300D0A005B52
:1009E0004641545D204552523A206E666174213D65
:1009F000320D0A005B4641545D204552523A206256
:100A00007073213D3531320D0A000D0A00207369E3
:100A1000673D30780020726F6F743D00206865611B
:100A200064733D00207370743D005B4641545D204B
:100A30004250423A207370663D000D0A00206D65F9
:100A40006469613D30780020746F743D00206E66EB
:100A500061743D00207370633D005B4641545D202E
:100A60004250423A206270733D005B4641545D2023
:100A70006D6F756E743A20626F6F74207365637466
:100A80006F722072656164204641494C0D0A005B1B
:100A90004641545D206D6F756E743A2072656164D5
:100AA000696E6720626F6F7420736563746F722E56
:100AB0002E2E0D0A005B4641545D20616C7265610B
:100AC0006479206D6F756E7465640D0A005B49452D
:100AD000435D206C697374656E20454F490D0A00B3
:100AE000270D0A005B4945435D2066696C656E61B0
:100AF0006D653D27005B4945435D206C69737465F6
:100B00006E2072656376206661696C0D0A005B4930
:100B100045435D2041544E20647572696E67206CB8
:100B2000697374656E0D0A000D0A005B4945435DEB
:100B3000206C697374656E696E6720666F722064DD
:100B40006174612053413D005B4945435D2066610E
:100B500073746C6F6164206163746976650D0A005B
:100B60005B4945435D2041544E2072656C6561735D
:100B700065642C2064657465637420666173746CAD
:100B80006F61640D0A00203F3F0D0A000D0A00202E
:100B9000434C4F53452053413D000D0A00204F5018
:100BA000454E2053413D005B4945435D202D3E208D
:100BB00054414C4B45520D0A000D0A002054414C43
:100BC0004B2023005B4945435D202D3E204C49537B
:100BD00054454E45520D0A000D0A00204C4953540D
:100BE000454E20230020554E54414C4B0D0A002009
:100BF000554E4C495354454E0D0A005B4945435DE3
:100C000020636D643D3078005B4945435D2041546D
:100C10004E20627974652072656376206661696C26
:100C20000D0A005B4945435D2041544E0D0A005BAF
:100C30004945435D2074616C6B3A206E6F2064619E
:100C400074612C2072656C656173650D0A005B49E7
:100C500045435D2074616C6B3A20454F492C2064FC
:100C60006F6E650D0A005B4945435D2074616C6BD6
:100C70003A2073656E64206661696C65640D0A00D4
:100C80005B4945435D207265696E697420646F6ECF
:100C9000652C2072656164790D0A005B4945435DEE
:100CA000206D6F756E74206661696C65640D0A0055
:100CB0005B4945435D204641543132204F4B0D0A7C
:100CC000005B4945435D206D6F756E74204641544D
:100CD00031322E2E2E0D0A005B4945435D206E6F8A
:100CE000206469736B20696E2064726976650D0AF1
:100CF000005B4945435D206472697665204F4B0D6A
:100D00000A005B4945435D206E6F20647269766519
:100D1000210D0A005B4945435D20726573657420AF
:100D200072656C65617365642C207265696E6974A7
:100D300020666C6F7070790D0A005B4945435D2039
:100D40002A2A2A20425553205245534554202A2A04
:100D50002A0D0A005B4945435D20706F6C6C3A2098
:100D600041544E20647572696E6720776169740D15
:100D70000A000D0A00205253543D002044415441C2
:100D80003D0020434C4B3D005B4945435D2062756F
:100D9000733A2041544E3D000D0A005B4945435DC6
:100DA00020696E697420646576202300270D0A008F
:100DB0005B444F535D20636D643A2027000D0A00A9
:100DC0005B444F535D20636C6F73652053413D005E
:100DD0005B444F535D206F70656E204F4B0D0A00D2
:100DE0000D0A005B444F535D20534156452063720A
:100DF00065617465206661696C65642072633D009D
:100E00005B444F535D20534156450D0A000D0A00C7
:100E10005B444F535D204C4F4144206661696C65D3
:100E2000642072633D005B444F535D204C4F41444E
:100E30000D0A00270D0A00272E27005B444F535D43
:100E4000207061727365643A2027000D0A005B44CC
:100E50004F535D20646972206C656E3D005B444FAA
:100E6000535D20646972206C697374696E670D0A42
:100E7000005B444F535D204452495645204E4F5429
:100E80002052454144590D0A00270D0A0020666989
:100E90006C653D27005B444F535D206F70656E208D
:100EA00053413D0011241FBECFEFD8E0DEBFCDBFC0
:100EB00012E0A0E0B1E0EEE7F5E602C005900D9289
:100EC000A033B107D9F725E0A0E3B2E001C01D923D
:100ED000AD39B207E1F70E94DF080C94B6320C94EA
:100EE00000001092C5008FEC8093C400E0ECF0E0AD
:100EF00080818260808388E08093C10086E0809357
:100F0000C20008959091C00095FFFCCF8093C60069
:100F10000895CF93DF93EC018991811103C0DF9194
:100F2000CF9108950E948207F7CFCF93DF93EC0112
:100F3000FE0184912196811103C0DF91CF91089524
:100F40000E948207F5CFCF93C82FE82FE295EF706C
:100F5000F0E0EE54FE4F84910E948207CF70EC2F98
:100F6000F0E0EE54FE4F8491CF910C948207CF9322
:100F7000C82F892F0E94A3078C2FCF910C94A30711
:100F8000CF92DF92EF92FF920F931F93CF93DF9355
:100F900000D000D000D0CDB7DEB79C01892B89F4FA
:100FA00080E326960FB6F894DEBF0FBECDBFDF916B
:100FB000CF911F910F91FF90EF90DF90CF900C9405
:100FC0008207CE0101967C01FC0110E000E08AE07E
:100FD000C82ED12C0F5F1F4FC901B6010E945B2F95
:100FE000805D8193C9019B010A97A0F70E0D1F1D1B
:100FF000F80182918F010E9482070E151F05C1F72B
:1010000026960FB6F894DEBF0FBECDBFDF91CF910D
:101010001F910F91FF90EF90DF90CF900895BF92B6
:10102000CF92DF92EF92FF920F931F93CF93DF93B4
:10103000182FD92FF62E072F64E270E00E945B2F45
:101040006B0162E170E00E945B2FE62EB72EC1E0DB
:10105000C80F81EA91E00E949507812F9D2F0E9481
:10106000C0078DE991E00E949507C60199270E946B
:10107000C00789E991E00E9495078E2D9B2D0E9463
:10108000C00785E991E00E9495078C2F90E00E94AF
:10109000C00782E991E00E9495072F2D302F4C2F39
:1010A0006E2D8C2D0E94A60CEC0182E891E00E942E
:1010B0009507CE01D7FF04C0882799278C1B9D0B6D
:1010C0000E94C007D7FF04C08DE791E00E949507FA
:1010D0008AE791E00E949507CE01DF91CF911F91A1
:1010E0000F91FF90EF90DF90CF90BF900895BF9247
:1010F000CF92DF92EF92FF920F931F93CF93DF93E4
:10110000182FD92FF62E072F64E270E00E945B2F74
:101110006B0162E170E00E945B2FE62EB72EC1E00A
:10112000C80F88E691E00E949507812F9D2F0E94AD
:10113000C00784E691E00E949507C60199270E94A6
:10114000C00780E691E00E9495078E2D9B2D0E949E
:10115000C0078CE591E00E9495078C2F90E00E94DB
:10116000C00789E591E00E9495072F2D302F4C2F65
:101170006E2D8C2D0E94650DEC0188E491E00E949B
:101180009507CE01D7FF04C0882799278C1B9D0B9C
:101190000E94C007D7FF04C083E491E00E94950736
:1011A00080E491E00E949507CE01DF91CF911F91DD
:1011B0000F91FF90EF90DF90CF90BF900895F8943B
:1011C000569A5E980E9471078AE191E00E94950705
:1011D0000E940A2F0E94FD0980E191E00E9495077C
:1011E0000E94710A83E091E00E9495070E94950E8B
:1011F00083EF90E00E94950788E00E944A200E94B9
:101200005B230E94082A0E94332B0E949A2B0E9483
:101210000D2C85EE90E00E9495070E94502E87EDE0
:1012200090E00E94950778940E94C20A86EC90E0B4
:101230000E9495070E940C0B0E94B30B892B81F032
:101240008AEB90E00E94950720E040E061E071E0C9
:101250008AE40E94232085E090E00E94102F22C0A3
:101260008FEA90E00E9495070E94ED0B81110EC05D
:101270008CE990E00E94950720E040E061E071E099
:101280008AE40E94232086E090E0E7CF8BE890E09C
:101290000E9495070E949616892B89F480E890E0B9
:1012A0000E9495070E94A50B88E690E00E94950792
:1012B00090E080E00E94102F0E94CB20FDCF81E7BC
:1012C00090E0D8CF8EBD0DB407FEFDCF8EB508954A
:1012D000CF93C62F872F0E9462098C2FCF910C9439
:1012E0006209CF92DF92EF92FF920F931F93CF93F9
:1012F000DF936B01D82FC92F7A0189012A9883E0E7
:101300000E946209B6018D2F9C2F0E946809E70197
:101310000E0D1F1DC017D10751F42A9ADF91CF91EE
:101320001F910F91FF90EF90DF90CF90089580E094
:101330000E9462098993EECFCF92DF92EF92FF92E3
:101340000F931F93CF93DF936B01D82FC92F7A018F
:1013500089012A9882E00E946209B6018D2F9C2F94
:101360000E946809E7010E0D1F1DC017D10751F437
:101370002A9ADF91CF911F910F91FF90EF90DF900C
:10138000CF90089589910E946209EFCF0F931F9328
:10139000CF93DF938B01D82FC92F2A9883E00E9427
:1013A0006209B8018D2F9C2F0E94680980E00E947D
:1013B00062092A9ADF91CF911F910F910895FF92B0
:1013C0000F931F93CF93DF93F62E072F182FD92F4C
:1013D000C42F2A9882E00E9462096F2D702F812FFE
:1013E0009D2F0E9468098C2F0E9462092A9ADF9122
:1013F000CF911F910F91FF900895CF9381EF91E0CE
:101400000E94950784B18C6284B924982A9A80E559
:101410008CBD8DB581608DBD2A9881E00E946209E6
:1014200080E40E9462092A9A45EA60E070E0CB01FC
:101430000E94DF0960E070E0CB010E94C609C82F5E
:101440008BED91E00E94950785EA0E94A30782ED4B
:1014500091E00E9495078C2F0E94A3078CEC91E0ED
:10146000C53A11F083EC91E0CF910C9495070F935E
:101470001F93CF93DF938B01D82FC92F2A9882E037
:101480000E946209B8018D2F9C2FDF91CF911F918F
:101490000F910C9468092A9A08950F931F93CF9384
:1014A000DF938B01D82FC92F2A9883E00E9462090D
:1014B000B8018D2F9C2FDF91CF911F910F910C942C
:1014C00068091EBC0DB407FEFDCF8EB508952A9A9B
:1014D000809300018EBD0DB407FEFDCF5E9A5E982D
:1014E000089580E292E00E949507569A5E988FEFE9
:1014F000809300010E94670A3B9A439880E192E042
:101500000E949507809100010E94A30786E092E067
:101510000C94950721E030E001C0220F8A95EAF78C
:101520002095809100018223809300010C94670A2A
:1015300021E030E001C0220F8A95EAF78091000196
:10154000822B809300010C94670A8823B9F085E010
:101550000E948A0A85E38A95F1F7000086E00E94DE
:101560008A0A90E19A95F1F786E00E94980A8FED39
:101570009EE20197F1F700C00000089585E00E9407
:10158000980AE8CFCF938EE796E00E94950787B13F
:10159000887F87B988B1876088B92098579A5F9A01
:1015A000219A85EF0E94670AC6B189E696E00E94FB
:1015B00095078CE4C0FD88E40E94820783E696E0EC
:1015C0000E9495078CE4C1FD88E40E9482078AE5A9
:1015D00096E00E9495078CE4C2FD88E40E94820791
:1015E00087E596E00E949507109230021092310232
:1015F000109232021092330210923402109235028D
:1016000080E496E00E94950785EF0E94A3078DE392
:1016100096E0CF910C949507CF92DF92EF92FF92D4
:101620000F931F93CF93DF9380913202811169C092
:1016300086E196E00E94950782E00E948A0A84E093
:101640000E948A0A299A2091860030918700D0E072
:10165000C0E090E0C12CD12C760160E2EFE9FFE020
:101660003197F1F700C00000B59B54C0409186004F
:1016700050918700FA01E21BF30B9F0166BBB897FC
:10168000EE30F14008F048C0C20ED31EE11CF11C40
:101690009F5F81E0903108F480E09A012196C83E76
:1016A000E3E0DE0709F43FC08823C1F284E0F6944A
:1016B000E794D794C7948A95D1F786018DEF95E08A
:1016C0000E949507CE010E94C0078BEE95E00E9414
:1016D0009507C6010E94C00782EE95E00E9495071B
:1016E0000B3A110528F18EEB95E00E949507C60193
:1016F0000E94C00788E995E00E94950781E08093E9
:101700003202DF91CF911F910F91FF90EF90DF9008
:10171000CF90089580E0C2CF80E09A01C12CD12CF7
:10172000760190E0BBCF8111C1CF8FE395E0E4CF8C
:101730000233110518F78CE695E00E949507C60163
:101740000E94C00789E695E0D7CF8DE295E00E9420
:10175000950782E00E94980A84E00E94980A1092FD
:101760003202299808951F93CF93DF9385E095E087
:101770000E949507D0E0C0E0309921C0109230025D
:1017800081E0809335021FE08FE99FE00197F1F738
:1017900000C000000E9410231150B1F78CEE94E0BD
:1017A0000E949507CE010E94C00783EE94E00E943C
:1017B000950790E080E0DF91CF911F91089580E040
:1017C0000E94A50A2196C535D105B1F686EB94E0B5
:1017D0000E9495078FEF9FEFEECFCF93DF9386B1F7
:1017E000D82FD47082FBCC27C0F9C093330286B1C6
:1017F0008695817091E08927809334028CE994E08A
:101800000E9495078CE4D11188E40E94820786E942
:1018100094E00E9495078091340281110FC08EE4FC
:101820000E94820783E894E0D11102C08CE694E024
:101830000E9495078C2FDF91CF91089589E5F0CF15
:10184000CF93C82F8035C0F085E594E00E949507BE
:101850008C2F90E00E94C00780E594E00E949507DD
:1018600080E590E00E94C0078DE494E00E94950717
:101870008EEF9FEFCF91089580913502882359F123
:10188000809130028C17A9F083E194E00E949507C3
:101890008091300290E00E94C0078FE094E00E94A7
:1018A00095078C2F90E00E94C0078CE094E00E9486
:1018B000950780913002C81317C0CFE08FE99FE0F1
:1018C0000197F1F700C000000E941023C150B1F74A
:1018D00090E080E0CFCF80E294E00E9495070E94E4
:1018E000B30B009769F2C6CF8C1748F481E00E94D1
:1018F000A50A809130028F5F80933002DACF80E0BA
:101900000E94A50A809130028150F6CFCF93C82F54
:1019100080E094E00E9495078C2F90E00E94C00721
:101920008DEF93E00E94950780E0CC2361F00E9448
:101930008A0AC09331028FE891E00197F1F700C065
:101940000000CF9108950E94980AF3CFAF92BF9202
:10195000CF92DF92FF920F931F93CF93DF93C82F05
:10196000B62EF42E89018FEE93E00E9495078C2FFE
:1019700090E00E94C0078BEE93E00E9495078B2DAC
:1019800090E00E94C00787EE93E00E949507CF2C5D
:10199000D12CC6010E94C00784EE93E00E949507F7
:1019A0008FEF8F0D823188F087EC93E00E949507CE
:1019B000C8EFDFEFCE01DF91CF911F910F91FF9024
:1019C000DF90CF90BF90AF9008950E940C0B96B11E
:1019D0009695917081E09827909334028DEB93E077
:1019E0000E94950780913402811136C08EE40E94D6
:1019F00082078AEB93E00E9495078C2F0E94200CAF
:101A0000EC0180EA93E0209709F059C08B2D0E94E9
:101A1000860CB12CA12C81E993E00E949507C501A9
:101A20000E94C00783E893E00E9495070E94090F77
:101A3000892BA1F08EE693E00E949507FFEFAF1A85
:101A4000BF0A80E1A816B10431F780EE92E00E944F
:101A50009507CDEFDFEFAECF89E5C9CF8EE593E0F7
:101A60000E949507C6010E94C00788E593E00E9486
:101A70009507B8018F2D0E942512EC01892B11F5D5
:101A80008BE393E00E949507F80180810E94A307F1
:101A900080E20E948207F80181810E94A30780E210
:101AA0000E948207F80182810E94A30780E20E94BF
:101AB0008207F80183810E94A30788E393E00E94D4
:101AC000950778CF8FEF92E0B7CFBF92CF92DF929A
:101AD000EF92FF920F931F93CF93DF9300D000D02C
:101AE00000D0CDB7DEB7D82EE62EF42EB22EC32E00
:101AF00081ED92E00E9495078D2D90E00E94C00735
:101B00008DEC92E00E9495078E2D90E00E94C00718
:101B100089EC92E00E9495078F2D90E00E94C0070B
:101B200086EC92E00E9495078FEF8F0D8231B8F01E
:101B300088EA92E00E94950708EF1FEFC8012696F9
:101B40000FB6F894DEBF0FBECDBFDF91CF911F91CE
:101B50000F91FF90EF90DF90CF90BF9008950E947B
:101B60000C0B319907C084E892E00E9495070BEFB7
:101B70001FEFE4CF8D2D0E94200C8C0189E692E0AE
:101B80000115110509F58E2D0E94860C1E821D82FD
:101B9000D982EA82FB8282E08C8384E592E00E9413
:101BA00095076B2D7C2DCE0101960E94A4138C010C
:101BB0008CE292E00115110539F08DE392E00E946C
:101BC00095070CEF1FEFBACF0E949507B7CFB19BD7
:101BD000FECF82E086BB809188009091890080963C
:101BE0009093890080938800089580E286BB81E508
:101BF00093ECB59B29C0809186009091870020913D
:101C0000430230914402821B930B20918600309155
:101C10008700309344022093430220913A0230918E
:101C20003B0282179307A0F02091380230913902CD
:101C30008217930778F0209136023091370282178D
:101C4000930720F482E00895019799F683E00895C0
:101C500080E0089581E008955F9800C000C0000012
:101C60005F9A08950F931F93CF93DF93CFE0D0E057
:101C700001E010E00E94E70DC8010C2E02C0880FA1
:101C8000991F0A94E2F789789474892B11F00E94C5
:101C90002C0E219778F781E080933C02DF91CF9161
:101CA0001F910F910895EF92FF920F931F93CF937F
:101CB000DF9307E010E0E82EF12CE701002E02C0D0
:101CC000D595C7950A94E2F7C1700E94E70D8091FF
:101CD0003C028C2B11F40E942C0E0E94E70DC111C6
:101CE0000E942C0EC0933C020150110930F7DF9185
:101CF000CF911F910F91FF90EF900895FC01680F15
:101D0000791FCA01E617F70709F408952191922770
:101D100028E0AC01880F991F57FF04C031E28327E8
:101D200030E193272150A9F7EDCF10928000E1E830
:101D3000F0E081E0808380818F7B8083EFE6F0E0BC
:101D400080818F7D80838EE690E090933B0280932C
:101D50003A028EE890E090933902809338028EEB3D
:101D600090E090933702809336028EE180933D029B
:101D700008950F920FB60F921F9211242F933F9345
:101D80008F939F93AF93BF9380918600909187002C
:101D90002091430230914402909344028093430285
:101DA000821B930B8EBD0DB407FEFDCF80913F02C9
:101DB00090914002A0914102B09142020196A11D72
:101DC000B11D80933F0290934002A0934102B093D3
:101DD000420280913F0290914002A0914102B09155
:101DE00042028035934CA105B10540F080916F000F
:101DF0008F7D80936F0081E080933E02BF91AF9111
:101E00009F918F913F912F911F900F900FBE0F9038
:101E100018952F923F924F925F926F927F928F927E
:101E20009F92AF92BF92CF92DF92EF92FF920F9369
:101E30001F93CF93DF93CDB7DEB76D970FB6F894AE
:101E4000DEBF0FBECDBF8CEA98E00E9495071092CE
:101E50003F021092400210924102109242021092F0
:101E60003E0260E070E0CB010E94370AB59A809193
:101E70008600909187009093440280934302809162
:101E80006F00806280936F00789410E000E0809192
:101E90003E02811105C0043F91E0190709F042C0DC
:101EA00080916F008F7D80936F000E944B0A8CE9B8
:101EB00098E00E94950780913F0290914002A09186
:101EC0004102B09142020E94C0078FE898E00E9450
:101ED0009507C8010E94C0078AE898E00E9495070C
:101EE000043F114041F581E798E00E94950787EF94
:101EF0009FEF6D960FB6F894DEBF0FBECDBFDF919A
:101F0000CF911F910F91FF90EF90DF90CF90BF90F6
:101F1000AF909F908F907F906F905F904F903F9089
:101F20002F9008958FE99FE00197F1F700C000001E
:101F30000F5F1F4FACCF8E010F5F1F4F84E1F80181
:101F400011928A95E9F780913F0290914002A09109
:101F50004102B0914202853F9140A105B10508F0D0
:101F60009EC180913F0290914002A0914102B091A8
:101F700042027C0160E070E0CB010E944D0AD12C4E
:101F8000C12CB12CAA24AA94CE14DF0409F08CC170
:101F90000E944B0A8FE598E00E9495078A2D90E0F9
:101FA0000E94C00789E598E00E9495078B2D90E07C
:101FB0000E94C0078BE498E00E94950758017801C1
:101FC00000E310E0F701C190D1907F01C114D1046A
:101FD00099F080E20E948207C8010E94C0078DE24A
:101FE0000E948207C8010F960E94C0078DE30E94DD
:101FF0008207C6010E94C007005F1F4F003D110508
:1020000009F788E498E00E94950760E070E0CB0152
:102010000E944D0A80913F0290914002A09141029E
:10202000B091420210E481349105A105B10548F454
:1020300080913F0290914002A0914102B0914202F2
:10204000182F8DE398E00E94950700E001134DC121
:102050000E944B0A8AE398E00E949507E12CC12C6C
:1020600070E060E050E040E080E0F50121913191C6
:102070005F014217530708F441C16217730710F458
:10208000B901E82E8F5F8A3081F7EC1418F48C2D9B
:10209000CE2CE82EC29470EFC722F8E3CF0EE29464
:1020A000E0EFEE22EF0ED12CF12CC7018056910902
:1020B000860100541109801791070CF48C01085017
:1020C000110917FF02C010E000E0088F83EE97E0CF
:1020D0000E949507C6010E94C0078DED97E00E94FF
:1020E0009507C7010E94C00789EC97E00E949507F9
:1020F000C8010E94C00786EC97E00E949507B12CAA
:10210000A12C21E02F8B912C812CA98E60E070E016
:10211000CB010E944D0A58EEE52E53E0F52E712CAE
:10212000612C4FEF4D8BD12CC12C1E8A212C312CD0
:1021300021010E94610A90E0801B910B4096803241
:1021400091050CF4E4C045E0959587954A95E1F733
:10215000853090F4082E04C0220C331C441C551CFE
:102160000A94D2F7689420F85E89850F282F2230D0
:1021700008F0CFC081708E8BE1E0EE1AF108C9F64D
:102180000E944B0A89EB97E00E949507C5010E94C7
:10219000C0078EEA97E00E949507C6010E94C0071B
:1021A0008BEA97E00E9495078C149D0418F4F98D32
:1021B000FF8B4601AA94AB2809F0A5C0488D409337
:1021C0003D0289E997E00E949507C8010E94C00777
:1021D00083E997E00E9495075F89852F90E00E9430
:1021E000C0078BE897E00E949507C4010E94C007D2
:1021F00088E897E00E94950780913F029091400205
:10220000A0914102B091420230E2A32E3EE4B32EEF
:1022100081329E44A105B10548F480913F0290911E
:102220004002A0914102B09142025C0160E070E086
:10223000CB010E944D0A82E298E00E9495078091AE
:102240003D0290E00E94C0078DE198E00E94950752
:10225000812C912CD12C00E0C12C10E0412C512C70
:102260003201EA14FB0409F4DBC00E94610A909178
:102270003D02891B990B4096803291050CF475C084
:1022800025E0959587952A95E1F7853008F46EC08D
:1022900000E0C12C10E0412C512C320197C084EF9A
:1022A000E82EFF24F39466CE0E94610AE82F8A1577
:1022B00008F4A82EBE1608F4BE2E80ED8E0F803ACC
:1022C00080F4E053FF0BA4E0F595E795AA95E1F7BC
:1022D000EE0FFF1FE00FF11F808191810196918326
:1022E00080832FEFC21AD20A4FCE80E20E9482076B
:1022F0000E94610A0E94A3070F5FA8CEBA01A9013C
:10230000EC2CC82EBFCEAA24A394B12CFECE82E022
:1023100021CF2250F501E20FF11DB201A10104C04D
:102320007695679557954795EA95D2F74A8F5B8FD3
:102330006C8F7D8F4A8D4170660C4629739457E0EF
:10234000571578F44E3431F46D896E3431F07AE0FB
:10235000C70ED11C712C612C06C099E1C90ED11C8D
:10236000F9CF642E4D894D8B02CF82E0B301A201DB
:10237000082E04C0440F551F661F771F0A94D2F71A
:102380002A013B01689440F8180F1F3108F01EE144
:1023900001113BC0662777274160493854446105E5
:1023A0007105A1F4C39492E09C1580F4839484E1B8
:1023B00098E00E949507C7010E94C00781E198E05C
:1023C0000E949507912CD12C10E001E02FEFE21A2A
:1023D000F20A47CF1250DD0CD301C201012E04C016
:1023E000B695A795979587950A94D2F78170D82AC4
:1023F0009394E7E0E91548F48D2D0E94A30780E24D
:102400000E9482070F5F912CD12C1230C0F0013155
:1024100008F38EE098E00E949507F3E0F81590F439
:102420000E944B0A811004C08BEF97E00E94950731
:1024300088EF97E00E94950790E080E05ACD013147
:1024400028F2E7CF00E0C12CC1CF2F923F924F92EC
:102450005F926F927F928F929F92AF92BF92CF9234
:10246000DF92EF92FF920F931F93CF93DF93CDB73D
:10247000DEB72D970FB6F894DEBF0FBECDBF8D87A8
:102480006E837F8383E797E00E9495073D85232F26
:1024900030E03B872A87C9010E94C0078BE697E09E
:1024A0000E94950780913D0290E00E94C00788E657
:1024B00097E00E94950780913D02888760E070E078
:1024C000CB010E944D0A812C912C5401312C212CDE
:1024D0001D8210E0D12C00E0F12CE12C1C86C12CD7
:1024E000412C512C32013885232F30E03987288741
:1024F00080913F0290914002A0914102B09142022E
:1025000088169906AA06BB0688F00E944B0A82E24A
:1025100097E00E9495078A859B850E94C00785E108
:1025200097E00E94950788EF9FEFE1C00E94610A43
:1025300090E028853985821B930B40968032910567
:10254000A4F045E0959587954A95E1F7853070F0C0
:1025500000E0E114F10421F010E000E0F12CE12CA6
:10256000C12C412C512C32012AC082E0B301A201BE
:10257000082E04C0440F551F661F771F0A94D2F718
:102580002A013B01689440F8C80E3EE13C1510F466
:102590003EE1C32EE114F10409F0D4C06627772789
:1025A0004160493854446105710579F40F5F033087
:1025B00030F010E0D12CEE24E394F12CC12C8FEFFD
:1025C000881A980AA80AB80A93CF0330C0F700E027
:1025D000F6CFCA94CA94D301C2010C2C04C0B6959C
:1025E000A795979587950A94D2F78170DD0CD82A24
:1025F0001F5F183008F49AC091E0E916F104C1F4A5
:102600002C8521110AC03EEFD31609F489C0ED8351
:1026100010E000E0F12CE12CD2CF8BEFD812F7CFF5
:10262000312C212C10E0D12C83E0E82EF12C7EC03F
:1026300092E0E916F10409F043C021E02E0F2D834A
:1026400081E090E08C0F9D1F8E0F911DFC01D082C8
:10265000243008F471C009810035D0F6FA8091E089
:102660009F15B0F21B818FEF810F823188F68C812C
:10267000823071F68AE597E00E949507802F90E0FE
:102680000E94C00786E597E00E9495078F2D90E095
:102690000E94C00782E597E00E949507812F90E095
:1026A0000E94C0078FE497E00E9495072D852113B3
:1026B000AFCF10E000E0F12CE12C31E03C877FCF80
:1026C00083E0E816F104C9F5C1010196AE81BF812E
:1026D000A20DB31DDC92811522E0920788F18DE3F3
:1026E00097E00E9495070E944B0A90E080E02D96AB
:1026F0000FB6F894DEBF0FBECDBFDF91CF911F9113
:102700000F91FF90EF90DF90CF90BF90AF909F9090
:102710008F907F906F905F904F903F902F90089593
:10272000E0E010E0D12C92E0E92EF12C31E03C15F4
:1027300008F44FCFED8343CFED8110E0D12CF6CFDD
:102740001C01FBCFED81F2CF2F923F924F925F920F
:102750006F927F928F929F92AF92BF92CF92DF92B1
:10276000EF92FF920F931F93CF93DF93CDB7DEB716
:1027700028970FB6F894DEBF0FBECDBF8C016F83D4
:10278000788786E097E00E949507F801808190E0C5
:102790000E94C00782E097E00E949507F8018181BE
:1027A00090E00E94C0078EEF96E00E949507F80126
:1027B000828190E00E94C0078BEF96E00E9495070F
:1027C000F801228083ED96E00E949507822C912CDF
:1027D000C4010E94C0078DEC96E00E94950780918D
:1027E0008600909187009093440280934302F0E822
:1027F0004F2EF8E35F2E66246394712C10E0C12CF9
:10280000D12C7601FC2FFB5FFE830E94F50D8130F9
:10281000E1F1823009F441C081114EC1E2E0CC0CFB
:10282000DD1CEE1CFF1CEA95D1F76894C0F8D701B7
:10283000C601AA27BB2789389444A105B10509F030
:102840003FC11F5F133008F43BC100E0B12C10E022
:102850000E94F50D813049F1823091F1811113C050
:1028600052E0CC0CDD1CEE1CFF1C5A95D1F768948D
:10287000C0F81E5F8FE08B1570F5FE0131965F0189
:102880000E3F09F487C010E01BC173E0CC0CDD1CC7
:10289000EE1CFF1C7A95D1F7C8CF64E0CC0CDD1C90
:1028A000EE1CFF1C6A95D1F7C0CF43E0CC0CDD1CB9
:1028B000EE1CFF1C4A95D1F76894C0F81D5FDACF73
:1028C00034E0CC0CDD1CEE1CFF1C3A95D1F768946B
:1028D000C0F81C5FCFCF1250000FD701C601012EE8
:1028E00004C0B695A795979587950A94D2F78170FD
:1028F000082BB394B394123008F0BCCF9FE09B1523
:1029000008F0A6CFBACF93E0CC0CDD1CEE1CFF1C68
:102910009A95D1F76894C0F81D5F31C084E0CC0C63
:10292000DD1CEE1CFF1C8A95D1F76894C0F81C5F73
:1029300026C01250000FD701C601012E04C0B69563
:10294000A795979587950A94D2F78170082B3394B1
:10295000339415C02FE02315B8F00E94F50D813097
:1029600091F28230D9F281118ECF22E0CC0CDD1CA5
:10297000EE1CFF1C2A95D1F76894C0F81E5F123038
:1029800048F3FFE0F315A8F6F50101935F01FE811E
:10299000FA1519F000E0312CE0CF8B81281273CFAB
:1029A00089EB96E00E949507C4010E94C00782EB64
:1029B00096E00E949507898190E00E94C0078FEA07
:1029C00096E00E9495078FEF9BE00197F1F700C01A
:1029D000000087E00E948A0AF89410923C028091DD
:1029E0008400909185008096909389008093880060
:1029F00082E086BB1CE080E00E94530E1150D9F7A4
:102A00000E94320E0E94320E0E94320E8BEF0E9404
:102A1000530E81EA8D834FEF5FEF61E070E0CE01EE
:102A200005960E947E0EAC0161E070E0CE01059635
:102A30000E947E0EAC0161E070E0CE0105960E941E
:102A40007E0EAC018BEF898361E070E0CE010196D0
:102A50000E947E0E182F092FEF80F8846701EEEF99
:102A6000DE1A5701FFEFEF1AFF0AF50180810E947D
:102A7000530E412F502F61E070E0C5010E947E0E81
:102A8000182F092FEC14FD0461F7892F0E94530EB3
:102A9000812F0E94530E16E38EE40E94530E1150B4
:102AA000D9F7789487E00E94980A8AEE96E00E940F
:102AB000950790E080E011C010E0C12CD12C760188
:102AC00091E0491A51086108710809F09ECE83E926
:102AD00096E00E94950787EF9FEF28960FB6F8942F
:102AE000DEBF0FBECDBFDF91CF911F910F91FF9041
:102AF000EF90DF90CF90BF90AF909F908F907F909E
:102B00006F905F904F903F902F9008950F931F9379
:102B1000CF93DF9300D000D000D0CDB7DEB78C01CB
:102B200080914504882391F1C80196958795800F7F
:102B3000911FB0E0A0E09C01AD0120533F4C4F4FEE
:102B40005F4F2B833C834D835E8322E030E0AE01F8
:102B50004F5F5F4F6B817C818D819E810E947109E7
:102B600089819A8100FF10C024E0969587952A9567
:102B7000E1F726960FB6F894DEBF0FBECDBFDF910A
:102B8000CF911F910F9108959F70F3CF90E080E057
:102B9000F0CFCF93DF93C2E0D0E0CE010E94861544
:102BA000892B21F4CE01DF91CF9108952196C13276
:102BB0008BE0D80791F78FEF9FEFF5CFEF92FF9261
:102BC0000F931F93CF93DF9300D000D000D0CDB7E9
:102BD000DEB77C018B01809145048823C9F1C701D0
:102BE000969587958E0D9F1DB0E0A0E09C01AD01EC
:102BF00020533F4C4F4F5F4F2B833C834D835E836D
:102C000022E030E0AE014F5F5F4F6B817C818D81B0
:102C10009E810E94710989819A81E0FE26C08F7091
:102C2000992724E0000F111F2A95E1F7082B192B93
:102C30001A83098322E030E0AE014F5F5F4F6B8162
:102C40007C818D819E810E949C0981E08093460455
:102C500026960FB6F894DEBF0FBECDBFDF91CF91A1
:102C60001F910F91FF90EF9008958827907F1F701C
:102C7000DDCFCF93DF9300D000D000D0CDB7DEB74B
:102C800080914504882309F44EC08091460488232E
:102C900009F449C021E030E03E832D8380ED90E3CC
:102CA000A0E0B0E089839A83AB83BC8320E032E06C
:102CB00045E452E069817A818B819C810E9471098F
:102CC00065E472E08D819E810E947708892B59F01E
:102CD0008FEF9FEF26960FB6F894DEBF0FBECDBFE5
:102CE000DF91CF91089565E472E08D819E81099610
:102CF0000E947708009761F729813A814B815C81B6
:102D00003E5F4F4F5F4F29833A834B835C834D81F6
:102D10005E814F5F5F4F5E834D834A30510531F6D0
:102D200010924604D7CF90E080E0D4CFFF920F936B
:102D30001F93CF93DF9300D000D000D0CDB7DEB784
:102D4000809145048823A1F085EB9AE00E949507C5
:102D50001E821D828D819E8126960FB6F894DEBF5D
:102D60000FBECDBFDF91CF911F910F91FF900895BE
:102D70008FE89AE00E94950765E472E090E080E0B9
:102D80000E940F08892B39F08AE69AE00E94950785
:102D90008FEF9FEF73C08AE59AE00E9495078091BC
:102DA0005002909151020E94C00784E59AE00E946F
:102DB00095078091520290E00E94C0078DE49AE04E
:102DC0000E9495078091550290E00E94C00787E419
:102DD0009AE00E94950780915802909159020E94B2
:102DE000C0078DE39AE00E94950780915A020E94E5
:102DF000A3078AE39AE00E9495078AE29AE00E947C
:102E0000950780915B0290915C020E94C00784E26A
:102E10009AE00E94950780915D0290915E020E9467
:102E2000C0078CE19AE00E94950780915F02909123
:102E300060020E94C00785E19AE00E949507809198
:102E40005602909157020E94C0078DE09AE00E94BE
:102E5000950780916B020E94A3078AE09AE00E9486
:102E6000950780915002909151028115924049F04E
:102E700084EF99E00E94950788EF9FEF9E838D83F2
:102E800069CF80915502823049F08FED99E00E9420
:102E90009507A8EFBFEFBE83AD835CCF8091520250
:102EA000811103C08BEC99E0E5CF80916B028932F0
:102EB00009F066C080916C0290916D02A0916E0243
:102EC000B0916F028093470490934804A093490403
:102ED000B0934A048BE0E0E7F2E0ABE4B4E00190A9
:102EE0000D928A95E1F7109256048DEB99E00E94BD
:102EF00095078BE494E00E94890781EB99E00E949A
:102F000095078091490490914A040E94B7078091E7
:102F10004704909148040E94B7078EEA99E00E9406
:102F2000950786E799E00E94950789E090E00E9466
:102F3000C00787E699E00E94950780ED90E3A0E046
:102F4000B0E089839A83AB83BC8301E010E0FF2467
:102F5000FA94F00E65E472E0C8010E940F088D83B8
:102F60009E83AD81BE81AB2B09F187E499E00E947D
:102F700095078F2D90E00E94C00784E499E006CF6A
:102F800010924704109248041092490410924A0487
:102F90008BE0E1E1F1E0ABE4B4E001900D928A95C1
:102FA000E1F7109256048BE899E0B9CF20E032E0C7
:102FB00045E452E069817A818B819C810E949C0961
:102FC0000F5F1F4F89819A81AB81BC819E5FAF4F9C
:102FD000BF4F89839A83AB83BC830A30110509F004
:102FE000B6CF81E0809345041092460483E399E0D4
:102FF0000E949507AFCE80914504882321F00E945E
:103000003916109245040895809145040895AF92B1
:10301000BF92CF92DF92EF92FF920F931F93CF93C5
:10302000DF93D82EC92EB62EA72E7A0180914504A3
:103030002EEF3FEF882391F103E110E065E472E0A9
:10304000C8010E940F08892B09F042C0C5E4D2E0F4
:1030500088818823D1F1853E69F18B8583FD2AC063
:1030600048E050E06D2D7C2DCE010E94AB2F892BC6
:1030700009F543E050E06B2D7A2DCE0108960E94B1
:10308000AB2F9C01892BB1F4E114F10439F080E2FB
:10309000FE01D70101900D928A95E1F7C901DF91F8
:1030A000CF911F910F91FF90EF90DF90CF90BF9045
:1030B000AF900895A09684E0C534D80749F60F5F15
:1030C0001F4F0132110509F0B9CF2DEF3FEFE6CFC9
:1030D0002FEF3FEFE3CFEF92FF920F931F93CF932A
:1030E000DF938C01F62EE72E80914504811116C0E6
:1030F0008EEF9FEFDF91CF911F910F91FF90EF9097
:103100000895253E59F023852F3041F020E2AF2D60
:10311000BE2D01900D922A95E1F7ECCFF801808148
:103120009181803E910510F5EC01CF70DD2725E0FF
:10313000CC0FDD1F2A95E1F734E0969587953A95F7
:10314000E1F765E472E043960E940F08009789F466
:10315000FE01EB5BFD4FD8012D913C9111972F5F44
:103160003F4F2D933C9320812111CBCF8DEF9FEFCB
:10317000C1CF8FEF9FEFBECF8F929F92AF92BF9242
:10318000CF92DF92EF92FF920F931F93CF93DF9333
:10319000CDB7DEB7A0970FB6F894DEBF0FBECDBF98
:1031A0007C016B018A0181E299E00E949507570139
:1031B000470188E0880E911CF50181915F01803202
:1031C00029F00E948207A814B904B1F78EE20E9488
:1031D000820756014601A3E08A0E911CD5018D910C
:1031E0005D01803229F00E948207A814B904B1F76A
:1031F0008DE199E00E949507AE014F5F5F4FB601E8
:10320000C7010E9407187C01892BC1F086E099E074
:103210000E949507C701A0960FB6F894DEBF0FBEB7
:10322000CDBFDF91CF911F910F91FF90EF90DF9075
:10323000CF90BF90AF909F908F900895F8013D96EA
:1032400086E0DF011D928A95E9F781E0F80180832D
:103250008B8D9C8D92838183948383838D8D9E8DB2
:10326000AF8DB8A185839683A783B0871186128618
:1032700013861486118A8FEE98E00E9495078B8D35
:103280009C8D0E94C00788EE98E00E9495078D8D66
:103290009E8D0E94C00785EE98E0BACF6F927F9214
:1032A0008F929F92AF92BF92CF92DF92EF92FF9256
:1032B0000F931F93CF93DF93EC013B016A01888149
:1032C000882309F488C08989811185C080914504CB
:1032D00081117BC08EEF9FEF69C08D819E814985F2
:1032E0005A8595012E193F09841B950B281739071C
:1032F00008F4C9014601801A910A8815990508F455
:103300004C01B7016B5B7D4FA401C301800F911F7E
:103310000E94B82F080D191D89859A85AB85BC853B
:10332000880D991DA11DB11D89879A87AB87BC8720
:10333000AC01BD01517066277727452B462B472BE3
:10334000A1F44D815E816F81788584179507A6076A
:10335000B70758F48B819C810E9486159C01283FF9
:103360008FE0380710F53C832B830C151D05E8F41E
:1033700089859A85AB85BC854D815E816F81788515
:1033800084179507A607B70780F47C0121E0F22295
:103390008B819C8165E472E04F960E940F08892B17
:1033A00009F49BCF01151105C1F0C801DF91CF9140
:1033B0001F910F91FF90EF90DF90CF90BF90AF9053
:1033C0009F908F907F906F90089510E000E0A12C67
:1033D00082E0B82ECACF89EF7ECF8FEF7CCF3F92AD
:1033E0004F925F926F927F928F929F92AF92BF9215
:1033F000CF92DF92EF92FF920F931F93CF93DF93C1
:103400008C012B017A01FC018081882309F490C092
:103410008189882309F48CC08091450481117CC086
:103420008EEF9FEF67C0F301C50111920197E9F795
:1034300040C0CC0DDD1DF80181859285A385B48542
:103440008C0D9D1DA11DB11D81879287A387B48717
:10345000328A9170AA27BB27892B8A2B8B2BB1F438
:10346000CE15DF0598F40E94C9156C0197FD41C087
:10347000BC01F801838194810E94DE156FEF7FE02B
:10348000C6010E94DE15F801D482C382CE15DF0585
:1034900080F5F80181849284F1E09F2281149104E7
:1034A00011F2F8018381948165E472E04F960E94E5
:1034B0000F08C7018C1B9D0B6501C818D9088C1516
:1034C0009D0508F46C01A601B2016C0F7D1FC401BB
:1034D0008B5B9D4F0E94B82FF8018381948165E436
:1034E00072E04F960E947708892B09F4A2CF2097AB
:1034F00009F1CE01DF91CF911F910F91FF90EF90D5
:10350000DF90CF90BF90AF909F908F907F906F9003
:103510005F904F903F900895D0E0C0E085E4682E22
:1035200082E0782EA12C92E0B92E33243394AECFD2
:1035300089EF77CF8FEF75CFCF93DF93EC01888141
:10354000882309F44EC083ED98E00E949507898591
:103550009A850E94C0078BEC98E00E9495078989A4
:10356000811124C08EE40E94820785EC98E00E94BD
:1035700095078A8981111CC08EE40E94820782EC23
:1035800098E00E9495078989882351F18A898823C8
:1035900039F165E472E08D859E850E940F08892BC4
:1035A00049F08FEF9FEFDF91CF91089589E5DBCF51
:1035B00089E5E3CFEF85F889EB5BFD4F89859A8537
:1035C000AB85BC85848F958FA68FB78F65E472E03D
:1035D0008D859E850E947708892B19F70E943916E0
:1035E000188290E080E0DFCFCF92DF92EF92FF92DF
:1035F0000F931F93CF93DF93182F092FD62EC72E2B
:1036000080914504CEEFDFEF882361F083E1E82E5F
:10361000F12C65E472E0C7010E940F08892B61F06C
:10362000CFEFDFEFCE01DF91CF911F910F91FF9090
:10363000EF90DF90CF900895C5E4D2E08881882391
:1036400009F441C0853E91F148E050E0612F702FB0
:10365000CE010E94AB2F892B49F543E050E06D2D40
:103660007C2DCE0108960E94AB2F892BF9F40A8D90
:103670001B8DC8010297863F9F4068F085EE8883C6
:1036800065E472E0C7010E947708EC01892B41F6DE
:103690000E943916C7CFC8010E9486156C0170E0E0
:1036A00060E0C8010E94DE158601E3CFA09684E0A9
:1036B000C534D80719F62FEFE21AF20A81E2E816AC
:1036C000F10409F0A6CFCDEFDFEFACCF5F926F92A0
:1036D0007F928F929F92AF92BF92CF92DF92EF92A2
:1036E000FF920F931F93CF93DF93CDB7DEB7A097D1
:1036F0000FB6F894DEBF0FBECDBF882E792E662E92
:10370000572E8A0180914504882309F49BC0AE019D
:103710004F5F5F4F882D0E940718892B31F4662D6B
:10372000752D882D972D0E94F41A93E1A92EB12CA6
:1037300065E472E0C5010E940F08892BC1F08FEF8C
:103740009FEFA0960FB6F894DEBF0FBECDBFDF91FE
:10375000CF911F910F91FF90EF90DF90CF90BF908E
:10376000AF909F908F907F906F905F90089585E4C9
:10377000E82E82E0F82E912CF7018081811108C09B
:103780000E94C9156C0197FF17C08AEF9FEFD9CF30
:10379000853EB1F39394F0E2EF0EF11C40E19412F8
:1037A000EBCF8FEFA81AB80A91E2A916B10409F07D
:1037B000BFCF8BEF9FEFC5CF6FEF7FE00E94DE158D
:1037C00080E2F701482F11924A95E9F798E0E82D39
:1037D000F72DD70101900D929A95E1F7D701189630
:1037E00093E0E62DF52D01900D929A95E1F7F70102
:1037F0008387D38EC28E148E158E168E178E65E437
:1038000072E0C5010E947708009709F098CF21E087
:10381000F8012083D282C182D482C38215821682AB
:10382000178210861186128613861486218B128ABF
:10383000B686A586F0E29F9E90011124F801308B98
:1038400027877FCF8EEF9FEF7CCF4F925F926F9253
:103850007F928F929F92AF92BF92CF92DF92EF9220
:10386000FF920F931F93CF93DF93CDB7DEB7A0974F
:103870000FB6F894DEBF0FBECDBF782E692E562E40
:10388000472ED42EC52EB22EA32E80914504882318
:1038900009F480C0AE014F5F5F4F622F732F8D2DF3
:1038A0009C2D0E940718892B09F477C083E1E82E2C
:1038B000F12C65E472E0C7010E940F08892B09F022
:1038C0006FC005E412E0F8018081882309F45FC02D
:1038D000853E09F44DC048E050E0672D762DC801C3
:1038E0000E94AB2F892B09F043C04801F8E08F0EEE
:1038F000911C43E050E0652D742DC4010E94AB2F54
:10390000892BB1F588E0ED2DFC2DD80101900D92A9
:103910008A95E1F783E0EB2DFA2DD40101900D9209
:103920008A95E1F765E472E0C7010E94770821E01B
:1039300030E0892B11F430E020E088279927821BA2
:10394000930BA0960FB6F894DEBF0FBECDBFDF91EC
:10395000CF911F910F91FF90EF90DF90CF90BF908C
:10396000AF909F908F907F906F905F904F90089551
:10397000005E1F4F84E00534180709F0A4CFEFEF75
:10398000EE1AFE0AF1E2EF16F10409F092CF8DEF84
:103990009FEFD7CF8EEF9FEFD4CF8CEF9FEFD1CF9C
:1039A0008FEF9FEFCECF0F931F93CF93DF9300D076
:1039B00000D0CDB7DEB780914504882399F102E0AD
:1039C00010E01A821982C8010E948615892B31F4F1
:1039D00029813A812F5F3F4F3A8329830F5F1F4F21
:1039E00001323BE0130779F749815A81B0E0A0E04A
:1039F0009A01AD0189E0220F331F441F551F8A959C
:103A0000D1F729833A834B835C8369817A818B81E7
:103A10009C810F900F900F900F90DF91CF911F918D
:103A20000F91089519821A821B821C82EECFAF92E9
:103A3000BF92CF92DF92EF92FF920F931F93CF939B
:103A4000DF9300D000D000D0CDB7DEB78D839E834A
:103A500080E092E0E5E4F2E0DF019C011D9221505C
:103A60003040E1F72BEE209345022CE320934602F1
:103A700020E92093470228E0EDE1F1E0A8E4B2E07C
:103A800001900D922A95E1F7909351028093500294
:103A900081E08093520281E090E090935402809301
:103AA000530282E08093550280EE90E0909357029B
:103AB0008093560280E49BE09093590280935802D1
:103AC00080EF80935A0289E090E090935C028093AB
:103AD0005B0282E190E090935E0280935D0282E05F
:103AE00090E09093600280935F0289E280936B0282
:103AF0008EEE9FEFA0ECB4E680936C0290936D0283
:103B0000A0936E02B0936F028D819E81892B09F480
:103B1000CCC08BE0ED81FE81A0E7B2E001900D9278
:103B20008A95E1F788E0E2E3F1E0ABE7B2E00190EB
:103B30000D928A95E1F785E5809343048AEA8093A4
:103B4000440465E472E090E080E00E947708892BED
:103B500009F0AFC001E010E080ED90E3A0E0B0E03C
:103B600089839A83AB83BC8385E4C82E82E0D82EF8
:103B7000A12C92E0B92E20EFE22EFF24FA94D60178
:103B8000F5011D923197E9F7013031F4E0924502D9
:103B9000F0924602F092470265E472E0C8010E948A
:103BA0007708892B09F085C065E472E0C8010996A1
:103BB0000E947708892B09F07CC020E032E045E4C0
:103BC00052E069817A818B819C810E949C09898164
:103BD0009A81AB81BC819E5FAF4FBF4F89839A832F
:103BE000AB83BC830F5F1F4F0A30110541F6E5E43C
:103BF000F2E080E092E0DF019C011D922150304014
:103C0000E1F78D819E81892BB9F088E0ED81FE81FD
:103C1000A5E4B2E001900D928A95E1F7ED81FE8175
:103C200080859185A28580934D0290934E02A0934A
:103C30004F0288E08093500265E472E083E190E0F7
:103C40000E947708892BA9F5E5E4F2E080E092E094
:103C5000DF019C011D9221503040E1F784E190E0AA
:103C60009A83898365E472E089819A810E9477084A
:103C7000892BF9F4A981BA811196BA83A983919706
:103C800089F71092450426960FB6F894DEBF0FBE52
:103C9000CDBFDF91CF911F910F91FF90EF90DF90FB
:103CA000CF90BF90AF900C9496168BE0E6E2F1E0D7
:103CB00033CF8FEF9FEF26960FB6F894DEBF0FBE7F
:103CC000CDBFDF91CF911F910F91FF90EF90DF90CB
:103CD000CF90BF90AF9008958F929F92AF92BF9276
:103CE000CF92DF92EF92FF920F931F93CF93DF93C8
:103CF0006C014B017A0148E050E060E270E0C401E1
:103D00000E94C12F43E050E060E270E0C7010E94D2
:103D1000C12F56019601E90188812F5F3F4F811124
:103D20000BC0F60101900020E9F731978F010C19C3
:103D30001D09D0E0C0E007C08E3269F78E010C1972
:103D40001D09209771F30930110514F008E010E007
:103D50006401912C812C8016910614F12097A9F111
:103D60002196DE010D900020E9F711978701AC1B29
:103D7000BD0BA430B10514F0A3E0B0E0EA0EFB1EC9
:103D80000E151F05D1F4DF91CF911F910F91FF9078
:103D9000EF90DF90CF90BF90AF909F908F9008955D
:103DA000F50181915F0190E00E94A32FF6018193BC
:103DB0006F01FFEF8F1A9F0ACECF899190E00E948A
:103DC000A32FF80181938F01DBCF83E0EBE3F1E0D8
:103DD000D70101900D928A95E1F7D5CF8F93549A30
:103DE0005C9881E0809358048F91189553985B9A62
:103DF00054985C9A0895FC011082549A5C988FE361
:103E000091E00197F1F700C0000081E197E24B9B40
:103E100018C054985C9A90E080E061E070E021E185
:103E200037E24B9918C04C9B09C02081AB01082E8A
:103E300001C0440F0A94EAF7242B208321E137E2E2
:103E40001BC025E02A95F1F70000019701F754986F
:103E50005C9A80E0089545E04A95F1F70000215012
:103E60003109F9F60E94F61EF4CF45E04A95F1F7C4
:103E7000000021503109B1F34B9BF7CF01968830F8
:103E8000910569F6549A5C988FE891E00197F1F7F3
:103E900000C0000081E00895FC01DB0110821C924B
:103EA00054985C9A89EC90E04B9B16C025E02A95CB
:103EB000F1F70000019709F581E08C93549A5C9822
:103EC0008FEE90E00197F1F700C0000054985C9AE3
:103ED00081E197E24B9907C090E080E061E070E0FB
:103EE00021E137E214C025E02A95F1F7000001979F
:103EF00089F70E94F61E80E008954A99D5CFF9CF40
:103F000045E04A95F1F700002150310991F34B99B2
:103F1000F7CF4C9B09C02081AB01082E01C0440F94
:103F20000A94EAF7242B208321E137E207C045E019
:103F30004A95F1F7000021503109D9F24B9BF7CF98
:103F400001968830910561F6549A5C9881E0089555
:103F5000539A5B9854985C9AEFE3F1E03197F1F74C
:103F600000C0000021E137E24C9B45C0662391F080
:103F700053985B9A21E137E24C9949C021E137E23D
:103F80004C9B4EC0539A5B98EFE3F1E03197F1F709
:103F900000C0000030E020E090E0AC01022E02C042
:103FA000559547950A94E2F740FF43C054985C9AB0
:103FB000EFEEF0E03197F1F700C0000053985B9A04
:103FC000EFEEF0E03197F1F700C00000539A5B98F4
:103FD0002F5F3F4F2830310501F754985C9A81E1FB
:103FE00097E24C9929C08FE891E00197F1F700C062
:103FF000000081E00895F5E0FA95F1F70000215006
:10400000310911F480E008954A99AECFFBCF95E0D5
:104010009A95F1F700002150310909F0ADCFF2CFA8
:10402000E5E0EA95F1F700002150310909F0A8CF49
:10403000E9CF549A5C98BCCFF5E0FA95F1F700000F
:10404000019779F6DFCFEF920F931F93CF93DF9312
:1040500080933C0590E3E92E0DE315E00E946B236D
:10406000EC018034910514F0C0E4D0E0AE01552796
:104070006DE375E089EF94E00E94B82FC093390595
:1040800010923A0510923B05DF91CF911F910F914D
:10409000EF900895CF93C82F8BE99DE00E9495077C
:1040A0008C2F90E00E94C00788E99DE00E94950750
:1040B000C093590410925B0410925A041092580451
:1040C0008AB1837C8AB98BB18C638BB9809169008A
:1040D0008C7F82608093690081E08CBBE89AC9B1D3
:1040E00088E89DE00E9495078CE4C2FD88E40E9468
:1040F000820782E89DE00E9495078CE4C3FD88E476
:104100000E9482078BE79DE00E9495078CE4C4FD26
:1041100088E40E94820785E79DE00E9495078CE471
:10412000C5FD88E40E94820782E79DE00E94950712
:10413000EEE5F4E08EEDDF011D928A95E9F720E0CF
:1041400040E06FE371E089E4CF910C942320CF939A
:10415000DF93EC01DB01E0913A0580913905E81726
:1041600030F081E08C9380E0DF91CF91089581E081
:104170008E0F80933A05F0E0E353FB4F84A58883CC
:1041800081E020913A0590913905291708F480E0E3
:104190008C9381E0E9CFCF92DF92EF92FF920F9361
:1041A0001F93CF93DF9300D00F92CDB7DEB78091EE
:1041B00057044D9923C0811115C081E080935704A5
:1041C0008AE39DE00E94950710925B0410925A04C6
:1041D0000E94F61E0E94A50B0E94FB170E945B2303
:1041E0000E94542A0F900F900F90DF91CF911F9152
:1041F0000F91FF90EF90DF90CF900895882309F4FE
:104200005BC01092570484E19DE00E9495070E94D4
:104210000C0B0E94B30B892B91F082E09DE00E9471
:10422000950720E040E061E071E08AE40E942320ED
:1042300085E090E00E94102F0E94A50BD3CF81EF64
:104240009CE00E9495070E94ED0B81110EC088ED45
:104250009CE00E94950720E040E061E071E08AE484
:104260000E94232086E090E0E5CF81EC9CE00E9454
:1042700095070E949616892B79F480EB9CE00E94AA
:1042800095070E94A50B80E89CE00E94950790E0AE
:1042900080E00E94102FA6CF8BE99CE00E9495073A
:1042A00020E040E061E071E08AE40E94232086E0A3
:1042B00090E00E94102FE5CF4A9B41C080915A04A4
:1042C00090915B04029709F08DCFAE014F5F5F4F75
:1042D000BE016E5F7F4F80915C040E94D9268823C7
:1042E00059F10E944F2AFC0169818A81309709F1B6
:1042F0000680F781E02D3097E1F0099581110AC021
:1043000086E69CE00E94950710925B0410925A0486
:104310000E94F61E8981882309F464CF8EE49CE014
:104320000E94950710925B0410925A040E94F61E98
:1043300059CF0E94A81FE2CF8FE29CE0F1CF0E94EC
:10434000C22E83E29CE00E949507549A5C9882E01A
:10435000E82EF12CCC24C394D12C4A990AC0CE016A
:1043600003960E94FB1E811142C088E09CE00E94DF
:1043700095070E94C42E80915A0490915B04029785
:10438000D1F480E69BE00E9495070E94222A0E94B9
:104390004F2A8C01009779F0DC011A968D919C913F
:1043A000892B49F088E49BE00E949507D8011A9672
:1043B000ED91FC91099580915A0490915B040197CD
:1043C00009F010CF8BE29BE00E94950780915C047E
:1043D00090E00E94C00788E29BE00E94950711E0F0
:1043E0004A99C6C08EE09BE00E949507FBCE8BEFFA
:1043F0009BE00E9495078B810E94A3078B818F33DE
:1044000061F58FEE9BE00E94950780915A04909190
:104410005B04019709F0A1CF80915C048F30C1F457
:104420006091CA04662359F0E62FF0E0E75AFB4F8B
:1044300011AA8AE894E00E94C0281092CA0410923F
:104440005B0410925A040E94F61E0E94542A85CFE3
:104450008130A9F70E94BF26F2CF8F3561F485EE37
:104460009BE00E94950780915A0490915B0402970B
:1044700009F073CFE4CF182F1F71982F907E9032E0
:10448000C9F48BED9BE00E949507812F90E00E947C
:10449000C00788ED9BE00E94950780915904811325
:1044A0005CCFD0925B04C0925A0484EC9BE00E94E3
:1044B000950753CF9034B9F48CEB9BE00E9495079D
:1044C000812F90E00E94C00789EB9BE00E94950736
:1044D00080915904811341CFF0925B04E0925A0419
:1044E00087EA9BE0E4CF982F907F903651F5182F04
:1044F0001F708DE99BE00E949507812F90E00E943C
:10450000C0078AE99BE00E94950710935C048091A4
:104510005A0490915B048130910529F41092CA04E9
:104520001092CB041ACF029709F017CF54985C9AD7
:104530008FE391E00197F1F700C00000539A5B9878
:104540000CCF903E91F4182F1F708FE89BE00E94D3
:104550009507812F90E00E94C0078CE89BE00E94A5
:104560009507812F0E94BF26F8CE86E89BE09FCF5B
:10457000BE016F5F7F4FCE0102960E944C1F8111DA
:1045800003C085EF9AE030CF80915C0490915E0487
:10459000911136C08F30A1F1E0918904E93248F4DD
:1045A0008A8191E09E0F90938904F0E0E75AFB4FD7
:1045B00086838981882309F413CFE0918904F0E090
:1045C000E75AFB4F168284EE9AE00E9495078FE52A
:1045D00094E00E94890780EE9AE00E94950740913E
:1045E00089046FE574E080915C040E948D23109330
:1045F0005E048981882309F4F3CE8DEC9AE0F4CE31
:10460000E091CA046A81E03440F491E09E0F9093F7
:10461000CA04F0E0E75AFB4F61AB0E94A728E9CF3C
:1046200080915804882341F01092580484E59DE05D
:104630000E9495070C94CB2008950F931F93CF935E
:10464000DF93CDB7DEB7CC52D4400FB6F894DEBFBF
:104650000FBECDBF8C019C01AE01435D5D4F60ED8F
:1046600078E580E090E00E9471092CE232E0AE0132
:104670004F5F5F4FB801CE01835D9D4F0E94A42E16
:104680008C011816190654F49C01AE014F5F5F4F60
:1046900060ED7AE580E090E00E949C09C801C45D6D
:1046A000DB4F0FB6F894DEBF0FBECDBFDF91CF91C9
:1046B0001F910F910895EAE7F5E083E1DF011D9274
:1046C0008A95E9F71092750520E040E06FE371E00C
:1046D00089E40C942320EF920F931F931F922F9342
:1046E0001F924F937F936F931F928F938DE491E06E
:1046F0009F938F931F92EF921F930F930E94D32F3C
:104700002DB73EB7225F3F4F0FB6F8943EBF0FBEA6
:104710002DBF1F910F91EF9008957F928F929F92DE
:10472000AF92BF92CF92DF92EF92FF920F931F93BF
:10473000CF93DF93CDB7DEB7C356D1090FB6F89448
:10474000DEBF0FBECDBF182F7B01042F85E99EE091
:104750000E949507812F90E00E94C0078DE89EE09F
:104760000E94950767014701800E911C8C149D04DF
:10477000E1F589E89EE00E949507FE01EF5AFF4FA0
:104780001192119287E0DF011D928A95E9F76C96EC
:104790001FAE1EAE6C976E961FAE1EAE6E97123099
:1047A00078F40E940418811126C081E79EE00E94DF
:1047B000950720E040E061E071E08AE40E94232058
:1047C000CD59DF4F0FB6F894DEBF0FBECDBFDF91DE
:1047D000CF911F910F91FF90EF90DF90CF90BF90FE
:1047E000AF909F908F907F900895D6018D916D012D
:1047F0000E948207BBCF11111DC2013009F01AC2FD
:10480000F7018081843209F015C28DE59EE00E9497
:104810009507098384E08A8322E030E0AE014F5F90
:104820005F4F60ED76E480E090E00E949C091B827F
:104830001C8282E18D8382E28E83E9E6F1E0DE0173
:10484000179689E791E021912D938E179F07D9F74D
:1048500082E28F8B80E2888FEAE7F1E088E1919134
:1048600021E0280F482F50E09111B5C0E1E0F0E0C1
:10487000EC0FFD1F4E0F5F1FDA011C9230E0790133
:10488000B2E0EB0EF11C8C5F8983C9018D5F9B4FF9
:104890009A83AF0162ED76E480E090E00E949C098B
:1048A000A0961FAE1EAEA09730E2C32E42E2B42EF9
:1048B0000FE010E0BE016F5C7F4FCE01825A9F4F28
:1048C0000E946B18AC01892B31F468EFE6166FE09B
:1048D000F60608F48BC00E94D31CA4966CAF7DAF83
:1048E0008EAF9FAFA497BB27A92F982F872F198230
:1048F0001A828B839C83A1E8B1E084E09D9161E002
:10490000680F282F30E091118BC188248394912C5B
:104910008C0E9D1E280D391DD9011C92F401E60F45
:10492000F11D1082E2E0E80F88248394912C8C0E14
:104930009D1E8E0E911CF40110828D5F082F10E0D9
:10494000B0E0A0E09701AD012053394B4F4F5F4FCE
:10495000A4962CAF3DAF4EAF5FAFA4979801AE01C8
:104960004F5F5F4FA4966CAD7DAD8EAD9FADA497AC
:104970000E949C090E0D1F1D109379050093780568
:10498000109277051092760511E0109375058EE46C
:104990009EE00E94950780917805909179050E948C
:1049A000C0078BE49EE00E94950710927405109258
:1049B0007305109272051092710510927005109295
:1049C0006F0510936E0510926D0520E040E06EE8D3
:1049D00071E080E0F3CE88248394912C8C0E9D1E90
:1049E000480D591DDA019C93822F39CF6CAD63FDC0
:1049F00061CF61968CAD9DADAEADBFAD619781507D
:104A00009F4FAF4FBF4F892F9A2FAB2FBB279C01D2
:104A100019821A82009711F481E090E09C838B83C5
:104A20002A30310508F03EC0CD82A5E0E1E0EA0F72
:104A300088248394912C8C0E9D1E8A0E911CD40187
:104A4000CC9291E09E0FA1E0B0E0AC0FBD1FAE0F85
:104A5000B11DFD01C08281E0890FE1E0F0E0EC0FC3
:104A6000FD1FE90FF11DB08228E030E0722F732E98
:104A700021503109E1E3F0E0EC0FFD1FE20FF31FDD
:104A8000E081E032D1F0FE01F1969E5F970F282F72
:104A9000AA24A394A20E30E09A11A5C0870F272F55
:104AA000372D0EC02436310510F4A4E0BFCF94E0BA
:104AB000283E334080F6E4E0C4CF21153105B1F63D
:104AC00099AD7BAD703209F09AC07AAD703209F0C1
:104AD00099C0903221F141E050E091E0980F7EE2E0
:104AE000E1E0F0E0EC0FFD1FE80FF11D7083DE0147
:104AF000D996792F740FDD90E92F9F5F88248394D6
:104B0000912C8C0E9D1E8E0E911CF401D082971359
:104B1000F2CF840F8F5FFA0131962E0F3F1F91E085
:104B2000980FE1E0F0E0EC0FFD1FE80FF11DB082FF
:104B300071E1780F721BE92F9F5FA1E0B0E0AC0F2D
:104B4000BD1FAE0FB11DFD01C0829713F4CF8E5F64
:104B5000F801E21BF30BD82EDE0EE1E6F1E064FD76
:104B600011C04330510561F443E050E065E671E067
:104B7000CE01C9960E94AB2FE5E6F1E0892B11F03A
:104B8000EBE3F1E0319121E02D0D8D2D90E031111D
:104B90003CC0E1E0F0E0EC0FFD1F8E0F9F1FDC0139
:104BA0001C9230E049018E0C9F1CC4018F5F9B4F0B
:104BB0009A838983B0E0A0E0A701BD014053594B1F
:104BC0006F4F7F4FA4964CAF5DAF6EAF7FAFA49792
:104BD000AF01A4966CAD7DAD8EAD9FADA4970E9444
:104BE0009C09740167CED19088248394912C8C0EFB
:104BF0009D1E280D391DD901DC922A2D49CF43E095
:104C000050E06BCF42E050E068CF88248394912C31
:104C10008C0E9D1E880D991DDC013C93D22EB2CFC7
:104C2000E1E0F0E0EC0FFD1F2E0F3F1FF901908334
:104C3000862F64CEAE01465A5F4FBE016F5A7F4F3A
:104C4000C7010E946C1E8BE39EE00E949507AE0197
:104C50004F5A5F4F7A016A0158E0C50ED11CD70147
:104C60008D917D010E948207CE14DF04C1F787E396
:104C70009EE00E9495076B968FAD6B970E9482070E
:104C80006C968FAD6C970E9482076D968FAD6D9775
:104C90000E94820783E39EE00E949507111126C0BF
:104CA00086E29EE00E9495074AE755E0BE01665AFB
:104CB0007F4FCE018F5A9F4F0E94BC188C01892BC9
:104CC00009F440C080E19EE00E949507882799275B
:104CD000801B910B0E94C0078DE09EE00E9495070B
:104CE00020E040E061E971E08EE368CD80E09EE085
:104CF0000E9495074AE755E0BE01665A7F4FCE01F4
:104D00008F5A9F4F0E94661B8C01892BD9F083EE2E
:104D10009DE00E94950788279927801B910B0E9490
:104D2000C00780EE9DE00E94950720E040E060EA29
:104D300071E088E40A3F1F4F09F440CD6AEA71E050
:104D400089E13CCD109274051092730510927205A2
:104D5000109271051092700510926F0581E080939A
:104D60006E0510926D0520E040E06EE871E080E095
:104D70000E94232080ED9DE00E94950721CDCF93D6
:104D8000C82F80EC9DE00E9495078C2F90E00E9438
:104D9000C0078DEB9DE00E94950780917A058823DE
:104DA00021F08AE795E00E949C1A10927505CF9138
:104DB0000895BF92CF92DF92EF92FF920F931F93CD
:104DC000CF93DF9300D000D000D0CDB7DEB7082F4F
:104DD0006B017A01FA0110820E947E2E182F88231F
:104DE00009F44CC10F3009F44BC1F70110828091D6
:104DF0006F059091700520917105309172058217B1
:104E0000930740F5B0E0A0E09C01AD012053354A86
:104E10004F4F5F4FCA01B9010E94C609F601808356
:104E200080916F0590917005019690937005809325
:104E30006F0520917105309172058217930708F470
:104E400046C080916D05882309F441C081E0F701D7
:104E500080833DC0B0906D05BB2029F081E0F70153
:104E6000808310E034C000916E05011181C01A8268
:104E7000198222E030E0AE014F5F5F4F60ED7AE5CE
:104E800080E090E00E949C0982E090E0909372059F
:104E9000809371051092700510926F0501E00093E8
:104EA0006D0560ED7AE580E090E00E94C609F601AC
:104EB000808381E090E09093700580936F058091EE
:104EC000710590917205029710F4F7010083812F0C
:104ED00026960FB6F894DEBF0FBECDBFDF91CF91FF
:104EE0001F910F91FF90EF90DF90CF90BF900895AA
:104EF000B0E0A0E09C01AD012053394B4F4F5F4F14
:104F00002B833C834D835E8321E030E0AE014F5F15
:104F10005F4F6B817C818D819E810E9471098091A0
:104F200076059091770501969093770580937605A5
:104F30008091730590917405B0E0A0E09C01AD01F3
:104F40002053374A4F4F5F4F2B833C834D835E8303
:104F500049816B817C818D819E810E94DF098091D6
:104F60007305909174050196909374058093730571
:104F700080917305909174058115924088F4809119
:104F800075058823C1F18091760590917705209170
:104F90007805309179058217930708F4A9CFB02ED0
:104FA00080917305909174050097B1F10E941D23C3
:104FB000181619060CF052CF909372058093710564
:104FC0001092700510926F0510927405109273057F
:104FD000B11010926E0560ED7AE580E090E00E94DD
:104FE000C609F601808381E090E09093700580937C
:104FF0006F05102F6CCF80917A05882381F241E0F4
:1050000050E0BE016F5F7F4F8AE795E00E944E1926
:10501000019709F48DCFC3CF1A82198222E030E0C4
:10502000AE014F5F5F4F60ED7AE580E090E00E9457
:105030009C0982E090E09093720580937105109234
:10504000700510926F0510926E0581E080936D05DA
:1050500060ED7AE580E090E00E94C609F601808369
:1050600081E090E09093700580936F0580917105C9
:1050700090917205029708F02ACFE8CE0F3031F4F4
:10508000B701C6010E94A720182F21CF0111E6CE3B
:1050900010917505112381F1809176059091770526
:1050A000B0E0A0E09C01AD012053394B4F4F5F4F62
:1050B0002B833C834D835E8321E030E0A6016B812E
:1050C0007C818D819E810E947109809176059091ED
:1050D0007705019690937705809376052091780562
:1050E000309179058217930708F4F1CE81E0F7013A
:1050F000808310927505EBCE10917A05112309F487
:10510000ADCE41E050E0BE016F5F7F4F8AE795E092
:105110000E944E19019709F0A1CE8981F601808382
:1051200040918305509184056091850570918605B5
:1051300080917F0590918005A0918105B0918205B5
:10514000481759076A077B0708F4C1CE7FCECF9373
:10515000DF930F92CDB7DEB76983813069F4809118
:105160007A05882349F041E050E0BE016F5F7F4F30
:105170008AE795E00E94EF190F90DF91CF91089593
:10518000AF92BF92CF92DF92EF92FF920F931F9355
:10519000CF93DF93CDB7DEB7C754D1090FB6F894DC
:1051A000DEBF0FBECDBF6C01162F662309F49AC077
:1051B00080EB9DE00E94950776015601A10EB11C7F
:1051C000EA14FB0409F04AC08CEA9DE00E949507AE
:1051D000012F1A3208F009E2E02EF12CA701B601E6
:1051E000CE0101960E94B82F81E090E08C0F9D1FA8
:1051F000E80EF91EF70110826C01F60181916F0132
:1052000090E00E94A32FF60131978083EC14FD04F7
:10521000A1F7602FCE0101960E949E2B811162C0E2
:10522000602FCE0101960E94112C81115BC0602F6E
:10523000CE0101960E94552E882309F168E070E0A6
:10524000CE018B960E94812E181619066CF420E070
:1052500040E0BE01655D7F4F80E042C0F701819173
:105260007F010E948207ACCF0E947E2E20E040E0AA
:1052700066EB71E08111F0CF6EE871E0EDCF8981CE
:10528000823509F441C064F4893409F4B7C08E341E
:1052900009F47EC020E040E065ED71E08EE120C0C1
:1052A0008335C1F71330B0F38A818A3399F7AE01A1
:1052B000495C5F4FBE01655D7F4FCE0103960E9442
:1052C0006C1EBE01695C7F4FCE018B960E94F41A62
:1052D00020E0892B09F051C041E065EC71E081E0EC
:1052E0000E942320C95BDF4F0FB6F894DEBF0FBECC
:1052F000CDBFDF91CF911F910F91FF90EF90DF9085
:10530000CF90BF90AF900895133060F38A818A33B5
:1053100049F76DE370E0CE0103960E94C82F009715
:1053200009F4B8CFFC0111928F01AE014C5B5F4FC5
:10533000BE01695C7F4FCE0103960E946C1EAE01D8
:10534000405C5F4FBE01655D7F4FC8010E946C1ECF
:105350009E012C5B3F4FAE01495C5F4FBE01605C1C
:105360007F4FCE018B960E94251C009719F420E0F8
:1053700040E082CF039631F420E040E061E971E043
:105380008EE3AECF20E040E062EE71E08FE3A8CF85
:10539000133058F18A818A3341F54BE050E060E2E6
:1053A00070E0CE018B960E94C12F1EAABE016D5FD8
:1053B0007F4FFB0101900020E9F7AF0141505109F7
:1053C000461B570B4C30510514F04BE050E0CE011A
:1053D0008B960E94B82FCE018B960E94171D892BA9
:1053E00039F46EE871E080E006C090E080E0F5CF2F
:1053F0006AEA71E089E120E040E072CF0E94FB1789
:105400000E949616892B69F361E071E08AE4F3CF7C
:1054100010928F0510928E0510928D0508959C01B3
:10542000892B79F0E0918F05E43058F481E08E0FFC
:1054300080938F05F0E0EE0FFF1FE057FA4F3183A6
:10544000208308951F93CF93DF9310E080918F0501
:10545000181738F010928E0510928D0590E080E0BC
:1054600018C0C12FD0E0CC0FDD1FC057DA4FE88144
:10547000F9810480F581E02D309779F00995882332
:1054800061F0E881F981F0938E05E0938D058081CC
:105490009181DF91CF911F9108951F5FD7CF8091A8
:1054A0008D0590918E05089510928E0510928D05B0
:1054B0000895CF93DF93FC01DB0110821C92549876
:1054C0005C9A89EC90E04B9B17C04C9B15C025E083
:1054D0002A95F1F70000019709F04AC081E08C930A
:1054E000549A5C9885E48A95F1F7000054985C9A88
:1054F00081E197E24B9930C090E080E029B139B169
:1055000023FB222720F9C22FB0E0DB2FBE01082E9B
:1055100001C0660F0A94EAF72081262B34FB44274A
:1055200040F950E0BC016F5F7F4FDA0102C0AA0F63
:10553000BB1F6A95E2F72A2B2083B5E4BA95F1F7F1
:105540000000029688309105C9F6549A5C9820EACA
:105550002A95F1F781E009C04C9BCECFA5E0AA9532
:10556000F1F70000019731F680E0DF91CF910895C7
:105570004A99A9CFF9CF539A5B988FE391E00197AD
:10558000F1F700C0000008954C9B15C080E012C0E8
:1055900085E08A95F1F700002F5F3F4F233781E0C8
:1055A0003807A1F34C9BF4CF285C310981E02937FF
:1055B000310560F7089530E020E0F4CF662331F044
:1055C000EFE1F3E03197F1F700C0000021E137E2AD
:1055D0004C9B33C030E020E090E0A9014F5F5F4F6B
:1055E000BC0102C0759567954A95E2F7AB01417021
:1055F000BC01022E02C0759567950A94E2F760FF20
:1056000025C053985B9A442321F154985C9A75E421
:105610007A95F1F700002E5F3F4F28303105E9F60B
:1056200053985B9A54985C9A81E197E24C9914C024
:10563000F0EAFA95F1F781E00895F5E0FA95F1F7CF
:1056400000002150310921F680E00895539A5B98BB
:10565000DACF549A5C98DBCFE5E0EA95F1F70000E9
:10566000019721F7F1CF8CE092E00C940F2A809102
:1056700098058111109298050895089530E020E072
:1056800090E0AC01022E02C0559547950A94E2F7CE
:1056900040FF1BC054985C9A45E14A95F1F7000021
:1056A00053985B9A4AE24A95F1F700C0539A5B9887
:1056B0002F5F3F4F2830310521F754985C9A8AE6D6
:1056C0008A95F1F700C081E00895549A5C98E4CF80
:1056D000FC011082DB011C9290E080E061E070E050
:1056E00021E137E207C0B5E0BA95F1F7000021509B
:1056F0003109F1F04B9BF7CF4C9B09C02081AB01E6
:10570000082E01C0440F0A94EAF7242B208321E1DC
:1057100037E24B9906C001968830910509F781E080
:10572000089545E04A95F1F700002150310989F7C5
:1057300080E0089588E192E00C940F2AFC01623029
:1057400050F08081853539F48181803321F481E006
:1057500080939805089580E0089580919A058111BD
:1057600010929A05089580E00895089521E137E2A6
:105770004B993AC0549A5C986AE66A95F1F700C072
:1057800030E020E090E0A9014F5F5F4FBC0102C014
:10579000759567954A95E2F7AB014170BC01022E01
:1057A00002C0759567950A94E2F760FF29C0539887
:1057B0005B9A442341F154985C9A7AE47A95F1F724
:1057C00000C02E5F3F4F28303105E9F654985C9AAF
:1057D00053985B9A81E197E24B9B18C045E84A9544
:1057E000F1F7000081E0089545E04A95F1F70000E7
:1057F0002150310911F480E008954A99B9CFFBCFC7
:10580000539A5B98D6CF549A5C98D7CF25E02A95C7
:10581000F1F70000019701F7EECF84E292E00C94DB
:105820000F2AFC016330A0F080818D3489F48181DE
:105830008D3271F48281873559F4809199058F5F9B
:1058400080939905833030F081E080939A05089524
:1058500080E0089581E008952F923F924F925F92E9
:105860006F927F928F929F92AF92BF92CF92DF9270
:10587000EF92FF920F931F93CF93DF93CDB7DEB7D5
:10588000CC50D2400FB6F894DEBF0FBECDBF5C0146
:105890008B011A01C9016115710509F45BC1FE0193
:1058A000319620E032E0DF01A9011D9241505040C5
:1058B000E1F7D501A60FB71FCB5FDD4FB983A883F2
:1058C000C550D2401597C55FDD4FB983A883CB5033
:1058D000D240CB5FDD4F28813981C550D240245062
:1058E0003109C95FDD4F39832883C750D240A101F8
:1058F000480F591FC75FDD4F59834883C950D240B5
:1059000064307105ECF0D5012D913D914D915C9184
:1059100061EB79E787E39EE90E944B2FCF5FDD4F74
:10592000688379838A839B83C150D240892F9927CA
:10593000AA27BB27880F991FE80FF91F1182108231
:105940004501BFEF8B1A9B0A8101F5017401C95F04
:10595000DD4F28813981C750D2402E153F0508F010
:105960004AC0CB5FDD4FE880F980C550D240EE1AC7
:10597000FF0A1E141F04E4F570E060E0BFE0EB16C0
:10598000F10444F0C7010F976FEF70E00E946F2F92
:105990006F5F7F4F6F5F7F4F6E0D7F1D600F711FB9
:1059A000C75FDD4F28813981C950D240261737079C
:1059B00008F4CEC068013FEFC31AD30A8E2D40E130
:1059C000E416F1040CF08FE08295807FD8018C936F
:1059D000C7010F974FEFBFE0EB16F1040CF056C173
:1059E000A701BF01C6010E94B82F86010E0D1F1D21
:1059F00002191309AFC0D7014D905D906D907C9056
:105A0000A301920161EB79E787E39EE90E944B2FA6
:105A1000CF5FDD4F688379838A839B83C150D240F7
:105A2000892F9927AA27BB27880F991F21E030E0EB
:105A30002C0F3D1F820F931FDC01CD90DC9011973E
:105A4000CA0CDB1C97012A193B092D933C93970143
:105A50002C193D09CF5FDD4F39832883C150D240D7
:105A6000EC14FD0481F0C701821B930B8A159B0582
:105A700050F0D6014D915D916D917C914416550683
:105A80006606770621F0BFEFEB1AFB0A60CFC11460
:105A9000D10409F466CFC701049634E0C30ED11CCB
:105AA0004C01C55FDD4F48815981CB50D2408417EE
:105AB000950740F40196D6012D916D01D4013C91DA
:105AC000321771F36401CE18DF08EE1AFF0A3701AE
:105AD000B0E1EB16F1041CF05FE0652E712CC601FD
