:100000000C9476070C94C21F0C9493070C949307DE
:100010000C9493070C9493070C9493070C949307F8
:100020000C9493070C9493070C94DD0E0C94930797
:100030000C9493070C9493070C9493070C949307D8
:100040000C9493070C9493070C9493070C949307C8
:100050000C9493070C9493070C9493070C949307B8
:100060000C9493070C94930752656164792E0D0AE2
:10007000004D6F756E74206661696C65640D0A00D1
:100080004641543132204F4B0D0A004D6F756E744E
:100090002046415431322E2E2E0D0A004E6F206420
:1000A00069736B20696E2064726976650D0A00447D
:1000B00072697665204F4B0D0A004E6F206472699D
:1000C0007665210D0A00466C6F70707920696E6943
:1000D000742E2E2E0D0A00436F6D7072657373209F
:1000E0004F4B0D0A00466173746C6F6164204F4B77
:1000F0000D0A00494543206465766963652023380D
:100100000D0A0037344843353935204F4B0D0A006E
:100110005352414D204F4B0D0A000D0A3D3D3D20ED
:1001200036346B6F727070752076312E3020284E09
:10013000616E6F2B5352414D29203D3D3D0D0A000C
:100140000D0A0020455252005B4449534B5D207715
:10015000726974652072633D000D0A0020523D00F3
:1001600020533D0020543D005B4449534B5D2077B4
:1001700072697465204C42413D000D0A00204552D1
:1001800052005B4449534B5D207265616420726389
:100190003D000D0A0020523D0020533D0020543DFB
:1001A000005B4449534B5D2072656164204C4241C1
:1001B0003D003031323334353637383941424344EB
:1001C000454600204641494C210D0A00204F4B0D69
:1001D0000A002072656164203078005B5352414D03
:1001E0005D20746573743A2077726F74652030787F
:1001F000005B5352414D5D20696E69742053504934
:100200002E2E2E0D0A00202F4F453D4F4E0D0A0079
:100210005B53525D2064656661756C743D30780097
:100220005B53525D20696E69740D0A005B464C5049
:100230005D207772697465204F4B0D0A005B464C58
:10024000505D204D464D20777269746520464149C6
:100250004C0D0A005B464C505D204D464D20777298
:100260006974652E2E2E0D0A005B464C505D20777A
:10027000726974653A207365656B206661696C65A7
:10028000640D0A005B464C505D20777269746520EE
:100290004552523A2077726974652070726F7465A6
:1002A00063746564210D0A005B464C505D207772D3
:1002B000697465204552523A206261642073656317
:1002C000746F720D0A000D0A0020523D0020533D4C
:1002D000005B464C505D20777269746520543D0088
:1002E0005B464C505D20616C6C203136206174742B
:1002F000656D707473206661696C65640D0A005BDE
:10030000464C505D206465636F6465204641494CEE
:100310002C207265747279696E6720776974682021
:1003200063616C696272617465642074687265737C
:10033000686F6C64730D0A000D0A005B464C505DDB
:100340002072656164204F4B2C20666972737420A3
:1003500062797465733A20002E2E2E0D0A005B46DA
:100360004C505D206465636F646520523D005B46C0
:100370004C505D2063617074757265204641494C34
:100380000D0A0020636170747572652E2E2E0D0AA1
:10039000005B464C505D20617474656D7074200084
:1003A0005B464C505D20726561643A207365656BF5
:1003B000206661696C65640D0A000D0A005B464C9D
:1003C000505D2057503D005B464C505D207265618A
:1003D00064204552523A2062616420736563746FF1
:1003E000720D0A000D0A0020523D0020533D005BB3
:1003F000464C505D207265616420543D000D0A003A
:100400005B464C505D20736964653D000D0A002D0C
:100410003E54005B464C505D207365656B20540074
:100420005B464C505D207365656B3A206E6F74209F
:10043000696E697469616C697A65642C20726563A0
:10044000616C6962726174696E670D0A000D0A0061
:10045000203E3D20005B464C505D207365656B205F
:100460004552523A20747261636B2000202D3E2069
:100470006469736B204E4F542050524553454E547F
:100480000D0A00202D3E206469736B2050524553A5
:10049000454E540D0A00205750543D005B464C50C9
:1004A0005D206469736B20636865636B3A20445315
:1004B0004B4348473D005B464C505D204552523A05
:1004C0002054524B3030206E6F7420666F756E640E
:1004D00020616674657220383520737465707321ED
:1004E0000D0A002073746570730D0A005B464C5052
:1004F0005D2054524B303020666F756E642061660B
:1005000074657220005B464C505D20726563616CBF
:100510006962726174653A207365656B696E672004
:10052000747261636B20302E2E2E0D0A005B464CD8
:10053000505D206D6F746F72204F46460D0A005B50
:10054000464C505D206D6F746F72207370696E2D14
:1005500075702074696D656F757420286E6F202F1B
:100560005244415441290D0A000D0A005B464C508B
:100570005D205741524E494E473A207369676E617C
:100580006C20746F6F20666173742C206E6F6973BA
:10059000653F206176673D0020286578706563744B
:1005A0006564207E313030292E20436865636B20DE
:1005B00031325620737570706C792E0D0A005B46CF
:1005C0004C505D205741524E494E473A206D6F7452
:1005D0006F7220746F6F20736C6F77212061766764
:1005E0003D00207469636B730D0A006D732C2061EC
:1005F000766720696E74657276616C3D005B464C6F
:10060000505D206D6F746F72207265616479206136
:100610006674657220005B464C505D206D6F746F90
:1006200072204F4E2C2077616974696E6720666F67
:10063000722073706565642E2E2E0D0A000D0A005F
:100640005B464C505D20696E697420646F6E652C4A
:100650002053523D3078000D0A002044534B43484C
:10066000473D00205750543D005B464C505D20698B
:100670006E707574733A2054524B30303D005B46B7
:100680004C505D20696E6974204750494F2E2E2EC4
:100690000D0A005B4D464D5D20736563746F7220DB
:1006A0007363616E2074696D656F75740D0A000D5A
:1006B0000A0020617420543D005B4D464D5D20666C
:1006C0006F756E6420736563746F7220002E2E2E1A
:1006D0000D0A005B4D464D5D207363616E20666FB1
:1006E0007220736563746F7220005B4D464D5D2010
:1006F0007772697465204F4B0D0A000D0A00205275
:100700003D0020533D005B4D464D5D20777269747E
:100710006520543D00206E6F7420666F756E640D09
:100720000A005B4D464D5D206465636F646520463D
:1007300041494C3A20736563746F7220005B4D46EB
:100740004D5D206465636F6465204F4B0D0A000D9D
:100750000A0020523D0020533D005B4D464D5D2078
:100760004944414D20543D000D0A002064656C61F0
:10077000793D005B4D464D5D206465636F64652087
:10078000736563746F7220000D0A002073636F72CB
:10079000653D00206F66663D005B4D464D5D206304
:1007A000616C3A2064656C61793D000D0A0020346B
:1007B000455F73636F72653D005B4D464D5D202064
:1007C000206F66663D000D0A002C20616E616C7919
:1007D000746963616C2064656C61793D0020616EB1
:1007E0006420005B4D464D5D2063616C3A2070656E
:1007F000616B7320617420000D0A002033332B3DA0
:10080000002031372D33323D0020392D31363D0067
:1008100020352D383D0020332D343D002064697390
:10082000743A20312D323D000D0A5B4D464D5D205E
:100830006D61782032542072756E3D0020696E76AD
:100840003D002034543D002033543D005B4D464D67
:100850005D2063656C6C733A2032543D000D0A00D4
:10086000202A53594E432A002061667465723A006B
:100870002040005B4D464D5D2032542072756E3D28
:10088000000D0A005B4D464D5D207261773A000D08
:100890000A000D0A5B4D464D5D20686973743A008D
:1008A000206D61783D005B4D464D5D2072616E6745
:1008B000653A206D696E3D005B4D464D5D2063617C
:1008C00070747572652054494D454F5554210D0A79
:1008D000006D730D0A0020696E74657276616C7329
:1008E0002C20005B4D464D5D206361707475726510
:1008F0003A20005B4D464D5D2063617074757265F2
:100900002073746172740D0A000D0A00206D6F640B
:100910003D002077726974653D005B4641545D205F
:10092000636C6F73653A20706F733D000D0A002091
:1009300073697A653D005B4641545D206F70656E5A
:1009400065643A20636C75737465723D005B464163
:10095000545D2066696C65206E6F7420666F756EDD
:10096000640D0A00270D0A005B4641545D206F703C
:10097000656E5F726561642027005B4641545D20AF
:100980006D6F756E74204F4B0D0A000D0A005B46AB
:1009900041545D20464154312072656164204641D6
:1009A000494C20617420736563746F72200020735A
:1009B0006563746F7273292E2E2E0D0A005B4641FB
:1009C000545D2072656164696E6720464154312030
:1009D00028005B4641545D206E6F20626F6F74206B
:1009E0007369672C2064656661756C74206C616244
:1009F000656C0D0A000D0A00272073657269616C31
:100A00003D3078005B4641545D206C6162656C3D11
:100A100027005B4641545D204552523A2073706373
:100A20003D3D300D0A005B4641545D204552523A2F
:100A3000206E666174213D320D0A005B4641545DB3
:100A4000204552523A20627073213D3531320D0AF1
:100A5000000D0A00207369673D30780020726F6FC7
:100A6000743D002068656164733D00207370743DBF
:100A7000005B4641545D204250423A207370663D0F
:100A8000000D0A00206D656469613D3078002074B6
:100A90006F743D00206E6661743D00207370633D8D
:100AA000005B4641545D204250423A206270733DE3
:100AB000005B4641545D206D6F756E743A20626F25
:100AC0006F7420736563746F722072656164204671
:100AD00041494C0D0A005B4641545D206D6F756EB7
:100AE000743A2072656164696E6720626F6F74206A
:100AF000736563746F722E2E2E0D0A005B4641548F
:100B00005D20616C7265616479206D6F756E7465CE
:100B1000640D0A005B4945435D206C697374656E22
:100B200020454F490D0A00270D0A005B4945435DEA
:100B30002066696C656E616D653D27005B494543C4
:100B40005D206C697374656E2072656376206661E2
:100B5000696C0D0A005B4945435D2041544E206499
:100B60007572696E67206C697374656E0D0A000D8D
:100B70000A005B4945435D206C697374656E696E5C
:100B80006720666F7220646174612053413D005B91
:100B90004945435D20666173746C6F6164206163D5
:100BA000746976650D0A005B4945435D2041544EEA
:100BB0002072656C65617365642C2064657465637F
:100BC0007420666173746C6F61640D0A00203F3F8E
:100BD0000D0A000D0A0020434C4F53452053413D60
:100BE000000D0A00204F50454E2053413D005B4907
:100BF00045435D202D3E2054414C4B45520D0A008B
:100C00000D0A002054414C4B2023005B4945435DB5
:100C1000202D3E204C495354454E45520D0A000D9F
:100C20000A00204C495354454E20230020554E5471
:100C3000414C4B0D0A0020554E4C495354454E0D26
:100C40000A005B4945435D20636D643D3078005B7D
:100C50004945435D2041544E206279746520726598
:100C60006376206661696C0D0A005B4945435D202F
:100C700041544E0D0A005B4945435D2074616C6B25
:100C80003A206E6F20646174612C2072656C65611E
:100C900073650D0A005B4945435D2074616C6B3AD6
:100CA00020454F492C20646F6E650D0A005B494555
:100CB000435D2074616C6B3A2073656E64206661DD
:100CC000696C65640D0A005B4945435D2072656986
:100CD0006E697420646F6E652C2072656164790D95
:100CE0000A005B4945435D206D6F756E7420666137
:100CF000696C65640D0A005B4945435D20464154BB
:100D00003132204F4B0D0A005B4945435D206D6F2A
:100D1000756E742046415431322E2E2E0D0A005B22
:100D20004945435D206E6F206469736B20696E20B6
:100D300064726976650D0A005B4945435D20647203
:100D4000697665204F4B0D0A005B4945435D206E77
:100D50006F206472697665210D0A005B4945435D29
:100D60002072657365742072656C65617365642CAF
:100D7000207265696E697420666C6F7070790D0AF7
:100D8000005B4945435D202A2A2A204255532052C0
:100D900045534554202A2A2A0D0A005B4945435DE4
:100DA00020706F6C6C3A2041544E20647572696EED
:100DB0006720776169740D0A000D0A0020525354B0
:100DC0003D0020444154413D0020434C4B3D005BDD
:100DD0004945435D206275733A2041544E3D000DF4
:100DE0000A005B4945435D20696E6974206465763D
:100DF000202300270D0A005B444F535D20636D6480
:100E00003A2027000D0A005B444F535D20636C6F4E
:100E100073652053413D005B444F535D206F706507
:100E20006E204F4B0D0A000D0A005B444F535D20AE
:100E30005341564520637265617465206661696C33
:100E400065642072633D005B444F535D20534156FF
:100E5000450D0A000D0A005B444F535D204C4F4185
:100E600044206661696C65642072633D005B444F99
:100E7000535D204C4F41440D0A00270D0A00272ED8
:100E800027005B444F535D207061727365643A20A4
:100E900027000D0A005B444F535D20646972206C8B
:100EA000656E3D005B444F535D20646972206C6940
:100EB0007374696E670D0A005B444F535D204452A2
:100EC000495645204E4F542052454144590D0A0081
:100ED000270D0A002066696C653D27005B444F536F
:100EE0005D206F70656E2053413D000011241FBED0
:100EF000CFEFD8E0DEBFCDBF12E0A0E0B1E0E6E288
:100F0000F7E602C005900D92A033B107D9F725E0AE
:100F1000A0E3B2E001C01D92AD39B207E1F70E9433
:100F200003090C948A330C9400001092C5008FECD6
:100F30008093C400E0ECF0E080818260808388E0F0
:100F40008093C10086E08093C20008959091C00014
:100F500095FFFCCF8093C6000895CF93DF93EC01FB
:100F60008991811103C0DF91CF9108950E94A60756
:100F7000F7CFCF93DF93EC01FE018491219681118D
:100F800003C0DF91CF9108950E94A607F5CFCF93BC
:100F9000C82FE82FE295EF70F0E0EE54FE4F8491F9
:100FA0000E94A607CF70EC2FF0E0EE54FE4F849124
:100FB000CF910C94A607CF93C82F892F0E94C70703
:100FC0008C2FCF910C94C707CF92DF92EF92FF92B4
:100FD0000F931F93CF93DF9300D000D000D0CDB7F5
:100FE000DEB79C01892B89F480E326960FB6F8942E
:100FF000DEBF0FBECDBFDF91CF911F910F91FF904C
:10100000EF90DF90CF900C94A607CE0101967C0163
:10101000FC0110E000E08AE0C82ED12C0F5F1F4FCA
:10102000C901B6010E942F30805D8193C9019B01E7
:101030000A97A0F70E0D1F1DF80182918F010E94E3
:10104000A6070E151F05C1F726960FB6F894DEBF4A
:101050000FBECDBFDF91CF911F910F91FF90EF9009
:10106000DF90CF900895BF92CF92DF92EF92FF92E0
:101070000F931F93CF93DF93182FD92FF62E072F9F
:1010800064E270E00E942F306B0162E170E00E9428
:101090002F30E62EB72EC1E0C80F81EA91E00E9402
:1010A000B907812F9D2F0E94E4078DE991E00E94EE
:1010B000B907C60199270E94E40789E991E00E94D7
:1010C000B9078E2D9B2D0E94E40785E991E00E94CF
:1010D000B9078C2F90E00E94E40782E991E00E941A
:1010E000B9072F2D302F4C2F6E2D8C2D0E94CA0C3E
:1010F000EC0182E891E00E94B907CE01D7FF04C05D
:10110000882799278C1B9D0B0E94E407D7FF04C0FA
:101110008DE791E00E94B9078AE791E00E94B90744
:10112000CE01DF91CF911F910F91FF90EF90DF9053
:10113000CF90BF900895BF92CF92DF92EF92FF922F
:101140000F931F93CF93DF93182FD92FF62E072FCE
:1011500064E270E00E942F306B0162E170E00E9457
:101160002F30E62EB72EC1E0C80F88E691E00E942E
:10117000B907812F9D2F0E94E40784E691E00E9429
:10118000B907C60199270E94E40780E691E00E9412
:10119000B9078E2D9B2D0E94E4078CE591E00E94FB
:1011A000B9078C2F90E00E94E40789E591E00E9446
:1011B000B9072F2D302F4C2F6E2D8C2D0E94890DAD
:1011C000EC0188E491E00E94B907CE01D7FF04C08A
:1011D000882799278C1B9D0B0E94E407D7FF04C02A
:1011E00083E491E00E94B90780E491E00E94B9078E
:1011F000CE01DF91CF911F910F91FF90EF90DF9083
:10120000CF90BF900895F894569A5E980E949507E3
:101210008AE191E00E94B9070E94DE2F0E94210A14
:1012200080E191E00E94B9070E94950A83E091E075
:101230000E94B9070E94B90E83EF90E00E94B9079F
:1012400088E00E941E210E942F240E94DC2A0E9416
:10125000072C0E946E2C0E94E12C85EE90E00E94EB
:10126000B9070E94242F87ED90E00E94B907789477
:101270000E94E60A86EC90E00E94B9070E94300BBB
:101280000E94D70B892B81F08AEB90E00E94B9076E
:1012900020E040E061E071E08AE40E94F72085E010
:1012A00090E00E94E42F22C08FEA90E00E94B907EC
:1012B0000E94110C81110EC08CE990E00E94B907C8
:1012C00020E040E061E071E08AE40E94F72086E0DF
:1012D00090E0E7CF8BE890E00E94B9070E946A1780
:1012E000892B89F480E890E00E94B9070E94C90B1D
:1012F00088E690E00E94B90790E080E00E94E42F29
:101300000E949F21FDCF81E790E0D8CF8EBD0DB424
:1013100007FEFDCF8EB50895CF93C62F872F0E946D
:1013200086098C2FCF910C948609CF92DF92EF9291
:10133000FF920F931F93CF93DF936B01D82FC92F89
:101340007A0189012A9883E00E948609B6018D2FCF
:101350009C2F0E948C09E7010E0D1F1DC017D1079D
:1013600051F42A9ADF91CF911F910F91FF90EF9046
:10137000DF90CF90089580E00E9486098993EECF98
:10138000CF92DF92EF92FF920F931F93CF93DF9351
:101390006B01D82FC92F7A0189012A9882E00E9417
:1013A0008609B6018D2F9C2F0E948C09E7010E0D36
:1013B0001F1DC017D10751F42A9ADF91CF911F91B9
:1013C0000F91FF90EF90DF90CF90089589910E9448
:1013D0008609EFCF0F931F93CF93DF938B01D82F05
:1013E000C92F2A9883E00E948609B8018D2F9C2F6F
:1013F0000E948C0980E00E9486092A9ADF91CF9191
:101400001F910F910895FF920F931F93CF93DF9336
:10141000F62E072F182FD92FC42F2A9882E00E946A
:1014200086096F2D702F812F9D2F0E948C098C2F84
:101430000E9486092A9ADF91CF911F910F91FF9008
:101440000895CF9381EF91E00E94B90784B18C6237
:1014500084B924982A9A80E58CBD8DB581608DBDB4
:101460002A9881E00E94860980E40E9486092A9ACF
:1014700045EA60E070E0CB010E94030A60E070E0A2
:10148000CB010E94EA09C82F8BED91E00E94B907B9
:1014900085EA0E94C70782ED91E00E94B9078C2F70
:1014A0000E94C7078CEC91E0C53A11F083EC91E003
:1014B000CF910C94B9070F931F93CF93DF938B01B8
:1014C000D82FC92F2A9882E00E948609B8018D2F53
:1014D0009C2FDF91CF911F910F910C948C092A9A28
:1014E00008950F931F93CF93DF938B01D82FC92FAC
:1014F0002A9883E00E948609B8018D2F9C2FDF91E6
:10150000CF911F910F910C948C091EBC0DB407FE56
:10151000FDCF8EB508952A9A809300018EBD0DB43B
:1015200007FEFDCF5E9A5E98089580E292E00E94E9
:10153000B907569A5E988FEF809300010E948B0A3C
:101540003B9A439880E192E00E94B90780910001A4
:101550000E94C70786E092E00C94B90721E030E0D2
:1015600001C0220F8A95EAF720958091000182231D
:10157000809300010C948B0A21E030E001C0220F1F
:101580008A95EAF780910001822B809300010C94E8
:101590008B0A8823B9F085E00E94AE0A85E38A951C
:1015A000F1F7000086E00E94AE0A90E19A95F1F70B
:1015B00086E00E94BC0A8FED9EE20197F1F700C021
:1015C0000000089585E00E94BC0AE8CFCF938EE723
:1015D00096E00E94B90787B1887F87B988B1876094
:1015E00088B92098579A5F9A219A85EF0E948B0AB2
:1015F000C6B189E696E00E94B9078CE4C0FD88E494
:101600000E94A60783E696E00E94B9078CE4C1FD1C
:1016100088E40E94A6078AE596E00E94B9078CE458
:10162000C2FD88E40E94A60787E596E00E94B907FC
:101630001092300210923102109232021092330254
:10164000109234021092350280E496E00E94B907AD
:1016500085EF0E94C7078DE396E0CF910C94B90700
:10166000CF92DF92EF92FF920F931F93CF93DF936E
:1016700080913202811169C086E196E00E94B9072B
:1016800082E00E94AE0A84E00E94AE0A299A20916C
:10169000860030918700D0E0C0E090E0C12CD12CD2
:1016A000760160E2EFE9FFE03197F1F700C000005A
:1016B000B59B54C04091860050918700FA01E21B0F
:1016C000F30B9F0166BBB897EE30F14008F048C0BD
:1016D000C20ED31EE11CF11C9F5F81E0903108F423
:1016E00080E09A012196C83EE3E0DE0709F43FC09E
:1016F0008823C1F284E0F694E794D794C7948A953E
:10170000D1F786018DEF95E00E94B907CE010E94C6
:10171000E4078BEE95E00E94B907C6010E94E4073A
:1017200082EE95E00E94B9070B3A110528F18EEB85
:1017300095E00E94B907C6010E94E40788E995E098
:101740000E94B90781E080933202DF91CF911F910F
:101750000F91FF90EF90DF90CF90089580E0C2CF7F
:1017600080E09A01C12CD12C760190E0BBCF811191
:10177000C1CF8FE395E0E4CF0233110518F78CE673
:1017800095E00E94B907C6010E94E40789E695E04A
:10179000D7CF8DE295E00E94B90782E00E94BC0A93
:1017A00084E00E94BC0A10923202299808951F9387
:1017B000CF93DF9385E095E00E94B907D0E0C0E0C9
:1017C000309921C01092300281E0809335021FE0F1
:1017D0008FE99FE00197F1F700C000000E94E42329
:1017E0001150B1F78CEE94E00E94B907CE010E942F
:1017F000E40783EE94E00E94B90790E080E0DF9177
:10180000CF911F91089580E00E94C90A2196C535A5
:10181000D105B1F686EB94E00E94B9078FEF9FEFF8
:10182000EECFCF93DF9386B1D82FD47082FBCC2735
:10183000C0F9C093330286B18695817091E0892703
:10184000809334028CE994E00E94B9078CE4D111B2
:1018500088E40E94A60786E994E00E94B907809177
:10186000340281110FC08EE40E94A60783E894E041
:10187000D11102C08CE694E00E94B9078C2FDF9151
:10188000CF91089589E5F0CFCF93C82F8035C0F070
:1018900085E594E00E94B9078C2F90E00E94E40750
:1018A00080E594E00E94B90780E590E00E94E4079B
:1018B0008DE494E00E94B9078EEF9FEFCF910895D9
:1018C00080913502882359F1809130028C17A9F05C
:1018D00083E194E00E94B9078091300290E00E9479
:1018E000E4078FE094E00E94B9078C2F90E00E94FB
:1018F000E4078CE094E00E94B90780913002C8139D
:1019000017C0CFE08FE99FE00197F1F700C000001A
:101910000E94E423C150B1F790E080E0CFCF80E295
:1019200094E00E94B9070E94D70B009769F2C6CFD6
:101930008C1748F481E00E94C90A809130028F5FC1
:1019400080933002DACF80E00E94C90A8091300291
:101950008150F6CFCF93C82F80E094E00E94B90762
:101960008C2F90E00E94E4078DEF93E00E94B9076E
:1019700080E0CC2361F00E94AE0AC09331028FE870
:1019800091E00197F1F700C00000CF9108950E9407
:10199000BC0AF3CFAF92BF92CF92DF92FF920F9328
:1019A0001F93CF93DF93C82FB62EF42E89018FEEAD
:1019B00093E00E94B9078C2F90E00E94E4078BEE21
:1019C00093E00E94B9078B2D90E00E94E40787EE18
:1019D00093E00E94B907CF2CD12CC6010E94E407E6
:1019E00084EE93E00E94B9078FEF8F0D823188F06B
:1019F00087EC93E00E94B907C8EFDFEFCE01DF91DB
:101A0000CF911F910F91FF90DF90CF90BF90AF903B
:101A100008950E94300B96B19695917081E09827B9
:101A2000909334028DEB93E00E94B90780913402C9
:101A3000811136C08EE40E94A6078AEB93E00E94D3
:101A4000B9078C2F0E94440CEC0180EA93E02097A8
:101A500009F059C08B2D0E94AA0CB12CA12C81E950
:101A600093E00E94B907C5010E94E40783E893E070
:101A70000E94B9070E942D0F892BA1F08EE693E0FA
:101A80000E94B907FFEFAF1ABF0A80E1A816B104A0
:101A900031F780EE92E00E94B907CDEFDFEFAECFD5
:101AA00089E5C9CF8EE593E00E94B907C6010E947F
:101AB000E40788E593E00E94B907B8018F2D0E94E2
:101AC000F912EC01892B11F58BE393E00E94B90721
:101AD000F80180810E94C70780E20E94A607F801F2
:101AE00081810E94C70780E20E94A607F8018281D7
:101AF0000E94C70780E20E94A607F80183810E9426
:101B0000C70788E393E00E94B90778CF8FEF92E090
:101B1000B7CFBF92CF92DF92EF92FF920F931F93B6
:101B2000CF93DF9300D000D000D0CDB7DEB7D82E52
:101B3000E62EF42EB22EC32E81ED92E00E94B9075C
:101B40008D2D90E00E94E4078DEC92E00E94B90791
:101B50008E2D90E00E94E40789EC92E00E94B90784
:101B60008F2D90E00E94E40786EC92E00E94B90776
:101B70008FEF8F0D8231B8F088EA92E00E94B907AA
:101B800008EF1FEFC80126960FB6F894DEBF0FBE10
:101B9000CDBFDF91CF911F910F91FF90EF90DF901C
:101BA000CF90BF9008950E94300B319907C084E810
:101BB00092E00E94B9070BEF1FEFE4CF8D2D0E943A
:101BC000440C8C0189E692E00115110509F58E2D72
:101BD0000E94AA0C1E821D82D982EA82FB8282E0C8
:101BE0008C8384E592E00E94B9076B2D7C2DCE0199
:101BF00001960E9478148C018CE292E00115110587
:101C000039F08DE392E00E94B9070CEF1FEFBACFD5
:101C10000E94B907B7CFB19BFECF82E086BB80910F
:101C20008800909189008096909389008093880025
:101C3000089580E286BB81E593ECB59B29C0809135
:101C40008600909187002091430230914402821BCC
:101C5000930B2091860030918700309344022093AB
:101C6000430220913A0230913B0282179307A0F081
:101C700020913802309139028217930778F0209131
:101C80003602309137028217930720F482E00895DC
:101C9000019799F683E0089580E0089581E0089522
:101CA0005F9800C000C000005F9A08950F931F93D3
:101CB000CF93DF93CFE0D0E001E010E00E940B0E65
:101CC000C8010C2E02C0880F991F0A94E2F7897888
:101CD0009474892B11F00E94500E219778F781E0BF
:101CE00080933C02DF91CF911F910F910895EF9265
:101CF000FF920F931F93CF93DF9307E010E0E82E3E
:101D0000F12CE701002E02C0D595C7950A94E2F7A1
:101D1000C1700E940B0E80913C028C2B11F40E942A
:101D2000500E0E940B0EC1110E94500EC0933C0237
:101D30000150110930F7DF91CF911F910F91FF9062
:101D4000EF900895FC01680F791FCA01E617F707A5
:101D500009F408952191922728E0AC01880F991F7A
:101D600057FF04C031E2832730E193272150A9F7C0
:101D7000EDCF10928000E1E8F0E081E08083808187
:101D80008F7B8083EFE6F0E080818F7D80838EE61D
:101D900090E090933B0280933A028EE890E090931B
:101DA0003902809338028EEB90E090933702809353
:101DB00036028EE180933D0208950F920FB60F9286
:101DC0001F9211242F933F938F939F93AF93BF93B1
:101DD00080918600909187002091430230914402C7
:101DE0009093440280934302821B930B8EBD0DB4EB
:101DF00007FEFDCF80913F0290914002A0914102E9
:101E0000B09142020196A11DB11D80933F029093B3
:101E10004002A0934102B093420280913F02909110
:101E20004002A0914102B09142028035934CA1053D
:101E3000B10540F080916F008F7D80936F0081E04D
:101E400080933E02BF91AF919F918F913F912F91CF
:101E50001F900F900FBE0F9018952F923F924F92A8
:101E60005F926F927F928F929F92AF92BF92CF922A
:101E7000DF92EF92FF920F931F93CF93DF93CDB733
:101E8000DEB7AF970FB6F894DEBF0FBECDBF83EFBE
:101E900098E00E94B90710923F02109240021092FF
:101EA00041021092420210923E0260E070E0CB01CB
:101EB0000E945B0AB59A809186009091870090936A
:101EC00044028093430280916F00806280936F0090
:101ED000789410E000E080913E02811105C0043F3B
:101EE00091E0190709F042C080916F008F7D8093C7
:101EF0006F000E946F0A83EE98E00E94B9078091FC
:101F00003F0290914002A0914102B09142020E9492
:101F1000E40786ED98E00E94B907C8010E94E40733
:101F200081ED98E00E94B907043F114041F588EB2C
:101F300098E00E94B90787EF9FEFAF960FB6F8942D
:101F4000DEBF0FBECDBFDF91CF911F910F91FF90EC
:101F5000EF90DF90CF90BF90AF909F908F907F9049
:101F60006F905F904F903F902F9008958FE99FE082
:101F70000197F1F700C000000F5F1F4FACCF8E013B
:101F80000F5F1F4F84E1F80111928A95E9F7809164
:101F90003F0290914002A0914102B0914202853FE0
:101FA0009140A105B10508F0E6C180913F029091F2
:101FB0004002A0914102B09142027C0160E070E0D9
:101FC000CB010E94710AD12CC12CB12CAA24AA9455
:101FD000CE14DF0409F0D4C10E946F0A86EA98E0AB
:101FE0000E94B9078A2D90E00E94E40780EA98E0F9
:101FF0000E94B9078B2D90E00E94E40782E998E0E7
:102000000E94B9075801780100E310E0F701C19080
:10201000D1907F01C114D10499F080E20E94A607FB
:10202000C8010E94E4078DE20E94A607C8010F962E
:102030000E94E4078DE30E94A607C6010E94E40700
:10204000005F1F4F003D110509F78FE898E00E94DF
:10205000B90760E070E0CB010E94710A80913F02F5
:1020600090914002A0914102B091420210E481346B
:102070009105A105B10548F480913F02909140027D
:10208000A0914102B0914202182F84E898E00E948A
:10209000B90700E0011395C10E946F0A81E898E03A
:1020A0000E94B907E12CC12C70E060E050E040E0F4
:1020B00080E0F501219131915F014217530708F447
:1020C00089C16217730710F4B901E82E8F5F8A3057
:1020D00081F7EC1418F48C2DCE2CE82EC29450EF1E
:1020E000C522F8E3CF0EE29460EFE622EF0ED12C8A
:1020F000F12CC701805691098601005411098017FF
:1021000091070CF48C010850110917FF02C010E070
:1021100000E00A8F83EE97E00E94B907C6010E9493
:10212000E4078DED97E00E94B907C7010E94E4071C
:1021300089EC97E00E94B907C8010E94E40786EC89
:1021400097E00E94B907B12CA12C21E0288F912C97
:10215000812CAC8E60E070E0CB010E94710A38EEF9
:10216000632E33E0732ED12CC12C3FEF3D8BF12C2D
:10217000E12C1E8A212C312C21010E94850A90E03D
:10218000801B910B4096803291050CF42CC125E008
:10219000959587952A95E1F7853090F4082E04C02F
:1021A000220C331C441C551C0A94D2F7689420F866
:1021B0004E89840F282F223008F017C181708E8B32
:1021C000E1E06E1A7108C9F60E946F0A89EB97E088
:1021D0000E94B907C5010E94E4078EEA97E00E94B9
:1021E000B907C7010E94E4078BEA97E00E94B9078C
:1021F0008E149F0418F4FC8DF88F4701AA94AB2825
:1022000009F0EDC03A8D30933D0289E997E00E94D4
:10221000B907C8010E94E40783E997E00E94B90763
:10222000488D842F90E00E94E4078BE897E00E949D
:10223000B907C4010E94E40788E897E00E94B90743
:1022400060E070E0CB010E94710A80913D02312C68
:10225000212C1EA21DA21CA21BA2198E188E18A62C
:102260001FA21F8A1E8AF12CE12C10E000E019A2A7
:1022700018A2D12CC12C1F8E1E8E1D8E1C8E812C5F
:10228000912C54011D8A412C512C32011AA2682F25
:1022900070E07BA76AA780913F0290914002A091D5
:1022A0004102B091420288169906AA06BB0608F4BC
:1022B000C8C00E151F0508F487010E946F0A8CE440
:1022C00098E00E94B9078C8D9D8D0E94E40787E4F9
:1022D00098E00E94B9078E8D9F8D0E94E40782E4EA
:1022E00098E00E94B907C6010E94E4078CE398E0D9
:1022F0000E94B90788A199A10E94E40788E298E0AA
:102300000E94B907C8010E94E4078CE198E00E948E
:10231000B9078E899F890E94E40786E198E00E94B0
:10232000B9078FA198A50E94E40780E198E00E9478
:10233000B907888D998D0E94E40789E098E00E9492
:10234000B9078BA19CA10E94E40781E098E00E945C
:10235000B9078DA19EA10E94E4078BEF97E00E9430
:10236000B907C1010E94E40788EF97E00E94B9070E
:1023700090E080E0E2CDB4EFEB2EFF24F3941ECE8C
:102380000E94850AE82F8A1508F4A82EBE1608F4C4
:10239000BE2E80ED8E0F803A80F4E053FF0B74E088
:1023A000F595E7957A95E1F7EE0FFF1FE00FF11F26
:1023B000808191810196918380832FEFC21AD20A86
:1023C00007CE80E20E94A6070E94850A0E94C707E6
:1023D0000F5F60CEBA01A901EC2CC82E77CEAA24DB
:1023E000A394B12CB6CE82E0D9CE2250F501E20FF3
:1023F000F11DB201A10104C07695679557954795E7
:10240000EA95D2F74CA75DA76EA77FA74CA54170B0
:10241000CC0C4C29D39457E05D1578F44E3431F44C
:102420006D896E3431F07AE0E70EF11CD12CC12CAD
:1024300006C099E1E90EF11CF9CFC42E4D894D8BF0
:10244000BACE0E94850A89A790E0EAA5FBA58E1B5B
:102450009F0B4096803291050CF464C09C0185E08E
:10246000359527958A95E1F73B8F2A8F8A8D8530A0
:1024700008F456C048A159A14F5F5F4F59A348A324
:102480000115110569F0E016F10608F47801033032
:10249000110508F061C0EE89FF893196FF8BEE8B44
:1024A0008D898150803108F0A1C080E20E94A6078A
:1024B00089A50E94C70788E20E94A6078A8D805DD1
:1024C0000E94A60789E20E94A607D301C2010A8CD6
:1024D00004C0880F991FAA1FBB1F0A94D2F72C01B2
:1024E0003D01689440F8AA27BB278160893894444D
:1024F000A105B10521F480E698E00E94B9073D8965
:102500003F5F3D8B313109F071C08DE598E00E944D
:10251000B9074AA14F5F4AA310E000E01D8A0AC034
:10252000823071F46C8D7D8D6F5F7F4F7D8F6C8FEE
:102530000F5F1F4F5FEF851A950AA50AB50AABCE4C
:10254000833031F48E8D9F8D01969F8F8E8F98CF23
:102550009FEFC91AD90A94CF0530110538F42FA17D
:1025600038A52F5F3F4F38A72FA39ACF0930110509
:1025700038F4488D598D4F5F5F4F598F488F90CFFA
:102580000131110530F56BA17CA16F5F7F4F7CA3FA
:102590006BA30031110509F083CFEAA1E43008F004
:1025A0007FCF83E798E00E94B907C8010E94E40743
:1025B00080E798E00E94B907C4010E94E40788E61A
:1025C00098E00E94B907F1E0FD8B412C512C3201BB
:1025D00067CF0132110530F48DA19EA101969EA313
:1025E0008DA3DBCF9FEF291A390AD7CF10E000E087
:1025F000A1CF2F923F924F925F926F927F928F92D4
:102600009F92AF92BF92CF92DF92EF92FF920F9381
:102610001F93CF93DF93CDB7DEB72D970FB6F89406
:10262000DEBF0FBECDBF8D876E837F8383E797E0CC
:102630000E94B9073D85232F30E03B872A87C901D7
:102640000E94E4078BE697E00E94B90780913D0263
:1026500090E00E94E40788E697E00E94B907809125
:102660003D02888760E070E0CB010E94710A812CF6
:10267000912C5401312C212C1D8210E0D12C00E032
:10268000F12CE12C1C86C12C412C512C32013885B7
:10269000232F30E03987288780913F0290914002B4
:1026A000A0914102B091420288169906AA06BB0683
:1026B00088F00E946F0A82E297E00E94B9078A853B
:1026C0009B850E94E40785E197E00E94B90788EFA7
:1026D0009FEFE1C00E94850A90E028853985821B22
:1026E000930B409680329105A4F045E0959587952F
:1026F0004A95E1F7853070F000E0E114F10421F033
:1027000010E000E0F12CE12CC12C412C512C3201C5
:102710002AC082E0B301A201082E04C0440F551F55
:10272000661F771F0A94D2F72A013B01689440F88C
:10273000C80E3EE13C1510F43EE1C32EE114F10455
:1027400009F0D4C0662777274160493854446105B1
:10275000710579F40F5F033030F010E0D12CEE24D6
:10276000E394F12CC12C8FEF881A980AA80AB80AB2
:1027700093CF0330C0F700E0F6CFCA94CA94D301D8
:10278000C2010C2C04C0B695A795979587950A941D
:10279000D2F78170DD0CD82A1F5F183008F49AC078
:1027A00091E0E916F104C1F42C8521110AC03EEF35
:1027B000D31609F489C0ED8310E000E0F12CE12C80
:1027C000D2CF8BEFD812F7CF312C212C10E0D12CA7
:1027D00083E0E82EF12C7EC092E0E916F10409F0C6
:1027E00043C021E02E0F2D8381E090E08C0F9D1FD0
:1027F0008E0F911DFC01D082243008F471C0098134
:102800000035D0F6FA8091E09F15B0F21B818FEF72
:10281000810F823188F68C81823071F68AE597E0EB
:102820000E94B907802F90E00E94E40786E597E0B8
:102830000E94B9078F2D90E00E94E40782E597E09F
:102840000E94B907812F90E00E94E4078FE497E08F
:102850000E94B9072D852113AFCF10E000E0F12CC5
:10286000E12C31E03C877FCF83E0E816F104C9F525
:10287000C1010196AE81BF81A20DB31DDC9281150D
:1028800022E0920788F18DE397E00E94B9070E9449
:102890006F0A90E080E02D960FB6F894DEBF0FBE71
:1028A000CDBFDF91CF911F910F91FF90EF90DF90FF
:1028B000CF90BF90AF909F908F907F906F905F90E0
:1028C0004F903F902F900895E0E010E0D12C92E0DF
:1028D000E92EF12C31E03C1508F44FCFED8343CFC6
:1028E000ED8110E0D12CF6CF1C01FBCFED81F2CFB2
:1028F0002F923F924F925F926F927F928F929F9210
:10290000AF92BF92CF92DF92EF92FF920F931F93FD
:10291000CF93DF93CDB7DEB728970FB6F894DEBF1D
:102920000FBECDBF8C016F83788786E097E00E9451
:10293000B907F801808190E00E94E40782E097E007
:102940000E94B907F801818190E00E94E4078EEFB0
:1029500096E00E94B907F801828190E00E94E407A6
:102960008BEF96E00E94B907F801228083ED96E094
:102970000E94B907822C912CC4010E94E4078DECBF
:1029800096E00E94B907809186009091870090930D
:10299000440280934302F0E84F2EF8E35F2E662452
:1029A0006394712C10E0C12CD12C7601FC2FFB5FBD
:1029B000FE830E94190E8130E1F1823009F441C09A
:1029C00081114EC1E2E0CC0CDD1CEE1CFF1CEA952F
:1029D000D1F76894C0F8D701C601AA27BB27893868
:1029E0009444A105B10509F03FC11F5F133008F4FD
:1029F0003BC100E0B12C10E00E94190E813049F17A
:102A0000823091F1811113C052E0CC0CDD1CEE1C20
:102A1000FF1C5A95D1F76894C0F81E5F8FE08B15A4
:102A200070F5FE0131965F010E3F09F487C010E09A
:102A30001BC173E0CC0CDD1CEE1CFF1C7A95D1F79A
:102A4000C8CF64E0CC0CDD1CEE1CFF1C6A95D1F7EE
:102A5000C0CF43E0CC0CDD1CEE1CFF1C4A95D1F727
:102A60006894C0F81D5FDACF34E0CC0CDD1CEE1C9E
:102A7000FF1C3A95D1F76894C0F81C5FCFCF125075
:102A8000000FD701C601012E04C0B695A7959795F2
:102A900087950A94D2F78170082BB394B3941230BF
:102AA00008F0BCCF9FE09B1508F0A6CFBACF93E00B
:102AB000CC0CDD1CEE1CFF1C9A95D1F76894C0F875
:102AC0001D5F31C084E0CC0CDD1CEE1CFF1C8A9520
:102AD000D1F76894C0F81C5F26C01250000FD701D0
:102AE000C601012E04C0B695A795979587950A94BF
:102AF000D2F78170082B3394339415C02FE023153F
:102B0000B8F00E94190E813091F28230D9F2811111
:102B10008ECF22E0CC0CDD1CEE1CFF1C2A95D1F7D9
:102B20006894C0F81E5F123048F3FFE0F315A8F672
:102B3000F50101935F01FE81FA1519F000E0312CD7
:102B4000E0CF8B81281273CF89EB96E00E94B90702
:102B5000C4010E94E40782EB96E00E94B9078981D4
:102B600090E00E94E4078FEA96E00E94B9078FEF99
:102B70009BE00197F1F700C0000087E00E94AE0AD9
:102B8000F89410923C028091840090918500809688
:102B9000909389008093880082E086BB1CE080E0EF
:102BA0000E94770E1150D9F70E94560E0E94560EC1
:102BB0000E94560E8BEF0E94770E81EA8D834FEFB5
:102BC0005FEF61E070E0CE0105960E94A20EAC01BD
:102BD00061E070E0CE0105960E94A20EAC0161E0BA
:102BE00070E0CE0105960E94A20EAC018BEF8983A6
:102BF00061E070E0CE0101960E94A20E182F092F0D
:102C0000EF80F8846701EEEFDE1A5701FFEFEF1A4D
:102C1000FF0AF50180810E94770E412F502F61E05D
:102C200070E0C5010E94A20E182F092FEC14FD04BC
:102C300061F7892F0E94770E812F0E94770E16E38D
:102C40008EE40E94770E1150D9F7789487E00E94A5
:102C5000BC0A8AEE96E00E94B90790E080E011C0BD
:102C600010E0C12CD12C760191E0491A510861087D
:102C7000710809F09ECE83E996E00E94B90787EFBC
:102C80009FEF28960FB6F894DEBF0FBECDBFDF9141
:102C9000CF911F910F91FF90EF90DF90CF90BF9059
:102CA000AF909F908F907F906F905F904F903F90EC
:102CB0002F9008950F931F93CF93DF9300D000D0F0
:102CC00000D0CDB7DEB78C0180914504882391F107
:102CD000C80196958795800F911FB0E0A0E09C01F8
:102CE000AD0120533F4C4F4F5F4F2B833C834D83AF
:102CF0005E8322E030E0AE014F5F5F4F6B817C81ED
:102D00008D819E810E94950989819A8100FF10C062
:102D100024E0969587952A95E1F726960FB6F894C4
:102D2000DEBF0FBECDBFDF91CF911F910F910895F0
:102D30009F70F3CF90E080E0F0CFCF93DF93C2E0BD
:102D4000D0E0CE010E945A16892B21F4CE01DF91EA
:102D5000CF9108952196C1328BE0D80791F78FEF7C
:102D60009FEFF5CFEF92FF920F931F93CF93DF93D7
:102D700000D000D000D0CDB7DEB77C018B018091B0
:102D800045048823C9F1C701969587958E0D9F1D2F
:102D9000B0E0A0E09C01AD0120533F4C4F4F5F4F8E
:102DA0002B833C834D835E8322E030E0AE014F5F96
:102DB0005F4F6B817C818D819E810E949509898105
:102DC0009A81E0FE26C08F70992724E0000F111F22
:102DD0002A95E1F7082B192B1A83098322E030E0AA
:102DE000AE014F5F5F4F6B817C818D819E810E9420
:102DF000C00981E08093460426960FB6F894DEBFA2
:102E00000FBECDBFDF91CF911F910F91FF90EF903B
:102E100008958827907F1F70DDCFCF93DF9300D078
:102E200000D000D0CDB7DEB780914504882309F4E7
:102E30004EC080914604882309F449C021E030E067
:102E40003E832D8380ED90E3A0E0B0E089839A83F8
:102E5000AB83BC8320E032E045E452E069817A81B3
:102E60008B819C810E94950965E472E08D819E8131
:102E70000E949B08892B59F08FEF9FEF26960FB683
:102E8000F894DEBF0FBECDBFDF91CF91089565E40A
:102E900072E08D819E8109960E949B08009761F7E0
:102EA00029813A814B815C813E5F4F4F5F4F29837F
:102EB0003A834B835C834D815E814F5F5F4F5E83BE
:102EC0004D834A30510531F610924604D7CF90E039
:102ED00080E0D4CFFF920F931F93CF93DF9300D066
:102EE00000D000D0CDB7DEB7809145048823A1F093
:102EF0008CEF9AE00E94B9071E821D828D819E810F
:102F000026960FB6F894DEBF0FBECDBFDF91CF91EE
:102F10001F910F91FF90089586ED9AE00E94B907E6
:102F200065E472E090E080E00E943308892B39F07C
:102F300081EB9AE00E94B9078FEF9FEF73C081EA9F
:102F40009AE00E94B90780915002909151020E942C
:102F5000E4078BE99AE00E94B9078091520290E061
:102F60000E94E40784E99AE00E94B9078091550223
:102F700090E00E94E4078EE89AE00E94B9078091F1
:102F80005802909159020E94E40784E89AE00E9456
:102F9000B90780915A020E94C70781E89AE00E940F
:102FA000B90781E79AE00E94B90780915B0290918E
:102FB0005C020E94E4078BE69AE00E94B9078091C8
:102FC0005D0290915E020E94E40783E69AE00E940F
:102FD000B90780915F02909160020E94E4078CE53E
:102FE0009AE00E94B90780915602909157020E9480
:102FF000E40784E59AE00E94B90780916B020E9481
:10300000C70781E59AE00E94B9078091500290912C
:1030100051028115924049F08BE39AE00E94B90772
:1030200088EF9FEF9E838D8369CF80915502823018
:1030300049F086E29AE00E94B907A8EFBFEFBE838D
:10304000AD835CCF80915202811103C082E19AE08E
:10305000E5CF80916B02893209F066C080916C02E5
:1030600090916D02A0916E02B0916F02809347041F
:1030700090934804A0934904B0934A048BE0E0E79E
:10308000F2E0ABE4B4E001900D928A95E1F7109282
:10309000560484E09AE00E94B9078BE494E00E9411
:1030A000AD0788EF99E00E94B9078091490490919B
:1030B0004A040E94DB0780914704909148040E94D3
:1030C000DB0785EF99E00E94B9078DEB99E00E943C
:1030D000B90789E090E00E94E4078EEA99E00E9437
:1030E000B90780ED90E3A0E0B0E089839A83AB83D9
:1030F000BC8301E010E0FF24FA94F00E65E472E076
:10310000C8010E9433088D839E83AD81BE81AB2BA5
:1031100009F18EE899E00E94B9078F2D90E00E9496
:10312000E4078BE899E006CF109247041092480418
:103130001092490410924A048BE0E1E1F1E0ABE423
:10314000B4E001900D928A95E1F71092560482ED59
:1031500099E0B9CF20E032E045E452E069817A811C
:103160008B819C810E94C0090F5F1F4F89819A81CA
:10317000AB81BC819E5FAF4FBF4F89839A83AB8386
:10318000BC830A30110509F0B6CF81E08093450475
:10319000109246048AE799E00E94B907AFCE809169
:1031A0004504882321F00E940D17109245040895CC
:1031B000809145040895AF92BF92CF92DF92EF9233
:1031C000FF920F931F93CF93DF93D82EC92EB62E65
:1031D000A72E7A01809145042EEF3FEF882391F1CD
:1031E00003E110E065E472E0C8010E943308892B16
:1031F00009F042C0C5E4D2E088818823D1F1853E40
:1032000069F18B8583FD2AC048E050E06D2D7C2D4F
:10321000CE010E947F30892B09F543E050E06B2DF1
:103220007A2DCE0108960E947F309C01892BB1F443
:10323000E114F10439F080E2FE01D70101900D9212
:103240008A95E1F7C901DF91CF911F910F91FF900E
:10325000EF90DF90CF90BF90AF900895A09684E05C
:10326000C534D80749F60F5F1F4F0132110509F029
:10327000B9CF2DEF3FEFE6CF2FEF3FEFE3CFEF9248
:10328000FF920F931F93CF93DF938C01F62EE72EBF
:1032900080914504811116C08EEF9FEFDF91CF9191
:1032A0001F910F91FF90EF900895253E59F02385CF
:1032B0002F3041F020E2AF2DBE2D01900D922A95C6
:1032C000E1F7ECCFF80180819181803E910510F506
:1032D000EC01CF70DD2725E0CC0FDD1F2A95E1F74B
:1032E00034E0969587953A95E1F765E472E0439668
:1032F0000E943308009789F4FE01EB5BFD4FD80173
:103300002D913C9111972F5F3F4F2D933C9320813E
:103310002111CBCF8DEF9FEFC1CF8FEF9FEFBECFAE
:103320008F929F92AF92BF92CF92DF92EF92FF92D5
:103330000F931F93CF93DF93CDB7DEB7A0970FB650
:10334000F894DEBF0FBECDBF7C016B018A0188E619
:1033500099E00E94B9075701470188E0880E911C47
:10336000F50181915F01803229F00E94A607A8141F
:10337000B904B1F78EE20E94A60756014601A3E008
:103380008A0E911CD5018D915D01803229F00E9439
:10339000A607A814B904B1F784E699E00E94B9071A
:1033A000AE014F5F5F4FB601C7010E94DB187C0181
:1033B000892BC1F08DE499E00E94B907C701A0965E
:1033C0000FB6F894DEBF0FBECDBFDF91CF911F9136
:1033D0000F91FF90EF90DF90CF90BF90AF909F90B4
:1033E0008F900895F8013D9686E0DF011D928A9541
:1033F000E9F781E0F80180838B8D9C8D9283818336
:10340000948383838D8D9E8DAF8DB8A185839683A4
:10341000A783B0871186128613861486118A86E3E5
:1034200099E00E94B9078B8D9C8D0E94E4078FE282
:1034300099E00E94B9078D8D9E8D0E94E4078CE271
:1034400099E0BACF6F927F928F929F92AF92BF9284
:10345000CF92DF92EF92FF920F931F93CF93DF9360
:10346000EC013B016A018881882309F488C08989BD
:10347000811185C08091450481117BC08EEF9FEF43
:1034800069C08D819E8149855A8595012E193F0914
:10349000841B950B2817390708F4C9014601801AC7
:1034A000910A8815990508F44C01B7016B5B7D4FB3
:1034B000A401C301800F911F0E948C30080D191DBB
:1034C00089859A85AB85BC85880D991DA11DB11D87
:1034D00089879A87AB87BC87AC01BD01517066278D
:1034E0007727452B462B472BA1F44D815E816F81B9
:1034F000788584179507A607B70758F48B819C81B8
:103500000E945A169C01283F8FE0380710F53C8333
:103510002B830C151D05E8F489859A85AB85BC8540
:103520004D815E816F81788584179507A607B7075F
:1035300080F47C0121E0F2228B819C8165E472E0C1
:103540004F960E943308892B09F49BCF0115110572
:10355000C1F0C801DF91CF911F910F91FF90EF90C3
:10356000DF90CF90BF90AF909F908F907F906F90A3
:10357000089510E000E0A12C82E0B82ECACF89EFB8
:103580007ECF8FEF7CCF3F924F925F926F927F9270
:103590008F929F92AF92BF92CF92DF92EF92FF9263
:1035A0000F931F93CF93DF938C012B017A01FC01C2
:1035B0008081882309F490C08189882309F48CC014
:1035C0008091450481117CC08EEF9FEF67C0F301AD
:1035D000C50111920197E9F740C0CC0DDD1DF8013E
:1035E00081859285A385B4858C0D9D1DA11DB11D7E
:1035F00081879287A387B487328A9170AA27BB27D5
:10360000892B8A2B8B2BB1F4CE15DF0598F40E9401
:103610009D166C0197FD41C0BC01F8018381948126
:103620000E94B2166FEF7FE0C6010E94B216F80149
:10363000D482C382CE15DF0580F5F801818492849F
:10364000F1E09F228114910411F2F80183819481A9
:1036500065E472E04F960E943308C7018C1B9D0BF6
:103660006501C818D9088C159D0508F46C01A601E0
:10367000B2016C0F7D1FC4018B5B9D4F0E948C308B
:10368000F8018381948165E472E04F960E949B0863
:10369000892B09F4A2CF209709F1CE01DF91CF91B8
:1036A0001F910F91FF90EF90DF90CF90BF90AF9060
:1036B0009F908F907F906F905F904F903F90089574
:1036C000D0E0C0E085E4682E82E0782EA12C92E064
:1036D000B92E33243394AECF89EF77CF8FEF75CFE8
:1036E000CF93DF93EC018881882309F44EC08AE1EF
:1036F00099E00E94B90789859A850E94E40782E1D2
:1037000099E00E94B9078989811124C08EE40E9442
:10371000A6078CE099E00E94B9078A8981111CC034
:103720008EE40E94A60789E099E00E94B907898982
:10373000882351F18A89882339F165E472E08D8507
:103740009E850E943308892B49F08FEF9FEFDF9110
:10375000CF91089589E5DBCF89E5E3CFEF85F8893F
:10376000EB5BFD4F89859A85AB85BC85848F958FF2
:10377000A68FB78F65E472E08D859E850E949B08B9
:10378000892B19F70E940D17188290E080E0DFCF97
:10379000CF92DF92EF92FF920F931F93CF93DF931D
:1037A000182F092FD62EC72E80914504CEEFDFEFBC
:1037B000882361F083E1E82EF12C65E472E0C70113
:1037C0000E943308892B61F0CFEFDFEFCE01DF914C
:1037D000CF911F910F91FF90EF90DF90CF900895C0
:1037E000C5E4D2E08881882309F441C0853E91F187
:1037F00048E050E0612F702FCE010E947F30892B6E
:1038000049F543E050E06D2D7C2DCE0108960E94D5
:103810007F30892BF9F40A8D1B8DC8010297863FF2
:103820009F4068F085EE888365E472E0C7010E94DE
:103830009B08EC01892B41F60E940D17C7CFC801E8
:103840000E945A166C0170E060E0C8010E94B21636
:103850008601E3CFA09684E0C534D80719F62FEF90
:10386000E21AF20A81E2E816F10409F0A6CFCDEFE0
:10387000DFEFACCF5F926F927F928F929F92AF9269
:10388000BF92CF92DF92EF92FF920F931F93CF934D
:10389000DF93CDB7DEB7A0970FB6F894DEBF0FBEAB
:1038A000CDBF882E792E662E572E8A018091450431
:1038B000882309F49BC0AE014F5F5F4F882D0E94A3
:1038C000DB18892B31F4662D752D882D972D0E94DC
:1038D000C81B93E1A92EB12C65E472E0C5010E94DA
:1038E0003308892BC1F08FEF9FEFA0960FB6F894A5
:1038F000DEBF0FBECDBFDF91CF911F910F91FF9023
:10390000EF90DF90CF90BF90AF909F908F907F907F
:103910006F905F90089585E4E82E82E0F82E912C58
:10392000F7018081811108C00E949D166C0197FFEC
:1039300017C08AEF9FEFD9CF853EB1F39394F0E2A1
:10394000EF0EF11C40E19412EBCF8FEFA81AB80AEA
:1039500091E2A916B10409F0BFCF8BEF9FEFC5CF5D
:103960006FEF7FE00E94B21680E2F701482F1192BC
:103970004A95E9F798E0E82DF72DD70101900D92CF
:103980009A95E1F7D701189693E0E62DF52D019071
:103990000D929A95E1F7F7018387D38EC28E148E2C
:1039A000158E168E178E65E472E0C5010E949B0885
:1039B000009709F098CF21E0F8012083D282C182DC
:1039C000D482C382158216821782108611861286CF
:1039D00013861486218B128AB686A586F0E29F9EF6
:1039E00090011124F801308B27877FCF8EEF9FEF56
:1039F0007CCF4F925F926F927F928F929F92AF9205
:103A0000BF92CF92DF92EF92FF920F931F93CF93CB
:103A1000DF93CDB7DEB7A0970FB6F894DEBF0FBE29
:103A2000CDBF782E692E562E472ED42EC52EB22EFF
:103A3000A32E80914504882309F480C0AE014F5F16
:103A40005F4F622F732F8D2D9C2D0E94DB18892BC9
:103A500009F477C083E1E82EF12C65E472E0C70138
:103A60000E943308892B09F06FC005E412E0F801C9
:103A70008081882309F45FC0853E09F44DC048E089
:103A800050E0672D762DC8010E947F30892B09F008
:103A900043C04801F8E08F0E911C43E050E0652DD3
:103AA000742DC4010E947F30892BB1F588E0ED2D83
:103AB000FC2DD80101900D928A95E1F783E0EB2D62
:103AC000FA2DD40101900D928A95E1F765E472E038
:103AD000C7010E949B0821E030E0892B11F430E0FF
:103AE00020E088279927821B930BA0960FB6F894A5
:103AF000DEBF0FBECDBFDF91CF911F910F91FF9021
:103B0000EF90DF90CF90BF90AF909F908F907F907D
:103B10006F905F904F900895005E1F4F84E00534D2
:103B2000180709F0A4CFEFEFEE1AFE0AF1E2EF1644
:103B3000F10409F092CF8DEF9FEFD7CF8EEF9FEF7B
:103B4000D4CF8CEF9FEFD1CF8FEF9FEFCECF0F93DE
:103B50001F93CF93DF9300D000D0CDB7DEB7809115
:103B60004504882399F102E010E01A821982C80105
:103B70000E945A16892B31F429813A812F5F3F4FD9
:103B80003A8329830F5F1F4F01323BE0130779F718
:103B900049815A81B0E0A0E09A01AD0189E0220F8D
:103BA000331F441F551F8A95D1F729833A834B83CE
:103BB0005C8369817A818B819C810F900F900F903B
:103BC0000F90DF91CF911F910F91089519821A8262
:103BD0001B821C82EECFAF92BF92CF92DF92EF9208
:103BE000FF920F931F93CF93DF9300D000D000D0AC
:103BF000CDB7DEB78D839E8380E092E0E5E4F2E00E
:103C0000DF019C011D9221503040E1F72BEE209303
:103C100045022CE32093460220E92093470228E046
:103C2000EDE1F1E0A8E4B2E001900D922A95E1F710
:103C3000909351028093500281E08093520281E080
:103C400090E0909354028093530282E08093550257
:103C500080EE90E0909357028093560280E49BE0C0
:103C6000909359028093580280EF80935A0289E022
:103C700090E090935C0280935B0282E190E09093ED
:103C80005E0280935D0282E090E0909360028093F8
:103C90005F0289E280936B028EEE9FEFA0ECB4E6A8
:103CA00080936C0290936D02A0936E02B0936F02AA
:103CB0008D819E81892B09F4CCC08BE0ED81FE8142
:103CC000A0E7B2E001900D928A95E1F788E0E2E387
:103CD000F1E0ABE7B2E001900D928A95E1F785E55E
:103CE000809343048AEA8093440465E472E090E0A0
:103CF00080E00E949B08892B09F0AFC001E010E032
:103D000080ED90E3A0E0B0E089839A83AB83BC832D
:103D100085E4C82E82E0D82EA12C92E0B92E20EFA7
:103D2000E22EFF24FA94D601F5011D923197E9F7AE
:103D3000013031F4E0924502F0924602F0924702DF
:103D400065E472E0C8010E949B08892B09F085C0D8
:103D500065E472E0C80109960E949B08892B09F06E
:103D60007CC020E032E045E452E069817A818B81B9
:103D70009C810E94C00989819A81AB81BC819E5F30
:103D8000AF4FBF4F89839A83AB83BC830F5F1F4FB5
:103D90000A30110541F6E5E4F2E080E092E0DF014F
:103DA0009C011D9221503040E1F78D819E81892B2D
:103DB000B9F088E0ED81FE81A5E4B2E001900D92BA
:103DC0008A95E1F7ED81FE8180859185A2858093BA
:103DD0004D0290934E02A0934F0288E080935002D0
:103DE00065E472E083E190E00E949B08892BA9F5CD
:103DF000E5E4F2E080E092E0DF019C011D922150B9
:103E00003040E1F784E190E09A83898365E472E0D1
:103E100089819A810E949B08892BF9F4A981BA8132
:103E20001196BA83A983919789F710924504269633
:103E30000FB6F894DEBF0FBECDBFDF91CF911F91BB
:103E40000F91FF90EF90DF90CF90BF90AF900C94C8
:103E50006A178BE0E6E2F1E033CF8FEF9FEF269613
:103E60000FB6F894DEBF0FBECDBFDF91CF911F918B
:103E70000F91FF90EF90DF90CF90BF90AF9008959B
:103E80008F929F92AF92BF92CF92DF92EF92FF926A
:103E90000F931F93CF93DF936C014B017A0148E09E
:103EA00050E060E270E0C4010E94953043E050E0D1
:103EB00060E270E0C7010E94953056019601E90169
:103EC00088812F5F3F4F81110BC0F60101900020C8
:103ED000E9F731978F010C191D09D0E0C0E007C048
:103EE0008E3269F78E010C191D09209771F3093084
:103EF000110514F008E010E06401912C812C80166B
:103F0000910614F12097A9F12196DE010D90002071
:103F1000E9F711978701AC1BBD0BA430B10514F074
:103F2000A3E0B0E0EA0EFB1E0E151F05D1F4DF91F1
:103F3000CF911F910F91FF90EF90DF90CF90BF90A6
:103F4000AF909F908F900895F50181915F0190E06F
:103F50000E947730F60181936F01FFEF8F1A9F0A5D
:103F6000CECF899190E00E947730F80181938F0144
:103F7000DBCF83E0EBE3F1E0D70101900D928A956E
:103F8000E1F7D5CF8F93549A5C9881E080935804E1
:103F90008F91189553985B9A54985C9A0895FC01F8
:103FA0001082549A5C988FE391E00197F1F700C07A
:103FB000000081E197E24B9B18C054985C9A90E016
:103FC00080E061E070E021E137E24B9918C04C9B42
:103FD00009C02081AB01082E01C0440F0A94EAF702
:103FE000242B208321E137E21BC025E02A95F1F73D
:103FF0000000019701F754985C9A80E0089545E02D
:104000004A95F1F7000021503109F9F60E94CA1FC4
:10401000F4CF45E04A95F1F7000021503109B1F3A2
:104020004B9BF7CF01968830910569F6549A5C98BE
:104030008FE891E00197F1F700C0000081E008955A
:10404000FC01DB0110821C9254985C9A89EC90E090
:104050004B9B16C025E02A95F1F70000019709F562
:1040600081E08C93549A5C988FEE90E00197F1F781
:1040700000C0000054985C9A81E197E24B9907C018
:1040800090E080E061E070E021E137E214C025E0DB
:104090002A95F1F70000019789F70E94CA1F80E076
:1040A00008954A99D5CFF9CF45E04A95F1F7000038
:1040B0002150310991F34B99F7CF4C9B09C02081D6
:1040C000AB01082E01C0440F0A94EAF7242B208389
:1040D00021E137E207C045E04A95F1F700002150A1
:1040E0003109D9F24B9BF7CF01968830910561F6E3
:1040F000549A5C9881E00895539A5B9854985C9A1E
:10410000EFE3F1E03197F1F700C0000021E137E281
:104110004C9B45C0662391F053985B9A21E137E2AE
:104120004C9949C021E137E24C9B4EC0539A5B98B1
:10413000EFE3F1E03197F1F700C0000030E020E05C
:1041400090E0AC01022E02C0559547950A94E2F723
:1041500040FF43C054985C9AEFEEF0E03197F1F7DE
:1041600000C0000053985B9AEFEEF0E03197F1F752
:1041700000C00000539A5B982F5F3F4F28303105F5
:1041800001F754985C9A81E197E24C9929C08FE835
:1041900091E00197F1F700C0000081E00895F5E09B
:1041A000FA95F1F700002150310911F480E00895EB
:1041B0004A99AECFFBCF95E09A95F1F700002150D8
:1041C000310909F0ADCFF2CFE5E0EA95F1F7000053
:1041D0002150310909F0A8CFE9CF549A5C98BCCF9F
:1041E000F5E0FA95F1F70000019779F6DFCFEF924D
:1041F0000F931F93CF93DF9380933C0590E3E92EB9
:104200000DE315E00E943F24EC018034910514F089
:10421000C0E4D0E0AE0155276DE375E089EF94E08E
:104220000E948C30C093390510923A0510923B05DC
:10423000DF91CF911F910F91EF900895CF93C82FE9
:1042400082EE9DE00E94B9078C2F90E00E94E40767
:104250008FED9DE00E94B907C093590410925B0452
:1042600010925A04109258048AB1837C8AB98BB197
:104270008C638BB9809169008C7F82608093690028
:1042800081E08CBBE89AC9B18FEC9DE00E94B90730
:104290008CE4C2FD88E40E94A60789EC9DE00E94A0
:1042A000B9078CE4C3FD88E40E94A60782EC9DE078
:1042B0000E94B9078CE4C4FD88E40E94A6078CEB39
:1042C0009DE00E94B9078CE4C5FD88E40E94A60722
:1042D00089EB9DE00E94B907EEE5F4E08EEDDF0189
:1042E0001D928A95E9F720E040E06FE371E089E4F0
:1042F000CF910C94F720CF93DF93EC01DB01E09199
:104300003A0580913905E81730F081E08C9380E020
:10431000DF91CF91089581E08E0F80933A05F0E010
:10432000E353FB4F84A5888381E020913A05909167
:104330003905291708F480E08C9381E0E9CFCF920A
:10434000DF92EF92FF920F931F93CF93DF9300D0F2
:104350000F92CDB7DEB7809157044D9923C08111DC
:1043600015C081E08093570481E89DE00E94B90761
:1043700010925B0410925A040E94CA1F0E94C90B3B
:104380000E94CF180E942F240E94282B0F900F907C
:104390000F90DF91CF911F910F91FF90EF90DF90E1
:1043A000CF900895882309F45BC0109257048BE5E1
:1043B0009DE00E94B9070E94300B0E94D70B892B09
:1043C00091F089E49DE00E94B90720E040E061E0BF
:1043D00071E08AE40E94F72085E090E00E94E42FDB
:1043E0000E94C90BD3CF88E39DE00E94B9070E94C9
:1043F000110C81110EC08FE19DE00E94B90720E0F1
:1044000040E061E071E08AE40E94F72086E090E0FD
:10441000E5CF88E09DE00E94B9070E946A17892BCA
:1044200079F487EF9CE00E94B9070E94C90B87ECE2
:104430009CE00E94B90790E080E00E94E42FA6CFA4
:1044400082EE9CE00E94B90720E040E061E071E06C
:104450008AE40E94F72086E090E00E94E42FE5CFF6
:104460004A9B41C080915A0490915B04029709F0E5
:104470008DCFAE014F5F5F4FBE016E5F7F4F80916A
:104480005C040E94AD27882359F10E94232BFC0174
:1044900069818A81309709F10680F781E02D309794
:1044A000E1F0099581110AC08DEA9CE00E94B907EC
:1044B00010925B0410925A040E94CA1F89818823BB
:1044C00009F464CF85E99CE00E94B90710925B046F
:1044D00010925A040E94CA1F59CF0E947C20E2CF3A
:1044E00086E79CE0F1CF0E94962F8AE69CE00E942E
:1044F000B907549A5C9882E0E82EF12CCC24C3943E
:10450000D12C4A990AC0CE0103960E94CF1F811177
:1045100042C08FE49CE00E94B9070E94982F8091CE
:104520005A0490915B040297D1F487EA9BE00E94C1
:10453000B9070E94F62A0E94232B8C01009779F07C
:10454000DC011A968D919C91892B49F08FE89BE0B4
:104550000E94B907D8011A96ED91FC9109958091B6
:104560005A0490915B04019709F010CF82E79BE019
:104570000E94B90780915C0490E00E94E4078FE6F6
:104580009BE00E94B90711E04A99C6C085E59BE00F
:104590000E94B907FBCE82E49CE00E94B9078B81A0
:1045A0000E94C7078B818F3361F586E39CE00E94F0
:1045B000B90780915A0490915B04019709F0A1CF4B
:1045C00080915C048F30C1F46091CA04662359F075
:1045D000E62FF0E0E75AFB4F11AA8AE894E00E9428
:1045E00094291092CA0410925B0410925A040E94FB
:1045F000CA1F0E94282B85CF8130A9F70E949327DC
:10460000F2CF8F3561F48CE29CE00E94B907809173
:104610005A0490915B04029709F073CFE4CF182FEE
:104620001F71982F907E9032C9F482E29CE00E9424
:10463000B907812F90E00E94E4078FE19CE00E947F
:10464000B9078091590481135CCFD0925B04C0926A
:104650005A048BE09CE00E94B90753CF9034B9F420
:1046600083E09CE00E94B907812F90E00E94E4075C
:1046700080E09CE00E94B90780915904811341CFEA
:10468000F0925B04E0925A048EEE9BE0E4CF982F08
:10469000907F903651F5182F1F7084EE9BE00E949A
:1046A000B907812F90E00E94E40781EE9BE00E9411
:1046B000B90710935C0480915A0490915B04813097
:1046C000910529F41092CA041092CB041ACF0297D4
:1046D00009F017CF54985C9A8FE391E00197F1F7B6
:1046E00000C00000539A5B980CCF903E91F4182FB5
:1046F0001F7086ED9BE00E94B907812F90E00E9419
:10470000E40783ED9BE00E94B907812F0E94932765
:10471000F8CE8DEC9BE09FCFBE016F5F7F4FCE0147
:1047200002960E942020811103C08CE39BE030CFD1
:1047300080915C0490915E04911136C08F30A1F19C
:10474000E0918904E93248F48A8191E09E0F9093C8
:104750008904F0E0E75AFB4F86838981882309F4B6
:1047600013CFE0918904F0E0E75AFB4F16828BE209
:104770009BE00E94B9078FE594E00E94AD0787E2B5
:104780009BE00E94B907409189046FE574E0809135
:104790005C040E94612410935E048981882309F4DB
:1047A000F3CE84E19BE0F4CEE091CA046A81E03468
:1047B00040F491E09E0F9093CA04F0E0E75AFB4F5B
:1047C00061AB0E947B29E9CF80915804882341F096
:1047D000109258048BE99DE00E94B9070C949F2128
:1047E00008950F931F93CF93DF93CDB7DEB7CC52CD
:1047F000D4400FB6F894DEBF0FBECDBF8C019C0134
:10480000AE01435D5D4F60ED78E580E090E00E9491
:1048100095092CE232E0AE014F5F5F4FB801CE0147
:10482000835D9D4F0E94782F8C011816190654F451
:104830009C01AE014F5F5F4F60ED7AE580E090E054
:104840000E94C009C801C45DDB4F0FB6F894DEBFFB
:104850000FBECDBFDF91CF911F910F910895EAE771
:10486000F5E083E1DF011D928A95E9F71092750565
:1048700020E040E06FE371E089E40C94F720EF92D0
:104880000F931F931F922F931F924F937F936F93BA
:104890001F928F938DE491E09F938F931F92EF92DD
:1048A0001F930F930E94A7302DB73EB7225F3F4F53
:1048B0000FB6F8943EBF0FBE2DBF1F910F91EF9022
:1048C00008957F928F929F92AF92BF92CF92DF9284
:1048D000EF92FF920F931F93CF93DF93CDB7DEB785
:1048E000C356D1090FB6F894DEBF0FBECDBF182F47
:1048F0007B01042F8CED9EE00E94B907812F90E090
:104900000E94E40784ED9EE00E94B9076701470119
:10491000800E911C8C149D04E1F580ED9EE00E94B8
:10492000B907FE01EF5AFF4F1192119287E0DF01A4
:104930001D928A95E9F76C961FAE1EAE6C976E9627
:104940001FAE1EAE6E97123078F40E94D8188111F7
:1049500026C088EB9EE00E94B90720E040E061E0BD
:1049600071E08AE40E94F720CD59DF4F0FB6F8942A
:10497000DEBF0FBECDBFDF91CF911F910F91FF9092
:10498000EF90DF90CF90BF90AF909F908F907F90EF
:104990000895D6018D916D010E94A607BBCF11111C
:1049A0001DC2013009F01AC2F7018081843209F07A
:1049B00015C284EA9EE00E94B907098384E08A83D5
:1049C00022E030E0AE014F5F5F4F60ED76E480E0C3
:1049D00090E00E94C0091B821C8282E18D8382E2EA
:1049E0008E83E9E6F1E0DE01179689E791E02191F7
:1049F0002D938E179F07D9F782E28F8B80E2888FE5
:104A0000EAE7F1E088E1919121E0280F482F50E09A
:104A10009111B5C0E1E0F0E0EC0FFD1F4E0F5F1FFC
:104A2000DA011C9230E07901B2E0EB0EF11C8C5FF0
:104A30008983C9018D5F9B4F9A83AF0162ED76E454
:104A400080E090E00E94C009A0961FAE1EAEA09725
:104A500030E2C32E42E2B42E0FE010E0BE016F5CE4
:104A60007F4FCE01825A9F4F0E943F19AC01892B84
:104A700031F468EFE6166FE0F60608F48BC00E948A
:104A8000A71DA4966CAF7DAF8EAF9FAFA497BB2739
:104A9000A92F982F872F19821A828B839C83A1E8D4
:104AA000B1E084E09D9161E0680F282F30E0911122
:104AB0008BC188248394912C8C0E9D1E280D391D4A
:104AC000D9011C92F401E60FF11D1082E2E0E80F1B
:104AD00088248394912C8C0E9D1E8E0E911CF401C3
:104AE00010828D5F082F10E0B0E0A0E09701AD01CB
:104AF0002053394B4F4F5F4FA4962CAF3DAF4EAF75
:104B00005FAFA4979801AE014F5F5F4FA4966CAD65
:104B10007DAD8EAD9FADA4970E94C0090E0D1F1DE7
:104B20001093790500937805109277051092760519
:104B300011E01093750585E99EE00E94B907809108
:104B40007805909179050E94E40782E99EE00E9431
:104B5000B9071092740510927305109272051092A5
:104B600071051092700510926F0510936E051092EA
:104B70006D0520E040E06EE871E080E0F3CE88242F
:104B80008394912C8C0E9D1E480D591DDA019C9327
:104B9000822F39CF6CAD63FD61CF61968CAD9DAD39
:104BA000AEADBFAD619781509F4FAF4FBF4F892FC3
:104BB0009A2FAB2FBB279C0119821A82009711F400
:104BC00081E090E09C838B832A30310508F03EC061
:104BD000CD82A5E0E1E0EA0F88248394912C8C0E2D
:104BE0009D1E8A0E911CD401CC9291E09E0FA1E0F3
:104BF000B0E0AC0FBD1FAE0FB11DFD01C08281E062
:104C0000890FE1E0F0E0EC0FFD1FE90FF11DB0822C
:104C100028E030E0722F732E21503109E1E3F0E0FB
:104C2000EC0FFD1FE20FF31FE081E032D1F0FE0137
:104C3000F1969E5F970F282FAA24A394A20E30E02E
:104C40009A11A5C0870F272F372D0EC024363105A6
:104C500010F4A4E0BFCF94E0283E334080F6E4E0B7
:104C6000C4CF21153105B1F699AD7BAD703209F095
:104C70009AC07AAD703209F099C0903221F141E0CA
:104C800050E091E0980F7EE2E1E0F0E0EC0FFD1FD4
:104C9000E80FF11D7083DE01D996792F740FDD9036
:104CA000E92F9F5F88248394912C8C0E9D1E8E0E7D
:104CB000911CF401D0829713F2CF840F8F5FFA0119
:104CC00031962E0F3F1F91E0980FE1E0F0E0EC0FDE
:104CD000FD1FE80FF11DB08271E1780F721BE92F03
:104CE0009F5FA1E0B0E0AC0FBD1FAE0FB11DFD0195
:104CF000C0829713F4CF8E5FF801E21BF30BD82E1E
:104D0000DE0EE1E6F1E064FD11C04330510561F4CF
:104D100043E050E065E671E0CE01C9960E947F3025
:104D2000E5E6F1E0892B11F0EBE3F1E0319121E0D0
:104D30002D0D8D2D90E031113CC0E1E0F0E0EC0F45
:104D4000FD1F8E0F9F1FDC011C9230E049018E0C6D
:104D50009F1CC4018F5F9B4F9A838983B0E0A0E0C2
:104D6000A701BD014053594B6F4F7F4FA4964CAFE5
:104D70005DAF6EAF7FAFA497AF01A4966CAD7DAD74
:104D80008EAD9FADA4970E94C009740167CED190EB
:104D900088248394912C8C0E9D1E280D391DD901D9
:104DA000DC922A2D49CF43E050E06BCF42E050E047
:104DB00068CF88248394912C8C0E9D1E880D991D9C
:104DC000DC013C93D22EB2CFE1E0F0E0EC0FFD1F0E
:104DD0002E0F3F1FF9019083862F64CEAE01465AF5
:104DE0005F4FBE016F5A7F4FC7010E94401F82E88C
:104DF0009EE00E94B907AE014F5A5F4F7A016A01E7
:104E000058E0C50ED11CD7018D917D010E94A607E7
:104E1000CE14DF04C1F78EE79EE00E94B9076B96BF
:104E20008FAD6B970E94A6076C968FAD6C970E9412
:104E3000A6076D968FAD6D970E94A6078AE79EE044
:104E40000E94B907111126C08DE69EE00E94B907A5
:104E50004AE755E0BE01665A7F4FCE018F5A9F4FF9
:104E60000E9490198C01892B09F440C087E59EE0CF
:104E70000E94B90788279927801B910B0E94E4079D
:104E800084E59EE00E94B90720E040E061E971E01E
:104E90008EE368CD87E49EE00E94B9074AE755E0BB
:104EA000BE01665A7F4FCE018F5A9F4F0E943A1C17
:104EB0008C01892BD9F08AE29EE00E94B9078827ED
:104EC0009927801B910B0E94E40787E29EE00E94D5
:104ED000B90720E040E060EA71E088E40A3F1F4F34
:104EE00009F440CD6AEA71E089E13CCD1092740585
:104EF0001092730510927205109271051092700550
:104F000010926F0581E080936E0510926D0520E090
:104F100040E06EE871E080E00E94F72087E19EE0CB
:104F20000E94B90721CDCF93C82F87E09EE00E9451
:104F3000B9078C2F90E00E94E40784E09EE00E9475
:104F4000B90780917A05882321F08AE795E00E94CD
:104F5000701B10927505CF910895BF92CF92DF928A
:104F6000EF92FF920F931F93CF93DF9300D000D067
:104F700000D0CDB7DEB7082F6B017A01FA0110829D
:104F80000E94522F182F882309F44CC10F3009F4C6
:104F90004BC1F701108280916F05909170052091AF
:104FA0007105309172058217930740F5B0E0A0E0DB
:104FB0009C01AD012053354A4F4F5F4FCA01B901E3
:104FC0000E94EA09F601808380916F059091700537
:104FD00001969093700580936F0520917105309133
:104FE00072058217930708F446C080916D058823E7
:104FF00009F441C081E0F70180833DC0B0906D05A8
:10500000BB2029F081E0F701808310E034C00091DB
:105010006E05011181C01A82198222E030E0AE01D2
:105020004F5F5F4F60ED7AE580E090E00E94C0093D
:1050300082E090E090937205809371051092700564
:1050400010926F0501E000936D0560ED7AE580E058
:1050500090E00E94EA09F601808381E090E090935D
:10506000700580936F05809171059091720502978C
:1050700010F4F7010083812F26960FB6F894DEBF57
:105080000FBECDBFDF91CF911F910F91FF90EF9099
:10509000DF90CF90BF900895B0E0A0E09C01AD01FB
:1050A0002053394B4F4F5F4F2B833C834D835E839F
:1050B00021E030E0AE014F5F5F4F6B817C818D81DD
:1050C0009E810E94950980917605909177050196C1
:1050D0009093770580937605809173059091740580
:1050E000B0E0A0E09C01AD012053374A4F4F5F4F25
:1050F0002B833C834D835E8349816B817C818D81D1
:105100009E810E94030A8091730590917405019617
:105110009093740580937305809173059091740545
:105120008115924088F4809175058823C1F18091A2
:105130007605909177052091780530917905821751
:10514000930708F4A9CFB02E809173059091740550
:105150000097B1F10E94F123181619060CF052CFF6
:1051600090937205809371051092700510926F05EF
:105170001092740510927305B11010926E0560EDD7
:105180007AE580E090E00E94EA09F601808381E000
:1051900090E09093700580936F05102F6CCF8091F5
:1051A0007A05882381F241E050E0BE016F5F7F4FB6
:1051B0008AE795E00E94221A019709F48DCFC3CFA8
:1051C0001A82198222E030E0AE014F5F5F4F60ED3E
:1051D0007AE580E090E00E94C00982E090E0909340
:1051E0007205809371051092700510926F051092F0
:1051F0006E0581E080936D0560ED7AE580E090E0DA
:105200000E94EA09F601808381E090E090937005A6
:1052100080936F058091710590917205029708F057
:105220002ACFE8CE0F3031F4B701C6010E947B21AE
:10523000182F21CF0111E6CE10917505112381F1B0
:105240008091760590917705B0E0A0E09C01AD01DA
:105250002053394B4F4F5F4F2B833C834D835E83ED
:1052600021E030E0A6016B817C818D819E810E94CE
:105270009509809176059091770501969093770531
:1052800080937605209178053091790582179307F0
:1052900008F4F1CE81E0F701808310927505EBCE22
:1052A00010917A05112309F4ADCE41E050E0BE0122
:1052B0006F5F7F4F8AE795E00E94221A019709F0FD
:1052C000A1CE8981F60180834091830550918405A8
:1052D000609185057091860580917F05909180058C
:1052E000A0918105B0918205481759076A077B078D
:1052F00008F4C1CE7FCECF93DF930F92CDB7DEB748
:105300006983813069F480917A05882349F041E00E
:1053100050E0BE016F5F7F4F8AE795E00E94C31A9D
:105320000F90DF91CF910895AF92BF92CF92DF920D
:10533000EF92FF920F931F93CF93DF93CDB7DEB71A
:10534000C754D1090FB6F894DEBF0FBECDBF6C01B4
:10535000162F662309F49AC087EF9DE00E94B907D3
:1053600076015601A10EB11CEA14FB0409F04AC0F3
:1053700083EF9DE00E94B907012F1A3208F009E27D
:10538000E02EF12CA701B601CE0101960E948C30CF
:1053900081E090E08C0F9D1FE80EF91EF70110824E
:1053A0006C01F60181916F0190E00E947730F60167
:1053B00031978083EC14FD04A1F7602FCE01019694
:1053C0000E94722C811162C0602FCE0101960E9452
:1053D000E52C81115BC0602FCE0101960E94292F20
:1053E000882309F168E070E0CE018B960E94552F6A
:1053F000181619066CF420E040E0BE01655D7F4F91
:1054000080E042C0F70181917F010E94A607ACCFE6
:105410000E94522F20E040E066EB71E08111F0CF56
:105420006EE871E0EDCF8981823509F441C064F402
:10543000893409F4B7C08E3409F47EC020E040E01E
:1054400065ED71E08EE120C08335C1F71330B0F314
:105450008A818A3399F7AE01495C5F4FBE01655D71
:105460007F4FCE0103960E94401FBE01695C7F4FB3
:10547000CE018B960E94C81B20E0892B09F051C0F9
:1054800041E065EC71E081E00E94F720C95BDF4FED
:105490000FB6F894DEBF0FBECDBFDF91CF911F9145
:1054A0000F91FF90EF90DF90CF90BF90AF90089555
:1054B000133060F38A818A3349F76DE370E0CE01DF
:1054C00003960E949C30009709F4B8CFFC0111921A
:1054D0008F01AE014C5B5F4FBE01695C7F4FCE0117
:1054E00003960E94401FAE01405C5F4FBE01655DA8
:1054F0007F4FC8010E94401F9E012C5B3F4FAE01B1
:10550000495C5F4FBE01605C7F4FCE018B960E946D
:10551000F91C009719F420E040E082CF039631F4A3
:1055200020E040E061E971E08EE3AECF20E040E0B2
:1055300062EE71E08FE3A8CF133058F18A818A338D
:1055400041F54BE050E060E270E0CE018B960E94A6
:1055500095301EAABE016D5F7F4FFB0101900020B8
:10556000E9F7AF0141505109461B570B4C3051052B
:1055700014F04BE050E0CE018B960E948C30CE01AF
:105580008B960E94EB1D892B39F46EE871E080E068
:1055900006C090E080E0F5CF6AEA71E089E120E0A2
:1055A00040E072CF0E94CF180E946A17892B69F3DE
:1055B00061E071E08AE4F3CF10928F0510928E05BE
:1055C00010928D0508959C01892B79F0E0918F054B
:1055D000E43058F481E08E0F80938F05F0E0EE0FF9
:1055E000FF1FE057FA4F3183208308951F93CF9315
:1055F000DF9310E080918F05181738F010928E0518
:1056000010928D0590E080E018C0C12FD0E0CC0F43
:10561000DD1FC057DA4FE881F9810480F581E02D64
:10562000309779F00995882361F0E881F981F0934A
:105630008E05E0938D0580819181DF91CF911F913F
:1056400008951F5FD7CF80918D0590918E050895A5
:1056500010928E0510928D050895CF93DF93FC0173
:10566000DB0110821C9254985C9A89EC90E04B9B71
:1056700017C04C9B15C025E02A95F1F70000019753
:1056800009F04AC081E08C93549A5C9885E48A952D
:10569000F1F7000054985C9A81E197E24B9930C091
:1056A00090E080E029B139B123FB222720F9C22FF5
:1056B000B0E0DB2FBE01082E01C0660F0A94EAF7A6
:1056C0002081262B34FB442740F950E0BC016F5F5A
:1056D0007F4FDA0102C0AA0FBB1F6A95E2F72A2B9F
:1056E0002083B5E4BA95F1F7000002968830910561
:1056F000C9F6549A5C9820EA2A95F1F781E009C02E
:105700004C9BCECFA5E0AA95F1F70000019731F6AA
:1057100080E0DF91CF9108954A99A9CFF9CF539AAC
:105720005B988FE391E00197F1F700C000000895C6
:105730004C9B15C080E012C085E08A95F1F700000F
:105740002F5F3F4F233781E03807A1F34C9BF4CF05
:10575000285C310981E02937310560F7089530E090
:1057600020E0F4CF662331F0EFE1F3E03197F1F779
:1057700000C0000021E137E24C9B33C030E020E064
:1057800090E0A9014F5F5F4FBC0102C0759567951E
:105790004A95E2F7AB014170BC01022E02C075953B
:1057A00067950A94E2F760FF25C053985B9A4423FB
:1057B00021F154985C9A75E47A95F1F700002E5F18
:1057C0003F4F28303105E9F653985B9A54985C9A1C
:1057D00081E197E24C9914C0F0EAFA95F1F781E083
:1057E0000895F5E0FA95F1F700002150310921F60E
:1057F00080E00895539A5B98DACF549A5C98DBCF97
:10580000E5E0EA95F1F70000019721F7F1CF8CE090
:1058100092E00C94E32A80919805811110929805EA
:105820000895089530E020E090E0AC01022E02C01F
:10583000559547950A94E2F740FF1BC054985C9A2F
:1058400045E14A95F1F7000053985B9A4AE24A9580
:10585000F1F700C0539A5B982F5F3F4F2830310516
:1058600021F754985C9A8AE68A95F1F700C081E0A6
:105870000895549A5C98E4CFFC011082DB011C92DD
:1058800090E080E061E070E021E137E207C0B5E040
:10589000BA95F1F7000021503109F1F04B9BF7CF99
:1058A0004C9B09C02081AB01082E01C0440F0A9413
:1058B000EAF7242B208321E137E24B9906C00196B9
:1058C0008830910509F781E0089545E04A95F1F7A0
:1058D00000002150310989F780E0089588E192E0C5
:1058E0000C94E32AFC01623050F08081853539F454
:1058F0008181803321F481E080939805089580E0D0
:10590000089580919A05811110929A05089580E07A
:105910000895089521E137E24B993AC0549A5C9872
:105920006AE66A95F1F700C030E020E090E0A90156
:105930004F5F5F4FBC0102C0759567954A95E2F7CE
:10594000AB014170BC01022E02C0759567950A94A7
:10595000E2F760FF29C053985B9A442341F15498C1
:105960005C9A7AE47A95F1F700C02E5F3F4F2830B9
:105970003105E9F654985C9A53985B9A81E197E275
:105980004B9B18C045E84A95F1F7000081E0089567
:1059900045E04A95F1F700002150310911F480E00B
:1059A00008954A99B9CFFBCF539A5B98D6CF549AB2
:1059B0005C98D7CF25E02A95F1F70000019701F711
:1059C000EECF84E292E00C94E32AFC016330A0F075
:1059D00080818D3489F481818D3271F482818735A3
:1059E00059F4809199058F5F80939905833030F049
:1059F00081E080939A05089580E0089581E00895FC
:105A00002F923F924F925F926F927F928F929F92CE
:105A1000AF92BF92CF92DF92EF92FF920F931F93BC
:105A2000CF93DF93CDB7DEB7CC50D2400FB6F8940A
:105A3000DEBF0FBECDBF5C018B011A01C90161152C
:105A4000710509F45BC1FE01319620E032E0DF010F
:105A5000A9011D9241505040E1F7D501A60FB71F93
:105A6000CB5FDD4FB983A883C550D2401597C55F82
:105A7000DD4FB983A883CB50D240CB5FDD4F288167
:105A80003981C550D24024503109C95FDD4F398377
:105A90002883C750D240A101480F591FC75FDD4F6F
:105AA00059834883C950D24064307105ECF0D50168
:105AB0002D913D914D915C9161EB79E787E39EE9F2
:105AC0000E941F30CF5FDD4F688379838A839B8379
:105AD000C150D240892F9927AA27BB27880F991F29
