:100000000C940F070C94DB1D0C942C070C942C07FC
:100010000C942C070C942C070C942C070C942C0794
:100020000C942C070C942C070C940B0F0C942C079D
:100030000C942C070C942C070C942C070C942C0774
:100040000C942C070C942C070C942C070C942C0764
:100050000C942C070C942C070C942C070C942C0754
:100060000C942C070C942C0752656164792E0D0AB0
:10007000004D6F756E74206661696C65640D0A00D1
:100080004641543132204F4B0D0A004D6F756E744E
:100090002046415431322E2E2E0D0A004E6F206420
:1000A00069736B20696E2064726976650D0A00447D
:1000B00072697665204F4B0D0A004E6F206472699D
:1000C0007665210D0A00466C6F70707920696E6943
:1000D000742E2E2E0D0A00436F6D7072657373209F
:1000E0004F4B0D0A00466173746C6F6164204F4B77
:1000F0000D0A00494543206465766963652023380D
:100100000D0A0037344843353935204F4B0D0A006E
:100110005352414D204F4B0D0A000D0A3D3D3D20ED
:1001200036346B6F727070752076312E3020284E09
:10013000616E6F2B5352414D29203D3D3D0D0A000C
:100140000D0A0020455252005B4449534B5D207715
:10015000726974652072633D000D0A0020523D00F3
:1001600020533D0020543D005B4449534B5D2077B4
:1001700072697465204C42413D000D0A00204552D1
:1001800052005B4449534B5D207265616420726389
:100190003D000D0A0020523D0020533D0020543DFB
:1001A000005B4449534B5D2072656164204C4241C1
:1001B0003D003031323334353637383941424344EB
:1001C000454600204641494C210D0A00204F4B0D69
:1001D0000A002072656164203078005B5352414D03
:1001E0005D20746573743A2077726F74652030787F
:1001F000005B5352414D5D20696E69742053504934
:100200002E2E2E0D0A000D0A005B53525D206465F0
:100210006661756C743D3078005B53525D20696E89
:1002200069740D0A005B464C505D207772697465F5
:10023000204F4B0D0A005B464C505D204D464D2033
:100240007772697465204641494C0D0A005B464C43
:10025000505D204D464D2077726974652E2E2E0D0F
:100260000A005B464C505D2077726974653A2073D2
:1002700065656B206661696C65640D0A005B464CC0
:10028000505D207772697465204552523A2077722A
:100290006974652070726F746563746564210D0AFA
:1002A000005B464C505D2077726974652045525260
:1002B0003A2062616420736563746F720D0A000DE9
:1002C0000A0020523D0020533D005B464C505D200B
:1002D000777269746520543D000D0A005B464C50EE
:1002E0005D2072656164204F4B2C206669727374C7
:1002F0002062797465733A20005B464C505D204D56
:10030000464D206465636F6465204641494C0D0A83
:10031000002E2E2E0D0A005B464C505D204D464DA2
:10032000206465636F646520523D005B464C505D00
:10033000204D464D2063617074757265204F4B0DE2
:100340000A000D0A005B464C505D204D464D20636F
:10035000617074757265204641494C2072633D009E
:100360005B464C505D204D464D2063617074757244
:10037000652E2E2E0D0A005B464C505D2072656185
:10038000643A207365656B206661696C65640D0A6B
:10039000000D0A005B464C505D2057503D005B4607
:1003A0004C505D2072656164204552523A20626172
:1003B0006420736563746F720D0A000D0A00205289
:1003C0003D0020533D005B464C505D2072656164EA
:1003D00020543D000D0A005B464C505D207369645B
:1003E000653D000D0A002D3E54005B464C505D20DB
:1003F0007365656B2054005B464C505D20736565EA
:100400006B3A206E6F7420696E697469616C697AE9
:1004100065642C20726563616C6962726174696ED7
:10042000670D0A000D0A00203E3D20005B464C503F
:100430005D207365656B204552523A20747261638A
:100440006B2000202D3E206469736B204E4F54209A
:1004500050524553454E540D0A00202D3E206469EC
:10046000736B2050524553454E540D0A002057508F
:10047000543D005B464C505D206469736B2063689B
:1004800065636B3A2044534B4348473D005B464C01
:10049000505D204552523A2054524B3030206E6FFE
:1004A0007420666F756E64206166746572203835DD
:1004B000207374657073210D0A0020737465707366
:1004C0000D0A005B464C505D2054524B3030206684
:1004D0006F756E6420616674657220005B464C50D7
:1004E0005D20726563616C6962726174653A207344
:1004F00065656B696E6720747261636B20302E2EA8
:100500002E0D0A005B464C505D206D6F746F72209B
:100510004F46460D0A005B464C505D206D6F746F70
:1005200072207370696E2D75702074696D656F75BA
:100530007420286E6F202F5244415441290D0A0027
:100540000D0A005B464C505D205741524E494E47C4
:100550003A207369676E616C20746F6F20666173F7
:10056000742C206E6F6973653F206176673D0020B3
:10057000286578706563746564207E313030292E7B
:1005800020436865636B2031325620737570706C40
:10059000792E0D0A005B464C505D205741524E4962
:1005A0004E473A206D6F746F7220746F6F20736CBA
:1005B0006F7721206176673D00207469636B730D4E
:1005C0000A006D732C2061766720696E74657276FF
:1005D000616C3D005B464C505D206D6F746F722006
:1005E000726561647920616674657220005B464CB7
:1005F000505D206D6F746F72204F4E2C20776169B3
:1006000074696E6720666F722073706565642E2E44
:100610002E0D0A000D0A005B464C505D20696E6984
:100620007420646F6E652C2053523D3078000D0AA3
:10063000002044534B4348473D00205750543D0051
:100640005B464C505D20696E707574733A2054524D
:100650004B30303D005B464C505D20696E69742024
:100660004750494F2E2E2E0D0A005B4D464D5D2002
:10067000736563746F72207363616E2074696D6556
:100680006F75740D0A000D0A0020617420543D003E
:100690005B4D464D5D20666F756E642073656374B7
:1006A0006F7220002E2E2E0D0A005B4D464D5D20F0
:1006B0007363616E20666F7220736563746F72205E
:1006C000005B4D464D5D207772697465204F4B0D80
:1006D0000A000D0A0020523D0020533D005B4D46AC
:1006E0004D5D20777269746520543D00206E6F74F3
:1006F00020666F756E640D0A005B4D464D5D20648B
:1007000065636F6465204641494C3A2073656374A4
:100710006F7220005B4D464D5D206465636F6465BC
:10072000204F4B2C203531322062797465730D0ACD
:10073000000D0A00204D41544348210D0A00204E6F
:100740003D0020523D0020533D005B4D464D5D2055
:100750004944414D3A20543D000D0A005B4D464D41
:100760005D206D61726B3D3078000D0A0020617470
:100770002070756C736520005B4D464D5D205359AC
:100780004E432120636F756E743D000D0A00206199
:100790007661696C3D00207261773D3078005B4D79
:1007A000464D5D202300207061636B730D0A002CA1
:1007B000207363616E20005B4D464D5D2064656370
:1007C0006F646520736563746F7220000D0A0020EA
:1007D000696E763D002034543D002033543D005B6B
:1007E0004D464D5D20686973742032543D005B4D69
:1007F000464D5D20636170747572652054494D45A6
:100800004F5554210D0A006D730D0A00207061636D
:100810006B732C20005B4D464D5D206361707475D9
:1008200072653A20005B4D464D5D206361707475C2
:1008300072652073746172740D0A000D0A00206DD8
:100840006F643D002077726974653D005B464154DA
:100850005D20636C6F73653A20706F733D000D0A05
:10086000002073697A653D005B4641545D206F70DE
:10087000656E65643A20636C75737465723D005BE8
:100880004641545D2066696C65206E6F7420666F0A
:10089000756E640D0A00270D0A005B4641545D2009
:1008A0006F70656E5F726561642027005B4641541E
:1008B0005D206D6F756E74204F4B0D0A000D0A00A0
:1008C0005B4641545D20464154312072656164208D
:1008D0004641494C20617420736563746F72200037
:1008E00020736563746F7273292E2E2E0D0A005BC0
:1008F0004641545D2072656164696E6720464154CB
:10090000312028005B4641545D206E6F20626F6F7E
:1009100074207369672C2064656661756C74206C43
:100920006162656C0D0A000D0A002720736572690B
:10093000616C3D3078005B4641545D206C616265BE
:100940006C3D27005B4641545D204552523A20736E
:1009500070633D3D300D0A005B4641545D204552B9
:10096000523A206E666174213D320D0A005B4641A9
:10097000545D204552523A20627073213D35313228
:100980000D0A000D0A00207369673D30780020725F
:100990006F6F743D002068656164733D0020737063
:1009A000743D005B4641545D204250423A207370D2
:1009B000663D000D0A00206D656469613D30780078
:1009C00020746F743D00206E6661743D002073706A
:1009D000633D005B4641545D204250423A206270C4
:1009E000733D005B4641545D206D6F756E743A2017
:1009F000626F6F7420736563746F722072656164D7
:100A0000204641494C0D0A005B4641545D206D6F04
:100A1000756E743A2072656164696E6720626F6FEB
:100A20007420736563746F722E2E2E0D0A005B4660
:100A300041545D20616C7265616479206D6F756EE3
:100A40007465640D0A005B4945435D206C697374ED
:100A5000656E20454F490D0A00270D0A005B494588
:100A6000435D2066696C656E616D653D27005B497D
:100A700045435D206C697374656E207265637620F2
:100A80006661696C0D0A005B4945435D2041544E27
:100A900020647572696E67206C697374656E0D0AE7
:100AA000000D0A005B4945435D206C697374656EF7
:100AB000696E6720666F7220646174612053413DE6
:100AC000005B4945435D20666173746C6F6164200F
:100AD0006163746976650D0A005B4945435D204199
:100AE000544E2072656C65617365642C2064657476
:100AF00065637420666173746C6F61640D0A002015
:100B00003F3F0D0A000D0A0020434C4F5345205330
:100B1000413D000D0A00204F50454E2053413D00FD
:100B20005B4945435D202D3E2054414C4B45520DC1
:100B30000A000D0A002054414C4B2023005B49451C
:100B4000435D202D3E204C495354454E45520D0ADD
:100B5000000D0A00204C495354454E2023002055D7
:100B60004E54414C4B0D0A0020554E4C49535445B0
:100B70004E0D0A005B4945435D20636D643D30784E
:100B8000005B4945435D2041544E206279746520E5
:100B900072656376206661696C0D0A005B494543A6
:100BA0005D2041544E0D0A005B4945435D20746150
:100BB0006C6B3A206E6F20646174612C2072656CDE
:100BC000656173650D0A005B4945435D2074616C86
:100BD0006B3A20454F492C20646F6E650D0A005B0F
:100BE0004945435D2074616C6B3A2073656E6420E7
:100BF0006661696C65640D0A005B4945435D20725E
:100C000065696E697420646F6E652C20726561641D
:100C1000790D0A005B4945435D206D6F756E742048
:100C20006661696C65640D0A005B4945435D204659
:100C300041543132204F4B0D0A005B4945435D2042
:100C40006D6F756E742046415431322E2E2E0D0A72
:100C5000005B4945435D206E6F206469736B2069BA
:100C60006E2064726976650D0A005B4945435D201C
:100C70006472697665204F4B0D0A005B4945435D00
:100C8000206E6F206472697665210D0A005B49450C
:100C9000435D2072657365742072656C6561736570
:100CA000642C207265696E697420666C6F7070794F
:100CB0000D0A005B4945435D202A2A2A20425553EC
:100CC000205245534554202A2A2A0D0A005B4945E3
:100CD000435D20706F6C6C3A2041544E20647572F5
:100CE000696E6720776169740D0A000D0A00205251
:100CF00053543D0020444154413D0020434C4B3D62
:100D0000005B4945435D206275733A2041544E3D76
:100D1000000D0A005B4945435D20696E69742064DB
:100D20006576202300270D0A005B444F535D206346
:100D30006D643A2027000D0A005B444F535D206329
:100D40006C6F73652053413D005B444F535D206FD2
:100D500070656E204F4B0D0A000D0A005B444F5327
:100D60005D2053415645206372656174652066615C
:100D7000696C65642072633D005B444F535D205392
:100D80004156450D0A000D0A005B444F535D204C4F
:100D90004F4144206661696C65642072633D005B6D
:100DA000444F535D204C4F41440D0A00270D0A006B
:100DB000272E27005B444F535D207061727365647A
:100DC0003A2027000D0A005B444F535D206469728E
:100DD000206C656E3D005B444F535D20646972205A
:100DE0006C697374696E670D0A005B444F535D2034
:100DF0004452495645204E4F542052454144590DC6
:100E00000A00270D0A002066696C653D27005B44D7
:100E10004F535D206F70656E2053413D00001124DB
:100E20001FBECFEFD8E0DEBFCDBF12E0A0E0B1E043
:100E3000ECE9F3E602C005900D92A033B107D9F7B3
:100E400025E0A0E3B2E001C01D92A839B207E1F7A6
:100E50000E949C080C94C5310C9400001092C500AF
:100E60008FEC8093C400E0ECF0E0808182608083AE
:100E700088E08093C10086E08093C200089590913D
:100E8000C00095FFFCCF8093C6000895CF93DF93F9
:100E9000EC018991811103C0DF91CF9108950E94E7
:100EA0003F07F7CFCF93DF93EC01FE0184912196AA
:100EB000811103C0DF91CF9108950E943F07F5CFC4
:100EC000CF93C82FE82FE295EF70F0E0EE54FE4F7D
:100ED00084910E943F07CF70EC2FF0E0EE54FE4F5C
:100EE0008491CF910C943F07CF93C82F892F0E94F4
:100EF00060078C2FCF910C946007CF92DF92EF9216
:100F0000FF920F931F93CF93DF9300D000D000D0B8
:100F1000CDB7DEB79C01892B89F480E326960FB606
:100F2000F894DEBF0FBECDBFDF91CF911F910F911F
:100F3000FF90EF90DF90CF900C943F07CE01019689
:100F40007C01FC0110E000E08AE0C82ED12C0F5F8C
:100F50001F4FC901B6010E94482E805D8193C901CF
:100F60009B010A97A0F70E0D1F1DF80182918F01BA
:100F70000E943F070E151F05C1F726960FB6F8947D
:100F8000DEBF0FBECDBFDF91CF911F910F91FF90BC
:100F9000EF90DF90CF900895BF92CF92DF92EF92C3
:100FA000FF920F931F93CF93DF93182FD92FF62E15
:100FB000072F64E270E00E94482E6B0162E170E04E
:100FC0000E94482EE62EB72EC1E0C80F81EA91E0BC
:100FD0000E945207812F9D2F0E947D078DE991E08D
:100FE0000E945207C60199270E947D0789E991E076
:100FF0000E9452078E2D9B2D0E947D0785E991E06E
:101000000E9452078C2F90E00E947D0782E991E0B8
:101010000E9452072F2D302F4C2F6E2D8C2D0E94A9
:101020005F0CEC0182E891E00E945207CE01D7FFED
:1010300004C0882799278C1B9D0B0E947D07D7FF32
:1010400004C08DE791E00E9452078AE791E00E9478
:101050005207CE01DF91CF911F910F91FF90EF903A
:10106000DF90CF90BF900895BF92CF92DF92EF9222
:10107000FF920F931F93CF93DF93182FD92FF62E44
:10108000072F64E270E00E94482E6B0162E170E07D
:101090000E94482EE62EB72EC1E0C80F88E691E0E8
:1010A0000E945207812F9D2F0E947D0784E691E0C8
:1010B0000E945207C60199270E947D0780E691E0B1
:1010C0000E9452078E2D9B2D0E947D078CE591E09A
:1010D0000E9452078C2F90E00E947D0789E591E0E5
:1010E0000E9452072F2D302F4C2F6E2D8C2D0E94D9
:1010F000170DEC0188E491E00E945207CE01D7FF62
:1011000004C0882799278C1B9D0B0E947D07D7FF61
:1011100004C083E491E00E94520780E491E00E94C1
:101120005207CE01DF91CF911F910F91FF90EF9069
:10113000DF90CF90BF900895F8940E942E078AE127
:1011400091E00E9452070E94F72D0E94B80980E1A9
:1011500091E00E9452070E942C0A83E091E00E94D5
:1011600052070E94F90E83EF90E00E94520788E038
:101170000E94371F0E9448220E94F5280E94202AC0
:101180000E94872A0E94FA2A85EE90E00E94520768
:101190000E943D2D87ED90E00E94520778940E94B6
:1011A0007B0A86EC90E00E9452070E94C50A0E94CA
:1011B0006C0B892B81F08AEB90E00E94520720E0B3
:1011C00040E061E071E08AE40E94101F85E090E059
:1011D0000E94FD2D22C08FEA90E00E9452070E94DB
:1011E000A60B81110EC08CE990E00E94520720E00E
:1011F00040E061E071E08AE40E94101F86E090E028
:10120000E7CF8BE890E00E9452070E948315892B5C
:1012100089F480E890E00E9452070E945E0B88E605
:1012200090E00E94520790E080E00E94FD2D0E9415
:10123000B81FFDCF81E790E0D8CF8EBD0DB407FE7B
:10124000FDCF8EB50895CF93C62F872F0E941D091D
:101250008C2FCF910C941D09CF92DF92EF92FF92C9
:101260000F931F93CF93DF936B01D82FC92F7A0170
:1012700089012A9883E00E941D09B6018D2F9C2FB9
:101280000E942309E7010E0D1F1DC017D10751F45D
:101290002A9ADF91CF911F910F91FF90EF90DF90ED
:1012A000CF90089580E00E941D098993EECFCF92E0
:1012B000DF92EF92FF920F931F93CF93DF936B0117
:1012C000D82FC92F7A0189012A9882E00E941D092E
:1012D000B6018D2F9C2F0E942309E7010E0D1F1DC3
:1012E000C017D10751F42A9ADF91CF911F910F9126
:1012F000FF90EF90DF90CF90089589910E941D0993
:10130000EFCF0F931F93CF93DF938B01D82FC92F6C
:101310002A9883E00E941D09B8018D2F9C2F0E94FE
:10132000230980E00E941D092A9ADF91CF911F9125
:101330000F910895FF920F931F93CF93DF93F62E93
:10134000072F182FD92FC42F2A9882E00E941D0939
:101350006F2D702F812F9D2F0E9423098C2F0E94AB
:101360001D092A9ADF91CF911F910F91FF90089547
:10137000CF9381EF91E00E94520784B18C6284B9CF
:1013800024982A9A80E58CBD8DB581608DBD2A9800
:1013900081E00E941D0980E40E941D092A9A45EA05
:1013A00060E070E0CB010E949A0960E070E0CB0140
:1013B0000E948109C82F8BED91E00E94520785EAB7
:1013C0000E94600782ED91E00E9452078C2F0E94DC
:1013D00060078CEC91E0C53A11F083EC91E0CF917D
:1013E0000C9452070F931F93CF93DF938B01D82F49
:1013F000C92F2A9882E00E941D09B8018D2F9C2FC9
:10140000DF91CF911F910F910C9423092A9A08958F
:101410000F931F93CF93DF938B01D82FC92F2A9857
:1014200083E00E941D09B8018D2F9C2FDF91CF9181
:101430001F910F910C9423091EBC0DB407FEFDCF24
:101440008EB508952A9A809300018EBD0DB407FED3
:10145000FDCF5E9A5E98089589E192E00E9452075E
:10146000569A5E988FEF809300010E94220A89E0CD
:1014700092E00E945207809100010E94600786E07E
:1014800092E00C94520721E030E001C0220F8A95CF
:10149000EAF72095809100018223809300010C944B
:1014A000220A21E030E001C0220F8A95EAF78091FC
:1014B0000001822B809300010C94220A8823B9F04A
:1014C00085E00E94430A85E38A95F1F7000086E0F3
:1014D0000E94430A90E19A95F1F786E00E94510A32
:1014E0008FED9EE20197F1F700C00000089585E0BE
:1014F0000E94510AE8CFCF9385E596E00E945207FB
:1015000087B1887F87B988B1876088B92098579A52
:101510005F9A219A85EF0E94220AC6B180E496E084
:101520000E9452078CE4C0FD88E40E943F078AE3D2
:1015300096E00E9452078CE4C1FD88E40E943F07B8
:1015400081E396E00E9452078CE4C2FD88E40E9489
:101550003F078EE296E00E945207109230021092EE
:101560003102109232021092330210923402109221
:10157000350287E196E00E94520785EF0E946007DE
:1015800084E196E0CF910C945207CF92DF92EF92D4
:10159000FF920F931F93CF93DF93809132028111BB
:1015A00069C08DEE95E00E94520782E00E94430AD6
:1015B00084E00E94430A299A209186003091870096
:1015C000D0E0C0E090E0C12CD12C760160E2EFE9E0
:1015D000FFE03197F1F700C00000B59B54C0409187
:1015E000860050918700FA01E21BF30B9F0166BB56
:1015F000B897ED3BF10508F048C0C20ED31EE11CC0
:10160000F11C9F5F81E0903108F480E09A012196FF
:10161000C83EF3E0DF0709F43FC08823C1F284E04D
:10162000F694E794D794C7948A95D1F7860184ED10
:1016300095E00E945207CE010E947D0782EC95E062
:101640000E945207C6010E947D0789EB95E00E9427
:1016500052070B3A110528F185E995E00E945207DF
:10166000C6010E947D078FE695E00E94520781E047
:1016700080933202DF91CF911F910F91FF90EF90F5
:10168000DF90CF90089580E0C2CF80E09A01C12C16
:10169000D12C760190E0BBCF8111C1CF86E195E0DE
:1016A000E4CF0233110518F783E495E00E94520756
:1016B000C6010E947D0780E495E0D7CF84E095E0E5
:1016C0000E94520782E00E94510A84E00E94510A5F
:1016D00010923202299808951F93CF93DF938CEDD7
:1016E00094E00E945207D0E0C0E0309921C01092EF
:1016F000300281E0809335021FE08FE99FE001977F
:10170000F1F700C000000E94FD211150B1F783ECF9
:1017100094E00E945207CE010E947D078AEB94E07C
:101720000E94520790E080E0DF91CF911F910895D1
:1017300080E00E945E0A2196C535D105B1F68DE89C
:1017400094E00E9452078FEF9FEFEECFCF93DF938D
:1017500086B1D82FD47082FBCC27C0F9C093330256
:1017600086B18695817091E089278093340283E762
:1017700094E00E9452078CE4D11188E40E943F0754
:101780008DE694E00E9452078091340281110FC0CF
:101790008EE40E943F078AE594E0D11102C083E401
:1017A00094E00E9452078C2FDF91CF91089589E534
:1017B000F0CFCF93C82F8035C0F08CE294E00E9428
:1017C00052078C2F90E00E947D0787E294E00E94F0
:1017D000520780E590E00E947D0784E294E00E9439
:1017E00052078EEF9FEFCF910895809135028823A5
:1017F00059F1809130028C17A9F08AEE93E00E9493
:1018000052078091300290E00E947D0786EE93E0BF
:101810000E9452078C2F90E00E947D0783EE93E098
:101820000E94520780913002C81317C0CFE08FE9A1
:101830009FE00197F1F700C000000E94FD21C15018
:10184000B1F790E080E0CFCF87EF93E00E9452079E
:101850000E946C0B009769F2C6CF8C1748F481E0A8
:101860000E945E0A809130028F5F80933002DACF4F
:1018700080E00E945E0A809130028150F6CFCF93C3
:10188000C82F87ED93E00E9452078C2F90E00E94B2
:101890007D0784ED93E00E94520780E0CC2361F045
:1018A0000E94430AC09331028FE891E00197F1F75B
:1018B00000C00000CF9108950E94510AF3CFCF924B
:1018C000DF92EF92FF920F931F93CF93DF93C82F76
:1018D000E62EF42E890186EC93E00E9452078C2FAD
:1018E00090E00E947D0782EC93E00E9452078E2DCB
:1018F00090E00E947D078EEB93E00E945207CF2C70
:10190000D12CC6010E947D078BEB93E00E94520709
:101910008FEF8F0D823180F08EE993E00E945207A5
:10192000C8EFDFEFCE01DF91CF911F910F91FF90B4
:10193000EF90DF90CF9008950E94C50A96B19695DA
:10194000917081E098279093340284E993E00E949B
:1019500052078091340281112DC08EE40E943F070E
:1019600081E993E00E9452078C2F0E94D90BEC0171
:1019700087E793E0209709F057C08E2D0E943F0C17
:1019800080E693E00E9452070E94880FEC01892BA9
:1019900099F085E493E00E945207882799278C1BD1
:1019A0009D0B0E947D0782E493E00E945207CDEFD9
:1019B000DFEFB8CF89E5D2CF8BE293E00E945207E8
:1019C00087E193E00E945207C6010E947D0781E1F2
:1019D00093E00E945207B8018F2D0E947D10EC0108
:1019E000892B19F089EF92E0E0CF8CED92E00E9414
:1019F0005207F80180810E94600780E20E943F0741
:101A0000F80181810E94600780E20E943F07F8018F
:101A100082810E94600780E20E943F07F801838173
:101A20000E94600789ED92E00E9452077BCFBF922F
:101A3000CF92DF92EF92FF920F931F93CF93DF939A
:101A400000D000D000D0CDB7DEB7D82EE62EF42ED1
:101A5000B22EC32E8AEC92E00E9452078D2D90E0A8
:101A60000E947D0786EC92E00E9452078E2D90E046
:101A70000E947D0782EC92E00E9452078F2D90E039
:101A80000E947D078FEB92E00E9452078FEF8F0D2F
:101A90008231B8F081EA92E00E94520708EF1FEF0E
:101AA000C80126960FB6F894DEBF0FBECDBFDF91FA
:101AB000CF911F910F91FF90EF90DF90CF90BF904B
:101AC00008950E94C50A319907C08DE792E00E94EF
:101AD00052070BEF1FEFE4CF8D2D0E94D90B8C0125
:101AE00082E692E00115110509F58E2D0E943F0C4A
:101AF0001E821D82D982EA82FB8282E08C838DE481
:101B000092E00E9452076B2D7C2DCE0101960E941F
:101B100091128C0185E292E00115110539F086E3FE
:101B200092E00E9452070CEF1FEFBACF0E945207BB
:101B3000B7CFB19BFECF82E086BB809188009091A9
:101B4000890080969093890080938800089580E2B0
:101B500086BB81E593ECB59B1DC08091860090917A
:101B6000870020913E0230913F02821B930B20910F
:101B700086003091870030933F0220933E028C36DE
:101B8000910560F08C38910558F08C3B910520F45C
:101B900082E008950197F9F683E0089580E00895C2
:101BA00081E008958F929F92AF92BF92CF92DF9281
:101BB000EF92FF920F931F93CF93DF936C014A0133
:101BC0005B01E901780100E110E0F601808191817B
:101BD000A281B38188159905AA05BB0508F43EC00A
:101BE00065C00E941C0AF6014081518162817381A7
:101BF0004F5F5F4F6F4F7F4F40835183628373838B
:101C000026E030E090E0AC01022E02C055954795E9
:101C10000A94E2F74370413009F456C0423009F4A7
:101C200065C0411175C0488159816A817B81A2E0FC
:101C3000440F551F661F771FAA95D1F7416048834F
:101C400059836A837B8342E0F7015081450F4083CB
:101C5000225031092E3FFFEF3F07A9F6F70180819F
:101C6000801758F4F60180819181A281B381881593
:101C70009905AA05BB0508F4B4CFF701808182302D
:101C800008F4A3CF2EEF280FF701208388819981D4
:101C9000AA81BB8104C0B695A795979587952A958B
:101CA000D2F78170110F182B025039F7812FDF9175
:101CB000CF911F910F91FF90EF90DF90CF90BF9049
:101CC000AF909F908F900895488159816A817B8160
:101CD000F3E0440F551F661F771FFA95D1F7416057
:101CE000488359836A837B8343E0AECF488159811F
:101CF0006A817B81E4E0440F551F661F771FEA95D8
:101D0000D1F74160488359836A837B8344E09CCF49
:101D1000188219821A821B82F701108240E094CF48
:101D20005F9800C000C000005F9A08950F931F9352
:101D3000CF93DF93CFE0D0E001E010E00E94990D57
:101D4000C8010C2E02C0880F991F0A94E2F7897807
:101D50009474892B11F00E94900E219778F781E0FE
:101D600080933602DF91CF911F910F910895EF92EA
:101D7000FF920F931F93CF93DF9307E010E0E82EBD
:101D8000F12CE701002E02C0D595C7950A94E2F721
:101D9000C1700E94990D809136028C2B11F40E9423
:101DA000900E0E94990DC1110E94900EC0933602B0
:101DB0000150110930F7DF91CF911F910F91FF90E2
:101DC000EF900895FC01680F791FCA01E617F70725
:101DD00009F408952191922728E0AC01880F991FFA
:101DE00057FF04C031E2832730E193272150A9F740
:101DF000EDCF10928000E1E8F0E081E08083808107
:101E00008F7B8083808180688083EFE6F0E0808133
:101E10008F7D808308950F920FB60F921F92112429
:101E20002F933F938F939F93AF93BF93809186009F
:101E30009091870020913E0230913F02821B930BCC
:101E4000209186003091870030933F0220933E021C
:101E50008C36910508F456C08C38910508F454C0AE
:101E60008C3B910508F452C083E02091390294E044
:101E7000299F90011124822B80933902809138028E
:101E80008F5F80933802809138028430D8F080913F
:101E900039028EBD0DB407FEFDCF80913A029091BC
:101EA0003B02A0913C02B0913D020196A11DB11DE3
:101EB00080933A0290933B02A0933C02B0933D0280
:101EC0001092380280913A0290913B02A0913C021C
:101ED000B0913D02803C9043A105B10540F0809156
:101EE0006F008F7D80936F0081E080933702BF91F8
:101EF000AF919F918F913F912F911F900F900FBEA7
:101F00000F90189580E0B1CF81E0AFCF82E0ADCFE8
:101F1000CF92DF92EF92FF920F931F93CF93DF93B5
:101F2000CDB7DEB728970FB6F894DEBF0FBECDBF92
:101F300085E298E00E94520710923A0210923B020A
:101F400010923C0210923D02109239021092380217
:101F50001092370260E070E0CB010E94F209B59A5E
:101F6000809186009091870090933F0280933E027B
:101F700080916F00806280936F00789410E000E0A1
:101F800080913702811104C0043F91E01907C1F527
:101F900080916F008F7D80936F000E94060A85E11B
:101FA00098E00E94520780913A0290913B02A091E2
:101FB0003C02B0913D020E947D078CE098E00E94B7
:101FC0005207C8010E947D0787E098E00E945207EF
:101FD000043F1140F1F48EEE97E00E94520787EF24
:101FE0009FEF28960FB6F894DEBF0FBECDBFDF91EE
:101FF000CF911F910F91FF90EF90DF90CF900895B8
:102000008FE99FE00197F1F700C000000F5F1F4FBD
:10201000B7CFCE0101966C0188E0F60111928A9546
:10202000E9F760E070E0CB010E94080A80913A0273
:1020300090913B02A0913C02B0913D0204EF11E06F
:10204000853F9140A105B10540F400913A021091FD
:102050003B0220913C0230913D02F12CE12CE01634
:10206000F10649F50E94060A8FED97E00E9452079B
:1020700089819A810E947D078AED97E00E9452072C
:102080008B819C810E947D0785ED97E00E9452071D
:102090008D819E810E947D078FEC97E00E94520700
:1020A0008F8198850E947D078CEC97E00E945207F3
:1020B00090E080E096CF0E941C0A26E030E090E09D
:1020C000FC01022E02C0F595E7950A94E2F7E37051
:1020D000FF27EE0FFF1FEC0DFD1D408151814F5F6B
:1020E0005F4F51834083225031092E3F4FEF340719
:1020F00039F78FEFE81AF80AB2CF2F923F924F923A
:102100005F926F927F928F929F92AF92BF92CF9287
:10211000DF92EF92FF920F931F93CF93DF93CDB790
:10212000DEB76B970FB6F894DEBF0FBECDBF882E1B
:102130006A8B7B8B87EB97E00E945207282D30E05B
:102140003D8B2C8BC9010E947D078FEA97E00E948E
:10215000520780913A0290913B02A0913C02B091CB
:102160003D020E947D0786EA97E00E945207198689
:102170001A861B861C861D8660E070E0CB010E94DB
:10218000080A19821A821B821C8240903A025090DF
:102190003B0260903C0270903D021E861F86188AAA
:1021A000198A312C212CC12CE12CF12C912CD12C11
:1021B00089819A81AB81BC8184159505A605B705F7
:1021C00048F10E94060A89EF96E00E9452078C8926
:1021D0009D890E947D078CEE96E00E94520788EF51
:1021E0009FEF6B960FB6F894DEBF0FBECDBFDF91A9
:1021F000CF911F910F91FF90EF90DF90CF90BF9004
:10220000AF909F908F907F906F905F904F903F9096
:102210002F9008950E941C0A49815A816B817C810C
:102220004F5F5F4F6F4F7F4F49835A836B837C8330
:1022300056E0A52EB12CA82FB0E0BF8BAE8B8E89B7
:102240009F890A2C02C0959587950A94E2F78370BE
:10225000813009F4A3C0823009F4B3C08111C4C035
:1022600089859A85AB85BC8542E0880F991FAA1F96
:10227000BB1F4A95D1F7816089879A87AB87BC8756
:102280008D858E5F8D878D858F3110F0BEE1BD8786
:102290008E859F85A889B9890196A11DB11D8E875C
:1022A0009F87A88BB98B86309105A105B10560F099
:1022B000BC01CD0128E833E140E050E00E94702EDF
:1022C000672B682B692BE1F48EE997E00E94520797
:1022D0008E859F850E947D0786E997E00E945207C0
:1022E00089859A850E9474078EE897E00E945207BC
:1022F0008D8590E00E947D078BE897E00E94520751
:10230000F1107CC0E1107AC089859A85AB85BC85C7
:10231000AA27BB2789389444A105B10509F06DC0EF
:10232000D39488E797E00E9452078D2D90E00E9499
:102330007D078DE697E00E9452078E859F850E945B
:102340007D078AE697E00E945207F2E0FD1508F04B
:1023500054C01D868E01035F1F4F9E01275F3F4FB4
:10236000B301A201CE0101960E94D20D182F8CE577
:1023700097E00E945207812F0E94600789E597E04D
:102380000E9452071E3F09F47EC0FE2C1B3F99F5A8
:10239000992079F1E92C312C212C30C089859A853E
:1023A000AB85BC8533E0880F991FAA1FBB1F3A95E8
:1023B000D1F7816089879A87AB87BC878D858D5FD0
:1023C00061CF89859A85AB85BC8524E0880F991FEC
:1023D000AA1FBB1F2A95D1F7816089879A87AB878F
:1023E000BC878D858C5F4ECF19861A861B861C860E
:1023F0001D86E12CF12CD12C01C0FE2C22E0A21A6A
:10240000B1083EEFA3163FEFB30609F018CFFF2047
:10241000A1F085E0A82EB12CAC0EBD1EAC0CB11CF9
:10242000B3E0BC1508F452C089819A81AB81BC81AC
:1024300084159505A605B70550F1EE2009F4B8CE30
:102440002114F2E03F06C8F589819A81AB81BC81F5
:1024500084159505A605B70508F0AACE8E01035F81
:102460001F4F9E01275F3F4FB301A201CE0101968E
:102470000E94D20DEA89FB89E20DF31D8083EFEF04
:102480002E1A3E0ADDCFC12CFF24F394B7CF8E0164
:10249000035F1F4F9E01275F3F4FB301A201CE0193
:1024A00001960E94D20DD5018D935D01C394B8CFE2
:1024B00081E397E00E94520731C084E197E00E94D7
:1024C00052070E94060A90E080E08BCE8AE497E0F3
:1024D0000E9452078D8190E00E947D0786E497E07C
:1024E0000E9452078E8190E00E947D0782E497E06F
:1024F0000E9452071F81812F90E00E947D078EE38A
:1025000097E00E945207888590E00E947D0718118D
:10251000CFCF84E397E00E9452079F2CF12CD12C5F
:102520008CCF2F923F924F925F926F927F928F92B9
:102530009F92AF92BF92CF92DF92EF92FF920F9352
:102540001F93CF93DF93CDB7DEB728970FB6F894DC
:10255000DEBF0FBECDBF8C016F8378878DED96E017
:102560000E945207F801808190E00E947D0789ED6A
:1025700096E00E945207F801818190E00E947D0759
:1025800085ED96E00E945207F801828190E00E945A
:102590007D0782ED96E00E945207F80122808AEAC8
:1025A00096E00E945207822C912CC4010E947D0764
:1025B00084EA96E00E9452078091860090918700FD
:1025C00090933F0280933E02F0E84F2EF8E35F2E97
:1025D00066246394712C10E0C12CD12C7601FC2F61
:1025E000FB5FFE830E94A70D8130E1F1823009F488
:1025F00041C081114EC1E2E0CC0CDD1CEE1CFF1C81
:10260000EA95D1F76894C0F8D701C601AA27BB277D
:1026100089389444A105B10509F03FC11F5F13300B
:1026200008F43BC100E0B12C10E00E94A70D8130FE
:1026300049F1823091F1811113C052E0CC0CDD1CC4
:10264000EE1CFF1C5A95D1F76894C0F81E5F8FE00E
:102650008B1570F5FE0131965F010E3F09F487C0BE
:1026600010E01BC173E0CC0CDD1CEE1CFF1C7A9546
:10267000D1F7C8CF64E0CC0CDD1CEE1CFF1C6A95C2
:10268000D1F7C0CF43E0CC0CDD1CEE1CFF1C4A95FB
:10269000D1F76894C0F81D5FDACF34E0CC0CDD1CB4
:1026A000EE1CFF1C3A95D1F76894C0F81C5FCFCFA1
:1026B0001250000FD701C601012E04C0B695A79590
:1026C000979587950A94D2F78170082BB394B394A9
:1026D000123008F0BCCF9FE09B1508F0A6CFBACF10
:1026E00093E0CC0CDD1CEE1CFF1C9A95D1F768948E
:1026F000C0F81D5F31C084E0CC0CDD1CEE1CFF1C5B
:102700008A95D1F76894C0F81C5F26C01250000F5C
:10271000D701C601012E04C0B695A7959795879558
:102720000A94D2F78170082B3394339415C02FE0AC
:102730002315B8F00E94A70D813091F28230D9F2B2
:1027400081118ECF22E0CC0CDD1CEE1CFF1C2A95E3
:10275000D1F76894C0F81E5F123048F3FFE0F3151C
:10276000A8F6F50101935F01FE81FA1519F000E06A
:10277000312CE0CF8B81281273CF80E996E00E9444
:102780005207C4010E947D0789E896E00E94520723
:10279000898190E00E947D0786E896E00E945207BA
:1027A0008FEF9BE00197F1F700C0000087E00E94E7
:1027B000430AF8941092360280918400909185002B
:1027C0008096909389008093880082E086BB1CE00D
:1027D00080E00E94B70E1150D9F70E94960E0E9419
:1027E000960E0E94960E8BEF0E94B70E81EA8D83A3
:1027F0004FEF5FEF61E070E0CE0105960E94E20EC0
:10280000AC0161E070E0CE0105960E94E20EAC01E1
:1028100061E070E0CE0105960E94E20EAC018BEF04
:10282000898361E070E0CE0101960E94E20E182FCC
:10283000092FEF80F8846701EEEFDE1A5701FFEFF2
:10284000EF1AFF0AF50180810E94B70E412F502F29
:1028500061E070E0C5010E94E20E182F092FEC1410
:10286000FD0461F7892F0E94B70E812F0E94B70ED9
:1028700016E38EE40E94B70E1150D9F7789487E0E2
:102880000E94510A81EC96E00E94520790E080E09D
:1028900011C010E0C12CD12C760191E0491A5108E9
:1028A0006108710809F09ECE8AE696E00E94520700
:1028B00087EF9FEF28960FB6F894DEBF0FBECDBF0F
:1028C000DF91CF911F910F91FF90EF90DF90CF900C
:1028D000BF90AF909F908F907F906F905F904F9040
:1028E0003F902F9008950F931F93CF93DF9300D0C5
:1028F00000D000D0CDB7DEB78C0180914004882392
:1029000091F1C80196958795800F911FB0E0A0E0E6
:102910009C01AD0120533F4C4F4F5F4F2B833C83B5
:102920004D835E8322E030E0AE014F5F5F4F6B81ED
:102930007C818D819E810E942C0989819A8100FF72
:1029400010C024E0969587952A95E1F726960FB654
:10295000F894DEBF0FBECDBFDF91CF911F910F91D5
:1029600008959F70F3CF90E080E0F0CFCF93DF9396
:10297000C2E0D0E0CE010E947314892B21F4CE0175
:10298000DF91CF9108952196C1328BE0D80791F75E
:102990008FEF9FEFF5CFEF92FF920F931F93CF939F
:1029A000DF9300D000D000D0CDB7DEB77C018B0123
:1029B000809140048823C9F1C701969587958E0DB3
:1029C0009F1DB0E0A0E09C01AD0120533F4C4F4F54
:1029D0005F4F2B833C834D835E8322E030E0AE016A
:1029E0004F5F5F4F6B817C818D819E810E942C099E
:1029F00089819A81E0FE26C08F70992724E0000F1C
:102A0000111F2A95E1F7082B192B1A83098322E05D
:102A100030E0AE014F5F5F4F6B817C818D819E8185
:102A20000E94570981E08093410426960FB6F894DE
:102A3000DEBF0FBECDBFDF91CF911F910F91FF90F1
:102A4000EF9008958827907F1F70DDCFCF93DF939D
:102A500000D000D000D0CDB7DEB7809140048823ED
:102A600009F44EC080914104882309F449C021E053
:102A700030E03E832D8380ED90E3A0E0B0E08983D9
:102A80009A83AB83BC8320E032E040E452E069816A
:102A90007A818B819C810E942C0960E472E08D8197
:102AA0009E810E943408892B59F08FEF9FEF269664
:102AB0000FB6F894DEBF0FBECDBFDF91CF91089562
:102AC00060E472E08D819E8109960E94340800972F
:102AD00061F729813A814B815C813E5F4F4F5F4FA7
:102AE00029833A834B835C834D815E814F5F5F4FC7
:102AF0005E834D834A30510531F610924104D7CFA1
:102B000090E080E0D4CFFF920F931F93CF93DF9399
:102B100000D000D000D0CDB7DEB78091400488232C
:102B2000A1F08EE29AE00E9452071E821D828D81E2
:102B30009E8126960FB6F894DEBF0FBECDBFDF9103
:102B4000CF911F910F91FF90089588E09AE00E9425
:102B5000520760E472E090E080E00E94CC07892B8D
:102B600039F083EE99E00E9452078FEF9FEF73C018
:102B700083ED99E00E94520780914B0290914C02A4
:102B80000E947D078DEC99E00E94520780914D02D2
:102B900090E00E947D0786EC99E00E9452078091A8
:102BA000500290E00E947D0780EC99E00E9452075D
:102BB00080915302909154020E947D0786EB99E028
:102BC0000E945207809155020E94600783EB99E0B2
:102BD0000E94520783EA99E00E94520780915602B0
:102BE000909157020E947D078DE999E00E9452075B
:102BF00080915802909159020E947D0785E999E0E1
:102C00000E94520780915A0290915B020E947D07B8
:102C10008EE899E00E9452078091510290915202F1
:102C20000E947D0786E899E00E9452078091660223
:102C30000E94600783E899E00E94520780914B024E
:102C400090914C028115924049F08DE699E00E94E6
:102C5000520788EF9FEF9E838D8369CF809150024A
:102C6000823049F088E599E00E945207A8EFBFEF53
:102C7000BE83AD835CCF80914D02811103C084E49B
:102C800099E0E5CF80916602893209F066C08091B3
:102C9000670290916802A0916902B0916A028093E4
:102CA000420490934304A0934404B09345048BE002
:102CB000EBE6F2E0A6E4B4E001900D928A95E1F72C
:102CC0001092510486E399E00E94520786E494E052
:102CD0000E9446078AE299E00E94520780914404CC
:102CE000909145040E94740780914204909143049E
:102CF0000E94740787E299E00E9452078FEE98E0E5
:102D00000E94520789E090E00E947D0780EE98E0E3
:102D10000E94520780ED90E3A0E0B0E089839A839F
:102D2000AB83BC8301E010E0FF24FA94F00E60E472
:102D300072E0C8010E94CC078D839E83AD81BE8165
:102D4000AB2B09F180EC98E00E9452078F2D90E0A8
:102D50000E947D078DEB98E006CF109242041092FE
:102D6000430410924404109245048BE0E1E1F1E049
:102D7000A6E4B4E001900D928A95E1F71092510417
:102D800084E099E0B9CF20E032E040E452E069818C
:102D90007A818B819C810E9457090F5F1F4F898127
:102DA0009A81AB81BC819E5FAF4FBF4F89839A836D
:102DB000AB83BC830A30110509F0B6CF81E0809364
:102DC0004004109241048CEA98E00E945207AFCE72
:102DD00080914004882321F00E942615109240041F
:102DE0000895809140040895AF92BF92CF92DF92F0
:102DF000EF92FF920F931F93CF93DF93D82EC92E9C
:102E0000B62EA72E7A01809140042EEF3FEF882343
:102E100091F103E110E060E472E0C8010E94CC0788
:102E2000892B09F042C0C0E4D2E088818823D1F127
:102E3000853E69F18B8583FD2AC048E050E06D2D09
:102E40007C2DCE010E94BA2E892B09F543E050E07B
:102E50006B2D7A2DCE0108960E94BA2E9C01892BEB
:102E6000B1F4E114F10439F080E2FE01D7010190E0
:102E70000D928A95E1F7C901DF91CF911F910F91D2
:102E8000FF90EF90DF90CF90BF90AF900895A09605
:102E900084E0C034D80749F60F5F1F4F0132110597
:102EA00009F0B9CF2DEF3FEFE6CF2FEF3FEFE3CFA4
:102EB000EF92FF920F931F93CF93DF938C01F62E27
:102EC000E72E80914004811116C08EEF9FEFDF91B5
:102ED000CF911F910F91FF90EF900895253E59F0EB
:102EE00023852F3041F020E2AF2DBE2D01900D92B1
:102EF0002A95E1F7ECCFF80180819181803E910520
:102F000010F5EC01CF70DD2725E0CC0FDD1F2A95F1
:102F1000E1F734E0969587953A95E1F760E472E041
:102F200043960E94CC07009789F4FE01E05CFD4FB8
:102F3000D8012D913C9111972F5F3F4F2D933C93DA
:102F400020812111CBCF8DEF9FEFC1CF8FEF9FEF6E
:102F5000BECF8F929F92AF92BF92CF92DF92EF92AD
:102F6000FF920F931F93CF93DF93CDB7DEB7A09758
:102F70000FB6F894DEBF0FBECDBF7C016B018A0196
:102F80008AE998E00E9452075701470188E0880EBD
:102F9000911CF50181915F01803229F00E943F0769
:102FA000A814B904B1F78EE20E943F07560146010A
:102FB000A3E08A0E911CD5018D915D01803229F02C
:102FC0000E943F07A814B904B1F786E998E00E946F
:102FD0005207AE014F5F5F4FB601C7010E94F41662
:102FE0007C01892BC1F08FE798E00E945207C7014E
:102FF000A0960FB6F894DEBF0FBECDBFDF91CF9184
:103000001F910F91FF90EF90DF90CF90BF90AF9006
:103010009F908F900895F8013D9686E0DF011D9204
:103020008A95E9F781E0F80180838B8D9C8D9283EE
:103030008183948383838D8D9E8DAF8DB8A185838D
:103040009683A783B0871186128613861486118A09
:1030500088E698E00E9452078B8D9C8D0E947D0728
:1030600081E698E00E9452078D8D9E8D0E947D071B
:103070008EE598E0BACF6F927F928F929F92AF9237
:10308000BF92CF92DF92EF92FF920F931F93CF9355
:10309000DF93EC013B016A018881882309F488C031
:1030A0008989811185C08091400481117BC08EEF98
:1030B0009FEF69C08D819E8149855A8595012E19A2
:1030C0003F09841B950B2817390708F4C9014601ED
:1030D000801A910A8815990508F44C01B701605CC3
:1030E0007D4FA401C301800F911F0E94C72E080DC0
:1030F000191D89859A85AB85BC85880D991DA11DF3
:10310000B11D89879A87AB87BC87AC01BD0151701F
:1031100066277727452B462B472BA1F44D815E81EF
:103120006F81788584179507A607B70758F48B81B8
:103130009C810E9473149C01283F8FE0380710F592
:103140003C832B830C151D05E8F489859A85AB8596
:10315000BC854D815E816F81788584179507A607B0
:10316000B70780F47C0121E0F2228B819C8160E42E
:1031700072E04F960E94CC07892B09F49BCF011572
:103180001105C1F0C801DF91CF911F910F91FF9000
:10319000EF90DF90CF90BF90AF909F908F907F90F7
:1031A0006F90089510E000E0A12C82E0B82ECACF05
:1031B00089EF7ECF8FEF7CCF3F924F925F926F92DD
:1031C0007F928F929F92AF92BF92CF92DF92EF92B7
:1031D000FF920F931F93CF93DF938C012B017A0102
:1031E000FC018081882309F490C08189882309F437
:1031F0008CC08091400481117CC08EEF9FEF67C02E
:10320000F301C50111920197E9F740C0CC0DDD1D16
:10321000F80181859285A385B4858C0D9D1DA11D26
:10322000B11D81879287A387B487328A9170AA27BC
:10323000BB27892B8A2B8B2BB1F4CE15DF0598F495
:103240000E94B6146C0197FD41C0BC01F801838156
:1032500094810E94CB146FEF7FE0C6010E94CB14D3
:10326000F801D482C382CE15DF0580F5F801818490
:103270009284F1E09F228114910411F2F80183817C
:10328000948160E472E04F960E94CC07C7018C1BCA
:103290009D0B6501C818D9088C159D0508F46C01B3
:1032A000A601B2016C0F7D1FC401805C9D4F0E947E
:1032B000C72EF8018381948160E472E04F960E94EA
:1032C0003408892B09F4A2CF209709F1CE01DF91B0
:1032D000CF911F910F91FF90EF90DF90CF90BF9013
:1032E000AF909F908F907F906F905F904F903F90A6
:1032F0000895D0E0C0E080E4682E82E0782EA12C12
:1033000092E0B92E33243394AECF89EF77CF8FEF8D
:1033100075CFCF93DF93EC018881882309F44EC0E9
:103320008CE498E00E94520789859A850E947D0767
:1033300084E498E00E9452078989811124C08EE4B8
:103340000E943F078EE398E00E9452078A8981110C
:103350001CC08EE40E943F078BE398E00E94520756
:103360008989882351F18A89882339F160E472E0E0
:103370008D859E850E94CC07892B49F08FEF9FEFAA
:10338000DF91CF91089589E5DBCF89E5E3CFEF8524
:10339000F889E05CFD4F89859A85AB85BC85848F73
:1033A000958FA68FB78F60E472E08D859E850E9411
:1033B0003408892B19F70E942615188290E080E0C6
:1033C000DFCFCF92DF92EF92FF920F931F93CF93B5
:1033D000DF93182F092FD62EC72E80914004CEEFF1
:1033E000DFEF882361F083E1E82EF12C60E472E0E6
:1033F000C7010E94CC07892B61F0CFEFDFEFCE0130
:10340000DF91CF911F910F91FF90EF90DF90CF90C0
:103410000895C0E4D2E08881882309F441C0853E44
:1034200091F148E050E0612F702FCE010E94BA2E3A
:10343000892B49F543E050E06D2D7C2DCE01089697
:103440000E94BA2E892BF9F40A8D1B8DC8010297B0
:10345000863F9F4068F085EE888360E472E0C70194
:103460000E943408EC01892B41F60E942615C7CF33
:10347000C8010E9473146C0170E060E0C8010E94F2
:10348000CB148601E3CFA09684E0C034D80719F6A8
:103490002FEFE21AF20A81E2E816F10409F0A6CF52
:1034A000CDEFDFEFACCF5F926F927F928F929F92C2
:1034B000AF92BF92CF92DF92EF92FF920F931F9342
:1034C000CF93DF93CDB7DEB7A0970FB6F894DEBFEA
:1034D0000FBECDBF882E792E662E572E8A01809181
:1034E0004004882309F49BC0AE014F5F5F4F882DD5
:1034F0000E94F416892B31F4662D752D882D972D99
:103500000E94E11993E1A92EB12C60E472E0C5019B
:103510000E94CC07892BC1F08FEF9FEFA0960FB6CA
:10352000F894DEBF0FBECDBFDF91CF911F910F91F9
:10353000FF90EF90DF90CF90BF90AF909F908F90D3
:103540007F906F905F90089580E4E82E82E0F82EDF
:10355000912CF7018081811108C00E94B6146C0182
:1035600097FF17C08AEF9FEFD9CF853EB1F39394B1
:10357000F0E2EF0EF11C40E19412EBCF8FEFA81AAE
:10358000B80A91E2A916B10409F0BFCF8BEF9FEF03
:10359000C5CF6FEF7FE00E94CB1480E2F701482F88
:1035A00011924A95E9F798E0E82DF72DD70101909F
:1035B0000D929A95E1F7D701189693E0E62DF52D37
:1035C00001900D929A95E1F7F7018387D38EC28E11
:1035D000148E158E168E178E60E472E0C5010E945F
:1035E0003408009709F098CF21E0F8012083D282B7
:1035F000C182D482C38215821682178210861186F8
:10360000128613861486218B128AB686A586F0E26E
:103610009F9E90011124F801308B27877FCF8EEF7A
:103620009FEF7CCF4F925F926F927F928F929F928B
:10363000AF92BF92CF92DF92EF92FF920F931F93C0
:10364000CF93DF93CDB7DEB7A0970FB6F894DEBF68
:103650000FBECDBF782E692E562E472ED42EC52EE6
:10366000B22EA32E80914004882309F480C0AE01BD
:103670004F5F5F4F622F732F8D2D9C2D0E94F4168C
:10368000892B09F477C083E1E82EF12C60E472E025
:10369000C7010E94CC07892B09F06FC000E412E03B
:1036A000F8018081882309F45FC0853E09F44DC08C
:1036B00048E050E0672D762DC8010E94BA2E892B74
:1036C00009F043C04801F8E08F0E911C43E050E040
:1036D000652D742DC4010E94BA2E892BB1F588E0A6
:1036E000ED2DFC2DD80101900D928A95E1F783E034
:1036F000EB2DFA2DD40101900D928A95E1F760E44B
:1037000072E0C7010E94340821E030E0892B11F4F7
:1037100030E020E088279927821B930BA0960FB6F4
:10372000F894DEBF0FBECDBFDF91CF911F910F91F7
:10373000FF90EF90DF90CF90BF90AF909F908F90D1
:103740007F906F905F904F900895005E1F4F84E0D0
:103750000034180709F0A4CFEFEFEE1AFE0AF1E2E9
:10376000EF16F10409F092CF8DEF9FEFD7CF8EEFD8
:103770009FEFD4CF8CEF9FEFD1CF8FEF9FEFCECFC6
:103780000F931F93CF93DF9300D000D0CDB7DEB758
:1037900080914004882399F102E010E01A82198296
:1037A000C8010E947314892B31F429813A812F5F5B
:1037B0003F4F3A8329830F5F1F4F01323BE01307CE
:1037C00079F749815A81B0E0A0E09A01AD0189E022
:1037D000220F331F441F551F8A95D1F729833A833F
:1037E0004B835C8369817A818B819C810F900F90E0
:1037F0000F900F90DF91CF911F910F910895198233
:103800001A821B821C82EECFAF92BF92CF92DF92C0
:10381000EF92FF920F931F93CF93DF9300D000D0CE
:1038200000D0CDB7DEB78D839E8380E092E0E0E4E8
:10383000F2E0DF019C011D9221503040E1F72BEEB8
:10384000209340022CE32093410220E9209342027E
:1038500028E0EDE1F1E0A3E4B2E001900D922A95B9
:10386000E1F790934C0280934B0281E080934D02EC
:1038700081E090E090934F0280934E0282E080932B
:10388000500280EE90E0909352028093510280E4C7
:103890009BE0909354028093530280EF80935502F3
:1038A00089E090E0909357028093560282E190E085
:1038B000909359028093580282E090E090935B02CB
:1038C00080935A0289E2809366028EEE9FEFA0EC0D
:1038D000B4E68093670290936802A0936902B09364
:1038E0006A028D819E81892B09F4CCC08BE0ED8129
:1038F000FE81ABE6B2E001900D928A95E1F788E097
:10390000E2E3F1E0A6E7B2E001900D928A95E1F7DB
:1039100085E580933E048AEA80933F0460E472E088
:1039200090E080E00E943408892B09F0AFC001E0EC
:1039300010E080ED90E3A0E0B0E089839A83AB8350
:10394000BC8380E4C82E82E0D82EA12C92E0B92E50
:1039500020EFE22EFF24FA94D601F5011D92319753
:10396000E9F7013031F4E0924002F0924102F09226
:10397000420260E472E0C8010E943408892B09F019
:1039800085C060E472E0C80109960E943408892B62
:1039900009F07CC020E032E040E452E069817A81A5
:1039A0008B819C810E94570989819A81AB81BC815E
:1039B0009E5FAF4FBF4F89839A83AB83BC830F5FFA
:1039C0001F4F0A30110541F6E0E4F2E080E092E09A
:1039D000DF019C011D9221503040E1F78D819E81D5
:1039E000892BB9F088E0ED81FE81A0E4B2E001907E
:1039F0000D928A95E1F7ED81FE8180859185A28502
:103A00008093480290934902A0934A0288E08093F1
:103A10004B0260E472E083E190E00E943408892B5D
:103A2000A9F5E0E4F2E080E092E0DF019C011D9264
:103A300021503040E1F784E190E09A83898360E48B
:103A400072E089819A810E943408892BF9F4A98156
:103A5000BA811196BA83A983919789F7109240048D
:103A600026960FB6F894DEBF0FBECDBFDF91CF9183
:103A70001F910F91FF90EF90DF90CF90BF90AF908C
:103A80000C9483158BE0E6E2F1E033CF8FEF9FEFEC
:103A900026960FB6F894DEBF0FBECDBFDF91CF9153
:103AA0001F910F91FF90EF90DF90CF90BF90AF905C
:103AB00008958F929F92AF92BF92CF92DF92EF9232
:103AC000FF920F931F93CF93DF936C014B017A0109
:103AD00048E050E060E270E0C4010E94D02E43E074
:103AE00050E060E270E0C7010E94D02E56019601BE
:103AF000E90188812F5F3F4F81110BC0F6010190D2
:103B00000020E9F731978F010C191D09D0E0C0E0C2
:103B100007C08E3269F78E010C191D09209771F3C9
:103B20000930110514F008E010E06401912C812C9B
:103B30008016910614F12097A9F12196DE010D90CF
:103B40000020E9F711978701AC1BBD0BA430B1052C
:103B500014F0A3E0B0E0EA0EFB1E0E151F05D1F431
:103B6000DF91CF911F910F91FF90EF90DF90CF9059
:103B7000BF90AF909F908F900895F50181915F0164
:103B800090E00E94B22EF60181936F01FFEF8F1A31
:103B90009F0ACECF899190E00E94B22EF8018193C6
:103BA0008F01DBCF83E0EBE3F1E0D70101900D92D1
:103BB0008A95E1F7D5CF8F93549A5C9881E08093F2
:103BC00053048F91189553985B9A54985C9A089572
:103BD000FC011082549A5C988FE391E00197F1F711
:103BE00000C0000081E197E24B9B18C054985C9A9A
:103BF00090E080E061E070E021E137E24B9918C08D
:103C00004C9B09C02081AB01082E01C0440F0A94CF
:103C1000EAF7242B208321E137E21BC025E02A9517
:103C2000F1F70000019701F754985C9A80E008953D
:103C300045E04A95F1F7000021503109F9F60E945C
:103C4000E31DF4CF45E04A95F1F70000215031091A
:103C5000B1F34B9BF7CF01968830910569F6549AE2
:103C60005C988FE891E00197F1F700C0000081E0D7
:103C70000895FC01DB0110821C9254985C9A89EC37
:103C800090E04B9B16C025E02A95F1F700000197C4
:103C900009F581E08C93549A5C988FEE90E001973F
:103CA000F1F700C0000054985C9A81E197E24B99CB
:103CB00007C090E080E061E070E021E137E214C0ED
:103CC00025E02A95F1F70000019789F70E94E31D8E
:103CD00080E008954A99D5CFF9CF45E04A95F1F7AC
:103CE00000002150310991F34B99F7CF4C9B09C04B
:103CF0002081AB01082E01C0440F0A94EAF7242B5F
:103D0000208321E137E207C045E04A95F1F7000042
:103D100021503109D9F24B9BF7CF0196883091059C
:103D200061F6549A5C9881E00895539A5B98549890
:103D30005C9AEFE3F1E03197F1F700C0000021E178
:103D400037E24C9B45C0662391F053985B9A21E182
:103D500037E24C9949C021E137E24C9B4EC0539A5F
:103D60005B98EFE3F1E03197F1F700C0000030E03D
:103D700020E090E0AC01022E02C0559547950A94D0
:103D8000E2F740FF43C054985C9AEFEEF0E03197C1
:103D9000F1F700C0000053985B9AEFEEF0E0319726
:103DA000F1F700C00000539A5B982F5F3F4F283017
:103DB000310501F754985C9A81E197E24C9929C04A
:103DC0008FE891E00197F1F700C0000081E00895CD
:103DD000F5E0FA95F1F700002150310911F480E087
:103DE00008954A99AECFFBCF95E09A95F1F7000080
:103DF0002150310909F0ADCFF2CFE5E0EA95F1F7B6
:103E000000002150310909F0A8CFE9CF549A5C98FD
:103E1000BCCFF5E0FA95F1F70000019779F6DFCF16
:103E2000EF920F931F93CF93DF938093370590E327
:103E3000E92E08E315E00E945822EC018034910538
:103E400014F0C0E4D0E0AE01552768E375E084EFDC
:103E500094E00E94C72EC09334051092350510924D
:103E60003605DF91CF911F910F91EF900895CF9379
:103E7000C82F84E19DE00E9452078C2F90E00E94A1
:103E80007D0781E19DE00E945207C0935404109287
:103E9000560410925504109253048AB1837C8AB957
:103EA0008BB18C638BB9809169008C7F8260809329
:103EB000690081E08CBBE89AC9B181E09DE00E9475
:103EC00052078CE4C2FD88E40E943F078BEF9CE020
:103ED0000E9452078CE4C3FD88E40E943F0784EFF0
:103EE0009CE00E9452078CE4C4FD88E40E943F07D6
:103EF0008EEE9CE00E9452078CE4C5FD88E40E948F
:103F00003F078BEE9CE00E945207E9E5F4E08EED5E
:103F1000DF011D928A95E9F720E040E06FE371E050
:103F200089E4CF910C94101FCF93DF93EC01DB0158
:103F3000E091350580913405E81730F081E08C93ED
:103F400080E0DF91CF91089581E08E0F8093350559
:103F5000F0E0E853FB4F84A5888381E0209135058C
:103F600090913405291708F480E08C9381E0E9CF23
:103F7000CF92DF92EF92FF920F931F93CF93DF9335
:103F800000D00F92CDB7DEB7809152044D9923C077
:103F9000811115C081E08093520483EB9CE00E9464
:103FA000520710925604109255040E94E31D0E947D
:103FB0005E0B0E94E8160E9448220E9441290F9041
:103FC0000F900F90DF91CF911F910F91FF90EF9085
:103FD000DF90CF900895882309F45BC010925204BB
:103FE0008DE89CE00E9452070E94C50A0E946C0B5B
:103FF000892B91F08BE79CE00E94520720E040E083
:1040000061E071E08AE40E94101F85E090E00E9468
:10401000FD2D0E945E0BD3CF8AE69CE00E945207E2
:104020000E94A60B81110EC081E59CE00E94520700
:1040300020E040E061E071E08AE40E94101F86E029
:1040400090E0E5CF8AE39CE00E9452070E9483152E
:10405000892B79F489E29CE00E9452070E945E0B52
:1040600089EF9BE00E94520790E080E00E94FD2DC6
:10407000A6CF84E19CE00E94520720E040E061E08E
:1040800071E08AE40E94101F86E090E00E94FD2DFE
:10409000E5CF4A9B41C08091550490915604029708
:1040A00009F08DCFAE014F5F5F4FBE016E5F7F4F56
:1040B000809157040E94C625882359F10E943C290B
:1040C000FC0169818A81309709F10680F781E02D32
:1040D0003097E1F0099581110AC08FED9BE00E94B5
:1040E000520710925604109255040E94E31D8981D4
:1040F000882309F464CF87EC9BE00E94520710925A
:104100005604109255040E94E31D59CF0E94951E3B
:10411000E2CF88EA9BE0F1CF0E94AF2D8CE99BE0D3
:104120000E945207549A5C9882E0E82EF12CCC242D
:10413000C394D12C4A990AC0CE0103960E94E81D6F
:10414000811142C081E89BE00E9452070E94B12D7C
:1041500080915504909156040297D1F489ED9AE02C
:104160000E9452070E940F290E943C298C0100974F
:1041700079F0DC011A968D919C91892B49F081ECA4
:104180009AE00E945207D8011A96ED91FC91099588
:104190008091550490915604019709F010CF84EA5C
:1041A0009AE00E9452078091570490E00E947D0798
:1041B00081EA9AE00E94520711E04A99C6C087E856
:1041C0009AE00E945207FBCE84E79BE00E945207D0
:1041D0008B810E9460078B818F3361F588E69BE0BD
:1041E0000E9452078091550490915604019709F05E
:1041F000A1CF809157048F30C1F46091C50466232C
:1042000059F0E62FF0E0EC5AFB4F11AA85E894E054
:104210000E94AD271092C5041092560410925504C6
:104220000E94E31D0E94412985CF8130A9F70E9499
:10423000AC25F2CF8F3561F48EE59BE00E945207EA
:104240008091550490915604029709F073CFE4CF02
:10425000182F1F71982F907E9032C9F484E59BE04F
:104260000E945207812F90E00E947D0781E59BE02C
:104270000E9452078091540481135CCFD09256045F
:10428000C09255048DE39BE00E94520753CF9034B7
:10429000B9F485E39BE00E945207812F90E00E94D1
:1042A0007D0782E39BE00E945207809154048113B2
:1042B00041CFF0925604E092550480E29BE0E4CFB7
:1042C000982F907F903651F5182F1F7086E19BE054
:1042D0000E945207812F90E00E947D0783E19BE0BE
:1042E0000E945207109357048091550490915604F0
:1042F0008130910529F41092C5041092C6041ACF9A
:10430000029709F017CF54985C9A8FE391E00197D8
:10431000F1F700C00000539A5B980CCF903E91F4E7
:10432000182F1F7088E09BE00E945207812F90E0B9
:104330000E947D0785E09BE00E945207812F0E942A
:10434000AC25F8CE8FEF9AE09FCFBE016F5F7F4F15
:10435000CE0102960E94391E811103C08EE69AE0BA
:1043600030CF8091570490915904911136C08F300D
:10437000A1F1E0918404E93248F48A8191E09E0F32
:1043800090938404F0E0EC5AFB4F86838981882364
:1043900009F413CFE0918404F0E0EC5AFB4F16824D
:1043A0008DE59AE00E9452078AE594E00E94460754
:1043B00089E59AE00E945207409184046AE574E01E
:1043C000809157040E947A2210935904898188238E
:1043D00009F4F3CE86E49AE0F4CEE091C5046A8154
:1043E000E03440F491E09E0F9093C504F0E0EC5A65
:1043F000FB4F61AB0E949427E9CF8091530488233F
:1044000041F0109253048DEC9CE00E9452070C94F2
:10441000B81F08950F931F93CF93DF93CDB7DEB7E7
:10442000CC52D4400FB6F894DEBF0FBECDBF8C0186
:104430009C01AE01435D5D4F60ED78E580E090E06A
:104440000E942C092CE232E0AE014F5F5F4FB801B1
:10445000CE01835D9D4F0E94912D8C011816190687
:1044600054F49C01AE014F5F5F4F60ED7AE580E050
:1044700090E00E945709C801C45DDB4F0FB6F89465
:10448000DEBF0FBECDBFDF91CF911F910F91089579
:10449000E5E7F5E083E1DF011D928A95E9F71092E7
:1044A000700520E040E06FE371E089E40C94101F98
:1044B000EF920F931F931F922F931F924F937F930F
:1044C0006F931F928F938DE491E09F938F931F9230
:1044D000EF921F930F930E94E22E2DB73EB7225FFB
:1044E0003F4F0FB6F8943EBF0FBE2DBF1F910F91E7
:1044F000EF9008957F928F929F92AF92BF92CF924A
:10450000DF92EF92FF920F931F93CF93DF93CDB77C
:10451000DEB7C356D1090FB6F894DEBF0FBECDBFCC
:10452000182F7B01042F8EE09EE00E945207812FFE
:1045300090E00E947D0786E09EE00E94520767019E
:104540004701800E911C8C149D04E1F582E09EE0F1
:104550000E945207FE01EF5AFF4F1192119287E01D
:10456000DF011D928A95E9F76C961FAE1EAE6C971F
:104570006E961FAE1EAE6E97123078F40E94F11642
:10458000811126C08AEE9DE00E94520720E040E0A3
:1045900061E071E08AE40E94101FCD59DF4F0FB631
:1045A000F894DEBF0FBECDBFDF91CF911F910F9169
:1045B000FF90EF90DF90CF90BF90AF909F908F9043
:1045C0007F900895D6018D916D010E943F07BBCF6A
:1045D00011111DC2013009F01AC2F7018081843225
:1045E00009F015C286ED9DE00E945207098384E020
:1045F0008A8322E030E0AE014F5F5F4F60ED76E4EA
:1046000080E090E00E9457091B821C8282E18D832A
:1046100082E28E83E9E6F1E0DE01179689E791E018
:1046200021912D938E179F07D9F782E28F8B80E21D
:10463000888FEAE7F1E088E1919121E0280F482F87
:1046400050E09111B5C0E1E0F0E0EC0FFD1F4E0F1E
:104650005F1FDA011C9230E07901B2E0EB0EF11C31
:104660008C5F8983C9018D5F9B4F9A83AF0162ED97
:1046700076E480E090E00E945709A0961FAE1EAE3F
:10468000A09730E2C32E42E2B42E0FE010E0BE014C
:104690006F5C7F4FCE01825A9F4F0E945817AC012A
:1046A000892B31F468EFE6166FE0F60608F48BC04C
:1046B0000E94C01BA4966CAF7DAF8EAF9FAFA49736
:1046C000BB27A92F982F872F19821A828B839C834F
:1046D000A1E8B1E084E09D9161E0680F282F30E00F
:1046E00091118BC188248394912C8C0E9D1E280DD2
:1046F000391DD9011C92F401E60FF11D1082E2E090
:10470000E80F88248394912C8C0E9D1E8E0E911C94
:10471000F40110828D5F082F10E0B0E0A0E0970157
:10472000AD012053394B4F4F5F4FA4962CAF3DAF97
:104730004EAF5FAFA4979801AE014F5F5F4FA49655
:104740006CAD7DAD8EAD9FADA4970E9457090E0D47
:104750001F1D10937405009373051092720510923B
:10476000710511E01093700587EC9DE00E945207DF
:1047700080917305909174050E947D0784EC9DE003
:104780000E94520710926F0510926E0510926D05EF
:1047900010926C0510926B0510926A0510936905D2
:1047A0001092680520E040E06EE871E080E0F3CE12
:1047B00088248394912C8C0E9D1E480D591DDA017E
:1047C0009C93822F39CF6CAD63FD61CF61968CAD28
:1047D0009DADAEADBFAD619781509F4FAF4FBF4F05
:1047E000892F9A2FAB2FBB279C0119821A82009721
:1047F00011F481E090E09C838B832A30310508F02E
:104800003EC0CD82A5E0E1E0EA0F88248394912C9C
:104810008C0E9D1E8A0E911CD401CC9291E09E0FAD
:10482000A1E0B0E0AC0FBD1FAE0FB11DFD01C08215
:1048300081E0890FE1E0F0E0EC0FFD1FE90FF11DD1
:10484000B08228E030E0722F732E21503109E1E36D
:10485000F0E0EC0FFD1FE20FF31FE081E032D1F03A
:10486000FE01F1969E5F970F282FAA24A394A20E13
:1048700030E09A11A5C0870F272F372D0EC02436A0
:10488000310510F4A4E0BFCF94E0283E334080F619
:10489000E4E0C4CF21153105B1F699AD7BAD70329E
:1048A00009F09AC07AAD703209F099C0903221F1C6
:1048B00041E050E091E0980F7EE2E1E0F0E0EC0FA3
:1048C000FD1FE80FF11D7083DE01D996792F740F5B
:1048D000DD90E92F9F5F88248394912C8C0E9D1E80
:1048E0008E0E911CF401D0829713F2CF840F8F5F4C
:1048F000FA0131962E0F3F1F91E0980FE1E0F0E0B2
:10490000EC0FFD1FE80FF11DB08271E1780F721BF3
:10491000E92F9F5FA1E0B0E0AC0FBD1FAE0FB11D4E
:10492000FD01C0829713F4CF8E5FF801E21BF30BF9
:10493000D82EDE0EE1E6F1E064FD11C043305105F2
:1049400061F443E050E065E671E0CE01C9960E9453
:10495000BA2EE5E6F1E0892B11F0EBE3F1E03191BD
:1049600021E02D0D8D2D90E031113CC0E1E0F0E013
:10497000EC0FFD1F8E0F9F1FDC011C9230E04901E0
:104980008E0C9F1CC4018F5F9B4F9A838983B0E07C
:10499000A0E0A701BD014053594B6F4F7F4FA49634
:1049A0004CAF5DAF6EAF7FAFA497AF01A4966CAD77
:1049B0007DAD8EAD9FADA4970E945709740167CE5F
:1049C000D19088248394912C8C0E9D1E280D391D26
:1049D000D901DC922A2D49CF43E050E06BCF42E071
:1049E00050E068CF88248394912C8C0E9D1E880DF6
:1049F000991DDC013C93D22EB2CFE1E0F0E0EC0F48
:104A0000FD1F2E0F3F1FF9019083862F64CEAE014C
:104A1000465A5F4FBE016F5A7F4FC7010E94591D12
:104A200084EB9DE00E945207AE014F5A5F4F7A011E
:104A30006A0158E0C50ED11CD7018D917D010E94FD
:104A40003F07CE14DF04C1F780EB9DE00E945207C0
:104A50006B968FAD6B970E943F076C968FAD6C97EE
:104A60000E943F076D968FAD6D970E943F078CEABD
:104A70009DE00E945207111126C08FE99DE00E941F
:104A8000520745E755E0BE01665A7F4FCE018F5A67
:104A90009F4F0E94A9178C01892B09F440C089E817
:104AA0009DE00E94520788279927801B910B0E9446
:104AB0007D0786E89DE00E94520720E040E061E922
:104AC00071E08EE368CD89E79DE00E94520745E7DB
:104AD00055E0BE01665A7F4FCE018F5A9F4F0E940C
:104AE000531A8C01892BD9F08CE59DE00E94520766
:104AF00088279927801B910B0E947D0789E59DE0FF
:104B00000E94520720E040E060EA71E088E40A3F3A
:104B10001F4F09F440CD6AEA71E089E13CCD109263
:104B20006F0510926E0510926D0510926C05109233
:104B30006B0510926A0581E0809369051092680503
:104B400020E040E06EE871E080E00E94101F89E400
:104B50009DE00E94520721CDCF93C82F89E39DE0AD
:104B60000E9452078C2F90E00E947D0786E39DE013
:104B70000E94520780917505882321F085E795E012
:104B80000E94891910927005CF910895BF92CF921B
:104B9000DF92EF92FF920F931F93CF93DF9300D09A
:104BA00000D000D0CDB7DEB7082F6B017A01FA0133
:104BB00010820E946B2D182F882309F44CC10F30EE
:104BC00009F44BC1F701108280916A0590916B0541
:104BD00020916C0530916D058217930740F5B0E088
:104BE000A0E09C01AD012053354A4F4F5F4FCA01F1
:104BF000B9010E948109F601808380916A05909134
:104C00006B05019690936B0580936A0520916C0566
:104C100030916D058217930708F446C080916805AE
:104C2000882309F441C081E0F70180833DC0B09042
:104C30006805BB2029F081E0F701808310E034C0D3
:104C400000916905011181C01A82198222E030E0C9
:104C5000AE014F5F5F4F60ED7AE580E090E00E942B
:104C6000570982E090E090936D0580936C05109257
:104C70006B0510926A0501E00093680560ED7AE526
:104C800080E090E00E948109F601808381E090E05D
:104C900090936B0580936A0580916C0590916D05EA
:104CA000029710F4F7010083812F26960FB6F8942F
:104CB000DEBF0FBECDBFDF91CF911F910F91FF904F
:104CC000EF90DF90CF90BF900895B0E0A0E09C01FE
:104CD000AD012053394B4F4F5F4F2B833C834D83A6
:104CE0005E8321E030E0AE014F5F5F4F6B817C81DE
:104CF0008D819E810E942C09809171059091720591
:104D00000196909372058093710580916E05909144
:104D10006F05B0E0A0E09C01AD012053374A4F4F32
:104D20005F4F2B833C834D835E8349816B817C8104
:104D30008D819E810E949A0980916E0590916F05E8
:104D4000019690936F0580936E0580916E0590910A
:104D50006F058115924088F4809170058823C1F118
:104D600080917105909172052091730530917405C1
:104D70008217930708F4A9CFB02E80916E05909109
:104D80006F050097B1F10E940A22181619060CF05F
:104D900052CF90936D0580936C0510926B05109225
:104DA0006A0510926F0510926E05B1101092690598
:104DB00060ED7AE580E090E00E948109F601808351
:104DC00081E090E090936B0580936A05102F6CCF83
:104DD00080917505882381F241E050E0BE016F5F4C
:104DE0007F4F85E795E00E943B18019709F48DCF2E
:104DF000C3CF1A82198222E030E0AE014F5F5F4FCD
:104E000060ED7AE580E090E00E94570982E090E052
:104E100090936D0580936C0510926B0510926A0556
:104E20001092690581E08093680560ED7AE580E085
:104E300090E00E948109F601808381E090E09093E8
:104E40006B0580936A0580916C0590916D050297C2
:104E500008F02ACFE8CE0F3031F4B701C6010E9426
:104E6000941F182F21CF0111E6CE10917005112348
:104E700081F18091710590917205B0E0A0E09C01F4
:104E8000AD012053394B4F4F5F4F2B833C834D83F4
:104E90005E8321E030E0A6016B817C818D819E8163
:104EA0000E942C0980917105909172050196909352
:104EB00072058093710520917305309174058217F6
:104EC000930708F4F1CE81E0F7018083109270051A
:104ED000EBCE10917505112309F4ADCE41E050E001
:104EE000BE016F5F7F4F85E795E00E943B180197F9
:104EF00009F0A1CE8981F601808340917E05509111
:104F00007F05609180057091810580917A0590916F
:104F10007B05A0917C05B0917D05481759076A076C
:104F20007B0708F4C1CE7FCECF93DF930F92CDB72E
:104F3000DEB76983813069F480917505882349F073
:104F400041E050E0BE016F5F7F4F85E795E00E9432
:104F5000DC180F90DF91CF910895AF92BF92CF925E
:104F6000DF92EF92FF920F931F93CF93DF93CDB712
:104F7000DEB7C754D1090FB6F894DEBF0FBECDBF60
:104F80006C01162F662309F49AC089E29DE00E9405
:104F9000520776015601A10EB11CEA14FB0409F078
:104FA0004AC085E29DE00E945207012F1A3208F0A4
:104FB00009E2E02EF12CA701B601CE0101960E9474
:104FC000C72E81E090E08C0F9D1FE80EF91EF701BF
:104FD00010826C01F60181916F0190E00E94B22E67
:104FE000F60131978083EC14FD04A1F7602FCE0108
:104FF00001960E948B2A811162C0602FCE0101961A
:105000000E94FE2A81115BC0602FCE0101960E9492
:10501000422D882309F168E070E0CE018B960E9452
:105020006E2D181619066CF420E040E0BE01655D97
:105030007F4F80E042C0F70181917F010E943F07CE
:10504000ACCF0E946B2D20E040E066EB71E0811157
:10505000F0CF6EE871E0EDCF8981823509F441C06F
:1050600064F4893409F4B7C08E3409F47EC020E0BA
:1050700040E065ED71E08EE120C08335C1F713306B
:10508000B0F38A818A3399F7AE01495C5F4FBE0164
:10509000655D7F4FCE0103960E94591DBE01695C7C
:1050A0007F4FCE018B960E94E11920E0892B09F0F9
:1050B00051C041E065EC71E081E00E94101FC95BC6
:1050C000DF4F0FB6F894DEBF0FBECDBFDF91CF919B
:1050D0001F910F91FF90EF90DF90CF90BF90AF9016
:1050E0000895133060F38A818A3349F76DE370E0E5
:1050F000CE0103960E94D72E009709F4B8CFFC0189
:1051000011928F01AE014C5B5F4FBE01695C7F4F16
:10511000CE0103960E94591DAE01405C5F4FBE0157
:10512000655D7F4FC8010E94591D9E012C5B3F4F5A
:10513000AE01495C5F4FBE01605C7F4FCE018B9634
:105140000E94121B009719F420E040E082CF0396E2
:1051500031F420E040E061E971E08EE3AECF20E081
:1051600040E062EE71E08FE3A8CF133058F18A81FE
:105170008A3341F54BE050E060E270E0CE018B965F
:105180000E94D02E1EAABE016D5F7F4FFB010190D1
:105190000020E9F7AF0141505109461B570B4C3035
:1051A000510514F04BE050E0CE018B960E94C72EC3
:1051B000CE018B960E94041C892B39F46EE871E0B5
:1051C00080E006C090E080E0F5CF6AEA71E089E116
:1051D00020E040E072CF0E94E8160E948315892BE0
:1051E00069F361E071E08AE4F3CF10928A051092CE
:1051F00089051092880508959C01892B79F0E0912A
:105200008A05E43058F481E08E0F80938A05F0E03F
:10521000EE0FFF1FE557FA4F3183208308951F9348
:10522000CF93DF9310E080918A05181738F0109221
:1052300089051092880590E080E018C0C12FD0E069
:10524000CC0FDD1FC557DA4FE881F9810480F58165
:10525000E02D309779F00995882361F0E881F98194
:10526000F0938905E093880580819181DF91CF914A
:105270001F9108951F5FD7CF809188059091890570
:10528000089510928905109288050895CF93DF93B1
:10529000FC01DB0110821C9254985C9A89EC90E02E
:1052A0004B9B17C04C9B15C025E02A95F1F70000D9
:1052B000019709F04AC081E08C93549A5C9885E488
:1052C0008A95F1F7000054985C9A81E197E24B9936
:1052D00030C090E080E029B139B123FB222720F9CA
:1052E000C22FB0E0DB2FBE01082E01C0660F0A946A
:1052F000EAF72081262B34FB442740F950E0BC011B
:105300006F5F7F4FDA0102C0AA0FBB1F6A95E2F7F9
:105310002A2B2083B5E4BA95F1F700000296883075
:105320009105C9F6549A5C9820EA2A95F1F781E034
:1053300009C04C9BCECFA5E0AA95F1F700000197DC
:1053400031F680E0DF91CF9108954A99A9CFF9CF46
:10535000539A5B988FE391E00197F1F700C000004A
:1053600008954C9B15C080E012C085E08A95F1F746
:1053700000002F5F3F4F233781E03807A1F34C9B9C
:10538000F4CF285C310981E02937310560F70895B1
:1053900030E020E0F4CF662331F0EFE1F3E0319725
:1053A000F1F700C0000021E137E24C9B33C030E050
:1053B00020E090E0A9014F5F5F4FBC0102C07595EE
:1053C00067954A95E2F7AB014170BC01022E02C01D
:1053D000759567950A94E2F760FF25C053985B9A2C
:1053E000442321F154985C9A75E47A95F1F7000012
:1053F0002E5F3F4F28303105E9F653985B9A549859
:105400005C9A81E197E24C9914C0F0EAFA95F1F7C1
:1054100081E00895F5E0FA95F1F700002150310997
:1054200021F680E00895539A5B98DACF549A5C98FD
:10543000DBCFE5E0EA95F1F70000019721F7F1CF26
:105440008CE092E00C94FC288091930581111092DD
:1054500093050895089530E020E090E0AC01022E1D
:1054600002C0559547950A94E2F740FF1BC0549837
:105470005C9A45E14A95F1F7000053985B9A4AE23D
:105480004A95F1F700C0539A5B982F5F3F4F283041
:10549000310521F754985C9A8AE68A95F1F700C0A5
:1054A00081E00895549A5C98E4CFFC011082DB01FE
:1054B0001C9290E080E061E070E021E137E207C0FB
:1054C000B5E0BA95F1F7000021503109F1F04B9B9E
:1054D000F7CF4C9B09C02081AB01082E01C0440FBF
:1054E0000A94EAF7242B208321E137E24B9906C086
:1054F00001968830910509F781E0089545E04A95C5
:10550000F1F700002150310989F780E0089588E122
:1055100092E00C94FC28FC01623050F080818535CB
:1055200039F48181803321F481E0809393050895DB
:1055300080E0089580919505811110929505089558
:1055400080E00895089521E137E24B993AC0549ADA
:105550005C986AE66A95F1F700C030E020E090E0E0
:10556000A9014F5F5F4FBC0102C0759567954A95D1
:10557000E2F7AB014170BC01022E02C07595679540
:105580000A94E2F760FF29C053985B9A442341F1E3
:1055900054985C9A7AE47A95F1F700C02E5F3F4FF9
:1055A00028303105E9F654985C9A53985B9A81E16A
:1055B00097E24B9B18C045E84A95F1F7000081E05F
:1055C000089545E04A95F1F700002150310911F4A2
:1055D00080E008954A99B9CFFBCF539A5B98D6CF14
:1055E000549A5C98D7CF25E02A95F1F700000197EF
:1055F00001F7EECF84E292E00C94FC28FC016330CA
:10560000A0F080818D3489F481818D3271F48281A2
:10561000873559F4809194058F5F8093940583308A
:1056200030F081E080939505089580E0089581E051
:1056300008952F923F924F925F926F927F928F9236
:105640009F92AF92BF92CF92DF92EF92FF920F9311
:105650001F93CF93DF93CDB7DEB7CC50D2400FB6B8
:10566000F894DEBF0FBECDBF5C018B011A01C901EA
:105670006115710509F45BC1FE01319620E032E04D
:10568000DF01A9011D9241505040E1F7D501A60F5D
:10569000B71FCB5FDD4FB983A883C550D2401597A4
:1056A000C55FDD4FB983A883CB50D240CB5FDD4FC0
:1056B00028813981C550D24024503109C95FDD4F5E
:1056C00039832883C750D240A101480F591FC75FB3
:1056D000DD4F59834883C950D24064307105ECF0E6
:1056E000D5012D913D914D915C9161EB79E787E377
:1056F0009EE90E94382ECF5FDD4F688379838A83CD
:105700009B83C150D240892F9927AA27BB27880F96
:10571000991FE80FF91F118210824501BFEF8B1A04
:105720009B0A8101F5017401C95FDD4F2881398130
:10573000C750D2402E153F0508F04AC0CB5FDD4F61
:10574000E880F980C550D240EE1AFF0A1E141F04EB
:10575000E4F570E060E0BFE0EB16F10444F0C7014F
:105760000F976FEF70E00E945C2E6F5F7F4F6F5F4F
:105770007F4F6E0D7F1D600F711FC75FDD4F28814A
:105780003981C950D2402617370708F4CEC06801C6
:105790003FEFC31AD30A8E2D40E1E416F1040CF05A
:1057A0008FE08295807FD8018C93C7010F974FEFD0
:1057B000BFE0EB16F1040CF056C1A701BF01C60112
:1057C0000E94C72E86010E0D1F1D02191309AFC0BE
:1057D000D7014D905D906D907C90A301920161EB9B
:1057E00079E787E39EE90E94382ECF5FDD4F68831B
:1057F00079838A839B83C150D240892F9927AA2716
:10580000BB27880F991F21E030E02C0F3D1F820F2E
:10581000931FDC01CD90DC901197CA0CDB1C970123
:105820002A193B092D933C9397012C193D09CF5F11
:10583000DD4F39832883C150D240EC14FD0481F040
:10584000C701821B930B8A159B0550F0D6014D9121
:105850005D916D917C91441655066606770621F0A0
:10586000BFEFEB1AFB0A60CFC114D10409F466CF75
:10587000C701049634E0C30ED11C4C01C55FDD4F57
:1058800048815981CB50D2408417950740F4019646
:10589000D6012D916D01D4013C91321771F3640151
:1058A000CE18DF08EE1AFF0A3701B0E1EB16F1045B
:1058B0001CF05FE0652E712CC60124E1C216D104F4
:1058C00014F083E190E02C0134E0431A510830E0F9
:1058D00020E04FE0E416F1044CF0C7010F976FEFA2
:1058E00070E00E945C2E9B012F5F3F4F70E060E0F4
:1058F00053E1C516D10444F0C60143976FEF70E041
:105900000E945C2E6F5F7F4F2E0D3F1D2D5F3F4F1E
:10591000260F371F200F311FC75FDD4F8881998108
:10592000C950D24082179307E8F40FEF1FEFC80168
:10593000C45FDD4F0FB6F894DEBF0FBECDBFDF9161
:10594000CF911F910F91FF90EF90DF90CF90BF907C
:10595000AF909F908F907F906F905F904F903F900F
:105960002F90089544E0660C771C4A95E1F764286F
:10597000D8016D928D01C7010F97BFE0EB16F104BE
:105980000CF059C0A701BF01C8010E94C72E0E0D1F
:105990001F1DF801CF5FDD4F28813981C150D240F2
:1059A000219331938F0133E1C316D1046CF043E1AD
:1059B000C41AD108C80101962FEFC216D1040CF009
:1059C00044C0D801CC928C01C95FDD4FE881F981D8
:1059D000C750D240E815F90508F43FC0D4012D9115
:1059E0003D914D915C9161EB79E787E39EE90E94DF
:1059F000382ECF5FDD4F688379838A839B83C150C4
:105A0000D240892F9927AA27BB27880F991FE1E049
:105A1000F0E0EC0FFD1F8E0F9F1F94012A193B0928
:105A2000DC012D933C93F4017ECE4FEFD8014C93D3
:105A30008F5F9109890198012F5F3F4F8F3F91053B
:105A4000A4F7D8018C9389019DCFEFEFD801EC9397
:105A5000FFEFCF1AD1088C01ADCFF4016FCE4C937C
:105A60008F5F9109690196012F5F3F4FD6018F3FEC
:105A70009105ACF78C936901A0CE10929705109216
:105A800096050895FC01643090F080818F7D883503
:105A900071F481818F7D8A3551F482818A3339F4A2
:105AA00083819FE9980F9A3120F4833781F080E059
:105AB0000895813341F0833551F08033C1F710925E
:105AC000970581E0089581E080939705089581E02E
:105AD000809396050895809197050895CF93DF935D
