:100000000C9425070C94271E0C9442070C9442076D
:100010000C9442070C9442070C9442070C9442073C
:100020000C9442070C9442070C94640E0C94420703
:100030000C9442070C9442070C9442070C9442071C
:100040000C9442070C9442070C9442070C9442070C
:100050000C9442070C9442070C9442070C944207FC
:100060000C9442070C94420752656164792E0D0A84
:10007000004D6F756E74206661696C65640D0A00D1
:100080004641543132204F4B0D0A004D6F756E744E
:100090002046415431322E2E2E0D0A004E6F206420
:1000A00069736B20696E2064726976650D0A00447D
:1000B00072697665204F4B0D0A004E6F206472699D
:1000C0007665210D0A00466C6F70707920696E6943
:1000D000742E2E2E0D0A00436F6D7072657373209F
:1000E0004F4B0D0A00466173746C6F6164204F4B77
:1000F0000D0A00494543206465766963652023380D
:100100000D0A0037344843353935204F4B0D0A006E
:100110005352414D204F4B0D0A000D0A3D3D3D20ED
:1001200036346B6F727070752076312E3020284E09
:10013000616E6F2B5352414D29203D3D3D0D0A000C
:100140000D0A0020455252005B4449534B5D207715
:10015000726974652072633D000D0A0020523D00F3
:1001600020533D0020543D005B4449534B5D2077B4
:1001700072697465204C42413D000D0A00204552D1
:1001800052005B4449534B5D207265616420726389
:100190003D000D0A0020523D0020533D0020543DFB
:1001A000005B4449534B5D2072656164204C4241C1
:1001B0003D003031323334353637383941424344EB
:1001C000454600204641494C210D0A00204F4B0D69
:1001D0000A002072656164203078005B5352414D03
:1001E0005D20746573743A2077726F74652030787F
:1001F000005B5352414D5D20696E69742053504934
:100200002E2E2E0D0A00202F4F453D4F4E0D0A0079
:100210005B53525D2064656661756C743D30780097
:100220005B53525D20696E69740D0A005B464C5049
:100230005D207772697465204F4B0D0A005B464C58
:10024000505D204D464D20777269746520464149C6
:100250004C0D0A005B464C505D204D464D20777298
:100260006974652E2E2E0D0A005B464C505D20777A
:10027000726974653A207365656B206661696C65A7
:10028000640D0A005B464C505D20777269746520EE
:100290004552523A2077726974652070726F7465A6
:1002A00063746564210D0A005B464C505D207772D3
:1002B000697465204552523A206261642073656317
:1002C000746F720D0A000D0A0020523D0020533D4C
:1002D000005B464C505D20777269746520543D0088
:1002E0000D0A005B464C505D2072656164204F4BE7
:1002F0002C2066697273742062797465733A2000E9
:100300005B464C505D204D464D206465636F6465CF
:10031000204641494C0D0A002E2E2E0D0A005B4648
:100320004C505D204D464D206465636F64652052DE
:100330003D005B464C505D204D464D20636170741E
:10034000757265204F4B0D0A000D0A005B464C503C
:100350005D204D464D206361707475726520464185
:10036000494C2072633D005B464C505D204D464D2C
:1003700020636170747572652E2E2E0D0A005B4627
:100380004C505D20726561643A207365656B206630
:1003900061696C65640D0A000D0A005B464C505D96
:1003A0002057503D005B464C505D207265616420D3
:1003B0004552523A2062616420736563746F720D16
:1003C0000A000D0A0020523D0020533D005B464CC0
:1003D000505D207265616420543D000D0A005B464B
:1003E0004C505D20736964653D000D0A002D3E543C
:1003F000005B464C505D207365656B2054005B4686
:100400004C505D207365656B3A206E6F7420696E89
:10041000697469616C697A65642C20726563616CCA
:100420006962726174696E670D0A000D0A00203EF0
:100430003D20005B464C505D207365656B20455246
:10044000523A20747261636B2000202D3E20646953
:10045000736B204E4F542050524553454E540D0A55
:1004600000202D3E206469736B2050524553454E49
:10047000540D0A00205750543D005B464C505D20FF
:100480006469736B20636865636B3A2044534B4324
:1004900048473D005B464C505D204552523A20543F
:1004A000524B3030206E6F7420666F756E64206121
:1004B00066746572203835207374657073210D0A77
:1004C000002073746570730D0A005B464C505D200C
:1004D00054524B303020666F756E642061667465CF
:1004E0007220005B464C505D20726563616C6962EE
:1004F000726174653A207365656B696E672074720A
:1005000061636B20302E2E2E0D0A005B464C505D31
:10051000206D6F746F72204F46460D0A005B464C8B
:10052000505D206D6F746F72207370696E2D7570E1
:100530002074696D656F757420286E6F202F52448A
:10054000415441290D0A000D0A005B464C505D20C4
:100550005741524E494E473A207369676E616C208D
:10056000746F6F20666173742C206E6F6973653FC2
:10057000206176673D002028657870656374656446
:10058000207E313030292E20436865636B20313264
:100590005620737570706C792E0D0A005B464C50B6
:1005A0005D205741524E494E473A206D6F746F722D
:1005B00020746F6F20736C6F7721206176673D0028
:1005C000207469636B730D0A006D732C206176676C
:1005D00020696E74657276616C3D005B464C505DBF
:1005E000206D6F746F72207265616479206166742A
:1005F000657220005B464C505D206D6F746F7220F9
:100600004F4E2C2077616974696E6720666F722087
:1006100073706565642E2E2E0D0A000D0A005B4670
:100620004C505D20696E697420646F6E652C205398
:10063000523D3078000D0A002044534B4348473D5B
:1006400000205750543D005B464C505D20696E7051
:100650007574733A2054524B30303D005B464C5019
:100660005D20696E6974204750494F2E2E2E0D0A69
:10067000005B4D464D5D20736563746F722073633C
:10068000616E2074696D656F75740D0A000D0A0046
:1006900020617420543D005B4D464D5D20666F75B2
:1006A0006E6420736563746F7220002E2E2E0D0A07
:1006B000005B4D464D5D207363616E20666F722056
:1006C000736563746F7220005B4D464D5D207772D9
:1006D000697465204F4B0D0A000D0A0020523D0041
:1006E00020533D005B4D464D5D2077726974652057
:1006F000543D00206E6F7420666F756E640D0A00A5
:100700005B4D464D5D206465636F646520464149DD
:100710004C3A20736563746F7220005B4D464D5DEB
:10072000206465636F6465204F4B2C203531322087
:1007300062797465730D0A000D0A00204D4154431F
:1007400048210D0A00204E3D0020523D0020533D1F
:10075000005B4D464D5D204944414D3A20543D00DB
:100760000D0A005B4D464D5D206D61726B3D30782A
:10077000000D0A002040005B4D464D5D2053594E50
:10078000432120636F756E743D000D0A000D0A0051
:100790002062797465733A20000D0A5B4D464D5D09
:1007A00020707265616D626C6520656E642040002A
:1007B000207061636B730D0A002C207363616E20DF
:1007C000005B4D464D5D206465636F646520736515
:1007D00063746F7220000D0A000D0A00293A0D0A99
:1007E000005B4D464D5D20726177207469636B73C9
:1007F0002028666972737420000D0A0020696E76E5
:100800003D002034543D002033543D005B4D464DA7
:100810005D20686973742032543D005B4D464D5D28
:1008200020636170747572652054494D454F55546D
:10083000210D0A006D730D0A00207061636B732C2B
:1008400020005B4D464D5D20636170747572653AA2
:1008500020005B4D464D5D206361707475726520AC
:1008600073746172740D0A000D0A00206D6F643D8F
:10087000002077726974653D005B4641545D2063DA
:100880006C6F73653A20706F733D000D0A00207322
:10089000697A653D005B4641545D206F70656E6509
:1008A000643A20636C75737465723D005B46415415
:1008B0005D2066696C65206E6F7420666F756E646E
:1008C0000D0A00270D0A005B4641545D206F7065DC
:1008D0006E5F726561642027005B4641545D206D48
:1008E0006F756E74204F4B0D0A000D0A005B464178
:1008F000545D20464154312072656164204641496F
:100900004C20617420736563746F722000207365DE
:1009100063746F7273292E2E2E0D0A005B464154AC
:100920005D2072656164696E6720464154312028FC
:10093000005B4641545D206E6F20626F6F742073C0
:1009400069672C2064656661756C74206C616265F2
:100950006C0D0A000D0A00272073657269616C3DF9
:100960003078005B4641545D206C6162656C3D27C8
:10097000005B4641545D204552523A207370633DFE
:100980003D300D0A005B4641545D204552523A20ED
:100990006E666174213D320D0A005B4641545D2054
:1009A0004552523A20627073213D3531320D0A00B2
:1009B0000D0A00207369673D30780020726F6F74F4
:1009C0003D002068656164733D00207370743D00D4
:1009D0005B4641545D204250423A207370663D00B0
:1009E0000D0A00206D656469613D30780020746FE8
:1009F000743D00206E6661743D00207370633D009D
:100A00005B4641545D204250423A206270733D0083
:100A10005B4641545D206D6F756E743A20626F6F56
:100A20007420736563746F7220726561642046413F
:100A3000494C0D0A005B4641545D206D6F756E7424
:100A40003A2072656164696E6720626F6F7420730B
:100A50006563746F722E2E2E0D0A005B4641545D45
:100A600020616C7265616479206D6F756E74656468
:100A70000D0A005B4945435D206C697374656E2007
:100A8000454F490D0A00270D0A005B4945435D208B
:100A900066696C656E616D653D27005B4945435D28
:100AA000206C697374656E20726563762066616977
:100AB0006C0D0A005B4945435D2041544E2064752E
:100AC00072696E67206C697374656E0D0A000D0A99
:100AD000005B4945435D206C697374656E696E67A0
:100AE00020666F7220646174612053413D005B4950
:100AF00045435D20666173746C6F6164206163744B
:100B00006976650D0A005B4945435D2041544E20DE
:100B100072656C65617365642C20646574656374CB
:100B200020666173746C6F61640D0A00203F3F0D95
:100B30000A000D0A0020434C4F53452053413D000D
:100B40000D0A00204F50454E2053413D005B494562
:100B5000435D202D3E2054414C4B45520D0A000D63
:100B60000A002054414C4B2023005B4945435D2043
:100B70002D3E204C495354454E45520D0A000D0A56
:100B800000204C495354454E20230020554E5441DB
:100B90004C4B0D0A0020554E4C495354454E0D0AFE
:100BA000005B4945435D20636D643D3078005B49DF
:100BB00045435D2041544E2062797465207265631F
:100BC00076206661696C0D0A005B4945435D2041F2
:100BD000544E0D0A005B4945435D2074616C6B3ACD
:100BE000206E6F20646174612C2072656C65617386
:100BF000650D0A005B4945435D2074616C6B3A20CA
:100C0000454F492C20646F6E650D0A005B494543D2
:100C10005D2074616C6B3A2073656E642066616957
:100C20006C65640D0A005B4945435D207265696E21
:100C3000697420646F6E652C2072656164790D0A99
:100C4000005B4945435D206D6F756E742066616978
:100C50006C65640D0A005B4945435D204641543193
:100C600032204F4B0D0A005B4945435D206D6F7587
:100C70006E742046415431322E2E2E0D0A005B49EF
:100C800045435D206E6F206469736B20696E20643C
:100C9000726976650D0A005B4945435D206472699F
:100CA0007665204F4B0D0A005B4945435D206E6F12
:100CB000206472697665210D0A005B4945435D2019
:100CC00072657365742072656C65617365642C2050
:100CD0007265696E697420666C6F7070790D0A00B8
:100CE0005B4945435D202A2A2A204255532052451C
:100CF000534554202A2A2A0D0A005B4945435D20AA
:100D0000706F6C6C3A2041544E20647572696E6746
:100D100020776169740D0A000D0A00205253543D7A
:100D20000020444154413D0020434C4B3D005B4971
:100D300045435D206275733A2041544E3D000D0AD3
:100D4000005B4945435D20696E69742064657620C7
:100D50002300270D0A005B444F535D20636D643A06
:100D60002027000D0A005B444F535D20636C6F73B6
:100D7000652053413D005B444F535D206F70656EAD
:100D8000204F4B0D0A000D0A005B444F535D20536A
:100D900041564520637265617465206661696C65C2
:100DA000642072633D005B444F535D2053415645C0
:100DB0000D0A000D0A005B444F535D204C4F414427
:100DC000206661696C65642072633D005B444F532B
:100DD0005D204C4F41440D0A00270D0A00272E27A5
:100DE000005B444F535D207061727365643A202745
:100DF000000D0A005B444F535D20646972206C65EE
:100E00006E3D005B444F535D20646972206C6973D2
:100E100074696E670D0A005B444F535D204452496C
:100E20005645204E4F542052454144590D0A002743
:100E30000D0A002066696C653D27005B444F535DD9
:100E4000206F70656E2053413D0011241FBECFEF0F
:100E5000D8E0DEBFCDBF12E0A0E0B1E0E0EFF3E606
:100E600002C005900D92A033B107D9F727E0A0E3A7
:100E7000B2E001C01D92AA32B207E1F70E94B208A7
:100E80000C94EF310C9400001092C5008FEC80930D
:100E9000C400E0ECF0E080818260808388E0809391
:100EA000C10086E08093C20008959091C00095FF34
:100EB000FCCF8093C6000895CF93DF93EC01899116
:100EC000811103C0DF91CF9108950E945507F7CF9C
:100ED000CF93DF93EC01FE0184912196811103C031
:100EE000DF91CF9108950E945507F5CFCF93C82F7A
:100EF000E82FE295EF70F0E0EE54FE4F84910E94EF
:100F00005507CF70EC2FF0E0EE54FE4F8491CF9157
:100F10000C945507CF93C82F892F0E9476078C2FEA
:100F2000CF910C947607CF92DF92EF92FF920F93BE
:100F30001F93CF93DF9300D000D000D0CDB7DEB7A2
:100F40009C01892B89F480E326960FB6F894DEBFC6
:100F50000FBECDBFDF91CF911F910F91FF90EF900A
:100F6000DF90CF900C945507CE0101967C01FC01D7
:100F700010E000E08AE0C82ED12C0F5F1F4FC9019E
:100F8000B6010E94942E805D8193C9019B010A974E
:100F9000A0F70E0D1F1DF80182918F010E945507C9
:100FA0000E151F05C1F726960FB6F894DEBF0FBECB
:100FB000CDBFDF91CF911F910F91FF90EF90DF9008
:100FC000CF900895BF92CF92DF92EF92FF920F934E
:100FD0001F93CF93DF93182FD92FF62E072F64E29C
:100FE00070E00E94942E6B0162E170E00E94942EEA
:100FF000E62EB72EC1E0C80F81EA91E00E94680793
:10100000812F9D2F0E9493078DE991E00E94680730
:10101000C60199270E94930789E991E00E94680719
:101020008E2D9B2D0E94930785E991E00E94680711
:101030008C2F90E00E94930782E991E00E9468075C
:101040002F2D302F4C2F6E2D8C2D0E94790CEC0102
:1010500082E891E00E946807CE01D7FF04C088278C
:1010600099278C1B9D0B0E949307D7FF04C08DE727
:1010700091E00E9468078AE791E00E946807CE012C
:10108000DF91CF911F910F91FF90EF90DF90CF9064
:10109000BF900895BF92CF92DF92EF92FF920F938D
:1010A0001F93CF93DF93182FD92FF62E072F64E2CB
:1010B00070E00E94942E6B0162E170E00E94942E19
:1010C000E62EB72EC1E0C80F88E691E00E946807BF
:1010D000812F9D2F0E94930784E691E00E9468076C
:1010E000C60199270E94930780E691E00E94680755
:1010F0008E2D9B2D0E9493078CE591E00E9468073E
:101100008C2F90E00E94930789E591E00E94680788
:101110002F2D302F4C2F6E2D8C2D0E94310DEC0178
:1011200088E491E00E946807CE01D7FF04C08827B9
:1011300099278C1B9D0B0E949307D7FF04C083E463
:1011400091E00E94680780E491E00E946807CE0168
:10115000DF91CF911F910F91FF90EF90DF90CF9093
:10116000BF900895F894569A5E980E9444078AE1C9
:1011700091E00E9468070E94432E0E94D00980E1FE
:1011800091E00E9468070E94440A83E091E00E9477
:1011900068070E94550E83EF90E00E94680788E080
:1011A0000E94831F0E9494220E9441290E946C2A5F
:1011B0000E94D32A0E94462B85EE90E00E94680789
:1011C0000E94892D87ED90E00E94680778940E9424
:1011D000950A86EC90E00E9468070E94DF0A0E9450
:1011E000860B892B81F08AEB90E00E94680720E053
:1011F00040E061E071E08AE40E945C1F85E090E0DD
:101200000E94492E22C08FEA90E00E9468070E9447
:10121000C00B81110EC08CE990E00E94680720E0AD
:1012200040E061E071E08AE40E945C1F86E090E0AB
:10123000E7CF8BE890E00E9468070E94CF15892BCA
:1012400089F480E890E00E9468070E94780B88E6A5
:1012500090E00E94680790E080E00E94492E0E9482
:101260000420FDCF81E790E0D8CF8EBD0DB407FEFE
:10127000FDCF8EB50895CF93C62F872F0E943509D5
:101280008C2FCF910C943509CF92DF92EF92FF9281
:101290000F931F93CF93DF936B01D82FC92F7A0140
:1012A00089012A9883E00E943509B6018D2F9C2F71
:1012B0000E943B09E7010E0D1F1DC017D10751F415
:1012C0002A9ADF91CF911F910F91FF90EF90DF90BD
:1012D000CF90089580E00E9435098993EECFCF9298
:1012E000DF92EF92FF920F931F93CF93DF936B01E7
:1012F000D82FC92F7A0189012A9882E00E943509E6
:10130000B6018D2F9C2F0E943B09E7010E0D1F1D7A
:10131000C017D10751F42A9ADF91CF911F910F91F5
:10132000FF90EF90DF90CF90089589910E9435094A
:10133000EFCF0F931F93CF93DF938B01D82FC92F3C
:101340002A9883E00E943509B8018D2F9C2F0E94B6
:101350003B0980E00E9435092A9ADF91CF911F91C5
:101360000F910895FF920F931F93CF93DF93F62E63
:10137000072F182FD92FC42F2A9882E00E943509F1
:101380006F2D702F812F9D2F0E943B098C2F0E9463
:1013900035092A9ADF91CF911F910F91FF900895FF
:1013A000CF9381EF91E00E94680784B18C6284B989
:1013B00024982A9A80E58CBD8DB581608DBD2A98D0
:1013C00081E00E94350980E40E9435092A9A45EAA5
:1013D00060E070E0CB010E94B20960E070E0CB01F8
:1013E0000E949909C82F8BED91E00E94680785EA59
:1013F0000E94760782ED91E00E9468078C2F0E9480
:1014000076078CEC91E0C53A11F083EC91E0CF9136
:101410000C9468070F931F93CF93DF938B01D82F02
:10142000C92F2A9882E00E943509B8018D2F9C2F80
:10143000DF91CF911F910F910C943B092A9A089547
:101440000F931F93CF93DF938B01D82FC92F2A9827
:1014500083E00E943509B8018D2F9C2FDF91CF9139
:101460001F910F910C943B091EBC0DB407FEFDCFDC
:101470008EB508952A9A809300018EBD0DB407FEA3
:10148000FDCF5E9A5E98089580E292E00E94680720
:10149000569A5E988FEF809300010E943A0A3B9A19
:1014A000439880E192E00E946807809100010E94C9
:1014B000760786E092E00C94680721E030E001C0F6
:1014C000220F8A95EAF7209580910001822380936C
:1014D00000010C943A0A21E030E001C0220F8A9505
:1014E000EAF780910001822B809300010C943A0A64
:1014F0008823B9F085E00E945D0A85E38A95F1F7BB
:10150000000086E00E945D0A90E19A95F1F786E07E
:101510000E946B0A8FED9EE20197F1F700C0000078
:10152000089585E00E946B0AE8CFCF938CE596E0A2
:101530000E94680787B1887F87B988B1876088B9BA
:101540002098579A5F9A219A85EF0E943A0AC6B16D
:1015500087E496E00E9468078CE4C0FD88E40E945E
:10156000550781E496E00E9468078CE4C1FD88E499
:101570000E94550788E396E00E9468078CE4C2FD4C
:1015800088E40E94550785E396E00E946807109260
:1015900030021092310210923202109233021092F5
:1015A0003402109235028EE196E00E94680785EFC2
:1015B0000E9476078BE196E0CF910C946807CF925A
:1015C000DF92EF92FF920F931F93CF93DF9380915F
:1015D0003202811169C084EF95E00E94680782E0C1
:1015E0000E945D0A84E00E945D0A299A209186008B
:1015F00030918700D0E0C0E090E0C12CD12C760182
:1016000060E2EFE9FFE03197F1F700C00000B59B21
:1016100054C04091860050918700FA01E21BF30B01
:101620009F0166BBB897E33EF10508F048C0C20EC3
:10163000D31EE11CF11C9F5F81E0903108F480E033
:101640009A012196C83EF3E0DF0709F43FC08823E2
:10165000C1F284E0F694E794D794C7948A95D1F7C1
:1016600086018BED95E00E946807CE010E949307EA
:1016700089EC95E00E946807C6010E94930780EC00
:1016800095E00E9468070B3A110528F18CE995E076
:101690000E946807C6010E94930786E795E00E94B2
:1016A000680781E080933202DF91CF911F910F9103
:1016B000FF90EF90DF90CF90089580E0C2CF80E060
:1016C0009A01C12CD12C760190E0BBCF8111C1CF02
:1016D0008DE195E0E4CF0233110518F78AE495E037
:1016E0000E946807C6010E94930787E495E0D7CF60
:1016F0008BE095E00E94680782E00E946B0A84E01C
:101700000E946B0A10923202299808951F93CF937A
:10171000DF9383EE94E00E946807D0E0C0E0309948
:1017200021C01092300281E0809335021FE08FE9E2
:101730009FE00197F1F700C000000E94492211507C
:10174000B1F78AEC94E00E946807CE010E949307EB
:1017500081EC94E00E94680790E080E0DF91CF91F7
:101760001F91089580E00E94780A2196C535D10521
:10177000B1F684E994E00E9468078FEF9FEFEECF07
:10178000CF93DF9386B1D82FD47082FBCC27C0F9DA
:10179000C093330286B18695817091E0892780934A
:1017A00034028AE794E00E9468078CE4D11188E44F
:1017B0000E94550784E794E00E94680780913402F4
:1017C00081110FC08EE40E94550781E694E0D1118B
:1017D00002C08AE494E00E9468078C2FDF91CF91C9
:1017E000089589E5F0CFCF93C82F8035C0F083E30B
:1017F00094E00E9468078C2F90E00E9493078EE28D
:1018000094E00E94680780E590E00E9493078BE2D5
:1018100094E00E9468078EEF9FEFCF91089580912A
:101820003502882359F1809130028C17A9F081EF9D
:1018300093E00E9468078091300290E00E94930735
:101840008DEE93E00E9468078C2F90E00E94930732
:101850008AEE93E00E94680780913002C81317C097
:10186000CFE08FE99FE00197F1F700C000000E94F0
:101870004922C150B1F790E080E0CFCF8EEF93E0E6
:101880000E9468070E94860B009769F2C6CF8C17EA
:1018900048F481E00E94780A809130028F5F809343
:1018A0003002DACF80E00E94780A809130028150C5
:1018B000F6CFCF93C82F8EED93E00E9468078C2F50
:1018C00090E00E9493078BED93E00E94680780E010
:1018D000CC2361F00E945D0AC09331028FE891E051
:1018E0000197F1F700C00000CF9108950E946B0AA4
:1018F000F3CFCF92DF92EF92FF920F931F93CF938C
:10190000DF93C82FE62EF42E89018DEC93E00E9420
:1019100068078C2F90E00E94930789EC93E00E9467
:1019200068078E2D90E00E94930785EC93E00E945B
:101930006807CF2CD12CC6010E94930782EC93E05C
:101940000E9468078FEF8F0D823180F085EA93E067
:101950000E946807C8EFDFEFCE01DF91CF911F91A2
:101960000F91FF90EF90DF90CF9008950E94DF0AD3
:1019700096B19695917081E09827909334028BE907
:1019800093E00E9468078091340281112DC08EE49B
:101990000E94550788E993E00E9468078C2F0E94F7
:1019A000F30BEC018EE793E0209709F057C08E2DE2
:1019B0000E94590C87E693E00E9468070E94020F7C
:1019C000EC01892B99F08CE493E00E94680788274A
:1019D00099278C1B9D0B0E94930789E493E00E943A
:1019E0006807CDEFDFEFB8CF89E5D2CF82E393E090
:1019F0000E9468078EE193E00E946807C6010E947A
:101A0000930788E193E00E946807B8018F2D0E9438
:101A10003310EC01892B19F080E093E0E0CF83EEE6
:101A200092E00E946807F80180810E94760780E2B8
:101A30000E945507F80181810E94760780E20E948A
:101A40005507F80182810E94760780E20E945507BF
:101A5000F80183810E94760780EE92E00E94680779
:101A60007BCFBF92CF92DF92EF92FF920F931F93A3
:101A7000CF93DF9300D000D000D0CDB7DEB7D82E03
:101A8000E62EF42EB22EC32E81ED92E00E9468075E
:101A90008D2D90E00E9493078DEC92E00E946807E4
:101AA0008E2D90E00E94930789EC92E00E946807D7
:101AB0008F2D90E00E94930786EC92E00E946807C9
:101AC0008FEF8F0D8231B8F088EA92E00E946807AC
:101AD00008EF1FEFC80126960FB6F894DEBF0FBEC1
:101AE000CDBFDF91CF911F910F91FF90EF90DF90CD
:101AF000CF90BF9008950E94DF0A319907C084E813
:101B000092E00E9468070BEF1FEFE4CF8D2D0E943B
:101B1000F30B8C0189E692E00115110509F58E2D74
:101B20000E94590C1E821D82D982EA82FB8282E0C9
:101B30008C8384E592E00E9468076B2D7C2DCE019A
:101B400001960E94DD128C018CE292E001151105D4
:101B500039F08DE392E00E9468070CEF1FEFBACFD7
:101B60000E946807B7CFB19BFECF82E086BB809111
:101B700088009091890080969093890080938800D6
:101B8000089580E286BB81E593ECB59B1DC08091F2
:101B90008600909187002091D0033091D103821B61
:101BA000930B20918600309187003093D1032093CE
:101BB000D0038239910560F0823B910558F0823E56
:101BC000910520F482E008950197F9F683E00895E5
:101BD00080E0089581E008955F9800C000C0000093
:101BE0005F9A08950F931F93CF93DF93CFE0D0E0D8
:101BF00001E010E00E94B30DC8010C2E02C0880F56
:101C0000991F0A94E2F789789474892B11F00E9445
:101C1000EC0D219778F781E08093C803DF91CF9195
:101C20001F910F910895EF92FF920F931F93CF93FF
:101C3000DF9307E010E0E82EF12CE701002E02C050
:101C4000D595C7950A94E2F7C1700E94B30D8091B3
:101C5000C8038C2B11F40E94EC0D0E94B30DC1112E
:101C60000E94EC0DC093C8030150110930F7DF91B9
:101C7000CF911F910F91FF90EF900895FC01680F95
:101C8000791FCA01E617F70709F4089521919227F1
:101C900028E0AC01880F991F57FF04C031E2832769
:101CA00030E193272150A9F7EDCF10928000E1E8B1
:101CB000F0E081E0808380818F7B8083EFE6F0E03D
:101CC00080818F7D808308950F920FB60F921F92AF
:101CD00011242F933F934F935F938F939F93AF93D1
:101CE000BF93EF93FF93809186009091870020919E
:101CF000D0033091D103821B930B20918600309149
:101D000087003093D1032093D00320913602309185
:101D10003702283C310590F4209136023091370289
:101D2000A9014F5F5F4F5093370240933602220F55
:101D3000331FF901E85CFD4F91838083823991055F
:101D400008F45AC0823B910508F458C0823E9105C0
:101D500008F456C083E02091CB0394E0299F9001C2
:101D60001124822B8093CB038091CA038F5F8093D1
:101D7000CA038091CA038430D8F08091CB038EBD12
:101D80000DB407FEFDCF8091CC039091CD03A091BF
:101D9000CE03B091CF030196A11DB11D8093CC035A
:101DA0009093CD03A093CE03B093CF031092CA03B8
:101DB0008091CC039091CD03A091CE03B091CF033D
:101DC000803C9043A105B10540F080916F008F7D6C
:101DD00080936F0081E08093C903FF91EF91BF91E1
:101DE000AF919F918F915F914F913F912F911F9054
:101DF0000F900FBE0F90189580E0ADCF81E0ABCF74
:101E000082E0A9CFCF92DF92EF92FF920F931F93C0
:101E1000CF93DF93CDB7DEB728970FB6F894DEBF28
:101E20000FBECDBF82E598E00E9468071092CC03F8
:101E30001092CD031092CE031092CF031092CB03D9
:101E40001092CA031092C903109237021092360200
:101E500060E070E0CB010E940A0AB59A809186008A
:101E6000909187009093D1038093D00380916F006D
:101E7000806280936F00789410E000E08091C90345
:101E8000811104C0043F91E01907C1F580916F00F2
:101E90008F7D80936F000E941E0A82E498E00E946A
:101EA00068078091CC039091CD03A091CE03B091AF
:101EB000CF030E94930789E398E00E946807C80156
:101EC0000E94930784E398E00E946807043F114052
:101ED000F1F48BE198E00E94680787EF9FEF289666
:101EE0000FB6F894DEBF0FBECDBFDF91CF911F912B
:101EF0000F91FF90EF90DF90CF9008958FE99FE0D2
:101F00000197F1F700C000000F5F1F4FB7CFCE0160
:101F100001966C0188E0F60111928A95E9F760E07C
:101F200070E0CB010E94200A8091CC039091CD03F8
:101F3000A091CE03B091CF0304EF11E0853F914013
:101F4000A105B10540F40091CC031091CD0320917F
:101F5000CE033091CF03F12CE12CE016F10609F00D
:101F600047C00E941E0A8CE098E00E9468078981A1
:101F70009A810E94930787E098E00E9468078B810E
:101F80009C810E94930782E098E00E9468078D81FF
:101F90009E810E9493078CEF97E00E9468078F81D3
:101FA00098850E94930789EF97E00E94680781EE69
:101FB00097E00E94680780913602909137020E9454
:101FC00093078CED97E00E94680710E000E09CE02A
:101FD000E92EF12C809136029091370208171907EB
:101FE00048F186ED97E00E94680790E080E077CFA7
:101FF0000E94340A26E030E090E0FC01022E02C08C
:10200000F595E7950A94E2F7E370FF27EE0FFF1FBF
:10201000EC0DFD1D408151814F5F5F4F5183408327
:10202000225031092E3F4FEF340739F78FEFE81A6E
:10203000F80A93CFF801EE0FFF1FE85CFD4F808197
:1020400091810E948A0780E20E945507C801B7016A
:102050000E94942E0B9721F489ED97E00E94680767
:102060000F5F1F4FB7CF2F923F924F925F926F92A9
:102070007F928F929F92AF92BF92CF92DF92EF9218
:10208000FF920F931F93CF93DF93CDB7DEB76B977C
:102090000FB6F894DEBF0FBECDBF888F6B8B7C8BE5
:1020A00081EC97E00E946807388D232F30E03E8B4B
:1020B0002D8BC9010E94930789EB97E00E94680766
:1020C0008091CC039091CD03A091CE03B091CF032A
:1020D0000E94930780EB97E00E94680760E070E041
:1020E000CB010E94200A212C312C21011A8AA12C1B
:1020F000188619861A861B861D861C861F82B12C9F
:1021000010E0912C812C1F8A612C00E0C12CD12C75
:1021100076018091CC039091CD03A091CE03B09134
:10212000CF03281639064A065B0688F00E941E0A6D
:1021300080E097E00E9468078D899E890E9493073E
:1021400083EF96E00E94680788EF9FEF06C20E9427
:10215000340A898F46E050E05F874E87598D852F7E
:1021600090E00E8402C0959587950A94E2F78370FB
:10217000813009F467C0823009F46FC0811114C244
:10218000E2E0CC0CDD1CEE1CFF1CEA95D1F7689454
:10219000C0F80E5F0F3108F00EE188859985AA8599
:1021A000BB850196A11DB11D88879987AA87BB872A
:1021B00095E5C916D90609F05BC0A3948114910472
:1021C00009F060C1D701C601AA27BB27893894440A
:1021D000A105B10539F5639488859985AA85BB85E4
:1021E0008035934CA105B105A0F487E797E00E94E4
:1021F0006807862D90E00E94930784E797E00E948D
:102200006807888599850E94930781E797E00E9477
:10221000680732E0361530F4B12C10E0882483943E
:10222000912C00E02E853F85225031093F872E8773
:102230002E3F3F4F09F092CF5FEF251A350A450A2E
:10224000550A67CF73E0CC0CDD1CEE1CFF1C7A95A1
:10225000D1F76894C0F80D5F9DCF64E0CC0CDD1C15
:10226000EE1CFF1C6A95D1F76894C0F80C5F92CF02
:10227000A3E0AA1508F04AC0BA89B23008F046C0F7
:1022800089E997E00E946807888599850E949307ED
:1022900080E997E00E946807702E1E821D82A12CA3
:1022A00027C07A947A94AA0C81E0870DA701960141
:1022B00004C056954795379527958A95D2F7C90159
:1022C0008170A82A3D813E5F3D83303188F08A2DA0
:1022D0000E94760780E20E9455074E814F5F4E8331
:1022E0004F70A42ED9F68DE897E00E9468071D82F2
:1022F00051E0571508F045C08E81883C90F28AE87D
:1023000097E00E9468073A893F5F3A8BA12C56CF2D
:102310000E94340A9FEF291A390A490A590AA6E08D
:10232000B0E0B98BA88B282F30E03B8F2A8F8A8DA5
:102330009B8D088802C0959587950A94E2F7837073
:10234000813091F18230D9F1811144C052E0CC0C3E
:10235000DD1CEE1CFF1C5A95D1F76894C0F882E092
:10236000780E51E0571518F48E81883CA8F1A889A1
:10237000B989109731F01297B98BA88BBE81B83C00
:10238000B0F22E81283C08F0BACF8091CC03909116
:10239000CD03A091CE03B091CF03281639064A068B
:1023A0005B0608F4B5CFABCF43E0CC0CDD1CEE1CD4
:1023B000FF1C4A95D1F76894C0F883E0D1CF34E090
:1023C000CC0CDD1CEE1CFF1C3A95D1F76894C0F8CC
:1023D00084E0C6CF80E0C4CF7A947A94AA0C81E0DE
:1023E000870DA701960104C0569547953795279507
:1023F0008A95D2F7C9018170A82A3D813E5F3D834D
:10240000303108F4AECF8A2D0E94760780E20E9418
:1024100055074E814F5F4E831D82A12CA2CF0250E3
:10242000D701C601002E04C0B695A795979587954C
:102430000A94D2F78170110F182BB394B3944FE024
:102440004B1500F551E085169104F9F483E697E009
:102450000E946807812F0E94760780E697E00E941D
:1024600068071E3F09F492C01B3F09F057C08F89CF
:10247000882309F453C01D861C86B12C10E093E01C
:10248000892E912C023058F6CDCE92E08916910417
:1024900009F049C0BF80B394E1E0F0E0EC0FFD1F0C
:1024A000AF81EA0FF11D1083B3E0BB1508F075C0D2
:1024B00081E597E00E946807898190E00E94930778
:1024C0008DE497E00E9468078A8190E00E9493075C
:1024D00089E497E00E9468071B81812F90E00E94A9
:1024E000930785E497E00E9468078C8190E00E9442
:1024F0009307288D12130DC08BE397E00E946807A5
:10250000BF82B12C10E0912C812C31E03F8B612CEB
:10251000B9CF88E397E00E946807BF82B12C10E032
:10252000912C812CF4CF43E084169104B9F58C856D
:102530009D850196EB89FC89AC85BD85EA0FFB1F63
:1025400010838115B2E09B0760F18BE197E00E9458
:1025500068070E941E0A90E080E06B960FB6F89420
:10256000DEBF0FBECDBFDF91CF911F910F91FF90C6
:10257000EF90DF90CF90BF90AF909F908F907F9023
:102580006F905F904F903F902F9008951F82B12CD5
:1025900010E082E0882E912C75CFBF82B12C10E024
:1025A00071CF9D878C87FACFB12C912C812C612C17
:1025B00000E0C12CD12C760135CE2F923F924F9264
:1025C0005F926F927F928F929F92AF92BF92CF92C3
:1025D000DF92EF92FF920F931F93CF93DF93CDB7CC
:1025E000DEB728970FB6F894DEBF0FBECDBF8C01C3
:1025F0006F83788784EE96E00E946807F8018081F7
:1026000090E00E94930780EE96E00E946807F80130
:10261000818190E00E9493078CED96E00E9468070C
:10262000F801828190E00E94930789ED96E00E9474
:102630006807F801228081EB96E00E946807822CEF
:10264000912CC4010E9493078BEA96E00E946807D0
:1026500080918600909187009093D1038093D0035E
:10266000F0E84F2EF8E35F2E66246394712C10E09F
:10267000C12CD12C7601FC2FFB5FFE830E94C10D83
:102680008130E1F1823009F441C081114EC1E2E0B4
:10269000CC0CDD1CEE1CFF1CEA95D1F76894C0F849
:1026A000D701C601AA27BB2789389444A105B105E3
:1026B00009F03FC11F5F133008F43BC100E0B12CAB
:1026C00010E00E94C10D813049F1823091F18111F9
:1026D00013C052E0CC0CDD1CEE1CFF1C5A95D1F748
:1026E0006894C0F81E5F8FE08B1570F5FE0131967F
:1026F0005F010E3F09F487C010E01BC173E0CC0CF2
:10270000DD1CEE1CFF1C7A95D1F7C8CF64E0CC0C21
:10271000DD1CEE1CFF1C6A95D1F7C0CF43E0CC0C4A
:10272000DD1CEE1CFF1C4A95D1F76894C0F81D5FB4
:10273000DACF34E0CC0CDD1CEE1CFF1C3A95D1F74F
:102740006894C0F81C5FCFCF1250000FD701C601AC
:10275000012E04C0B695A795979587950A94D2F750
:102760008170082BB394B394123008F0BCCF9FE073
:102770009B1508F0A6CFBACF93E0CC0CDD1CEE1C65
:10278000FF1C9A95D1F76894C0F81D5F31C084E0B2
:10279000CC0CDD1CEE1CFF1C8A95D1F76894C0F8A8
:1027A0001C5F26C01250000FD701C601012E04C0C5
:1027B000B695A795979587950A94D2F78170082BBF
:1027C0003394339415C02FE02315B8F00E94C10D47
:1027D000813091F28230D9F281118ECF22E0CC0C7F
:1027E000DD1CEE1CFF1C2A95D1F76894C0F81E5F13
:1027F000123048F3FFE0F315A8F6F50101935F01ED
:10280000FE81FA1519F000E0312CE0CF8B812812FF
:1028100073CF87E996E00E946807C4010E9493077E
:1028200080E996E00E946807898190E00E94930702
:102830008DE896E00E9468078FEF9BE00197F1F723
:1028400000C0000087E00E945D0AF8941092C8035F
:102850008091840090918500809690938900809368
:10286000880082E086BB1CE080E00E94130E1150BD
:10287000D9F70E94F20D0E94F20D0E94F20D8BEF2B
:102880000E94130E81EA8D834FEF5FEF61E070E0ED
:10289000CE0105960E943E0EAC0161E070E0CE01D3
:1028A00005960E943E0EAC0161E070E0CE010596F7
:1028B0000E943E0EAC018BEF898361E070E0CE0197
:1028C00001960E943E0E182F092FEF80F8846701B1
:1028D000EEEFDE1A5701FFEFEF1AFF0AF5018081D4
:1028E0000E94130E412F502F61E070E0C5010E943D
:1028F0003E0E182F092FEC14FD0461F7892F0E945A
:10290000130E812F0E94130E16E38EE40E94130E05
:102910001150D9F7789487E00E946B0A88EC96E012
:102920000E94680790E080E011C010E0C12CD12C1B
:10293000760191E0491A51086108710809F09ECEAC
:1029400081E796E00E94680787EF9FEF28960FB611
:10295000F894DEBF0FBECDBFDF91CF911F910F91D5
:10296000FF90EF90DF90CF90BF90AF909F908F90AF
:102970007F906F905F904F903F902F9008950F93AE
:102980001F93CF93DF9300D000D000D0CDB7DEB738
:102990008C018091D205882391F1C8019695879585
:1029A000800F911FB0E0A0E09C01AD0120533F4C8F
:1029B0004F4F5F4F2B833C834D835E8322E030E09B
:1029C000AE014F5F5F4F6B817C818D819E810E9444
:1029D000440989819A8100FF10C024E0969587956B
:1029E0002A95E1F726960FB6F894DEBF0FBECDBF4D
:1029F000DF91CF911F910F9108959F70F3CF90E0D9
:102A000080E0F0CFCF93DF93C2E0D0E0CE010E9410
:102A1000BF14892B21F4CE01DF91CF910895219627
:102A2000C1328BE0D80791F78FEF9FEFF5CFEF9290
:102A3000FF920F931F93CF93DF9300D000D000D06D
:102A4000CDB7DEB77C018B018091D2058823C9F117
:102A5000C701969587958E0D9F1DB0E0A0E09C0163
:102A6000AD0120533F4C4F4F5F4F2B833C834D8331
:102A70005E8322E030E0AE014F5F5F4F6B817C816F
:102A80008D819E810E94440989819A81E0FE26C041
:102A90008F70992724E0000F111F2A95E1F7082B6A
:102AA000192B1A83098322E030E0AE014F5F5F4F9C
:102AB0006B817C818D819E810E946F0981E0809372
:102AC000D30526960FB6F894DEBF0FBECDBFDF91BB
:102AD000CF911F910F91FF90EF9008958827907FDD
:102AE0001F70DDCFCF93DF9300D000D000D0CDB7E3
:102AF000DEB78091D205882309F44EC08091D305BA
:102B0000882309F449C021E030E03E832D8380ED25
:102B100090E3A0E0B0E089839A83AB83BC8320E09C
:102B200032E042ED53E069817A818B819C810E9481
:102B3000440962ED73E08D819E810E944A08892BD1
:102B400059F08FEF9FEF26960FB6F894DEBF0FBEB9
:102B5000CDBFDF91CF91089562ED73E08D819E81AD
:102B600009960E944A08009761F729813A814B81B2
:102B70005C813E5F4F4F5F4F29833A834B835C8379
:102B80004D815E814F5F5F4F5E834D834A305105BB
:102B900031F61092D305D7CF90E080E0D4CFFF92EA
:102BA0000F931F93CF93DF9300D000D000D0CDB709
:102BB000DEB78091D2058823A1F08BE59AE00E94D0
:102BC00068071E821D828D819E8126960FB6F8941D
:102BD000DEBF0FBECDBFDF91CF911F910F91FF9050
:102BE000089585E39AE00E94680762ED73E090E043
:102BF00080E00E94E207892B39F080E19AE00E9490
:102C000068078FEF9FEF73C080E09AE00E9468072B
:102C10008091DD039091DE030E9493078AEF99E093
:102C20000E9468078091DF0390E00E94930783EF82
:102C300099E00E9468078091E20390E00E94930768
:102C40008DEE99E00E9468078091E5039091E6037C
:102C50000E94930783EE99E00E9468078091E70342
:102C60000E94760780EE99E00E94680780ED99E067
:102C70000E9468078091E8039091E9030E949307FE
:102C80008AEC99E00E9468078091EA039091EB0337
:102C90000E94930782EC99E00E9468078091EC0300
:102CA0009091ED030E9493078BEB99E00E946807D7
:102CB0008091E3039091E4030E94930783EB99E0F2
:102CC0000E9468078091F8030E94760780EB99E0E4
:102CD0000E9468078091DD039091DE038115924088
:102CE00049F08AE999E00E94680788EF9FEF9E8388
:102CF0008D8369CF8091E203823049F085E899E0C5
:102D00000E946807A8EFBFEFBE83AD835CCF8091C0
:102D1000DF03811103C081E799E0E5CF8091F803DB
:102D2000893209F066C08091F9039091FA03A0916D
:102D3000FB03B091FC038093D4059093D505A09339
:102D4000D605B093D7058BE0EDEFF3E0A8EDB5E045
:102D500001900D928A95E1F71092E30583E699E0E0
:102D60000E94680788ED95E00E945C0787E599E07E
:102D70000E9468078091D6059091D7050E948A0726
:102D80008091D4059091D5050E948A0784E599E049
:102D90000E9468078CE199E00E94680789E090E052
:102DA0000E9493078DE099E00E94680780ED90E310
:102DB000A0E0B0E089839A83AB83BC8301E010E09C
:102DC000FF24FA94F00E62ED73E0C8010E94E2075E
:102DD0008D839E83AD81BE81AB2B09F18DEE98E092
:102DE0000E9468078F2D90E00E9493078AEE98E07A
:102DF00006CF1092D4051092D5051092D6051092E8
:102E0000D7058BE0E1E1F1E0A8EDB5E001900D928E
:102E10008A95E1F71092E30581E399E0B9CF20E0CC
:102E200032E042ED53E069817A818B819C810E947E
:102E30006F090F5F1F4F89819A81AB81BC819E5FB3
:102E4000AF4FBF4F89839A83AB83BC830A30110590
:102E500009F0B6CF81E08093D2051092D30589EDB9
:102E600098E00E946807AFCE8091D205882321F0B8
:102E70000E9472151092D20508958091D20508958E
:102E8000AF92BF92CF92DF92EF92FF920F931F9378
:102E9000CF93DF93D82EC92EB62EA72E7A0180911C
:102EA000D2052EEF3FEF882391F103E110E062EDB0
:102EB00073E0C8010E94E207892B09F042C0C2ED0D
:102EC000D3E088818823D1F1853E69F18B8583FD2C
:102ED0002AC048E050E06D2D7C2DCE010E94E42EEA
:102EE000892B09F543E050E06B2D7A2DCE01089631
:102EF0000E94E42E9C01892BB1F4E114F10439F015
:102F000080E2FE01D70101900D928A95E1F7C90197
:102F1000DF91CF911F910F91FF90EF90DF90CF90B5
:102F2000BF90AF900895A09685E0C23DD80749F6BE
:102F30000F5F1F4F0132110509F0B9CF2DEF3FEFA1
:102F4000E6CF2FEF3FEFE3CFEF92FF920F931F9368
:102F5000CF93DF938C01F62EE72E8091D20581115D
:102F600016C08EEF9FEFDF91CF911F910F91FF90D1
:102F7000EF900895253E59F023852F3041F020E24F
:102F8000AF2DBE2D01900D922A95E1F7ECCFF801FF
:102F900080819181803E910510F5EC01CF70DD2795
:102FA00025E0CC0FDD1F2A95E1F734E09695879553
:102FB0003A95E1F762ED73E043960E94E2070097CD
:102FC00089F4FE01EE52FC4FD8012D913C911197EE
:102FD0002F5F3F4F2D933C9320812111CBCF8DEF5D
:102FE0009FEFC1CF8FEF9FEFBECF8F929F92AF9297
:102FF000BF92CF92DF92EF92FF920F931F93CF93E6
:10300000DF93CDB7DEB7A0970FB6F894DEBF0FBE43
:10301000CDBF7C016B018A0187EC98E00E946807B4
:103020005701470188E0880E911CF50181915F01ED
:10303000803229F00E945507A814B904B1F78EE236
:103040000E94550756014601A3E08A0E911CD50146
:103050008D915D01803229F00E945507A814B904B2
:10306000B1F783EC98E00E946807AE014F5F5F4FB5
:10307000B601C7010E9440177C01892BC1F08CEA80
:1030800098E00E946807C701A0960FB6F894DEBFCB
:103090000FBECDBFDF91CF911F910F91FF90EF90A9
:1030A000DF90CF90BF90AF909F908F900895F801E0
:1030B0003D9686E0DF011D928A95E9F781E0F801EF
:1030C00080838B8D9C8D92838183948383838D8D6C
:1030D0009E8DAF8DB8A185839683A783B087118617
:1030E000128613861486118A85E998E00E94680783
:1030F0008B8D9C8D0E9493078EE898E00E94680754
:103100008D8D9E8D0E9493078BE898E0BACF6F92C9
:103110007F928F929F92AF92BF92CF92DF92EF9267
:10312000FF920F931F93CF93DF93EC013B016A0152
:103130008881882309F488C08989811185C080919C
:10314000D20581117BC08EEF9FEF69C08D819E817A
:1031500049855A8595012E193F09841B950B28171F
:10316000390708F4C9014601801A910A88159905A2
:1031700008F44C01B7016E527C4FA401C301800FCB
:10318000911F0E94F12E080D191D89859A85AB8526
:10319000BC85880D991DA11DB11D89879A87AB87B4
:1031A000BC87AC01BD01517066277727452B462BA4
:1031B000472BA1F44D815E816F8178858417950737
:1031C000A607B70758F48B819C810E94BF149C010D
:1031D000283F8FE0380710F53C832B830C151D0525
:1031E000E8F489859A85AB85BC854D815E816F81C8
:1031F000788584179507A607B70780F47C0121E03E
:10320000F2228B819C8162ED73E04F960E94E2076F
:10321000892B09F49BCF01151105C1F0C801DF917D
:10322000CF911F910F91FF90EF90DF90CF90BF90C3
:10323000AF909F908F907F906F90089510E000E086
:10324000A12C82E0B82ECACF89EF7ECF8FEF7CCF42
:103250003F924F925F926F927F928F929F92AF9226
:10326000BF92CF92DF92EF92FF920F931F93CF9373
:10327000DF938C012B017A01FC018081882309F402
:1032800090C08189882309F48CC08091D205811176
:103290007CC08EEF9FEF67C0F301C50111920197CB
:1032A000E9F740C0CC0DDD1DF80181859285A3852D
:1032B000B4858C0D9D1DA11DB11D81879287A387AB
:1032C000B487328A9170AA27BB27892B8A2B8B2B34
:1032D000B1F4CE15DF0598F40E9402156C0197FD3C
:1032E00041C0BC01F801838194810E9417156FEFE2
:1032F0007FE0C6010E941715F801D482C382CE1563
:10330000DF0580F5F80181849284F1E09F22811429
:10331000910411F2F8018381948162ED73E04F967C
:103320000E94E207C7018C1B9D0B6501C818D908D4
:103330008C159D0508F46C01A601B2016C0F7D1F70
:10334000C4018E529C4F0E94F12EF801838194811A
:1033500062ED73E04F960E944A08892B09F4A2CFD0
:10336000209709F1CE01DF91CF911F910F91FF902E
:10337000EF90DF90CF90BF90AF909F908F907F9015
:103380006F905F904F903F900895D0E0C0E082ED45
:10339000682E83E0782EA12C92E0B92E332433944A
:1033A000AECF89EF77CF8FEF75CFCF93DF93EC015F
:1033B0008881882309F44EC089E798E00E94680755
:1033C00089859A850E94930781E798E00E946807A3
:1033D0008989811124C08EE40E9455078BE698E00C
:1033E0000E9468078A8981111CC08EE40E945507DB
:1033F00088E698E00E9468078989882351F18A89C4
:10340000882339F162ED73E08D859E850E94E20785
:10341000892B49F08FEF9FEFDF91CF91089589E5D8
:10342000DBCF89E5E3CFEF85F889EE52FC4F898544
:103430009A85AB85BC85848F958FA68FB78F62EDFB
:1034400073E08D859E850E944A08892B19F70E949A
:103450007215188290E080E0DFCFCF92DF92EF927A
:10346000FF920F931F93CF93DF93182F092FD62E20
:10347000C72E8091D205CEEFDFEF882361F083E184
:10348000E82EF12C62ED73E0C7010E94E207892B60
:1034900061F0CFEFDFEFCE01DF91CF911F910F9160
:1034A000FF90EF90DF90CF900895C2EDD3E0888138
:1034B000882309F441C0853E91F148E050E0612F36
:1034C000702FCE010E94E42E892B49F543E050E095
:1034D0006D2D7C2DCE0108960E94E42E892BF9F4E7
:1034E0000A8D1B8DC8010297863F9F4068F085EECC
:1034F000888362ED73E0C7010E944A08EC01892BC2
:1035000041F60E947215C7CFC8010E94BF146C011A
:1035100070E060E0C8010E9417158601E3CFA09615
:1035200085E0C23DD80719F62FEFE21AF20A81E2D0
:10353000E816F10409F0A6CFCDEFDFEFACCF5F9234
:103540006F927F928F929F92AF92BF92CF92DF92B3
:10355000EF92FF920F931F93CF93DF93CDB7DEB718
:10356000A0970FB6F894DEBF0FBECDBF882E792E80
:10357000662E572E8A018091D205882309F49BC0BC
:10358000AE014F5F5F4F882D0E944017892B31F4A9
:10359000662D752D882D972D0E942D1A93E1A92E49
:1035A000B12C62ED73E0C5010E94E207892BC1F0E6
:1035B0008FEF9FEFA0960FB6F894DEBF0FBECDBF82
:1035C000DF91CF911F910F91FF90EF90DF90CF90FF
:1035D000BF90AF909F908F907F906F905F90089575
:1035E00082EDE82E83E0F82E912CF7018081811185
:1035F00008C00E9402156C0197FF17C08AEF9FEF69
:10360000D9CF853EB1F39394F0E2EF0EF11C40E187
:103610009412EBCF8FEFA81AB80A91E2A916B10461
:1036200009F0BFCF8BEF9FEFC5CF6FEF7FE00E9418
:10363000171580E2F701482F11924A95E9F798E0B3
:10364000E82DF72DD70101900D929A95E1F7D7015A
:10365000189693E0E62DF52D01900D929A95E1F7DD
:10366000F7018387D38EC28E148E158E168E178E19
:1036700062ED73E0C5010E944A08009709F098CFF7
:1036800021E0F8012083D282C182D482C3821582D4
:103690001682178210861186128613861486218B55
:1036A000128AB686A586F0E29F9E90011124F80149
:1036B000308B27877FCF8EEF9FEF7CCF4F925F922B
:1036C0006F927F928F929F92AF92BF92CF92DF9232
:1036D000EF92FF920F931F93CF93DF93CDB7DEB797
:1036E000A0970FB6F894DEBF0FBECDBF782E692E1F
:1036F000562E472ED42EC52EB22EA32E8091D20543
:10370000882309F480C0AE014F5F5F4F622F732F93
:103710008D2D9C2D0E944017892B09F477C083E1E1
:10372000E82EF12C62ED73E0C7010E94E207892BBD
:1037300009F06FC002ED13E0F8018081882309F4DD
:103740005FC0853E09F44DC048E050E0672D762DFE
:10375000C8010E94E42E892B09F043C04801F8E01B
:103760008F0E911C43E050E0652D742DC4010E9422
:10377000E42E892BB1F588E0ED2DFC2DD8010190C8
:103780000D928A95E1F783E0EB2DFA2DD40101909B
:103790000D928A95E1F762ED73E0C7010E944A0835
:1037A00021E030E0892B11F430E020E088279927D0
:1037B000821B930BA0960FB6F894DEBF0FBECDBF51
:1037C000DF91CF911F910F91FF90EF90DF90CF90FD
:1037D000BF90AF909F908F907F906F905F904F9031
:1037E0000895005E1F4F85E0023D180709F0A4CF41
:1037F000EFEFEE1AFE0AF1E2EF16F10409F092CFB4
:103800008DEF9FEFD7CF8EEF9FEFD4CF8CEF9FEF51
:10381000D1CF8FEF9FEFCECF0F931F93CF93DF9337
:1038200000D000D0CDB7DEB78091D205882399F1C2
:1038300002E010E01A821982C8010E94BF14892B8D
:1038400031F429813A812F5F3F4F3A8329830F5FFB
:103850001F4F01323BE0130779F749815A81B0E0ED
:10386000A0E09A01AD0189E0220F331F441F551FCC
:103870008A95D1F729833A834B835C8369817A8166
:103880008B819C810F900F900F900F90DF91CF91C3
:103890001F910F91089519821A821B821C82EECF0C
:1038A000AF92BF92CF92DF92EF92FF920F931F934E
:1038B000CF93DF9300D000D000D0CDB7DEB78D839B
:1038C0009E8380E092E0E2EDF3E0DF019C011D9237
:1038D00021503040E1F72BEE2093D2032CE32093CC
:1038E000D30320E92093D40328E0EDE1F1E0A5ED36
:1038F000B3E001900D922A95E1F79093DE03809357
:10390000DD0381E08093DF0381E090E09093E103A9
:103910008093E00382E08093E20380EE90E0909356
:10392000E4038093E30380E49BE09093E6038093B9
:10393000E50380EF8093E70389E090E09093E9034B
:103940008093E80382E190E09093EB038093EA0395
:1039500082E090E09093ED038093EC0389E2809302
:10396000F8038EEE9FEFA0ECB4E68093F9039093FA
:10397000FA03A093FB03B093FC038D819E81892BF6
:1039800009F4CCC08BE0ED81FE81ADEFB3E0019096
:103990000D928A95E1F788E0E2E3F1E0A8E0B4E077
:1039A00001900D928A95E1F785E58093D0058AEA2A
:1039B0008093D10562ED73E090E080E00E944A08B8
:1039C000892B09F0AFC001E010E080ED90E3A0E0AA
:1039D000B0E089839A83AB83BC8382EDC82E83E0F9
:1039E000D82EA12C92E0B92E20EFE22EFF24FA94DB
:1039F000D601F5011D923197E9F7013031F4E092DB
:103A0000D203F092D303F092D40362ED73E0C801C5
:103A10000E944A08892B09F085C062ED73E0C80155
:103A200009960E944A08892B09F07CC020E032E008
:103A300042ED53E069817A818B819C810E946F09FC
:103A400089819A81AB81BC819E5FAF4FBF4F8983D3
:103A50009A83AB83BC830F5F1F4F0A30110541F679
:103A6000E2EDF3E080E092E0DF019C011D92215045
:103A70003040E1F78D819E81892BB9F088E0ED819E
:103A8000FE81A2EDB3E001900D928A95E1F7ED8100
:103A9000FE8180859185A2858093DA039093DB0374
:103AA000A093DC0388E08093DD0362ED73E083E1A3
:103AB00090E00E944A08892BA9F5E2EDF3E080E04E
:103AC00092E0DF019C011D9221503040E1F784E13A
:103AD00090E09A83898362ED73E089819A810E94E4
:103AE0004A08892BF9F4A981BA811196BA83A9836E
:103AF000919789F71092D20526960FB6F894DEBFFB
:103B00000FBECDBFDF91CF911F910F91FF90EF902E
:103B1000DF90CF90BF90AF900C94CF158BE0E6E292
:103B2000F1E033CF8FEF9FEF26960FB6F894DEBF0C
:103B30000FBECDBFDF91CF911F910F91FF90EF90FE
:103B4000DF90CF90BF90AF9008958F929F92AF92E9
:103B5000BF92CF92DF92EF92FF920F931F93CF937A
:103B6000DF936C014B017A0148E050E060E270E0C5
:103B7000C4010E94FA2E43E050E060E270E0C70109
:103B80000E94FA2E56019601E90188812F5F3F4F6E
:103B900081110BC0F60101900020E9F731978F01E8
:103BA0000C191D09D0E0C0E007C08E3269F78E0104
:103BB0000C191D09209771F30930110514F008E064
:103BC00010E06401912C812C8016910614F120974D
:103BD000A9F12196DE010D900020E9F711978701E8
:103BE000AC1BBD0BA430B10514F0A3E0B0E0EA0EAD
:103BF000FB1E0E151F05D1F4DF91CF911F910F9180
:103C0000FF90EF90DF90CF90BF90AF909F908F90FC
:103C10000895F50181915F0190E00E94DC2EF6018C
:103C200081936F01FFEF8F1A9F0ACECF899190E0A9
:103C30000E94DC2EF80181938F01DBCF83E0EBE360
:103C4000F1E0D70101900D928A95E1F7D5CF8F93DE
:103C5000549A5C9881E08093E5058F91189553986C
:103C60005B9A54985C9A0895FC011082549A5C986F
:103C70008FE391E00197F1F700C0000081E197E246
:103C80004B9B18C054985C9A90E080E061E070E033
:103C900021E137E24B9918C04C9B09C02081AB0150
:103CA000082E01C0440F0A94EAF7242B208321E157
:103CB00037E21BC025E02A95F1F70000019701F7D4
:103CC00054985C9A80E0089545E04A95F1F7000029
:103CD00021503109F9F60E942F1EF4CF45E04A9594
:103CE000F1F7000021503109B1F34B9BF7CF01965A
:103CF0008830910569F6549A5C988FE891E00197B5
:103D0000F1F700C0000081E00895FC01DB011082A2
:103D10001C9254985C9A89EC90E04B9B16C025E06D
:103D20002A95F1F70000019709F581E08C93549AE8
:103D30005C988FEE90E00197F1F700C00000549876
:103D40005C9A81E197E24B9907C090E080E061E0E6
:103D500070E021E137E214C025E02A95F1F7000078
:103D6000019789F70E942F1E80E008954A99D5CFC8
:103D7000F9CF45E04A95F1F700002150310991F360
:103D80004B99F7CF4C9B09C02081AB01082E01C095
:103D9000440F0A94EAF7242B208321E137E207C07D
:103DA00045E04A95F1F7000021503109D9F24B9BCB
:103DB000F7CF01968830910561F6549A5C9881E0BE
:103DC0000895539A5B9854985C9AEFE3F1E0319729
:103DD000F1F700C0000021E137E24C9B45C06623AB
:103DE00091F053985B9A21E137E24C9949C021E167
:103DF00037E24C9B4EC0539A5B98EFE3F1E031976A
:103E0000F1F700C0000030E020E090E0AC01022EAD
:103E100002C0559547950A94E2F740FF43C0549875
:103E20005C9AEFEEF0E03197F1F700C00000539894
:103E30005B9AEFEEF0E03197F1F700C00000539A83
:103E40005B982F5F3F4F2830310501F754985C9AFB
:103E500081E197E24C9929C08FE891E00197F1F751
:103E600000C0000081E00895F5E0FA95F1F7000048
:103E70002150310911F480E008954A99AECFFBCF6B
:103E800095E09A95F1F700002150310909F0ADCF86
:103E9000F2CFE5E0EA95F1F700002150310909F091
:103EA000A8CFE9CF549A5C98BCCFF5E0FA95F1F72A
:103EB0000000019779F6DFCFEF920F931F93CF9316
:103EC000DF938093C90690E3E92E0AEC16E00E9486
:103ED000A422EC018034910514F0C0E4D0E0AE01DE
:103EE00055276AEC76E086E896E00E94F12EC093B2
:103EF000C6061092C7061092C806DF91CF911F9197
:103F00000F91EF900895CF93C82F81E49DE00E9418
:103F100068078C2F90E00E9493078EE39DE00E943B
:103F20006807C093E6051092E8051092E705109225
:103F3000E5058AB1837C8AB98BB18C638BB980919A
:103F400069008C7F82608093690081E08CBBE89A75
:103F5000C9B18EE29DE00E9468078CE4C2FD88E44E
:103F60000E94550788E29DE00E9468078CE4C3FD2B
:103F700088E40E94550781E29DE00E9468078CE476
:103F8000C4FD88E40E9455078BE19DE00E9468070C
:103F90008CE4C5FD88E40E94550788E19DE00E94FD
:103FA0006807EBEEF5E08EEDDF011D928A95E9F7EB
:103FB00020E040E06FE371E089E4CF910C945C1F56
:103FC000CF93DF93EC01DB01E091C7068091C60639
:103FD000E81730F081E08C9380E0DF91CF91089575
:103FE00081E08E0F8093C706F0E0E65AF94F84A572
:103FF000888381E02091C7069091C606291708F4AE
:1040000080E08C9381E0E9CFCF92DF92EF92FF9234
:104010000F931F93CF93DF9300D00F92CDB7DEB7EE
:104020008091E4054D9923C0811115C081E08093F2
:10403000E40580EE9CE00E9468071092E80510926B
:10404000E7050E942F1E0E94780B0E9434170E94E1
:1040500094220E948D290F900F900F90DF91CF91A5
:104060001F910F91FF90EF90DF90CF9008958823DC
:1040700009F45BC01092E4058AEB9CE00E9468079B
:104080000E94DF0A0E94860B892B91F088EA9CE04F
:104090000E94680720E040E061E071E08AE40E944D
:1040A0005C1F85E090E00E94492E0E94780BD3CFE0
:1040B00087E99CE00E9468070E94C00B81110EC036
:1040C0008EE79CE00E94680720E040E061E071E03C
:1040D0008AE40E945C1F86E090E0E5CF87E69CE0E2
:1040E0000E9468070E94CF15892B79F486E59CE031
:1040F0000E9468070E94780B86E29CE00E94680795
:1041000090E080E00E94492EA6CF81E49CE00E94CE
:10411000680720E040E061E071E08AE40E945C1FF3
:1041200086E090E00E94492EE5CF4A9B41C08091F5
:10413000E7059091E805029709F08DCFAE014F5F3A
:104140005F4FBE016E5F7F4F8091E9050E9412268E
:10415000882359F10E948829FC0169818A8130975E
:1041600009F10680F781E02D3097E1F00995811182
:104170000AC08CE09CE00E9468071092E80510924B
:10418000E7050E942F1E8981882309F464CF84EFFC
:104190009BE00E9468071092E8051092E7050E94D4
:1041A0002F1E59CF0E94E11EE2CF85ED9BE0F1CF9B
:1041B0000E94FB2D89EC9BE00E946807549A5C9852
:1041C00082E0E82EF12CCC24C394D12C4A990AC069
:1041D000CE0103960E94341E811142C08EEA9BE0FC
:1041E0000E9468070E94FD2D8091E7059091E805E7
:1041F0000297D1F486E09BE00E9468070E945B2949
:104200000E9488298C01009779F0DC011A968D9123
:104210009C91892B49F08EEE9AE00E946807D801A4
:104220001A96ED91FC9109958091E7059091E8052A
:10423000019709F010CF81ED9AE00E946807809104
:10424000E90590E00E9493078EEC9AE00E946807CF
:1042500011E04A99C6C084EB9AE00E946807FBCE41
:1042600081EA9BE00E9468078B810E9476078B8120
:104270008F3361F585E99BE00E9468078091E7052F
:104280009091E805019709F0A1CF8091E9058F3061
:10429000C1F460915706662359F0E62FF0E0EA5129
:1042A000FA4F11AA87E196E00E94F927109257066B
:1042B0001092E8051092E7050E942F1E0E948D299A
:1042C00085CF8130A9F70E94F825F2CF8F3561F4B0
:1042D0008BE89BE00E9468078091E7059091E805D4
:1042E000029709F073CFE4CF182F1F71982F907E9B
:1042F0009032C9F481E89BE00E946807812F90E02A
:104300000E9493078EE79BE00E9468078091E60574
:1043100081135CCFD092E805C092E7058AE69BE066
:104320000E94680753CF9034B9F482E69BE00E9464
:104330006807812F90E00E9493078FE59BE00E9421
:1043400068078091E605811341CFF092E805E0927D
:10435000E7058DE49BE0E4CF982F907F903651F5F0
:10436000182F1F7083E49BE00E946807812F90E064
:104370000E94930780E49BE00E9468071093E90580
:104380008091E7059091E8058130910529F410921C
:104390005706109258061ACF029709F017CF549873
:1043A0005C9A8FE391E00197F1F700C00000539A07
:1043B0005B980CCF903E91F4182F1F7085E39BE023
:1043C0000E946807812F90E00E94930782E39BE0A0
:1043D0000E946807812F0E94F825F8CE8CE29BE0AE
:1043E0009FCFBE016F5F7F4FCE0102960E94851E58
:1043F000811103C08BE99AE030CF8091E90590915B
:10440000EB05911136C08F30A1F1E0911606E9322B
:1044100048F48A8191E09E0F90931606F0E0EA51ED
:10442000FA4F86838981882309F413CFE091160619
:10443000F0E0EA51FA4F16828AE89AE00E94680793
:104440008CEE95E00E945C0786E89AE00E9468077F
:10445000409116066CEE75E08091E9050E94C62237
:104460001093EB058981882309F4F3CE83E79AE062
:10447000F4CEE09157066A81E03440F491E09E0F5B
:1044800090935706F0E0EA51FA4F61AB0E94E027A3
:10449000E9CF8091E505882341F01092E5058AEF88
:1044A0009CE00E9468070C94042008950F931F93CA
:1044B000CF93DF93CDB7DEB7CC52D4400FB6F8948C
:1044C000DEBF0FBECDBF8C019C01AE01435D5D4FD1
:1044D00060ED78E580E090E00E9444092CE232E053
:1044E000AE014F5F5F4FB801CE01835D9D4F0E94CB
:1044F000DD2D8C011816190654F49C01AE014F5F96
:104500005F4F60ED7AE580E090E00E946F09C8019E
:10451000C45DDB4F0FB6F894DEBF0FBECDBFDF9199
:10452000CF911F910F910895E7E0F7E083E1DF015C
:104530001D928A95E9F71092020720E040E06FE3B0
:1045400071E089E40C945C1FEF920F931F931F920C
:104550002F931F924F937F936F931F928F938DE4AE
:1045600091E09F938F931F92EF921F930F930E945E
:104570000C2F2DB73EB7225F3F4F0FB6F8943EBFCA
:104580000FBE2DBF1F910F91EF9008957F928F92D4
:104590009F92AF92BF92CF92DF92EF92FF920F93D2
:1045A0001F93CF93DF93CDB7DEB7C356D1090FB6B4
:1045B000F894DEBF0FBECDBF182F7B01042F8BE315
:1045C0009EE00E946807812F90E00E94930783E39A
:1045D0009EE00E94680767014701800E911C8C14C1
:1045E0009D04E1F58FE29EE00E946807FE01EF5A0C
:1045F000FF4F1192119287E0DF011D928A95E9F732
:104600006C961FAE1EAE6C976E961FAE1EAE6E976A
:10461000123078F40E943D17811126C087E19EE098
:104620000E94680720E040E061E071E08AE40E94B7
:104630005C1FCD59DF4F0FB6F894DEBF0FBECDBF64
:10464000DF91CF911F910F91FF90EF90DF90CF906E
:10465000BF90AF909F908F907F900895D6018D91DD
:104660006D010E945507BBCF11111DC2013009F029
:104670001AC2F7018081843209F015C283E09EE0FE
:104680000E946807098384E08A8322E030E0AE015B
:104690004F5F5F4F60ED76E480E090E00E946F092D
:1046A0001B821C8282E18D8382E28E83E9E6F1E047
:1046B000DE01179689E791E021912D938E179F07D0
:1046C000D9F782E28F8B80E2888FEAE7F1E088E118
:1046D000919121E0280F482F50E09111B5C0E1E001
:1046E000F0E0EC0FFD1F4E0F5F1FDA011C9230E06F
:1046F0007901B2E0EB0EF11C8C5F8983C9018D5FFB
:104700009B4F9A83AF0162ED76E480E090E00E94D7
:104710006F09A0961FAE1EAEA09730E2C32E42E2F4
:10472000B42E0FE010E0BE016F5C7F4FCE01825AC5
:104730009F4F0E94A417AC01892B31F468EFE61655
:104740006FE0F60608F48BC00E940C1CA4966CAFB8
:104750007DAF8EAF9FAFA497BB27A92F982F872F30
:1047600019821A828B839C83A1E8B1E084E09D9139
:1047700061E0680F282F30E091118BC18824839469
:10478000912C8C0E9D1E280D391DD9011C92F4010F
:10479000E60FF11D1082E2E0E80F88248394912C4B
:1047A0008C0E9D1E8E0E911CF40110828D5F082FC1
:1047B00010E0B0E0A0E09701AD012053394B4F4F1E
:1047C0005F4FA4962CAF3DAF4EAF5FAFA49798015B
:1047D000AE014F5F5F4FA4966CAD7DAD8EAD9FADCA
:1047E000A4970E946F090E0D1F1D109306070093DA
:1047F0000507109204071092030711E010930207B7
:1048000084EF9DE00E94680780910507909106075C
:104810000E94930781EF9DE00E94680710920107B4
:10482000109200071092FF061092FE061092FD06ED
:104830001092FC061093FB061092FA0620E040E06E
:104840006EE871E080E0F3CE88248394912C8C0E86
:104850009D1E480D591DDA019C93822F39CF6CADF6
:1048600063FD61CF61968CAD9DADAEADBFAD61977F
:1048700081509F4FAF4FBF4F892F9A2FAB2FBB2730
:104880009C0119821A82009711F481E090E09C83C8
:104890008B832A30310508F03EC0CD82A5E0E1E0EF
:1048A000EA0F88248394912C8C0E9D1E8A0E911CF5
:1048B000D401CC9291E09E0FA1E0B0E0AC0FBD1FFF
:1048C000AE0FB11DFD01C08281E0890FE1E0F0E093
:1048D000EC0FFD1FE90FF11DB08228E030E0722FD0
:1048E000732E21503109E1E3F0E0EC0FFD1FE20FE0
:1048F000F31FE081E032D1F0FE01F1969E5F970F49
:10490000282FAA24A394A20E30E09A11A5C0870FE5
:10491000272F372D0EC02436310510F4A4E0BFCF69
:1049200094E0283E334080F6E4E0C4CF2115310501
:10493000B1F699AD7BAD703209F09AC07AAD7032A4
:1049400009F099C0903221F141E050E091E0980FD8
:104950007EE2E1E0F0E0EC0FFD1FE80FF11D708357
:10496000DE01D996792F740FDD90E92F9F5F88249F
:104970008394912C8C0E9D1E8E0E911CF401D0827E
:104980009713F2CF840F8F5FFA0131962E0F3F1FDE
:1049900091E0980FE1E0F0E0EC0FFD1FE80FF11D52
:1049A000B08271E1780F721BE92F9F5FA1E0B0E048
:1049B000AC0FBD1FAE0FB11DFD01C0829713F4CF28
:1049C0008E5FF801E21BF30BD82EDE0EE1E6F1E07C
:1049D00064FD11C04330510561F443E050E065E6E9
:1049E00071E0CE01C9960E94E42EE5E6F1E0892B44
:1049F00011F0EBE3F1E0319121E02D0D8D2D90E0F0
:104A000031113CC0E1E0F0E0EC0FFD1F8E0F9F1F65
:104A1000DC011C9230E049018E0C9F1CC4018F5FA9
:104A20009B4F9A838983B0E0A0E0A701BD0140536A
:104A3000594B6F4F7F4FA4964CAF5DAF6EAF7FAFBA
:104A4000A497AF01A4966CAD7DAD8EAD9FADA4973C
:104A50000E946F09740167CED19088248394912CB1
:104A60008C0E9D1E280D391DD901DC922A2D49CFAF
:104A700043E050E06BCF42E050E068CF882483945D
:104A8000912C8C0E9D1E880D991DDC013C93D22E1D
:104A9000B2CFE1E0F0E0EC0FFD1F2E0F3F1FF90158
:104AA0009083862F64CEAE01465A5F4FBE016F5A87
:104AB0007F4FC7010E94A51D81EE9DE00E946807FF
:104AC000AE014F5A5F4F7A016A0158E0C50ED11C02
:104AD000D7018D917D010E945507CE14DF04C1F7E7
:104AE0008DED9DE00E9468076B968FAD6B970E94DD
:104AF00055076C968FAD6C970E9455076D968FADDC
:104B00006D970E94550789ED9DE00E94680711117D
:104B100026C08CEC9DE00E94680747E057E0BE018C
:104B2000665A7F4FCE018F5A9F4F0E94F5178C0116
:104B3000892B09F440C086EB9DE00E946807882716
:104B40009927801B910B0E94930783EB9DE00E94A5
:104B5000680720E040E061E971E08EE368CD86EA15
:104B60009DE00E94680747E057E0BE01665A7F4F0C
:104B7000CE018F5A9F4F0E949F1A8C01892BD9F02A
:104B800089E89DE00E94680788279927801B910B80
:104B90000E94930786E89DE00E94680720E040E0BD
:104BA00060EA71E088E40A3F1F4F09F440CD6AEAE9
:104BB00071E089E13CCD109201071092000710923C
:104BC000FF061092FE061092FD061092FC0681E090
:104BD0008093FB061092FA0620E040E06EE871E058
:104BE00080E00E945C1F86E79DE00E94680721CD5F
:104BF000CF93C82F86E69DE00E9468078C2F90E037
:104C00000E94930783E69DE00E9468078091070752
:104C1000882321F087E097E00E94D51910920207BF
:104C2000CF910895BF92CF92DF92EF92FF920F93B0
:104C30001F93CF93DF9300D000D000D0CDB7DEB765
:104C4000082F6B017A01FA0110820E94B72D182FEC
:104C5000882309F44CC10F3009F44BC1F7011082CD
:104C60008091FC069091FD062091FE063091FF0692
:104C70008217930740F5B0E0A0E09C01AD012053FE
:104C8000354A4F4F5F4FCA01B9010E949909F60199
:104C900080838091FC069091FD0601969093FD061D
:104CA0008093FC062091FE063091FF068217930741
:104CB00008F446C08091FA06882309F441C081E0D7
:104CC000F70180833DC0B090FA06BB2029F081E057
:104CD000F701808310E034C00091FB06011181C010
:104CE0001A82198222E030E0AE014F5F5F4F60ED23
:104CF0007AE580E090E00E946F0982E090E0909376
:104D0000FF068093FE061092FD061092FC0601E05D
:104D10000093FA0660ED7AE580E090E00E94990940
:104D2000F601808381E090E09093FD068093FC067D
:104D30008091FE069091FF06029710F4F701008320
:104D4000812F26960FB6F894DEBF0FBECDBFDF9140
:104D5000CF911F910F91FF90EF90DF90CF90BF9078
:104D60000895B0E0A0E09C01AD012053394B4F4FB6
:104D70005F4F2B833C834D835E8321E030E0AE01A7
:104D80004F5F5F4F6B817C818D819E810E944409C2
:104D900080910307909104070196909304078093F4
:104DA00003078091000790910107B0E0A0E09C010B
:104DB000AD012053374A4F4F5F4F2B833C834D83C8
:104DC0005E8349816B817C818D819E810E94B209C5
:104DD00080910007909101070196909301078093BD
:104DE000000780910007909101078115924088F497
:104DF000809102078823C1F18091030790910407F5
:104E000020910507309106078217930708F4A9CF70
:104E1000B02E80910007909101070097B1F10E9498
:104E20005622181619060CF052CF9093FF06809365
:104E3000FE061092FD061092FC06109201071092D9
:104E40000007B1101092FB0660ED7AE580E090E07B
:104E50000E949909F601808381E090E09093FD061D
:104E60008093FC06102F6CCF80910707882381F276
:104E700041E050E0BE016F5F7F4F87E097E00E9406
:104E80008718019709F48DCFC3CF1A82198222E0C7
:104E900030E0AE014F5F5F4F60ED7AE580E090E07B
:104EA0000E946F0982E090E09093FF068093FE06D7
:104EB0001092FD061092FC061092FB0681E0809392
:104EC000FA0660ED7AE580E090E00E949909F6012B
:104ED000808381E090E09093FD068093FC068091B2
:104EE000FE069091FF06029708F02ACFE8CE0F3019
:104EF00031F4B701C6010E94E01F182F21CF011124
:104F0000E6CE10910207112381F180910307909161
:104F10000407B0E0A0E09C01AD012053394B4F4F96
:104F20005F4F2B833C834D835E8321E030E0A601FD
:104F30006B817C818D819E810E9444098091030751
:104F400090910407019690930407809303072091A2
:104F50000507309106078217930708F4F1CE81E028
:104F6000F701808310920207EBCE109107071123FF
:104F700009F4ADCE41E050E0BE016F5F7F4F87E0A6
:104F800097E00E948718019709F0A1CE8981F60168
:104F90008083409110075091110760911207709122
:104FA000130780910C0790910D07A0910E07B09107
:104FB0000F07481759076A077B0708F4C1CE7FCE51
:104FC000CF93DF930F92CDB7DEB76983813069F459
:104FD00080910707882349F041E050E0BE016F5FF0
:104FE0007F4F87E097E00E9428190F90DF91CF91C3
:104FF0000895AF92BF92CF92DF92EF92FF920F93FC
:105000001F93CF93DF93CDB7DEB7C754D1090FB647
:10501000F894DEBF0FBECDBF6C01162F662309F4D6
:105020009AC086E59DE00E94680776015601A10EB0
:10503000B11CEA14FB0409F04AC082E59DE00E941D
:105040006807012F1A3208F009E2E02EF12CA701BF
:10505000B601CE0101960E94F12E81E090E08C0F06
:105060009D1FE80EF91EF70110826C01F601819177
:105070006F0190E00E94DC2EF60131978083EC14E2
:10508000FD04A1F7602FCE0101960E94D72A81115D
:1050900062C0602FCE0101960E944A2B81115BC035
:1050A000602FCE0101960E948E2D882309F168E0C1
:1050B00070E0CE018B960E94BA2D181619066CF47A
:1050C00020E040E0BE01655D7F4F80E042C0F70117
:1050D00081917F010E945507ACCF0E94B72D20E03F
:1050E00040E066EB71E08111F0CF6EE871E0EDCF4A
:1050F0008981823509F441C064F4893409F4B7C068
:105100008E3409F47EC020E040E065ED71E08EE170
:1051100020C08335C1F71330B0F38A818A3399F701
:10512000AE01495C5F4FBE01655D7F4FCE010396C6
:105130000E94A51DBE01695C7F4FCE018B960E9427
:105140002D1A20E0892B09F051C041E065EC71E097
:1051500081E00E945C1FC95BDF4F0FB6F894DEBF91
:105160000FBECDBFDF91CF911F910F91FF90EF90B8
:10517000DF90CF90BF90AF900895133060F38A8195
:105180008A3349F76DE370E0CE0103960E94012F48
:10519000009709F4B8CFFC0111928F01AE014C5B6E
:1051A0005F4FBE01695C7F4FCE0103960E94A51D33
:1051B000AE01405C5F4FBE01655D7F4FC8010E943C
:1051C000A51D9E012C5B3F4FAE01495C5F4FBE01A8
:1051D000605C7F4FCE018B960E945E1B009719F496
:1051E00020E040E082CF039631F420E040E061E926
:1051F00071E08EE3AECF20E040E062EE71E08FE33D
:10520000A8CF133058F18A818A3341F54BE050E042
:1052100060E270E0CE018B960E94FA2E1EAABE01BB
:105220006D5F7F4FFB0101900020E9F7AF01415016
:105230005109461B570B4C30510514F04BE050E020
:10524000CE018B960E94F12ECE018B960E94501CAF
:10525000892B39F46EE871E080E006C090E080E0D0
:10526000F5CF6AEA71E089E120E040E072CF0E9468
:1052700034170E94CF15892B69F361E071E08AE44D
:10528000F3CF10921C0710921B0710921A07089573
:105290009C01892B79F0E0911C07E43058F481E0FF
:1052A0008E0F80931C07F0E0EE0FFF1FE35EF84FB8
:1052B0003183208308951F93CF93DF9310E0809173
:1052C0001C07181738F010921B0710921A0790E06D
:1052D00080E018C0C12FD0E0CC0FDD1FC35ED84FD7
:1052E000E881F9810480F581E02D309779F0099506
:1052F000882361F0E881F981F0931B07E0931A0796
:1053000080819181DF91CF911F9108951F5FD7CF49
:1053100080911A0790911B07089510921B07109215
:105320001A070895CF93DF93FC01DB0110821C92D2
:1053300054985C9A89EC90E04B9B17C04C9B15C02D
:1053400025E02A95F1F70000019709F04AC081E0B5
:105350008C93549A5C9885E48A95F1F700005498F0
:105360005C9A81E197E24B9930C090E080E029B1EE
:1053700039B123FB222720F9C22FB0E0DB2FBE0179
:10538000082E01C0660F0A94EAF72081262B34FB11
:10539000442740F950E0BC016F5F7F4FDA0102C043
:1053A000AA0FBB1F6A95E2F72A2B2083B5E4BA95B2
:1053B000F1F70000029688309105C9F6549A5C987E
:1053C00020EA2A95F1F781E009C04C9BCECFA5E0F9
:1053D000AA95F1F70000019731F680E0DF91CF91B7
:1053E00008954A99A9CFF9CF539A5B988FE391E03A
:1053F0000197F1F700C0000008954C9B15C080E0B4
:1054000012C085E08A95F1F700002F5F3F4F2337E8
:1054100081E03807A1F34C9BF4CF285C310981E08F
:105420002937310560F7089530E020E0F4CF662396
:1054300031F0EFE1F3E03197F1F700C0000021E136
:1054400037E24C9B33C030E020E090E0A9014F5F91
:105450005F4FBC0102C0759567954A95E2F7AB01B5
:105460004170BC01022E02C0759567950A94E2F75F
:1054700060FF25C053985B9A442321F154985C9AAD
:1054800075E47A95F1F700002E5F3F4F2830310523
:10549000E9F653985B9A54985C9A81E197E24C99AB
:1054A00014C0F0EAFA95F1F781E00895F5E0FA9575
:1054B000F1F700002150310921F680E00895539A58
:1054C0005B98DACF549A5C98DBCFE5E0EA95F1F788
:1054D0000000019721F7F1CF8CE092E00C9448296D
:1054E000809125078111109225070895089530E0D5
:1054F00020E090E0AC01022E02C0559547950A9439
:10550000E2F740FF1BC054985C9A45E14A95F1F7D9
:10551000000053985B9A4AE24A95F1F700C0539A0B
:105520005B982F5F3F4F2830310521F754985C9AE4
:105530008AE68A95F1F700C081E00895549A5C9854
:10554000E4CFFC011082DB011C9290E080E061E07E
:1055500070E021E137E207C0B5E0BA95F1F700004D
:1055600021503109F1F04B9BF7CF4C9B09C02081B2
:10557000AB01082E01C0440F0A94EAF7242B2083C4
:1055800021E137E24B9906C001968830910509F771
:1055900081E0089545E04A95F1F700002150310976
:1055A00089F780E0089588E192E00C944829FC0195
:1055B000623050F08081853539F48181803321F467
:1055C00081E080932507089580E008958091270762
:1055D000811110922707089580E00895089521E130
:1055E00037E24B993AC0549A5C986AE66A95F1F7AB
:1055F00000C030E020E090E0A9014F5F5F4FBC01A8
:1056000002C0759567954A95E2F7AB014170BC0100
:10561000022E02C0759567950A94E2F760FF29C0D3
:1056200053985B9A442341F154985C9A7AE47A95B2
:10563000F1F700C02E5F3F4F28303105E9F654984E
:105640005C9A53985B9A81E197E24B9B18C045E8BE
:105650004A95F1F7000081E0089545E04A95F1F799
:1056600000002150310911F480E008954A99B9CF22
:10567000FBCF539A5B98D6CF549A5C98D7CF25E04E
:105680002A95F1F70000019701F7EECF84E292E04E
:105690000C944829FC016330A0F080818D3489F49A
:1056A00081818D3271F48281873559F4809126078A
:1056B0008F5F80932607833030F081E08093270747
:1056C000089580E0089581E008952F923F924F92CF
:1056D0005F926F927F928F929F92AF92BF92CF9282
:1056E000DF92EF92FF920F931F93CF93DF93CDB78B
:1056F000DEB7CC50D2400FB6F894DEBF0FBECDBFA0
:105700005C018B011A01C9016115710509F45BC1C6
:10571000FE01319620E032E0DF01A9011D924150E7
:105720005040E1F7D501A60FB71FCB5FDD4FB9831E
:10573000A883C550D2401597C55FDD4FB983A883B4
:10574000CB50D240CB5FDD4F28813981C550D2404C
:1057500024503109C95FDD4F39832883C750D240B7
:10576000A101480F591FC75FDD4F59834883C950B6
:10577000D24064307105ECF0D5012D913D914D91F1
:105780005C9161EB79E787E39EE90E94842ECF5F0D
:10579000DD4F688379838A839B83C150D240892FF0
:1057A0009927AA27BB27880F991FE80FF91F118295
:1057B00010824501BFEF8B1A9B0A8101F50174012C
:1057C000C95FDD4F28813981C750D2402E153F0572
:1057D00008F04AC0CB5FDD4FE880F980C550D24069
:1057E000EE1AFF0A1E141F04E4F570E060E0BFE04B
:1057F000EB16F10444F0C7010F976FEF70E00E94C1
:10580000A82E6F5F7F4F6F5F7F4F6E0D7F1D600F04
:10581000711FC75FDD4F28813981C950D2402617DB
:10582000370708F4CEC068013FEFC31AD30A8E2DA4
:1058300040E1E416F1040CF08FE08295807FD801FE
:105840008C93C7010F974FEFBFE0EB16F1040CF0FC
:1058500056C1A701BF01C6010E94F12E86010E0D9F
:105860001F1D02191309AFC0D7014D905D906D90B7
:105870007C90A301920161EB79E787E39EE90E94A6
:10588000842ECF5FDD4F688379838A839B83C150E9
:10589000D240892F9927AA27BB27880F991F21E07B
:1058A00030E02C0F3D1F820F931FDC01CD90DC9068
:1058B0001197CA0CDB1C97012A193B092D933C93C5
:1058C00097012C193D09CF5FDD4F39832883C150E3
:1058D000D240EC14FD0481F0C701821B930B8A15A2
:1058E0009B0550F0D6014D915D916D917C914416D0
:1058F00055066606770621F0BFEFEB1AFB0A60CF6C
:10590000C114D10409F466CFC701049634E0C30E74
:10591000D11C4C01C55FDD4F48815981CB50D2402D
:105920008417950740F40196D6012D916D01D4019D
:105930003C91321771F36401CE18DF08EE1AFF0AAA
:105940003701B0E1EB16F1041CF05FE0652E712C1D
:10595000C60124E1C216D10414F083E190E02C01C9
:1059600034E0431A510830E020E04FE0E416F1043F
:105970004CF0C7010F976FEF70E00E94A82E9B01BB
:105980002F5F3F4F70E060E053E1C516D10444F053
:10599000C60143976FEF70E00E94A82E6F5F7F4FA4
:1059A0002E0D3F1D2D5F3F4F260F371F200F311F3C
:1059B000C75FDD4F88819981C950D2408217930714
:1059C000E8F40FEF1FEFC801C45FDD4F0FB6F89486
:1059D000DEBF0FBECDBFDF91CF911F910F91FF9022
:1059E000EF90DF90CF90BF90AF909F908F907F907F
:1059F0006F905F904F903F902F90089544E0660C19
:105A0000771C4A95E1F76428D8016D928D01C70192
:105A10000F97BFE0EB16F1040CF059C0A701BF01CE
:105A2000C8010E94F12E0E0D1F1DF801CF5FDD4F42
:105A300028813981C150D240219331938F0133E1C4
:105A4000C316D1046CF043E1C41AD108C801019611
:105A50002FEFC216D1040CF044C0D801CC928C01B7
:105A6000C95FDD4FE881F981C750D240E815F905DB
:105A700008F43FC0D4012D913D914D915C9161EBB3
:105A800079E787E39EE90E94842ECF5FDD4F68832C
:105A900079838A839B83C150D240892F9927AA2773
:105AA000BB27880F991FE1E0F0E0EC0FFD1F8E0F80
:105AB0009F1F94012A193B09DC012D933C93F401AB
:105AC0007ECE4FEFD8014C938F5F910989019801E9
:105AD0002F5F3F4F8F3F9105A4F7D8018C93890129
