:100000000C94D9050C94F6050C94F6050C94F605A1
:100010000C94F6050C94F6050C94F6050C94F60574
:100020000C94F6050C94F6050C94A80B0C94F605AC
:100030000C94F6050C94F6050C94F6050C94F60554
:100040000C94F6050C94F6050C94F6050C94F60544
:100050000C94F6050C94F6050C94F6050C94F60534
:100060000C94F6050C94F60552656164792E0D0A20
:10007000004E6F206469736B0D0A004641543132A3
:10008000204F4B0D0A004D6F756E74204641543160
:10009000322E2E2E0D0A004E6F2064726976652175
:1000A0000D0A004472697665204F4B0D0A00466CBC
:1000B0006F70707920696E69742E2E2E0D0A0043C0
:1000C0006F6D7072657373204F4B0D0A004661733C
:1000D000746C6F6164204F4B0D0A004945432064E6
:1000E00065766963652023380D0A00373448433547
:1000F0003935204F4B0D0A005352414D204F4B0DC7
:100100000A000D0A3D3D3D2036346B6F72707075EC
:100110002076312E3020284E616E6F2B5352414D88
:1001200029203D3D3D0D0A000D0A00204552520098
:100130005B4449534B5D2077726974652072633D5F
:10014000000D0A0020523D0020533D0020543D0088
:100150005B4449534B5D207772697465204C424182
:100160003D000D0A0020455252005B4449534B5D4F
:1001700020726561642072633D000D0A0020523DCB
:100180000020533D0020543D005B4449534B5D200B
:1001900072656164204C42413D0030313233343568
:1001A0003637383941424344454600204641494CA0
:1001B000210D0A00204F4B0D0A002072656164205A
:1001C0003078005B5352414D5D20746573743A2062
:1001D00077726F7465203078005B5352414D5D201B
:1001E000696E6974205350492E2E2E0D0A000D0A97
:1001F000005B53525D2064656661756C743D3078B8
:10020000005B53525D20696E69740D0A005B464CB9
:10021000505D207772697465204F4B0D0A005B4674
:100220004C505D204D464D207772697465204641E3
:10023000494C0D0A005B464C505D204D464D2077E1
:10024000726974652E2E2E0D0A005B464C505D209F
:1002500077726974653A207365656B206661696CB5
:1002600065640D0A005B464C505D207772697465C9
:10027000204552523A2077726974652070726F740B
:100280006563746564210D0A005B464C505D207700
:1002900072697465204552523A2062616420736528
:1002A00063746F720D0A000D0A0020523D00205346
:1002B0003D005B464C505D20777269746520543D6B
:1002C000000D0A005B464C505D2072656164204F52
:1002D0004B2C2066697273742062797465733A20BE
:1002E000005B464C505D204D464D206465636F6455
:1002F00065204641494C0D0A002E2E2E0D0A005B4A
:10030000464C505D204D464D206465636F6465200A
:10031000523D005B464C505D204D464D2063617060
:1003200074757265204F4B0D0A000D0A005B464C38
:10033000505D204D464D2063617074757265204696
:1003400041494C2072633D005B464C505D204D4658
:100350004D20636170747572652E2E2E0D0A005B40
:10036000464C505D20726561643A207365656B2070
:100370006661696C65640D0A000D0A005B464C50AD
:100380005D2057503D005B464C505D2072656164B6
:10039000204552523A2062616420736563746F7223
:1003A0000D0A000D0A0020523D0020533D005B461F
:1003B0004C505D207265616420543D000D0A005B65
:1003C000464C505D20736964653D000D0A002D3E6A
:1003D00054005B464C505D207365656B2054005B98
:1003E000464C505D207365656B3A206E6F742069D2
:1003F0006E697469616C697A65642C2072656361E9
:100400006C6962726174696E670D0A000D0A0020E2
:100410003E3D20005B464C505D207365656B20457A
:1004200052523A20747261636B20005B464C505DFF
:10043000204552523A2054524B3030206E6F742077
:10044000666F756E6420616674657220383520733E
:1004500074657073210D0A002073746570730D0A42
:10046000005B464C505D2054524B303020666F7517
:100470006E6420616674657220005B464C505D209E
:10048000726563616C6962726174653A2073656557
:100490006B696E6720747261636B20302E2E2E0D97
:1004A0000A005B464C505D206D6F746F72204F46A2
:1004B000460D0A005B464C505D206D6F746F7220D4
:1004C0004F4E20646F6E650D0A005B464C505D20F8
:1004D0006D6F746F72204F4E2C207370696E2D7586
:1004E000702E2E2E0D0A000D0A005B464C505D202A
:1004F000696E697420646F6E652C2053523D3078AC
:10050000000D0A002044534B4348473D00205750FC
:10051000543D005B464C505D20696E707574733AB3
:100520002054524B30303D005B464C505D20696E8C
:100530006974204750494F2E2E2E0D0A00206E6FF1
:100540007420666F756E640D0A005B4D464D5D202C
:100550006465636F6465204641494C3A2073656366
:10056000746F7220000D0A00204D41544348210D44
:100570000A00204E3D0020523D0020533D005B4DBF
:10058000464D5D204944414D3A20543D005B4D4667
:100590004D5D206465636F6465204F4B2C203531C1
:1005A000322062797465730D0A00207061636B7389
:1005B0000D0A002C207363616E20005B4D464D5D7B
:1005C000206465636F646520736563746F722000D7
:1005D0005B4D464D5D2063617074757265205449B2
:1005E0004D454F5554210D0A006D730D0A002070C2
:1005F00061636B732C20005B4D464D5D2063617021
:10060000747572653A20005B4D464D5D20636170E4
:10061000747572652073746172740D0A000D0A009E
:10062000206D6F643D002077726974653D005B4604
:1006300041545D20636C6F73653A20706F733D00A9
:100640000D0A002073697A653D005B4641545D20C8
:100650006F70656E65643A20636C75737465723D86
:10066000005B4641545D2066696C65206E6F7420A6
:10067000666F756E640D0A00270D0A005B464154D3
:100680005D206F70656E5F726561642027005B4658
:1006900041545D206D6F756E74204F4B0D0A000D37
:1006A0000A005B4641545D20464154312072656129
:1006B00064204641494C20617420736563746F72F5
:1006C000200020736563746F7273292E2E2E0D0A1D
:1006D000005B4641545D2072656164696E67204627
:1006E0004154312028005B4641545D206E6F2062EA
:1006F0006F6F74207369672C2064656661756C7414
:10070000206C6162656C0D0A000D0A00272073657C
:100710007269616C3D3078005B4641545D206C61CC
:1007200062656C3D27005B4641545D204552523A5C
:10073000207370633D3D300D0A005B4641545D20DF
:100740004552523A206E666174213D320D0A005BBB
:100750004641545D204552523A20627073213D3526
:1007600031320D0A000D0A00207369673D307800B0
:1007700020726F6F743D002068656164733D0020D6
:100780007370743D005B4641545D204250423A20F4
:100790007370663D000D0A00206D656469613D302F
:1007A000780020746F743D00206E6661743D0020F7
:1007B0007370633D005B4641545D204250423A20D5
:1007C0006270733D005B4641545D206D6F756E74C1
:1007D0003A20626F6F7420736563746F7220726564
:1007E0006164204641494C0D0A005B4641545D203E
:1007F0006D6F756E743A2072656164696E67206210
:100800006F6F7420736563746F722E2E2E0D0A0045
:100810005B4641545D20616C7265616479206D6F47
:10082000756E7465640D0A005B4945435D206C6913
:100830007374656E20454F490D0A00270D0A005B51
:100840004945435D2066696C656E616D653D2700B5
:100850005B4945435D206C697374656E2072656306
:1008600076206661696C0D0A005B4945435D204155
:10087000544E20647572696E67206C697374656E7E
:100880000D0A000D0A005B4945435D206C697374D5
:10089000656E696E6720666F7220646174612053B3
:1008A000413D005B4945435D20666173746C6F6137
:1008B00064206163746976650D0A005B4945435D98
:1008C0002041544E2072656C65617365642C206410
:1008D000657465637420666173746C6F61640D0A7E
:1008E00000203F3F0D0A000D0A0020434C4F5345A6
:1008F0002053413D000D0A00204F50454E205341EA
:100900003D005B4945435D202D3E2054414C4B4505
:10091000520D0A000D0A002054414C4B2023005B6D
:100920004945435D202D3E204C495354454E455288
:100930000D0A000D0A00204C495354454E20230057
:1009400020554E54414C4B0D0A0020554E4C4953F6
:1009500054454E0D0A005B4945435D20636D643D7F
:100960003078005B4945435D2041544E20627974E4
:10097000652072656376206661696C0D0A005B49CB
:1009800045435D2041544E0D0A005B4945435D20BF
:1009900074616C6B3A20454F492C20646F6E650D75
:1009A0000A005B4945435D2074616C6B3A207365B6
:1009B0006E64206661696C65640D0A005B4945439D
:1009C0005D207265696E697420646F6E652C20729B
:1009D000656164790D0A005B4945435D206E6F20B7
:1009E0006469736B0D0A005B4945435D20464154C1
:1009F0003132204F4B0D0A005B4945435D206D6F3E
:100A0000756E742046415431322E2E2E0D0A005B35
:100A10004945435D206E6F206472697665210D0A39
:100A2000005B4945435D206472697665204F4B0D3C
:100A30000A005B4945435D207265736574207265E9
:100A40006C65617365642C207265696E69742066DB
:100A50006C6F7070790D0A005B4945435D207761CA
:100A60006974696E6720666F7220726573657420A1
:100A700072656C656173652E2E2E0D0A005B49450B
:100A8000435D202A2A2A204255532052455345547B
:100A9000202A2A2A0D0A000D0A00205253543D0034
:100AA00020444154413D0020434C4B3D005B4945AF
:100AB000435D206275733A2041544E3D000D0A009B
:100AC0005B4945435D20696E697420646576202327
:100AD00000270D0A005B444F535D20636D643A208C
:100AE00027000D0A005B444F535D20636C6F7365F4
:100AF0002053413D005B444F535D206F70656E2075
:100B00004F4B0D0A000D0A005B444F535D205341CB
:100B1000564520637265617465206661696C656421
:100B20002072633D005B444F535D20534156450D99
:100B30000A000D0A005B444F535D204C4F41442096
:100B40006661696C65642072633D005B444F535D70
:100B5000204C4F41440D0A00270D0A00272E270084
:100B60005B444F535D207061727365643A202700C7
:100B70000D0A005B444F535D20646972206C656E02
:100B80003D005B444F535D20646972206C6973744F
:100B9000696E670D0A00270D0A002066696C653DC5
:100BA00027005B444F535D206F70656E2053413DBD
:100BB000000011241FBECFEFD8E0DEBFCDBF12E092
:100BC000A0E0B1E0ECEDF5E502C005900D92A03398
:100BD000B107D9F725E0A0E3B2E001C01D92A53925
:100BE000B207E1F70E9466070C94E52A0C94000016
:100BF0001092C5008FEC8093C400E0ECF0E080819F
:100C00008260808388E08093C10086E08093C20088
:100C100008959091C00095FFFCCF8093C600089581
:100C2000CF93DF93EC018991811103C0DF91CF91C4
:100C300008950E940906F7CFCF93DF93EC01FE01E0
:100C400084912196811103C0DF91CF9108950E9474
:100C50000906F5CFCF93C82FE82FE295EF70F0E0AB
:100C6000E656FE4F84910E940906CF70EC2FF0E00B
:100C7000E656FE4F8491CF910C940906CF93C82F6E
:100C8000892F0E942A068C2FCF910C942A06CF928E
:100C9000DF92EF92FF920F931F93CF93DF9300D0D9
:100CA00000D000D0CDB7DEB79C01892B89F480E35A
:100CB00026960FB6F894DEBF0FBECDBFDF91CF9161
:100CC0001F910F91FF90EF90DF90CF900C94090649
:100CD000CE0101967C01FC0110E000E08AE0C82E04
:100CE000D12C0F5F1F4FC901B6010E948A27805D7A
:100CF0008193C9019B010A97A0F70E0D1F1DF801F2
:100D000082918F010E9409060E151F05C1F72696D4
:100D10000FB6F894DEBF0FBECDBFDF91CF911F910C
:100D20000F91FF90EF90DF90CF900895BF92CF92F8
:100D3000DF92EF92FF920F931F93CF93DF93182FC1
:100D4000D92FF62E072F64E270E00E948A276B01EC
:100D500062E170E00E948A27E62EB72EC1E0C80F3C
:100D600089E891E00E941C06812F9D2F0E94470672
:100D700085E891E00E941C06C60199270E9447065B
:100D800081E891E00E941C068E2D9B2D0E94470653
:100D90008DE791E00E941C068C2F90E00E94470690
:100DA0008AE791E00E941C062F2D302F4C2F6E2DCC
:100DB0008C2D0E945F0AEC018AE691E00E941C06DD
:100DC000CE01D7FF04C0882799278C1B9D0B0E945A
:100DD0004706D7FF04C085E691E00E941C0682E624
:100DE00091E00E941C06CE01DF91CF911F910F91DF
:100DF000FF90EF90DF90CF90BF900895BF92CF9279
:100E0000DF92EF92FF920F931F93CF93DF93182FF0
:100E1000D92FF62E072F64E270E00E948A276B011B
:100E200062E170E00E948A27E62EB72EC1E0C80F6B
:100E300080E591E00E941C06812F9D2F0E944706AD
:100E40008CE491E00E941C06C60199270E94470687
:100E500088E491E00E941C068E2D9B2D0E9447067F
:100E600084E491E00E941C068C2F90E00E944706CB
:100E700081E491E00E941C062F2D302F4C2F6E2D07
:100E80008C2D0E94170BEC0180E391E00E941C0660
:100E9000CE01D7FF04C0882799278C1B9D0B0E9489
:100EA0004706D7FF04C08BE291E00E941C0688E24F
:100EB00091E00E941C06CE01DF91CF911F910F910E
:100EC000FF90EF90DF90CF90BF900895F8940E942C
:100ED000F80582E091E00E941C060E9439270E94DA
:100EE0006F0888EF90E00E941C060E94E3088BEEDA
:100EF00090E00E941C060E94990B8BED90E00E94EE
:100F00001C0688E00E94C2180E94961B0E9437228D
:100F10000E9462230E94C9230E943C248DEC90E031
:100F20000E941C060E947F268FEB90E00E941C0608
:100F300078940E9432098EEA90E00E941C060E947A
:100F40007D090E94AB09892BE9F483EA90E00E94B5
:100F50001C0686E890E00E941C060E94190F892B4F
:100F6000D1F48BE790E00E941C060E949D0988E660
:100F700090E00E941C0690E080E00E943F270E94C3
:100F80003819FDCF87E990E00E941C0685E090E0CB
:100F90000E943F27DECF81E790E00E941C0686E09A
:100FA00090E00E943F27E1CF8EBD0DB407FEFDCF3C
:100FB0008EB50895CF93C62F872F0E94D4078C2F0C
:100FC000CF910C94D407CF92DF92EF92FF920F93C0
:100FD0001F93CF93DF936B01D82FC92F7A0189011B
:100FE0002A9883E00E94D407B6018D2F9C2F0E947F
:100FF000DA07E7010E0D1F1DC017D10751F42A9A19
:10100000DF91CF911F910F91FF90EF90DF90CF90E4
:10101000089580E00E94D4078993EECFCF92DF92AB
:10102000EF92FF920F931F93CF93DF936B01D82F13
:10103000C92F7A0189012A9882E00E94D407B6015B
:101040008D2F9C2F0E94DA07E7010E0D1F1DC01780
:10105000D10751F42A9ADF91CF911F910F91FF9000
:10106000EF90DF90CF90089589910E94D407EFCF41
:101070000F931F93CF93DF938B01D82FC92F2A98FB
:1010800083E00E94D407B8018D2F9C2F0E94DA07BD
:1010900080E00E94D4072A9ADF91CF911F910F918F
:1010A0000895FF920F931F93CF93DF93F62E072F90
:1010B000182FD92FC42F2A9882E00E94D4076F2DB1
:1010C000702F812F9D2F0E94DA078C2F0E94D4074A
:1010D0002A9ADF91CF911F910F91FF900895CF939E
:1010E00089ED91E00E941C0684B18C6284B9249839
:1010F0002A9A80E58CBD8DB581608DBD2A9881E0EE
:101100000E94D40780E40E94D4072A9A45EA60E04E
:1011100070E0CB010E94510860E070E0CB010E94BA
:101120003808C82F83EC91E00E941C0685EA0E94D3
:101130002A068AEB91E00E941C068C2F0E942A0648
:1011400084EB91E0C53A11F08BEA91E0CF910C94D9
:101150001C060F931F93CF93DF938B01D82FC92FBA
:101160002A9882E00E94D407B8018D2F9C2FDF912E
:10117000CF911F910F910C94DA072A9A08950F933B
:101180001F93CF93DF938B01D82FC92F2A9883E029
:101190000E94D407B8018D2F9C2FDF91CF911F9112
:1011A0000F910C94DA071EBC0DB407FEFDCF8EB56F
:1011B00008952A9A809300018EBD0DB407FEFDCFDD
:1011C0005E9A5E98089581E092E00E941C06569A0D
:1011D0005E988FEF809300010E94D90881EF91E023
:1011E0000E941C06809100010E942A068EEE91E06A
:1011F0000C941C0621E030E001C0220F8A95EAF72A
:101200002095809100018223809300010C94D908DD
:1012100021E030E001C0220F8A95EAF780910001B9
:10122000822B809300010C94D9088823B9F085E0C3
:101230000E94FA0885E38A95F1F7000086E00E9493
:10124000FA0890E19A95F1F786E00E9408098FED7F
:101250009EE20197F1F700C00000089585E00E942A
:101260000809E8CFCF9388E295E00E941C0687B179
:10127000887F87B988B1876088B92098579A5F9A24
:10128000219A85EF0E94D908C6B183E195E00E94BA
:101290001C068CE4C0FD88E40E9409068DE095E000
:1012A0000E941C068CE4C1FD88E40E94090684E0CB
:1012B00095E00E941C068CE4C2FD88E40E940906A9
:1012C00081E095E00E941C061092300210923102DB
:1012D0001092320281E08093330210923402109215
:1012E00035028AEE94E00E941C0685EF0E942A06D1
:1012F00087EE94E0CF910C941C068091320281110C
:101300001BC08AEC94E00E941C0682E00E94FA084E
:1013100084E00E94FA082FEF89E698E1215080408E
:101320009040E1F700C0000081E080933202299AEA
:1013300084EB94E00C941C06089582EA94E00E94E9
:101340001C0682E00E94080984E00E9408091092AD
:10135000320229980895CF93DF938AE794E00E94A0
:101360001C06D0E0C0E030991BC01092300281E032
:10137000809335028FE59AEE0197F1F700C00000E7
:1013800081E694E00E941C06CE010E94470688E593
:1013900094E00E941C0690E080E0DF91CF910895D8
:1013A00080E00E9415092196C535D105E1F68BE252
:1013B00094E00E941C068FEF9FEFEFCFCF93C82FD2
:1013C0008035C0F084E194E00E941C068C2F90E0F0
:1013D0000E9447068FE094E00E941C0680E590E0A2
:1013E0000E9447068CE094E00E941C068EEF9FEF5F
:1013F000CF91089580913502882331F18091300298
:101400008C17A9F082ED93E00E941C0680913002B7
:1014100090E00E9447068EEC93E00E941C068C2F01
:1014200090E00E9447068BEC93E00E941C0680919E
:101430003002C81312C08FE59AEE0197F1F700C091
:10144000000090E080E0D4CF8FED93E00E941C0676
:101450000E94AB09009791F2CBCF8C1748F481E042
:101460000E941509809130028F5F80933002DFCF98
:1014700080E00E941509809130028150F6CFCF9311
:10148000C82F8FEB93E00E941C068C2F90E00E94E7
:1014900047068CEB93E00E941C0680E0CC2361F0B1
:1014A0000E94FA08C09331028FE891E00197F1F7AA
:1014B00000C00000CF9108950E940809F3CFCF9299
:1014C000DF92EF92FF920F931F93CF93DF93C82F7A
:1014D000E62EF42E89018EEA93E00E941C068C2FE2
:1014E00090E00E9447068AEA93E00E941C068E2D37
:1014F00090E00E94470686EA93E00E941C06CF2CEB
:10150000D12CC6010E94470683EA93E00E941C0684
:101510008FEF8F0D823180F086E893E00E941C06E9
:10152000C8EFDFEFCE01DF91CF911F910F91FF90B8
:10153000EF90DF90CF9008950E947D0996B1969527
:10154000917081E09827909334028CE793E00E9499
:101550001C068091340281112DC08EE40E94090680
:1015600089E793E00E941C068C2F0E94DE09EC01A3
:101570008FE593E0209709F057C08E2D0E943F0A17
:1015800088E493E00E941C060E94250CEC01892B44
:1015900099F08DE293E00E941C06882799278C1B06
:1015A0009D0B0E9447068AE293E00E941C06CDEF45
:1015B000DFEFB8CF89E5D2CF83E193E00E941C062C
:1015C0008FEF92E00E941C06C6010E94470689EF39
:1015D00092E00E941C06B8018F2D0E948E0CEC0137
:1015E000892B19F081EE92E0E0CF84EC92E00E942A
:1015F0001C06F80180810E942A0680E20E940906EA
:10160000F80181810E942A0680E20E940906F80101
:1016100082810E942A0680E20E940906F8018381E5
:101620000E942A0681EC92E00E941C067BCFBF92AA
:10163000CF92DF92EF92FF920F931F93CF93DF939E
:1016400000D000D000D0CDB7DEB7D82EE62EF42ED5
:10165000B22EC32E82EB92E00E941C068D2D90E0EC
:101660000E9447068EEA92E00E941C068E2D90E0B2
:101670000E9447068AEA92E00E941C068F2D90E0A5
:101680000E94470687EA92E00E941C068FEF8F0DAA
:101690008231B8F089E892E00E941C0608EF1FEF43
:1016A000C80126960FB6F894DEBF0FBECDBFDF91FE
:1016B000CF911F910F91FF90EF90DF90CF90BF904F
:1016C00008950E947D09319907C085E692E00E9445
:1016D0001C060BEF1FEFE4CF8D2D0E94DE098C015D
:1016E0008AE492E00115110509F58E2D0E943F0A4A
:1016F0001E821D82D982EA82FB8282E08C8385E38E
:1017000092E00E941C066B2D7C2DCE0101960E945A
:10171000060E8C018DE092E00115110539F08EE185
:1017200092E00E941C060CEF1FEFBACF0E941C062D
:10173000B7CF10928000E1E8F0E081E08083808103
:101740008F7B8083EFE6F0E080818F7D808308953A
:101750000F920FB60F921F9211242F933F938F93E6
:101760009F93AF93BF9380918600909187002091C3
:101770003D0230913E02821B930B209186003091F6
:10178000870030933E0220933D028035910508F496
:1017900056C08037910508F454C0803A910508F48A
:1017A00052C083E02091380294E0299F90011124D7
:1017B000822B80933802809137028F5F80933702AB
:1017C000809137028430D8F0809138028EBD0DB4FC
:1017D00007FEFDCF8091390290913A02A0913B0221
:1017E000B0913C020196A11DB11D809339029093E6
:1017F0003A02A0933B02B0933C02109237028091D0
:10180000390290913A02A0913B02B0913C02803C97
:101810009043A105B10540F080916F008F7D8093CA
:101820006F0081E080933602BF91AF919F918F91BD
:101830003F912F911F900F900FBE0F90189580E051
:10184000B1CF81E0AFCF82E0ADCFCF93DF9387E020
:1018500096E00E941C061092390210923A021092F1
:101860003B0210923C021092380210923702109202
:10187000360260E070E0CB010E94A908B59A809121
:1018800086009091870090933E0280933D02809164
:101890006F00806280936F007894D0E0C0E0809108
:1018A0003602811104C0C43F91E0D90761F58091EF
:1018B0006F008F7D80936F000E94BD0887EF95E0D9
:1018C0000E941C068091390290913A02A0913B023D
:1018D000B0913C020E9447068EEE95E00E941C06E5
:1018E000CE010E94470689EE95E00E941C06C43F87
:1018F000D14089F480ED95E00E941C0687EF9FEFB0
:10190000DF91CF9108958FE99FE00197F1F700C033
:1019100000002196C4CF90E080E0F2CF2F923F925A
:101920004F925F926F927F928F929F92AF92BF92EF
:10193000CF92DF92EF92FF920F931F93CF93DF939B
:10194000CDB7DEB760970FB6F894DEBF0FBECDBF40
:101950008E876C877D878BEB95E00E941C062E8519
:10196000822E912CC4010E94470683EB95E00E94D1
:101970001C068091390290913A02A0913B02B091ED
:101980003C020E9447068AEA95E00E941C0680916C
:10199000390290913A02A0913B02B0913C0260E082
:1019A00070E0CB010E94BF08412C512C32011986F6
:1019B000D12CC12C1B861A861886312C212C00E0D4
:1019C00010E01F82F12CE12C8091390290913A02B3
:1019D000A0913B02B0913C02481659066A067B066C
:1019E00080F00E94BD088AE495E00E941C06C401B4
:1019F0000E9447068DE395E00E941C0688EF9FEF4A
:101A000079C00E94D30836E0A32EB12C282F30E0F5
:101A1000388B2F878F8598890A2C02C095958795DA
:101A20000A94E2F783708130F9F0823031F181114C
:101A3000E5C0EE0CFF1CEE0CFF1C6894E0F882E0A1
:101A40003F81380F3F832F81223000F532E0A31A07
:101A5000B1088EEFA8168FEFB806E1F69FEF491A8E
:101A6000590A690A790AB0CF93E0EE0CFF1C9A95E7
:101A7000E1F76894E0F883E0E3CF84E0EE0CFF1C2C
:101A80008A95E1F76894E0F884E0DACF8F8182509C
:101A90008F83C7010F8002C0969587950A94E2F75D
:101AA0008170110F182B2A853B852F5F3F4F3B8795
:101AB0002A87C90187709927892B29F601110BC044
:101AC000113A09F07DC0239401E032E0321508F0AC
:101AD00000E010E0B8CF88858823A1F1C11492E01E
:101AE000D90608F18DE895E00E941C060E94BD0809
:101AF00090E080E060960FB6F894DEBF0FBECDBFD9
:101B0000DF91CF911F910F91FF90EF90DF90CF90D9
:101B1000BF90AF909F908F907F906F905F904F900D
:101B20003F902F900895C6010196EC85FD85EC0D40
:101B3000FD1D10832FEFC21621E0D20699F26C0131
:101B40000885C7CF332009F442C0C6010196E1E001
:101B5000F0E0EC0FFD1FEC0DFD1D10836C01032D5B
:101B6000049708F4B6CF8EE795E00E941C068981A1
:101B700090E00E9447068AE795E00E941C068A8151
:101B800090E00E94470686E795E00E941C061B81B4
:101B9000812F90E00E94470682E795E00E941C0694
:101BA0008C8190E00E9447063E8513130BC088E6A7
:101BB00095E00E941C063986D12CC12C312C00E006
:101BC000212C87CF85E695E00E941C06F5CF1E3FAD
:101BD00051F01B3F69F48985882361F0D12CC12C19
:101BE0008887082F76CFD12CC12C3886302E71CF24
:101BF0003886E5CF99859887392EE1CF1886312C24
:101C0000212C00E01F82F12CE12C20CF8CEF9FEFE4
:101C100008950F931F93CF93DF9300D000D000D08F
:101C2000CDB7DEB78C0180913F04882391F1C801C4
:101C300096958795800F911FB0E0A0E09C01AD01C3
:101C400020533F4C4F4F5F4F2B833C834D835E832C
:101C500022E030E0AE014F5F5F4F6B817C818D8170
:101C60009E810E94E30789819A8100FF10C024E0D1
:101C7000969587952A95E1F726960FB6F894DEBFDC
:101C80000FBECDBFDF91CF911F910F9108959F702F
:101C9000F3CF90E080E0F0CFCF93DF93C2E0D0E0CD
:101CA000CE010E94090E892B21F4CE01DF91CF9144
:101CB00008952196C1328BE0D80791F78FEF9FEFFF
:101CC000F5CFEF92FF920F931F93CF93DF9300D046
:101CD00000D000D0CDB7DEB77C018B0180913F04EE
:101CE0008823C9F1C701969587958E0D9F1DB0E099
:101CF000A0E09C01AD0120533F4C4F4F5F4F2B8321
:101D00003C834D835E8322E030E0AE014F5F5F4F46
:101D10006B817C818D819E810E94E30789819A81FC
:101D2000E0FE26C08F70992724E0000F111F2A952E
:101D3000E1F7082B192B1A83098322E030E0AE016A
:101D40004F5F5F4F6B817C818D819E810E940E0869
:101D500081E08093400426960FB6F894DEBF0FBE54
:101D6000CDBFDF91CF911F910F91FF90EF9008951C
:101D70008827907F1F70DDCFCF93DF9300D000D0F6
:101D800000D0CDB7DEB780913F04882309F44EC060
:101D900080914004882309F449C021E030E03E836B
:101DA0002D8380ED90E3A0E0B0E089839A83AB833C
:101DB000BC8320E032E04FE352E069817A818B817D
:101DC0009C810E94E3076FE372E08D819E810E94F7
:101DD000FE06892B59F08FEF9FEF26960FB6F894E9
:101DE000DEBF0FBECDBFDF91CF9108956FE372E0EC
:101DF0008D819E8109960E94FE06009761F72981D8
:101E00003A814B815C813E5F4F4F5F4F29833A831C
:101E10004B835C834D815E814F5F5F4F5E834D835B
:101E20004A30510531F610924004D7CF90E080E05F
:101E3000D4CFFF920F931F93CF93DF9300D000D0A6
:101E400000D0CDB7DEB780913F048823A1F080E1B8
:101E500098E00E941C061E821D828D819E8126961E
:101E60000FB6F894DEBF0FBECDBFDF91CF911F91AB
:101E70000F91FF9008958AEE97E00E941C066FE391
:101E800072E090E080E00E949606892B39F085ECA4
:101E900097E00E941C068FEF9FEF73C085EB97E0E1
:101EA0000E941C0680914A0290914B020E944706B4
:101EB0008FEA97E00E941C0680914C0290E00E94FD
:101EC000470688EA97E00E941C0680914F0290E046
:101ED0000E94470682EA97E00E941C068091520207
:101EE000909153020E94470688E997E00E941C06E1
:101EF000809154020E942A0685E997E00E941C0600
:101F000085E897E00E941C06809155029091560248
:101F10000E9447068FE797E00E941C0680915702B7
:101F2000909158020E94470687E797E00E941C069E
:101F30008091590290915A020E94470680E797E0EB
:101F40000E941C0680915002909151020E94470607
:101F500088E697E00E941C06809165020E942A068E
:101F600085E697E00E941C0680914A0290914B0200
:101F70008115924049F08FE497E00E941C0688EF9B
:101F80009FEF9E838D8369CF80914F02823049F00D
:101F90008AE397E00E941C06A8EFBFEFBE83AD83E3
:101FA0005CCF80914C02811103C086E297E0E5CFBF
:101FB00080916502893209F066C080916602909135
:101FC0006702A0916802B0916902809341049093E6
:101FD0004204A0934304B09344048BE0EAE6F2E0A9
:101FE000A5E4B4E001900D928A95E1F710925004B7
:101FF00088E197E00E941C0685E494E00E941006A8
:102000008CE097E00E941C06809143049091440468
:102010000E943E0680914104909142040E943E0637
:1020200089E097E00E941C0681ED96E00E941C0664
:1020300089E090E00E94470682EC96E00E941C0630
:1020400080ED90E3A0E0B0E089839A83AB83BC830A
:1020500001E010E0FF24FA94F00E6FE372E0C80193
:102060000E9496068D839E83AD81BE81AB2B09F1C4
:1020700082EA96E00E941C068F2D90E00E9447069F
:102080008FE996E006CF109241041092420410921C
:102090004304109244048BE0E1E0F1E0A5E4B4E0F5
:1020A00001900D928A95E1F71092500486EE96E029
:1020B000B9CF20E032E04FE352E069817A818B8131
:1020C0009C810E940E080F5F1F4F89819A81AB810E
:1020D000BC819E5FAF4FBF4F89839A83AB83BC8324
:1020E0000A30110509F0B6CF81E080933F041092C9
:1020F00040048EE896E00E941C06AFCE80913F041B
:10210000882321F00E94BC0E10923F040895AF92E4
:10211000BF92CF92DF92EF92FF920F931F93CF93D4
:10212000DF93D82EC92EB62EA72E7A0180913F04B8
:102130002EEF3FEF882391F103E110E06FE372E0AF
:10214000C8010E949606892B09F042C0CFE3D2E075
:1021500088818823D1F1853E69F18B8583FD2AC072
:1021600048E050E06D2D7C2DCE010E94DA27892BAE
:1021700009F543E050E06B2D7A2DCE0108960E94C0
:10218000DA279C01892BB1F4E114F10439F080E2E3
:10219000FE01D70101900D928A95E1F7C901DF9107
:1021A000CF911F910F91FF90EF90DF90CF90BF9054
:1021B000AF900895A09684E0CF33D80749F60F5F1B
:1021C0001F4F0132110509F0B9CF2DEF3FEFE6CFD8
:1021D0002FEF3FEFE3CFEF92FF920F931F93CF9339
:1021E000DF938C01F62EE72E80913F04811116C0FB
:1021F0008EEF9FEFDF91CF911F910F91FF90EF90A6
:102200000895253E59F023852F3041F020E2AF2D6F
:10221000BE2D01900D922A95E1F7ECCFF801808157
:102220009181803E910510F5EC01CF70DD2725E00E
:10223000CC0FDD1F2A95E1F734E0969587953A9506
:10224000E1F76FE372E043960E949606009789F4E7
:10225000FE01E15CFD4FD8012D913C9111972F5F5C
:102260003F4F2D933C9320812111CBCF8DEF9FEFDA
:10227000C1CF8FEF9FEFBECF8F929F92AF92BF9251
:10228000CF92DF92EF92FF920F931F93CF93DF9342
:10229000CDB7DEB7A0970FB6F894DEBF0FBECDBFA7
:1022A0007C016B018A018CE796E00E941C065701B5
:1022B000470188E0880E911CF50181915F01803211
:1022C00029F00E940906A814B904B1F78EE20E9411
:1022D000090656014601A3E08A0E911CD5018D9195
:1022E0005D01803229F00E940906A814B904B1F7F3
:1022F00088E796E00E941C06AE014F5F5F4FB60173
:10230000C7010E9487107C01892BC1F081E696E00D
:102310000E941C06C701A0960FB6F894DEBF0FBE40
:10232000CDBFDF91CF911F910F91FF90EF90DF9084
:10233000CF90BF90AF909F908F900895F8013D96F9
:1023400086E0DF011D928A95E9F781E0F80180833C
:102350008B8D9C8D92838183948383838D8D9E8DC1
:10236000AF8DB8A185839683A783B0871186128627
:1023700013861486118A8AE496E00E941C068B8DCF
:102380009C8D0E94470683E496E00E941C068D8D7A
:102390009E8D0E94470680E496E0BACF6F927F92AE
:1023A0008F929F92AF92BF92CF92DF92EF92FF9265
:1023B0000F931F93CF93DF93EC013B016A01888158
:1023C000882309F488C08989811185C080913F04E0
:1023D00081117BC08EEF9FEF69C08D819E81498501
:1023E0005A8595012E193F09841B950B281739072B
:1023F00008F4C9014601801A910A8815990508F464
:102400004C01B701615C7D4FA401C301800F911F96
:102410000E94E727080D191D89859A85AB85BC8523
:10242000880D991DA11DB11D89879A87AB87BC872F
:10243000AC01BD01517066277727452B462B472BF2
:10244000A1F44D815E816F81788584179507A60779
:10245000B70758F48B819C810E94090E9C01283F8C
:102460008FE0380710F53C832B830C151D05E8F42D
:1024700089859A85AB85BC854D815E816F81788524
:1024800084179507A607B70780F47C0121E0F222A4
:102490008B819C816FE372E04F960E949606892B98
:1024A00009F49BCF01151105C1F0C801DF91CF914F
:1024B0001F910F91FF90EF90DF90CF90BF90AF9062
:1024C0009F908F907F906F90089510E000E0A12C76
:1024D00082E0B82ECACF89EF7ECF8FEF7CCF3F92BC
:1024E0004F925F926F927F928F929F92AF92BF9224
:1024F000CF92DF92EF92FF920F931F93CF93DF93D0
:102500008C012B017A01FC018081882309F490C0A1
:102510008189882309F48CC080913F0481117CC09B
:102520008EEF9FEF67C0F301C50111920197E9F7A4
:1025300040C0CC0DDD1DF80181859285A385B48551
:102540008C0D9D1DA11DB11D81879287A387B48726
:10255000328A9170AA27BB27892B8A2B8B2BB1F447
:10256000CE15DF0598F40E944C0E6C0197FD41C01A
:10257000BC01F801838194810E94610E6FEF7FE0BE
:10258000C6010E94610EF801D482C382CE15DF0518
:1025900080F5F80181849284F1E09F2281149104F6
:1025A00011F2F801838194816FE372E04F960E94EB
:1025B0009606C7018C1B9D0B6501C818D9088C15A0
:1025C0009D0508F46C01A601B2016C0F7D1FC401CA
:1025D000815C9D4F0E94E727F801838194816FE31E
:1025E00072E04F960E94FE06892B09F4A2CF209735
:1025F00009F1CE01DF91CF911F910F91FF90EF90E4
:10260000DF90CF90BF90AF909F908F907F906F9012
:102610005F904F903F900895D0E0C0E08FE3682E28
:1026200082E0782EA12C92E0B92E33243394AECFE1
:1026300089EF77CF8FEF75CFCF93DF93EC01888150
:10264000882309F44EC08EE296E00E941C0689851C
:102650009A850E94470686E296E00E941C068989B8
:10266000811124C08EE40E94090680E296E00E9457
:102670001C068A8981111CC08EE40E9409068DE126
:1026800096E00E941C068989882351F18A89882353
:1026900039F16FE372E08D859E850E949606892B45
:1026A00049F08FEF9FEFDF91CF91089589E5DBCF60
:1026B00089E5E3CFEF85F889E15CFD4F89859A854F
:1026C000AB85BC85848F958FA68FB78F6FE372E043
:1026D0008D859E850E94FE06892B19F70E94BC0EEF
:1026E000188290E080E0DFCFCF92DF92EF92FF92EE
:1026F0000F931F93CF93DF93182F092FD62EC72E3A
:1027000080913F04CEEFDFEF882361F083E1E82E74
:10271000F12C6FE372E0C7010E949606892B61F0ED
:10272000CFEFDFEFCE01DF91CF911F910F91FF909F
:10273000EF90DF90CF900895CFE3D2E08881882397
:1027400009F441C0853E91F148E050E0612F702FBF
:10275000CE010E94DA27892B49F543E050E06D2D28
:102760007C2DCE0108960E94DA27892BF9F40A8D78
:102770001B8DC8010297863F9F4068F085EE8883D5
:102780006FE372E0C7010E94FE06EC01892B41F65F
:102790000E94BC0EC7CFC8010E94090E6C0170E0F8
:1027A00060E0C8010E94610E8601E3CFA09684E03C
:1027B000CF33D80719F62FEFE21AF20A81E2E816B2
:1027C000F10409F0A6CFCDEFDFEFACCF5F926F92AF
:1027D0007F928F929F92AF92BF92CF92DF92EF92B1
:1027E000FF920F931F93CF93DF93CDB7DEB7A097E0
:1027F0000FB6F894DEBF0FBECDBF882E792E662EA1
:10280000572E8A0180913F04882309F49BC0AE01B2
:102810004F5F5F4F882D0E948710892B31F4662D02
:10282000752D882D972D0E94741393E1A92EB12C3C
:102830006FE372E0C5010E949606892BC1F08FEF0D
:102840009FEFA0960FB6F894DEBF0FBECDBFDF910D
:10285000CF911F910F91FF90EF90DF90CF90BF909D
:10286000AF909F908F907F906F905F9008958FE3CF
:10287000E82E82E0F82E912CF7018081811108C0AA
:102880000E944C0E6C0197FF17C08AEF9FEFD9CFC3
:10289000853EB1F39394F0E2EF0EF11C40E1941207
:1028A000EBCF8FEFA81AB80A91E2A916B10409F08C
:1028B000BFCF8BEF9FEFC5CF6FEF7FE00E94610E20
:1028C00080E2F701482F11924A95E9F798E0E82D48
:1028D000F72DD70101900D929A95E1F7D70118963F
:1028E00093E0E62DF52D01900D929A95E1F7F70111
:1028F0008387D38EC28E148E158E168E178E6FE33D
:1029000072E0C5010E94FE06009709F098CF21E011
:10291000F8012083D282C182D482C38215821682BA
:10292000178210861186128613861486218B128ACE
:10293000B686A586F0E29F9E90011124F801308BA7
:1029400027877FCF8EEF9FEF7CCF4F925F926F9262
:102950007F928F929F92AF92BF92CF92DF92EF922F
:10296000FF920F931F93CF93DF93CDB7DEB7A0975E
:102970000FB6F894DEBF0FBECDBF782E692E562E4F
:10298000472ED42EC52EB22EA32E80913F0488232D
:1029900009F480C0AE014F5F5F4F622F732F8D2D02
:1029A0009C2D0E948710892B09F477C083E1E82EC3
:1029B000F12C6FE372E0C7010E949606892B09F0A3
:1029C0006FC00FE312E0F8018081882309F45FC033
:1029D000853E09F44DC048E050E0672D762DC801D2
:1029E0000E94DA27892B09F043C04801F8E08F0ED6
:1029F000911C43E050E0652D742DC4010E94DA273C
:102A0000892BB1F588E0ED2DFC2DD80101900D92B8
:102A10008A95E1F783E0EB2DFA2DD40101900D9218
:102A20008A95E1F76FE372E0C7010E94FE0621E09C
:102A300030E0892B11F430E020E088279927821BB1
:102A4000930BA0960FB6F894DEBF0FBECDBFDF91FB
:102A5000CF911F910F91FF90EF90DF90CF90BF909B
:102A6000AF909F908F907F906F905F904F90089560
:102A7000005E1F4F84E00F33180709F0A4CFEFEF7B
:102A8000EE1AFE0AF1E2EF16F10409F092CF8DEF93
:102A90009FEFD7CF8EEF9FEFD4CF8CEF9FEFD1CFAB
:102AA0008FEF9FEFCECF0F931F93CF93DF9300D085
:102AB00000D0CDB7DEB780913F04882399F102E0C2
:102AC00010E01A821982C8010E94090E892B31F484
:102AD00029813A812F5F3F4F3A8329830F5F1F4F30
:102AE00001323BE0130779F749815A81B0E0A0E059
:102AF0009A01AD0189E0220F331F441F551F8A95AB
:102B0000D1F729833A834B835C8369817A818B81F6
:102B10009C810F900F900F900F90DF91CF911F919C
:102B20000F91089519821A821B821C82EECFAF92F8
:102B3000BF92CF92DF92EF92FF920F931F93CF93AA
:102B4000DF9300D000D000D0CDB7DEB78D839E8359
:102B500080E092E0EFE3F2E0DF019C011D92215062
:102B60003040E1F72BEE20933F022CE3209340020C
:102B700020E92093410228E0EDE0F1E0A2E4B2E098
:102B800001900D922A95E1F790934B0280934A02AF
:102B900081E080934C0281E090E090934E0280931C
:102BA0004D0282E080934F0280EE90E090935102BC
:102BB0008093500280E49BE09093530280935202F2
:102BC00080EF8093540289E090E0909356028093C6
:102BD000550282E190E0909358028093570282E080
:102BE00090E090935A028093590289E280936502A3
:102BF0008EEE9FEFA0ECB4E680936602909367029E
:102C0000A0936802B09369028D819E81892B09F49B
:102C1000CCC08BE0ED81FE81AAE6B2E001900D927E
:102C20008A95E1F788E0E2E2F1E0A5E7B2E0019001
:102C30000D928A95E1F785E580933D048AEA8093B9
:102C40003E046FE372E090E080E00E94FE06892B74
:102C500009F0AFC001E010E080ED90E3A0E0B0E04B
:102C600089839A83AB83BC838FE3C82E82E0D82EFE
:102C7000A12C92E0B92E20EFE22EFF24FA94D60187
:102C8000F5011D923197E9F7013031F4E0923F02EE
:102C9000F0924002F09241026FE372E0C8010E949C
:102CA000FE06892B09F085C06FE372E0C801099622
:102CB0000E94FE06892B09F07CC020E032E04FE341
:102CC00052E069817A818B819C810E940E08898102
:102CD0009A81AB81BC819E5FAF4FBF4F89839A833E
:102CE000AB83BC830F5F1F4F0A30110541F6EFE342
:102CF000F2E080E092E0DF019C011D922150304023
:102D0000E1F78D819E81892BB9F088E0ED81FE810C
:102D1000AFE3B2E001900D928A95E1F7ED81FE817B
:102D200080859185A2858093470290934802A09365
:102D3000490288E080934A026FE372E083E190E009
:102D40000E94FE06892BA9F5EFE3F2E080E092E015
:102D5000DF019C011D9221503040E1F784E190E0B9
:102D60009A8389836FE372E089819A810E94FE06CB
:102D7000892BF9F4A981BA811196BA83A983919715
:102D800089F710923F0426960FB6F894DEBF0FBE67
:102D9000CDBFDF91CF911F910F91FF90EF90DF900A
:102DA000CF90BF90AF900C94190F8BE0E6E1F1E06B
:102DB00033CF8FEF9FEF26960FB6F894DEBF0FBE8E
:102DC000CDBFDF91CF911F910F91FF90EF90DF90DA
:102DD000CF90BF90AF9008958F929F92AF92BF9285
:102DE000CF92DF92EF92FF920F931F93CF93DF93D7
:102DF0006C014B017A0148E050E060E270E0C401F0
:102E00000E94F02743E050E060E270E0C7010E94BA
:102E1000F02756019601E90188812F5F3F4F81110C
:102E20000BC0F60101900020E9F731978F010C19D2
:102E30001D09D0E0C0E007C08E3269F78E010C1981
:102E40001D09209771F30930110514F008E010E016
:102E50006401912C812C8016910614F12097A9F120
:102E60002196DE010D900020E9F711978701AC1B38
:102E7000BD0BA430B10514F0A3E0B0E0EA0EFB1ED8
:102E80000E151F05D1F4DF91CF911F910F91FF9087
:102E9000EF90DF90CF90BF90AF909F908F9008956C
:102EA000F50181915F0190E00E94D227F6018193A4
:102EB0006F01FFEF8F1A9F0ACECF899190E00E9499
:102EC000D227F80181938F01DBCF83E0EBE2F1E0C1
:102ED000D70101900D928A95E1F7D5CF53985B9A6F
:102EE00054985C9A0895FC011082549A5C988FE380
:102EF00091E00197F1F700C0000081E197E24B9B60
:102F000018C054985C9A90E080E061E070E021E1A4
:102F100037E24B9918C04C9B09C02081AB01082EA9
:102F200001C0440F0A94EAF7242B208321E137E201
:102F30001BC025E02A95F1F70000019701F754988E
:102F40005C9A80E0089545E04A95F1F70000215031
:102F50003109F9F60E946E17F4CF45E04A95F1F772
:102F6000000021503109B1F34B9BF7CF0196883017
:102F7000910569F6549A5C988FE891E00197F1F712
:102F800000C0000081E00895FC01DB0110821C926A
:102F900054985C9A89EC90E04B9B16C025E02A95EA
:102FA000F1F70000019709F581E08C93549A5C9841
:102FB0008FEE90E00197F1F700C0000054985C9A02
:102FC00081E197E24B9907C090E080E061E070E01A
:102FD00021E137E214C025E02A95F1F700000197BE
:102FE00089F70E946E1780E008954A99D5CFF9CFEE
:102FF00045E04A95F1F700002150310991F34B99D2
:10300000F7CF4C9B09C02081AB01082E01C0440FB3
:103010000A94EAF7242B208321E137E207C045E038
:103020004A95F1F7000021503109D9F24B9BF7CFB7
:1030300001968830910561F6549A5C9881E0089574
:10304000539A5B9854985C9AEFE3F1E03197F1F76B
:1030500000C0000021E137E24C9B45C0662391F09F
:1030600053985B9A21E137E24C9949C021E137E25C
:103070004C9B4EC0539A5B98EFE3F1E03197F1F728
:1030800000C0000030E020E090E0AC01022E02C061
:10309000559547950A94E2F740FF43C054985C9ACF
:1030A000EFEEF0E03197F1F700C0000053985B9A23
:1030B000EFEEF0E03197F1F700C00000539A5B9813
:1030C0002F5F3F4F2830310501F754985C9A81E11A
:1030D00097E24C9929C08FE891E00197F1F700C081
:1030E000000081E00895F5E0FA95F1F70000215025
:1030F000310911F480E008954A99AECFFBCF95E0F5
:103100009A95F1F700002150310909F0ADCFF2CFC7
:10311000E5E0EA95F1F700002150310909F0A8CF68
:10312000E9CF549A5C98BCCFF5E0FA95F1F700002E
:10313000019779F6DFCFEF920F931F93CF93DF9331
:103140008093340590E3E92E05E315E00E94A61B69
:10315000EC018034910514F0C0E4D0E0AE015527B5
:1031600065E375E081EF94E00E94E727C0933105A5
:103170001092320510923305DF91CF911F910F917C
:10318000EF900895CF93C82F80EC9AE00E941C0620
:103190008C2F90E00E9447068DEB9AE00E941C065F
:1031A000C093510410925304109252048AB1837C4C
:1031B0008AB98BB18C638BB9C9B18DEA9AE00E9450
:1031C0001C068CE4C2FD88E40E94090687EA9AE0A6
:1031D0000E941C068CE4C3FD88E40E94090680EA74
:1031E0009AE00E941C068CE4C4FD88E40E94090653
:1031F0008AE99AE00E941C068CE4C5FD88E40E94DE
:10320000090687E99AE00E941C06E6E5F4E08EEDE7
:10321000DF011D928A95E9F720E040E06FE271E05E
:1032200089E4CF910C949B18CF93DF93EC01DB01E1
:10323000E091320580913105E81730F081E08C9300
:1032400080E0DF91CF91089581E08E0F8093320569
:10325000F0E0EB53FB4F84A5888381E02091320599
:1032600090913105291708F480E08C9381E0E9CF33
:10327000CF92DF92EF92FF920F931F93CF93DF9342
:1032800000D00F92CDB7DEB74D9963C08DE79AE0BD
:103290000E941C0610925304109252040E946E1752
:1032A0000E949D090E947E100E94961B0E9483220C
:1032B00088E59AE00E941C064D9BFECF2FEF89E621
:1032C00098E1215080409040E1F700C0000082E387
:1032D0009AE00E941C060E947D090E94AB09892B7E
:1032E00031F581E29AE00E941C0688EF99E00E9485
:1032F0001C060E94190F892B19F587EE99E00E9490
:103300001C060E949D098CEB99E00E941C0690E02F
:1033100080E00E943F270F900F900F90DF91CF9198
:103320001F910F91FF90EF90DF90CF9008958FE065
:103330009AE00E941C0685E090E00E943F27D5CFCE
:1033400087ED99E00E941C0686E090E00E943F27EE
:10335000D8CF4A9B3DC0809152049091530402976C
:10336000D1F6AE014F5F5F4FBE016E5F7F4F809120
:1033700054040E94081F882371F20E947E22FC01DF
:1033800069818A81309709F10680F781E02D3097B5
:10339000E1F0099581110AC082EA99E00E941C06B9
:1033A00010925304109252040E946E178981882350
:1033B00009F4B1CF8AE899E00E941C0610925304E8
:1033C000109252040E946E17A6CF0E942018E2CFDE
:1033D0000E94F1268EE799E00E941C06549A5C98A0
:1033E00082E0E82EF12CCC24C394D12C4A990AC057
:1033F000CE0103960E947317811141C083E699E0C4
:103400000E941C060E94F32680915204909153045E
:103410000297C9F48BEB98E00E941C060E9451228F
:103420000E947E228C01009771F0FC0182859385B9
:10343000892B49F083EA98E00E941C06D8011A966D
:10344000ED91FC910995809152049091530401975C
:1034500009F061CF86E898E00E941C068091540430
:1034600090E00E94470683E898E00E941C0611E065
:103470004A99C6C089E698E00E941C064CCF86E5B2
:1034800099E00E941C068B810E942A068B818F3353
:1034900061F58AE499E00E941C06809152049091A3
:1034A0005304019709F0A2CF809154048F30C1F4E6
:1034B0006091C204662359F0E62FF0E0EF5AFB4F0B
:1034C00011AA82E894E00E94EF201092C2041092A8
:1034D0005304109252040E946E170E94832286CFDA
:1034E0008130A9F70E94EE1EF2CF8F3561F480E49F
:1034F00099E00E941C068091520490915304029717
:1035000009F074CFE4CF182F1F71982F907E90325E
:10351000C9F486E399E00E941C06812F90E00E9486
:10352000470683E399E00E941C06809151048113B1
:103530005DCFD0925304C09252048FE199E00E9473
:103540001C0654CF9034B9F487E199E00E941C0620
:10355000812F90E00E94470684E199E00E941C06BA
:1035600080915104811342CFF0925304E0925204AF
:1035700082E099E0E4CF982F907F903651F5182F94
:103580001F7088EF98E00E941C06812F90E00E9437
:10359000470685EF98E00E941C0610935404809122
:1035A0005204909153048130910529F41092C20481
:1035B0001092C3041BCF029709F018CF54985C9A5D
:1035C000AFE3B1E01197F1F700C00000539A5B98A8
:1035D0000DCF903E91F4182F1F708AEE98E00E9454
:1035E0001C06812F90E00E94470687EE98E00E941B
:1035F0001C06812F0E94EE1EF9CE81EE98E09FCF2F
:10360000BE016F5F7F4FCE0102960E94C4178111E9
:1036100003C080E598E030CF809154049091560427
:10362000911136C08F30A1F1E0918104E93248F464
:103630008A8191E09E0F90938104F0E0EF5AFB4F56
:1036400086838981882309F413CFE0918104F0E017
:10365000EF5AFB4F16828FE398E00E941C0687E525
:1036600094E00E9410068BE398E00E941C064091B3
:10367000810467E574E0809154040E94C81B109394
:1036800056048981882309F4F3CE88E298E0F4CEC9
:10369000E091C2046A81E03440F491E09E0F90937F
:1036A000C204F0E0EF5AFB4F61AB0E94D620E9CF95
:1036B0000F931F93CF93DF93CDB7DEB7CC52D44097
:1036C0000FB6F894DEBF0FBECDBF8C019C01AE01DA
:1036D000435D5D4F60ED78E580E090E00E94E30798
:1036E0002CE232E0AE014F5F5F4FB801CE01835D47
:1036F0009D4F0E94D3268C011816190654F49C0184
:10370000AE014F5F5F4F60ED7AE580E090E00E9490
:103710000E08C801C45DDB4F0FB6F894DEBF0FBEC4
:10372000CDBFDF91CF911F910F910895E2E7F5E0B2
:1037300083E1DF011D928A95E9F710926D0520E083
:1037400040E06FE271E089E40C949B18EF920F93D4
:103750001F931F922F931F924F937F936F931F92EC
:103760008F938DE391E09F938F931F92EF921F931E
:103770000F930E9402282DB73EB7225F3F4F0FB62E
:10378000F8943EBF0FBE2DBF1F910F91EF9008958B
:103790007F928F929F92AF92BF92CF92DF92EF92E1
:1037A000FF920F931F93CF93DF93CDB7DEB7C3562E
:1037B000D1090FB6F894DEBF0FBECDBF182F7B0125
:1037C000042F82EA9BE00E941C06812F90E00E9459
:1037D00047068AE99BE00E941C0667014701800EAC
:1037E000911C8C149D0409F01FC186E99BE00E9486
:1037F0001C06FE01EF5AFF4F1192119287E0DF0184
:103800001D928A95E9F76C961FAE1EAE6C976E9668
:103810001FAE1EAE6E97123008F0F1C0111139C202
:10382000013009F036C2F7018081843209F031C2DB
:1038300082E89BE00E941C06098384E08A8322E0E0
:1038400030E0AE014F5F5F4F60ED76E480E090E0E6
:103850000E940E081B821C8282E18D8382E28E838D
:10386000E9E5F1E0DE01179689E691E021912D93DB
:103870008E179F07D9F782E28F8B80E2888FEAE666
:10388000F1E088E1919121E0280F482F50E091115B
:10389000D1C0E1E0F0E0EC0FFD1F4E0F5F1FDA0139
:1038A0001C9230E07901B2E0EB0EF11C8C5F898351
:1038B000C9018D5F9B4F9A83AF0162ED76E480E092
:1038C00090E00E940E08A0961FAE1EAEA09730E2B8
:1038D000C32E42E2B42E0FE010E0BE016F5C7F4FBA
:1038E000CE01825A9F4F0E94EB10AC01892B31F41C
:1038F00068EFE6166FE0F60608F4A7C00E945315BD
:10390000A4966CAF7DAF8EAF9FAFA497BB27A92FB6
:10391000982F872F19821A828B839C83A1E7B1E0AD
:1039200084E09D9161E0680F282F30E09111A7C1DC
:1039300088248394912C8C0E9D1E280D391DD9014D
:103940001C92F401E60FF11D1082E2E0E80F8824DA
:103950008394912C8C0E9D1E8E0E911CF40110826E
:103960008D5F082F10E0B0E0A0E09701AD0120537B
:10397000394B4F4F5F4FA4962CAF3DAF4EAF5FAF6B
:10398000A4979801AE014F5F5F4FA4966CAD7DADDB
:103990008EAD9FADA4970E940E080E0D1F1D1093B3
:1039A00071050093700510926F0510926E0511E07D
:1039B00010936D0583E79BE00E941C0680917005C3
:1039C000909171050E94470680E79BE00E941C06CB
:1039D00010926C0510926B0510926A0510926905A1
:1039E00010926805109267051093660510926505A0
:1039F00020E040E06EE771E080E00E949B18CD5926
:103A0000DF4F0FB6F894DEBF0FBECDBFDF91CF9171
:103A10001F910F91FF90EF90DF90CF90BF90AF90EC
:103A20009F908F907F900895D6018D916D010E9497
:103A30000906D7CE88248394912C8C0E9D1E480DA8
:103A4000591DDA019C93822F1DCF6CAD63FD45CFCC
:103A500061968CAD9DADAEADBFAD619781509F4F6E
:103A6000AF4FBF4F892F9A2FAB2FBB279C011982D5
:103A70001A82009711F481E090E09C838B832A30B6
:103A8000310508F03EC0CD82A5E0E1E0EA0F8824D0
:103A90008394912C8C0E9D1E8A0E911CD401CC9285
:103AA00091E09E0FA1E0B0E0AC0FBD1FAE0FB11DC5
:103AB000FD01C08281E0890FE1E0F0E0EC0FFD1F25
:103AC000E90FF11DB08228E030E0722F732E2150F3
:103AD0003109E1E3F0E0EC0FFD1FE20FF31FE0819D
:103AE000E032D1F0FE01F1969E5F970F282FAA24B5
:103AF000A394A20E30E09A11A5C0870F272F372D6F
:103B00000EC02436310510F4A4E0BFCF94E0283E67
:103B1000334080F6E4E0C4CF21153105B1F699AD0C
:103B20007BAD703209F09AC07AAD703209F099C05D
:103B3000903221F141E050E091E0980F7EE2E1E027
:103B4000F0E0EC0FFD1FE80FF11D7083DE01D99648
:103B5000792F740FDD90E92F9F5F88248394912C37
:103B60008C0E9D1E8E0E911CF401D0829713F2CF05
:103B7000840F8F5FFA0131962E0F3F1F91E0980F4F
:103B8000E1E0F0E0EC0FFD1FE80FF11DB08271E104
:103B9000780F721BE92F9F5FA1E0B0E0AC0FBD1F53
:103BA000AE0FB11DFD01C0829713F4CF8E5FF801F7
:103BB000E21BF30BD82EDE0EE1E5F1E064FD11C04F
:103BC0004330510561F443E050E065E571E0CE011A
:103BD000C9960E94DA27E5E5F1E0892B11F0EBE2C6
:103BE000F1E0319121E02D0D8D2D90E031113CC09F
:103BF000E1E0F0E0EC0FFD1F8E0F9F1FDC011C9237
:103C000030E049018E0C9F1CC4018F5F9B4F9A834B
:103C10008983B0E0A0E0A701BD014053594B6F4F2D
:103C20007F4FA4964CAF5DAF6EAF7FAFA497AF014F
:103C3000A4966CAD7DAD8EAD9FADA4970E940E088D
:103C400074014BCED19088248394912C8C0E9D1EB0
:103C5000280D391DD901DC922A2D49CF43E050E0CF
:103C60006BCF42E050E068CF88248394912C8C0E77
:103C70009D1E880D991DDC013C93D22EB2CFE1E050
:103C8000F0E0EC0FFD1F2E0F3F1FF9019083862FF0
:103C900048CEAE01465A5F4FBE016F5A7F4FC701F3
:103CA0000E94EC1680E69BE00E941C06AE014F5A73
:103CB0005F4F7A016A0158E0C50ED11CD7018D9182
:103CC0007D010E940906CE14DF04C1F78CE59BE05C
:103CD0000E941C066B968FAD6B970E9409066C962E
:103CE0008FAD6C970E9409066D968FAD6D970E94FF
:103CF000090688E59BE00E941C06111126C08BE492
:103D00009BE00E941C0642E755E0BE01665A7F4FC9
:103D1000CE018F5A9F4F0E943C118C01892B09F4D0
:103D200040C085E39BE00E941C0688279927801BE2
:103D3000910B0E94470682E39BE00E941C0620E054
:103D400040E061E871E08EE358CE85E29BE00E949E
:103D50001C0642E755E0BE01665A7F4FCE018F5ADE
:103D60009F4F0E94E6138C01892BD9F088E09BE0DD
:103D70000E941C0688279927801B910B0E944706EA
:103D800085E09BE00E941C0620E040E060E971E0D5
:103D900088E40A3F1F4F09F430CE6AE971E089E1F7
:103DA0002CCE10926C0510926B0510926A05109241
:103DB0006905109268051092670581E08093660599
:103DC0001092650520E040E06EE771E080E00E941F
:103DD0009B1885EF9AE00E941C0611CECF93C82F46
:103DE00085EE9AE00E941C068C2F90E00E94470608
:103DF00082EE9AE00E941C0680917205882321F0D1
:103E000082E795E00E941C1310926D05CF910895F2
:103E1000BF92CF92DF92EF92FF920F931F93CF93B7
:103E2000DF9300D000D000D0CDB7DEB7082F6B01F4
:103E30007A01FA0110820E94AD26182F882309F416
:103E40004CC10F3009F44BC1F70110828091670516
:103E5000909168052091690530916A058217930752
:103E600040F5B0E0A0E09C01AD012053354A4F4F32
:103E70005F4FCA01B9010E943808F6018083809122
:103E80006705909168050196909368058093670592
:103E90002091690530916A058217930708F446C09E
:103EA00080916505882309F441C081E0F701808392
:103EB0003DC0B0906505BB2029F081E0F70180830B
:103EC00010E034C000916605011181C01A82198288
:103ED00022E030E0AE014F5F5F4F60ED7AE580E0B9
:103EE00090E00E940E0882E090E090936A05809333
:103EF0006905109268051092670501E00093650559
:103F000060ED7AE580E090E00E943808F601808359
:103F100081E090E090936805809367058091690542
:103F200090916A05029710F4F7010083812F26967D
:103F30000FB6F894DEBF0FBECDBFDF91CF911F91BA
:103F40000F91FF90EF90DF90CF90BF900895B0E079
:103F5000A0E09C01AD012053394B4F4F5F4F2B83A5
:103F60003C834D835E8321E030E0AE014F5F5F4FC5
:103F70006B817C818D819E810E94E30780916E051B
:103F800090916F05019690936F0580936E058091D7
:103F90006B0590916C05B0E0A0E09C01AD01205351
:103FA000374A4F4F5F4F2B833C834D835E8349815C
:103FB0006B817C818D819E810E94510880916B056F
:103FC00090916C05019690936C0580936B058091A0
:103FD0006B0590916C058115924088F480916D0578
:103FE0008823C1F180916E0590916F052091700535
:103FF000309171058217930708F4A9CFB02E8091F4
:104000006B0590916C050097B1F10E94581B181632
:1040100019060CF052CF90936A05809369051092AF
:1040200068051092670510926C0510926B05B1102F
:104030001092660560ED7AE580E090E00E94380815
:10404000F601808381E090E0909368058093670596
:10405000102F6CCF80917205882381F241E050E0EF
:10406000BE016F5F7F4F82E795E00E94CE110197FE
:1040700009F48DCFC3CF1A82198222E030E0AE015D
:104080004F5F5F4F60ED7AE580E090E00E940E08A0
:1040900082E090E090936A0580936905109268052C
:1040A000109267051092660581E08093650560EDCA
:1040B0007AE580E090E00E943808F601808381E094
:1040C00090E09093680580936705809169059091D1
:1040D0006A05029708F02ACFE8CE0F3031F4B70115
:1040E000C6010E941419182F21CF0111E6CE10919C
:1040F0006D05112381F180916E0590916F05B0E0FF
:10410000A0E09C01AD012053394B4F4F5F4F2B83F3
:104110003C834D835E8321E030E0A6016B817C818E
:104120008D819E810E94E30780916E0590916F05BD
:10413000019690936F0580936E05209170053091E4
:1041400071058217930708F4F1CE81E0F7018083AF
:1041500010926D05EBCE10917205112309F4ADCECE
:1041600041E050E0BE016F5F7F4F82E795E00E9423
:10417000CE11019709F0A1CE8981F601808340918B
:104180007B0550917C0560917D0570917E05809145
:10419000770590917805A0917905B0917A05481737
:1041A00059076A077B0708F4C1CE7FCECF93DF9310
:1041B0000F92CDB7DEB76983813069F480917205C3
:1041C000882349F041E050E0BE016F5F7F4F82E7F6
:1041D00095E00E946F120F90DF91CF910895AF92FA
:1041E000BF92CF92DF92EF92FF920F931F93CF93E4
:1041F000DF93CDB7DEB7C754D1090FB6F894DEBF51
:104200000FBECDBF6C01162F662309F49AC085ED51
:104210009AE00E941C0676015601A10EB11CEA1418
:10422000FB0409F04AC081ED9AE00E941C06012FB0
:104230001A3208F009E2E02EF12CA701B601CE01F6
:1042400001960E94E72781E090E08C0F9D1FE80E09
:10425000F91EF70110826C01F60181916F0190E067
:104260000E94D227F60131978083EC14FD04A1F758
:10427000602FCE0101960E94CD23811162C0602F74
:10428000CE0101960E94402481115BC0602FCE01B7
:1042900001960E948426882309F168E070E0CE012F
:1042A0008B960E94B026181619066CF420E040E0A8
:1042B000BE01655D7F4F80E042C0F70181917F01C3
:1042C0000E940906ACCF0E94AD2620E040E066EBDC
:1042D00071E08111F0CF6EE771E0EDCF8981823519
:1042E00009F441C064F4893409F4B7C08E3409F488
:1042F0007EC020E040E065ED71E08EE120C08335B6
:10430000C1F71330B0F38A818A3399F7AE01495C63
:104310005F4FBE01655D7F4FCE0103960E94EC1694
:10432000BE01695C7F4FCE018B960E94741320E022
:10433000892B09F051C041E065EC71E081E00E94F9
:104340009B18C95BDF4F0FB6F894DEBF0FBECDBF21
:10435000DF91CF911F910F91FF90EF90DF90CF9061
:10436000BF90AF900895133060F38A818A3349F784
:104370006DE370E0CE0103960E94F727009709F4E1
:10438000B8CFFC0111928F01AE014C5B5F4FBE01B3
:10439000695C7F4FCE0103960E94EC16AE01405C33
:1043A0005F4FBE01655D7F4FC8010E94EC169E0104
:1043B0002C5B3F4FAE01495C5F4FBE01605C7F4F9D
:1043C000CE018B960E94A514009719F420E040E0DE
:1043D00082CF039631F420E040E061E871E08EE3A3
:1043E000AECF20E040E062EE71E08FE3A8CF133063
:1043F00058F18A818A3341F54BE050E060E270E089
:10440000CE018B960E94F0271EAABE016D5F7F4FE2
:10441000FB0101900020E9F7AF0141505109461B13
:10442000570B4C30510514F04BE050E0CE018B9609
:104430000E94E727CE018B960E949715892B39F4AD
:104440006EE771E080E006C090E080E0F5CF6AE9B9
:1044500071E089E120E040E072CF0E947E100E946E
:10446000190F892B69F366EA71E08AE4F3CF1092A1
:104470008705109286051092850508959C01892B69
:1044800079F0E0918705E43058F481E08E0F809355
:104490008705F0E0EE0FFF1FE857FA4F31832083C6
:1044A00008951F93CF93DF9310E08091870518172D
:1044B00038F0109286051092850590E080E018C0D3
:1044C000C12FD0E0CC0FDD1FC857DA4FE881F9814A
:1044D0000480F581E02D309779F00995882361F00B
:1044E000E881F981F0938605E093850580819181CB
:1044F000DF91CF911F9108951F5FD7CF80918505E0
:10450000909186050895109286051092850508956C
:10451000CF93DF93FC01DB0110821C9254985C9ACC
:1045200089EC90E04B9B17C04C9B15C025E02A9569
:10453000F1F70000019709F04AC081E08C93549A8A
:104540005C9885E48A95F1F7000054985C9A81E1C3
:1045500097E24B9930C090E080E029B139B123FB5C
:10456000222720F9C22FB0E0DB2FBE01082E01C0A8
:10457000660F0A94EAF72081262B34FB442740F982
:1045800050E0BC016F5F7F4FDA0102C0AA0FBB1F72
:104590006A95E2F72A2B2083B5E4BA95F1F700007B
:1045A000029688309105C9F6549A5C9820EA2A95BB
:1045B000F1F781E009C04C9BCECFA5E0AA95F1F7B9
:1045C0000000019731F680E0DF91CF9108954A997C
:1045D000A9CFF9CF539A5B988FE391E00197F1F758
:1045E00000C0000008954C9B15C080E012C085E01B
:1045F0008A95F1F700002F5F3F4F233781E038079E
:10460000A1F34C9BF4CF285C310981E029373105B7
:1046100060F7089530E020E0F4CF662331F0EFE159
:10462000F3E03197F1F700C0000021E137E24C9B45
:1046300033C030E020E090E0A9014F5F5F4FBC0144
:1046400002C0759567954A95E2F7AB014170BC01D0
:10465000022E02C0759567950A94E2F760FF25C0A7
:1046600053985B9A442321F154985C9A75E47A95A7
:10467000F1F700002E5F3F4F28303105E9F65398DF
:104680005B9A54985C9A81E197E24C9914C0F0EAE5
:10469000FA95F1F781E00895F5E0FA95F1F7000059
:1046A0002150310921F680E00895539A5B98DACFC2
:1046B000549A5C98DBCFE5E0EA95F1F700000197AA
:1046C00021F7F1CF8CE092E00C943E22809190058E
:1046D0008111109290050895089530E020E090E057
:1046E000AC01022E02C0559547950A94E2F740FFAF
:1046F0001BC054985C9A45E14A95F1F70000539825
:104700005B9A4AE24A95F1F700C0539A5B982F5F93
:104710003F4F2830310521F754985C9A8AE68A95F4
:10472000F1F700C081E00895549A5C98E4CFFC0151
:104730001082DB011C9290E080E061E070E021E1FA
:1047400037E207C0B5E0BA95F1F700002150310912
:10475000F1F04B9BF7CF4C9B09C02081AB01082E99
:1047600001C0440F0A94EAF7242B208321E137E2A9
:104770004B9906C001968830910509F781E00895AC
:1047800045E04A95F1F700002150310989F780E0B2
:10479000089588E192E00C943E22FC01623050F0D2
:1047A0008081853539F48181803321F481E08093E3
:1047B0009005089580E008958091920581111092EE
:1047C0009205089580E00895089521E137E24B991C
:1047D0003AC0549A5C986AE66A95F1F700C030E0F6
:1047E00020E090E0A9014F5F5F4FBC0102C07595CA
:1047F00067954A95E2F7AB014170BC01022E02C0F9
:10480000759567950A94E2F760FF29C053985B9A03
:10481000442341F154985C9A7AE47A95F1F700C008
:104820002E5F3F4F28303105E9F654985C9A539833
:104830005B9A81E197E24B9B18C045E84A95F1F7F6
:10484000000081E0089545E04A95F1F7000021500D
:10485000310911F480E008954A99B9CFFBCF539AFA
:104860005B98D6CF549A5C98D7CF25E02A95F1F77C
:104870000000019701F7EECF84E292E00C943E2213
:10488000FC016330A0F080818D3489F481818D3208
:1048900071F48281873559F4809191058F5F8093FF
:1048A0009105833030F081E080939205089580E097
:1048B000089581E008952F923F924F925F926F92F8
:1048C0007F928F929F92AF92BF92CF92DF92EF92A0
:1048D000FF920F931F93CF93DF93CDB7DEB7CC50EA
:1048E000D2400FB6F894DEBF0FBECDBF5C018B0186
:1048F0001A01C9016115710509F45BC1FE01319608
:1049000020E032E0DF01A9011D9241505040E1F763
:10491000D501A60FB71FCB5FDD4FB983A883C55064
:10492000D2401597C55FDD4FB983A883CB50D240E5
:10493000CB5FDD4F28813981C550D24024503109E9
:10494000C95FDD4F39832883C750D240A101480F8A
:10495000591FC75FDD4F59834883C950D240643027
:104960007105ECF0D5012D913D914D915C9161EB7C
:1049700079E787E39EE90E947A27CF5FDD4F68835E
:1049800079838A839B83C150D240892F9927AA2794
:10499000BB27880F991FE80FF91F1182108245016C
:1049A000BFEF8B1A9B0A8101F5017401C95FDD4FCE
:1049B00028813981C750D2402E153F0508F04AC0E2
:1049C000CB5FDD4FE880F980C550D240EE1AFF0A78
:1049D0001E141F04E4F570E060E0BFE0EB16F10484
:1049E00044F0C7010F976FEF70E00E949E276F5F42
:1049F0007F4F6F5F7F4F6E0D7F1D600F711FC75F11
:104A0000DD4F28813981C950D2402617370708F475
:104A1000CEC068013FEFC31AD30A8E2D40E1E416E1
:104A2000F1040CF08FE08295807FD8018C93C70150
:104A30000F974FEFBFE0EB16F1040CF056C1A70142
:104A4000BF01C6010E94E72786010E0D1F1D021936
:104A50001309AFC0D7014D905D906D907C90A3017C
:104A6000920161EB79E787E39EE90E947A27CF5FA5
:104A7000DD4F688379838A839B83C150D240892F1D
:104A80009927AA27BB27880F991F21E030E02C0F18
:104A90003D1F820F931FDC01CD90DC901197CA0C53
:104AA000DB1C97012A193B092D933C9397012C1984
:104AB0003D09CF5FDD4F39832883C150D240EC14CC
:104AC000FD0481F0C701821B930B8A159B0550F0F2
:104AD000D6014D915D916D917C9144165506660607
:104AE000770621F0BFEFEB1AFB0A60CFC114D104A7
:104AF00009F466CFC701049634E0C30ED11C4C0103
:104B0000C55FDD4F48815981CB50D240841795074E
:104B100040F40196D6012D916D01D4013C913217DC
:104B200071F36401CE18DF08EE1AFF0A3701B0E115
:104B3000EB16F1041CF05FE0652E712CC60124E138
:104B4000C216D10414F083E190E02C0134E0431A42
:104B5000510830E020E04FE0E416F1044CF0C701CA
:104B60000F976FEF70E00E949E279B012F5F3F4FD2
:104B700070E060E053E1C516D10444F0C6014397EC
:104B80006FEF70E00E949E276F5F7F4F2E0D3F1DDD
:104B90002D5F3F4F260F371F200F311FC75FDD4F9F
:104BA00088819981C950D24082179307E8F40FEFAA
:104BB0001FEFC801C45FDD4F0FB6F894DEBF0FBE14
:104BC000CDBFDF91CF911F910F91FF90EF90DF90BC
:104BD000CF90BF90AF909F908F907F906F905F909D
:104BE0004F903F902F90089544E0660C771C4A95B3
:104BF000E1F76428D8016D928D01C7010F97BFE0DE
:104C0000EB16F1040CF059C0A701BF01C8010E94C6
:104C1000E7270E0D1F1DF801CF5FDD4F2881398179
:104C2000C150D240219331938F0133E1C316D10497
:104C30006CF043E1C41AD108C80101962FEFC216E7
:104C4000D1040CF044C0D801CC928C01C95FDD4F77
:104C5000E881F981C750D240E815F90508F43FC052
:104C6000D4012D913D914D915C9161EB79E787E302
:104C70009EE90E947A27CF5FDD4F688379838A831C
:104C80009B83C150D240892F9927AA27BB27880F21
:104C9000991FE1E0F0E0EC0FFD1F8E0F9F1F9401C4
:104CA0002A193B09DC012D933C93F4017ECE4FEF92
:104CB000D8014C938F5F9109890198012F5F3F4F75
:104CC0008F3F9105A4F7D8018C9389019DCFEFEF19
:104CD000D801EC93FFEFCF1AD1088C01ADCFF401CE
:104CE0006FCE4C938F5F9109690196012F5F3F4F03
:104CF000D6018F3F9105ACF78C936901A0CE10923D
:104D00009405109293050895FC01643090F0808121
:104D10008F7D883571F481818F7D8A3551F4828150
:104D20008A3339F483819FE9980F9A3120F48337CD
:104D300081F080E00895813341F0833551F0803374
:104D4000C1F71092940581E0089581E08093940565
:104D5000089581E0809393050895809194050895C6
:104D6000CF93DF93EC01CB01209193052223C1F077
:104D700020919405E7E0F2E0222311F0E2E0F2E076
:104D8000059774F084E0DE0101900D928A95E1F7B9
:104D90001C821092930584E090E0DF91CF910895FA
:104DA0008FEF9FEFFACF0F931F93CF93DF938B017A
:104DB000EA01243031053CF48FEF9FEFDF91CF9172
:104DC0001F910F910895245031094C5F5F4F0E944D
:104DD0005B2497FDF1CF998388830A831B83049614
:104DE000EDCF299A089529980895CF93DF93D82F6E
:104DF000C0E00E94F1262FEF87EE93E02150804023
:104E00009040E1F700C000000E94F3262FEF87EEEC
:104E100093E0215080409040E1F700C00000CF5F58
:104E2000DC13E7CFDF91CF910895459A0895459817
:104E30000895CF93DF93D82FC0E00E9415272FEF5E
:104E400087EE93E0215080409040E1F700C00000E1
:104E50000E9417272FEF87EE93E02150804090406B
:104E6000E1F700C00000CF5FDC13E7CFDF91CF9107
:104E70000895219A3D9A0E94F3260C941727FC016D
:104E8000079738F4E951F54D0C94B22782E00E945F
:104E9000F5262FEF85EA9EE0215080409040E1F713
:104EA00000C00000089581E0F2CF83E0F0CF82E0FF
:104EB0000E941927EECF83E0FBCF81E0F9CF0E945B
:104EC000F1260E9415272FEF87EE93E021508040B6
:104ED0009040E1F700C000000E94F3260E941727CF
:104EE0002FEF87EE93E0215080409040E1F700C023
:104EF0000000CFCFDB018F939F930E94B827BF9113
:104F0000AF91A29F800D911DA39F900DB29F900D18
:104F100011240895AA1BBB1B51E107C0AA1FBB1F88
:104F2000A617B70710F0A61BB70B881F991F5A9535
:104F3000A9F780959095BC01CD01089597FB072EA8
:104F400016F4009407D077FD09D00E948A2707FC49
:104F500005D03EF4909581959F4F08957095619589
:104F60007F4F0895EE0FFF1F0590F491E02D0994F7
:104F70000E94C327A59F900DB49F900DA49F800D04
:104F8000911D11240895A29FB001B39FC001A39F5A
:104F9000700D811D1124911DB29F700D811D112472
:104FA000911D08959111089581568A5108F48052F7
:104FB00085580895FB01DC0104C08D910190801992
:104FC00021F441505040C8F7881B990B0895FB010C
:104FD000DC0102C001900D9241505040D8F7089575
:104FE000DC0101C06D9341505040E0F70895FC0191
:104FF0008191861721F08823D9F799270895319751
:10500000CF010895AEE0B0E0E8E0F8E20C94BC2AED
:105010000D891E898F89988D26E02C831A83098338
:1050200097FF02C080E090E801979E838D83AE01D8
:10503000455E5F4F698D7A8DCE0101960E943228C0
:105040004D815E8157FD0AC02F8138854217530775
:105050000CF49A01020F131FF80110822E96E4E05F
:105060000C94D82AAFE0B0E0E8E3F8E20C94AE2A62
:105070007C013B018A01DC0117961C921E92169757
:1050800013968C9181FFC3C19AE0292EFE013196BF
:105090004F01D70113969C91F30193FD859193FFE6
:1050A00081913F01882309F448C1853239F493FD89
:1050B000859193FF81913F01853229F4B70190E0FA
:1050C0000E94202AE6CFB12C412C512CBFE1B5150E
:1050D00038F08B3209F188F4803201F1833221F10A
:1050E00057FC3AC020ED280F2A3040F556FE1FC06D
:1050F000B29C200D1124B22E06C08D3291F0803367
:1051000079F7689450F8F30193FD859193FF8191AD
:105110003F018111DBCF20C0689451F8689452F8A8
:10512000F2CF689453F8EFCF689454F8ECCF429CD8
:10513000200D1124422E689455F8E5CF8E3229F4C3
:1051400056FCFBC0689456F8DECF8C3619F4689490
:1051500057F8D9CF8836B9F2982F9F7D9554933060
:10516000C0F08336A1F18337C1F1833509F05BC00C
:10517000D801CD90DD908D016B2D70E056FC02C002
:105180006FEF7FEFC6010E940A2A5C01689457F80E
:105190000AC00C5F1F4FEFE3E983AA24A394B12C4C
:1051A0006401E89457F853FC04C04A141B0409F046
:1051B00018F5342CA114B10431F5332009F469CF6A
:1051C000B70180E290E00E94202A3A94F6CFD801FD
:1051D0008C9189830E5F1F4FE0CFF801C190D19071
:1051E0008F016B2D70E056FC02C06FEF7FEFC601A0
:1051F0000E94152A5C01D5CFB70180E290E00E94A1
:10520000202A4A94D2CFF60157FC859157FE81910E
:105210006F01B70190E00E94202A31103A94B1E06A
:10522000AB1AB108C7CF843619F0893609F074C0BB
:10523000F80157FE6AC061917191819191918F013E
:10524000E52DEF76DE2E97FF09C09095809570953D
:1052500061957F4F8F4F9F4F6894D7F82AE030E0D9
:10526000A4010E94502AC82EC818AC2C5D2CD6FE72
:105270000CC0E89450F8CB1440F4D4FE05C0D2FC26
:1052800003C05D2D5E7E552EAB2C54FE98C0FE01F2
:10529000EC0DF11D8081803309F08AC0652D697E97
:1052A000562E752D7870372E53FC98C050FE92C044
:1052B000BC2CA41418F44C0CB42CBA1854FE94C092
:1052C000B70180E390E00E94202A52FE09C088E7DF
:1052D00090E051FE02C088E590E0B7010E94202ACC
:1052E000CB1408F48DC0CA94D12C8FEFC81AD80AF9
:1052F000C80CD91CD6018E916D01B70190E00E94B7
:10530000202A8C149D04B1F758CF61917191072E1A
:10531000000C880B990B93CFD52CE894D4F82AE095
:1053200030E0853739F1F52DF97FDF2E8037A9F090
:1053300058F48835A9F08F36D9F0F7018681978126
:105340002F96E2E10C94CA2A8837B9F7D4FE02C03E
:105350006894D2F820E130E00DC06894D4F8F6CF1C
:1053600054FE03C02F2F2660D22E20E132E002C06F
:1053700028E030E0F801D7FE15C0419151916191CC
:1053800071914C875D876E877F878F01A4016C8543
:105390007D858E859F850E94502AC82EC818E89466
:1053A000D7F863CF81919191AC0170E060E0E9CFD3
:1053B00052FC02C0A39475CFA394A39472CF852D01
:1053C000867809F46ECFF6CFB70180E290E00E94B4
:1053D000202AA394A414C0F3312C70CF342C3A1893
:1053E000A41408F46BCFF8CF852D867809F478CF14
:1053F0008BE251FE80E257FC8DE2B70190E06ECF68
:10540000B70180E390E00E94202ABA9469CF8FEF21
:105410009FEF96CFFC010590615070400110D8F7C6
:10542000809590958E0F9F1F0895FC0161507040EC
:1054300001900110D8F7809590958E0F9F1F0895C9
:105440000F931F93CF93DF93182F092FEB018B81BD
:1054500081FD09C01FEF0FEF812F902FDF91CF91BA
:105460001F910F91089582FF14C02E813F818C817E
:105470009D81281739073CF4E881F981CF01019615
:105480009983888310838E819F8101969F838E8369
:10549000E3CFE885F985812F0995892BA1F3DACF30
:1054A000FA01AA27283051F1203181F1E8946F9355
:1054B0006E7F6E5F7F4F8F4F9F4FAF4FB1E03ED0FB
:1054C000B4E03CD0670F781F891F9A1FA11D680F99
:1054D000791F8A1F911DA11D6A0F711D811D911DCC
:1054E000A11D20D009F468943F912AE0269F112441
:1054F0003019305D3193DEF6CF010895462F4770A5
:10550000405D4193B3E00FD0C9F7F6CF462F4F70FF
:10551000405D4A3318F0495D31FD4052419302D05D
:10552000A9F7EACFB4E0A695979587957795679503
:10553000BA95C9F700976105710508959B01AC0103
:105540000A2E06945795479537952795BA95C9F72A
:10555000620F731F841F951FA01D08952F923F9205
:105560004F925F926F927F928F929F92AF92BF9273
:10557000CF92DF92EF92FF920F931F93CF93DF931F
:10558000CDB7DEB7CA1BDB0B0FB6F894DEBF0FBE7C
:10559000CDBF09942A88398848885F846E847D84C9
:1055A0008C849B84AA84B984C884DF80EE80FD80CB
:1055B0000C811B81AA81B981CE0FD11D0FB6F89441
:1055C000DEBF0FBECDBFED010895F894FFCF462793
:0C55D000532755275F2757275B275D27CF
:1055DC00FF4E4F204E414D45202020200036344BAD
:1055EC004F525050550036344B4F5250505520208E
:1055FC0020004641543132202020005052470036C2
:10560C00344B4F525050552056312E3000253032ED
:10561C00642C2025732C253032642C253032640DFB
:10562C0000444952005345510036344B4F525050B0
:10563C0055202020202020202000363420464154A4
:10564C0000424C4F434B5320465245452E004F4B86
:10565C000046494C45204E4F5420464F554E440071
:10566C004449534B2046554C4C0057524954452005
:10567C004552524F52004452495645204E4F5420E9
:10568C005245414459004F4B20434F4D50524553C6
:10569C0053204F4E0046494C4553205343524154DE
:1056AC00434845440053594E544158204552524F9B
:1056BC00520046494C4520455849535453004A69B9
:1056CC00666679444F5300427572737400455059A5
:1056DC005800585A3A3100585A3A30000100EE013D
:1056EC00F3220D238822EA220200F70166236D23A0
:1056FC0097236C230300FD01DC23E523E223E42341
:00000001FF
