:100000000C945D070C9478200C947A070C947A0772
:100010000C947A070C947A070C947A070C947A075C
:100020000C947A070C947A070C94C70E0C947A07F8
:100030000C947A070C947A070C947A070C947A073C
:100040000C947A070C947A070C947A070C947A072C
:100050000C947A070C947A070C947A070C947A071C
:100060000C947A070C947A0752656164792E0D0A14
:10007000004D6F756E74206661696C65640D0A00D1
:100080004641543132204F4B0D0A004D6F756E744E
:100090002046415431322E2E2E0D0A004E6F206420
:1000A00069736B20696E2064726976650D0A00447D
:1000B00072697665204F4B0D0A004E6F206472699D
:1000C0007665210D0A00466C6F70707920696E6943
:1000D000742E2E2E0D0A00436F6D7072657373209F
:1000E0004F4B0D0A00466173746C6F6164204F4B77
:1000F0000D0A00494543206465766963652023380D
:100100000D0A0037344843353935204F4B0D0A006E
:100110005352414D204F4B0D0A000D0A3D3D3D20ED
:1001200036346B6F727070752076312E3020284E09
:10013000616E6F2B5352414D29203D3D3D0D0A000C
:100140000D0A0020455252005B4449534B5D207715
:10015000726974652072633D000D0A0020523D00F3
:1001600020533D0020543D005B4449534B5D2077B4
:1001700072697465204C42413D000D0A00204552D1
:1001800052005B4449534B5D207265616420726389
:100190003D000D0A0020523D0020533D0020543DFB
:1001A000005B4449534B5D2072656164204C4241C1
:1001B0003D003031323334353637383941424344EB
:1001C000454600204641494C210D0A00204F4B0D69
:1001D0000A002072656164203078005B5352414D03
:1001E0005D20746573743A2077726F74652030787F
:1001F000005B5352414D5D20696E69742053504934
:100200002E2E2E0D0A00202F4F453D4F4E0D0A0079
:100210005B53525D2064656661756C743D30780097
:100220005B53525D20696E69740D0A005B464C5049
:100230005D207772697465204F4B0D0A005B464C58
:10024000505D204D464D20777269746520464149C6
:100250004C0D0A005B464C505D204D464D20777298
:100260006974652E2E2E0D0A005B464C505D20777A
:10027000726974653A207365656B206661696C65A7
:10028000640D0A005B464C505D20777269746520EE
:100290004552523A2077726974652070726F7465A6
:1002A00063746564210D0A005B464C505D207772D3
:1002B000697465204552523A206261642073656317
:1002C000746F720D0A000D0A0020523D0020533D4C
:1002D000005B464C505D20777269746520543D0088
:1002E0005B464C505D20616C6C203136206174742B
:1002F000656D707473206661696C65640D0A005BDE
:10030000464C505D206465636F6465204641494CEE
:100310002C207265747279696E6720776974682021
:1003200063616C696272617465642074687265737C
:10033000686F6C64730D0A000D0A005B464C505DDB
:100340002072656164204F4B2C20666972737420A3
:1003500062797465733A20002E2E2E0D0A005B46DA
:100360004C505D206465636F646520523D005B46C0
:100370004C505D2063617074757265204641494C34
:100380000D0A0020636170747572652E2E2E0D0AA1
:10039000005B464C505D20617474656D7074200084
:1003A0005B464C505D20726561643A207365656BF5
:1003B000206661696C65640D0A000D0A005B464C9D
:1003C000505D2057503D005B464C505D207265618A
:1003D00064204552523A2062616420736563746FF1
:1003E000720D0A000D0A0020523D0020533D005BB3
:1003F000464C505D207265616420543D000D0A003A
:100400005B464C505D20736964653D000D0A002D0C
:100410003E54005B464C505D207365656B20540074
:100420005B464C505D207365656B3A206E6F74209F
:10043000696E697469616C697A65642C20726563A0
:10044000616C6962726174696E670D0A000D0A0061
:10045000203E3D20005B464C505D207365656B205F
:100460004552523A20747261636B2000202D3E2069
:100470006469736B204E4F542050524553454E547F
:100480000D0A00202D3E206469736B2050524553A5
:10049000454E540D0A00205750543D005B464C50C9
:1004A0005D206469736B20636865636B3A20445315
:1004B0004B4348473D005B464C505D204552523A05
:1004C0002054524B3030206E6F7420666F756E640E
:1004D00020616674657220383520737465707321ED
:1004E0000D0A002073746570730D0A005B464C5052
:1004F0005D2054524B303020666F756E642061660B
:1005000074657220005B464C505D20726563616CBF
:100510006962726174653A207365656B696E672004
:10052000747261636B20302E2E2E0D0A005B464CD8
:10053000505D206D6F746F72204F46460D0A005B50
:10054000464C505D206D6F746F72207370696E2D14
:1005500075702074696D656F757420286E6F202F1B
:100560005244415441290D0A000D0A005B464C508B
:100570005D205741524E494E473A207369676E617C
:100580006C20746F6F20666173742C206E6F6973BA
:10059000653F206176673D0020286578706563744B
:1005A0006564207E313030292E20436865636B20DE
:1005B00031325620737570706C792E0D0A005B46CF
:1005C0004C505D205741524E494E473A206D6F7452
:1005D0006F7220746F6F20736C6F77212061766764
:1005E0003D00207469636B730D0A006D732C2061EC
:1005F000766720696E74657276616C3D005B464C6F
:10060000505D206D6F746F72207265616479206136
:100610006674657220005B464C505D206D6F746F90
:1006200072204F4E2C2077616974696E6720666F67
:10063000722073706565642E2E2E0D0A000D0A005F
:100640005B464C505D20696E697420646F6E652C4A
:100650002053523D3078000D0A002044534B43484C
:10066000473D00205750543D005B464C505D20698B
:100670006E707574733A2054524B30303D005B46B7
:100680004C505D20696E6974204750494F2E2E2EC4
:100690000D0A005B4D464D5D20736563746F7220DB
:1006A0007363616E2074696D656F75740D0A000D5A
:1006B0000A0020617420543D005B4D464D5D20666C
:1006C0006F756E6420736563746F7220002E2E2E1A
:1006D0000D0A005B4D464D5D207363616E20666FB1
:1006E0007220736563746F7220005B4D464D5D2010
:1006F0007772697465204F4B0D0A000D0A00205275
:100700003D0020533D005B4D464D5D20777269747E
:100710006520543D00206E6F7420666F756E640D09
:100720000A005B4D464D5D206465636F646520463D
:1007300041494C3A20736563746F7220005B4D46EB
:100740004D5D20534543544F52204D415443482161
:100750000D0A000D0A0020400020523D0020533DAC
:10076000005B4D464D5D2056414C49442049444173
:100770004D3A20543D000D0A005D3A00205B6F6643
:100780006600290020286C656E3D000D0A5B4D4611
:100790004D5D20707265616D626C6520656E6420D0
:1007A0004000207061636B730D0A002C207363613D
:1007B0006E20005B4D464D5D206465636F6465206F
:1007C000736563746F7220000D0A002062756D708E
:1007D0003D002F00207468723D002034543D0020FD
:1007E00033543D005B4D464D5D2063616C3A2032D1
:1007F000543D005B4D464D5D2063616C3A2077654A
:10080000616B20636C7573746572732C206B656506
:1008100070696E672064656661756C74730D0A009B
:100820005B4D464D5D2063616C3A20746F6F2066AE
:1008300065772073616D706C65730D0A000D0A0099
:100840003A20005B4D464D5D206279746573206FE0
:1008500066663D000D0A000D0A005B4D464D5D20A9
:10086000636F6465733A20000D0A0020696E763D5F
:10087000002034543D002033543D005B4D464D5D17
:1008800020686973742032543D005B4D464D5D20F5
:10089000636170747572652054494D454F555421FC
:1008A0000D0A006D730D0A00207061636B732C20BC
:1008B000005B4D464D5D20636170747572653A2032
:1008C000005B4D464D5D20636170747572652073E9
:1008D000746172740D0A000D0A00206D6F643D0092
:1008E0002077726974653D005B4641545D20636CFE
:1008F0006F73653A20706F733D000D0A00207369B5
:100900007A653D005B4641545D206F70656E65649D
:100910003A20636C75737465723D005B4641545DAB
:100920002066696C65206E6F7420666F756E640D4D
:100930000A00270D0A005B4641545D206F70656E0A
:100940005F726561642027005B4641545D206D6FD6
:10095000756E74204F4B0D0A000D0A005B46415422
:100960005D20464154312072656164204641494C06
:1009700020617420736563746F7220002073656357
:10098000746F7273292E2E2E0D0A005B4641545D42
:100990002072656164696E672046415431202800E9
:1009A0005B4641545D206E6F20626F6F74207369E7
:1009B000672C2064656661756C74206C6162656C7F
:1009C0000D0A000D0A00272073657269616C3D30C5
:1009D00078005B4641545D206C6162656C3D270088
:1009E0005B4641545D204552523A207370633D3D51
:1009F000300D0A005B4641545D204552523A206E4C
:100A0000666174213D320D0A005B4641545D20450C
:100A100052523A20627073213D3531320D0A000D79
:100A20000A00207369673D30780020726F6F743D53
:100A3000002068656164733D00207370743D005B45
:100A40004641545D204250423A207370663D000D8D
:100A50000A00206D656469613D30780020746F7410
:100A60003D00206E6661743D00207370633D005B45
:100A70004641545D204250423A206270733D005B13
:100A80004641545D206D6F756E743A20626F6F74CD
:100A900020736563746F72207265616420464149FA
:100AA0004C0D0A005B4641545D206D6F756E743AC3
:100AB0002072656164696E6720626F6F7420736570
:100AC00063746F722E2E2E0D0A005B4641545D201A
:100AD000616C7265616479206D6F756E7465640D0B
:100AE0000A005B4945435D206C697374656E20455F
:100AF0004F490D0A00270D0A005B4945435D2066FA
:100B0000696C656E616D653D27005B4945435D20FD
:100B10006C697374656E2072656376206661696CBA
:100B20000D0A005B4945435D2041544E20647572B7
:100B3000696E67206C697374656E0D0A000D0A009A
:100B40005B4945435D206C697374656E696E67200F
:100B5000666F7220646174612053413D005B4945BA
:100B6000435D20666173746C6F61642061637469B6
:100B700076650D0A005B4945435D2041544E207265
:100B8000656C65617365642C2064657465637420AD
:100B9000666173746C6F61640D0A00203F3F0D0A3B
:100BA000000D0A0020434C4F53452053413D000D9A
:100BB0000A00204F50454E2053413D005B494543BC
:100BC0005D202D3E2054414C4B45520D0A000D0A2C
:100BD000002054414C4B2023005B4945435D202DB0
:100BE0003E204C495354454E45520D0A000D0A0013
:100BF000204C495354454E20230020554E54414C1F
:100C00004B0D0A0020554E4C495354454E0D0A00D9
:100C10005B4945435D20636D643D3078005B494529
:100C2000435D2041544E206279746520726563767D
:100C3000206661696C0D0A005B4945435D204154A3
:100C40004E0D0A005B4945435D2074616C6B3A2090
:100C50006E6F20646174612C2072656C65617365D0
:100C60000D0A005B4945435D2074616C6B3A204579
:100C70004F492C20646F6E650D0A005B4945435D4A
:100C80002074616C6B3A2073656E64206661696CD8
:100C900065640D0A005B4945435D207265696E69B4
:100CA0007420646F6E652C2072656164790D0A0092
:100CB0005B4945435D206D6F756E74206661696C9C
:100CC00065640D0A005B4945435D2046415431325D
:100CD000204F4B0D0A005B4945435D206D6F756EDB
:100CE000742046415431322E2E2E0D0A005B4945A8
:100CF000435D206E6F206469736B20696E2064729F
:100D00006976650D0A005B4945435D20647269762A
:100D100065204F4B0D0A005B4945435D206E6F20F7
:100D20006472697665210D0A005B4945435D207256
:100D3000657365742072656C65617365642C2072DF
:100D400065696E697420666C6F7070790D0A005B5E
:100D50004945435D202A2A2A2042555320524553B3
:100D60004554202A2A2A0D0A005B4945435D20701C
:100D70006F6C6C3A2041544E20647572696E672026
:100D8000776169740D0A000D0A00205253543D002A
:100D900020444154413D0020434C4B3D005B4945BC
:100DA000435D206275733A2041544E3D000D0A00A8
:100DB0005B4945435D20696E697420646576202334
:100DC00000270D0A005B444F535D20636D643A2099
:100DD00027000D0A005B444F535D20636C6F736501
:100DE0002053413D005B444F535D206F70656E2082
:100DF0004F4B0D0A000D0A005B444F535D205341D9
:100E0000564520637265617465206661696C65642E
:100E10002072633D005B444F535D20534156450DA6
:100E20000A000D0A005B444F535D204C4F414420A3
:100E30006661696C65642072633D005B444F535D7D
:100E4000204C4F41440D0A00270D0A00272E270091
:100E50005B444F535D207061727365643A202700D4
:100E60000D0A005B444F535D20646972206C656E0F
:100E70003D005B444F535D20646972206C6973745C
:100E8000696E670D0A005B444F535D20445249561A
:100E900045204E4F542052454144590D0A00270D1C
:100EA0000A002066696C653D27005B444F535D2056
:100EB0006F70656E2053413D000011241FBECFEFBF
:100EC000D8E0DEBFCDBF12E0A0E0B1E0E2E9F8E695
:100ED00002C005900D92A433B107D9F727E0A4E32F
:100EE000B2E001C01D92A733B207E1F70E94EA0801
:100EF0000C9440340C9400001092C5008FEC809349
:100F0000C400E0ECF0E080818260808388E0809320
:100F1000C10086E08093C20008959091C00095FFC3
:100F2000FCCF8093C6000895CF93DF93EC018991A5
:100F3000811103C0DF91CF9108950E948D07F7CFF3
:100F4000CF93DF93EC01FE0184912196811103C0C0
:100F5000DF91CF9108950E948D07F5CFCF93C82FD1
:100F6000E82FE295EF70F0E0EE54FE4F84910E947E
:100F70008D07CF70EC2FF0E0EE54FE4F8491CF91AF
:100F80000C948D07CF93C82F892F0E94AE078C2F0A
:100F9000CF910C94AE07CF92DF92EF92FF920F9316
:100FA0001F93CF93DF9300D000D000D0CDB7DEB732
:100FB0009C01892B89F480E326960FB6F894DEBF56
:100FC0000FBECDBFDF91CF911F910F91FF90EF909A
:100FD000DF90CF900C948D07CE0101967C01FC012F
:100FE00010E000E08AE0C82ED12C0F5F1F4FC9012E
:100FF000B6010E94E530805D8193C9019B010A978B
:10100000A0F70E0D1F1DF80182918F010E948D0720
:101010000E151F05C1F726960FB6F894DEBF0FBE5A
:10102000CDBFDF91CF911F910F91FF90EF90DF9097
:10103000CF900895BF92CF92DF92EF92FF920F93DD
:101040001F93CF93DF93182FD92FF62E072F64E22B
:1010500070E00E94E5306B0162E170E00E94E530D3
:10106000E62EB72EC1E0C80F81EA91E00E94A007EA
:10107000812F9D2F0E94CB078DE991E00E94A00750
:10108000C60199270E94CB0789E991E00E94A00739
:101090008E2D9B2D0E94CB0785E991E00E94A00731
:1010A0008C2F90E00E94CB0782E991E00E94A0077C
:1010B0002F2D302F4C2F6E2D8C2D0E94B10CEC015A
:1010C00082E891E00E94A007CE01D7FF04C08827E4
:1010D00099278C1B9D0B0E94CB07D7FF04C08DE77F
:1010E00091E00E94A0078AE791E00E94A007CE014C
:1010F000DF91CF911F910F91FF90EF90DF90CF90F4
:10110000BF900895BF92CF92DF92EF92FF920F931C
:101110001F93CF93DF93182FD92FF62E072F64E25A
:1011200070E00E94E5306B0162E170E00E94E53002
:10113000E62EB72EC1E0C80F88E691E00E94A00716
:10114000812F9D2F0E94CB0784E691E00E94A0078B
:10115000C60199270E94CB0780E691E00E94A00774
:101160008E2D9B2D0E94CB078CE591E00E94A0075D
:101170008C2F90E00E94CB0789E591E00E94A007A8
:101180002F2D302F4C2F6E2D8C2D0E94700DEC01C9
:1011900088E491E00E94A007CE01D7FF04C0882711
:1011A00099278C1B9D0B0E94CB07D7FF04C083E4BB
:1011B00091E00E94A00780E491E00E94A007CE0188
:1011C000DF91CF911F910F91FF90EF90DF90CF9023
:1011D000BF900895F894569A5E980E947C078AE121
:1011E00091E00E94A0070E9494300E94080A80E1CA
:1011F00091E00E94A0070E947C0A83E091E00E9497
:10120000A0070E94A00E83EF90E00E94A00788E054
:101210000E94D4210E94E5240E94922B0E94BD2CA2
:101220000E94242D0E94972D85EE90E00E94A00739
:101230000E94DA2F87ED90E00E94A00778940E9428
:10124000CD0A86EC90E00E94A0070E94170B0E9436
:10125000BE0B892B81F08AEB90E00E94A00720E072
:1012600040E064E071E08AE40E94AD2185E090E016
:101270000E949A3022C08FEA90E00E94A0070E944C
:10128000F80B81110EC08CE990E00E94A00720E0CD
:1012900040E064E071E08AE40E94AD2186E090E0E5
:1012A000E7CF8BE890E00E94A0070E942018892BCE
:1012B00089F480E890E00E94A0070E94B00B88E6C5
:1012C00090E00E94A00790E080E00E949A300E9487
:1012D0005522FDCF81E790E0D8CF8EBD0DB407FE3B
:1012E000FDCF8EB50895CF93C62F872F0E946D092D
:1012F0008C2FCF910C946D09CF92DF92EF92FF92D9
:101300000F931F93CF93DF936B01D82FC92F7A01CF
:1013100089012A9883E00E946D09B6018D2F9C2FC8
:101320000E947309E7010E0D1F1DC017D10751F46C
:101330002A9ADF91CF911F910F91FF90EF90DF904C
:10134000CF90089580E00E946D098993EECFCF92EF
:10135000DF92EF92FF920F931F93CF93DF936B0176
:10136000D82FC92F7A0189012A9882E00E946D093D
:10137000B6018D2F9C2F0E947309E7010E0D1F1DD2
:10138000C017D10751F42A9ADF91CF911F910F9185
:10139000FF90EF90DF90CF90089589910E946D09A2
:1013A000EFCF0F931F93CF93DF938B01D82FC92FCC
:1013B0002A9883E00E946D09B8018D2F9C2F0E940E
:1013C000730980E00E946D092A9ADF91CF911F91E5
:1013D0000F910895FF920F931F93CF93DF93F62EF3
:1013E000072F182FD92FC42F2A9882E00E946D0949
:1013F0006F2D702F812F9D2F0E9473098C2F0E94BB
:101400006D092A9ADF91CF911F910F91FF90089556
:10141000CF9381EF91E00E94A00784B18C6284B9E0
:1014200024982A9A80E58CBD8DB581608DBD2A985F
:1014300081E00E946D0980E40E946D092A9A45EAC4
:1014400060E070E0CB010E94EA0960E070E0CB014F
:101450000E94D109C82F8BED91E00E94A00785EA78
:101460000E94AE0782ED91E00E94A0078C2F0E949F
:10147000AE078CEC91E0C53A11F083EC91E0CF918E
:101480000C94A0070F931F93CF93DF938B01D82F5A
:10149000C92F2A9882E00E946D09B8018D2F9C2FD8
:1014A000DF91CF911F910F910C9473092A9A08959F
:1014B0000F931F93CF93DF938B01D82FC92F2A98B7
:1014C00083E00E946D09B8018D2F9C2FDF91CF9191
:1014D0001F910F910C9473091EBC0DB407FEFDCF34
:1014E0008EB508952A9A809300018EBD0DB407FE33
:1014F000FDCF5E9A5E98089580E292E00E94A00778
:10150000569A5E988FEF809300010E94720A3B9A70
:10151000439880E192E00E94A007809100010E9420
:10152000AE0786E092E00C94A00721E030E001C015
:10153000220F8A95EAF720958091000182238093FB
:1015400000010C94720A21E030E001C0220F8A955C
:10155000EAF780910001822B809300010C94720ABB
:101560008823B9F085E00E94950A85E38A95F1F712
:10157000000086E00E94950A90E19A95F1F786E0D6
:101580000E94A30A8FED9EE20197F1F700C00000D0
:10159000089585E00E94A30AE8CFCF938EE796E0F6
:1015A0000E94A00787B1887F87B988B1876088B912
:1015B0002098579A5F9A219A85EF0E94720AC6B1C5
:1015C00089E696E00E94A0078CE4C0FD88E40E94B2
:1015D0008D0783E696E00E94A0078CE4C1FD88E4B5
:1015E0000E948D078AE596E00E94A0078CE4C2FD68
:1015F00088E40E948D0787E596E00E94A00710927C
:101600003402109235021092360210923702109274
:1016100038021092390280E496E00E94A00785EF1C
:101620000E94AE078DE396E0CF910C94A007CF9275
:10163000DF92EF92FF920F931F93CF93DF938091EE
:101640003602811169C086E196E00E94A00782E01F
:101650000E94950A84E00E94950A299A20918600AA
:1016600030918700D0E0C0E090E0C12CD12C760111
:1016700060E2EFE9FFE03197F1F700C00000B59BB1
:1016800054C04091860050918700FA01E21BF30B91
:101690009F0166BBB897E33EF10508F048C0C20E53
:1016A000D31EE11CF11C9F5F81E0903108F480E0C3
:1016B0009A012196C83EF3E0DF0709F43FC0882372
:1016C000C1F284E0F694E794D794C7948A95D1F751
:1016D00086018DEF95E00E94A007CE010E94CB0706
:1016E0008BEE95E00E94A007C6010E94CB0782EE18
:1016F00095E00E94A0070B3A110528F18EEB95E0CA
:101700000E94A007C6010E94CB0788E995E00E94CD
:10171000A00781E080933602DF91CF911F910F9156
:10172000FF90EF90DF90CF90089580E0C2CF80E0EF
:101730009A01C12CD12C760190E0BBCF8111C1CF91
:101740008FE395E0E4CF0233110518F78CE695E0BE
:101750000E94A007C6010E94CB0789E695E0D7CF7B
:101760008DE295E00E94A00782E00E94A30A84E037
:101770000E94A30A10923602299808951F93CF93CE
:10178000DF9385E095E00E94A007D0E0C0E03099AB
:1017900021C01092340281E0809339021FE08FE96A
:1017A0009FE00197F1F700C000000E949A241150B9
:1017B000B1F78CEE94E00E94A007CE010E94CB0707
:1017C00083EE94E00E94A00790E080E0DF91CF914B
:1017D0001F91089580E00E94B00A2196C535D10579
:1017E000B1F686EB94E00E94A0078FEF9FEFEECF5B
:1017F000CF93DF9386B1D82FD47082FBCC27C0F96A
:10180000C093370286B18695817091E089278093D5
:1018100038028CE994E00E94A0078CE4D11188E49E
:101820000E948D0786E994E00E94A007809138020B
:1018300081110FC08EE40E948D0783E894E0D111DE
:1018400002C08CE694E00E94A0078C2FDF91CF911C
:10185000089589E5F0CFCF93C82F8035C0F085E596
:1018600094E00E94A0078C2F90E00E94CB0780E5B7
:1018700094E00E94A00780E590E00E94CB078DE4F1
:1018800094E00E94A0078EEF9FEFCF910895809182
:101890003902882359F1809134028C17A9F083E131
:1018A00094E00E94A0078091340290E00E94CB0750
:1018B0008FE094E00E94A0078C2F90E00E94CB075D
:1018C0008CE094E00E94A00780913402C81317C0F6
:1018D000CFE08FE99FE00197F1F700C000000E9480
:1018E0009A24C150B1F790E080E0CFCF80E294E03D
:1018F0000E94A0070E94BE0B009769F2C6CF8C170A
:1019000048F481E00E94B00A809134028F5F809396
:101910003402DACF80E00E94B00A80913402815014
:10192000F6CFCF93C82F80E094E00E94A0078C2FC1
:1019300090E00E94CB078DEF93E00E94A00780E02B
:10194000CC2361F00E94950AC09335028FE891E0A4
:101950000197F1F700C00000CF9108950E94A30AFB
:10196000F3CFAF92BF92CF92DF92FF920F931F936C
:10197000CF93DF93C82FB62EF42E89018FEE93E01C
:101980000E94A0078C2F90E00E94CB078BEE93E083
:101990000E94A0078B2D90E00E94CB0787EE93E07A
:1019A0000E94A007CF2CD12CC6010E94CB0784EE49
:1019B00093E00E94A0078FEF8F0D823188F087ECB3
:1019C00093E00E94A007C8EFDFEFCE01DF91CF9137
:1019D0001F910F91FF90DF90CF90BF90AF9008952F
:1019E0000E94170B96B19695917081E0982790937D
:1019F00038028DEB93E00E94A0078091380281119C
:101A000036C08EE40E948D078AEB93E00E94A00707
:101A10008C2F0E942B0CEC0180EA93E0209709F0B8
:101A200059C08B2D0E94910CB12CA12C81E993E01F
:101A30000E94A007C5010E94CB0783E893E00E94A3
:101A4000A0070E94810F892BA1F08EE693E00E94EF
:101A5000A007FFEFAF1ABF0A80E1A816B10431F763
:101A600080EE92E00E94A007CDEFDFEFAECF89E5D8
:101A7000C9CF8EE593E00E94A007C6010E94CB0764
:101A800088E593E00E94A007B8018F2D0E94A01264
:101A9000EC01892B11F58BE393E00E94A007F8017C
:101AA00080810E94AE0780E20E948D07F80181814B
:101AB0000E94AE0780E20E948D07F80182810E9499
:101AC000AE0780E20E948D07F80183810E94AE0775
:101AD00088E393E00E94A00778CF8FEF92E0B7CF22
:101AE000BF92CF92DF92EF92FF920F931F93CF930B
:101AF000DF9300D000D000D0CDB7DEB7D82EE62ED1
:101B0000F42EB22EC32E81ED92E00E94A0078D2DFF
:101B100090E00E94CB078DEC92E00E94A0078E2DF2
:101B200090E00E94CB0789EC92E00E94A0078F2DE5
:101B300090E00E94CB0786EC92E00E94A0078FEF16
:101B40008F0D8231B8F088EA92E00E94A00708EF7A
:101B50001FEFC80126960FB6F894DEBF0FBECDBFAB
:101B6000DF91CF911F910F91FF90EF90DF90CF9079
:101B7000BF9008950E94170B319907C084E892E046
:101B80000E94A0070BEF1FEFE4CF8D2D0E942B0CBE
:101B90008C0189E692E00115110509F58E2D0E9450
:101BA000910C1E821D82D982EA82FB8282E08C83A4
:101BB00084E592E00E94A0076B2D7C2DCE0101965A
:101BC0000E942E158C018CE292E00115110539F06E
:101BD0008DE392E00E94A0070CEF1FEFBACF0E94A6
:101BE000A007B7CFB19BFECF82E086BB8091880073
:101BF0009091890080969093890080938800089541
:101C000080E286BB81E593ECB59B29C0809186007C
:101C1000909187002091DD033091DE03821B930BAE
:101C200020918600309187003093DE032093DD03FE
:101C30002091D4033091D50382179307A0F020910F
:101C4000D2033091D3038217930778F02091D00309
:101C50003091D1038217930720F482E00895019711
:101C600099F683E0089580E0089581E008955F98F3
:101C700000C000C000005F9A08950F931F93CF9398
:101C8000DF93CFE0D0E001E010E00E94F20DC80148
:101C90000C2E02C0880F991F0A94E2F78978947479
:101CA000892B11F00E94370E219778F781E08093FD
:101CB000CD03DF91CF911F910F910895EF92FF9285
:101CC0000F931F93CF93DF9307E010E0E82EF12CE2
:101CD000E701002E02C0D595C7950A94E2F7C170BE
:101CE0000E94F20D8091CD038C2B11F40E94370ECF
:101CF0000E94F20DC1110E94370EC093CD03015016
:101D0000110930F7DF91CF911F910F91FF90EF9064
:101D10000895FC01680F791FCA01E617F70709F457
:101D200008952191922728E0AC01880F991F57FF51
:101D300004C031E2832730E193272150A9F7EDCF8A
:101D400010928000E1E8F0E081E0808380818F7B69
:101D50008083EFE6F0E080818F7D808382E990E0F0
:101D60009093D5038093D40382EB90E09093D303B8
:101D70008093D20382EE90E09093D1038093D003BE
:101D800088E190E09093CF038093CE0308950F9263
:101D90000FB60F921F9211242F933F934F935F938F
:101DA0006F937F938F939F93AF93BF93EF93FF9323
:101DB00080918600909187002091DD033091DE03B1
:101DC000821B930B20918600309187003093DE03B5
:101DD0002093DD0320913B0230913C02283C3105E9
:101DE00090F420913B0230913C02A9014F5F5F4F7C
:101DF00050933C0240933B02220F331FF901E35CF6
:101E0000FD4F918380832091D4033091D50360915D
:101E1000D2037091D3034091D0035091D103E0914C
:101E20003A02E23030F4E091CE03F091CF032E0F6E
:101E30003F1F8217930708F45EC08617970708F4C0
:101E40005CC08417950708F45AC083E080933A0277
:101E50002091D80394E0299F90011124822B809334
:101E6000D8038091D7038F5F8093D7038091D703E6
:101E70008430D8F08091D8038EBD0DB407FEFDCF1D
:101E80008091D9039091DA03A091DB03B091DC0338
:101E90000196A11DB11D8093D9039093DA03A093FD
:101EA000DB03B093DC031092D7038091D9039091A8
:101EB000DA03A091DB03B091DC03803C9043A105E1
:101EC000B10540F080916F008F7D80936F0081E0BD
:101ED0008093D603FF91EF91BF91AF919F918F9126
:101EE0007F916F915F914F913F912F911F900F9034
:101EF0000FBE0F90189580E0A9CF81E0A7CF82E0B8
:101F0000A5CF2F923F924F925F926F927F928F92C6
:101F10009F92AF92BF92CF92DF92EF92FF920F9378
:101F20001F93CF93DF93CDB7DEB7A9970FB6F89481
:101F3000DEBF0FBECDBF81EC98E00E94A0071092DB
:101F4000D9031092DA031092DB031092DC03109293
:101F5000D8031092D7031092D60310923C0210922D
:101F60003B0282E080933A0260E070E0CB010E9485
:101F7000420AB59A80918600909187009093DE0383
:101F80008093DD0380916F00806280936F0078946E
:101F900010E000E08091D603811105C0043F91E07C
:101FA000190709F042C080916F008F7D80936F0008
:101FB0000E94560A81EB98E00E94A0078091D90305
:101FC0009091DA03A091DB03B091DC030E94CB0770
:101FD00088EA98E00E94A007C8010E94CB0783EA24
:101FE00098E00E94A007043F114041F58AE898E07C
:101FF0000E94A00787EF9FEFA9960FB6F894DEBF67
:102000000FBECDBFDF91CF911F910F91FF90EF9049
:10201000DF90CF90BF90AF909F908F907F906F9008
:102020005F904F903F902F9008958FE99FE0019728
:10203000F1F700C000000F5F1F4FACCF8E010F5FA4
:102040001F4F88E0F80111928A95E9F760E070E08F
:10205000CB010E94580A8091D9039091DA03A09194
:10206000DB03B091DC0354EFE52EFF24F394853FAE
:102070009140A105B10548F48091D9039091DA030C
:10208000A091DB03B091DC037C01D12CC12CCE14D8
:10209000DF0409F087C00E94560A8BE798E00E948F
:1020A000A00789819A810E94CB0786E798E00E9469
:1020B000A0078B819C810E94CB0781E798E00E945A
:1020C000A0078D819E810E94CB078BE698E00E943D
:1020D000A0078F8198850E94CB0788E698E00E9430
:1020E000A007C0903B02D0903C029E012F5D3F4F65
:1020F000F8019EE1C916D10408F076C080E298E0AC
:102100000E94A00780913B0290913C02449708F402
:1021100046C0C090D403D090D503A090D203B09015
:10212000D3038090D0039090D1038AE598E00E9479
:10213000A00710E000E080913B0290913C0208175C
:10214000190708F47DC184E598E00E94A007F12CEE
:10215000E12C83E498E00E94A007C7010E94CB070E
:1021600080E498E00E94A007712C612C00E090E0D0
:1021700080E010E0212C312C210120913B02309194
:102180003C026216730618F4083108F482C18DE32C
:1021900098E00E94A007EA94EF2809F076C190E049
:1021A00080E02ACF0E946C0A26E030E090E0FC013B
:1021B000022E02C0F595E7950A94E2F7E370FF2737
:1021C000EE0FFF1FE00FF11F408151814F5F5F4F06
:1021D00051834083225031092E3F4FEF340739F7A6
:1021E0008FEFC81AD80A53CF11921192E217F30752
:1021F000D9F7F12CE12CBCE0AB2EB12CF701EE0F9E
:10220000FF1FE35CFD4F80819181C297803C910567
:1022100068F4B5010E94E530FB01EE0FFF1FE00FEF
:10222000F11F80819181019691838083AFEFEA1A3B
:10223000FA0ACE14DF0411F7809101019091020196
:10224000A09103018FA398A7A9A71AA219A21CA263
:102250001BA21EA21DA2AE01495D5F4FF901B9018B
:102260007A01812C5801612C90E080E0912CD501FD
:10227000CD90DD905D018C159D0598F4DA017A2EE4
:10228000741A781418F0692CC6010BC05D90792C73
:10229000751877FE02C0752C79185524539457147D
:1022A00074F39394A0E19A12E2CFD7016D927D016D
:1022B000DB018D939D93BD018394B3E08B12D2CF4C
:1022C000BE01685D7F4F2C5F3F4FDB019D91BD01DB
:1022D0008FA1981770F49FA3AD0141505109DA0105
:1022E0008C9389A19AA1428153815AA349A39383D4
:1022F00082833296E217F30741F788A599A59827BC
:102300008927982739A528A5321750F499A788A7B7
:102310008BA19CA12DA13EA13CA32BA39EA38DA389
:1023200089A19AA1039740F08BA19CA1039720F06B
:102330008DA19EA1039718F483EF97E0E1CE5FA1F2
:102340004CE0549F40011124B8E38B0E911C08A56A
:10235000202F30E0049F80011124085C1F4F89A5C5
:10236000849F70011124E8E3EE0EF11C5401A00ECD
:10237000B11EB694A79438016E0C7F1C76946794B6
:1023800090E0821B930B489FB001499F700D112470
:10239000CB01969587958E0D9F1D251B3109429F78
:1023A000B001439F700D1124E4E0CE2ED12C683093
:1023B000710548F06B01D694C7946135710518F02A
:1023C000F8E2CF2ED12CB092D503A092D403709214
:1023D000D3036092D2039093D1038093D003D09221
:1023E000CF03C092CE0384EE97E00E94A007C40101
:1023F0000E94CB078FED97E00E94A007C8010E94C2
:10240000CB078AED97E00E94A007C7010E94CB0787
:1024100084ED97E00E94A007C5010E94CB0782EDE2
:1024200097E00E94A007C3010E94CB078BEC97E0C6
:102430000E94A007C6010E94CB0788EC97E060CEFF
:10244000F801EE0FFF1FE35CFD4F808191818C1539
:102450009D0578F482E30E948D07C8018F73992748
:10246000CF9721F487E598E00E94A0070F5F1F4FE8
:1024700062CE8A159B0510F483E3EDCF881599058C
:1024800010F484E3E8CF8FE3E6CFEE24E394F12C5D
:1024900060CEF301EE0FFF1FE35CFD4F2081318121
:1024A0002C153D05A8F442E0220C331C441C551C9D
:1024B0004A95D1F7689420F81E5F1F3108F01EE19D
:1024C000123010F0083100F1FFEF6F1A7F0A55CE7D
:1024D0002A153B0558F433E0220C331C441C551CD0
:1024E0003A95D1F7689420F81D5FE7CF2815390594
:1024F00058F724E0220C331C441C551C2A95D1F7B4
:10250000689420F81C5FD9CF1250880F9701210FD3
:10251000311DB201A10104C0769567955795479585
:102520002A95D2F74170842B9F5F983048F20E9421
:10253000AE0780E20E948D070F5F90E080E0C0CF81
:102540002F923F924F925F926F927F928F929F92C3
:10255000AF92BF92CF92DF92EF92FF920F931F93B1
:10256000CF93DF93CDB7DEB7A1970FB6F894DEBF58
:102570000FBECDBF8D8F83EB97E00E94A0073D8DEE
:10258000232F30E03C8F2B8FC9010E94CB078BEAB1
:1025900097E00E94A0078091D9039091DA03A0915F
:1025A000DB03B091DC030E94CB0782EA97E00E9434
:1025B000A00760E070E0CB010E94580A1F821886D5
:1025C00019861A861A8EB12C198A1A8A1B8A1C8AB5
:1025D0001E8200E010E0712C612C1D82C12CD12CD8
:1025E00076018091D9039091DA03A091DB03B09139
:1025F000DC032F81388549855A85281739074A0712
:102600005B0748F10E94560A82E297E00E94A00709
:102610008B8D9C8D0E94CB0785E197E00E94A007DF
:1026200088EF9FEFA1960FB6F894DEBF0FBECDBF27
:10263000DF91CF911F910F91FF90EF90DF90CF909E
:10264000BF90AF909F908F907F906F905F904F90D2
:102650003F902F9008950E946C0A46E050E0598FF9
:10266000488FA82FB0E0BF8FAE8F8E8D9F8D088CC6
:1026700002C0959587950A94E2F78370813009F43A
:1026800064C0823009F46EC08111D8C172E0CC0CF4
:10269000DD1CEE1CFF1C7A95D1F76894C0F8BD8153
:1026A000BE5FBB874B854D834F3110F05EE15D838C
:1026B00089899A89AB89BC890196A11DB11D898B35
:1026C0009A8BAB8BBC8B95E5C916D90609F057C020
:1026D000B3946114710409F0AFC19B85923108F184
:1026E00030E020E0622FA90198E080E0880F160119
:1026F0002701042E04C056944794379427940A94D3
:10270000D2F7A22DA1708A2B91504E5F5F4F91118D
:10271000EDCF8E3F09F49AC12E5F3F4F2031310536
:1027200009F7A88DB98D1297B98FA88F129609F065
:102730009CCF8F819885A985BA850196A11DB11D71
:102740008F839887A987BA874CCF63E0CC0CDD1CB8
:10275000EE1CFF1C6A95D1F76894C0F82D812D5F9F
:102760002B87A0CF54E0CC0CDD1CEE1CFF1C5A952F
:10277000D1F76894C0F83D813C5F3B8793CFA3E0DD
:10278000AB1508F0E7C0BA8DB23008F0E3C08BE8B3
:1027900097E00E94A00789899A890E94CB0784E864
:1027A00097E00E94A0078B2D90E00E94CB0782E863
:1027B00097E00E94A007312C212C8CE797E00E9423
:1027C000A007C1010E94CB0789E797E00E94A007FC
:1027D0000E94560A6F81788589859A850E94580AD9
:1027E000460157012F81388549855A852D873E87B7
:1027F0004F87588B412C1C861F8A512C8091D903FE
:102800009091DA03A091DB03B091DC032D853E8526
:102810004F855889281739074A075B0708F087C092
:102820000E946C0A2D853E854F8558892F5F3F4F4A
:102830004F4F5F4F2D873E874F87588B46E050E0C4
:102840005E8B4D8BA82FB0E0B9A3A8A388A199A156
:102850000D8802C0959587950A94E2F783708130C0
:1028600019F1823061F1811135C032E0880C991C78
:10287000AA1CBB1C3A95D1F7689480F882E0480EF8
:1028800051E0541548F18D899E8902979E8B8D8B5E
:10289000029609F048C03C85303208F4AFCF47C0FB
:1028A00022242394312C89CF23E0880C991CAA1C64
:1028B000BB1C2A95D1F7689480F883E0E0CF94E0C0
:1028C000880C991CAA1CBB1C9A95D1F7689480F8B7
:1028D00084E0D5CF80E0D3CFBC85B032A0F64A9457
:1028E0004A94550CC101840D911DA501940104C0A9
:1028F00056954795379527958A95D2F7C9018170E6
:10290000582A3F893E5F3F8B303108F4B9CF852D7F
:102910000E94AE0780E20E948D074C854F5F4C8776
:102920001F8A512CADCF2C85203208F48FCF86E73B
:1029300097E00E94A0072A94232809F0B1CF4A8D7E
:102940004F5F4A8F8D859E85AF85B8898F83988725
:10295000A987BA87B12CBDCEAA94AA94D701C60183
:102960000A2C04C0B695A795979587950A94D2F737
:102970008170110F182B0E5F9E80003108F453C038
:10298000B2E06B16710409F04CC09394E1E0F0E002
:10299000EC0FFD1F2E81E20FF11D108333E039157E
:1029A00008F03FC089804FE44815B0F10A81023039
:1029B00098F51B818FEF810F823170F58C81823009
:1029C00059F581E697E00E94A007882D90E00E94CB
:1029D000CB078DE597E00E94A007802F90E00E9432
:1029E000CB0789E597E00E94A007812F90E00E9425
:1029F000CB0786E597E00E94A00789899A890E9403
:102A0000CB0783E597E00E94A0075D8D511304C0BA
:102A10008DE397E00E94A00700E010E0712C612C8C
:102A200002C000E010E09E8271E07A1508F494CFB5
:102A30008D8181708D8375CEAD80F6CF00E0712CD5
:102A4000612C1D82C12CD12C76016BCE1E8200E040
:102A500010E06D8382E0682E712C63CE2F923F923E
:102A60004F925F926F927F928F929F92AF92BF929E
:102A7000CF92DF92EF92FF920F931F93CF93DF934A
:102A8000CDB7DEB728970FB6F894DEBF0FBECDBF27
:102A90008C016F83788786E097E00E94A007F80199
:102AA000808190E00E94CB0782E097E00E94A0071F
:102AB000F801818190E00E94CB078EEF96E00E94A2
:102AC000A007F801828190E00E94CB078BEF96E08F
:102AD0000E94A007F801228083ED96E00E94A007E3
:102AE000822C912CC4010E94CB078DEC96E00E94B1
:102AF000A00780918600909187009093DE038093D9
:102B0000DD03F0E84F2EF8E35F2E66246394712C0A
:102B100010E0C12CD12C7601FC2FFB5FFE830E94BC
:102B2000000E8130E1F1823009F441C081114EC1C3
:102B3000E2E0CC0CDD1CEE1CFF1CEA95D1F768949A
:102B4000C0F8D701C601AA27BB2789389444A1053C
:102B5000B10509F03FC11F5F133008F43BC100E02D
:102B6000B12C10E00E94000E813049F1823091F1C9
:102B7000811113C052E0CC0CDD1CEE1CFF1C5A95D9
:102B8000D1F76894C0F81E5F8FE08B1570F5FE01D9
:102B900031965F010E3F09F487C010E01BC173E05E
:102BA000CC0CDD1CEE1CFF1C7A95D1F7C8CF64E07D
:102BB000CC0CDD1CEE1CFF1C6A95D1F7C0CF43E0A6
:102BC000CC0CDD1CEE1CFF1C4A95D1F76894C0F8B4
:102BD0001D5FDACF34E0CC0CDD1CEE1CFF1C3A95F7
:102BE000D1F76894C0F81C5FCFCF1250000FD70107
:102BF000C601012E04C0B695A795979587950A94AE
:102C0000D2F78170082BB394B394123008F0BCCF84
:102C10009FE09B1508F0A6CFBACF93E0CC0CDD1C4B
:102C2000EE1CFF1C9A95D1F76894C0F81D5F31C067
:102C300084E0CC0CDD1CEE1CFF1C8A95D1F7689457
:102C4000C0F81C5F26C01250000FD701C601012E2C
:102C500004C0B695A795979587950A94D2F7817089
:102C6000082B3394339415C02FE02315B8F00E943D
:102C7000000E813091F28230D9F281118ECF22E0A4
:102C8000CC0CDD1CEE1CFF1C2A95D1F76894C0F813
:102C90001E5F123048F3FFE0F315A8F6F50101932B
:102CA0005F01FE81FA1519F000E0312CE0CF8B8135
:102CB000281273CF89EB96E00E94A007C4010E94FE
:102CC000CB0782EB96E00E94A007898190E00E94EA
:102CD000CB078FEA96E00E94A0078FEF9BE0019759
:102CE000F1F700C0000087E00E94950AF894109266
:102CF000CD03809184009091850080969093890007
:102D00008093880082E086BB1CE080E00E945E0E1B
:102D10001150D9F70E943D0E0E943D0E0E943D0EBB
:102D20008BEF0E945E0E81EA8D834FEF5FEF61E0D3
:102D300070E0CE0105960E94890EAC0161E070E062
:102D4000CE0105960E94890EAC0161E070E0CE01D3
:102D500005960E94890EAC018BEF898361E070E0DB
:102D6000CE0101960E94890E182F092FEF80F8845A
:102D70006701EEEFDE1A5701FFEFEF1AFF0AF501C8
:102D800080810E945E0E412F502F61E070E0C501EE
:102D90000E94890E182F092FEC14FD0461F7892F6A
:102DA0000E945E0E812F0E945E0E16E38EE40E944A
:102DB0005E0E1150D9F7789487E00E94A30A8AEE3C
:102DC00096E00E94A00790E080E011C010E0C12CC6
:102DD000D12C760191E0491A51086108710809F077
:102DE0009ECE83E996E00E94A00787EF9FEF28968A
:102DF0000FB6F894DEBF0FBECDBFDF91CF911F910C
:102E00000F91FF90EF90DF90CF90BF90AF909F9089
:102E10008F907F906F905F904F903F902F9008958C
:102E20000F931F93CF93DF9300D000D000D0CDB786
:102E3000DEB78C018091DF05882391F1C80196955A
:102E40008795800F911FB0E0A0E09C01AD01205359
:102E50003F4C4F4F5F4F2B833C834D835E8322E07B
:102E600030E0AE014F5F5F4F6B817C818D819E8131
:102E70000E947C0989819A8100FF10C024E0969508
:102E800087952A95E1F726960FB6F894DEBF0FBE18
:102E9000CDBFDF91CF911F910F9108959F70F3CF18
:102EA00090E080E0F0CFCF93DF93C2E0D0E0CE019E
:102EB0000E941017892B21F4CE01DF91CF91089544
:102EC0002196C1328BE0D80791F78FEF9FEFF5CFB6
:102ED000EF92FF920F931F93CF93DF9300D000D018
:102EE00000D0CDB7DEB77C018B018091DF05882350
:102EF000C9F1C701969587958E0D9F1DB0E0A0E0A2
:102F00009C01AD0120533F4C4F4F5F4F2B833C83BF
:102F10004D835E8322E030E0AE014F5F5F4F6B81F7
:102F20007C818D819E810E947C0989819A81E0FE4D
:102F300026C08F70992724E0000F111F2A95E1F712
:102F4000082B192B1A83098322E030E0AE014F5F72
:102F50005F4F6B817C818D819E810E94A70981E0FA
:102F60008093E00526960FB6F894DEBF0FBECDBF66
:102F7000DF91CF911F910F91FF90EF9008958827D7
:102F8000907F1F70DDCFCF93DF9300D000D000D0B3
:102F9000CDB7DEB78091DF05882309F44EC080915C
:102FA000E005882309F449C021E030E03E832D8309
:102FB00080ED90E3A0E0B0E089839A83AB83BC838B
:102FC00020E032E04FED53E069817A818B819C8172
:102FD0000E947C096FED73E08D819E810E948208C2
:102FE000892B59F08FEF9FEF26960FB6F894DEBF2E
:102FF0000FBECDBFDF91CF9108956FED73E08D814E
:103000009E8109960E948208009761F729813A8182
:103010004B815C813E5F4F4F5F4F29833A834B83E7
:103020005C834D815E814F5F5F4F5E834D834A308D
:10303000510531F61092E005D7CF90E080E0D4CF73
:10304000FF920F931F93CF93DF9300D000D000D057
:10305000CDB7DEB78091DF058823A1F08AEC9AE036
:103060000E94A0071E821D828D819E8126960FB62A
:10307000F894DEBF0FBECDBFDF91CF911F910F91AE
:10308000FF90089584EA9AE00E94A0076FED73E034
:1030900090E080E00E941A08892B39F08FE79AE0CF
:1030A0000E94A0078FEF9FEF73C08FE69AE00E9407
:1030B000A0078091EA039091EB030E94CB0789E679
:1030C0009AE00E94A0078091EC0390E00E94CB0759
:1030D00082E69AE00E94A0078091EF0390E00E94B0
:1030E000CB078CE59AE00E94A0078091F2039091B3
:1030F000F3030E94CB0782E59AE00E94A00780912B
:10310000F4030E94AE078FE49AE00E94A0078FE3C9
:103110009AE00E94A0078091F5039091F6030E9427
:10312000CB0789E39AE00E94A0078091F703909172
:10313000F8030E94CB0781E39AE00E94A0078091E8
:10314000F9039091FA030E94CB078AE29AE00E9469
:10315000A0078091F0039091F1030E94CB0782E2D7
:103160009AE00E94A007809105040E94AE078FE1BB
:103170009AE00E94A0078091EA039091EB038115E9
:10318000924049F089E09AE00E94A00788EF9FEF03
:103190009E838D8369CF8091EF03823049F084EF65
:1031A00099E00E94A007A8EFBFEFBE83AD835CCF7C
:1031B0008091EC03811103C080EE99E0E5CF80910E
:1031C0000504893209F066C08091060490910704D5
:1031D000A0910804B09109048093E1059093E20561
:1031E000A093E305B093E4058BE0EAE0F4E0A5EEFC
:1031F000B5E001900D928A95E1F71092F00582ED0D
:1032000099E00E94A00785EE95E00E94940786EC65
:1032100099E00E94A0078091E3059091E4050E9447
:10322000C2078091E1059091E2050E94C20783ECFC
:1032300099E00E94A0078BE899E00E94A00789E02E
:1032400090E00E94CB078CE799E00E94A00780EDF8
:1032500090E3A0E0B0E089839A83AB83BC8301E074
:1032600010E0FF24FA94F00E6FED73E0C8010E94A5
:103270001A088D839E83AD81BE81AB2B09F18CE54D
:1032800099E00E94A0078F2D90E00E94CB0789E56E
:1032900099E006CF1092E1051092E2051092E30545
:1032A0001092E4058BE0E4E1F1E0A5EEB5E00190D9
:1032B0000D928A95E1F71092F00580EA99E0B9CF76
:1032C00020E032E04FED53E069817A818B819C816F
:1032D0000E94A7090F5F1F4F89819A81AB81BC8132
:1032E0009E5FAF4FBF4F89839A83AB83BC830A3005
:1032F000110509F0B6CF81E08093DF051092E0055B
:1033000088E499E00E94A007AFCE8091DF05882372
:1033100021F00E94C3171092DF0508958091DF0508
:103320000895AF92BF92CF92DF92EF92FF920F93E8
:103330001F93CF93DF93D82EC92EB62EA72E7A01D6
:103340008091DF052EEF3FEF882391F103E110E03C
:103350006FED73E0C8010E941A08892B09F042C082
:10336000CFEDD3E088818823D1F1853E69F18B854B
:1033700083FD2AC048E050E06D2D7C2DCE010E94D7
:103380003531892B09F543E050E06B2D7A2DCE01C4
:1033900008960E9435319C01892BB1F4E114F104A7
:1033A00039F080E2FE01D70101900D928A95E1F794
:1033B000C901DF91CF911F910F91FF90EF90DF90A6
:1033C000CF90BF90AF900895A09685E0CF3DD807ED
:1033D00049F60F5F1F4F0132110509F0B9CF2DEFEC
:1033E0003FEFE6CF2FEF3FEFE3CFEF92FF920F9348
:1033F0001F93CF93DF938C01F62EE72E8091DF058C
:10340000811116C08EEF9FEFDF91CF911F910F9129
:10341000FF90EF900895253E59F023852F3041F01D
:1034200020E2AF2DBE2D01900D922A95E1F7ECCF51
:10343000F80180819181803E910510F5EC01CF70FB
:10344000DD2725E0CC0FDD1F2A95E1F734E09695C6
:1034500087953A95E1F76FED73E043960E941A085D
:10346000009789F4FE01E152FC4FD8012D913C9167
:1034700011972F5F3F4F2D933C9320812111CBCF8C
:103480008DEF9FEFC1CF8FEF9FEFBECF8F929F92B7
:10349000AF92BF92CF92DF92EF92FF920F931F9362
:1034A000CF93DF93CDB7DEB7A0970FB6F894DEBF0A
:1034B0000FBECDBF7C016B018A0186E399E00E94BB
:1034C000A0075701470188E0880E911CF501819102
:1034D0005F01803229F00E948D07A814B904B1F76A
:1034E0008EE20E948D0756014601A3E08A0E911CD0
:1034F000D5018D915D01803229F00E948D07A814BD
:10350000B904B1F782E399E00E94A007AE014F5FD2
:103510005F4FB601C7010E9491197C01892BC1F050
:103520008BE199E00E94A007C701A0960FB6F8941E
:10353000DEBF0FBECDBFDF91CF911F910F91FF90E6
:10354000EF90DF90CF90BF90AF909F908F900895B5
:10355000F8013D9686E0DF011D928A95E9F781E04A
:10356000F80180838B8D9C8D9283818394838383E8
:103570008D8D9E8DAF8DB8A185839683A783B087EF
:103580001186128613861486118A84E099E00E94BF
:10359000A0078B8D9C8D0E94CB078DEF98E00E9439
:1035A000A0078D8D9E8D0E94CB078AEF98E0BACF41
:1035B0006F927F928F929F92AF92BF92CF92DF9243
:1035C000EF92FF920F931F93CF93DF93EC013B0198
:1035D0006A018881882309F488C08989811185C09E
:1035E0008091DF0581117BC08EEF9FEF69C08D81D7
:1035F0009E8149855A8595012E193F09841B950B9B
:103600002817390708F4C9014601801A910A88155C
:10361000990508F44C01B70161527C4FA401C30124
:10362000800F911F0E944231080D191D89859A85CE
:10363000AB85BC85880D991DA11DB11D89879A8711
:10364000AB87BC87AC01BD01517066277727452B3E
:10365000462B472BA1F44D815E816F8178858417BD
:103660009507A607B70758F48B819C810E94101715
:103670009C01283F8FE0380710F53C832B830C1505
:103680001D05E8F489859A85AB85BC854D815E81F1
:103690006F81788584179507A607B70780F47C01AA
:1036A00021E0F2228B819C816FED73E04F960E94A6
:1036B0001A08892B09F49BCF01151105C1F0C80127
:1036C000DF91CF911F910F91FF90EF90DF90CF90FE
:1036D000BF90AF909F908F907F906F90089510E073
:1036E00000E0A12C82E0B82ECACF89EF7ECF8FEF09
:1036F0007CCF3F924F925F926F927F928F929F9278
:10370000AF92BF92CF92DF92EF92FF920F931F93EF
:10371000CF93DF938C012B017A01FC0180818823F8
:1037200009F490C08189882309F48CC08091DF0559
:1037300081117CC08EEF9FEF67C0F301C50111922C
:103740000197E9F740C0CC0DDD1DF8018185928518
:10375000A385B4858C0D9D1DA11DB11D8187928708
:10376000A387B487328A9170AA27BB27892B8A2B1B
:103770008B2BB1F4CE15DF0598F40E9453176C0122
:1037800097FD41C0BC01F801838194810E946817B4
:103790006FEF7FE0C6010E946817F801D482C382F0
:1037A000CE15DF0580F5F80181849284F1E09F2237
:1037B0008114910411F2F801838194816FED73E01B
:1037C0004F960E941A08C7018C1B9D0B6501C818F3
:1037D000D9088C159D0508F46C01A601B2016C0F87
:1037E0007D1FC40181529C4F0E944231F8018381A8
:1037F00094816FED73E04F960E948208892B09F443
:10380000A2CF209709F1CE01DF91CF911F910F91A7
:10381000FF90EF90DF90CF90BF90AF909F908F90F0
:103820007F906F905F904F903F900895D0E0C0E000
:103830008FED682E83E0782EA12C92E0B92E3324F0
:103840003394AECF89EF77CF8FEF75CFCF93DF93E0
:10385000EC018881882309F44EC088EE98E00E942C
:10386000A00789859A850E94CB0780EE98E00E9488
:10387000A0078989811124C08EE40E948D078AEDFA
:1038800098E00E94A0078A8981111CC08EE40E94E2
:103890008D0787ED98E00E94A0078989882351F160
:1038A0008A89882339F16FED73E08D859E850E94AA
:1038B0001A08892B49F08FEF9FEFDF91CF91089580
:1038C00089E5DBCF89E5E3CFEF85F889E152FC4F4D
:1038D00089859A85AB85BC85848F958FA68FB78F98
:1038E0006FED73E08D859E850E948208892B19F704
:1038F0000E94C317188290E080E0DFCFCF92DF9262
:10390000EF92FF920F931F93CF93DF93182F092FFE
:10391000D62EC72E8091DF05CEEFDFEF882361F032
:1039200083E1E82EF12C6FED73E0C7010E941A08C5
:10393000892B61F0CFEFDFEFCE01DF91CF911F91A7
:103940000F91FF90EF90DF90CF900895CFEDD3E0EF
:103950008881882309F441C0853E91F148E050E018
:10396000612F702FCE010E943531892B49F543E03C
:1039700050E06D2D7C2DCE0108960E943531892BAB
:10398000F9F40A8D1B8DC8010297863F9F4068F0AD
:1039900085EE88836FED73E0C7010E948208EC0119
:1039A000892B41F60E94C317C7CFC8010E94101788
:1039B0006C0170E060E0C8010E9468178601E3CFE7
:1039C000A09685E0CF3DD80719F62FEFE21AF20A4C
:1039D00081E2E816F10409F0A6CFCDEFDFEFACCF1E
:1039E0005F926F927F928F929F92AF92BF92CF928F
:1039F000DF92EF92FF920F931F93CF93DF93CDB798
:103A0000DEB7A0970FB6F894DEBF0FBECDBF882EED
:103A1000792E662E572E8A018091DF05882309F4BE
:103A20009BC0AE014F5F5F4F882D0E949119892B7B
:103A300031F4662D752D882D972D0E947E1C93E103
:103A4000A92EB12C6FED73E0C5010E941A08892BD5
:103A5000C1F08FEF9FEFA0960FB6F894DEBF0FBEB8
:103A6000CDBFDF91CF911F910F91FF90EF90DF902D
:103A7000CF90BF90AF909F908F907F906F905F900E
:103A800008958FEDE82E83E0F82E912CF7018081C8
:103A9000811108C00E9453176C0197FF17C08AEF6D
:103AA0009FEFD9CF853EB1F39394F0E2EF0EF11C76
:103AB00040E19412EBCF8FEFA81AB80A91E2A91651
:103AC000B10409F0BFCF8BEF9FEFC5CF6FEF7FE061
:103AD0000E94681780E2F701482F11924A95E9F792
:103AE00098E0E82DF72DD70101900D929A95E1F716
:103AF000D701189693E0E62DF52D01900D929A9539
:103B0000E1F7F7018387D38EC28E148E158E168E41
:103B1000178E6FED73E0C5010E948208009709F0CF
:103B200098CF21E0F8012083D282C182D482C3825F
:103B300015821682178210861186128613861486C5
:103B4000218B128AB686A586F0E29F9E90011124F1
:103B5000F801308B27877FCF8EEF9FEF7CCF4F927E
:103B60005F926F927F928F929F92AF92BF92CF920D
:103B7000DF92EF92FF920F931F93CF93DF93CDB716
:103B8000DEB7A0970FB6F894DEBF0FBECDBF782E7C
:103B9000692E562E472ED42EC52EB22EA32E8091DE
:103BA000DF05882309F480C0AE014F5F5F4F622FAD
:103BB000732F8D2D9C2D0E949119892B09F477C0AC
:103BC00083E1E82EF12C6FED73E0C7010E941A0823
:103BD000892B09F06FC00FED13E0F8018081882375
:103BE00009F45FC0853E09F44DC048E050E0672D00
:103BF000762DC8010E943531892B09F043C0480158
:103C0000F8E08F0E911C43E050E0652D742DC40147
:103C10000E943531892BB1F588E0ED2DFC2DD801BE
:103C200001900D928A95E1F783E0EB2DFA2DD401F6
:103C300001900D928A95E1F76FED73E0C7010E9444
:103C4000820821E030E0892B11F430E020E0882761
:103C50009927821B930BA0960FB6F894DEBF0FBE78
:103C6000CDBFDF91CF911F910F91FF90EF90DF902B
:103C7000CF90BF90AF909F908F907F906F905F900C
:103C80004F900895005E1F4F85E00F3D180709F023
:103C9000A4CFEFEFEE1AFE0AF1E2EF16F10409F0FD
:103CA00092CF8DEF9FEFD7CF8EEF9FEFD4CF8CEFDA
:103CB0009FEFD1CF8FEF9FEFCECF0F931F93CF9377
:103CC000DF9300D000D0CDB7DEB78091DF05882329
:103CD00099F102E010E01A821982C8010E941017BF
:103CE000892B31F429813A812F5F3F4F3A83298311
:103CF0000F5F1F4F01323BE0130779F749815A816B
:103D0000B0E0A0E09A01AD0189E0220F331F441F0B
:103D1000551F8A95D1F729833A834B835C83698148
:103D20007A818B819C810F900F900F900F90DF9183
:103D3000CF911F910F91089519821A821B821C82C4
:103D4000EECFAF92BF92CF92DF92EF92FF920F939E
:103D50001F93CF93DF9300D000D000D0CDB7DEB754
:103D60008D839E8380E092E0EFEDF3E0DF019C0124
:103D70001D9221503040E1F72BEE2093DF032CE31E
:103D80002093E00320E92093E10328E0E0E2F1E062
:103D9000A2EEB3E001900D922A95E1F79093EB0328
:103DA0008093EA0381E08093EC0381E090E09093BC
:103DB000EE038093ED0382E08093EF0380EE90E0CA
:103DC0009093F1038093F00380E49BE09093F303DE
:103DD0008093F20380EF8093F40389E090E0909366
:103DE000F6038093F50382E190E09093F8038093CB
:103DF000F70382E090E09093FA038093F90389E25D
:103E0000809305048EEE9FEFA0ECB4E68093060449
:103E100090930704A0930804B09309048D819E81B8
:103E2000892B09F4CCC08BE0ED81FE81AAE0B4E0DF
:103E300001900D928A95E1F788E0E5E3F1E0A5E1D4
:103E4000B4E001900D928A95E1F785E58093DD0558
:103E50008AEA8093DE056FED73E090E080E00E94D7
:103E60008208892B09F0AFC001E010E080ED90E3FB
:103E7000A0E0B0E089839A83AB83BC838FEDC82E2A
:103E800083E0D82EA12C92E0B92E20EFE22EFF2461
:103E9000FA94D601F5011D923197E9F7013031F41A
:103EA000E092DF03F092E003F092E1036FED73E044
:103EB000C8010E948208892B09F085C06FED73E06C
:103EC000C80109960E948208892B09F07CC020E075
:103ED00032E04FED53E069817A818B819C810E94B1
:103EE000A70989819A81AB81BC819E5FAF4FBF4F8B
:103EF00089839A83AB83BC830F5F1F4F0A30110500
:103F000041F6EFEDF3E080E092E0DF019C011D92CD
:103F100021503040E1F78D819E81892BB9F088E0F6
:103F2000ED81FE81AFEDB3E001900D928A95E1F74E
:103F3000ED81FE8180859185A2858093E703909332
:103F4000E803A093E90388E08093EA036FED73E050
:103F500083E190E00E948208892BA9F5EFEDF3E060
:103F600080E092E0DF019C011D9221503040E1F79A
:103F700084E190E09A8389836FED73E089819A816F
:103F80000E948208892BF9F4A981BA811196BA831B
:103F9000A983919789F71092DF0526960FB6F894BA
:103FA000DEBF0FBECDBFDF91CF911F910F91FF906C
:103FB000EF90DF90CF90BF90AF900C9420188BE0E3
:103FC000E9E2F1E033CF8FEF9FEF26960FB6F8943A
:103FD000DEBF0FBECDBFDF91CF911F910F91FF903C
:103FE000EF90DF90CF90BF90AF9008958F929F9207
:103FF000AF92BF92CF92DF92EF92FF920F931F93F7
:10400000CF93DF936C014B017A0148E050E060E20E
:1040100070E0C4010E944B3143E050E060E270E088
:10402000C7010E944B3156019601E90188812F5F3B
:104030003F4F81110BC0F60101900020E9F7319745
:104040008F010C191D09D0E0C0E007C08E3269F75E
:104050008E010C191D09209771F30930110514F018
:1040600008E010E06401912C812C8016910614F177
:104070002097A9F12196DE010D900020E9F7119714
:104080008701AC1BBD0BA430B10514F0A3E0B0E078
:10409000EA0EFB1E0E151F05D1F4DF91CF911F9183
:1040A0000F91FF90EF90DF90CF90BF90AF909F90D7
:1040B0008F900895F50181915F0190E00E942D316C
:1040C000F60181936F01FFEF8F1A9F0ACECF89917E
:1040D00090E00E942D31F80181938F01DBCF83E0C6
:1040E000EEE3F1E0D70101900D928A95E1F7D5CF8B
:1040F0008F93549A5C9881E08093F2058F91189584
:1041000053985B9A54985C9A0895FC011082549AD3
:104110005C988FE391E00197F1F700C0000081E126
:1041200097E24B9B18C054985C9A90E080E061E065
:1041300070E021E137E24B9918C04C9B09C0208107
:10414000AB01082E01C0440F0A94EAF7242B208308
:1041500021E137E21BC025E02A95F1F70000019725
:1041600001F754985C9A80E0089545E04A95F1F78C
:10417000000021503109F9F60E948020F4CF45E07B
:104180004A95F1F7000021503109B1F34B9BF7CF6D
:1041900001968830910569F6549A5C988FE891E011
:1041A0000197F1F700C0000081E00895FC01DB01F8
:1041B00010821C9254985C9A89EC90E04B9B16C03C
:1041C00025E02A95F1F70000019709F581E08C932D
:1041D000549A5C988FEE90E00197F1F700C00000D0
:1041E00054985C9A81E197E24B9907C090E080E097
:1041F00061E070E021E137E214C025E02A95F1F793
:104200000000019789F70E94802080E008954A9974
:10421000D5CFF9CF45E04A95F1F70000215031099B
:1042200091F34B99F7CF4C9B09C02081AB01082E2D
:1042300001C0440F0A94EAF7242B208321E137E2DE
:1042400007C045E04A95F1F7000021503109D9F245
:104250004B9BF7CF01968830910561F6549A5C9894
:1042600081E00895539A5B9854985C9AEFE3F1E0EB
:104270003197F1F700C0000021E137E24C9B45C0C7
:10428000662391F053985B9A21E137E24C9949C03B
:1042900021E137E24C9B4EC0539A5B98EFE3F1E08B
:1042A0003197F1F700C0000030E020E090E0AC0171
:1042B000022E02C0559547950A94E2F740FF43C08D
:1042C00054985C9AEFEEF0E03197F1F700C00000EF
:1042D00053985B9AEFEEF0E03197F1F700C00000E1
:1042E000539A5B982F5F3F4F2830310501F7549860
:1042F0005C9A81E197E24C9929C08FE891E001979F
:10430000F1F700C0000081E00895F5E0FA95F1F7BB
:1043100000002150310911F480E008954A99AECF90
:10432000FBCF95E09A95F1F700002150310909F093
:10433000ADCFF2CFE5E0EA95F1F700002150310969
:1043400009F0A8CFE9CF549A5C98BCCFF5E0FA9574
:10435000F1F70000019779F6DFCFEF920F931F93EB
:10436000CF93DF938093D60690E3E92E07ED16E016
:104370000E94F524EC018034910514F0C0E4D0E0F3
:10438000AE01552767ED76E083E996E00E94423161
:10439000C093D3061092D4061092D506DF91CF9128
:1043A0001F910F91EF900895CF93C82F80EB9DE060
:1043B0000E94A0078C2F90E00E94CB078DEA9DE021
:1043C0000E94A007C093F3051092F5051092F40522
:1043D0001092F2058AB1837C8AB98BB18C638BB958
:1043E000809169008C7F82608093690081E08CBB42
:1043F000E89AC9B18DE99DE00E94A0078CE4C2FD56
:1044000088E40E948D0787E99DE00E94A0078CE464
:10441000C3FD88E40E948D0780E99DE00E94A0070B
:104420008CE4C4FD88E40E948D078AE89DE00E9428
:10443000A0078CE4C5FD88E40E948D0787E89DE015
:104440000E94A007E8EFF5E08EEDDF011D928A954E
:10445000E9F720E040E062E471E089E4CF910C9458
:10446000AD21CF93DF93EC01DB01E091D406809185
:10447000D306E81730F081E08C9380E0DF91CF9194
:10448000089581E08E0F8093D406F0E0E959F94F4A
:1044900084A5888381E02091D4069091D3062917C2
:1044A00008F480E08C9381E0E9CFCF92DF92EF9225
:1044B000FF920F931F93CF93DF9300D00F92CDB74E
:1044C000DEB78091F1054D9923C0811115C081E0BF
:1044D0008093F1058FE49DE00E94A0071092F505FE
:1044E0001092F4050E9480200E94B00B0E94851952
:1044F0000E94E5240E94DE2B0F900F900F90DF9119
:10450000CF911F910F91FF90EF90DF90CF90089582
:10451000882309F45BC01092F10589E29DE00E94B6
:10452000A0070E94170B0E94BE0B892B91F087E118
:104530009DE00E94A00720E040E064E071E08AE492
:104540000E94AD2185E090E00E949A300E94B00B5D
:10455000D3CF86E09DE00E94A0070E94F80B811156
:104560000EC08DEE9CE00E94A00720E040E064E0D9
:1045700071E08AE40E94AD2186E090E0E5CF86ED0F
:104580009CE00E94A0070E942018892B79F485ECFA
:104590009CE00E94A0070E94B00B85E99CE00E946D
:1045A000A00790E080E00E949A30A6CF80EB9CE0CC
:1045B0000E94A00720E040E064E071E08AE40E94ED
:1045C000AD2186E090E00E949A30E5CF4A9B41C041
:1045D0008091F4059091F505029709F08DCFAE0119
:1045E0004F5F5F4FBE016E5F7F4F8091F6050E9467
:1045F0006328882359F10E94D92BFC0169818A81A3
:10460000309709F10680F781E02D3097E1F00995A8
:1046100081110AC08BE79CE00E94A0071092F5056B
:104620001092F4050E9480208981882309F464CFC8
:1046300083E69CE00E94A0071092F5051092F40515
:104640000E94802059CF0E943221E2CF84E49CE076
:10465000F1CF0E944C3088E39CE00E94A007549A5E
:104660005C9882E0E82EF12CCC24C394D12C4A999A
:104670000AC0CE0103960E948520811142C08DE1BF
:104680009CE00E94A0070E944E308091F40590911A
:10469000F5050297D1F485E79BE00E94A0070E94F0
:1046A000AC2B0E94D92B8C01009779F0DC011A9673
:1046B0008D919C91892B49F08DE59BE00E94A0078C
:1046C000D8011A96ED91FC9109958091F40590918D
:1046D000F505019709F010CF80E49BE00E94A00748
:1046E0008091F60590E00E94CB078DE39BE00E944D
:1046F000A00711E04A99C6C083E29BE00E94A00790
:10470000FBCE80E19CE00E94A0078B810E94AE0757
:104710008B818F3361F584E09CE00E94A00780913B
:10472000F4059091F505019709F0A1CF8091F60568
:104730008F30C1F460916406662359F0E62FF0E0F3
:10474000ED50FA4F11AA84E296E00E944A2A109294
:1047500064061092F5051092F4050E9480200E94D4
:10476000DE2B85CF8130A9F70E944928F2CF8F3503
:1047700061F48AEF9BE00E94A0078091F40590917C
:10478000F505029709F073CFE4CF182F1F71982F0A
:10479000907E9032C9F480EF9BE00E94A007812FA9
:1047A00090E00E94CB078DEE9BE00E94A0078091D5
:1047B000F30581135CCFD092F505C092F40589ED25
:1047C0009BE00E94A00753CF9034B9F481ED9BE0A9
:1047D0000E94A007812F90E00E94CB078EEC9BE007
:1047E0000E94A0078091F305811341CFF092F50557
:1047F000E092F4058CEB9BE0E4CF982F907F90360D
:1048000051F5182F1F7082EB9BE00E94A007812FAB
:1048100090E00E94CB078FEA9BE00E94A0071093D4
:10482000F6058091F4059091F5058130910529F404
:1048300010926406109265061ACF029709F017CFFE
:1048400054985C9A8FE391E00197F1F700C0000063
:10485000539A5B980CCF903E91F4182F1F7084EA06
:104860009BE00E94A007812F90E00E94CB0781EA85
:104870009BE00E94A007812F0E944928F8CE8BE977
:104880009BE09FCFBE016F5F7F4FCE0102960E94DB
:10489000D620811103C08AE09BE030CF8091F605DD
:1048A0009091F805911136C08F30A1F1E091230667
:1048B000E93248F48A8191E09E0F90932306F0E05C
:1048C000ED50FA4F86838981882309F413CFE09154
:1048D0002306F0E0ED50FA4F168289EF9AE00E942D
:1048E000A00789EF95E00E94940785EF9AE00E9467
:1048F000A0074091230669EF75E08091F6050E94BC
:1049000017251093F8058981882309F4F3CE82EEE8
:104910009AE0F4CEE09164066A81E03440F491E0DC
:104920009E0F90936406F0E0ED50FA4F61AB0E9449
:10493000312AE9CF8091F205882341F01092F205E7
:1049400089E69DE00E94A0070C94552208950F93DC
:104950001F93CF93DF93CDB7DEB7CC52D4400FB6C1
:10496000F894DEBF0FBECDBF8C019C01AE01435D4C
:104970005D4F60ED78E580E090E00E947C092CE2DC
:1049800032E0AE014F5F5F4FB801CE01835D9D4FB6
:104990000E942E308C011816190654F49C01AE01A9
:1049A0004F5F5F4F60ED7AE580E090E00E94A709DD
:1049B000C801C45DDB4F0FB6F894DEBF0FBECDBF9C
:1049C000DF91CF911F910F910895E4E1F7E083E12A
:1049D000DF011D928A95E9F710920F0720E040E071
:1049E00062E471E089E40C94AD21EF920F931F9380
:1049F0001F922F931F924F937F936F931F928F93CA
:104A000080E591E09F938F931F92EF921F930F93F6
:104A10000E945D312DB73EB7225F3F4F0FB6F8942D
:104A20003EBF0FBE2DBF1F910F91EF9008957F9253
:104A30008F929F92AF92BF92CF92DF92EF92FF92AE
:104A40000F931F93CF93DF93CDB7DEB7C356D10932
:104A50000FB6F894DEBF0FBECDBF182F7B01042F19
:104A60008AEA9EE00E94A007812F90E00E94CB0777
:104A700082EA9EE00E94A00767014701800E911C18
:104A80008C149D04E1F58EE99EE00E94A007FE01D2
:104A9000EF5AFF4F1192119287E0DF011D928A9524
:104AA000E9F76C961FAE1EAE6C976E961FAE1EAEEB
:104AB0006E97123078F40E948E19811126C086E814
:104AC0009EE00E94A00720E040E064E071E08AE4FC
:104AD0000E94AD21CD59DF4F0FB6F894DEBF0FBE57
:104AE000CDBFDF91CF911F910F91FF90EF90DF909D
:104AF000CF90BF90AF909F908F907F900895D601F8
:104B00008D916D010E948D07BBCF11111DC2013027
:104B100009F01AC2F7018081843209F015C282E7D8
:104B20009EE00E94A007098384E08A8322E030E0AF
:104B3000AE014F5F5F4F60ED76E480E090E00E9451
:104B4000A7091B821C8282E18D8382E28E83ECE6C0
:104B5000F1E0DE0117968CE791E021912D938E17FD
:104B60009F07D9F782E28F8B80E2888FEDE7F1E033
:104B700088E1919121E0280F482F50E09111B5C0B4
:104B8000E1E0F0E0EC0FFD1F4E0F5F1FDA011C9219
:104B900030E07901B2E0EB0EF11C8C5F8983C90132
:104BA0008D5F9B4F9A83AF0162ED76E480E090E0E9
:104BB0000E94A709A0961FAE1EAEA09730E2C32E9A
:104BC00042E2B42E0FE010E0BE016F5C7F4FCE01D9
:104BD000825A9F4F0E94F519AC01892B31F468EF7E
:104BE000E6166FE0F60608F48BC00E945D1EA496E0
:104BF0006CAF7DAF8EAF9FAFA497BB27A92F982F27
:104C0000872F19821A828B839C83A4E8B1E084E009
:104C10009D9161E0680F282F30E091118BC18824AD
:104C20008394912C8C0E9D1E280D391DD9011C9248
:104C3000F401E60FF11D1082E2E0E80F882483946E
:104C4000912C8C0E9D1E8E0E911CF40110828D5F96
:104C5000082F10E0B0E0A0E09701AD012053394BE0
:104C60004F4F5F4FA4962CAF3DAF4EAF5FAFA497B1
:104C70009801AE014F5F5F4FA4966CAD7DAD8EADD8
:104C80009FADA4970E94A7090E0D1F1D1093130737
:104C900000931207109211071092100711E0109361
:104CA0000F0783E69EE00E94A00780911207909173
:104CB00013070E94CB0780E69EE00E94A007109297
:104CC0000E0710920D0710920C0710920B0710920E
:104CD0000A0710920907109308071092070720E0AF
:104CE00040E061E971E080E0F3CE88248394912C68
:104CF0008C0E9D1E480D591DDA019C93822F39CFD1
:104D00006CAD63FD61CF61968CAD9DADAEADBFADB9
:104D1000619781509F4FAF4FBF4F892F9A2FAB2F75
:104D2000BB279C0119821A82009711F481E090E060
:104D30009C838B832A30310508F03EC0CD82A5E0EC
:104D4000E1E0EA0F88248394912C8C0E9D1E8A0E3C
:104D5000911CD401CC9291E09E0FA1E0B0E0AC0F89
:104D6000BD1FAE0FB11DFD01C08281E0890FE1E0E2
:104D7000F0E0EC0FFD1FE90FF11DB08228E030E0FC
:104D8000722F732E21503109E1E3F0E0EC0FFD1F8B
:104D9000E20FF31FE081E032D1F0FE01F1969E5F59
:104DA000970F282FAA24A394A20E30E09A11A5C031
:104DB000870F272F372D0EC02436310510F4A4E0BD
:104DC000BFCF94E0283E334080F6E4E0C4CF211505
:104DD0003105B1F699AD7BAD703209F09AC07AAD6C
:104DE000703209F099C0903221F141E050E091E039
:104DF000980F7EE2E1E0F0E0EC0FFD1FE80FF11DFF
:104E00007083DE01D996792F740FDD90E92F9F5FB3
:104E100088248394912C8C0E9D1E8E0E911CF4017F
:104E2000D0829713F2CF840F8F5FFA0131962E0F45
:104E30003F1F91E0980FE1E0F0E0EC0FFD1FE80F5D
:104E4000F11DB08271E1780F721BE92F9F5FA1E025
:104E5000B0E0AC0FBD1FAE0FB11DFD01C0829713B6
:104E6000F4CF8E5FF801E21BF30BD82EDE0EE4E6E2
:104E7000F1E064FD11C04330510561F443E050E0BE
:104E800068E671E0CE01C9960E943531E8E6F1E0AE
:104E9000892B11F0EEE3F1E0319121E02D0D8D2D04
:104EA00090E031113CC0E1E0F0E0EC0FFD1F8E0F0F
:104EB0009F1FDC011C9230E049018E0C9F1CC40135
:104EC0008F5F9B4F9A838983B0E0A0E0A701BD016B
:104ED0004053594B6F4F7F4FA4964CAF5DAF6EAFB1
:104EE0007FAFA497AF01A4966CAD7DAD8EAD9FADA5
:104EF000A4970E94A709740167CED1908824839457
:104F0000912C8C0E9D1E280D391DD901DC922A2D65
:104F100049CF43E050E06BCF42E050E068CF8824B7
:104F20008394912C8C0E9D1E880D991DDC013C9361
:104F3000D22EB2CFE1E0F0E0EC0FFD1F2E0F3F1FAD
:104F4000F9019083862F64CEAE01465A5F4FBE01B1
:104F50006F5A7F4FC7010E94F61F80E59EE00E94B6
:104F6000A007AE014F5A5F4F7A016A0158E0C50EA3
:104F7000D11CD7018D917D010E948D07CE14DF04D5
:104F8000C1F78CE49EE00E94A0076B968FAD6B97F3
:104F90000E948D076C968FAD6C970E948D076D9661
:104FA0008FAD6D970E948D0788E49EE00E94A00758
:104FB000111126C08BE39EE00E94A00744E157E058
:104FC000BE01665A7F4FCE018F5A9F4F0E94461AEC
:104FD0008C01892B09F440C085E29EE00E94A00765
:104FE00088279927801B910B0E94CB0782E29EE0C5
:104FF0000E94A00720E040E064E971E08EE368CD04
:1050000085E19EE00E94A00744E157E0BE01665A98
:105010007F4FCE018F5A9F4F0E94F01C8C01892B2D
:10502000D9F088EF9DE00E94A00788279927801B70
:10503000910B0E94CB0785EF9DE00E94A00720E026
:1050400040E063EA71E088E40A3F1F4F09F440CD75
:105050006DEA71E089E13CCD10920E0710920D07C8
:1050600010920C0710920B0710920A071092090772
:1050700081E0809308071092070720E040E061E993
:1050800071E080E00E94AD2185EE9DE00E94A007C6
:1050900021CDCF93C82F85ED9DE00E94A0078C2FD6
:1050A00090E00E94CB0782ED9DE00E94A0078091D6
:1050B0001407882321F084E197E00E94261C1092B7
:1050C0000F07CF910895BF92CF92DF92EF92FF9298
:1050D0000F931F93CF93DF9300D000D000D0CDB7B4
:1050E000DEB7082F6B017A01FA0110820E940830A6
:1050F000182F882309F44CC10F3009F44BC1F70174
:1051000010828091090790910A0720910B07309136
:105110000C078217930740F5B0E0A0E09C01AD01B9
:105120002053354A4F4F5F4FCA01B9010E94D10940
:10513000F60180838091090790910A070196909368
:105140000A078093090720910B0730910C078217FB
:10515000930708F446C080910707882309F441C0EB
:1051600081E0F70180833DC0B0900707BB2029F0A4
:1051700081E0F701808310E034C00091080701113D
:1051800081C01A82198222E030E0AE014F5F5F4F8A
:1051900060ED7AE580E090E00E94A70982E090E06F
:1051A00090930C0780930B0710920A07109209073F
:1051B00001E00093070760ED7AE580E090E00E944F
:1051C000D109F601808381E090E090930A078093F3
:1051D000090780910B0790910C07029710F4F701D3
:1051E0000083812F26960FB6F894DEBF0FBECDBF89
:1051F000DF91CF911F910F91FF90EF90DF90CF90B3
:10520000BF900895B0E0A0E09C01AD012053394B60
:105210004F4F5F4F2B833C834D835E8321E030E013
:10522000AE014F5F5F4F6B817C818D819E810E94BB
:105230007C098091100790911107019690931107B6
:105240008093100780910D0790910E07B0E0A0E0C9
:105250009C01AD012053374A4F4F5F4F2B833C8356
:105260004D835E8349816B817C818D819E810E940B
:10527000EA0980910D0790910E07019690930E0711
:1052800080930D0780910D0790910E078115924034
:1052900088F480910F078823C1F1809110079091C5
:1052A000110720911207309113078217930708F412
:1052B000A9CFB02E80910D0790910E070097B1F104
:1052C0000E94A724181619060CF052CF90930C07D1
:1052D00080930B0710920A071092090710920E078D
:1052E00010920D07B1101092080760ED7AE580E08A
:1052F00090E00E94D109F601808381E090E09093D4
:105300000A0780930907102F6CCF80911407882318
:1053100081F241E050E0BE016F5F7F4F84E197E092
:105320000E94D81A019709F48DCFC3CF1A8219822F
:1053300022E030E0AE014F5F5F4F60ED7AE580E044
:1053400090E00E94A70982E090E090930C07809380
:105350000B0710920A07109209071092080781E0C4
:105360008093070760ED7AE580E090E00E94D10924
:10537000F601808381E090E090930A07809309070B
:1053800080910B0790910C07029708F02ACFE8CE86
:105390000F3031F4B701C6010E943122182F21CFFE
:1053A0000111E6CE10910F07112381F180911007B2
:1053B00090911107B0E0A0E09C01AD012053394B62
:1053C0004F4F5F4F2B833C834D835E8321E030E062
:1053D000A6016B817C818D819E810E947C098091D8
:1053E0001007909111070196909311078093100771
:1053F00020911207309113078217930708F4F1CE1A
:1054000081E0F701808310920F07EBCE1091140713
:10541000112309F4ADCE41E050E0BE016F5F7F4F34
:1054200084E197E00E94D81A019709F0A1CE898102
:10543000F601808340911D0750911E0760911F0760
:10544000709120078091190790911A07A0911B076E
:10545000B0911C07481759076A077B0708F4C1CEAB
:105460007FCECF93DF930F92CDB7DEB769838130C4
:1054700069F480911407882349F041E050E0BE01AF
:105480006F5F7F4F84E197E00E94791B0F90DF915F
:10549000CF910895AF92BF92CF92DF92EF92FF9299
:1054A0000F931F93CF93DF93CDB7DEB7C754D109C6
:1054B0000FB6F894DEBF0FBECDBF6C01162F66236A
:1054C00009F49AC085EC9DE00E94A0077601560180
:1054D000A10EB11CEA14FB0409F04AC081EC9DE066
:1054E0000E94A007012F1A3208F009E2E02EF12CE9
:1054F000A701B601CE0101960E94423181E090E001
:105500008C0F9D1FE80EF91EF70110826C01F60149
:1055100081916F0190E00E942D31F60131978083D7
:10552000EC14FD04A1F7602FCE0101960E94282DF6
:10553000811162C0602FCE0101960E949B2D8111C6
:105540005BC0602FCE0101960E94DF2F882309F1F6
:1055500068E070E0CE018B960E940B301816190699
:105560006CF420E040E0BE01655D7F4F80E042C00A
:10557000F70181917F010E948D07ACCF0E94083016
:1055800020E040E069EB71E08111F0CF61E971E06A
:10559000EDCF8981823509F441C064F4893409F47E
:1055A000B7C08E3409F47EC020E040E068ED71E0C1
:1055B0008EE120C08335C1F71330B0F38A818A337E
:1055C00099F7AE01495C5F4FBE01655D7F4FCE012B
:1055D00003960E94F61FBE01695C7F4FCE018B9639
:1055E0000E947E1C20E0892B09F051C041E068EC4C
:1055F00071E081E00E94AD21C95BDF4F0FB6F894E6
:10560000DEBF0FBECDBFDF91CF911F910F91FF90F5
:10561000EF90DF90CF90BF90AF900895133060F37C
:105620008A818A3349F76DE370E0CE0103960E94C8
:105630005231009709F4B8CFFC0111928F01AE01ED
:105640004C5B5F4FBE01695C7F4FCE0103960E94A9
:10565000F61FAE01405C5F4FBE01655D7F4FC80124
:105660000E94F61F9E012C5B3F4FAE01495C5F4FCD
:10567000BE01605C7F4FCE018B960E94AF1D0097EC
:1056800019F420E040E082CF039631F420E040E0BE
:1056900064E971E08EE3AECF20E040E065EE71E0BA
:1056A0008FE3A8CF133058F18A818A3341F54BE05C
:1056B00050E060E270E0CE018B960E944B311EAA52
:1056C000BE016D5F7F4FFB0101900020E9F7AF0144
:1056D00041505109461B570B4C30510514F04BE01B
:1056E00050E0CE018B960E944231CE018B960E94F3
:1056F000A11E892B39F461E971E080E006C090E0D9
:1057000080E0F5CF6DEA71E089E120E040E072CF02
:105710000E9485190E942018892B69F364E071E0CA
:105720008AE4F3CF109229071092280710922707D6
:1057300008959C01892B79F0E0912907E43058F411
:1057400081E08E0F80932907F0E0EE0FFF1FE65DEA
:10575000F84F3183208308951F93CF93DF9310E098
:1057600080912907181738F0109228071092270700
:1057700090E080E018C0C12FD0E0CC0FDD1FC65DE7
:10578000D84FE881F9810480F581E02D309779F0D8
:105790000995882361F0E881F981F0932807E09367
:1057A000270780819181DF91CF911F9108951F5F1D
:1057B000D7CF809127079091280708951092280746
:1057C000109227070895CF93DF93FC01DB0110822D
:1057D0001C9254985C9A89EC90E04B9B17C04C9BB0
:1057E00015C025E02A95F1F70000019709F04AC09D
:1057F00081E08C93549A5C9885E48A95F1F70000D7
:1058000054985C9A81E197E24B9930C090E080E037
:1058100029B139B123FB222720F9C22FB0E0DB2FB9
:10582000BE01082E01C0660F0A94EAF72081262BDC
:1058300034FB442740F950E0BC016F5F7F4FDA0131
:1058400002C0AA0FBB1F6A95E2F72A2B2083B5E49A
:10585000BA95F1F70000029688309105C9F6549A7E
:105860005C9820EA2A95F1F781E009C04C9BCECFE5
:10587000A5E0AA95F1F70000019731F680E0DF91ED
:10588000CF9108954A99A9CFF9CF539A5B988FE3A6
:1058900091E00197F1F700C0000008954C9B15C0FE
:1058A00080E012C085E08A95F1F700002F5F3F4F3E
:1058B000233781E03807A1F34C9BF4CF285C3109F2
:1058C00081E02937310560F7089530E020E0F4CF1A
:1058D000662331F0EFE1F3E03197F1F700C000000B
:1058E00021E137E24C9B33C030E020E090E0A90199
:1058F0004F5F5F4FBC0102C0759567954A95E2F70F
:10590000AB014170BC01022E02C0759567950A94E7
:10591000E2F760FF25C053985B9A442321F1549825
:105920005C9A75E47A95F1F700002E5F3F4F2830BE
:105930003105E9F653985B9A54985C9A81E197E2B5
:105940004C9914C0F0EAFA95F1F781E00895F5E07A
:10595000FA95F1F700002150310921F680E0089511
:10596000539A5B98DACF549A5C98DBCFE5E0EA95DE
:10597000F1F70000019721F7F1CF8FE092E00C944E
:10598000992B809132078111109232070895089562
:1059900030E020E090E0AC01022E02C05595479522
:1059A0000A94E2F740FF1BC054985C9A45E14A957F
:1059B000F1F7000053985B9A4AE24A95F1F700C06C
:1059C000539A5B982F5F3F4F2830310521F7549849
:1059D0005C9A8AE68A95F1F700C081E00895549AAE
:1059E0005C98E4CFFC011082DB011C9290E080E027
:1059F00061E070E021E137E207C0B5E0BA95F1F768
:105A0000000021503109F1F04B9BF7CF4C9B09C0AE
:105A10002081AB01082E01C0440F0A94EAF7242B21
:105A2000208321E137E24B9906C001968830910529
:105A300009F781E0089545E04A95F1F7000021500B
:105A4000310989F780E008958BE192E00C94992B5D
:105A5000FC01623050F08081853539F481818033DA
:105A600021F481E080933207089580E008958091C9
:105A70003407811110923407089580E00895089545
:105A800021E137E24B993AC0549A5C986AE66A95EC
:105A9000F1F700C030E020E090E0A9014F5F5F4FD8
:105AA000BC0102C0759567954A95E2F7AB0141705C
:105AB000BC01022E02C0759567950A94E2F760FF5B
:105AC00029C053985B9A442341F154985C9A7AE434
:105AD0007A95F1F700C02E5F3F4F28303105E9F687
