:100000000C9453060C9470060C9470060C947006B5
:100010000C9470060C9470060C9470060C94700688
:100020000C9470060C9470060C94670C0C9470067B
:100030000C9470060C9470060C9470060C94700668
:100040000C9470060C9470060C9470060C94700658
:100050000C9470060C9470060C9470060C94700648
:100060000C9470060C94700652656164792E0D0A2A
:10007000004D6F756E74206661696C65640D0A00D1
:100080004641543132204F4B0D0A004D6F756E744E
:100090002046415431322E2E2E0D0A004E6F206420
:1000A00069736B20696E2064726976650D0A00447D
:1000B00072697665204F4B0D0A004E6F206472699D
:1000C0007665210D0A00466C6F70707920696E6943
:1000D000742E2E2E0D0A00436F6D7072657373209F
:1000E0004F4B0D0A00466173746C6F6164204F4B77
:1000F0000D0A00494543206465766963652023380D
:100100000D0A0037344843353935204F4B0D0A006E
:100110005352414D204F4B0D0A000D0A3D3D3D20ED
:1001200036346B6F727070752076312E3020284E09
:10013000616E6F2B5352414D29203D3D3D0D0A000C
:100140000D0A0020455252005B4449534B5D207715
:10015000726974652072633D000D0A0020523D00F3
:1001600020533D0020543D005B4449534B5D2077B4
:1001700072697465204C42413D000D0A00204552D1
:1001800052005B4449534B5D207265616420726389
:100190003D000D0A0020523D0020533D0020543DFB
:1001A000005B4449534B5D2072656164204C4241C1
:1001B0003D003031323334353637383941424344EB
:1001C000454600204641494C210D0A00204F4B0D69
:1001D0000A002072656164203078005B5352414D03
:1001E0005D20746573743A2077726F74652030787F
:1001F000005B5352414D5D20696E69742053504934
:100200002E2E2E0D0A000D0A005B53525D206465F0
:100210006661756C743D3078005B53525D20696E89
:1002200069740D0A005B464C505D207772697465F5
:10023000204F4B0D0A005B464C505D204D464D2033
:100240007772697465204641494C0D0A005B464C43
:10025000505D204D464D2077726974652E2E2E0D0F
:100260000A005B464C505D2077726974653A2073D2
:1002700065656B206661696C65640D0A005B464CC0
:10028000505D207772697465204552523A2077722A
:100290006974652070726F746563746564210D0AFA
:1002A000005B464C505D2077726974652045525260
:1002B0003A2062616420736563746F720D0A000DE9
:1002C0000A0020523D0020533D005B464C505D200B
:1002D000777269746520543D000D0A005B464C50EE
:1002E0005D2072656164204F4B2C206669727374C7
:1002F0002062797465733A20005B464C505D204D56
:10030000464D206465636F6465204641494C0D0A83
:10031000002E2E2E0D0A005B464C505D204D464DA2
:10032000206465636F646520523D005B464C505D00
:10033000204D464D2063617074757265204F4B0DE2
:100340000A000D0A005B464C505D204D464D20636F
:10035000617074757265204641494C2072633D009E
:100360005B464C505D204D464D2063617074757244
:10037000652E2E2E0D0A005B464C505D2072656185
:10038000643A207365656B206661696C65640D0A6B
:10039000000D0A005B464C505D2057503D005B4607
:1003A0004C505D2072656164204552523A20626172
:1003B0006420736563746F720D0A000D0A00205289
:1003C0003D0020533D005B464C505D2072656164EA
:1003D00020543D000D0A005B464C505D207369645B
:1003E000653D000D0A002D3E54005B464C505D20DB
:1003F0007365656B2054005B464C505D20736565EA
:100400006B3A206E6F7420696E697469616C697AE9
:1004100065642C20726563616C6962726174696ED7
:10042000670D0A000D0A00203E3D20005B464C503F
:100430005D207365656B204552523A20747261638A
:100440006B2000202D3E206469736B204E4F54209A
:1004500050524553454E540D0A00202D3E206469EC
:10046000736B2050524553454E540D0A002057508F
:10047000543D005B464C505D206469736B2063689B
:1004800065636B3A2044534B4348473D005B464C01
:10049000505D204552523A2054524B3030206E6FFE
:1004A0007420666F756E64206166746572203835DD
:1004B000207374657073210D0A0020737465707366
:1004C0000D0A005B464C505D2054524B3030206684
:1004D0006F756E6420616674657220005B464C50D7
:1004E0005D20726563616C6962726174653A207344
:1004F00065656B696E6720747261636B20302E2EA8
:100500002E0D0A005B464C505D206D6F746F72209B
:100510004F46460D0A005B464C505D206D6F746F70
:1005200072204F4E20646F6E650D0A005B464C5082
:100530005D206D6F746F72204F4E2C207370696E4A
:100540002D75702E2E2E0D0A000D0A005B464C50A4
:100550005D20696E697420646F6E652C2053523D76
:100560003078000D0A002044534B4348473D00209B
:100570005750543D005B464C505D20696E70757459
:10058000733A2054524B30303D005B464C505D2056
:10059000696E6974204750494F2E2E2E0D0A002097
:1005A0006E6F7420666F756E640D0A005B4D464D6C
:1005B0005D206465636F6465204641494C3A207351
:1005C0006563746F7220000D0A00204D415443484A
:1005D000210D0A00204E3D0020523D0020533D00D9
:1005E0005B4D464D5D204944414D3A20543D005BF2
:1005F0004D464D5D206465636F6465204F4B2C2034
:100600003531322062797465730D0A0020706163A0
:100610006B730D0A002C207363616E20005B4D46E6
:100620004D5D206465636F646520736563746F72EC
:1006300020005B4D464D5D206361707475726520CE
:1006400054494D454F5554210D0A006D730D0A0054
:10065000207061636B732C20005B4D464D5D206301
:100660006170747572653A20005B4D464D5D206384
:100670006170747572652073746172740D0A000D77
:100680000A00206D6F643D002077726974653D003B
:100690005B4641545D20636C6F73653A20706F73E5
:1006A0003D000D0A002073697A653D005B464154A8
:1006B0005D206F70656E65643A20636C7573746558
:1006C000723D005B4641545D2066696C65206E6F2B
:1006D0007420666F756E640D0A00270D0A005B4674
:1006E00041545D206F70656E5F7265616420270004
:1006F0005B4641545D206D6F756E74204F4B0D0A43
:10070000000D0A005B4641545D2046415431207281
:10071000656164204641494C2061742073656374AF
:100720006F72200020736563746F7273292E2E2EF2
:100730000D0A005B4641545D2072656164696E6715
:1007400020464154312028005B4641545D206E6FA5
:1007500020626F6F74207369672C20646566617511
:100760006C74206C6162656C0D0A000D0A00272014
:1007700073657269616C3D3078005B4641545D2061
:100780006C6162656C3D27005B4641545D204552BB
:10079000523A207370633D3D300D0A005B46415470
:1007A0005D204552523A206E666174213D320D0A39
:1007B000005B4641545D204552523A2062707321DD
:1007C0003D3531320D0A000D0A00207369673D3056
:1007D000780020726F6F743D002068656164733D1E
:1007E00000207370743D005B4641545D20425042CE
:1007F0003A207370663D000D0A00206D65646961E2
:100800003D30780020746F743D00206E6661743D49
:1008100000207370633D005B4641545D20425042AE
:100820003A206270733D005B4641545D206D6F75E8
:100830006E743A20626F6F7420736563746F7220F8
:1008400072656164204641494C0D0A005B46415483
:100850005D206D6F756E743A2072656164696E67B4
:1008600020626F6F7420736563746F722E2E2E0D6D
:100870000A005B4641545D20616C726561647920B9
:100880006D6F756E7465640D0A005B4945435D20AC
:100890006C697374656E20454F490D0A00270D0A77
:1008A000005B4945435D2066696C656E616D653D21
:1008B00027005B4945435D206C697374656E207247
:1008C000656376206661696C0D0A005B4945435D8E
:1008D0002041544E20647572696E67206C69737490
:1008E000656E0D0A000D0A005B4945435D206C6989
:1008F0007374656E696E6720666F722064617461DF
:100900002053413D005B4945435D20666173746C33
:100910006F6164206163746976650D0A005B494507
:10092000435D2041544E2072656C65617365642C93
:100930002064657465637420666173746C6F6164B0
:100940000D0A00203F3F0D0A000D0A0020434C4FC6
:1009500053452053413D000D0A00204F50454E2085
:1009600053413D005B4945435D202D3E2054414CA1
:100970004B45520D0A000D0A002054414C4B2023D8
:10098000005B4945435D202D3E204C495354454E64
:1009900045520D0A000D0A00204C495354454E2083
:1009A000230020554E54414C4B0D0A0020554E4C0F
:1009B000495354454E0D0A005B4945435D20636D24
:1009C000643D3078005B4945435D2041544E2062D0
:1009D0007974652072656376206661696C0D0A0022
:1009E0005B4945435D2041544E0D0A005B49454338
:1009F0005D2074616C6B3A206E6F20646174612CB1
:100A00002072656C656173650D0A005B4945435D45
:100A10002074616C6B3A20454F492C20646F6E65E1
:100A20000D0A005B4945435D2074616C6B3A20738D
:100A3000656E64206661696C65640D0A005B4945FA
:100A4000435D207265696E697420646F6E652C2049
:100A500072656164790D0A005B4945435D206D6FE5
:100A6000756E74206661696C65640D0A005B4945AA
:100A7000435D204641543132204F4B0D0A005B4903
:100A800045435D206D6F756E742046415431322EA2
:100A90002E2E0D0A005B4945435D207265696E6923
:100AA0007420646F6E6520286E6F206469736B29F3
:100AB0000D0A005B4945435D206E6F206469736BCE
:100AC00020696E2064726976650D0A005B494543B2
:100AD0005D206472697665204F4B0D0A005B4945C5
:100AE000435D207265696E697420646F6E652028AD
:100AF0006E6F206472697665290D0A005B49454373
:100B00005D206E6F206472697665210D0A005B4975
:100B100045435D2072657365742072656C65617311
:100B200065642C207265696E697420666C6F7070E4
:100B3000790D0A005B4945435D2077616974696EF0
:100B40006720666F722072657365742072656C65CC
:100B50006173652E2E2E0D0A005B4945435D202AE8
:100B60002A2A20425553205245534554202A2A2AE6
:100B70000D0A000D0A00205253543D0020444154F8
:100B8000413D0020434C4B3D005B4945435D2062A5
:100B900075733A2041544E3D000D0A005B494543B0
:100BA0005D20696E697420646576202300270D0A34
:100BB000005B444F535D20636D643A2027000D0AAB
:100BC000005B444F535D20636C6F73652053413D60
:100BD000005B444F535D206F70656E204F4B0D0AD4
:100BE000000D0A005B444F535D205341564520637E
:100BF0007265617465206661696C65642072633D2D
:100C0000005B444F535D20534156450D0A000D0AC9
:100C1000005B444F535D204C4F4144206661696C3A
:100C200065642072633D005B444F535D204C4F412F
:100C3000440D0A00270D0A00272E27005B444F535E
:100C40005D207061727365643A2027000D0A005BB5
:100C5000444F535D20646972206C656E3D005B44B7
:100C60004F535D20646972206C697374696E670DFF
:100C70000A005B444F535D204452495645204E4F75
:100C8000542052454144590D0A00270D0A002066A0
:100C9000696C653D27005B444F535D206F70656E46
:100CA0002053413D000011241FBECFEFD8E0DEBF2E
:100CB000CDBF12E0A0E0B1E0E2EDF7E502C00590A3
:100CC0000D92A033B107D9F725E0A0E3B2E001C04F
:100CD0001D92A539B207E1F70E94E0070C94E02BC2
:100CE0000C9400001092C5008FEC8093C400E0ECDF
:100CF000F0E080818260808388E08093C10086E09C
:100D00008093C20008959091C00095FFFCCF80931E
:100D1000C6000895CF93DF93EC018991811103C040
:100D2000DF91CF9108950E948306F7CFCF93DF9391
:100D3000EC01FE0184912196811103C0DF91CF91D6
:100D400008950E948306F5CFCF93C82FE82FE29530
:100D5000EF70F0E0EE54FE4F84910E948306CF7056
:100D6000EC2FF0E0EE54FE4F8491CF910C9483066B
:100D7000CF93C82F892F0E94A4068C2FCF910C945B
:100D8000A406CF92DF92EF92FF920F931F93CF931F
:100D9000DF9300D000D000D0CDB7DEB79C01892B07
:100DA00089F480E326960FB6F894DEBF0FBECDBF60
:100DB000DF91CF911F910F91FF90EF90DF90CF9037
:100DC0000C948306CE0101967C01FC0110E000E04A
:100DD0008AE0C82ED12C0F5F1F4FC901B6010E94B7
:100DE0008528805D8193C9019B010A97A0F70E0DAC
:100DF0001F1DF80182918F010E9483060E151F05A9
:100E0000C1F726960FB6F894DEBF0FBECDBFDF91B7
:100E1000CF911F910F91FF90EF90DF90CF900895A9
:100E2000BF92CF92DF92EF92FF920F931F93CF93D7
:100E3000DF93182FD92FF62E072F64E270E00E945F
:100E400085286B0162E170E00E948528E62EB72EAE
:100E5000C1E0C80F81EA91E00E949606812F9D2F84
:100E60000E94C1068DE991E00E949606C60199276D
:100E70000E94C10689E991E00E9496068E2D9B2D65
:100E80000E94C10685E991E00E9496068C2F90E0B1
:100E90000E94C10682E991E00E9496062F2D302F14
:100EA0004C2F6E2D8C2D0E941E0BEC0182E891E0E0
:100EB0000E949606CE01D7FF04C0882799278C1B75
:100EC0009D0B0E94C106D7FF04C08DE791E00E94F0
:100ED00096068AE791E00E949606CE01DF91CF91B7
:100EE0001F910F91FF90EF90DF90CF90BF900895EA
:100EF000BF92CF92DF92EF92FF920F931F93CF9307
:100F0000DF93182FD92FF62E072F64E270E00E948E
:100F100085286B0162E170E00E948528E62EB72EDD
:100F2000C1E0C80F88E691E00E949606812F9D2FB0
:100F30000E94C10684E691E00E949606C6019927A8
:100F40000E94C10680E691E00E9496068E2D9B2DA0
:100F50000E94C1068CE591E00E9496068C2F90E0DD
:100F60000E94C10689E591E00E9496062F2D302F40
:100F70004C2F6E2D8C2D0E94D60BEC0188E491E055
:100F80000E949606CE01D7FF04C0882799278C1BA4
:100F90009D0B0E94C106D7FF04C083E491E00E942C
:100FA000960680E491E00E949606CE01DF91CF91F3
:100FB0001F910F91FF90EF90DF90CF90BF90089519
:100FC000F8940E9472068AE191E00E9496060E94BF
:100FD00034280E94FC0880E191E00E9496060E945D
:100FE000700983E091E00E9496060E94580C83EFFE
:100FF00090E00E94960688E00E9484190E94851C59
:101000000E9432230E945D240E94C4240E9437253E
:1010100085EE90E00E9496060E947A2787ED90E088
:101020000E94960678940E94BF0986EC90E00E9488
:1010300096060E94090A0E94370A892B81F08AEBE2
:1010400090E00E94960620E040E061E071E08AE4D2
:101050000E945D1985E090E00E943A2822C08FEA44
:1010600090E00E9496060E946A0A81110EC08CE9E7
:1010700090E00E94960620E040E061E071E08AE4A2
:101080000E945D1986E090E0E7CF8BE890E00E9437
:1010900096060E94D80F892B89F480E890E00E9480
:1010A00096060E94290A88E690E00E94960690E043
:1010B00080E00E943A280E94FA19FDCF81E790E073
:1010C000D8CF8EBD0DB407FEFDCF8EB50895CF935A
:1010D000C62F872F0E9461088C2FCF910C94610836
:1010E000CF92DF92EF92FF920F931F93CF93DF93F4
:1010F0006B01D82FC92F7A0189012A9883E00E94B9
:101100006108B6018D2F9C2F0E946708E7010E0D24
:101110001F1DC017D10751F42A9ADF91CF911F915B
:101120000F91FF90EF90DF90CF90089580E00E94A4
:1011300061088993EECFCF92DF92EF92FF920F93E7
:101140001F93CF93DF936B01D82FC92F7A018901A9
:101150002A9882E00E946108B6018D2F9C2F0E9480
:101160006708E7010E0D1F1DC017D10751F42A9A19
:10117000DF91CF911F910F91FF90EF90DF90CF9073
:10118000089589910E946108EFCF0F931F93CF9329
:10119000DF938B01D82FC92F2A9883E00E94610822
:1011A000B8018D2F9C2F0E94670880E00E94610883
:1011B0002A9ADF91CF911F910F910895FF920F937B
:1011C0001F93CF93DF93F62E072F182FD92FC42FFD
:1011D0002A9882E00E9461086F2D702F812F9D2F29
:1011E0000E9467088C2F0E9461082A9ADF91CF9194
:1011F0001F910F91FF900895CF9381EF91E00E948E
:10120000960684B18C6284B924982A9A80E58CBDB4
:101210008DB581608DBD2A9881E00E94610880E4CF
:101220000E9461082A9A45EA60E070E0CB010E94C2
:10123000DE0860E070E0CB010E94C508C82F8BED8E
:1012400091E00E94960685EA0E94A40682ED91E054
:101250000E9496068C2F0E94A4068CEC91E0C53A61
:1012600011F083EC91E0CF910C9496060F931F93AD
:10127000CF93DF938B01D82FC92F2A9882E00E9449
:101280006108B8018D2F9C2FDF91CF911F910F9195
:101290000C9467082A9A08950F931F93CF93DF93B6
:1012A0008B01D82FC92F2A9883E00E946108B801CA
:1012B0008D2F9C2FDF91CF911F910F910C94670878
:1012C0001EBC0DB407FEFDCF8EB508952A9A8093FB
:1012D00000018EBD0DB407FEFDCF5E9A5E980895A5
:1012E00089E192E00E949606569A5E988FEF80936D
:1012F00000010E94660989E092E00E9496068091B2
:1013000000010E94A40686E092E00C94960621E07B
:1013100030E001C0220F8A95EAF720958091000104
:101320008223809300010C94660921E030E001C023
:10133000220F8A95EAF780910001822B80930001A9
:101340000C9466098823B9F085E00E94870985E33B
:101350008A95F1F7000086E00E94870990E19A954E
:10136000F1F786E00E9495098FED9EE20197F1F773
:1013700000C00000089585E00E949509E8CFCF9352
:101380008AE895E00E94960687B1887F87B988B180
:10139000876088B92098579A5F9A219A85EF0E94B2
:1013A0006609C6B185E795E00E9496068CE4C0FD0B
:1013B00088E40E9483068FE695E00E9496068CE4FE
:1013C000C1FD88E40E94830686E695E00E949606A9
:1013D0008CE4C2FD88E40E94830683E695E00E94C7
:1013E0009606109230021092310210923202109240
:1013F000330210923402109235028CE495E00E9480
:10140000960685EF0E94A40689E495E0CF910C949E
:1014100096068091320281111BC08CE295E00E94F9
:10142000960682E00E94870984E00E9487092FEFD8
:1014300089E698E1215080409040E1F700C000002B
:1014400081E080933202299A86E195E00C94960619
:10145000089584E095E00E94960682E00E94950936
:1014600084E00E9495091092320229980895CF9342
:10147000DF938CED94E00E949606D0E0C0E03099B6
:101480001BC01092300281E0809335028FE59AEE06
:101490000197F1F700C0000083EC94E00E949606EB
:1014A000CE010E94C1068AEB94E00E94960690E06D
:1014B00080E0DF91CF91089580E00E94A2092196FB
:1014C000C535D105E1F68DE894E00E9496068FEFD0
:1014D0009FEFEFCFCF93DF9386B1D82FD47082FBED
:1014E000CC27C0F9C093330286B18695817091E014
:1014F00089278093340283E794E00E9496068CE467
:10150000D11188E40E9483068DE694E00E9496063D
:101510008091340281110FC08EE40E9483068AE517
:1015200094E0D11102C083E494E00E9496068C2FCF
:10153000DF91CF91089589E5F0CFCF93C82F803503
:10154000C0F08CE294E00E9496068C2F90E00E94FE
:10155000C10687E294E00E94960680E590E00E9432
:10156000C10684E294E00E9496068EEF9FEFCF9131
:10157000089580913502882331F1809130028C17D3
:10158000A9F08AEE93E00E9496068091300290E0E6
:101590000E94C10686EE93E00E9496068C2F90E092
:1015A0000E94C10683EE93E00E949606809130026D
:1015B000C81312C08FE59AEE0197F1F700C0000042
:1015C00090E080E0D4CF87EF93E00E9496060E94DF
:1015D000370A009791F2CBCF8C1748F481E00E9434
:1015E000A209809130028F5F80933002DFCF80E0CC
:1015F0000E94A209809130028150F6CFCF93C82F6C
:1016000087ED93E00E9496068C2F90E00E94C10621
:1016100084ED93E00E94960680E0CC2361F00E9466
:101620008709C09331028FE891E00197F1F700C07C
:101630000000CF9108950E949509F3CFCF92DF92D9
:10164000EF92FF920F931F93CF93DF93C82FE62E55
:10165000F42E890186EC93E00E9496068C2F90E090
:101660000E94C10682EC93E00E9496068E2D90E0C7
:101670000E94C1068EEB93E00E949606CF2CD12CDF
:10168000C6010E94C1068BEB93E00E9496068FEF85
:101690008F0D823180F08EE993E00E949606C8EFAC
:1016A000DFEFCE01DF91CF911F910F91FF90EF906F
:1016B000DF90CF9008950E94090A96B19695917097
:1016C00081E098279093340284E993E00E94960683
:1016D0008091340281112DC08EE40E94830681E93D
:1016E00093E00E9496068C2F0E949D0AEC0187E7EA
:1016F00093E0209709F057C08E2D0E94FE0A80E6E5
:1017000093E00E9496060E94E40CEC01892B99F06C
:1017100085E493E00E949606882799278C1B9D0BF1
:101720000E94C10682E493E00E949606CDEFDFEFAF
:10173000B8CF89E5D2CF8BE293E00E94960687E18D
:1017400093E00E949606C6010E94C10681E193E0E3
:101750000E949606B8018F2D0E944D0DEC01892B39
:1017600019F089EF92E0E0CF8CED92E00E949606AE
:10177000F80180810E94A40680E20E948306F8019D
:1017800081810E94A40680E20E948306F801828182
:101790000E94A40680E20E948306F80183810E94D1
:1017A000A40689ED92E00E9496067BCFBF92CF926D
:1017B000DF92EF92FF920F931F93CF93DF9300D0AE
:1017C00000D000D0CDB7DEB7D82EE62EF42EB22E44
:1017D000C32E8AEC92E00E9496068D2D90E00E9426
:1017E000C10686EC92E00E9496068E2D90E00E9443
:1017F000C10682EC92E00E9496068F2D90E00E9436
:10180000C1068FEB92E00E9496068FEF8F0D82311A
:10181000B8F081EA92E00E94960608EF1FEFC80137
:1018200026960FB6F894DEBF0FBECDBFDF91CF91E5
:101830001F910F91FF90EF90DF90CF90BF90089590
:101840000E94090A319907C08DE792E00E9496062E
:101850000BEF1FEFE4CF8D2D0E949D0A8C0182E6D5
:1018600092E00115110509F58E2D0E94FE0A1E82D7
:101870001D82D982EA82FB8282E08C838DE492E031
:101880000E9496066B2D7C2DCE0101960E94C50EFE
:101890008C0185E292E00115110539F086E392E0B2
:1018A0000E9496060CEF1FEFBACF0E949606B7CFA4
:1018B00010928000E1E8F0E081E0808380818F7BFE
:1018C0008083EFE6F0E080818F7D808308950F9222
:1018D0000FB60F921F9211242F933F938F939F93D4
:1018E000AF93BF93809186009091870020913D0235
:1018F00030913E02821B930B20918600309187002D
:1019000030933E0220933D028035910508F456C085
:101910008037910508F454C0803A910508F452C00C
:1019200083E02091380294E0299F90011124822BBA
:1019300080933802809137028F5F809337028091C5
:1019400037028430D8F0809138028EBD0DB407FE86
:10195000FDCF8091390290913A02A0913B02B09163
:101960003C020196A11DB11D8093390290933A0269
:10197000A0933B02B0933C0210923702809139024F
:1019800090913A02A0913B02B0913C02803C90437E
:10199000A105B10540F080916F008F7D80936F00AD
:1019A00081E080933602BF91AF919F918F913F91DB
:1019B0002F911F900F900FBE0F90189580E0B1CF20
:1019C00081E0AFCF82E0ADCFCF93DF9389E696E0A1
:1019D0000E9496061092390210923A0210923B022F
:1019E00010923C0210923802109237021092360286
:1019F00060E070E0CB010E943609B59A80918600C4
:101A00009091870090933E0280933D0280916F00F9
:101A1000806280936F007894D0E0C0E080913602BD
:101A2000811104C0C43F91E0D90761F580916F0036
:101A30008F7D80936F000E944A0989E596E00E949D
:101A400096068091390290913A02A0913B02B091A2
:101A50003C020E94C10680E596E00E949606CE01F7
:101A60000E94C1068BE496E00E949606C43FD140D6
:101A700089F482E396E00E94960687EF9FEFDF915C
:101A8000CF9108958FE99FE00197F1F700C0000022
:101A90002196C4CF90E080E0F2CF2F923F924F92F8
:101AA0005F926F927F928F929F92AF92BF92CF92EE
:101AB000DF92EF92FF920F931F93CF93DF93CDB7F7
:101AC000DEB760970FB6F894DEBF0FBECDBF8E872E
:101AD0006C877D878DE196E00E9496062E85822E8A
:101AE000912CC4010E94C10685E196E00E949606F1
:101AF0008091390290913A02A0913B02B0913C0250
:101B00000E94C1068CE096E00E9496068091390200
:101B100090913A02A0913B02B0913C0260E070E0EB
:101B2000CB010E944C09412C512C32011986D12C39
:101B3000C12C1B861A861886312C212C00E010E05F
:101B40001F82F12CE12C8091390290913A02A091F0
:101B50003B02B0913C02481659066A067B0680F0AB
:101B60000E944A098CEA95E00E949606C4010E94F0
:101B7000C1068FE995E00E94960688EF9FEF79C035
:101B80000E94600936E0A32EB12C282F30E0388B5C
:101B90002F878F8598890A2C02C0959587950A947E
:101BA000E2F783708130F9F0823031F18111E5C0C4
:101BB000EE0CFF1CEE0CFF1C6894E0F882E03F8105
:101BC000380F3F832F81223000F532E0A31AB1088D
:101BD0008EEFA8168FEFB806E1F69FEF491A590A63
:101BE000690A790AB0CF93E0EE0CFF1C9A95E1F7F1
:101BF0006894E0F883E0E3CF84E0EE0CFF1C8A9564
:101C0000E1F76894E0F884E0DACF8F8182508F8327
:101C1000C7010F8002C0969587950A94E2F78170FC
:101C2000110F182B2A853B852F5F3F4F3B872A8753
:101C3000C90187709927892B29F601110BC0113A28
:101C400009F07DC0239401E032E0321508F000E095
:101C500010E0B8CF88858823A1F1C11492E0D9069D
:101C600008F18FEE95E00E9496060E944A0990E0E6
:101C700080E060960FB6F894DEBF0FBECDBFDF9157
:101C8000CF911F910F91FF90EF90DF90CF90BF9079
:101C9000AF909F908F907F906F905F904F903F900C
:101CA0002F900895C6010196EC85FD85EC0DFD1D74
:101CB00010832FEFC21621E0D20699F26C0108853D
:101CC000C7CF332009F442C0C6010196E1E0F0E03D
:101CD000EC0FFD1FEC0DFD1D10836C01032D04970F
:101CE00008F4B6CF80EE95E00E949606898190E0D8
:101CF0000E94C1068CED95E00E9496068A8190E0D4
:101D00000E94C10688ED95E00E9496061B81812FF6
:101D100090E00E94C10684ED95E00E9496068C81B9
:101D200090E00E94C1063E8513130BC08AEC95E03B
:101D30000E9496063986D12CC12C312C00E0212C32
:101D400087CF87EC95E00E949606F5CF1E3F51F0B5
:101D50001B3F69F48985882361F0D12CC12C8887C9
:101D6000082F76CFD12CC12C3886302E71CF3886F3
:101D7000E5CF99859887392EE1CF1886312C212C13
:101D800000E01F82F12CE12C20CF8CEF9FEF089513
:101D90000F931F93CF93DF9300D000D000D0CDB727
:101DA000DEB78C0180913F04882391F1C80196959C
:101DB0008795800F911FB0E0A0E09C01AD012053FA
:101DC0003F4C4F4F5F4F2B833C834D835E8322E01C
:101DD00030E0AE014F5F5F4F6B817C818D819E81D2
:101DE0000E94700889819A8100FF10C024E09695B6
:101DF00087952A95E1F726960FB6F894DEBF0FBEB9
:101E0000CDBFDF91CF911F910F9108959F70F3CFB8
:101E100090E080E0F0CFCF93DF93C2E0D0E0CE013E
:101E20000E94C80E892B21F4CE01DF91CF91089535
:101E30002196C1328BE0D80791F78FEF9FEFF5CF56
:101E4000EF92FF920F931F93CF93DF9300D000D0B8
:101E500000D0CDB7DEB77C018B0180913F04882391
:101E6000C9F1C701969587958E0D9F1DB0E0A0E042
:101E70009C01AD0120533F4C4F4F5F4F2B833C8360
:101E80004D835E8322E030E0AE014F5F5F4F6B8198
:101E90007C818D819E810E94700889819A81E0FEFB
:101EA00026C08F70992724E0000F111F2A95E1F7B3
:101EB000082B192B1A83098322E030E0AE014F5F13
:101EC0005F4F6B817C818D819E810E949B0881E0A8
:101ED0008093400426960FB6F894DEBF0FBECDBFA8
:101EE000DF91CF911F910F91FF90EF900895882778
:101EF000907F1F70DDCFCF93DF9300D000D000D054
:101F0000CDB7DEB780913F04882309F44EC080919D
:101F10004004882309F449C021E030E03E832D834A
:101F200080ED90E3A0E0B0E089839A83AB83BC832B
:101F300020E032E04FE352E069817A818B819C811D
:101F40000E9470086FE372E08D819E810E94780785
:101F5000892B59F08FEF9FEF26960FB6F894DEBFCE
:101F60000FBECDBFDF91CF9108956FE372E08D81F9
:101F70009E8109960E947807009761F729813A812E
:101F80004B815C813E5F4F4F5F4F29833A834B8388
:101F90005C834D815E814F5F5F4F5E834D834A302E
:101FA000510531F610924004D7CF90E080E0D4CFB5
:101FB000FF920F931F93CF93DF9300D000D000D0F8
:101FC000CDB7DEB780913F048823A1F082E798E087
:101FD0000E9496061E821D828D819E8126960FB6D6
:101FE000F894DEBF0FBECDBFDF91CF911F910F914F
:101FF000FF9008958CE498E00E9496066FE372E0EB
:1020000090E080E00E941007892B39F087E298E089
:102010000E9496068FEF9FEF73C087E198E00E94C1
:10202000960680914A0290914B020E94C10681E17E
:1020300098E00E94960680914C0290E00E94C106B2
:102040008AE098E00E94960680914F0290E00E94FC
:10205000C10684E098E00E94960680915202909119
:1020600053020E94C1068AEF97E00E949606809173
:1020700054020E94A40687EF97E00E94960687EE1E
:1020800097E00E94960680915502909156020E9418
:10209000C10681EE97E00E949606809157029091CA
:1020A00058020E94C10689ED97E00E949606809131
:1020B000590290915A020E94C10682ED97E00E9457
:1020C000960680915002909151020E94C1068AECBE
:1020D00097E00E949606809165020E94A40687EC14
:1020E00097E00E94960680914A0290914B028115DA
:1020F000924049F081EB97E00E94960688EF9FEFAF
:102100009E838D8369CF80914F02823049F08CE9A4
:1021100097E00E949606A8EFBFEFBE83AD835CCF29
:1021200080914C02811103C088E897E0E5CF80914F
:102130006502893209F066C080916602909167025B
:10214000A0916802B0916902809341049093420487
:10215000A0934304B09344048BE0EAE6F2E0A5E4E4
:10216000B4E001900D928A95E1F7109250048AE74D
:1021700097E00E94960685E494E00E948A068EE627
:1021800097E00E94960680914304909144040E9437
:10219000B80680914104909142040E94B8068BE6F3
:1021A00097E00E94960683E397E00E94960689E0F6
:1021B00090E00E94C10684E297E00E94960680EDBE
:1021C00090E3A0E0B0E089839A83AB83BC8301E015
:1021D00010E0FF24FA94F00E6FE372E0C8010E9451
:1021E00010078D839E83AD81BE81AB2B09F184E006
:1021F00097E00E9496068F2D90E00E94C10681E034
:1022000097E006CF109241041092420410924304CA
:10221000109244048BE0E1E1F1E0A5E4B4E0019028
:102220000D928A95E1F71092500488E497E0B9CFB7
:1022300020E032E04FE352E069817A818B819C811A
:102240000E949B080F5F1F4F89819A81AB81BC81DF
:102250009E5FAF4FBF4F89839A83AB83BC830A30A5
:10226000110509F0B6CF81E080933F04109240043D
:1022700080EF96E00E949606AFCE80913F048823BF
:1022800021F00E947B0F10923F04089580913F043B
:102290000895AF92BF92CF92DF92EF92FF920F9389
:1022A0001F93CF93DF93D82EC92EB62EA72E7A0177
:1022B00080913F042EEF3FEF882391F103E110E07E
:1022C0006FE372E0C8010E941007892B09F042C039
:1022D000CFE3D2E088818823D1F1853E69F18B85F7
:1022E00083FD2AC048E050E06D2D7C2DCE010E9478
:1022F000D528892B09F543E050E06B2D7A2DCE01CE
:1023000008960E94D5289C01892BB1F4E114F104B0
:1023100039F080E2FE01D70101900D928A95E1F734
:10232000C901DF91CF911F910F91FF90EF90DF9046
:10233000CF90BF90AF900895A09684E0CF33D80798
:1023400049F60F5F1F4F0132110509F0B9CF2DEF8C
:102350003FEFE6CF2FEF3FEFE3CFEF92FF920F93E8
:102360001F93CF93DF938C01F62EE72E80913F04CD
:10237000811116C08EEF9FEFDF91CF911F910F91CA
:10238000FF90EF900895253E59F023852F3041F0BE
:1023900020E2AF2DBE2D01900D922A95E1F7ECCFF2
:1023A000F80180819181803E910510F5EC01CF709C
:1023B000DD2725E0CC0FDD1F2A95E1F734E0969567
:1023C00087953A95E1F76FE372E043960E94100714
:1023D000009789F4FE01E15CFD4FD8012D913C91FD
:1023E00011972F5F3F4F2D933C9320812111CBCF2D
:1023F0008DEF9FEFC1CF8FEF9FEFBECF8F929F9258
:10240000AF92BF92CF92DF92EF92FF920F931F9302
:10241000CF93DF93CDB7DEB7A0970FB6F894DEBFAA
:102420000FBECDBF7C016B018A018EED96E00E944C
:1024300096065701470188E0880E911CF5018191AD
:102440005F01803229F00E948306A814B904B1F715
:102450008EE20E94830656014601A3E08A0E911C7B
:10246000D5018D915D01803229F00E948306A81468
:10247000B904B1F78AED96E00E949606AE014F5F6F
:102480005F4FB601C7010E9449117C01892BC1F041
:1024900083EC96E00E949606C701A0960FB6F894CA
:1024A000DEBF0FBECDBFDF91CF911F910F91FF9087
:1024B000EF90DF90CF90BF90AF909F908F90089556
:1024C000F8013D9686E0DF011D928A95E9F781E0EB
:1024D000F80180838B8D9C8D928381839483838389
:1024E0008D8D9E8DAF8DB8A185839683A783B08790
:1024F0001186128613861486118A8CEA96E00E9451
:1025000096068B8D9C8D0E94C10685EA96E00E94FE
:1025100096068D8D9E8D0E94C10682EA96E0BACF06
:102520006F927F928F929F92AF92BF92CF92DF92E3
:10253000EF92FF920F931F93CF93DF93EC013B0138
:102540006A018881882309F488C08989811185C03E
:1025500080913F0481117BC08EEF9FEF69C08D8118
:102560009E8149855A8595012E193F09841B950B3B
:102570002817390708F4C9014601801A910A8815FD
:10258000990508F44C01B701615C7D4FA401C301BA
:10259000800F911F0E94E228080D191D89859A85D8
:1025A000AB85BC85880D991DA11DB11D89879A87B2
:1025B000AB87BC87AC01BD01517066277727452BDF
:1025C000462B472BA1F44D815E816F81788584175E
:1025D0009507A607B70758F48B819C810E94C80E07
:1025E0009C01283F8FE0380710F53C832B830C15A6
:1025F0001D05E8F489859A85AB85BC854D815E8192
:102600006F81788584179507A607B70780F47C014A
:1026100021E0F2228B819C816FE372E04F960E9451
:102620001007892B09F49BCF01151105C1F0C801D2
:10263000DF91CF911F910F91FF90EF90DF90CF909E
:10264000BF90AF909F908F907F906F90089510E013
:1026500000E0A12C82E0B82ECACF89EF7ECF8FEFA9
:102660007CCF3F924F925F926F927F928F929F9218
:10267000AF92BF92CF92DF92EF92FF920F931F9390
:10268000CF93DF938C012B017A01FC018081882399
:1026900009F490C08189882309F48CC080913F049B
:1026A00081117CC08EEF9FEF67C0F301C5011192CD
:1026B0000197E9F740C0CC0DDD1DF80181859285B9
:1026C000A385B4858C0D9D1DA11DB11D81879287A9
:1026D000A387B487328A9170AA27BB27892B8A2BBC
:1026E0008B2BB1F4CE15DF0598F40E940B0F6C0113
:1026F00097FD41C0BC01F801838194810E94200FA5
:102700006FEF7FE0C6010E94200FF801D482C382E0
:10271000CE15DF0580F5F80181849284F1E09F22D7
:102720008114910411F2F801838194816FE372E0C6
:102730004F960E941007C7018C1B9D0B6501C8189E
:10274000D9088C159D0508F46C01A601B2016C0F27
:102750007D1FC401815C9D4F0E94E228F8018381A6
:1027600094816FE372E04F960E947807892B09F4F9
:10277000A2CF209709F1CE01DF91CF911F910F9148
:10278000FF90EF90DF90CF90BF90AF909F908F9091
:102790007F906F905F904F903F900895D0E0C0E0A1
:1027A0008FE3682E82E0782EA12C92E0B92E33249C
:1027B0003394AECF89EF77CF8FEF75CFCF93DF9381
:1027C000EC018881882309F44EC080E996E00E94DC
:1027D000960689859A850E94C10688E896E00E943F
:1027E00096068989811124C08EE40E94830682E8BE
:1027F00096E00E9496068A8981111CC08EE40E9490
:1028000083068FE796E00E9496068989882351F116
:102810008A89882339F16FE372E08D859E850E9455
:102820001007892B49F08FEF9FEFDF91CF9108952B
:1028300089E5DBCF89E5E3CFEF85F889E15CFD4FE2
:1028400089859A85AB85BC85848F958FA68FB78F38
:102850006FE372E08D859E850E947807892B19F7BA
:102860000E947B0F188290E080E0DFCFCF92DF9252
:10287000EF92FF920F931F93CF93DF93182F092F9F
:10288000D62EC72E80913F04CEEFDFEF882361F074
:1028900083E1E82EF12C6FE372E0C7010E9410077C
:1028A000892B61F0CFEFDFEFCE01DF91CF911F9148
:1028B0000F91FF90EF90DF90CF900895CFE3D2E09B
:1028C0008881882309F441C0853E91F148E050E0B9
:1028D000612F702FCE010E94D528892B49F543E046
:1028E00050E06D2D7C2DCE0108960E94D528892BB5
:1028F000F9F40A8D1B8DC8010297863F9F4068F04E
:1029000085EE88836FE372E0C7010E947807EC01CF
:10291000892B41F60E947B0FC7CFC8010E94C80EC9
:102920006C0170E060E0C8010E94200F8601E3CFD7
:10293000A09684E0CF33D80719F62FEFE21AF20AF7
:1029400081E2E816F10409F0A6CFCDEFDFEFACCFBE
:102950005F926F927F928F929F92AF92BF92CF922F
:10296000DF92EF92FF920F931F93CF93DF93CDB738
:10297000DEB7A0970FB6F894DEBF0FBECDBF882E8E
:10298000792E662E572E8A0180913F04882309F400
:102990009BC0AE014F5F5F4F882D0E944911892B6C
:1029A00031F4662D752D882D972D0E94361493E1F4
:1029B000A92EB12C6FE372E0C5010E941007892B8C
:1029C000C1F08FEF9FEFA0960FB6F894DEBF0FBE59
:1029D000CDBFDF91CF911F910F91FF90EF90DF90CE
:1029E000CF90BF90AF909F908F907F906F905F90AF
:1029F00008958FE3E82E82E0F82E912CF701808174
:102A0000811108C00E940B0F6C0197FF17C08AEF5D
:102A10009FEFD9CF853EB1F39394F0E2EF0EF11C16
:102A200040E19412EBCF8FEFA81AB80A91E2A916F1
:102A3000B10409F0BFCF8BEF9FEFC5CF6FEF7FE001
:102A40000E94200F80E2F701482F11924A95E9F782
:102A500098E0E82DF72DD70101900D929A95E1F7B6
:102A6000D701189693E0E62DF52D01900D929A95D9
:102A7000E1F7F7018387D38EC28E148E158E168EE2
:102A8000178E6FE372E0C5010E947807009709F086
:102A900098CF21E0F8012083D282C182D482C38200
:102AA0001582168217821086118612861386148666
:102AB000218B128AB686A586F0E29F9E9001112492
:102AC000F801308B27877FCF8EEF9FEF7CCF4F921F
:102AD0005F926F927F928F929F92AF92BF92CF92AE
:102AE000DF92EF92FF920F931F93CF93DF93CDB7B7
:102AF000DEB7A0970FB6F894DEBF0FBECDBF782E1D
:102B0000692E562E472ED42EC52EB22EA32E80917E
:102B10003F04882309F480C0AE014F5F5F4F622FEE
:102B2000732F8D2D9C2D0E944911892B09F477C09C
:102B300083E1E82EF12C6FE372E0C7010E941007D9
:102B4000892B09F06FC00FE312E0F8018081882320
:102B500009F45FC0853E09F44DC048E050E0672DA0
:102B6000762DC8010E94D528892B09F043C0480161
:102B7000F8E08F0E911C43E050E0652D742DC401E8
:102B80000E94D528892BB1F588E0ED2DFC2DD801C8
:102B900001900D928A95E1F783E0EB2DFA2DD40197
:102BA00001900D928A95E1F76FE372E0C7010E94F0
:102BB000780721E030E0892B11F430E020E088270D
:102BC0009927821B930BA0960FB6F894DEBF0FBE19
:102BD000CDBFDF91CF911F910F91FF90EF90DF90CC
:102BE000CF90BF90AF909F908F907F906F905F90AD
:102BF0004F900895005E1F4F84E00F33180709F0CF
:102C0000A4CFEFEFEE1AFE0AF1E2EF16F10409F09D
:102C100092CF8DEF9FEFD7CF8EEF9FEFD4CF8CEF7A
:102C20009FEFD1CF8FEF9FEFCECF0F931F93CF9317
:102C3000DF9300D000D0CDB7DEB780913F0488236A
:102C400099F102E010E01A821982C8010E94C80EB0
:102C5000892B31F429813A812F5F3F4F3A832983B1
:102C60000F5F1F4F01323BE0130779F749815A810B
:102C7000B0E0A0E09A01AD0189E0220F331F441FAC
:102C8000551F8A95D1F729833A834B835C836981E9
:102C90007A818B819C810F900F900F900F90DF9124
:102CA000CF911F910F91089519821A821B821C8265
:102CB000EECFAF92BF92CF92DF92EF92FF920F933F
:102CC0001F93CF93DF9300D000D000D0CDB7DEB7F5
:102CD0008D839E8380E092E0EFE3F2E0DF019C01D0
:102CE0001D9221503040E1F72BEE20933F022CE360
:102CF0002093400220E92093410228E0EDE1F1E039
:102D0000A2E4B2E001900D922A95E1F790934B0274
:102D100080934A0281E080934C0281E090E090939E
:102D20004E0280934D0282E080934F0280EE90E04D
:102D3000909351028093500280E49BE09093530261
:102D40008093520280EF8093540289E090E0909348
:102D500056028093550282E190E09093580280934E
:102D6000570282E090E090935A028093590289E2E0
:102D7000809365028EEE9FEFA0ECB4E6809366022E
:102D800090936702A0936802B09369028D819E813F
:102D9000892B09F4CCC08BE0ED81FE81AAE6B2E07C
:102DA00001900D928A95E1F788E0E2E3F1E0A5E772
:102DB000B2E001900D928A95E1F785E580933D049C
:102DC0008AEA80933E046FE372E090E080E00E9424
:102DD0007807892B09F0AFC001E010E080ED90E3A7
:102DE000A0E0B0E089839A83AB83BC838FE3C82ED5
:102DF00082E0D82EA12C92E0B92E20EFE22EFF2403
:102E0000FA94D601F5011D923197E9F7013031F4BA
:102E1000E0923F02F0924002F09241026FE372E0D2
:102E2000C8010E947807892B09F085C06FE372E022
:102E3000C80109960E947807892B09F07CC020E020
:102E400032E04FE352E069817A818B819C810E945C
:102E50009B0889819A81AB81BC819E5FAF4FBF4F38
:102E600089839A83AB83BC830F5F1F4F0A301105A0
:102E700041F6EFE3F2E080E092E0DF019C011D9279
:102E800021503040E1F78D819E81892BB9F088E097
:102E9000ED81FE81AFE3B2E001900D928A95E1F7FA
:102EA000ED81FE8180859185A28580934702909374
:102EB0004802A093490288E080934A026FE372E0DF
:102EC00083E190E00E947807892BA9F5EFE3F2E017
:102ED00080E092E0DF019C011D9221503040E1F73B
:102EE00084E190E09A8389836FE372E089819A811B
:102EF0000E947807892BF9F4A981BA811196BA83C7
:102F0000A983919789F710923F0426960FB6F894FB
:102F1000DEBF0FBECDBFDF91CF911F910F91FF900C
:102F2000EF90DF90CF90BF90AF900C94D80F8BE0D4
:102F3000E6E2F1E033CF8FEF9FEF26960FB6F894DD
:102F4000DEBF0FBECDBFDF91CF911F910F91FF90DC
:102F5000EF90DF90CF90BF90AF9008958F929F92A7
:102F6000AF92BF92CF92DF92EF92FF920F931F9397
:102F7000CF93DF936C014B017A0148E050E060E2AF
:102F800070E0C4010E94EB2843E050E060E270E092
:102F9000C7010E94EB2856019601E90188812F5F45
:102FA0003F4F81110BC0F60101900020E9F73197E6
:102FB0008F010C191D09D0E0C0E007C08E3269F7FF
:102FC0008E010C191D09209771F30930110514F0B9
:102FD00008E010E06401912C812C8016910614F118
:102FE0002097A9F12196DE010D900020E9F71197B5
:102FF0008701AC1BBD0BA430B10514F0A3E0B0E019
:10300000EA0EFB1E0E151F05D1F4DF91CF911F9123
:103010000F91FF90EF90DF90CF90BF90AF909F9077
:103020008F900895F50181915F0190E00E94CD2875
:10303000F60181936F01FFEF8F1A9F0ACECF89911E
:1030400090E00E94CD28F80181938F01DBCF83E0CF
:10305000EBE3F1E0D70101900D928A95E1F7D5CF2E
:1030600053985B9A54985C9A0895FC011082549A84
:103070005C988FE391E00197F1F700C0000081E1D7
:1030800097E24B9B18C054985C9A90E080E061E016
:1030900070E021E137E24B9918C04C9B09C02081B8
:1030A000AB01082E01C0440F0A94EAF7242B2083B9
:1030B00021E137E21BC025E02A95F1F700000197D6
:1030C00001F754985C9A80E0089545E04A95F1F73D
:1030D000000021503109F9F60E943018F4CF45E084
:1030E0004A95F1F7000021503109B1F34B9BF7CF1E
:1030F00001968830910569F6549A5C988FE891E0C2
:103100000197F1F700C0000081E00895FC01DB01A8
:1031100010821C9254985C9A89EC90E04B9B16C0EC
:1031200025E02A95F1F70000019709F581E08C93DD
:10313000549A5C988FEE90E00197F1F700C0000080
:1031400054985C9A81E197E24B9907C090E080E047
:1031500061E070E021E137E214C025E02A95F1F743
:103160000000019789F70E94301880E008954A997D
:10317000D5CFF9CF45E04A95F1F70000215031094C
:1031800091F34B99F7CF4C9B09C02081AB01082EDE
:1031900001C0440F0A94EAF7242B208321E137E28F
:1031A00007C045E04A95F1F7000021503109D9F2F6
:1031B0004B9BF7CF01968830910561F6549A5C9845
:1031C00081E00895539A5B9854985C9AEFE3F1E09C
:1031D0003197F1F700C0000021E137E24C9B45C078
:1031E000662391F053985B9A21E137E24C9949C0EC
:1031F00021E137E24C9B4EC0539A5B98EFE3F1E03C
:103200003197F1F700C0000030E020E090E0AC0121
:10321000022E02C0559547950A94E2F740FF43C03D
:1032200054985C9AEFEEF0E03197F1F700C000009F
:1032300053985B9AEFEEF0E03197F1F700C0000091
:10324000539A5B982F5F3F4F2830310501F7549810
:103250005C9A81E197E24C9929C08FE891E001974F
:10326000F1F700C0000081E00895F5E0FA95F1F76C
:1032700000002150310911F480E008954A99AECF41
:10328000FBCF95E09A95F1F700002150310909F044
:10329000ADCFF2CFE5E0EA95F1F70000215031091A
:1032A00009F0A8CFE9CF549A5C98BCCFF5E0FA9525
:1032B000F1F70000019779F6DFCFEF920F931F939C
:1032C000CF93DF938093340590E3E92E05E315E077
:1032D0000E94951CEC018034910514F0C0E4D0E00C
:1032E000AE01552765E375E081EF94E00E94E22886
:1032F000C09331051092320510923305DF91CF91C2
:103300001F910F91EF900895CF93C82F8CE99BE008
:103310000E9496068C2F90E00E94C10689E99BE0EE
:103320000E949606C09351041092530410925204C6
:103330008AB1837C8AB98BB18C638BB9C9B189E8B6
:103340009BE00E9496068CE4C2FD88E40E948306FE
:1033500083E89BE00E9496068CE4C3FD88E40E940B
:1033600083068CE79BE00E9496068CE4C4FD88E40B
:103370000E94830686E79BE00E9496068CE4C5FDCA
:1033800088E40E94830683E79BE00E949606E6E5B8
:10339000F4E08EEDDF011D928A95E9F720E040E030
:1033A0006FE371E089E4CF910C945D19CF93DF93C3
:1033B000EC01DB01E091320580913105E81730F036
:1033C00081E08C9380E0DF91CF91089581E08E0FB2
:1033D00080933205F0E0EB53FB4F84A5888381E0B6
:1033E0002091320590913105291708F480E08C93E3
:1033F00081E0E9CFCF92DF92EF92FF920F931F937C
:10340000CF93DF9300D00F92CDB7DEB74D998FC029
:1034100089E59BE00E949606109253041092520494
:103420000E9430180E94290A0E943D110E94851CAA
:103430000E947E2384E39BE00E9496064D9BFECF74
:103440002FEF89E698E1215080409040E1F700C0DD
:1034500000008EE09BE00E9496060E94090A0E94EE
:10346000370A892BB1F08CEF9AE00E94960620E093
:1034700040E061E071E08AE40E945D1985E090E03F
:103480000E943A280E94290A8DED9AE00E94960631
:1034900032C08CEC9AE00E9496060E946A0A811162
:1034A00014C083EB9AE00E94960620E040E061E0C1
:1034B00071E08AE40E945D1986E090E00E943A285B
:1034C0000E94290A85E99AE0E1CF8EE79AE00E94FE
:1034D00096060E94D80F892BD1F48DE69AE00E94BF
:1034E00096060E94290A8DE39AE00E94960690E0D3
:1034F00080E00E943A280F900F900F90DF91CF91BB
:103500001F910F91FF90EF90DF90CF90089588E585
:103510009AE00E94960620E040E061E071E08AE4D3
:103520000E945D1986E090E00E943A28DACF4A9B1B
:1035300040C080915204909153040297E1F6AE018D
:103540004F5F5F4FBE016E5F7F4F809154040E94BA
:103550000320882359F10E947923FC0169818A8123
:10356000309709F10680F781E02D3097E1F0099559
:1035700081110AC083E29AE00E94960610925304D9
:10358000109252040E9430188981882309F4B3CF25
:103590008BE09AE00E949606109253041092520417
:1035A0000E943018A8CF0E94E218E2CF8CEE99E07A
:1035B000F1CF0E94EC2780EE99E00E949606549A83
:1035C0005C9882E0E82EF12CCC24C394D12C4A994B
:1035D0000AC0CE0103960E94351881113FC085ECC8
:1035E00099E00E9496060E94EE27809152049091E5
:1035F00053040297C9F48DE199E00E9496060E9457
:103600004C230E9479238C01009771F0FC01828584
:103610009385892B49F085E099E00E949606D801B0
:103620001A96ED91FC910995809152049091530462
:10363000019709F060CF88EE98E00E94960680918D
:10364000540490E00E94C10685EE98E00E94960620
:1036500011E04A99C4C08BEC98E018CF88EB99E050
:103660000E9496068B810E94A4068B818F3361F5A0
:103670008CEA99E00E94960680915204909153043E
:10368000019709F0A4CF809154048F30C1F4609168
:10369000C204662359F0E62FF0E0EF5AFB4F11AA5F
:1036A00082E894E00E94EA211092C204109253042E
:1036B000109252040E9430180E947E2388CF8130DD
:1036C000A9F70E94E91FF2CF8F3561F482EA99E0F1
:1036D0000E9496068091520490915304029709F03B
:1036E00076CFE4CF182F1F71982F907E9032C9F4B7
:1036F00088E999E00E949606812F90E00E94C10619
:1037000085E999E00E9496068091510481135FCF6C
:10371000D0925304C092520481E899E00E94960628
:1037200056CF9034B9F489E799E00E949606812F2C
:1037300090E00E94C10686E799E00E94960680917B
:103740005104811344CFF0925304E092520484E672
:1037500099E0E4CF982F907F903651F5182F1F7085
:103760008AE599E00E949606812F90E00E94C106AA
:1037700087E599E00E9496061093540480915204C4
:10378000909153048130910529F41092C204109253
:10379000C3041DCF029709F01ACF54985C9AAFE387
:1037A000B1E01197F1F700C00000539A5B980FCF7A
:1037B000903E91F4182F1F708CE499E00E949606B9
:1037C000812F90E00E94C10689E499E00E9496064C
:1037D000812F0E94E91FFBCE83E499E09FCFBE01B9
:1037E0006F5F7F4FCE0102960E948618811103C041
:1037F00082EB98E04BCE8091540490915604911145
:1038000036C08F30A1F1E0918104E93248F48A8119
:1038100091E09E0F90938104F0E0EF5AFB4F868376
:103820008981882309F415CFE0918104F0E0EF5AF3
:10383000FB4F168281EA98E00E94960687E594E0A5
:103840000E948A068DE998E00E94960640918104C4
:1038500067E574E0809154040E94B71C10935604ED
:103860008981882309F4F5CE8AE898E00FCEE091AB
:10387000C2046A81E03440F491E09E0F9093C20448
:10388000F0E0EF5AFB4F61AB0E94D121E9CF0F93DB
:103890001F93CF93DF93CDB7DEB7CC52D4400FB692
:1038A000F894DEBF0FBECDBF8C019C01AE01435D1D
:1038B0005D4F60ED78E580E090E00E9470082CE2BA
:1038C00032E0AE014F5F5F4FB801CE01835D9D4F87
:1038D0000E94CE278C011816190654F49C01AE01E3
:1038E0004F5F5F4F60ED7AE580E090E00E949B08BB
:1038F000C801C45DDB4F0FB6F894DEBF0FBECDBF6D
:10390000DF91CF911F910F910895E2E7F5E083E1F8
:10391000DF011D928A95E9F710926D0520E040E0E5
:103920006FE371E089E40C945D19EF920F931F939C
:103930001F922F931F924F937F936F931F928F939A
:103940008DE491E09F938F931F92EF921F930F93BB
:103950000E94FD282DB73EB7225F3F4F0FB6F89467
:103960003EBF0FBE2DBF1F910F91EF9008957F9224
:103970008F929F92AF92BF92CF92DF92EF92FF927F
:103980000F931F93CF93DF93CDB7DEB7C356D10903
:103990000FB6F894DEBF0FBECDBF182F7B01042FEA
:1039A00086E99CE00E949606812F90E00E94C10665
:1039B0008EE89CE00E94960667014701800E911CEC
:1039C0008C149D04E1F58AE89CE00E949606FE01B5
:1039D000EF5AFF4F1192119287E0DF011D928A95F5
:1039E000E9F76C961FAE1EAE6C976E961FAE1EAEBC
:1039F0006E97123078F40E944611811126C082E73A
:103A00009CE00E94960620E040E061E071E08AE4DC
:103A10000E945D19CD59DF4F0FB6F894DEBF0FBE7F
:103A2000CDBFDF91CF911F910F91FF90EF90DF906D
:103A3000CF90BF90AF909F908F907F900895D601C8
:103A40008D916D010E948306BBCF11111DC2013003
:103A500009F01AC2F7018081843209F015C28EE59F
:103A60009CE00E949606098384E08A8322E030E08D
:103A7000AE014F5F5F4F60ED76E480E090E00E9422
:103A80009B081B821C8282E18D8382E28E83E9E6A1
:103A9000F1E0DE01179689E791E021912D938E17D1
:103AA0009F07D9F782E28F8B80E2888FEAE7F1E007
:103AB00088E1919121E0280F482F50E09111B5C085
:103AC000E1E0F0E0EC0FFD1F4E0F5F1FDA011C92EA
:103AD00030E07901B2E0EB0EF11C8C5F8983C90103
:103AE0008D5F9B4F9A83AF0162ED76E480E090E0BA
:103AF0000E949B08A0961FAE1EAEA09730E2C32E78
:103B000042E2B42E0FE010E0BE016F5C7F4FCE01A9
:103B1000825A9F4F0E94AD11AC01892B31F468EF9E
:103B2000E6166FE0F60608F48BC00E941516A49600
:103B30006CAF7DAF8EAF9FAFA497BB27A92F982FF7
:103B4000872F19821A828B839C83A1E8B1E084E0DD
:103B50009D9161E0680F282F30E091118BC188247E
:103B60008394912C8C0E9D1E280D391DD9011C9219
:103B7000F401E60FF11D1082E2E0E80F882483943F
:103B8000912C8C0E9D1E8E0E911CF40110828D5F67
:103B9000082F10E0B0E0A0E09701AD012053394BB1
:103BA0004F4F5F4FA4962CAF3DAF4EAF5FAFA49782
:103BB0009801AE014F5F5F4FA4966CAD7DAD8EADA9
:103BC0009FADA4970E949B080E0D1F1D10937105B9
:103BD0000093700510926F0510926E0511E010931E
:103BE0006D058FE49CE00E9496068091700590918F
:103BF00071050E94C1068CE49CE00E94960610921A
:103C00006C0510926B0510926A051092690510926E
:103C1000680510926705109366051092650520E00F
:103C200040E06EE871E080E0F3CE88248394912C2C
:103C30008C0E9D1E480D591DDA019C93822F39CFA1
:103C40006CAD63FD61CF61968CAD9DADAEADBFAD8A
:103C5000619781509F4FAF4FBF4F892F9A2FAB2F46
:103C6000BB279C0119821A82009711F481E090E031
:103C70009C838B832A30310508F03EC0CD82A5E0BD
:103C8000E1E0EA0F88248394912C8C0E9D1E8A0E0D
:103C9000911CD401CC9291E09E0FA1E0B0E0AC0F5A
:103CA000BD1FAE0FB11DFD01C08281E0890FE1E0B3
:103CB000F0E0EC0FFD1FE90FF11DB08228E030E0CD
:103CC000722F732E21503109E1E3F0E0EC0FFD1F5C
:103CD000E20FF31FE081E032D1F0FE01F1969E5F2A
:103CE000970F282FAA24A394A20E30E09A11A5C002
:103CF000870F272F372D0EC02436310510F4A4E08E
:103D0000BFCF94E0283E334080F6E4E0C4CF2115D5
:103D10003105B1F699AD7BAD703209F09AC07AAD3C
:103D2000703209F099C0903221F141E050E091E009
:103D3000980F7EE2E1E0F0E0EC0FFD1FE80FF11DCF
:103D40007083DE01D996792F740FDD90E92F9F5F84
:103D500088248394912C8C0E9D1E8E0E911CF40150
:103D6000D0829713F2CF840F8F5FFA0131962E0F16
:103D70003F1F91E0980FE1E0F0E0EC0FFD1FE80F2E
:103D8000F11DB08271E1780F721BE92F9F5FA1E0F6
:103D9000B0E0AC0FBD1FAE0FB11DFD01C082971387
:103DA000F4CF8E5FF801E21BF30BD82EDE0EE1E6B6
:103DB000F1E064FD11C04330510561F443E050E08F
:103DC00065E671E0CE01C9960E94D528E5E6F1E0EE
:103DD000892B11F0EBE3F1E0319121E02D0D8D2DD8
:103DE00090E031113CC0E1E0F0E0EC0FFD1F8E0FE0
:103DF0009F1FDC011C9230E049018E0C9F1CC40106
:103E00008F5F9B4F9A838983B0E0A0E0A701BD013B
:103E10004053594B6F4F7F4FA4964CAF5DAF6EAF81
:103E20007FAFA497AF01A4966CAD7DAD8EAD9FAD75
:103E3000A4970E949B08740167CED1908824839434
:103E4000912C8C0E9D1E280D391DD901DC922A2D36
:103E500049CF43E050E06BCF42E050E068CF882488
:103E60008394912C8C0E9D1E880D991DDC013C9332
:103E7000D22EB2CFE1E0F0E0EC0FFD1F2E0F3F1F7E
:103E8000F9019083862F64CEAE01465A5F4FBE0182
:103E90006F5A7F4FC7010E94AE178CE39CE00E94CF
:103EA0009606AE014F5A5F4F7A016A0158E0C50E7F
:103EB000D11CD7018D917D010E948306CE14DF04B1
:103EC000C1F788E39CE00E9496066B968FAD6B97D6
:103ED0000E9483066C968FAD6C970E9483066D9648
:103EE0008FAD6D970E94830684E39CE00E94960646
:103EF000111126C087E29CE00E94960642E755E039
:103F0000BE01665A7F4FCE018F5A9F4F0E94FE110D
:103F10008C01892B09F440C081E19CE00E94960647
:103F200088279927801B910B0E94C1068EE09CE098
:103F30000E94960620E040E061E971E08EE368CDE2
:103F400081E09CE00E94960642E755E0BE01665A79
:103F50007F4FCE018F5A9F4F0E94A8148C01892B4E
:103F6000D9F084EE9BE00E94960688279927801B53
:103F7000910B0E94C10681EE9BE00E94960620E014
:103F800040E060EA71E088E40A3F1F4F09F440CD49
:103F90006AEA71E089E13CCD10926C0510926B05E4
:103FA00010926A05109269051092680510926705D3
:103FB00081E0809366051092650520E040E06EE8A0
:103FC00071E080E00E945D1981ED9BE00E94960601
:103FD00021CDCF93C82F81EC9BE00E9496068C2FB9
:103FE00090E00E94C1068EEB9BE00E9496068091B5
:103FF0007205882321F082E795E00E94DE1310927B
:104000006D05CF910895BF92CF92DF92EF92FF920C
:104010000F931F93CF93DF9300D000D000D0CDB784
:10402000DEB7082F6B017A01FA0110820E94A827DF
:10403000182F882309F44CC10F3009F44BC1F70144
:1040400010828091670590916805209169053091F3
:104050006A058217930740F5B0E0A0E09C01AD012E
:104060002053354A4F4F5F4FCA01B9010E94C5081E
:10407000F601808380916705909168050196909381
:104080006805809367052091690530916A0582175C
:10409000930708F446C080916505882309F441C060
:1040A00081E0F70180833DC0B0906505BB2029F019
:1040B00081E0F701808310E034C0009166050111B2
:1040C00081C01A82198222E030E0AE014F5F5F4F5B
:1040D00060ED7AE580E090E00E949B0882E090E04D
:1040E00090936A05809369051092680510926705A0
:1040F00001E00093650560ED7AE580E090E00E94C4
:10410000C508F601808381E090E090936805809374
:1041100067058091690590916A05029710F4F7018F
:104120000083812F26960FB6F894DEBF0FBECDBF59
:10413000DF91CF911F910F91FF90EF90DF90CF9083
:10414000BF900895B0E0A0E09C01AD012053394B31
:104150004F4F5F4F2B833C834D835E8321E030E0E4
:10416000AE014F5F5F4F6B817C818D819E810E948C
:10417000700880916E0590916F05019690936F0580
:1041800080936E0580916B0590916C05B0E0A0E086
:104190009C01AD012053374A4F4F5F4F2B833C8327
:1041A0004D835E8349816B817C818D819E810E94DC
:1041B000DE0880916B0590916C05019690936C05DB
:1041C00080936B0580916B0590916C0581159240F1
:1041D00088F480916D058823C1F180916E059091DE
:1041E0006F0520917005309171058217930708F4CF
:1041F000A9CFB02E80916B0590916C050097B1F11D
:104200000E94471C181619060CF052CF90936A05AD
:1042100080936905109268051092670510926C05ED
:1042200010926B05B1101092660560ED7AE580E0A2
:1042300090E00E94C508F601808381E090E09093B1
:10424000680580936705102F6CCF809172058823D5
:1042500081F241E050E0BE016F5F7F4F82E795E061
:104260000E949012019709F48DCFC3CF1A82198250
:1042700022E030E0AE014F5F5F4F60ED7AE580E015
:1042800090E00E949B0882E090E090936A05809302
:10429000690510926805109267051092660581E025
:1042A0008093650560ED7AE580E090E00E94C508A6
:1042B000F601808381E090E0909368058093670524
:1042C0008091690590916A05029708F02ACFE8CE9F
:1042D0000F3031F4B701C6010E94D619182F21CF33
:1042E0000111E6CE10916D05112381F180916E05CB
:1042F00090916F05B0E0A0E09C01AD012053394BD7
:104300004F4F5F4F2B833C834D835E8321E030E032
:10431000A6016B817C818D819E810E9470088091B5
:104320006E0590916F05019690936F0580936E05D1
:1043300020917005309171058217930708F4F1CE32
:1043400081E0F701808310926D05EBCE109172052C
:10435000112309F4ADCE41E050E0BE016F5F7F4F05
:1043600082E795E00E949012019709F0A1CE898121
:10437000F601808340917B0550917C0560917D051D
:1043800070917E058091770590917805A0917905CF
:10439000B0917A05481759076A077B0708F4C1CE20
:1043A0007FCECF93DF930F92CDB7DEB76983813095
:1043B00069F480917205882349F041E050E0BE0124
:1043C0006F5F7F4F82E795E00E9431130F90DF917E
:1043D000CF910895AF92BF92CF92DF92EF92FF926A
:1043E0000F931F93CF93DF93CDB7DEB7C754D10997
:1043F0000FB6F894DEBF0FBECDBF6C01162F66233B
:1044000009F49AC081EB9BE00E9496067601560162
:10441000A10EB11CEA14FB0409F04AC08DEA9BE02E
:104420000E949606012F1A3208F009E2E02EF12CC4
:10443000A701B601CE0101960E94E22881E090E03A
:104440008C0F9D1FE80EF91EF70110826C01F6011A
:1044500081916F0190E00E94CD28F6013197808311
:10446000EC14FD04A1F7602FCE0101960E94C82430
:10447000811162C0602FCE0101960E943B258111FF
:104480005BC0602FCE0101960E947F27882309F12F
:1044900068E070E0CE018B960E94AB2718161906D3
:1044A0006CF420E040E0BE01655D7F4F80E042C0DB
:1044B000F70181917F010E948306ACCF0E94A8275B
:1044C00020E040E066EB71E08111F0CF6EE871E032
:1044D000EDCF8981823509F441C064F4893409F44F
:1044E000B7C08E3409F47EC020E040E065ED71E095
:1044F0008EE120C08335C1F71330B0F38A818A334F
:1045000099F7AE01495C5F4FBE01655D7F4FCE01FB
:1045100003960E94AE17BE01695C7F4FCE018B9659
:104520000E94361420E0892B09F051C041E065EC6F
:1045300071E081E00E945D19C95BDF4F0FB6F8940E
:10454000DEBF0FBECDBFDF91CF911F910F91FF90C6
:10455000EF90DF90CF90BF90AF900895133060F34D
:104560008A818A3349F76DE370E0CE0103960E9499
:10457000F228009709F4B8CFFC0111928F01AE0127
:104580004C5B5F4FBE01695C7F4FCE0103960E947A
:10459000AE17AE01405C5F4FBE01655D7F4FC80145
:1045A0000E94AE179E012C5B3F4FAE01495C5F4FEE
:1045B000BE01605C7F4FCE018B960E94671500970D
:1045C00019F420E040E082CF039631F420E040E08F
:1045D00061E971E08EE3AECF20E040E062EE71E091
:1045E0008FE3A8CF133058F18A818A3341F54BE02D
:1045F00050E060E270E0CE018B960E94EB281EAA8C
:10460000BE016D5F7F4FFB0101900020E9F7AF0114
:1046100041505109461B570B4C30510514F04BE0EB
:1046200050E0CE018B960E94E228CE018B960E942C
:104630005916892B39F46EE871E080E006C090E0ED
:1046400080E0F5CF6AEA71E089E120E040E072CFD6
:104650000E943D110E94D80F892B69F361E071E03F
:104660008AE4F3CF10928705109286051092850593
:1046700008959C01892B79F0E0918705E43058F486
:1046800081E08E0F80938705F0E0EE0FFF1FE85763
:10469000FA4F3183208308951F93CF93DF9310E067
:1046A00080918705181738F01092860510928505BD
:1046B00090E080E018C0C12FD0E0CC0FDD1FC857BC
:1046C000DA4FE881F9810480F581E02D309779F0A7
:1046D0000995882361F0E881F981F0938605E093DC
:1046E000850580819181DF91CF911F9108951F5F92
:1046F000D7CF809185059091860508951092860503
:10470000109285050895CF93DF93FC01DB011082A1
:104710001C9254985C9A89EC90E04B9B17C04C9B80
:1047200015C025E02A95F1F70000019709F04AC06D
:1047300081E08C93549A5C9885E48A95F1F70000A7
:1047400054985C9A81E197E24B9930C090E080E008
:1047500029B139B123FB222720F9C22FB0E0DB2F8A
:10476000BE01082E01C0660F0A94EAF72081262BAD
:1047700034FB442740F950E0BC016F5F7F4FDA0102
:1047800002C0AA0FBB1F6A95E2F72A2B2083B5E46B
:10479000BA95F1F70000029688309105C9F6549A4F
:1047A0005C9820EA2A95F1F781E009C04C9BCECFB6
:1047B000A5E0AA95F1F70000019731F680E0DF91BE
:1047C000CF9108954A99A9CFF9CF539A5B988FE377
:1047D00091E00197F1F700C0000008954C9B15C0CF
:1047E00080E012C085E08A95F1F700002F5F3F4F0F
:1047F000233781E03807A1F34C9BF4CF285C3109C3
:1048000081E02937310560F7089530E020E0F4CFEA
:10481000662331F0EFE1F3E03197F1F700C00000DB
:1048200021E137E24C9B33C030E020E090E0A90169
:104830004F5F5F4FBC0102C0759567954A95E2F7DF
:10484000AB014170BC01022E02C0759567950A94B8
:10485000E2F760FF25C053985B9A442321F15498F6
:104860005C9A75E47A95F1F700002E5F3F4F28308F
:104870003105E9F653985B9A54985C9A81E197E286
:104880004C9914C0F0EAFA95F1F781E00895F5E04B
:10489000FA95F1F700002150310921F680E00895E2
:1048A000539A5B98DACF549A5C98DBCFE5E0EA95AF
:1048B000F1F70000019721F7F1CF8CE092E00C9422
:1048C00039238091900581111092900508950895E3
:1048D00030E020E090E0AC01022E02C055954795F3
:1048E0000A94E2F740FF1BC054985C9A45E14A9550
:1048F000F1F7000053985B9A4AE24A95F1F700C03D
:10490000539A5B982F5F3F4F2830310521F7549819
:104910005C9A8AE68A95F1F700C081E00895549A7E
:104920005C98E4CFFC011082DB011C9290E080E0F7
:1049300061E070E021E137E207C0B5E0BA95F1F738
:10494000000021503109F1F04B9BF7CF4C9B09C07F
:104950002081AB01082E01C0440F0A94EAF7242BF2
:10496000208321E137E24B9906C0019688309105FA
:1049700009F781E0089545E04A95F1F700002150DC
:10498000310989F780E0089588E192E00C94392399
:10499000FC01623050F08081853539F481818033AB
:1049A00021F481E080939005089580E0089580913E
:1049B0009205811110929205089580E0089508955E
:1049C00021E137E24B993AC0549A5C986AE66A95BD
:1049D000F1F700C030E020E090E0A9014F5F5F4FA9
:1049E000BC0102C0759567954A95E2F7AB0141702D
:1049F000BC01022E02C0759567950A94E2F760FF2C
:104A000029C053985B9A442341F154985C9A7AE404
:104A10007A95F1F700C02E5F3F4F28303105E9F657
:104A200054985C9A53985B9A81E197E24B9B18C02B
:104A300045E84A95F1F7000081E0089545E04A9580
:104A4000F1F700002150310911F480E008954A99EE
:104A5000B9CFFBCF539A5B98D6CF549A5C98D7CFF7
:104A600025E02A95F1F70000019701F7EECF84E2E7
:104A700092E00C943923FC016330A0F080818D34E6
:104A800089F481818D3271F48281873559F4809166
:104A900091058F5F80939105833030F081E08093A2
:104AA0009205089580E0089581E008952F923F9245
:104AB0004F925F926F927F928F929F92AF92BF922E
:104AC000CF92DF92EF92FF920F931F93CF93DF93DA
:104AD000CDB7DEB7CC50D2400FB6F894DEBF0FBED4
:104AE000CDBF5C018B011A01C9016115710509F483
:104AF0005BC1FE01319620E032E0DF01A9011D9289
:104B000041505040E1F7D501A60FB71FCB5FDD4FF5
:104B1000B983A883C550D2401597C55FDD4FB983CF
:104B2000A883CB50D240CB5FDD4F28813981C5505F
:104B3000D24024503109C95FDD4F39832883C750E3
:104B4000D240A101480F591FC75FDD4F59834883E9
:104B5000C950D24064307105ECF0D5012D913D91E2
:104B60004D915C9161EB79E787E39EE90E9475289E
:104B7000CF5FDD4F688379838A839B83C150D240A6
:104B8000892F9927AA27BB27880F991FE80FF91F9C
:104B9000118210824501BFEF8B1A9B0A8101F5013A
:104BA0007401C95FDD4F28813981C750D2402E156D
:104BB0003F0508F04AC0CB5FDD4FE880F980C55063
:104BC000D240EE1AFF0A1E141F04E4F570E060E004
:104BD000BFE0EB16F10444F0C7010F976FEF70E0F0
:104BE0000E9499286F5F7F4F6F5F7F4F6E0D7F1D13
:104BF000600F711FC75FDD4F28813981C950D240D6
:104C00002617370708F4CEC068013FEFC31AD30A4E
:104C10008E2D40E1E416F1040CF08FE08295807F48
:104C2000D8018C93C7010F974FEFBFE0EB16F1044B
:104C30000CF056C1A701BF01C6010E94E2288601FF
:104C40000E0D1F1D02191309AFC0D7014D905D90C5
:104C50006D907C90A301920161EB79E787E39EE977
:104C60000E947528CF5FDD4F688379838A839B8399
:104C7000C150D240892F9927AA27BB27880F991F97
:104C800021E030E02C0F3D1F820F931FDC01CD90FF
:104C9000DC901197CA0CDB1C97012A193B092D9354
:104CA0003C9397012C193D09CF5FDD4F3983288351
:104CB000C150D240EC14FD0481F0C701821B930B5C
:104CC0008A159B0550F0D6014D915D916D917C91B7
:104CD000441655066606770621F0BFEFEB1AFB0A6D
:104CE00060CFC114D10409F466CFC701049634E043
:104CF000C30ED11C4C01C55FDD4F48815981CB509B
:104D0000D2408417950740F40196D6012D916D018C
:104D1000D4013C91321771F36401CE18DF08EE1A0A
:104D2000FF0A3701B0E1EB16F1041CF05FE0652EDD
:104D3000712CC60124E1C216D10414F083E190E085
:104D40002C0134E0431A510830E020E04FE0E41633
:104D5000F1044CF0C7010F976FEF70E00E949928A3
:104D60009B012F5F3F4F70E060E053E1C516D10417
:104D700044F0C60143976FEF70E00E9499286F5F7F
:104D80007F4F2E0D3F1D2D5F3F4F260F371F200FEA
:104D9000311FC75FDD4F88819981C950D24082178A
:104DA0009307E8F40FEF1FEFC801C45FDD4F0FB6A4
:104DB000F894DEBF0FBECDBFDF91CF911F910F9151
:104DC000FF90EF90DF90CF90BF90AF909F908F902B
:104DD0007F906F905F904F903F902F90089544E0A8
:104DE000660C771C4A95E1F76428D8016D928D0115
:104DF000C7010F97BFE0EB16F1040CF059C0A701F3
:104E0000BF01C8010E94E2280E0D1F1DF801CF5FEF
:104E1000DD4F28813981C150D240219331938F01D8
:104E200033E1C316D1046CF043E1C41AD108C801C0
:104E300001962FEFC216D1040CF044C0D801CC92D9
:104E40008C01C95FDD4FE881F981C750D240E81578
:104E5000F90508F43FC0D4012D913D914D915C912D
:104E600061EB79E787E39EE90E947528CF5FDD4F0C
:104E7000688379838A839B83C150D240892F992785
:104E8000AA27BB27880F991FE1E0F0E0EC0FFD1F78
:104E90008E0F9F1F94012A193B09DC012D933C932F
:104EA000F4017ECE4FEFD8014C938F5F91098901B9
:104EB00098012F5F3F4F8F3F9105A4F7D8018C9346
:104EC00089019DCFEFEFD801EC93FFEFCF1AD10806
:104ED0008C01ADCFF4016FCE4C938F5F91096901C6
:104EE00096012F5F3F4FD6018F3F9105ACF78C9312
:104EF0006901A0CE10929405109293050895FC01CB
:104F0000643090F080818F7D883571F481818F7D50
:104F10008A3551F482818A3339F483819FE9980F6D
:104F20009A3120F4833781F080E00895813341F095
:104F3000833551F08033C1F71092940581E00895D4
:104F400081E080939405089581E08093930508950E
:104F5000809194050895CF93DF93EC01CB012091CC
:104F600093052223C1F020919405E7E0F2E022238B
:104F700011F0E2E0F2E0059774F084E0DE010190C8
:104F80000D928A95E1F71C821092930584E090E0DF
:104F9000DF91CF9108958FEF9FEFFACF0F931F937B
:104FA000CF93DF938B01EA01243031053CF48FEF7E
:104FB0009FEFDF91CF911F910F91089524503109F8
:104FC0004C5F5F4F0E94562597FDF1CF99838883F0
:104FD0000A831B830496EDCF299A08952998089592
:104FE000CF93DF93D82FC0E00E94EC272FEF87EEFE
:104FF00093E0215080409040E1F700C000000E9403
:10500000EE272FEF87EE93E0215080409040E1F7AC
:1050100000C00000CF5FDC13E7CFDF91CF91089590
:10502000459A089545980895CF93DF93D82FC0E00F
:105030000E9410282FEF87EE93E02150804090408F
:10504000E1F700C000000E9412282FEF87EE93E0E6
:10505000215080409040E1F700C00000CF5FDC139A
:10506000E7CFDF91CF910895219A3D9A0E94EE27D4
:105070000C941228FC01079738F4EE51F44D0C946F
:10508000AD2882E00E94F0272FEF85EA9EE02150B4
:1050900080409040E1F700C00000089581E0F2CF29
:1050A00083E0F0CF82E00E941428EECF83E0FBCFB4
:1050B00081E0F9CF0E94EC270E9410282FEF87EEA5
:1050C00093E0215080409040E1F700C000000E9432
:1050D000EE270E9412282FEF87EE93E021508040A8
:1050E0009040E1F700C00000CFCFDB018F939F938A
:1050F0000E94B328BF91AF91A29F800D911DA39FE5
:10510000900DB29F900D11240895AA1BBB1B51E175
:1051100007C0AA1FBB1FA617B70710F0A61BB70B27
:10512000881F991F5A95A9F780959095BC01CD01CC
:10513000089597FB072E16F4009407D077FD09D049
:105140000E94852807FC05D03EF4909581959F4FDD
:105150000895709561957F4F0895EE0FFF1F05909C
:10516000F491E02D09940E94BE28A59F900DB49F54
:10517000900DA49F800D911D11240895A29FB00150
:10518000B39FC001A39F700D811D1124911DB29F7B
:10519000700D811D1124911D08959111089581565E
:1051A0008A5108F4805285580895FB01DC0104C03F
:1051B0008D910190801921F441505040C8F7881B0F
:1051C000990B0895FB01DC0102C001900D92415042
:1051D0005040D8F70895DC0101C06D934150504014
:1051E000E0F70895FC018191861721F08823D9F713
:1051F000992708953197CF010895AEE0B0E0E3E03C
:10520000F9E20C94B72B0D891E898F89988D26E0C1
:105210002C831A83098397FF02C080E090E80197EE
:105220009E838D83AE01455E5F4F698D7A8DCE0181
:1052300001960E942D294D815E8157FD0AC02F8164
:105240003885421753070CF49A01020F131FF80117
:1052500010822E96E4E00C94D32BAFE0B0E0E3E3B1
:10526000F9E20C94A92B7C013B018A01DC01179621
:105270001C921E92169713968C9181FFC3C19AE0DF
:10528000292EFE0131964F01D70113969C91F3010F
:1052900093FD859193FF81913F01882309F448C1D3
:1052A000853239F493FD859193FF81913F018532D9
:1052B00029F4B70190E00E941B2BE6CFB12C412CC2
:1052C000512CBFE1B51538F08B3209F188F48032EA
:1052D00001F1833221F157FC3AC020ED280F2A302A
:1052E00040F556FE1FC0B29C200D1124B22E06C000
:1052F0008D3291F0803379F7689450F8F30193FD83
:10530000859193FF81913F018111DBCF20C068948B
:1053100051F8689452F8F2CF689453F8EFCF68943C
:1053200054F8ECCF429C200D1124422E689455F87D
:10533000E5CF8E3229F456FCFBC0689456F8DECFD8
:105340008C3619F4689457F8D9CF8836B9F2982F6B
:105350009F7D95549330C0F08336A1F18337C1F11E
:10536000833509F05BC0D801CD90DD908D016B2DA8
:1053700070E056FC02C06FEF7FEFC6010E94052B64
:105380005C01689457F80AC00C5F1F4FEFE3E98394
:10539000AA24A394B12C6401E89457F853FC04C0E8
:1053A0004A141B0409F018F5342CA114B10431F58A
:1053B000332009F469CFB70180E290E00E941B2BF3
:1053C0003A94F6CFD8018C9189830E5F1F4FE0CFBE
:1053D000F801C190D1908F016B2D70E056FC02C096
:1053E0006FEF7FEFC6010E94102B5C01D5CFB70194
:1053F00080E290E00E941B2B4A94D2CFF60157FC2A
:10540000859157FE81916F01B70190E00E941B2B9F
:1054100031103A94B1E0AB1AB108C7CF843619F015
:10542000893609F074C0F80157FE6AC06191719124
:10543000819191918F01E52DEF76DE2E97FF09C0C6
:1054400090958095709561957F4F8F4F9F4F689491
:10545000D7F82AE030E0A4010E944B2BC82EC818D0
:10546000AC2C5D2CD6FE0CC0E89450F8CB1440F464
:10547000D4FE05C0D2FC03C05D2D5E7E552EAB2C44
:1054800054FE98C0FE01EC0DF11D8081803309F0BF
:105490008AC0652D697E562E752D7870372E53FC87
:1054A00098C050FE92C0BC2CA41418F44C0CB42C20
:1054B000BA1854FE94C0B70180E390E00E941B2B01
:1054C00052FE09C088E790E051FE02C088E590E0F6
:1054D000B7010E941B2BCB1408F48DC0CA94D12CA9
:1054E0008FEFC81AD80AC80CD91CD6018E916D014D
:1054F000B70190E00E941B2B8C149D04B1F758CF8C
:1055000061917191072E000C880B990B93CFD52CCC
:10551000E894D4F82AE030E0853739F1F52DF97FA9
:10552000DF2E8037A9F058F48835A9F08F36D9F0EE
:10553000F701868197812F96E2E10C94C52B88377D
:10554000B9F7D4FE02C06894D2F820E130E00DC073
:105550006894D4F8F6CF54FE03C02F2F2660D22EC5
:1055600020E132E002C028E030E0F801D7FE15C0AB
:1055700041915191619171914C875D876E877F87D1
:105580008F01A4016C857D858E859F850E944B2BA4
:10559000C82EC818E894D7F863CF81919191AC01D7
:1055A00070E060E0E9CF52FC02C0A39475CFA394F1
:1055B000A39472CF852D867809F46ECFF6CFB7010C
:1055C00080E290E00E941B2BA394A414C0F3312C22
:1055D00070CF342C3A18A41408F46BCFF8CF852D73
:1055E000867809F478CF8BE251FE80E257FC8DE299
:1055F000B70190E06ECFB70180E390E00E941B2BD3
:10560000BA9469CF8FEF9FEF96CFFC010590615060
:1056100070400110D8F7809590958E0F9F1F0895C8
:10562000FC016150704001900110D8F78095909571
:105630008E0F9F1F08950F931F93CF93DF93182F03
:10564000092FEB018B8181FD09C01FEF0FEF812F27
:10565000902FDF91CF911F910F91089582FF14C079
:105660002E813F818C819D81281739073CF4E88188
:10567000F981CF0101969983888310838E819F8160
:1056800001969F838E83E3CFE885F985812F099565
:10569000892BA1F3DACFFA01AA27283051F1203162
:1056A00081F1E8946F936E7F6E5F7F4F8F4F9F4FB6
:1056B000AF4FB1E03ED0B4E03CD0670F781F891FF8
:1056C0009A1FA11D680F791F8A1F911DA11D6A0FC6
:1056D000711D811D911DA11D20D009F468943F9179
:1056E0002AE0269F11243019305D3193DEF6CF0178
:1056F0000895462F4770405D4193B3E00FD0C9F73E
:10570000F6CF462F4F70405D4A3318F0495D31FDAA
:105710004052419302D0A9F7EACFB4E0A6959795FD
:10572000879577956795BA95C9F7009761057105D3
:1057300008959B01AC010A2E06945795479537951D
:105740002795BA95C9F7620F731F841F951FA01D77
:1057500008952F923F924F925F926F927F928F9215
:105760009F92AF92BF92CF92DF92EF92FF920F93F0
:105770001F93CF93DF93CDB7DEB7CA1BDB0B0FB6FA
:10578000F894DEBF0FBECDBF09942A8839884888B7
:105790005F846E847D848C849B84AA84B984C8844D
:1057A000DF80EE80FD800C811B81AA81B981CE0F44
:1057B000D11D0FB6F894DEBF0FBECDBFED01089529
:1057C000F894FFCF41284E2850285A2852285628AE
:0257D000582857
:1057D200FF4452495645204E4F54205245414459A8
:1057E200004E4F204E414D45202020200036344BA4
:1057F2004F525050550036344B4F52505055202086
:1058020020004641543132202020005052470036B9
:10581200344B4F525050552056312E3000253032E5
:10582200642C2025732C253032642C253032640DF3
:1058320000444952005345510036344B4F525050A8
:10584200552020202020202020003634204641549C
:1058520000424C4F434B5320465245452E004F4B7E
:105862000046494C45204E4F5420464F554E440069
:105872004449534B2046554C4C00575249544520FD
:105882004552524F52004F4B20434F4D50524553B9
:1058920053204F4E0046494C4553205343524154E6
:1058A200434845440053594E544158204552524FA3
:1058B200520046494C4520455849535453004A69C1
:1058C200666679444F5300427572737400455059AD
:1058D2005800585A3A3100585A3A30000100EE0145
:1058E200EE2308248323E5230200F70161246824C0
:1058F200922467240300FD01D724E024DD24DF2461
:00000001FF
