:100000000C940D070C94181D0C942A070C942A07C5
:100010000C942A070C942A070C942A070C942A079C
:100020000C942A070C942A070C944F0E0C942A0760
:100030000C942A070C942A070C942A070C942A077C
:100040000C942A070C942A070C942A070C942A076C
:100050000C942A070C942A070C942A070C942A075C
:100060000C942A070C942A0752656164792E0D0AB4
:10007000004D6F756E74206661696C65640D0A00D1
:100080004641543132204F4B0D0A004D6F756E744E
:100090002046415431322E2E2E0D0A004E6F206420
:1000A00069736B20696E2064726976650D0A00447D
:1000B00072697665204F4B0D0A004E6F206472699D
:1000C0007665210D0A00466C6F70707920696E6943
:1000D000742E2E2E0D0A00436F6D7072657373209F
:1000E0004F4B0D0A00466173746C6F6164204F4B77
:1000F0000D0A00494543206465766963652023380D
:100100000D0A0037344843353935204F4B0D0A006E
:100110005352414D204F4B0D0A000D0A3D3D3D20ED
:1001200036346B6F727070752076312E3020284E09
:10013000616E6F2B5352414D29203D3D3D0D0A000C
:100140000D0A0020455252005B4449534B5D207715
:10015000726974652072633D000D0A0020523D00F3
:1001600020533D0020543D005B4449534B5D2077B4
:1001700072697465204C42413D000D0A00204552D1
:1001800052005B4449534B5D207265616420726389
:100190003D000D0A0020523D0020533D0020543DFB
:1001A000005B4449534B5D2072656164204C4241C1
:1001B0003D003031323334353637383941424344EB
:1001C000454600204641494C210D0A00204F4B0D69
:1001D0000A002072656164203078005B5352414D03
:1001E0005D20746573743A2077726F74652030787F
:1001F000005B5352414D5D20696E69742053504934
:100200002E2E2E0D0A00202F4F453D4F4E0D0A0079
:100210005B53525D2064656661756C743D30780097
:100220005B53525D20696E69740D0A005B464C5049
:100230005D207772697465204F4B0D0A005B464C58
:10024000505D204D464D20777269746520464149C6
:100250004C0D0A005B464C505D204D464D20777298
:100260006974652E2E2E0D0A005B464C505D20777A
:10027000726974653A207365656B206661696C65A7
:10028000640D0A005B464C505D20777269746520EE
:100290004552523A2077726974652070726F7465A6
:1002A00063746564210D0A005B464C505D207772D3
:1002B000697465204552523A206261642073656317
:1002C000746F720D0A000D0A0020523D0020533D4C
:1002D000005B464C505D20777269746520543D0088
:1002E0000D0A005B464C505D2072656164204F4BE7
:1002F0002C2066697273742062797465733A2000E9
:100300005B464C505D204D464D206465636F6465CF
:10031000204641494C0D0A002E2E2E0D0A005B4648
:100320004C505D204D464D206465636F64652052DE
:100330003D005B464C505D204D464D20636170741E
:10034000757265204F4B0D0A000D0A005B464C503C
:100350005D204D464D206361707475726520464185
:10036000494C2072633D005B464C505D204D464D2C
:1003700020636170747572652E2E2E0D0A005B4627
:100380004C505D20726561643A207365656B206630
:1003900061696C65640D0A000D0A005B464C505D96
:1003A0002057503D005B464C505D207265616420D3
:1003B0004552523A2062616420736563746F720D16
:1003C0000A000D0A0020523D0020533D005B464CC0
:1003D000505D207265616420543D000D0A005B464B
:1003E0004C505D20736964653D000D0A002D3E543C
:1003F000005B464C505D207365656B2054005B4686
:100400004C505D207365656B3A206E6F7420696E89
:10041000697469616C697A65642C20726563616CCA
:100420006962726174696E670D0A000D0A00203EF0
:100430003D20005B464C505D207365656B20455246
:10044000523A20747261636B2000202D3E20646953
:10045000736B204E4F542050524553454E540D0A55
:1004600000202D3E206469736B2050524553454E49
:10047000540D0A00205750543D005B464C505D20FF
:100480006469736B20636865636B3A2044534B4324
:1004900048473D005B464C505D204552523A20543F
:1004A000524B3030206E6F7420666F756E64206121
:1004B00066746572203835207374657073210D0A77
:1004C000002073746570730D0A005B464C505D200C
:1004D00054524B303020666F756E642061667465CF
:1004E0007220005B464C505D20726563616C6962EE
:1004F000726174653A207365656B696E672074720A
:1005000061636B20302E2E2E0D0A005B464C505D31
:10051000206D6F746F72204F46460D0A005B464C8B
:10052000505D206D6F746F72207370696E2D7570E1
:100530002074696D656F757420286E6F202F52448A
:10054000415441290D0A000D0A005B464C505D20C4
:100550005741524E494E473A207369676E616C208D
:10056000746F6F20666173742C206E6F6973653FC2
:10057000206176673D002028657870656374656446
:10058000207E313030292E20436865636B20313264
:100590005620737570706C792E0D0A005B464C50B6
:1005A0005D205741524E494E473A206D6F746F722D
:1005B00020746F6F20736C6F7721206176673D0028
:1005C000207469636B730D0A006D732C206176676C
:1005D00020696E74657276616C3D005B464C505DBF
:1005E000206D6F746F72207265616479206166742A
:1005F000657220005B464C505D206D6F746F7220F9
:100600004F4E2C2077616974696E6720666F722087
:1006100073706565642E2E2E0D0A000D0A005B4670
:100620004C505D20696E697420646F6E652C205398
:10063000523D3078000D0A002044534B4348473D5B
:1006400000205750543D005B464C505D20696E7051
:100650007574733A2054524B30303D005B464C5019
:100660005D20696E6974204750494F2E2E2E0D0A69
:10067000005B4D464D5D20736563746F722073633C
:10068000616E2074696D656F75740D0A000D0A0046
:1006900020617420543D005B4D464D5D20666F75B2
:1006A0006E6420736563746F7220002E2E2E0D0A07
:1006B000005B4D464D5D207363616E20666F722056
:1006C000736563746F7220005B4D464D5D207772D9
:1006D000697465204F4B0D0A000D0A0020523D0041
:1006E00020533D005B4D464D5D2077726974652057
:1006F000543D00206E6F7420666F756E640D0A00A5
:100700005B4D464D5D206465636F646520464149DD
:100710004C3A20736563746F7220005B4D464D5DEB
:10072000206465636F6465204F4B2C203531322087
:1007300062797465730D0A000D0A00204D4154431F
:1007400048210D0A00204E3D0020523D0020533D1F
:10075000005B4D464D5D204944414D3A20543D00DB
:100760000D0A005B4D464D5D206D61726B3D30782A
:10077000000D0A002040005B4D464D5D2053594E50
:10078000432120636F756E743D000D0A003A20000E
:100790000D0A5B4D464D5D20707265616D626C6542
:1007A000204000207061636B730D0A002C2073637E
:1007B000616E20005B4D464D5D206465636F64652E
:1007C00020736563746F7220000D0A0020696E76D5
:1007D0003D002034543D002033543D005B4D464DD8
:1007E0005D20686973742032543D005B4D464D5D59
:1007F00020636170747572652054494D454F55549E
:10080000210D0A006D730D0A00207061636B732C5B
:1008100020005B4D464D5D20636170747572653AD2
:1008200020005B4D464D5D206361707475726520DC
:1008300073746172740D0A000D0A00206D6F643DBF
:10084000002077726974653D005B4641545D20630A
:100850006C6F73653A20706F733D000D0A00207352
:10086000697A653D005B4641545D206F70656E6539
:10087000643A20636C75737465723D005B46415445
:100880005D2066696C65206E6F7420666F756E649E
:100890000D0A00270D0A005B4641545D206F70650C
:1008A0006E5F726561642027005B4641545D206D78
:1008B0006F756E74204F4B0D0A000D0A005B4641A8
:1008C000545D20464154312072656164204641499F
:1008D0004C20617420736563746F7220002073650F
:1008E00063746F7273292E2E2E0D0A005B464154DD
:1008F0005D2072656164696E67204641543120282D
:10090000005B4641545D206E6F20626F6F742073F0
:1009100069672C2064656661756C74206C61626522
:100920006C0D0A000D0A00272073657269616C3D29
:100930003078005B4641545D206C6162656C3D27F8
:10094000005B4641545D204552523A207370633D2E
:100950003D300D0A005B4641545D204552523A201D
:100960006E666174213D320D0A005B4641545D2084
:100970004552523A20627073213D3531320D0A00E2
:100980000D0A00207369673D30780020726F6F7424
:100990003D002068656164733D00207370743D0004
:1009A0005B4641545D204250423A207370663D00E0
:1009B0000D0A00206D656469613D30780020746F18
:1009C000743D00206E6661743D00207370633D00CD
:1009D0005B4641545D204250423A206270733D00B4
:1009E0005B4641545D206D6F756E743A20626F6F87
:1009F0007420736563746F72207265616420464170
:100A0000494C0D0A005B4641545D206D6F756E7454
:100A10003A2072656164696E6720626F6F7420733B
:100A20006563746F722E2E2E0D0A005B4641545D75
:100A300020616C7265616479206D6F756E74656498
:100A40000D0A005B4945435D206C697374656E2037
:100A5000454F490D0A00270D0A005B4945435D20BB
:100A600066696C656E616D653D27005B4945435D58
:100A7000206C697374656E207265637620666169A7
:100A80006C0D0A005B4945435D2041544E2064755E
:100A900072696E67206C697374656E0D0A000D0AC9
:100AA000005B4945435D206C697374656E696E67D0
:100AB00020666F7220646174612053413D005B4980
:100AC00045435D20666173746C6F6164206163747B
:100AD0006976650D0A005B4945435D2041544E200F
:100AE00072656C65617365642C20646574656374FC
:100AF00020666173746C6F61640D0A00203F3F0DC6
:100B00000A000D0A0020434C4F53452053413D003D
:100B10000D0A00204F50454E2053413D005B494592
:100B2000435D202D3E2054414C4B45520D0A000D93
:100B30000A002054414C4B2023005B4945435D2073
:100B40002D3E204C495354454E45520D0A000D0A86
:100B500000204C495354454E20230020554E54410B
:100B60004C4B0D0A0020554E4C495354454E0D0A2E
:100B7000005B4945435D20636D643D3078005B490F
:100B800045435D2041544E2062797465207265634F
:100B900076206661696C0D0A005B4945435D204122
:100BA000544E0D0A005B4945435D2074616C6B3AFD
:100BB000206E6F20646174612C2072656C656173B6
:100BC000650D0A005B4945435D2074616C6B3A20FA
:100BD000454F492C20646F6E650D0A005B49454303
:100BE0005D2074616C6B3A2073656E642066616988
:100BF0006C65640D0A005B4945435D207265696E52
:100C0000697420646F6E652C2072656164790D0AC9
:100C1000005B4945435D206D6F756E7420666169A8
:100C20006C65640D0A005B4945435D2046415431C3
:100C300032204F4B0D0A005B4945435D206D6F75B7
:100C40006E742046415431322E2E2E0D0A005B491F
:100C500045435D206E6F206469736B20696E20646C
:100C6000726976650D0A005B4945435D20647269CF
:100C70007665204F4B0D0A005B4945435D206E6F42
:100C8000206472697665210D0A005B4945435D2049
:100C900072657365742072656C65617365642C2080
:100CA0007265696E697420666C6F7070790D0A00E8
:100CB0005B4945435D202A2A2A204255532052454C
:100CC000534554202A2A2A0D0A005B4945435D20DA
:100CD000706F6C6C3A2041544E20647572696E6777
:100CE00020776169740D0A000D0A00205253543DAB
:100CF0000020444154413D0020434C4B3D005B49A2
:100D000045435D206275733A2041544E3D000D0A03
:100D1000005B4945435D20696E69742064657620F7
:100D20002300270D0A005B444F535D20636D643A36
:100D30002027000D0A005B444F535D20636C6F73E6
:100D4000652053413D005B444F535D206F70656EDD
:100D5000204F4B0D0A000D0A005B444F535D20539A
:100D600041564520637265617465206661696C65F2
:100D7000642072633D005B444F535D2053415645F0
:100D80000D0A000D0A005B444F535D204C4F414457
:100D9000206661696C65642072633D005B444F535B
:100DA0005D204C4F41440D0A00270D0A00272E27D5
:100DB000005B444F535D207061727365643A202775
:100DC000000D0A005B444F535D20646972206C651E
:100DD0006E3D005B444F535D20646972206C697303
:100DE00074696E670D0A005B444F535D204452499D
:100DF0005645204E4F542052454144590D0A002774
:100E00000D0A002066696C653D27005B444F535D09
:100E1000206F70656E2053413D0011241FBECFEF3F
:100E2000D8E0DEBFCDBF12E0A0E0B1E0E2EDF1E638
:100E300002C005900D92A033B107D9F725E0A0E3D9
:100E4000B2E001C01D92A839B207E1F70E949A08EA
:100E50000C94E0300C9400001092C5008FEC80934D
:100E6000C400E0ECF0E080818260808388E08093C1
:100E7000C10086E08093C20008959091C00095FF64
:100E8000FCCF8093C6000895CF93DF93EC01899146
:100E9000811103C0DF91CF9108950E943D07F7CFE4
:100EA000CF93DF93EC01FE0184912196811103C061
:100EB000DF91CF9108950E943D07F5CFCF93C82FC2
:100EC000E82FE295EF70F0E0EE54FE4F84910E941F
:100ED0003D07CF70EC2FF0E0EE54FE4F8491CF91A0
:100EE0000C943D07CF93C82F892F0E945E078C2F4B
:100EF000CF910C945E07CF92DF92EF92FF920F9307
:100F00001F93CF93DF9300D000D000D0CDB7DEB7D2
:100F10009C01892B89F480E326960FB6F894DEBFF6
:100F20000FBECDBFDF91CF911F910F91FF90EF903A
:100F3000DF90CF900C943D07CE0101967C01FC011F
:100F400010E000E08AE0C82ED12C0F5F1F4FC901CE
:100F5000B6010E94852D805D8193C9019B010A978E
:100F6000A0F70E0D1F1DF80182918F010E943D0711
:100F70000E151F05C1F726960FB6F894DEBF0FBEFB
:100F8000CDBFDF91CF911F910F91FF90EF90DF9038
:100F9000CF900895BF92CF92DF92EF92FF920F937E
:100FA0001F93CF93DF93182FD92FF62E072F64E2CC
:100FB00070E00E94852D6B0162E170E00E94852D3A
:100FC000E62EB72EC1E0C80F81EA91E00E945007DB
:100FD000812F9D2F0E947B078DE991E00E94500791
:100FE000C60199270E947B0789E991E00E9450077A
:100FF0008E2D9B2D0E947B0785E991E00E94500772
:101000008C2F90E00E947B0782E991E00E945007BC
:101010002F2D302F4C2F6E2D8C2D0E94610CEC014A
:1010200082E891E00E945007CE01D7FF04C08827D4
:1010300099278C1B9D0B0E947B07D7FF04C08DE76F
:1010400091E00E9450078AE791E00E945007CE018C
:10105000DF91CF911F910F91FF90EF90DF90CF9094
:10106000BF900895BF92CF92DF92EF92FF920F93BD
:101070001F93CF93DF93182FD92FF62E072F64E2FB
:1010800070E00E94852D6B0162E170E00E94852D69
:10109000E62EB72EC1E0C80F88E691E00E94500707
:1010A000812F9D2F0E947B0784E691E00E945007CC
:1010B000C60199270E947B0780E691E00E945007B5
:1010C0008E2D9B2D0E947B078CE591E00E9450079E
:1010D0008C2F90E00E947B0789E591E00E945007E9
:1010E0002F2D302F4C2F6E2D8C2D0E94190DEC01C1
:1010F00088E491E00E945007CE01D7FF04C0882702
:1011000099278C1B9D0B0E947B07D7FF04C083E4AB
:1011100091E00E94500780E491E00E945007CE01C8
:10112000DF91CF911F910F91FF90EF90DF90CF90C3
:10113000BF900895F894569A5E980E942C078AE111
:1011400091E00E9450070E94342D0E94B80980E16E
:1011500091E00E9450070E942C0A83E091E00E94D7
:1011600050070E943D0E83EF90E00E94500788E0F8
:101170000E94741E0E9485210E9432280E945D29CF
:101180000E94C4290E94372A85EE90E00E945007F1
:101190000E947A2C87ED90E00E94500778940E947C
:1011A0007D0A86EC90E00E9450070E94C70A0E94C8
:1011B0006E0B892B81F08AEB90E00E94500720E0B3
:1011C00040E061E071E08AE40E944D1E85E090E01D
:1011D0000E943A2D22C08FEA90E00E9450070E94A0
:1011E000A80B81110EC08CE990E00E94500720E00E
:1011F00040E061E071E08AE40E944D1E86E090E0EC
:10120000E7CF8BE890E00E9450070E94C014892B22
:1012100089F480E890E00E9450070E94600B88E605
:1012200090E00E94500790E080E00E943A2D0E94DA
:10123000F51EFDCF81E790E0D8CF8EBD0DB407FE3F
:10124000FDCF8EB50895CF93C62F872F0E941D091D
:101250008C2FCF910C941D09CF92DF92EF92FF92C9
:101260000F931F93CF93DF936B01D82FC92F7A0170
:1012700089012A9883E00E941D09B6018D2F9C2FB9
:101280000E942309E7010E0D1F1DC017D10751F45D
:101290002A9ADF91CF911F910F91FF90EF90DF90ED
:1012A000CF90089580E00E941D098993EECFCF92E0
:1012B000DF92EF92FF920F931F93CF93DF936B0117
:1012C000D82FC92F7A0189012A9882E00E941D092E
:1012D000B6018D2F9C2F0E942309E7010E0D1F1DC3
:1012E000C017D10751F42A9ADF91CF911F910F9126
:1012F000FF90EF90DF90CF90089589910E941D0993
:10130000EFCF0F931F93CF93DF938B01D82FC92F6C
:101310002A9883E00E941D09B8018D2F9C2F0E94FE
:10132000230980E00E941D092A9ADF91CF911F9125
:101330000F910895FF920F931F93CF93DF93F62E93
:10134000072F182FD92FC42F2A9882E00E941D0939
:101350006F2D702F812F9D2F0E9423098C2F0E94AB
:101360001D092A9ADF91CF911F910F91FF90089547
:10137000CF9381EF91E00E94500784B18C6284B9D1
:1013800024982A9A80E58CBD8DB581608DBD2A9800
:1013900081E00E941D0980E40E941D092A9A45EA05
:1013A00060E070E0CB010E949A0960E070E0CB0140
:1013B0000E948109C82F8BED91E00E94500785EAB9
:1013C0000E945E0782ED91E00E9450078C2F0E94E0
:1013D0005E078CEC91E0C53A11F083EC91E0CF917F
:1013E0000C9450070F931F93CF93DF938B01D82F4B
:1013F000C92F2A9882E00E941D09B8018D2F9C2FC9
:10140000DF91CF911F910F910C9423092A9A08958F
:101410000F931F93CF93DF938B01D82FC92F2A9857
:1014200083E00E941D09B8018D2F9C2FDF91CF9181
:101430001F910F910C9423091EBC0DB407FEFDCF24
:101440008EB508952A9A809300018EBD0DB407FED3
:10145000FDCF5E9A5E98089580E292E00E94500768
:10146000569A5E988FEF809300010E94220A3B9A61
:10147000439880E192E00E945007809100010E9411
:101480005E0786E092E00C94500721E030E001C056
:10149000220F8A95EAF7209580910001822380939C
:1014A00000010C94220A21E030E001C0220F8A954D
:1014B000EAF780910001822B809300010C94220AAC
:1014C0008823B9F085E00E94450A85E38A95F1F703
:1014D000000086E00E94450A90E19A95F1F786E0C7
:1014E0000E94530A8FED9EE20197F1F700C00000C1
:1014F000089585E00E94530AE8CFCF938CE596E0EB
:101500000E94500787B1887F87B988B1876088B902
:101510002098579A5F9A219A85EF0E94220AC6B1B5
:1015200087E496E00E9450078CE4C0FD88E40E94A6
:101530003D0781E496E00E9450078CE4C1FD88E4F9
:101540000E943D0788E396E00E9450078CE4C2FDAC
:1015500088E40E943D0785E396E00E9450071092C0
:101560003002109231021092320210923302109225
:101570003402109235028EE196E00E94500785EF0A
:101580000E945E078BE196E0CF910C945007CF92BA
:10159000DF92EF92FF920F931F93CF93DF9380918F
:1015A0003202811169C084EF95E00E94500782E009
:1015B0000E94450A84E00E94450A299A20918600EB
:1015C00030918700D0E0C0E090E0C12CD12C7601B2
:1015D00060E2EFE9FFE03197F1F700C00000B59B52
:1015E00054C04091860050918700FA01E21BF30B32
:1015F0009F0166BBB897E13CF10508F048C0C20EF8
:10160000D31EE11CF11C9F5F81E0903108F480E063
:101610009A012196C83EF3E0DF0709F43FC0882312
:10162000C1F284E0F694E794D794C7948A95D1F7F1
:1016300086018BED95E00E945007CE010E947B074A
:1016400089EC95E00E945007C6010E947B0780EC60
:1016500095E00E9450070B3A110528F18CE995E0BE
:101660000E945007C6010E947B0786E795E00E9412
:10167000500781E080933202DF91CF911F910F914B
:10168000FF90EF90DF90CF90089580E0C2CF80E090
:101690009A01C12CD12C760190E0BBCF8111C1CF32
:1016A0008DE195E0E4CF0233110518F78AE495E067
:1016B0000E945007C6010E947B0787E495E0D7CFC0
:1016C0008BE095E00E94500782E00E94530A84E07C
:1016D0000E94530A10923202299808951F93CF93C3
:1016E000DF9383EE94E00E945007D0E0C0E0309991
:1016F00021C01092300281E0809335021FE08FE913
:101700009FE00197F1F700C000000E943A211150BC
:10171000B1F78AEC94E00E945007CE010E947B074B
:1017200081EC94E00E94500790E080E0DF91CF913F
:101730001F91089580E00E94600A2196C535D10569
:10174000B1F684E994E00E9450078FEF9FEFEECF4F
:10175000CF93DF9386B1D82FD47082FBCC27C0F90A
:10176000C093330286B18695817091E0892780937A
:1017700034028AE794E00E9450078CE4D11188E497
:101780000E943D0784E794E00E9450078091340254
:1017900081110FC08EE40E943D0781E694E0D111D3
:1017A00002C08AE494E00E9450078C2FDF91CF9111
:1017B000089589E5F0CFCF93C82F8035C0F083E33B
:1017C00094E00E9450078C2F90E00E947B078EE2ED
:1017D00094E00E94500780E590E00E947B078BE236
:1017E00094E00E9450078EEF9FEFCF910895809173
:1017F0003502882359F1809130028C17A9F081EFCE
:1018000093E00E9450078091300290E00E947B0795
:101810008DEE93E00E9450078C2F90E00E947B0792
:101820008AEE93E00E94500780913002C81317C0DF
:10183000CFE08FE99FE00197F1F700C000000E9420
:101840003A21C150B1F790E080E0CFCF8EEF93E026
:101850000E9450070E946E0B009769F2C6CF8C174A
:1018600048F481E00E94600A809130028F5F80938B
:101870003002DACF80E00E94600A8091300281500D
:10188000F6CFCF93C82F8EED93E00E9450078C2F98
:1018900090E00E947B078BED93E00E94500780E070
:1018A000CC2361F00E94450AC09331028FE891E099
:1018B0000197F1F700C00000CF9108950E94530AEC
:1018C000F3CFCF92DF92EF92FF920F931F93CF93BC
:1018D000DF93C82FE62EF42E89018DEC93E00E9451
:1018E00050078C2F90E00E947B0789EC93E00E94C8
:1018F00050078E2D90E00E947B0785EC93E00E94BC
:101900005007CF2CD12CC6010E947B0782EC93E0BC
:101910000E9450078FEF8F0D823180F085EA93E0AF
:101920000E945007C8EFDFEFCE01DF91CF911F91EA
:101930000F91FF90EF90DF90CF9008950E94C70A1B
:1019400096B19695917081E09827909334028BE937
:1019500093E00E9450078091340281112DC08EE4E3
:101960000E943D0788E993E00E9450078C2F0E9457
:10197000DB0BEC018EE793E0209709F057C08E2D2A
:101980000E94410C87E693E00E9450070E94CC0E13
:10199000EC01892B99F08CE493E00E945007882792
:1019A00099278C1B9D0B0E947B0789E493E00E9482
:1019B0005007CDEFDFEFB8CF89E5D2CF82E393E0D8
:1019C0000E9450078EE193E00E945007C6010E94DA
:1019D0007B0788E193E00E945007B8018F2D0E9499
:1019E000C10FEC01892B19F080E093E0E0CF83EE8A
:1019F00092E00E945007F80180810E945E0780E219
:101A00000E943D07F80181810E945E0780E20E94EA
:101A10003D07F80182810E945E0780E20E943D0737
:101A2000F80183810E945E0780EE92E00E945007D9
:101A30007BCFBF92CF92DF92EF92FF920F931F93D3
:101A4000CF93DF9300D000D000D0CDB7DEB7D82E33
:101A5000E62EF42EB22EC32E81ED92E00E945007A6
:101A60008D2D90E00E947B078DEC92E00E94500744
:101A70008E2D90E00E947B0789EC92E00E94500737
:101A80008F2D90E00E947B0786EC92E00E94500729
:101A90008FEF8F0D8231B8F088EA92E00E945007F4
:101AA00008EF1FEFC80126960FB6F894DEBF0FBEF1
:101AB000CDBFDF91CF911F910F91FF90EF90DF90FD
:101AC000CF90BF9008950E94C70A319907C084E85B
:101AD00092E00E9450070BEF1FEFE4CF8D2D0E9484
:101AE000DB0B8C0189E692E00115110509F58E2DBD
:101AF0000E94410C1E821D82D982EA82FB8282E012
:101B00008C8384E592E00E9450076B2D7C2DCE01E2
:101B100001960E94CE118C018CE292E00115110514
:101B200039F08DE392E00E9450070CEF1FEFBACF1F
:101B30000E945007B7CFB19BFECF82E086BB809159
:101B40008800909189008096909389008093880006
:101B5000089580E286BB81E593ECB59B1DC0809122
:101B600086009091870020913E0230913F02821BB7
:101B7000930B209186003091870030933F02209391
:101B80003E028037910560F08039910558F0803C25
:101B9000910520F482E008950197F9F683E0089515
:101BA00080E0089581E008955F9800C000C00000C3
:101BB0005F9A08950F931F93CF93DF93CFE0D0E008
:101BC00001E010E00E949B0DC8010C2E02C0880F9E
:101BD000991F0A94E2F789789474892B11F00E9476
:101BE000D40D219778F781E080933602DF91CF9171
:101BF0001F910F910895EF92FF920F931F93CF9330
:101C0000DF9307E010E0E82EF12CE701002E02C080
:101C1000D595C7950A94E2F7C1700E949B0D8091FB
:101C200036028C2B11F40E94D40D0E949B0DC11121
:101C30000E94D40DC09336020150110930F7DF9194
:101C4000CF911F910F91FF90EF900895FC01680FC5
:101C5000791FCA01E617F70709F408952191922721
:101C600028E0AC01880F991F57FF04C031E2832799
:101C700030E193272150A9F7EDCF10928000E1E8E1
:101C8000F0E081E0808380818F7B80838081806829
:101C90008083EFE6F0E080818F7D808308950F924E
:101CA0000FB60F921F9211242F933F938F939F9300
:101CB000AF93BF93809186009091870020913E0260
:101CC00030913F02821B930B209186003091870058
:101CD00030933F0220933E028037910508F456C0AE
:101CE0008039910508F454C0803C910508F452C035
:101CF00083E02091390294E0299F90011124822BE6
:101D000080933902809138028F5F809338028091EE
:101D100038028430D8F0809139028EBD0DB407FEB0
:101D2000FDCF80913A0290913B02A0913C02B0918C
:101D30003D020196A11DB11D80933A0290933B0292
:101D4000A0933C02B0933D021092380280913A0277
:101D500090913B02A0913C02B0913D02803C9043A7
:101D6000A105B10540F080916F008F7D80936F00D9
:101D700081E080933702BF91AF919F918F913F9106
:101D80002F911F900F900FBE0F90189580E0B1CF4C
:101D900081E0AFCF82E0ADCFCF92DF92EF92FF92A2
:101DA0000F931F93CF93DF93CDB7DEB728970FB66E
:101DB000F894DEBF0FBECDBF82E298E00E945007CC
:101DC00010923A0210923B0210923C0210923D0295
:101DD00010923902109238021092370260E070E0DF
:101DE000CB010E94F209B59A8091860090918700FC
:101DF00090933F0280933E0280916F0080628093B7
:101E00006F00789410E000E080913702811104C0E7
:101E1000043F91E01907C1F580916F008F7D809399
:101E20006F000E94060A82E198E00E9450078091AC
:101E30003A0290913B02A0913C02B0913D020E9477
:101E40007B0789E098E00E945007C8010E947B0749
:101E500084E098E00E945007043F1140F1F48BEEBB
:101E600097E00E94500787EF9FEF28960FB6F894EF
:101E7000DEBF0FBECDBFDF91CF911F910F91FF90BD
:101E8000EF90DF90CF9008958FE99FE00197F1F7F1
:101E900000C000000F5F1F4FB7CFCE0101966C014D
:101EA00088E0F60111928A95E9F760E070E0CB01D5
:101EB0000E94080A80913A0290913B02A0913C0254
:101EC000B0913D0204EF11E0853F9140A105B105BD
:101ED00040F400913A0210913B0220913C02309173
:101EE0003D02F12CE12CE016F10649F50E94060AAC
:101EF0008CED97E00E94500789819A810E947B07B0
:101F000087ED97E00E9450078B819C810E947B07A0
:101F100082ED97E00E9450078D819E810E947B0791
:101F20008CEC97E00E9450078F8198850E947B0778
:101F300089EC97E00E94500790E080E096CF0E94E5
:101F40001C0A26E030E090E0FC01022E02C0F5956C
:101F5000E7950A94E2F7E370FF27EE0FFF1FEC0D01
:101F6000FD1D408151814F5F5F4F5183408322505F
:101F700031092E3F4FEF340739F78FEFE81AF80A8F
:101F8000B2CF2F923F924F925F926F927F928F9239
:101F90009F92AF92BF92CF92DF92EF92FF920F93F8
:101FA0001F93CF93DF93CDB7DEB768970FB6F89442
:101FB000DEBF0FBECDBF8E8B698B7A8B84EB97E033
:101FC0000E9450073E89232F30E03C8B2B8BC901A8
:101FD0000E947B078CEA97E00E94500780913A02AA
:101FE00090913B02A0913C02B0913D020E947B0780
:101FF00083EA97E00E94500760E070E0CB010E9406
:10200000080A1D861E861F86188A1C8644244A9448
:1020100019861D821E821F821886312C212C512C7C
:10202000712C10E0F12CE12C1D8A612C00E0812C38
:10203000912C540180913A0290913B02A0913C0274
:10204000B0913D022D853E854F8558892817390767
:102050004A075B0788F00E94060A80E097E00E942A
:1020600050078B899C890E947B0783EF96E00E9432
:10207000500788EF9FEF65C10E941C0A46E050E0C0
:102080005B874A87A82FB0E0B88FAF8B8F89988D78
:102090000A8402C0959587950A94E2F7837081308F
:1020A00009F44AC0823009F452C081116EC162E065
:1020B000880C991CAA1CBB1C6A95D1F7689480F8FF
:1020C0000E5F0F3108F00EE12D813E814F81588562
:1020D0002F5F3F4F4F4F5F4F2D833E834F83588776
:1020E000640135E583169306E9F549854F5F498715
:1020F0004430C8F15FEF451236C08C858330A8F5B7
:1021000080E997E00E9450078D819E810E947B07A5
:102110008DE897E00E9450073EE1432EC6010E94E1
:10212000720780E20E943D078FEF840D91E049160F
:1021300009F464C0482E19C053E0880C991CAA1CED
:10214000BB1C5A95D1F7689480F80D5FBACF44E074
:10215000880C991CAA1CBB1C4A95D1F7689480F87E
:102160000C5FAFCF19861414CCF2E114F10409F01E
:1021700081C0D501C401AA27BB2789389444A10591
:10218000B10539F563948D819E81AF81B885803525
:10219000934CA105B105A0F487E797E00E94500792
:1021A000862D90E00E947B0784E797E00E9450070D
:1021B0008D819E810E947B0781E797E00E945007F6
:1021C00032E0361530F4712C10E0EE24E394F12C5B
:1021D00000E08A859B8502979B878A87029609F093
:1021E00055CF2D853E854F8558892F5F3F4F4F4FE7
:1021F0005F4F2D873E874F87588B1CCF8AE897E02B
:102200000E945007AC85AF5FAC87412CAECF025027
:10221000D501C401002E04C0B695A7959795879562
:102220000A94D2F78170110F182B739473944FE0B6
:10223000471500F551E0E516F104F9F483E697E05F
:102240000E945007812F0E945E0780E697E00E945F
:1022500050071E3F09F48EC01B3F09F056C08D8900
:10226000882309F452C0312C212C712C10E093E00A
:10227000E92EF12C023058F6ACCF92E0E916F104C9
:1022800009F048C0DD24D394D50CE1E0F0E0EC0F78
:10229000FD1FE50DF11D1083A3E05D2CAD1508F0C9
:1022A00071C081E597E00E945007898190E00E940B
:1022B0007B078DE497E00E9450078A8190E00E949E
:1022C0007B0789E497E00E9450071B81812F90E0F3
:1022D0000E947B0785E497E00E9450078C8190E084
:1022E0000E947B07BE891B130CC08BE397E00E9402
:1022F0005007712C10E0F12CE12C21E02D8B612C8A
:10230000B9CF88E397E00E945007712C10E0F12CC0
:10231000E12CF5CF33E0E316F104A1F5C1010196FC
:10232000E989FA89E20DF31D1083811542E09407D3
:1023300040F18BE197E00E9450070E94060A90E06E
:1023400080E068960FB6F894DEBF0FBECDBFDF9178
:10235000CF911F910F91FF90EF90DF90CF90BF90A2
:10236000AF909F908F907F906F905F904F903F9035
:102370002F900895512C712C10E082E0E82EF12C62
:1023800079CF1C01712C10E075CF712CF12CE12C50
:10239000612C00E0812C912C54011BCF2F923F9295
:1023A0004F925F926F927F928F929F92AF92BF9265
:1023B000CF92DF92EF92FF920F931F93CF93DF9311
:1023C000CDB7DEB728970FB6F894DEBF0FBECDBFEE
:1023D0008C016F83788784EE96E00E945007F801A5
:1023E000808190E00E947B0780EE96E00E9450077B
:1023F000F801818190E00E947B078CED96E00E94BD
:102400005007F801828190E00E947B0789ED96E0F9
:102410000E945007F801228081EB96E00E9450074D
:10242000822C912CC4010E947B078BEA96E00E94CB
:102430005007809186009091870090933F0280938F
:102440003E02F0E84F2EF8E35F2E66246394712C71
:1024500010E0C12CD12C7601FC2FFB5FFE830E9483
:10246000A90D8130E1F1823009F441C081114EC1E2
:10247000E2E0CC0CDD1CEE1CFF1CEA95D1F7689461
:10248000C0F8D701C601AA27BB2789389444A10503
:10249000B10509F03FC11F5F133008F43BC100E0F4
:1024A000B12C10E00E94A90D813049F1823091F1E8
:1024B000811113C052E0CC0CDD1CEE1CFF1C5A95A0
:1024C000D1F76894C0F81E5F8FE08B1570F5FE01A0
:1024D00031965F010E3F09F487C010E01BC173E025
:1024E000CC0CDD1CEE1CFF1C7A95D1F7C8CF64E044
:1024F000CC0CDD1CEE1CFF1C6A95D1F7C0CF43E06D
:10250000CC0CDD1CEE1CFF1C4A95D1F76894C0F87A
:102510001D5FDACF34E0CC0CDD1CEE1CFF1C3A95BD
:10252000D1F76894C0F81C5FCFCF1250000FD701CD
:10253000C601012E04C0B695A795979587950A9474
:10254000D2F78170082BB394B394123008F0BCCF4B
:102550009FE09B1508F0A6CFBACF93E0CC0CDD1C12
:10256000EE1CFF1C9A95D1F76894C0F81D5F31C02E
:1025700084E0CC0CDD1CEE1CFF1C8A95D1F768941E
:10258000C0F81C5F26C01250000FD701C601012EF3
:1025900004C0B695A795979587950A94D2F7817050
:1025A000082B3394339415C02FE02315B8F00E9404
:1025B000A90D813091F28230D9F281118ECF22E0C3
:1025C000CC0CDD1CEE1CFF1C2A95D1F76894C0F8DA
:1025D0001E5F123048F3FFE0F315A8F6F5010193F2
:1025E0005F01FE81FA1519F000E0312CE0CF8B81FC
:1025F000281273CF87E996E00E945007C4010E9419
:102600007B0780E996E00E945007898190E00E9454
:102610007B078DE896E00E9450078FEF9BE00197C3
:10262000F1F700C0000087E00E94450AF89410927C
:102630003602809184009091850080969093890065
:102640008093880082E086BB1CE080E00E94FB0D46
:102650001150D9F70E94DA0D0E94DA0D0E94DA0DAE
:102660008BEF0E94FB0D81EA8D834FEF5FEF61E0FE
:1026700070E0CE0105960E94260EAC0161E070E08C
:10268000CE0105960E94260EAC0161E070E0CE01FD
:1026900005960E94260EAC018BEF898361E070E005
:1026A000CE0101960E94260E182F092FEF80F88484
:1026B0006701EEEFDE1A5701FFEFEF1AFF0AF5018F
:1026C00080810E94FB0D412F502F61E070E0C50119
:1026D0000E94260E182F092FEC14FD0461F7892F94
:1026E0000E94FB0D812F0E94FB0D16E38EE40E94D9
:1026F000FB0D1150D9F7789487E00E94530A88ECBB
:1027000096E00E94500790E080E011C010E0C12CDC
:10271000D12C760191E0491A51086108710809F03D
:102720009ECE81E796E00E94500787EF9FEF2896A4
:102730000FB6F894DEBF0FBECDBFDF91CF911F91D2
:102740000F91FF90EF90DF90CF90BF90AF909F9050
:102750008F907F906F905F904F903F902F90089553
:102760000F931F93CF93DF9300D000D000D0CDB74D
:10277000DEB78C0180914004882391F1C8019695C1
:102780008795800F911FB0E0A0E09C01AD01205320
:102790003F4C4F4F5F4F2B833C834D835E8322E042
:1027A00030E0AE014F5F5F4F6B817C818D819E81F8
:1027B0000E942C0989819A8100FF10C024E096951F
:1027C00087952A95E1F726960FB6F894DEBF0FBEDF
:1027D000CDBFDF91CF911F910F9108959F70F3CFDF
:1027E00090E080E0F0CFCF93DF93C2E0D0E0CE0165
:1027F0000E94B013892B21F4CE01DF91CF9108956F
:102800002196C1328BE0D80791F78FEF9FEFF5CF7C
:10281000EF92FF920F931F93CF93DF9300D000D0DE
:1028200000D0CDB7DEB77C018B01809140048823B6
:10283000C9F1C701969587958E0D9F1DB0E0A0E068
:102840009C01AD0120533F4C4F4F5F4F2B833C8386
:102850004D835E8322E030E0AE014F5F5F4F6B81BE
:102860007C818D819E810E942C0989819A81E0FE64
:1028700026C08F70992724E0000F111F2A95E1F7D9
:10288000082B192B1A83098322E030E0AE014F5F39
:102890005F4F6B817C818D819E810E94570981E011
:1028A0008093410426960FB6F894DEBF0FBECDBFCD
:1028B000DF91CF911F910F91FF90EF90089588279E
:1028C000907F1F70DDCFCF93DF9300D000D000D07A
:1028D000CDB7DEB780914004882309F44EC08091C3
:1028E0004104882309F449C021E030E03E832D8370
:1028F00080ED90E3A0E0B0E089839A83AB83BC8352
:1029000020E032E040E452E069817A818B819C8151
:102910000E942C0960E472E08D819E810E94320841
:10292000892B59F08FEF9FEF26960FB6F894DEBFF4
:102930000FBECDBFDF91CF91089560E472E08D812D
:102940009E8109960E943208009761F729813A8199
:102950004B815C813E5F4F4F5F4F29833A834B83AE
:102960005C834D815E814F5F5F4F5E834D834A3054
:10297000510531F610924104D7CF90E080E0D4CFDA
:10298000FF920F931F93CF93DF9300D000D000D01E
:10299000CDB7DEB7809140048823A1F08BE29AE0A6
:1029A0000E9450071E821D828D819E8126960FB641
:1029B000F894DEBF0FBECDBFDF91CF911F910F9175
:1029C000FF90089585E09AE00E94500760E472E06D
:1029D00090E080E00E94CA07892B39F080EE99E0F0
:1029E0000E9450078FEF9FEF73C080ED99E00E9427
:1029F000500780914B0290914C020E947B078AEC19
:102A000099E00E94500780914D0290E00E947B0760
:102A100083EC99E00E9450078091500290E00E9460
:102A20007B078DEB99E00E945007809153029091B3
:102A300054020E947B0783EB99E00E94500780912B
:102A400055020E945E0780EB99E00E94500780EAE1
:102A500099E00E94500780915602909157020E947F
:102A60007B078AE999E00E94500780915802909173
:102A700059020E947B0782E999E00E9450078091E9
:102A80005A0290915B020E947B078BE899E00E94BA
:102A9000500780915102909152020E947B0783E877
:102AA00099E00E945007809166020E945E0780E8CC
:102AB00099E00E94500780914B0290914C02811541
:102AC000924049F08AE699E00E94500788EF9FEF14
:102AD0009E838D8369CF80915002823049F085E5D5
:102AE00099E00E945007A8EFBFEFBE83AD835CCF93
:102AF00080914D02811103C081E499E0E5CF80917E
:102B00006602893209F066C080916702909168027E
:102B1000A0916902B0916A028093420490934304A9
:102B2000A0934404B09345048BE0EBE6F2E0A6E406
:102B3000B4E001900D928A95E1F71092510483E37D
:102B400099E00E94500786E494E00E94440787E2DF
:102B500099E00E94500780914404909145040E949E
:102B6000720780914204909143040E94720784E2AC
:102B700099E00E9450078CEE98E00E94500789E08F
:102B800090E00E947B078DED98E00E94500780ED59
:102B900090E3A0E0B0E089839A83AB83BC8301E03B
:102BA00010E0FF24FA94F00E60E472E0C8010E9485
:102BB000CA078D839E83AD81BE81AB2B09F18DEB5E
:102BC00098E00E9450078F2D90E00E947B078AEBCF
:102BD00098E006CF109242041092430410924404ED
:102BE000109245048BE0E1E1F1E0A6E4B4E001904D
:102BF0000D928A95E1F71092510481E099E0B9CFE6
:102C000020E032E040E452E069817A818B819C814E
:102C10000E9457090F5F1F4F89819A81AB81BC8148
:102C20009E5FAF4FBF4F89839A83AB83BC830A30CB
:102C3000110509F0B6CF81E0809340041092410461
:102C400089EA98E00E945007AFCE80914004882323
:102C500021F00E9463141092400408958091400472
:102C60000895AF92BF92CF92DF92EF92FF920F93AF
:102C70001F93CF93DF93D82EC92EB62EA72E7A019D
:102C8000809140042EEF3FEF882391F103E110E0A3
:102C900060E472E0C8010E94CA07892B09F042C0B3
:102CA000C0E4D2E088818823D1F1853E69F18B852B
:102CB00083FD2AC048E050E06D2D7C2DCE010E949E
:102CC000D52D892B09F543E050E06B2D7A2DCE01EF
:102CD00008960E94D52D9C01892BB1F4E114F104D2
:102CE00039F080E2FE01D70101900D928A95E1F75B
:102CF000C901DF91CF911F910F91FF90EF90DF906D
:102D0000CF90BF90AF900895A09684E0C034D807CC
:102D100049F60F5F1F4F0132110509F0B9CF2DEFB2
:102D20003FEFE6CF2FEF3FEFE3CFEF92FF920F930E
:102D30001F93CF93DF938C01F62EE72E80914004F2
:102D4000811116C08EEF9FEFDF91CF911F910F91F0
:102D5000FF90EF900895253E59F023852F3041F0E4
:102D600020E2AF2DBE2D01900D922A95E1F7ECCF18
:102D7000F80180819181803E910510F5EC01CF70C2
:102D8000DD2725E0CC0FDD1F2A95E1F734E096958D
:102D900087953A95E1F760E472E043960E94CA078E
:102DA000009789F4FE01E05CFD4FD8012D913C9124
:102DB00011972F5F3F4F2D933C9320812111CBCF53
:102DC0008DEF9FEFC1CF8FEF9FEFBECF8F929F927E
:102DD000AF92BF92CF92DF92EF92FF920F931F9329
:102DE000CF93DF93CDB7DEB7A0970FB6F894DEBFD1
:102DF0000FBECDBF7C016B018A0187E998E00E947C
:102E000050075701470188E0880E911CF501819118
:102E10005F01803229F00E943D07A814B904B1F780
:102E20008EE20E943D0756014601A3E08A0E911CE6
:102E3000D5018D915D01803229F00E943D07A814D3
:102E4000B904B1F783E998E00E945007AE014F5FE3
:102E50005F4FB601C7010E9431167C01892BC1F07A
:102E60008CE798E00E945007C701A0960FB6F8942F
:102E7000DEBF0FBECDBFDF91CF911F910F91FF90AD
:102E8000EF90DF90CF90BF90AF909F908F9008957C
:102E9000F8013D9686E0DF011D928A95E9F781E011
:102EA000F80180838B8D9C8D9283818394838383AF
:102EB0008D8D9E8DAF8DB8A185839683A783B087B6
:102EC0001186128613861486118A85E698E00E9480
:102ED00050078B8D9C8D0E947B078EE598E00E94A9
:102EE00050078D8D9E8D0E947B078BE598E0BACFB1
:102EF0006F927F928F929F92AF92BF92CF92DF920A
:102F0000EF92FF920F931F93CF93DF93EC013B015E
:102F10006A018881882309F488C08989811185C064
:102F20008091400481117BC08EEF9FEF69C08D813D
:102F30009E8149855A8595012E193F09841B950B61
:102F40002817390708F4C9014601801A910A881523
:102F5000990508F44C01B701605C7D4FA401C301E1
:102F6000800F911F0E94E22D080D191D89859A85F9
:102F7000AB85BC85880D991DA11DB11D89879A87D8
:102F8000AB87BC87AC01BD01517066277727452B05
:102F9000462B472BA1F44D815E816F817885841784
:102FA0009507A607B70758F48B819C810E94B01340
:102FB0009C01283F8FE0380710F53C832B830C15CC
:102FC0001D05E8F489859A85AB85BC854D815E81B8
:102FD0006F81788584179507A607B70780F47C0171
:102FE00021E0F2228B819C8160E472E04F960E9486
:102FF000CA07892B09F49BCF01151105C1F0C8013F
:10300000DF91CF911F910F91FF90EF90DF90CF90C4
:10301000BF90AF909F908F907F906F90089510E039
:1030200000E0A12C82E0B82ECACF89EF7ECF8FEFCF
:103030007CCF3F924F925F926F927F928F929F923E
:10304000AF92BF92CF92DF92EF92FF920F931F93B6
:10305000CF93DF938C012B017A01FC0180818823BF
:1030600009F490C08189882309F48CC080914004C0
:1030700081117CC08EEF9FEF67C0F301C5011192F3
:103080000197E9F740C0CC0DDD1DF80181859285DF
:10309000A385B4858C0D9D1DA11DB11D81879287CF
:1030A000A387B487328A9170AA27BB27892B8A2BE2
:1030B0008B2BB1F4CE15DF0598F40E94F3136C014D
:1030C00097FD41C0BC01F801838194810E940814DE
:1030D0006FEF7FE0C6010E940814F801D482C3821A
:1030E000CE15DF0580F5F80181849284F1E09F22FE
:1030F0008114910411F2F8018381948160E472E0FB
:103100004F960E94CA07C7018C1B9D0B6501C8180A
:10311000D9088C159D0508F46C01A601B2016C0F4D
:103120007D1FC401805C9D4F0E94E22DF8018381C8
:10313000948160E472E04F960E943208892B09F472
:10314000A2CF209709F1CE01DF91CF911F910F916E
:10315000FF90EF90DF90CF90BF90AF909F908F90B7
:103160007F906F905F904F903F900895D0E0C0E0C7
:1031700080E4682E82E0782EA12C92E0B92E3324D0
:103180003394AECF89EF77CF8FEF75CFCF93DF93A7
:10319000EC018881882309F44EC089E498E00E94FC
:1031A000500789859A850E947B0781E498E00E94F8
:1031B00050078989811124C08EE40E943D078BE36A
:1031C00098E00E9450078A8981111CC08EE40E94F9
:1031D0003D0788E398E00E9450078989882351F1D0
:1031E0008A89882339F160E472E08D859E850E948A
:1031F000CA07892B49F08FEF9FEFDF91CF91089598
:1032000089E5DBCF89E5E3CFEF85F889E05CFD4F09
:1032100089859A85AB85BC85848F958FA68FB78F5E
:1032200060E472E08D859E850E943208892B19F733
:103230000E946314188290E080E0DFCFCF92DF928B
:10324000EF92FF920F931F93CF93DF93182F092FC5
:10325000D62EC72E80914004CEEFDFEF882361F099
:1032600083E1E82EF12C60E472E0C7010E94CA07F6
:10327000892B61F0CFEFDFEFCE01DF91CF911F916E
:103280000F91FF90EF90DF90CF900895C0E4D2E0CF
:103290008881882309F441C0853E91F148E050E0DF
:1032A000612F702FCE010E94D52D892B49F543E067
:1032B00050E06D2D7C2DCE0108960E94D52D892BD6
:1032C000F9F40A8D1B8DC8010297863F9F4068F074
:1032D00085EE888360E472E0C7010E943208EC0149
:1032E000892B41F60E946314C7CFC8010E94B01316
:1032F0006C0170E060E0C8010E9408148601E3CF11
:10330000A09684E0C034D80719F62FEFE21AF20A2B
:1033100081E2E816F10409F0A6CFCDEFDFEFACCFE4
:103320005F926F927F928F929F92AF92BF92CF9255
:10333000DF92EF92FF920F931F93CF93DF93CDB75E
:10334000DEB7A0970FB6F894DEBF0FBECDBF882EB4
:10335000792E662E572E8A0180914004882309F425
:103360009BC0AE014F5F5F4F882D0E943116892BA5
:1033700031F4662D752D882D972D0E941E1993E12D
:10338000A92EB12C60E472E0C5010E94CA07892B06
:10339000C1F08FEF9FEFA0960FB6F894DEBF0FBE7F
:1033A000CDBFDF91CF911F910F91FF90EF90DF90F4
:1033B000CF90BF90AF909F908F907F906F905F90D5
:1033C000089580E4E82E82E0F82E912CF7018081A8
:1033D000811108C00E94F3136C0197FF17C08AEF98
:1033E0009FEFD9CF853EB1F39394F0E2EF0EF11C3D
:1033F00040E19412EBCF8FEFA81AB80A91E2A91618
:10340000B10409F0BFCF8BEF9FEFC5CF6FEF7FE027
:103410000E94081480E2F701482F11924A95E9F7BB
:1034200098E0E82DF72DD70101900D929A95E1F7DC
:10343000D701189693E0E62DF52D01900D929A95FF
:10344000E1F7F7018387D38EC28E148E158E168E08
:10345000178E60E472E0C5010E943208009709F0FF
:1034600098CF21E0F8012083D282C182D482C38226
:10347000158216821782108611861286138614868C
:10348000218B128AB686A586F0E29F9E90011124B8
:10349000F801308B27877FCF8EEF9FEF7CCF4F9245
:1034A0005F926F927F928F929F92AF92BF92CF92D4
:1034B000DF92EF92FF920F931F93CF93DF93CDB7DD
:1034C000DEB7A0970FB6F894DEBF0FBECDBF782E43
:1034D000692E562E472ED42EC52EB22EA32E8091A5
:1034E0004004882309F480C0AE014F5F5F4F622F14
:1034F000732F8D2D9C2D0E943116892B09F477C0D6
:1035000083E1E82EF12C60E472E0C7010E94CA0753
:10351000892B09F06FC000E412E0F8018081882354
:1035200009F45FC0853E09F44DC048E050E0672DC6
:10353000762DC8010E94D52D892B09F043C0480182
:10354000F8E08F0E911C43E050E0652D742DC4010E
:103550000E94D52D892BB1F588E0ED2DFC2DD801E9
:1035600001900D928A95E1F783E0EB2DFA2DD401BD
:1035700001900D928A95E1F760E472E0C7010E9424
:10358000320821E030E0892B11F430E020E0882778
:103590009927821B930BA0960FB6F894DEBF0FBE3F
:1035A000CDBFDF91CF911F910F91FF90EF90DF90F2
:1035B000CF90BF90AF909F908F907F906F905F90D3
:1035C0004F900895005E1F4F84E00034180709F003
:1035D000A4CFEFEFEE1AFE0AF1E2EF16F10409F0C4
:1035E00092CF8DEF9FEFD7CF8EEF9FEFD4CF8CEFA1
:1035F0009FEFD1CF8FEF9FEFCECF0F931F93CF933E
:10360000DF9300D000D0CDB7DEB78091400488238F
:1036100099F102E010E01A821982C8010E94B013E9
:10362000892B31F429813A812F5F3F4F3A832983D7
:103630000F5F1F4F01323BE0130779F749815A8131
:10364000B0E0A0E09A01AD0189E0220F331F441FD2
:10365000551F8A95D1F729833A834B835C8369810F
:103660007A818B819C810F900F900F900F90DF914A
:10367000CF911F910F91089519821A821B821C828B
:10368000EECFAF92BF92CF92DF92EF92FF920F9365
:103690001F93CF93DF9300D000D000D0CDB7DEB71B
:1036A0008D839E8380E092E0E0E4F2E0DF019C0104
:1036B0001D9221503040E1F72BEE209340022CE385
:1036C0002093410220E92093420228E0EDE1F1E05D
:1036D000A3E4B2E001900D922A95E1F790934C0299
:1036E00080934B0281E080934D0281E090E09093C3
:1036F0004F0280934E0282E08093500280EE90E071
:10370000909352028093510280E49BE09093540284
:103710008093530280EF8093550289E090E090936C
:1037200057028093560282E190E090935902809371
:10373000580282E090E090935B0280935A0289E203
:10374000809366028EEE9FEFA0ECB4E68093670252
:1037500090936802A0936902B0936A028D819E8162
:10376000892B09F4CCC08BE0ED81FE81ABE6B2E0A1
:1037700001900D928A95E1F788E0E2E3F1E0A6E797
:10378000B2E001900D928A95E1F785E580933E04C1
:103790008AEA80933F0460E472E090E080E00E9457
:1037A0003208892B09F0AFC001E010E080ED90E312
:1037B000A0E0B0E089839A83AB83BC8380E4C82E09
:1037C00082E0D82EA12C92E0B92E20EFE22EFF2429
:1037D000FA94D601F5011D923197E9F7013031F4E1
:1037E000E0924002F0924102F092420260E472E004
:1037F000C8010E943208892B09F085C060E472E09C
:10380000C80109960E943208892B09F07CC020E08B
:1038100032E040E452E069817A818B819C810E9490
:10382000570989819A81AB81BC819E5FAF4FBF4FA1
:1038300089839A83AB83BC830F5F1F4F0A301105C6
:1038400041F6E0E4F2E080E092E0DF019C011D92AD
:1038500021503040E1F78D819E81892BB9F088E0BD
:10386000ED81FE81A0E4B2E001900D928A95E1F72E
:10387000ED81FE8180859185A28580934802909399
:103880004902A0934A0288E080934B0260E472E010
:1038900083E190E00E943208892BA9F5E0E4F2E090
:1038A00080E092E0DF019C011D9221503040E1F761
:1038B00084E190E09A83898360E472E089819A814F
:1038C0000E943208892BF9F4A981BA811196BA8332
:1038D000A983919789F71092400426960FB6F89421
:1038E000DEBF0FBECDBFDF91CF911F910F91FF9033
:1038F000EF90DF90CF90BF90AF900C94C0148BE00E
:10390000E6E2F1E033CF8FEF9FEF26960FB6F89403
:10391000DEBF0FBECDBFDF91CF911F910F91FF9002
:10392000EF90DF90CF90BF90AF9008958F929F92CD
:10393000AF92BF92CF92DF92EF92FF920F931F93BD
:10394000CF93DF936C014B017A0148E050E060E2D5
:1039500070E0C4010E94EB2D43E050E060E270E0B3
:10396000C7010E94EB2D56019601E90188812F5F66
:103970003F4F81110BC0F60101900020E9F731970C
:103980008F010C191D09D0E0C0E007C08E3269F725
:103990008E010C191D09209771F30930110514F0DF
:1039A00008E010E06401912C812C8016910614F13E
:1039B0002097A9F12196DE010D900020E9F71197DB
:1039C0008701AC1BBD0BA430B10514F0A3E0B0E03F
:1039D000EA0EFB1E0E151F05D1F4DF91CF911F914A
:1039E0000F91FF90EF90DF90CF90BF90AF909F909E
:1039F0008F900895F50181915F0190E00E94CD2D97
:103A0000F60181936F01FFEF8F1A9F0ACECF899144
:103A100090E00E94CD2DF80181938F01DBCF83E0F0
:103A2000EBE3F1E0D70101900D928A95E1F7D5CF54
:103A30008F93549A5C9881E0809353048F911895EA
:103A400053985B9A54985C9A0895FC011082549A9A
:103A50005C988FE391E00197F1F700C0000081E1ED
:103A600097E24B9B18C054985C9A90E080E061E02C
:103A700070E021E137E24B9918C04C9B09C02081CE
:103A8000AB01082E01C0440F0A94EAF7242B2083CF
:103A900021E137E21BC025E02A95F1F700000197EC
:103AA00001F754985C9A80E0089545E04A95F1F753
:103AB000000021503109F9F60E94201DF4CF45E0A5
:103AC0004A95F1F7000021503109B1F34B9BF7CF34
:103AD00001968830910569F6549A5C988FE891E0D8
:103AE0000197F1F700C0000081E00895FC01DB01BF
:103AF00010821C9254985C9A89EC90E04B9B16C003
:103B000025E02A95F1F70000019709F581E08C93F3
:103B1000549A5C988FEE90E00197F1F700C0000096
:103B200054985C9A81E197E24B9907C090E080E05D
:103B300061E070E021E137E214C025E02A95F1F759
:103B40000000019789F70E94201D80E008954A999E
:103B5000D5CFF9CF45E04A95F1F700002150310962
:103B600091F34B99F7CF4C9B09C02081AB01082EF4
:103B700001C0440F0A94EAF7242B208321E137E2A5
:103B800007C045E04A95F1F7000021503109D9F20C
:103B90004B9BF7CF01968830910561F6549A5C985B
:103BA00081E00895539A5B9854985C9AEFE3F1E0B2
:103BB0003197F1F700C0000021E137E24C9B45C08E
:103BC000662391F053985B9A21E137E24C9949C002
:103BD00021E137E24C9B4EC0539A5B98EFE3F1E052
:103BE0003197F1F700C0000030E020E090E0AC0138
:103BF000022E02C0559547950A94E2F740FF43C054
:103C000054985C9AEFEEF0E03197F1F700C00000B5
:103C100053985B9AEFEEF0E03197F1F700C00000A7
:103C2000539A5B982F5F3F4F2830310501F7549826
:103C30005C9A81E197E24C9929C08FE891E0019765
:103C4000F1F700C0000081E00895F5E0FA95F1F782
:103C500000002150310911F480E008954A99AECF57
:103C6000FBCF95E09A95F1F700002150310909F05A
:103C7000ADCFF2CFE5E0EA95F1F700002150310930
:103C800009F0A8CFE9CF549A5C98BCCFF5E0FA953B
:103C9000F1F70000019779F6DFCFEF920F931F93B2
:103CA000CF93DF938093370590E3E92E08E315E087
:103CB0000E949521EC018034910514F0C0E4D0E01D
:103CC000AE01552768E375E084EF94E00E94E22D91
:103CD000C09334051092350510923605DF91CF91CF
:103CE0001F910F91EF900895CF93C82F81E19DE030
:103CF0000E9450078C2F90E00E947B078EE09DE091
:103D00000E945007C0935404109256041092550418
:103D1000109253048AB1837C8AB98BB18C638BB9BE
:103D2000809169008C7F82608093690081E08CBB08
:103D3000E89AC9B18EEF9CE00E9450078CE4C2FD66
:103D400088E40E943D0788EF9CE00E9450078CE4C5
:103D5000C3FD88E40E943D0781EF9CE00E9450076C
:103D60008CE4C4FD88E40E943D078BEE9CE00E9439
:103D700050078CE4C5FD88E40E943D0788EE9CE076
:103D80000E945007E9E5F4E08EEDDF011D928A956F
:103D9000E9F720E040E06FE371E089E4CF910C9413
:103DA0004D1ECF93DF93EC01DB01E091350580914F
:103DB0003405E81730F081E08C9380E0DF91CF91FB
:103DC000089581E08E0F80933505F0E0E853FB4FB6
:103DD00084A5888381E020913505909134052917C9
:103DE00008F480E08C9381E0E9CFCF92DF92EF92EC
:103DF000FF920F931F93CF93DF9300D00F92CDB715
:103E0000DEB7809152044D9923C0811115C081E025
:103E10008093520480EB9CE00E945007109256045D
:103E2000109255040E94201D0E94600B0E942516CE
:103E30000E9485210E947E280F900F900F90DF91A5
:103E4000CF911F910F91FF90EF90DF90CF90089549
:103E5000882309F45BC0109252048AE89CE00E9417
:103E600050070E94C70A0E946E0B892B91F088E7C9
:103E70009CE00E94500720E040E061E071E08AE4AD
:103E80000E944D1E85E090E00E943A2D0E94600B3A
:103E9000D3CF87E69CE00E9450070E94A80B8111B7
:103EA0000EC08EE49CE00E94500720E040E061E0FC
:103EB00071E08AE40E944D1E86E090E0E5CF87E342
:103EC0009CE00E9450070E94C014892B79F486E27E
:103ED0009CE00E9450070E94600B86EF9BE00E94CE
:103EE000500790E080E00E943A2DA6CF81E19CE04F
:103EF0000E94500720E040E061E071E08AE40E9407
:103F00004D1E86E090E00E943A2DE5CF4A9B41C0CD
:103F10008091550490915604029709F08DCFAE011F
:103F20004F5F5F4FBE016E5F7F4F809157040E94CD
:103F30000325882359F10E947928FC0169818A812F
:103F4000309709F10680F781E02D3097E1F009956F
:103F500081110AC08CED9BE00E945007109256041C
:103F6000109255040E94201D8981882309F464CF92
:103F700084EC9BE00E945007109256041092550466
:103F80000E94201D59CF0E94D21DE2CF85EA9BE0FE
:103F9000F1CF0E94EC2C89E99BE00E945007549AD3
:103FA0005C9882E0E82EF12CCC24C394D12C4A9961
:103FB0000AC0CE0103960E94251D811142C08EE7E2
:103FC0009BE00E9450070E94EE2C80915504909136
:103FD00056040297D1F486ED9AE00E9450070E94A1
:103FE0004C280E9479288C01009779F0DC011A9600
:103FF0008D919C91892B49F08EEB9AE00E9450079D
:10400000D8011A96ED91FC910995809155049091F3
:104010005604019709F010CF81EA9AE00E945007F8
:104020008091570490E00E947B078EE99AE00E94FD
:10403000500711E04A99C6C084E89AE00E945007F0
:10404000FBCE81E79BE00E9450078B810E945E07B8
:104050008B818F3361F585E69BE00E94500780914C
:10406000550490915604019709F0A1CF809157040F
:104070008F30C1F46091C504662359F0E62FF0E05B
:10408000EC5AFB4F11AA85E894E00E94EA261092B0
:10409000C50410925604109255040E94201D0E94DF
:1040A0007E2885CF8130A9F70E94E924F2CF8F3591
:1040B00061F48BE59BE00E9450078091550490913C
:1040C0005604029709F073CFE4CF182F1F71982F71
:1040D000907E9032C9F481E59BE00E945007812FC9
:1040E00090E00E947B078EE49BE00E945007809145
:1040F000540481135CCFD0925604C09255048AE3D5
:104100009BE00E94500753CF9034B9F482E39BE0C8
:104110000E945007812F90E00E947B078FE29BE076
:104120000E94500780915404811341CFF0925604AD
:10413000E09255048DE19BE0E4CF982F907F90367C
:1041400051F5182F1F7083E19BE00E945007812FCB
:1041500090E00E947B0780E19BE00E945007109353
:10416000570480915504909156048130910529F4AB
:104170001092C5041092C6041ACF029709F017CF07
:1041800054985C9A8FE391E00197F1F700C000002A
:10419000539A5B980CCF903E91F4182F1F7085E0D6
:1041A0009BE00E945007812F90E00E947B0782E0F5
:1041B0009BE00E945007812F0E94E924F8CE8CEFEB
:1041C0009AE09FCFBE016F5F7F4FCE0102960E94A3
:1041D000761D811103C08BE69AE030CF80915704A1
:1041E00090915904911136C08F30A1F1E09184046F
:1041F000E93248F48A8191E09E0F90938404F0E0C4
:10420000EC5AFB4F86838981882309F413CFE09110
:104210008404F0E0EC5AFB4F16828AE59AE00E9493
:1042200050078AE594E00E94440786E59AE00E94E0
:104230005007409184046AE574E0809157040E941D
:10424000B721109359048981882309F4F3CE83E4BC
:104250009AE0F4CEE091C5046A81E03440F491E044
:104260009E0F9093C504F0E0EC5AFB4F61AB0E94A7
:10427000D126E9CF80915304882341F01092530452
:104280008AEC9CE00E9450070C94F51E08950F9351
:104290001F93CF93DF93CDB7DEB7CC52D4400FB688
:1042A000F894DEBF0FBECDBF8C019C01AE01435D13
:1042B0005D4F60ED78E580E090E00E942C092CE2F3
:1042C00032E0AE014F5F5F4FB801CE01835D9D4F7D
:1042D0000E94CE2C8C011816190654F49C01AE01D4
:1042E0004F5F5F4F60ED7AE580E090E00E945709F4
:1042F000C801C45DDB4F0FB6F894DEBF0FBECDBF63
:10430000DF91CF911F910F910895E5E7F5E083E1EB
:10431000DF011D928A95E9F71092700520E040E0D8
:104320006FE371E089E40C944D1EEF920F931F939D
:104330001F922F931F924F937F936F931F928F9390
:104340008DE491E09F938F931F92EF921F930F93B1
:104350000E94FD2D2DB73EB7225F3F4F0FB6F89458
:104360003EBF0FBE2DBF1F910F91EF9008957F921A
:104370008F929F92AF92BF92CF92DF92EF92FF9275
:104380000F931F93CF93DF93CDB7DEB7C356D109F9
:104390000FB6F894DEBF0FBECDBF182F7B01042FE0
:1043A0008BE09EE00E945007812F90E00E947B07E7
:1043B00083E09EE00E94500767014701800E911C38
:1043C0008C149D04E1F58FEF9DE00E945007FE01E3
:1043D000EF5AFF4F1192119287E0DF011D928A95EB
:1043E000E9F76C961FAE1EAE6C976E961FAE1EAEB2
:1043F0006E97123078F40E942E16811126C087EE37
:104400009DE00E94500720E040E061E071E08AE416
:104410000E944D1ECD59DF4F0FB6F894DEBF0FBE80
:10442000CDBFDF91CF911F910F91FF90EF90DF9063
:10443000CF90BF90AF909F908F907F900895D601BE
:104440008D916D010E943D07BBCF11111DC201303E
:1044500009F01AC2F7018081843209F015C283ED98
:104460009DE00E945007098384E08A8322E030E0C7
:10447000AE014F5F5F4F60ED76E480E090E00E9418
:1044800057091B821C8282E18D8382E28E83E9E6DA
:10449000F1E0DE01179689E791E021912D938E17C7
:1044A0009F07D9F782E28F8B80E2888FEAE7F1E0FD
:1044B00088E1919121E0280F482F50E09111B5C07B
:1044C000E1E0F0E0EC0FFD1F4E0F5F1FDA011C92E0
:1044D00030E07901B2E0EB0EF11C8C5F8983C901F9
:1044E0008D5F9B4F9A83AF0162ED76E480E090E0B0
:1044F0000E945709A0961FAE1EAEA09730E2C32EB1
:1045000042E2B42E0FE010E0BE016F5C7F4FCE019F
:10451000825A9F4F0E949516AC01892B31F468EFA7
:10452000E6166FE0F60608F48BC00E94FD1AA4960A
:104530006CAF7DAF8EAF9FAFA497BB27A92F982FED
:10454000872F19821A828B839C83A1E8B1E084E0D3
:104550009D9161E0680F282F30E091118BC1882474
:104560008394912C8C0E9D1E280D391DD9011C920F
:10457000F401E60FF11D1082E2E0E80F8824839435
:10458000912C8C0E9D1E8E0E911CF40110828D5F5D
:10459000082F10E0B0E0A0E09701AD012053394BA7
:1045A0004F4F5F4FA4962CAF3DAF4EAF5FAFA49778
:1045B0009801AE014F5F5F4FA4966CAD7DAD8EAD9F
:1045C0009FADA4970E9457090E0D1F1D10937405EF
:1045D00000937305109272051092710511E010930B
:1045E000700584EC9DE00E945007809173059091C6
:1045F00074050E947B0781EC9DE00E945007109299
:104600006F0510926E0510926D0510926C05109258
:104610006B0510926A05109369051092680520E0F9
:1046200040E06EE871E080E0F3CE88248394912C22
:104630008C0E9D1E480D591DDA019C93822F39CF97
:104640006CAD63FD61CF61968CAD9DADAEADBFAD80
:10465000619781509F4FAF4FBF4F892F9A2FAB2F3C
:10466000BB279C0119821A82009711F481E090E027
:104670009C838B832A30310508F03EC0CD82A5E0B3
:10468000E1E0EA0F88248394912C8C0E9D1E8A0E03
:10469000911CD401CC9291E09E0FA1E0B0E0AC0F50
:1046A000BD1FAE0FB11DFD01C08281E0890FE1E0A9
:1046B000F0E0EC0FFD1FE90FF11DB08228E030E0C3
:1046C000722F732E21503109E1E3F0E0EC0FFD1F52
:1046D000E20FF31FE081E032D1F0FE01F1969E5F20
:1046E000970F282FAA24A394A20E30E09A11A5C0F8
:1046F000870F272F372D0EC02436310510F4A4E084
:10470000BFCF94E0283E334080F6E4E0C4CF2115CB
:104710003105B1F699AD7BAD703209F09AC07AAD32
:10472000703209F099C0903221F141E050E091E0FF
:10473000980F7EE2E1E0F0E0EC0FFD1FE80FF11DC5
:104740007083DE01D996792F740FDD90E92F9F5F7A
:1047500088248394912C8C0E9D1E8E0E911CF40146
:10476000D0829713F2CF840F8F5FFA0131962E0F0C
:104770003F1F91E0980FE1E0F0E0EC0FFD1FE80F24
:10478000F11DB08271E1780F721BE92F9F5FA1E0EC
:10479000B0E0AC0FBD1FAE0FB11DFD01C08297137D
:1047A000F4CF8E5FF801E21BF30BD82EDE0EE1E6AC
:1047B000F1E064FD11C04330510561F443E050E085
:1047C00065E671E0CE01C9960E94D52DE5E6F1E0DF
:1047D000892B11F0EBE3F1E0319121E02D0D8D2DCE
:1047E00090E031113CC0E1E0F0E0EC0FFD1F8E0FD6
:1047F0009F1FDC011C9230E049018E0C9F1CC401FC
:104800008F5F9B4F9A838983B0E0A0E0A701BD0131
:104810004053594B6F4F7F4FA4964CAF5DAF6EAF77
:104820007FAFA497AF01A4966CAD7DAD8EAD9FAD6B
:10483000A4970E945709740167CED190882483946D
:10484000912C8C0E9D1E280D391DD901DC922A2D2C
:1048500049CF43E050E06BCF42E050E068CF88247E
:104860008394912C8C0E9D1E880D991DDC013C9328
:10487000D22EB2CFE1E0F0E0EC0FFD1F2E0F3F1F74
:10488000F9019083862F64CEAE01465A5F4FBE0178
:104890006F5A7F4FC7010E94961C81EB9DE00E94DA
:1048A0005007AE014F5A5F4F7A016A0158E0C50EBA
:1048B000D11CD7018D917D010E943D07CE14DF04EC
:1048C000C1F78DEA9DE00E9450076B968FAD6B9704
:1048D0000E943D076C968FAD6C970E943D076D96C8
:1048E0008FAD6D970E943D0789EA9DE00E945007B9
:1048F000111126C08CE99DE00E94500745E755E064
:10490000BE01665A7F4FCE018F5A9F4F0E94E61616
:104910008C01892B09F440C086E89DE00E94500775
:1049200088279927801B910B0E947B0783E89DE0D5
:104930000E94500720E040E061E971E08EE368CD1D
:1049400086E79DE00E94500745E755E0BE01665AA4
:104950007F4FCE018F5A9F4F0E9490198C01892B57
:10496000D9F089E59DE00E94500788279927801B90
:10497000910B0E947B0786E59DE00E94500720E096
:1049800040E060EA71E088E40A3F1F4F09F440CD3F
:104990006AEA71E089E13CCD10926F0510926E05D4
:1049A00010926D0510926C0510926B0510926A05BD
:1049B00081E0809369051092680520E040E06EE890
:1049C00071E080E00E944D1E86E49DE00E94500749
:1049D00021CDCF93C82F86E39DE00E9450078C2FF6
:1049E00090E00E947B0783E39DE00E945007809146
:1049F0007505882321F085E795E00E94C61810927E
:104A00007005CF910895BF92CF92DF92EF92FF92FF
:104A10000F931F93CF93DF9300D000D000D0CDB77A
:104A2000DEB7082F6B017A01FA0110820E94A82CD0
:104A3000182F882309F44CC10F3009F44BC1F7013A
:104A4000108280916A0590916B0520916C053091E0
:104A50006D058217930740F5B0E0A0E09C01AD0121
:104A60002053354A4F4F5F4FCA01B9010E94810957
:104A7000F601808380916A0590916B050196909371
:104A80006B0580936A0520916C0530916D05821746
:104A9000930708F446C080916805882309F441C053
:104AA00081E0F70180833DC0B0906805BB2029F00C
:104AB00081E0F701808310E034C0009169050111A5
:104AC00081C01A82198222E030E0AE014F5F5F4F51
:104AD00060ED7AE580E090E00E94570982E090E086
:104AE00090936D0580936C0510926B0510926A058A
:104AF00001E00093680560ED7AE580E090E00E94B7
:104B00008109F601808381E090E090936B058093AA
:104B10006A0580916C0590916D05029710F4F7017C
:104B20000083812F26960FB6F894DEBF0FBECDBF4F
:104B3000DF91CF911F910F91FF90EF90DF90CF9079
:104B4000BF900895B0E0A0E09C01AD012053394B27
:104B50004F4F5F4F2B833C834D835E8321E030E0DA
:104B6000AE014F5F5F4F6B817C818D819E810E9482
:104B70002C098091710590917205019690937205B0
:104B80008093710580916E0590916F05B0E0A0E073
:104B90009C01AD012053374A4F4F5F4F2B833C831D
:104BA0004D835E8349816B817C818D819E810E94D2
:104BB0009A0980916E0590916F05019690936F050B
:104BC00080936E0580916E0590916F0581159240DE
:104BD00088F4809170058823C1F1809171059091CE
:104BE000720520917305309174058217930708F4BC
:104BF000A9CFB02E80916E0590916F050097B1F10D
:104C00000E944721181619060CF052CF90936D059B
:104C100080936C0510926B0510926A0510926F05D7
:104C200010926E05B1101092690560ED7AE580E092
:104C300090E00E948109F601808381E090E09093EA
:104C40006B0580936A05102F6CCF809175058823C2
:104C500081F241E050E0BE016F5F7F4F85E795E054
:104C60000E947817019709F48DCFC3CF1A82198259
:104C700022E030E0AE014F5F5F4F60ED7AE580E00B
:104C800090E00E94570982E090E090936D05809338
:104C90006C0510926B0510926A051092690581E00F
:104CA0008093680560ED7AE580E090E00E948109DC
:104CB000F601808381E090E090936B0580936A0514
:104CC00080916C0590916D05029708F02ACFE8CE8F
:104CD0000F3031F4B701C6010E94D11E182F21CF29
:104CE0000111E6CE10917005112381F180917105BB
:104CF00090917205B0E0A0E09C01AD012053394BCA
:104D00004F4F5F4F2B833C834D835E8321E030E028
:104D1000A6016B817C818D819E810E942C098091EE
:104D200071059091720501969093720580937105BB
:104D300020917305309174058217930708F4F1CE22
:104D400081E0F701808310927005EBCE109175051C
:104D5000112309F4ADCE41E050E0BE016F5F7F4FFB
:104D600085E795E00E947817019709F0A1CE898127
:104D7000F601808340917E0550917F05609180050A
:104D80007091810580917A0590917B05A0917C05B9
:104D9000B0917D05481759076A077B0708F4C1CE13
:104DA0007FCECF93DF930F92CDB7DEB7698381308B
:104DB00069F480917505882349F041E050E0BE0117
:104DC0006F5F7F4F85E795E00E9419180F90DF9184
:104DD000CF910895AF92BF92CF92DF92EF92FF9260
:104DE0000F931F93CF93DF93CDB7DEB7C754D1098D
:104DF0000FB6F894DEBF0FBECDBF6C01162F662331
:104E000009F49AC086E29DE00E945007760156019F
:104E1000A10EB11CEA14FB0409F04AC082E29DE035
:104E20000E945007012F1A3208F009E2E02EF12CFF
:104E3000A701B601CE0101960E94E22D81E090E02B
:104E40008C0F9D1FE80EF91EF70110826C01F60110
:104E500081916F0190E00E94CD2DF6013197808302
:104E6000EC14FD04A1F7602FCE0101960E94C82921
:104E7000811162C0602FCE0101960E943B2A8111F0
:104E80005BC0602FCE0101960E947F2C882309F120
:104E900068E070E0CE018B960E94AB2C18161906C4
:104EA0006CF420E040E0BE01655D7F4F80E042C0D1
:104EB000F70181917F010E943D07ACCF0E94A82C91
:104EC00020E040E066EB71E08111F0CF6EE871E028
:104ED000EDCF8981823509F441C064F4893409F445
:104EE000B7C08E3409F47EC020E040E065ED71E08B
:104EF0008EE120C08335C1F71330B0F38A818A3345
:104F000099F7AE01495C5F4FBE01655D7F4FCE01F1
:104F100003960E94961CBE01695C7F4FCE018B9662
:104F20000E941E1920E0892B09F051C041E065EC78
:104F300071E081E00E944D1EC95BDF4F0FB6F8940F
:104F4000DEBF0FBECDBFDF91CF911F910F91FF90BC
:104F5000EF90DF90CF90BF90AF900895133060F343
:104F60008A818A3349F76DE370E0CE0103960E948F
:104F7000F22D009709F4B8CFFC0111928F01AE0118
:104F80004C5B5F4FBE01695C7F4FCE0103960E9470
:104F9000961CAE01405C5F4FBE01655D7F4FC8014E
:104FA0000E94961C9E012C5B3F4FAE01495C5F4FF7
:104FB000BE01605C7F4FCE018B960E944F1A009716
:104FC00019F420E040E082CF039631F420E040E085
:104FD00061E971E08EE3AECF20E040E062EE71E087
:104FE0008FE3A8CF133058F18A818A3341F54BE023
:104FF00050E060E270E0CE018B960E94EB2D1EAA7D
:10500000BE016D5F7F4FFB0101900020E9F7AF010A
:1050100041505109461B570B4C30510514F04BE0E1
:1050200050E0CE018B960E94E22DCE018B960E941D
:10503000411B892B39F46EE871E080E006C090E0F6
:1050400080E0F5CF6AEA71E089E120E040E072CFCC
:105050000E9425160E94C014892B69F361E071E05B
:105060008AE4F3CF10928A05109289051092880580
:1050700008959C01892B79F0E0918A05E43058F479
:1050800081E08E0F80938A05F0E0EE0FFF1FE55759
:10509000FA4F3183208308951F93CF93DF9310E05D
:1050A00080918A05181738F01092890510928805AA
:1050B00090E080E018C0C12FD0E0CC0FDD1FC557B5
:1050C000DA4FE881F9810480F581E02D309779F09D
:1050D0000995882361F0E881F981F0938905E093CF
:1050E000880580819181DF91CF911F9108951F5F85
:1050F000D7CF8091880590918905089510928905F0
:10510000109288050895CF93DF93FC01DB01108294
:105110001C9254985C9A89EC90E04B9B17C04C9B76
:1051200015C025E02A95F1F70000019709F04AC063
:1051300081E08C93549A5C9885E48A95F1F700009D
:1051400054985C9A81E197E24B9930C090E080E0FE
:1051500029B139B123FB222720F9C22FB0E0DB2F80
:10516000BE01082E01C0660F0A94EAF72081262BA3
:1051700034FB442740F950E0BC016F5F7F4FDA01F8
:1051800002C0AA0FBB1F6A95E2F72A2B2083B5E461
:10519000BA95F1F70000029688309105C9F6549A45
:1051A0005C9820EA2A95F1F781E009C04C9BCECFAC
:1051B000A5E0AA95F1F70000019731F680E0DF91B4
:1051C000CF9108954A99A9CFF9CF539A5B988FE36D
:1051D00091E00197F1F700C0000008954C9B15C0C5
:1051E00080E012C085E08A95F1F700002F5F3F4F05
:1051F000233781E03807A1F34C9BF4CF285C3109B9
:1052000081E02937310560F7089530E020E0F4CFE0
:10521000662331F0EFE1F3E03197F1F700C00000D1
:1052200021E137E24C9B33C030E020E090E0A9015F
:105230004F5F5F4FBC0102C0759567954A95E2F7D5
:10524000AB014170BC01022E02C0759567950A94AE
:10525000E2F760FF25C053985B9A442321F15498EC
:105260005C9A75E47A95F1F700002E5F3F4F283085
:105270003105E9F653985B9A54985C9A81E197E27C
:105280004C9914C0F0EAFA95F1F781E00895F5E041
:10529000FA95F1F700002150310921F680E00895D8
:1052A000539A5B98DACF549A5C98DBCFE5E0EA95A5
:1052B000F1F70000019721F7F1CF8CE092E00C9418
:1052C00039288091930581111092930508950895CE
:1052D00030E020E090E0AC01022E02C055954795E9
:1052E0000A94E2F740FF1BC054985C9A45E14A9546
:1052F000F1F7000053985B9A4AE24A95F1F700C033
:10530000539A5B982F5F3F4F2830310521F754980F
:105310005C9A8AE68A95F1F700C081E00895549A74
:105320005C98E4CFFC011082DB011C9290E080E0ED
:1053300061E070E021E137E207C0B5E0BA95F1F72E
:10534000000021503109F1F04B9BF7CF4C9B09C075
:105350002081AB01082E01C0440F0A94EAF7242BE8
:10536000208321E137E24B9906C0019688309105F0
:1053700009F781E0089545E04A95F1F700002150D2
:10538000310989F780E0089588E192E00C9439288A
:10539000FC01623050F08081853539F481818033A1
:1053A00021F481E080939305089580E00895809131
:1053B0009505811110929505089580E0089508954E
:1053C00021E137E24B993AC0549A5C986AE66A95B3
:1053D000F1F700C030E020E090E0A9014F5F5F4F9F
:1053E000BC0102C0759567954A95E2F7AB01417023
:1053F000BC01022E02C0759567950A94E2F760FF22
:1054000029C053985B9A442341F154985C9A7AE4FA
:105410007A95F1F700C02E5F3F4F28303105E9F64D
:1054200054985C9A53985B9A81E197E24B9B18C021
:1054300045E84A95F1F7000081E0089545E04A9576
:10544000F1F700002150310911F480E008954A99E4
:10545000B9CFFBCF539A5B98D6CF549A5C98D7CFED
:1054600025E02A95F1F70000019701F7EECF84E2DD
:1054700092E00C943928FC016330A0F080818D34D7
:1054800089F481818D3271F48281873559F480915C
:1054900094058F5F80939405833030F081E0809392
:1054A0009505089580E0089581E008952F923F9238
:1054B0004F925F926F927F928F929F92AF92BF9224
:1054C000CF92DF92EF92FF920F931F93CF93DF93D0
:1054D000CDB7DEB7CC50D2400FB6F894DEBF0FBECA
:1054E000CDBF5C018B011A01C9016115710509F479
:1054F0005BC1FE01319620E032E0DF01A9011D927F
:1055000041505040E1F7D501A60FB71FCB5FDD4FEB
:10551000B983A883C550D2401597C55FDD4FB983C5
:10552000A883CB50D240CB5FDD4F28813981C55055
:10553000D24024503109C95FDD4F39832883C750D9
:10554000D240A101480F591FC75FDD4F59834883DF
:10555000C950D24064307105ECF0D5012D913D91D8
:105560004D915C9161EB79E787E39EE90E94752D8F
:10557000CF5FDD4F688379838A839B83C150D2409C
:10558000892F9927AA27BB27880F991FE80FF91F92
:10559000118210824501BFEF8B1A9B0A8101F50130
:1055A0007401C95FDD4F28813981C750D2402E1563
:1055B0003F0508F04AC0CB5FDD4FE880F980C55059
:1055C000D240EE1AFF0A1E141F04E4F570E060E0FA
:1055D000BFE0EB16F10444F0C7010F976FEF70E0E6
:1055E0000E94992D6F5F7F4F6F5F7F4F6E0D7F1D04
:1055F000600F711FC75FDD4F28813981C950D240CC
:105600002617370708F4CEC068013FEFC31AD30A44
:105610008E2D40E1E416F1040CF08FE08295807F3E
:10562000D8018C93C7010F974FEFBFE0EB16F10441
:105630000CF056C1A701BF01C6010E94E22D8601F0
:105640000E0D1F1D02191309AFC0D7014D905D90BB
:105650006D907C90A301920161EB79E787E39EE96D
:105660000E94752DCF5FDD4F688379838A839B838A
:10567000C150D240892F9927AA27BB27880F991F8D
:1056800021E030E02C0F3D1F820F931FDC01CD90F5
:10569000DC901197CA0CDB1C97012A193B092D934A
:1056A0003C9397012C193D09CF5FDD4F3983288347
:1056B000C150D240EC14FD0481F0C701821B930B52
:1056C0008A159B0550F0D6014D915D916D917C91AD
:1056D000441655066606770621F0BFEFEB1AFB0A63
:1056E00060CFC114D10409F466CFC701049634E039
:1056F000C30ED11C4C01C55FDD4F48815981CB5091
:10570000D2408417950740F40196D6012D916D0182
:10571000D4013C91321771F36401CE18DF08EE1A00
:10572000FF0A3701B0E1EB16F1041CF05FE0652ED3
:10573000712CC60124E1C216D10414F083E190E07B
:105740002C0134E0431A510830E020E04FE0E41629
:10575000F1044CF0C7010F976FEF70E00E94992D94
:105760009B012F5F3F4F70E060E053E1C516D1040D
:1057700044F0C60143976FEF70E00E94992D6F5F70
:105780007F4F2E0D3F1D2D5F3F4F260F371F200FE0
:10579000311FC75FDD4F88819981C950D240821780
:1057A0009307E8F40FEF1FEFC801C45FDD4F0FB69A
:1057B000F894DEBF0FBECDBFDF91CF911F910F9147
:1057C000FF90EF90DF90CF90BF90AF909F908F9021
:1057D0007F906F905F904F903F902F90089544E09E
:1057E000660C771C4A95E1F76428D8016D928D010B
:1057F000C7010F97BFE0EB16F1040CF059C0A701E9
:10580000BF01C8010E94E22D0E0D1F1DF801CF5FE0
:10581000DD4F28813981C150D240219331938F01CE
:1058200033E1C316D1046CF043E1C41AD108C801B6
:1058300001962FEFC216D1040CF044C0D801CC92CF
:105840008C01C95FDD4FE881F981C750D240E8156E
:10585000F90508F43FC0D4012D913D914D915C9123
:1058600061EB79E787E39EE90E94752DCF5FDD4FFD
:10587000688379838A839B83C150D240892F99277B
:10588000AA27BB27880F991FE1E0F0E0EC0FFD1F6E
:105890008E0F9F1F94012A193B09DC012D933C9325
:1058A000F4017ECE4FEFD8014C938F5F91098901AF
:1058B00098012F5F3F4F8F3F9105A4F7D8018C933C
:1058C00089019DCFEFEFD801EC93FFEFCF1AD108FC
:1058D0008C01ADCFF4016FCE4C938F5F91096901BC
:1058E00096012F5F3F4FD6018F3F9105ACF78C9308
:1058F0006901A0CE10929705109296050895FC01BB
:10590000643090F080818F7D883571F481818F7D46
:105910008A3551F482818A3339F483819FE9980F63
:105920009A3120F4833781F080E00895813341F08B
:10593000833551F08033C1F71092970581E00895C7
:1059400081E080939705089581E0809396050895FE
:10595000809197050895CF93DF93EC01CB012091BF
:1059600096052223C1F020919705E7E0F2E022237B
:1059700011F0E2E0F2E0059774F084E0DE010190BE
:105980000D928A95E1F71C821092960584E090E0D2
:10599000DF91CF9108958FEF9FEFFACF0F931F9371
:1059A000CF93DF938B01EA01243031053CF48FEF74
:1059B0009FEFDF91CF911F910F91089524503109EE
:1059C0004C5F5F4F0E94562A97FDF1CF99838883E1
:1059D0000A831B830496EDCF299A08952998089588
:1059E000CF93DF93D82FC0E00E94EC2C2FEF87EEEF
:1059F00093E0215080409040E1F700C000000E94F9
:105A0000EE2C2FEF87EE93E0215080409040E1F79D
:105A100000C00000CF5FDC13E7CFDF91CF91089586
:105A2000459A089545980895CF93DF93D82FC0E005
:105A30000E94102D2FEF87EE93E021508040904080
:105A4000E1F700C000000E94122D2FEF87EE93E0D7
:105A5000215080409040E1F700C00000CF5FDC1390
:105A6000E7CFDF91CF910895219A3D9A0E94EE2CC5
:105A70000C94122DFC01079738F4EE51FF4C0C9456
:105A8000AD2D82E00E94F02C2FEF85EA9EE02150A0
:105A900080409040E1F700C00000089581E0F2CF1F
:105AA00083E0F0CF82E00E94142DEECF83E0FBCFA5
:105AB00081E0F9CF0E94EC2C0E94102D2FEF87EE91
:105AC00093E0215080409040E1F700C000000E9428
:105AD000EE2C0E94122D2FEF87EE93E02150804094
